:100000000C94A2110C94D3110C94D3110C94D31111
:100010000C94D3110C94D3110C94D3110C94D311D0
:100020000C94D3110C94D3110C94D3110C94D311C0
:100030000C94D3110C94D3110C94D3110C94D311B0
:100040000C94D3110C949F640C94D3110C94D31181
:100050000C94D3110C94FD650C9442650C94B6A8D5
:100060000C94D3110C9455660C947F660C94D311A8
:100070000C94D3110C94D3110C94D3110C94D31170
:100080000C94D3110C94D3110C94D3110C94D31160
:100090000C94D3110C94D3110C94D3110C9488A705
:1000A0000C94D3110C94D3110C94D3110C94D31140
:1000B0000C94D3110C94D3110C94D3110C94D31130
:1000C0000C94D3110C94D3110C94D3110C94D31120
:1000D0000C94D3110C94D3110C94D3110C94D31110
:1000E0000C94D311E75EFF5EFF5EFF5EFF5EFF5E76
:1000F000FF5EFF5EFF5EFF5EFF5EFF5EFF5EFF5E18
:10010000FF5EFF5EFF5EFF5EFF5EFF5EFF5EFF5E07
:10011000FF5EFF5EFF5EFF5ED65E885E925E0C5EF7
:10012000FF5EB85EC25EFF5EFF5E1D5EFA5DFF5E53
:10013000AE5EFF5ECC5EA45E9C5EFF5EFF5EFF5E19
:100140006A5E745E7E5EFF5EFF5EFF5EFF5EFF5E68
:10015000FF5EFF5EFF5EFF5ED65E885E925E0C5EB7
:10016000FF5EB85EC25EFF5EFF5E1D5EFA5DFF5E13
:10017000AE5EFF5ECC5EA45E9C5EFF5EFF5EFF5ED9
:100180006A5E745E7E5EE3A9E8A9EDA9F7A901AAFB
:100190007AAA0BAA13AA1BAA25AA2FAA39AA48AA87
:1001A00052AA7AAA5CAA66AA70AA9BAA9EAA8DAA3B
:1001B00091AA97AAD5AAA2AAA6AAACAAB0AAB4AA9A
:1001C000BAAABEAAC2AAD5AAC8AACCAAD0AA0763AC
:1001D0004236B79BD8A71A39685618AEBAAB558CB9
:1001E0001D3CB7CC5763BD6DEDFD753EF617723102
:1001F000BF000000803F05A84CCDB2D44EB93836C0
:10020000A9020C50B9918688083CA6AAAA2ABE0069
:100210000000803F436F6C64206578747275736969
:100220006F6E20646973616C6C6F77656400436FF7
:100230006C6420657874727573696F6E20616C6C84
:100240006F776564004175746F7265747261637471
:100250003A0053657474696E67206D6F746F722015
:1002600063757272656E742E2E2E00536574204D68
:100270006963726F7374657070696E670054726938
:1002800067676572696E67207761746368646F671A
:100290002E204966206163746976617465642C2040
:1002A000746865207072696E7465722077696C6C11
:1002B0002072657365742E0053657474696E6720CF
:1002C0005468726573686F6C6420546F3A00494ECD
:1002D000542050494E3A20004D32353120002074D0
:1002E0006F200053657420766F6C756D657472694C
:1002F0006320657874727573696F6E20666F722003
:100300006578747275646572200044697361626C0B
:10031000656420766F6C756D6574726963206578AD
:1003200074727573696F6E20666F7220657874726F
:100330007564657220004D313134200050696E20A3
:1003400063616E206E6F7420626520736574206235
:1003500079204D34322C206D617920696E20696ED0
:1003600076616C6964206F7220696E207573652EEA
:100370002000496C6C6567616C20532076616C7558
:100380006520666F72204D3432005A2028432920A0
:10039000746F77657220666C6F6F7220736574205E
:1003A000746F3A2000592028422920746F776572B3
:1003B00020666C6F6F722073657420746F3A200032
:1003C000582028412920746F77657220666C6F6F02
:1003D000722073657420746F3A2000526F6420524B
:1003E00061646975732073657420746F3A200047E7
:1003F0003133342000506F7346726F6D53746570E3
:10040000733A00436F6D7044656C74613A004361E8
:100410006C6962726174696F6E206D6F76656D656F
:100420006E74206973206C696D6974656420746FE3
:100430002031306D6D2E004669727374206D6F76B9
:100440006520746F20746F75636820617420782C48
:10045000793D302C3020746F206175746F2D736579
:1004600074207261646975732E0043616C696272F5
:100470006174696F6E206D6F76656D656E7420694D
:1004800073206C696D6974656420746F2031306D00
:100490006D2E0043616E6E6F7420736574207261FF
:1004A0006469757320616E6420666C6F6F72206181
:1004B000742073616D652074696D652E0043616CF5
:1004C0006962726174696F6E20636F64652069731D
:1004D000206C696D6974656420746F20626F747438
:1004E0006F6D20313025206F66205A20686569675E
:1004F00068740052656C617469766520706F736909
:1005000074696F6E696E67004162736F6C757465B4
:1005100020706F736974696F6E696E670047363952
:1005200020005A3A2000593A2000583A20004F46FD
:100530004653455453204F464620425920544F4F6E
:10054000204D554348205F20545259494E47204181
:100550004741494E3A200053657474696E672050D4
:10056000726F62652053656E736974697669747918
:1005700020546F3A005A2070726F6265206661697C
:100580006C6564206F6E2073656E7369746976693B
:1005900074793A200053657474696E672050726FE5
:1005A00062652053656E7369746976697479205445
:1005B0006F3A005A2070726F6265206661696C65DF
:1005C00064206F6E2073656E7369746976697479DF
:1005D0003A200053657474696E672050726F6265CB
:1005E0002053656E736974697669747920546F3A23
:1005F000005A2070726F6265206661696C656420C4
:100600006F6E2073656E73697469766974793A20C8
:100610000068656865004E6577205261646975738E
:100620003A20004F6C64205261646975733A20006F
:1006300043616C63756C61746564205261646975B3
:100640007320697320626164203A00536574746991
:100650006E672050726F62652053656E73697469AE
:100660007669747920546F3A005A2070726F62650F
:10067000206661696C6564206F6E2073656E7369B6
:100680007469766974793A200053657474696E6789
:100690002050726F62652053656E73697469766964
:1006A000747920546F3A005A2070726F6265206628
:1006B00061696C6564206F6E2073656E736974691F
:1006C000766974793A2000473332200050524F4205
:1006D000452D5A4F46465345543A00473330005350
:1006E000657474696E672050726F62652053656E21
:1006F000736974697669747920546F3A0050726F27
:1007000062657320646F206E6F74206D617463681E
:100710002E204F66662062792000202D2050524FF7
:100720004245204F46465345543A00506F696E7417
:10073000200047333020004D3131372043414C49B0
:1007400042524154494F4E20434F4D504C45544521
:100750000068656865004E657720486F72697A6F3A
:100760006E74616C205261646975733A20004F6C3D
:100770006420486F72697A6F6E74616C2052616494
:100780006975733A200043616C63756C61746564CC
:1007900020526164697573206973206261643A2034
:1007A000004D3131372043414C4942524154494F69
:1007B0004E204641494C45440043616C6962726178
:1007C00074696F6E204661696C656400536574746A
:1007D000696E672050726F62652053656E7369742D
:1007E000697669747920546F3A005A2070726F628A
:1007F00065202843656E74657220506F696E742998
:10080000206661696C6564206F6E2073656E736924
:100810007469766974793A20004E6577205A2048C9
:1008200065696768743A004F6C64205A20486569AE
:100830006768743A004D3131372043414C49425288
:100840004154494F4E204641494C45440043616C58
:100850006962726174696F6E204661696C656400DB
:1008600053657474696E672050726F6265205365BA
:100870006E736974697669747920546F3A005A20EE
:1008800070726F6265202843656E74657220506FC8
:10089000696E7429206661696C6564206F6E2073CF
:1008A000656E73697469766974793A2000473639E0
:1008B00020005A3A2000593A2000583A20004F466A
:1008C0004653455453204F464620425920544F4FDB
:1008D000204D5543482E2041626F7274696E670047
:1008E0004D3131372043414C4942524154494F4EDA
:1008F000204641494C45440043616C696272617411
:10090000696F6E204661696C656400536574746933
:100910006E672050726F62652053656E73697469EB
:100920007669747920546F3A005A2070726F62654C
:1009300020285A20546F77657229206661696C659A
:1009400064206F6E2073656E73697469766974795B
:100950003A20004D3131372043414C4942524154F5
:10096000494F4E204641494C45440043616C696201
:10097000726174696F6E204661696C6564005365CD
:100980007474696E672050726F62652053656E7370
:100990006974697669747920546F3A005A207072CC
:1009A0006F626520285920546F776572292066612F
:1009B000696C6564206F6E2073656E736974697607
:1009C0006974793A20004D3131372043414C494216
:1009D000524154494F4E204641494C4544004361E1
:1009E0006C6962726174696F6E204661696C6564DE
:1009F0000053657474696E672050726F626520538E
:100A0000656E736974697669747920546F3A005A17
:100A10002070726F626520285820546F77657229A4
:100A2000206661696C6564206F6E2073656E736902
:100A30007469766974793A20004734205331300064
:100A40004D3130342053300A4D3134302053300A88
:100A50004D313037006578656375746547436F6461
:100A600065202F20717565756544656C74614D6FE7
:100A700076652072657475726E73206572726F721E
:100A80000069697332646820616363656C65726FC5
:100A90006D6574657220696E697469616C697A69E3
:100AA0006E672E2E2E00616363656C65726F6D65D7
:100AB0007465722069326320726563762065727294
:100AC0006F722E002076616C75653A200072656148
:100AD00064207265672000616363656C65726F6D89
:100AE0006574657220777269746520693263206568
:100AF00072726F722E00616363656C65726F6D65F3
:100B00007465722073656E64206932632065727249
:100B10006F722E0000000100250030001D000C0047
:100B20001E00240031001C000B00180023002F00C1
:100B30001B000A0017000D004700030004002200FC
:100B40002B001A00410042000000020035004578E9
:100B500074722E00436F6E6669673A004F6E6520AF
:100B6000686561746572207365656D732064656383
:100B70006F75706C65642066726F6D207468657245
:100B80006D6973746F72202D2064697361626C6982
:100B90006E6720616C6C20666F722073616665748D
:100BA000792100616476616E6365204C205B303D85
:100BB0006F66665D00657874727564657220636F38
:100BC0006F6C6572207370656564205B302D323503
:100BD000355D0064697374616E636520746F2072A3
:100BE000657472616374207768656E2068656174EE
:100BF000696E67205B6D6D5D0074656D702E20669B
:100C00006F722072657472616374696F6E207768A9
:100C1000656E2068656174696E67205B435D007472
:100C2000656D702E2073746162696C697A652074D9
:100C3000696D65205B735D00592D6F666673657421
:100C4000205B73746570735D00582D6F6666736505
:100C500074205B73746570735D00504944206D614E
:100C6000782076616C7565205B302D3235355D00FE
:100C700050494420442D6761696E00504944204921
:100C80002D6761696E0050494420502D6761696E7F
:100C90002F646561642D74696D650050494420645A
:100CA00072697665206D696E0050494420647269EE
:100CB0007665206D61780068656174206D616E6194
:100CC000676572205B302D335D00616363656C6521
:100CD000726174696F6E205B6D6D2F735E325D00A3
:100CE0007374617274206665656472617465205BFB
:100CF0006D6D2F735D006D61782E20666565647281
:100D0000617465205B6D6D2F735D00737465707326
:100D100020706572206D6D00436F72722E206469C1
:100D200061676F6E616C2043205B6D6D5D00436F8A
:100D300072722E20646961676F6E616C2042205B65
:100D40006D6D5D00436F72722E20646961676F6E16
:100D5000616C2041205B6D6D5D004D61782070728B
:100D6000696E7461626C6520726164697573205B81
:100D70006D6D5D00546F776572205A20656E6473E7
:100D8000746F70206F6666736574205B7374657032
:100D9000735D00546F776572205920656E647374BB
:100DA0006F70206F6666736574205B737465707313
:100DB0005D00546F776572205820656E6473746FA0
:100DC00070206F6666736574205B73746570735D05
:100DD000005365676D656E74732F7320666F7220A4
:100DE00074726176656C005365676D656E74732F00
:100DF0007320666F72207072696E74696E67004846
:100E00006F72697A6F6E74616C20726F64207261A8
:100E10006469757320617420302C30205B6D6D5DCA
:100E200000446961676F6E616C20726F64206C654D
:100E30006E677468205B6D6D5D00486F6D696E67ED
:100E4000206665656472617465205B6D6D2F735DEE
:100E5000004D61782E206665656472617465205B63
:100E60006D6D2F735D005374657073207065722013
:100E70006D6D0054726176656C20616363656C65AD
:100E8000726174696F6E205B6D6D2F735E325D00F1
:100E9000416363656C65726174696F6E205B6D6D33
:100EA0002F735E325D004D61782E206A65726B2073
:100EB0005B6D6D2F735D005A206D6178206C656EDF
:100EC000677468205B6D6D5D0059206D6178206CE2
:100ED000656E677468205B6D6D5D0058206D61788C
:100EE000206C656E677468205B6D6D5D005A2068CC
:100EF0006F6D6520706F73205B6D6D5D00592068AC
:100F00006F6D6520706F73205B6D6D5D005820689C
:100F10006F6D6520706F73205B6D6D5D0053746F36
:100F200070207374657070657220616674657220DC
:100F3000696E6163746976697479205B6D732C30B6
:100F40003D6F66665D004D61782E20696E61637449
:100F50006976652074696D65205B6D732C303D6F1B
:100F600066665D005072696E7465722061637469B3
:100F70007665205B735D0046696C616D656E7420FB
:100F80007072696E746564205B6D5D0041647661AA
:100F90006E636564205573657200426175647261A9
:100FA0007465004550523A3320004550523A322081
:100FB000004550523A3120004550523A30200050FE
:100FC000726F746F636F6C2076657273696F6E20D9
:100FD0006368616E6765642C20757067726164690F
:100FE0006E6700436F6E66696775726174696F6ED4
:100FF00020726573657420746F2064656661756C1A
:1010000074732E00436F6E66696775726174696FE1
:101010006E206C6F616465642066726F6D2045455B
:1010200050524F4D2E00436F6E6669677572617442
:10103000696F6E2073746F72656420746F2045450C
:1010400050524F4D2E004175746F6C6576656C2063
:101050006163746976652028312F3029005A2D701C
:10106000726F6265205933005A2D70726F6265206D
:101070005833005A2D70726F6265205932005A2D14
:1010800070726F6265205832005A2D70726F6265FF
:10109000205931005A2D70726F6265205831005A04
:1010A0002D70726F626520782D792D73706565647F
:1010B000205B6D6D2F735D005A2D70726F6265201D
:1010C0007370656564205B6D6D2F735D005A2D70C4
:1010D000726F6265206F66667365742079205B6D40
:1010E0006D5D005A2D70726F6265206F6666736564
:1010F000742078205B6D6D5D004D61782E207A2D17
:1011000070726F6265202D2062656420646973745B
:101110002E205B6D6D5D005A2D70726F62652068C8
:101120006569676874205B6D6D5D00776169740047
:101130005072696E746572206865696768743A00F8
:101140005A2D70726F6265206661696C6564005427
:1011500072616E73666F726D6174696F6E206D611E
:10116000747269783A004175746F6C6576656C6964
:101170006E672064697361626C6564004175746FA9
:101180006C6576656C696E6720656E61626C65641E
:10119000004175746F6C6576656C206D6174726961
:1011A0007820726573657400004732382F6E4731BE
:1011B0005A32352F6E005A2D70726F62652073742B
:1011C0006174653A005265736574205A20686569D8
:1011D000676874005A2D70726F626520617665725F
:1011E000616765206865696768743A0020537465B3
:1011F0007020566172696174696F6E2066726F6DDE
:101200002050726F626520746F20626564204469AB
:101210007374616E63653A005A2D70726F62653A3D
:10122000005072696E7465722073657420696E7403
:101230006F206472792072756E206D6F6465207501
:101240006E74696C207265737461727421003A2047
:10125000776F726B696E67003A2074656D702073EA
:10126000656E736F7220646566656374006578747B
:10127000727564657220004D54454D503A005049D6
:1012800044204175746F74756E652066696E69736C
:10129000686564202120506C616365207468652056
:1012A0004B702C204B6920616E64204B6420636F6F
:1012B0006E7374616E747320696E20746865204368
:1012C0006F6E66696775726174696F6E2E68206FE4
:1012D0007220454550524F4D00504944204175748D
:1012E0006F74756E65206661696C65642120746930
:1012F0006D656F757400504944204175746F747545
:101300006E65206661696C6564212054656D706549
:1013100072617475726520746F2068696768002057
:101320004B643A2000204B693A2000204B703A2051
:101330000020436C6173736963205049440020545A
:10134000753A2000204B753A2000206D61783A20D4
:1013500000206D696E3A200020643A200020626906
:1013600061733A2000504944204175746F74756E62
:101370006520737461727400546172676574457896
:101380007472004E6F206D6F766520696E20646503
:101390006C7461207365676D656E7420776974681D
:1013A000203E2031207365676D656E742E20546871
:1013B00069732073686F756C64206E657665722042
:1013C00068617070656E20616E64206D6179206364
:1013D0006175736520612070726F626C656D2100AC
:1013E00044656C74612052616469757320432830D0
:1013F000293A0044656C74612052616469757320F8
:10140000422830293A0044656C7461205261646955
:10141000757320412830293A00416C70686120437F
:10142000283930293A00416C7068612042283333F2
:1014300030293A00416C70686120412832313029EE
:101440003A00546F77657220333A00546F776572B3
:1014500020323A00546F77657220313A00496E7637
:10146000616C69642064656C746120636F6F726481
:10147000696E617465202D206D6F76652069676ED9
:101480006F726564006C696E656172204C3A00454C
:101490004550524F4D2075706461746564002C2076
:1014A00073706565643D00206C696E6561722073C0
:1014B000746570733A004A65726B3A007A5F6D61C9
:1014C000783A00795F6D61783A00785F6D61783ABB
:1014D000004C2000482000206973200020746F20F9
:1014E00000536574206F75747075743A20004D5305
:1014F000312C4D53322050696E730045313A00450E
:10150000303A005A3A00593A0020002C00206D6908
:101510006E0020686F7572732000206461797320FB
:10152000006D20005072696E74696E672074696D79
:10153000653A005072696E7465642066696C616D0D
:10154000656E743A0046616E73706565643A004674
:101550006C6F774D756C7469706C793A0053706577
:1015600065644D756C7469706C793A00202F003A8F
:101570000020403A00543A0020453A00205A3A00F0
:1015800020593A0020583A00583A004672656520C2
:1015900052414D3A00556E6B6E6F776E20636F6DE2
:1015A0006D616E643A00536F6674776172652052A4
:1015B00065736574005761746368646F6720526572
:1015C0007365740042726F776E206F757420526578
:1015D0007365740045787465726E616C2052657332
:1015E000657400506F776572557000737461727422
:1015F00000424C4B2000736B6970200020676F74B1
:1016000020004572726F723A657870656374656424
:10161000206C696E652000205200204A002049009D
:10162000205000205300204600204500205A002072
:101630005900205800466F726D6174206572726F98
:10164000720057726F6E6720636865636B73756DA8
:10165000006F6B20004563686F3A00526573656EDA
:10166000643A005761726E696E673A00496E666F40
:101670003A004572726F723A00494E46004E414E32
:10168000006F6B004649524D574152455F4E414DE8
:10169000453A52657065746965725F302E39322E35
:1016A00032204649524D574152455F444154453AD4
:1016B0003230313631323237204D414348494E4580
:1016C0005F545950453A455249532044656C746102
:1016D0002000206465672E204300206D65617375CE
:1016E00072656420004572726F723A436F756C6464
:1016F000206E6F7420686F6C642074656D70657205
:1017000061747572652000206D73002061667465D8
:101710007220004572726F723A54656D702E20729D
:10172000616973656420746F20736C6F772E20522B
:10173000697365203D2000004D31313720457874B4
:1017400072756465722031001C151C1400000022A3
:1017500043141F1F5C1B081B981A481A0000000046
:101760000000C019B4186418E8176C170400081DAD
:10177000900058091C01B007A801C80634023006C1
:10178000C002C0054C036805D80318056404D004E2
:10179000F00498047C0560040806300494060004F4
:1017A0002007D003AC07A80338088003C4085803F7
:1017B00050093003DC090803680AD802F40AB002B1
:1017C000800B88020C0C6002980C3002240DF8018A
:1017D000B00DC0013C0E8001C80E3001540FB8009E
:1017E000B40F2800E00F00000400401D90006009C5
:1017F0001C01B007A801D00634023806C002C80593
:101800004C036805D80318056404D804F004980450
:101810007C05600408063004940600042007D00309
:10182000AC07A80338088003C408580350093003E4
:10183000DC090803680AE002F40AB802800B880297
:101840000C0C6002980C3002240DF801B00DC001A0
:101850003C0E8001C80E3001540FB800B40F2800B0
:10186000E00F000004000016D800C006AC017805A7
:101870008002C004540348042804E803FC049803CD
:10188000D0055003A40618037807D8024C08A80214
:1018900020097002F4093802C80A08029C0BD00122
:1018A000700C9001440D5001180EF800EC0E8800E9
:1018B000C00F00000400681D4C00500B9400580934
:1018C000DC0050082401A8076C012807B401C006F9
:1018D000FC017006440228068C02F005D402B8050B
:1018E0001C03880564035805AC033005F403100598
:1018F0003C04E8048404C804CC04A804140590043F
:101900005C057004A4055804EC0538043406200472
:101910007C060804C406F0030C07D8035407C80368
:101920009C07B003E40798032C0880037408700335
:10193000BC085803040948034C09300394091803F0
:10194000DC090803240AF0026C0AE002B40AC802A7
:10195000FC0AB002440BA0028C0B8802D40B70026C
:101960001C0C5802640C4002AC0C2802F40C10024F
:101970003C0DF001840DD801CC0DB801140E980176
:101980005C0E7001A40E4801EC0E1801340FD80053
:101990007C0F8800C40F0800FC0F0000000000004E
:1019A0000000000000000000000000000000000037
:1019B0000000000000000000000000000000000027
:1019C0000000401F450060094F0010095C00C0087E
:1019D0006B0070087D0020089200D007AC008007E3
:1019E000CC003007DE00E006230190065E014006D1
:1019F000A601F005FF01A0056D025005F3020005E8
:101A00009603B0045A046004400510044806C0035D
:101A10006E077003A8082003EB09D002230B800295
:101A2000410C3002390DE001040E9001A20E40017C
:101A3000170FF000690FA000A20F5000C60F0000A2
:101A4000DD0FB0FFEB0F60FF0400700DD8004804FD
:101A5000AC0158038002D8025403800228043802E3
:101A6000FC040002D005C801A406980178077001A3
:101A70004C08480120091801F409F000C80AC80000
:101A80009C0BA000700C7000440D3800180E000074
:101A9000EC0EA8FFC00FE8FE0400001B5400600914
:101AA000640010097400C008840070089C002008BD
:101AB000B800D007D8008007000130072C01E006ED
:101AC00068019006AC0140060002F0056802A0051E
:101AD000E0025005740300052404B004F00460041F
:101AE000DC051004E406C003040870033009200379
:101AF000780B8002600DE001A80E4001680FA00085
:101B0000C00F0000E80F60FF0400801AD80098089A
:101B1000AC012007800250065403C805280458056C
:101B2000FC040005D005B004A40668047807280466
:101B30004C08E8032009B003F4097003C80A38030D
:101B40009C0BF802700CB002440D6802180E0802DB
:101B5000EC0E8801C00F8800F00F00000000A00FFD
:101B60005C006009690010097900C0088C007008E9
:101B7000A2002008BD00D007DE0080070501300765
:101B80003401E0066D019006B20140060702F0053F
:101B90006D02A005E80250057B0300052B04B0048C
:101BA000F8046004EB06C003350920037F0B8002B4
:101BB000650DE001B00E40011D0FF000480FC80098
:101BC0006C0FA000ED0F60FFFE0F48FE000000004C
:101BD0000000000000000000000000000024F403EA
:101BE000D950C38EB1C2A23D96828B3582127AE360
:101BF00072816CCB66A861015DC758EB54615120BE
:101C00004E1E4B5648C14559431A41013F093D2FCD
:101C10003B7139CD374036C93465331432D430A3E3
:101C20002F802E6B2D632C672B752A8E29B028DC14
:101C30002710274B268F25D9242B248223E02243EB
:101C400022AC211A218D200420801F001F841E0C2D
:101C50001E971D261DB81C4E1CE61B821B201BC197
:101C60001A641A0A1AB2195D190A19B9186A181CE5
:101C700018D11788174017FA16B51673163116F1D2
:101C800015B31576153A150015C7148F145814227C
:101C900014EE13BA13881356132513F612C71299AC
:101CA000126C1240121512EB11C1119811701148EB
:101CB000112111FB10D610B1108D1069104610249F
:101CC000100210E10FC00FA00F800F610F420F2311
:101CD0000F060FE80ECB0EAF0E930E770E5C0E4183
:101CE0000E270E0D0EF30DDA0DC10DA80D900D7817
:101CF0000D600D490D320D1B0D050DEF0CD90CC3F8
:101D00000CAE0C990C850C700C5C0C480C350C213D
:101D10000C0E0CFB0BE80BD60BC40BB20BA00B8EFE
:101D20000B7D0B6B0B5A0B4A0B390B290B180B084D
:101D30000BF80AE90AD90ACA0ABB0AAC0A9D0A8E3C
:101D40000A800A710A630A550A470A390A2C0A1ED0
:101D50000A110A040AF709EA09DD09D009C409B71A
:101D600009AB099F09920987097B096F0963095823
:101D7000094C09410936092B09200915090A0900EE
:101D800009F508EB08E008D608CC08C208B808AE88
:101D900008A4089A08900887087D0874086B0861F1
:101DA0000858084F0846083D0834082C0823081A2C
:101DB00008120809080108F807F007E807E007D843
:101DC00007D007C807C007B807B007A807A10700D2
:101DD00000420FA1071605D0030D038B022E02E867
:101DE00001B2018601630145012C0117010401F4D0
:101DF00000207A3A0020793A0020783A00696E2073
:101E0000717565756544656C74614D6F7665207498
:101E10006F2063616C63756C61746544656C74619B
:101E20005375625365676D656E7473207265747562
:101E3000726E73206572726F722E0043206869742F
:101E400020666C6F6F720043706F7320782073711F
:101E500075617265200043706F732078207374651C
:101E60007073200043706F732079207371756172F5
:101E700065200043706F7320792073746570732040
:101E800000422068697420666C6F6F720042706F48
:101E900073207820737175617265200042706F73D2
:101EA0002078207374657073200042706F732079FE
:101EB00020737175617265200042706F7320792004
:101EC00073746570732000412068697420666C6FBC
:101ED0006F720041706F7320782073717561726545
:101EE000200041706F732078207374657073200038
:101EF00041706F73207920737175617265200041A4
:101F0000706F73207920737465707320006D6F7625
:101F10006552656C617469766544697374616E635A
:101F200065496E5374657073202F207175657565F2
:101F300044656C74614D6F76652072657475726E60
:101F400073206572726F72004D617854656D703ADE
:101F5000004469616D657465723A00416363656C44
:101F600065726174696F6E3A004D61785370656592
:101F7000643A004A65726B3A004D61784265645478
:101F8000656D703A005072696E746572547970654F
:101F90003A44656C7461005A54726176656C4163B1
:101FA00063656C3A005954726176656C4163636590
:101FB0006C3A005854726176656C416363656C3AA3
:101FC000005A5072696E74416363656C3A005950EF
:101FD00072696E74416363656C3A00585072696E41
:101FE00074416363656C3A005A53697A653A0059E3
:101FF00053697A653A005853697A653A005A4D61D7
:10200000783A00594D61783A00584D61783A005A53
:102010004D696E3A00594D696E3A00584D696E3AF5
:10202000004A65726B58593A005072696E746C6957
:102030006E6543616368653A00454550524F4D3ABD
:10204000004175746F6C6576656C3A005A50726F1A
:1020500062653A00436173654C69676874733A005E
:10206000537570706F72744C6F63616C46696C610C
:102070006D656E746368616E67653A005375707064
:102080006F72744731304731313A005A486F6D658D
:102090004469723A0059486F6D654469723A005854
:1020A000486F6D654469723A00536F667477617268
:1020B00065506F7765725377697463683A004C4373
:1020C000443A0046616E3A005344436172643A00F8
:1020D0004865617465644265643A004D6978696E6B
:1020E0006745787472756465723A004E756D45780F
:1020F0007472756465723A00496E707574427566E3
:102100006665723A0042617564726174653A004EA8
:102110006F2063617365206C6967687473004D316B
:10212000313420007A70726F62696E672E2E2E0035
:1021300064656C6179203130306D732E00686F6D8D
:1021400065417869732000686F6D65417869732017
:102150002F20717565756544656C74614D6F76658A
:102160002072657475726E73206572726F720050A2
:1021700072696E7465723A3A736574757020006D99
:102180006F7665546F5265616C202F20717565758F
:102190006544656C74614D6F766520726574757207
:1021A0006E73206572726F72006D6F7665546F206A
:1021B0002F20717565756544656C74614D6F76652A
:1021C0002072657475726E73206572726F72006929
:1021D00073506F736974696F6E416C6C6F7765646F
:1021E000200000000A0B02090C0D0E080703040171
:1021F00000000000000000000000000000000000DF
:1022000000000000000000000000000000001211AB
:1022100010000000000000000000000000000000AE
:10222000000000000000000001021020200808103B
:102230002040102040800201020108040201010236
:10224000040810204080804020100804020180040F
:10225000020180402010080402010804020101026A
:102260000408102040800102040810204080050569
:102270000505070508080808020202020A0A0808FC
:10228000040404040101010101010101030303032A
:1022900003030303040707070C0C0C0C0C0C0C0CB9
:1022A0000202020206060606060606060B0B0B0BCA
:1022B0000B0B0B0B000020002300260029002C0034
:1022C0002F00320000010000030106010901000097
:1022D0002200250028002B002E00310034000201CE
:1022E0000000050108010B01000021002400270067
:1022F0002A002D0030003300010100000401070115
:102300000A014E414E494E495459494E46CDCCCC16
:102310003D0AD7233C17B7D13877CC2B329595E6B9
:10232000241FB14F0A000020410000C84200401C99
:102330004620BCBE4CCA1B0E5AAEC59D74002F670A
:1023400010A0A9A611241FBECFEFD1E2DEBFCDBFE2
:1023500000E00CBF13E0A0E0B2E0E8E8F8E601E03E
:102360000BBF02C007900D92AC31B107D9F729E13C
:10237000ACE1B3E001C01D92A93EB207E1F713E260
:10238000C4E4D3E200E006C022970109FE010BBFBE
:102390000E941AB0CE33D10780E00807A9F70E9447
:1023A0006DAB0C9442B40C940000CF93DF9300D03B
:1023B0001F92CDB7DEB744E050E0BC01CE010196DC
:1023C0000E94FEB369817A818B819C810F900F906E
:1023D0000F900F90DF91CF91089588E493E0E5CFBF
:1023E000CF92DF92EF92FF92CF93DF9300D01F92B4
:1023F0001F92CDB7DEB76B017C0160933B187093E1
:102400003C1880933D1890933E180E947D88C982A5
:10241000DA82EB82FC8244E050E065E773E0CE01B3
:1024200001960E9420B423E0B701A6018BED93E052
:102430000E94E13E0E945242682F88E690E06D8340
:102440000E940EB46D81681721F088E690E00E942A
:1024500029B40F900F900F900F900F90DF91CF91B4
:10246000FF90EF90DF90CF900895CF93DF931F926E
:10247000CDB7DEB7BC018DE793E00E943CB40E946B
:102480005242682F88E690E069830E940EB4698109
:10249000681739F088E690E00F90DF91CF910C94A7
:1024A00029B40F90DF91CF910895CF93DF931F92BE
:1024B000CDB7DEB7BC018FE793E00E943CB40E9429
:1024C0005242682F88E690E069830E940EB46981C9
:1024D000681739F088E690E00F90DF91CF910C9467
:1024E00029B40F90DF91CF910895CF93DF931F927E
:1024F000CDB7DEB7BC0181E893E00E943CB40E94F6
:102500005242682F88E690E069830E940EB4698188
:10251000681739F088E690E00F90DF91CF910C9426
:1025200029B40F90DF91CF910895809151048823B1
:10253000A1F0109251040E94D157809190028150D5
:1025400080939002811109C080919102833010F430
:102550000E94785785E08093900208958091180634
:10256000882329F00E94756180E0DFDFF7CF0895AE
:102570004F925F926F927F928F929F92AF92BF9293
:10258000CF92DF92EF92FF920F931F93CF93DF933F
:1025900000D01F92CDB7DEB78C018091B518909115
:1025A000B618A091B718B091B81889839A83AB83F5
:1025B000BC83C090B918D090BA18E090BB18F090C6
:1025C000BC188090BD189090BE18A090BF18B09015
:1025D000C0189C01AD01BC01CD010E9459AF811111
:1025E0000FC149805A806B807C80E89477F82FEF88
:1025F0003FEF4FE75FE7C301B2010E9459AF81117E
:102600000BC02FEF3FEF4FE75FE7C301B2010E941E
:1026100006AC18160CF4F4C0A7019601C701B60168
:102620000E9459AF8111ECC026013701E89477F878
:102630002FEF3FEF4FE75FE7C301B2010E9459AFB1
:1026400081110BC02FEF3FEF4FE75FE7C301B201EE
:102650000E9406AC18160CF4D3C0A5019401C50164
:10266000B4010E9459AF8111CBC024013501E89417
:1026700077F82FEF3FEF4FE75FE7C301B2010E940A
:1026800059AF81110BC02FEF3FEF4FE75FE7C30159
:10269000B2010E9406AC18160CF4B2C020918D183D
:1026A00030918E1840918F185091901869817A81DD
:1026B0008B819C810E94A2AB2B013C01209191183F
:1026C000309192184091931850919418C701B60117
:1026D0000E94A2AB6B017C01209195183091961855
:1026E0004091971850919818C501B4010E94A2AB6F
:1026F0004B015C0180911519882329F020E732E411
:1027000041E25DE304C020E030E040E85FE3C30164
:10271000B2010E94AEAEAB01BC0122E088E895E1B7
:102720000E941E3F80911519882329F020E732E48A
:1027300041E25DE304C020E030E040E85FE3C70130
:10274000B6010E94AEAEAB01BC0122E080E895E18B
:102750000E941E3F80911519882329F020E732E45A
:1027600041E25DE304C020E030E040E85FE3C50102
:10277000B4010E94AEAEAB01BC0123E08CE795E151
:102780000E941E3F6091CD187091CE188091CF1895
:102790009091D0180E94D9AC209111193091121942
:1027A00040911319509114190E94AEAE2091151941
:1027B000222329F020E732E441E25DE304C020E077
:1027C00030E040E85FE30E94AEAEAB01BC0124E024
:1027D00088E795E10F900F900F900F90DF91CF91C8
:1027E0001F910F91FF90EF90DF90CF90BF90AF902F
:1027F0009F908F907F906F905F904F900C94E13EF0
:10280000C8010E94193D4ACFCF92DF92EF92FF920A
:10281000CF93DF93EC01893191053CF0C53F81E016
:10282000D8072CF0C4EFD1E002C0C9E1D0E0BE016E
:10283000882777FD8095982F0E94D9AC6B017C0189
:102840006091C5177091C617882777FD8095982FDE
:102850000E94D9AC9B01AC01C701B6010E940DAC2E
:102860009B01AC016091C7177091C8178091C9177F
:102870009091CA170E94AEAE6093C7177093C817A5
:102880008093C9179093CA17D093C617C093C517E2
:10289000BE018DE595E1DF91CF91FF90EF90DF9044
:1028A000CF900C94C93D8F929F92AF92BF92CF92DE
:1028B000DF92EF92FF92CF93DF93EC018931910584
:1028C00034F0893C91052CF0C8ECD0E002C0C9E19D
:1028D000D0E0D093C417C093C317E0914003F091A8
:1028E0004103E258FF4FC080D180E280F38020E0B6
:1028F00030E0A901C701B6010E9406ACAE0166270F
:1029000057FD6095762F18165CF0CB01BA010E9436
:10291000D9AC2AE037ED43E25CE30E94AEAE24C0BE
:10292000CB01BA010E94D9AC2AE037ED43E25CE367
:102930000E94AEAE20E030E040E850E40E94AEAE2F
:102940004B015C01A7019601C701B6010E94AEAE22
:102950002BED3FE049E450E40E94AEAE9B01AC0198
:10296000C501B4010E940DAC6093A5027093A6024C
:102970008093A7029093A802BE018FE495E1DF91B6
:10298000CF91FF90EF90DF90CF90BF90AF909F904E
:102990008F900C94C93DCF93DF932091891897FDB8
:1029A0000DC0EC018F3F910519F014F0CFEFD0E08E
:1029B000209721F028602093891805C0277F209355
:1029C0008918C0E0D0E06111C9DD8091711790E0F5
:1029D000C817D90729F0BE0185E495E10E94C93DD9
:1029E000C0937117DF91CF9108954F925F926F92CC
:1029F0007F928F929F92AF92BF92CF92DF92EF928F
:102A0000FF92CF93DF9300D01F92CDB7DEB72FE6B2
:102A100032E143E85AE36091AD177091AE178091AF
:102A2000AF179091B0170E94AEAE6B017C0181E8A8
:102A300090E0BBDC9B01AC01C701B6010E94A2ABD8
:102A4000AB01BC0122E083E395E10E941E3F81E2DD
:102A500095E10E94E03CE0910A02F0910B0220E037
:102A600030E040E751E463857485858596850E9452
:102A70003AAE18160CF46BC020E030E0A9018DE7E7
:102A800090E029833A834B835C830E9416B44B0108
:102A90005C0129813A814B815C81820E931EA41EC8
:102AA000B51EC501B40120E831E541E050E00E94C7
:102AB000CDAF60E87EEA8EEF9FEF0E9475AF6B01AD
:102AC0007C01C80CD91CEA1CFB1CBA01A90184E2D8
:102AD00095E10E94EF3DC701B60120E13EE040E0F4
:102AE00050E00E94CDAF49015A01BA01A9018AE123
:102AF00095E10E94EF3DA0EFB1EFA50194010E9486
:102B000016B06C0D7D1D8E1D9F1D2CE330E040E046
:102B100050E00E94CDAFBA01A90182E195E10E9487
:102B2000EF3D8DE095E10F900F900F900F90DF91AA
:102B3000CF91FF90EF90DF90CF90BF90AF909F909C
:102B40008F907F906F905F904F900C94F83C0E9414
:102B500000A9C090B117D090B217E090B317F090D1
:102B6000B4176C197D098E099F0928EE33E040E007
:102B700050E00E94ABAF83CF811102C08EE207C04C
:102B8000813011F48DE203C0823019F48CE20C9490
:102B9000C0A90895EAE0F1E08081886080838081A7
:102BA0008061808380818062808364E170E08EE256
:102BB0000E94C0A964E170E08DE20E94C0A962E8B1
:102BC00070E08CE20E94C0A9E1E2F1E08081887FA0
:102BD00081608083089567FD43C08230E9F028F466
:102BE000882341F0813061F03BC0833009F18430AB
:102BF00059F136C0662311F0A19A69C0A19867C047
:102C000080910801662311F0806801C08F7780935E
:102C1000080147FF3AC05FC080910801662311F0A8
:102C2000806401C08F7B8093080147FF34C055C08A
:102C300080910801662311F0886001C0877F80932E
:102C4000080147FF32C046C080910501662311F09C
:102C5000806401C08F7B8093050147FF2EC03CC07C
:102C600047FD3BC08230B9F028F4882341F0813021
:102C700061F008958330C9F08430F9F00895442359
:102C800011F0A09A0895A0980895442311F0A29AF3
:102C90000895A298089580910801442311F080625C
:102CA00001C08F7D8093080108958091080144231D
:102CB00011F08061F7CF8F7EF5CF8091050144231D
:102CC00011F0806401C08F7B80930501089547FF58
:102CD000D6CF08950895089508950895643079F041
:102CE00028F4613041F0623041F00895683051F0CD
:102CF000603141F0089540E003C040E004C041E08D
:102D000060E002C041E061E066CFCF93DF938EEEDA
:102D100094E10E94F83C62B36695617070E088E8C7
:102D200095E10E94BD3D62B3617070E08BE095E17A
:102D30000E94C93DC6E0D1E08881992787FD909522
:102D4000692F661F6627661F70E086E095E10E9486
:102D5000BD3D62B362FB662760F970E08BE095E1F0
:102D60000E94C93D688166FB662760F970E083E0D8
:102D700095E10E94BD3D688165FB662760F970E0C2
:102D80008BE095E10E94C93D688163FB662760F98D
:102D900070E08FEF94E10E94BD3D688162956170A3
:102DA00070E08BE095E10E94C93DC3E0D1E068810D
:102DB00066FB662760F970E08BEF94E10E94BD3DF1
:102DC000688166FB662760F970E08BE095E1DF9132
:102DD000CF910C94C93DFF920F931F93CF93DF9334
:102DE00000D01F921F92CDB7DEB785E0E7EFF2E08B
:102DF000DE01119601900D928A95E1F7989A9A9AC0
:102E000080910701806280930701809107018061B2
:102E100080930701809104018064809304018E01F6
:102E20000F5F1F4FF12CF80161918F018F2D56DF3D
:102E3000F394F5E0FF12F7CF0F900F900F900F90E3
:102E40000F90DF91CF911F910F91FF9008950C94F7
:102E500037640E942264209108023091090282178F
:102E6000930724F4909309028093080208956091D7
:102E7000080270910902809106029091070268177A
:102E8000790744F470930702609306028BE895E19A
:102E90000C94C93D0895CF93C82F69E170E08AE191
:102EA00099E10E9494A66C2F8AE199E10E9435A6CF
:102EB00060E08AE199E10E9495A6882329F086EFD7
:102EC0009AE0CF910C94F83CCF910895CF93DF9383
:102ED000D82FC62F69E170E08AE199E10E9494A69B
:102EE0006D2F8AE199E10E9435A66C2F8AE199E164
:102EF0000E9435A68AE199E10E94A7A6882331F0B5
:102F000087ED9AE0DF91CF910C94F83CDF91CF915F
:102F100008951F93CF93DF93182FBDDF41E050E05A
:102F200069E170E08AE199E10E9488A68AE199E16D
:102F30000E94DEA5892BA1F08AE199E10E94E6A515
:102F4000EC01612F70E08DEC9AE00E94BD3DBE0166
:102F5000772784EC9AE0DF91CF911F910C94C93DC3
:102F600086EA9AE0DF91CF911F910C94F83C81E8BA
:102F70009AE00E94F83C8AE199E10E9473A68FE0F2
:102F8000C8DF81E3C6DF80E2C4DF6CE980E29EDF58
:102F900080E2BFDF82E2BDDF60E482E297DF82E2AF
:102FA000B8DF85E2B6DF60E085E290DF85E2B1DF81
:102FB00083E2AFDF60E383E289DF83E2AADF84E2BA
:102FC000A8DF6AE484E282DF84E2A3DF80E3A1DF9A
:102FD00060E280E37BDF80E39CDF81E39ADF82E3D2
:102FE00098DF69E182E372DF82E393DF83E391DFBD
:102FF00060E083E36BDF83E38CDF84E38ADF60E000
:1030000084E364DF84E385DF86E383DF62E386E3D2
:103010005DDF86E37EDF87E37CDF60E087E356DF0A
:1030200087E377DF88E375DF60E188E34FDF88E3DC
:1030300070DF89E36EDF8AE36CDF62E38AE346DFF9
:103040008AE367CF81E365DF85E363DF89E361DFDF
:103050008DE25FCF6DE086E295E00E94D6626AE085
:1030600086E295E00C94D662E0914003F091410332
:1030700042A953A964A975A922E085E795E10E94B8
:103080001E3FE0914003F091410346A957A960AD6E
:1030900071AD20E08CE695E10E941E3FE0918F0229
:1030A000EF3F29F4E0914003F0914103E081F0E02B
:1030B000E259F84E608170E081E795E10E94BD3DE4
:1030C000C9CF2F923F924F925F926F927F928F92D1
:1030D0009F92AF92BF92CF92DF92EF92FF920F93A7
:1030E0001F93CF93DF93CDB7DEB729970FB6F89430
:1030F000DEBF0FBECDBF5C01DC0116968D919C91A9
:1031000017978C3C910511F40C94AD2008F087C002
:103110008A36910509F45CC608F040C083359105F4
:1031200009F425C200F58A32910509F491C168F4C9
:103130008131910509F489C1429711F00C9436252B
:10314000179A169A159A0C946D258035910510F4EE
:103150000C9436258235910510F40C946D2510924F
:10316000D1180C946D258C35910509F45DC250F48D
:103170008435910509F400C28535910509F430C202
:103180000C9436258836910509F400C308F0E8C38D
:103190008336910509F4ACC20C9436258537910528
:1031A00011F40C946D25F0F48F36910509F442C6A4
:1031B00050F48B36910509F41CC68D36910509F43F
:1031C000F1C30C9436258337910509F462C608F0E3
:1031D000BAC58237910511F00C94362586E393E049
:1031E0000C946E22883C910509F4B3C670F48C38B7
:1031F000910509F461C38E3B910509F499C58737A0
:10320000910511F00C94362562C6F50120813181BB
:103210008A3C910509F44DC708F4EEC68EC78E327C
:10322000F1E09F0711F40C94FB2208F099C08F3D48
:10323000910511F40C94DD21D8F58F3C910511F422
:103240000C94232120F58D3C910509F4E2C78E3CB6
:10325000910511F00C943625C50129960FB6F89406
:10326000DEBF0FBECDBFDF91CF911F910F91FF90B9
:10327000EF90DF90CF90BF90AF909F908F907F9016
:103280006F905F904F903F902F900C94A2488C3D90
:10329000910511F40C948A218D3D910511F40C9443
:1032A000B221813D910511F00C9436250C946B21CF
:1032B000843031E0930711F40C94882290F5893E14
:1032C000910511F40C94F2218B3F910511F40C94AB
:1032D0002B22883E910511F00C94362560917617CB
:1032E0007091771787EA94E10E94BD3D4091721773
:1032F00050917317609174177091751722E08EE9E1
:1033000094E10E94E13E1092771710927617109286
:1033100072171092731710927417109275170C94FD
:103320006D25863051E0950711F40C94C42210F4F9
:103330000C94A2228931914011F00C9436258DE72E
:1033400092E00E940F3D80E00E94328868EC70E0BD
:1033500080E090E00E942FA98FB7F8940C94FA2295
:103360008836E1E09E0711F40C94622468F58134FC
:1033700021E0920711F40C946D2380F48F3241E028
:10338000940711F40C943A238034914011F00C947A
:10339000362581E00E94559B0C9482238E35A1E056
:1033A0009A0711F40C94AB238336B1E09B0711F418
:1033B0000C941C248234914011F00C94362580E04A
:1033C0000E94F69B0C948223843FF1E09F0711F446
:1033D0000C94C62450F5813931E0930711F40C9414
:1033E0007C24823941E0940711F40C9496248039AE
:1033F000914011F00C94362529960FB6F894DEBF53
:103400000FBECDBFDF91CF911F910F91FF90EF9035
:10341000DF90CF90BF90AF909F908F907F906F90F4
:103420005F904F903F902F9099C8863FA1E09A07F8
:1034300011F40C94F12410F40C94CC248C389340A7
:1034400011F40C940B250C943625179816989BC1F3
:10345000D5012D913C91119733FD02C00C946D253F
:1034600092961C919297E12E9396FC90E4E1FBE0FA
:10347000449150E04E155F0509F45DC03296BBE003
:10348000E838FB07A9F7F7FC56C032FF2BC0F5015F
:10349000468D578D60A171A14F3F510561057105A2
:1034A00009F0E8F461E0812F0E94D6AAD5015E966A
:1034B0006C91812F0E940FABF501668D778D812F66
:1034C0000E94C0A9B70181EE94E10E94BD3DD501E3
:1034D0005E966D917C915F978CED94E112C082E7CE
:1034E00093E02BC062E0812F0E94D6AAB7018CED39
:1034F00094E10E94BD3D812F0E9444ABBC0187ED49
:1035000094E129960FB6F894DEBF0FBECDBFDF91D0
:10351000CF911F910F91FF90EF90DF90CF90BF90D0
:10352000AF909F908F907F906F905F904F903F9063
:103530002F900C94C93D8CE393E029960FB6F89434
:10354000DEBF0FBECDBFDF91CF911F910F91FF90D6
:10355000EF90DF90CF90BF90AF909F908F907F9033
:103560006F905F904F903F902F900C94193D81E0A9
:103570008093D1180C946D25F5018081918192FF83
:1035800012C0268D378D40A151A1A8EEB3E00E9454
:103590000AB06093990270939A0280939B02909371
:1035A0009C020C946D250E94AE1281E029960FB604
:1035B000F894DEBF0FBECDBFDF91CF911F910F9169
:1035C000FF90EF90DF90CF90BF90AF909F908F9043
:1035D0007F906F905F904F903F902F900C94328827
:1035E000D5018D919C91119792FF14C05E962D91FB
:1035F0003D914D915C919197A8EEB3E00E940AB085
:1036000060939D0270939E0280939F029093A0020C
:103610000C946D2510929D0210929E0210929F02B2
:103620001092A0020C946D25F501808183FF0CC0DF
:1036300082859385A485B5858093E7029093E802FF
:10364000A093E902B093EA02D5018C9184FF0EC0E9
:103650001E968D919D910D90BC91A02D8093EB02B3
:103660009093EC02A093ED02B093EE02F5018081FD
:1036700085FF0CC082899389A489B5898093EF0264
:103680009093F002A093F102B093F2020E947D8821
:10369000D5018C9186FD02C00C946D2520914003CC
:1036A0003091410356968D919D910D90BC91A02D26
:1036B000F90181879287A387B487808129960FB605
:1036C000F894DEBF0FBECDBFDF91CF911F910F9158
:1036D000FF90EF90DF90CF90BF90AF909F908F9032
:1036E0007F906F905F904F903F902F900C94504E32
:1036F000D501ED91FC911197F2FF0DC05E962D91D1
:103700003D914D915C919197A8EEB3E00E940AB073
:103710006B017C0106C040E1C42E47E2D42EE12CAF
:10372000F12CE3FD179AF501808184FD169AD501ED
:103730008C9185FD159A0E9400A92B013C014C0C2F
:103740005D1C6E1C7F1C0E9400A9A3019201261B18
:10375000370B480B590BDA01C901803A9648A14052
:10376000B10518F40E94738DEECFD5018C9183FDC5
:103770001798F501808184FD1698D5018C9185FDFF
:1037800002C00C946D2515980C946D250E94A957C4
:1037900081110C946D250E9400A960937817709395
:1037A000791780937A1790937B178091AA0283FFF1
:1037B00002C00C946D25F5018081918193FF02C0B8
:1037C0000C94592592FF0AC0868D978DA0A1B1A1B6
:1037D000892B8A2B8B2B11F40C945925D5018D91B3
:1037E0009C91119792FD02C00C946D259C0122279B
:1037F000317091FF23C0232B89F011E020E030E0ED
:10380000A9015A966D917D918D919C915D970E9431
:103810003AAE18160CF010E0212F01C020E085010F
:103820000C5A1F4FF501668D778D80A191A12987D4
:103830000E94D9AC2985D8014C9124C0232B81F05A
:1038400011E020E030E0A901F501628D738D848DD7
:10385000958D0E943AAE18160CF010E0212F01C091
:1038600020E00091400310914103D5015E966D91D7
:103870007D918D919C91919729870E94D9AC298542
:10388000F801408129960FB6F894DEBF0FBECDBF78
:10389000DF91CF911F910F91FF90EF90DF90CF902C
:1038A000BF90AF909F908F907F906F905F904F9060
:1038B0003F902F900C9471530E94A95781110C9442
:1038C0006D250E9400A960937817709379178093F3
:1038D0007A1790937B178091AA0283FF02C00C9401
:1038E0006D25D5018D919C91119792FD02C00C948C
:1038F0006D2590FF11C011E020E030E0A9015A963B
:103900006D917D918D919C915D970E943AAE1816B4
:103910000CF010E0412F01C040E0F501668D778D7D
:1039200080A191A149870E94D9AC498529960FB6FB
:10393000F894DEBF0FBECDBFDF91CF911F910F91E5
:10394000FF90EF90DF90CF90BF90AF909F908F90BF
:103950007F906F905F904F903F902F900C940A5003
:10396000D5018D919C9133E0969587953A95E1F735
:10397000817029960FB6F894DEBF0FBECDBFDF91E0
:10398000CF911F910F91FF90EF90DF90CF90BF905C
:10399000AF909F908F907F906F905F904F903F90EF
:1039A0002F9062CB0E94A95781110C946D250E9423
:1039B00000A9609378177093791780937A17909382
:1039C0007B178091AA0283FF02C00C946D250E9490
:1039D000AE122090400330904103F5018081918127
:1039E00091FF09C0EC5AFF4F2081211104C02CE047
:1039F000222E22E0322E92FF1EC090FF0FC011E057
:103A000020E030E0A901D5015A966D917D918D910C
:103A10009C915D970E943AAE18160CF010E0F501EB
:103A2000668D778D80A191A10E94D9AC212FD10103
:103A30004C910E947153F10126A937A940AD51ADB7
:103A400062A973A984A995A90E94A1AB2B013C018D
:103A500020E030E0A9010E943AAE181664F420E09C
:103A600030E040E050E4C301B2010E9406AC87FFA1
:103A70000EC00C946D2520E030E040E050ECC30116
:103A8000B2010E943AAE181614F40C946D259924D4
:103A90009394D101D0962D913C91D1979E968D9182
:103AA0009C919F97821793070CF0912C0E9400A97C
:103AB0006D837E838F83988710E0412C512C3201D7
:103AC0000E9400A969837A838B839C836093781713
:103AD0007093791780937A1790937B17DC01CB0151
:103AE0002D813E814F815885821B930BA40BB50B12
:103AF000893E9340A105B10550F080E0B5DA898197
:103B00009A81AB81BC818D839E83AF83B88781E02E
:103B10000E94951280914003909141032816390626
:103B200009F062C0D1019396ED90FC9094971E1419
:103B30001F040CF059C0111156C0992009F475C02A
:103B400091966D917C919297882777FD8095982F1B
:103B50000E94D9AC9B01AC01F10162A973A984A9AF
:103B600095A90E943AAE18160CF0B0C766277727C1
:103B70006E197F09882777FD8095982F0E94D9AC10
:103B80002091F3023091F4024091F5025091F60237
:103B90000E94AEAE0E94A6AC1F921F92D101529617
:103BA0002C9152972F9351962C9151972F93509679
:103BB0002C9150972F931F962C912F935B016C01A2
:103BC000E12CF12C870120E030E0A90160E070E0F9
:103BD000CB010E943F800F900F900F900F900F909D
:103BE0000F9011E073C711E0411451046104710496
:103BF00009F050C09920F1F020E030E040E85FE3A8
:103C0000F10166A977A980AD91AD0E94A1AB9B019E
:103C1000AC01D101D2966D917D918D919C91D597FA
:103C20000E943AAE87FF1FC048CF4114510461047F
:103C3000710481F520E030E040E85FE3F10166A91E
:103C400077A980AD91AD0E94A2AB9B01AC01D101DF
:103C5000D2966D917D918D919C91D5970E9406ACE5
:103C600018160CF42ACFF101A78DB0A128EE33E08D
:103C70000E9404B02B013C0129813A814B815C8177
:103C8000420E531E641E751E4114510461047104DA
:103C900009F416CFD301C20129813A814B815C819D
:103CA000821B930BA40BB50B81159449A543B74711
:103CB00008F406CF1123E1F1809140039091410374
:103CC00028163906A9F5D10193966D917C919497A8
:103CD000882777FD8095982F0E94D9AC2091F30218
:103CE0003091F4024091F5025091F6020E94AEAE7E
:103CF0000E94A6AC1F921F92F10122892F93218965
:103D00002F9320892F9327852F935B016C01E12C42
:103D1000F12C870120E030E0A90160E070E0CB01E8
:103D20000E943F800F900F900F900F900F900F9078
:103D30000E9400A9609378177093791780937A177F
:103D400090937B17CAC68091AA0283FDC6C60E94C3
:103D500000A94B015C010E9400A9681979098A0930
:103D60009B09693E73408105910530F080E07CD964
:103D70000E9400A94B015C0181E00E949512009114
:103D80000A0210910B02D8011B964D905D906D9028
:103D90007C901E9720E030E040EF51E4C301B20177
:103DA0000E943AAE18160CF098C6F80127813085AB
:103DB00041855285C301B2010E94A1AB9F7720E0EB
:103DC00030E040E85FE30E943AAE181624F285C660
:103DD000D5018D919C91119793FB662760F992FF15
:103DE00005C05E968D919C915F970AC08FEF90E021
:103DF00007C0F501618163FB662760F980E090E010
:103E000029960FB6F894DEBF0FBECDBFDF91CF91DC
:103E10001F910F91FF90EF90DF90CF90BF90AF90E8
:103E20009F908F907F906F905F904F903F902F90DA
:103E30000C94CB14D5018D919C91119792FF04C0E5
:103E40005E962C912093AA0293FF12C0F50182A1E5
:103E500093A1A4A1B5A12091AA02181619061A06C9
:103E60001B0614F4822B02C0815082238093AA0285
:103E70008091AA0283FF31C620E040E060E070E05C
:103E8000CB010E94715320E040E060E070E0CB0184
:103E9000F9CC84E896E10E94F83C29960FB6F89494
:103EA000DEBF0FBECDBFDF91CF911F910F91FF906D
:103EB000EF90DF90CF90BF90AF909F908F907F90CA
:103EC0006F905F904F903F902F900C94F5140E944C
:103ED000AE128AEC94E10E94E03C379903C081ED78
:103EE00094E102C084ED94E10E94E03C83EC94E113
:103EF0000E94E03C029B03C084ED94E102C081ED8E
:103F000094E10E94E03C8CEB94E10E94E03C01993A
:103F100003C081ED94E102C084ED94E10E94E03C95
:103F200029960FB6F894DEBF0FBECDBFDF91CF91BB
:103F30001F910F91FF90EF90DF90CF90BF90AF90C7
:103F40009F908F907F906F905F904F903F902F90B9
:103F500081C8E0914003F09141032081D5018D910A
:103F60009C9191FF06C0F501EC5AFF4F8081882398
:103F700011F0822F01C080E0F501928192FF05C00F
:103F800046A457A460A871A803C0412C512C32014B
:103F900093FF07C0D501D2964D905D906D907C90B7
:103FA000D597082F10E0B3E88B9FF0011124E65756
:103FB000FD4F4082518262827382821306C08091DB
:103FC000C3179091C4170E94531420E030E0A90158
:103FD000C301B2010E9406ACB801811103C08AE09E
:103FE00093E08FCA83EE92E00E94BD3D22E0B301D0
:103FF000A2018EED92E055C123FF0DC0F50182852F
:104000009385A485B5858093BB029093BC02A09351
:10401000BD02B093BE02D5018C9184FF0EC01E96E6
:104020008D919D910D90BC91A02D8093BF02909396
:10403000C002A093C102B093C202F501808185FF46
:104040000CC082899389A489B5898093C302909317
:10405000C402A093C502B093C602D5018C9186FF1D
:104060000EC056968D919D910D90BC91A02D809380
:10407000C7029093C802A093C902B093CA022996BE
:104080000FB6F894DEBF0FBECDBFDF91CF911F9169
:104090000F91FF90EF90DF90CF90BF90AF909F90E7
:1040A0008F907F906F905F904F903F902F900C94E7
:1040B0007D8823FF0DC0F50182859385A485B58594
:1040C0008093AB029093AC02A093AD02B093AE028A
:1040D000D5018C9184FF0EC01E968D919D910D90FF
:1040E000BC91A02D8093AF029093B002A093B10237
:1040F000B093B202F501808185FF0CC0828993895B
:10410000A489B5898093B3029093B402A093B502B9
:10411000B093B602D5018C9186FFB1CF56968D91A2
:104120009D910D90BC91A02D8093B7029093B80201
:10413000A093B902B093BA02A2CF32FFCEC4F50168
:10414000868D978DA0A1B1A1181619061A061B0617
:104150000CF4C3C480939102C0C4E0914003F09179
:104160004103BB96D5012D913C91119732FF0DC0B3
:104170005E968D919D910D90BC91A02D892B8A2BDF
:104180008B2B09F0AAC4E7E3F2E023FF0BC0D501B3
:104190001A964D915D916D917C911D97428F538F31
:1041A000648F758FD5018C9184FF0AC01E964D9146
:1041B0005D916D917C915197468F578F60A371A34C
:1041C000D5018C9185FF0AC052964D915D916D91FC
:1041D0007C91559742A353A364A375A3CF0129965D
:1041E0000FB6F894DEBF0FBECDBFDF91CF911F9108
:1041F0000F91FF90EF90DF90CF90BF90AF909F9086
:104200008F907F906F905F904F903F902F900C9485
:104210000A4E29960FB6F894DEBF0FBECDBFDF91D0
:10422000CF911F910F91FF90EF90DF90CF90BF90B3
:10423000AF909F908F907F906F905F904F903F9046
:104240002F900C944E4AF501208123FF0CC08285EB
:104250009385A485B5858093BF179093C017A093CD
:10426000C117B093C21726FF11C0209140033091AF
:104270004103F50186899789A08DB18DF901878B5E
:10428000908FA18FB28F80810E94504E4091BF17B6
:104290005091C0176091C1177091C21722E086EB50
:1042A00094E129960FB6F894DEBF0FBECDBFDF9123
:1042B000CF911F910F91FF90EF90DF90CF90BF9023
:1042C000AF909F908F907F906F905F904F903F90B6
:1042D0002F900C94E13ED5018D919C91119792FF06
:1042E000FCC361E05E968D919D910D90BC91A02DD7
:1042F00020918A18892B8A2B8B2B21F460E0822F46
:104300008D7F02C0822F826080938A1870E085E4DE
:1043100092E0F7C8F5018081918192FF05C0868DFA
:10432000978DA0A1B1A104C084E690E0A0E0B0E028
:1043300029960FB6F894DEBF0FBECDBFDF91CF91A7
:104340001F910F91FF90EF90DF90CF90BF90AF90B3
:104350009F908F907F906F905F904F903F902F90A5
:104360000C940414D5018D919C91119792FF07C074
:104370005E968D919D910D90BC91A02D04C084E618
:1043800090E0A0E0B0E029960FB6F894DEBF0FBE33
:10439000CDBFDF91CF911F910F91FF90EF90DF90F4
:1043A000CF90BF90AF909F908F907F906F905F90D5
:1043B0004F903F902F900C945314F5018081918180
:1043C00092FF8BC34FB7F8948091161990911719EB
:1043D000268D378D820F931F90931719809316198E
:1043E0004FBF7BC3F5018081209140033091410391
:1043F00084FF09C086859785A089B189F90185A3C5
:1044000096A3A7A3B0A7D90195964D915D916D9103
:104410007C91989722E085E894E10E941E3F0E94DB
:104420002A1829960FB6F894DEBF0FBECDBFDF91D4
:10443000CF911F910F91FF90EF90DF90CF90BF90A1
:10444000AF909F908F907F906F905F904F903F9034
:104450002F900C9463882091BD183091BE18409124
:10446000BF185091C0186091CF177091D0178091EC
:10447000D1179091D2170E94A1AB6093CF17709380
:10448000D0178093D1179093D2171092C918109219
:10449000CA181092CB181092CC180E947D8865ED36
:1044A00078E181EC98E10E942B7580E00E947E9477
:1044B0004091CF175091D0176091D1177091D217BA
:1044C00022E080E391E10E94E13E80E00E946942A7
:1044D0008FE894E10E94F83C88ED92E029960FB6AF
:1044E000F894DEBF0FBECDBFDF91CF911F910F912A
:1044F000FF90EF90DF90CF90BF90AF909F908F9004
:104500007F906F905F904F903F902F900C94B812D7
:1045100029960FB6F894DEBF0FBECDBFDF91CF91C5
:104520001F910F91FF90EF90DF90CF90BF90AF90D1
:104530009F908F907F906F905F904F903F902F90C3
:104540000C94B71780E10E9444ABBC018EEC92E062
:104550000E94C93D29960FB6F894DEBF0FBECDBFAD
:10456000DF91CF911F910F91FF90EF90DF90CF904F
:10457000BF90AF909F908F907F906F905F904F9083
:104580003F902F900C94221882E30E948917F50126
:104590008081918192FFA1C2468D578D60A171A14A
:1045A00088EB92E00E94073ED5015E966C9182E313
:1045B0000E946617F501668D8AE30E94661782E302
:1045C00029960FB6F894DEBF0FBECDBFDF91CF9115
:1045D0001F910F91FF90EF90DF90CF90BF90AF9021
:1045E0009F908F907F906F905F904F903F902F9013
:1045F0000C948917FFCFD5018D919C91119792FF53
:104600000EC021E05E968D919D910D90BC91A02DE4
:10461000892B8A2B8B2B09F420E0822F01C081E0AB
:1046200090918B18882311F0906801C09F77909328
:104630008B18882319F08EE292E002C084E192E0A8
:1046400029960FB6F894DEBF0FBECDBFDF91CF9194
:104650001F910F91FF90EF90DF90CF90BF90AF90A0
:104660009F908F907F906F905F904F903F902F9092
:104670000C94F83CF5010081118112FF03C0668D96
:10468000778D02C066E970E013FF0CC0D5019296E9
:10469000ED90FC9093971E141F0434F4EE24E394E1
:1046A000F12C02C0E12CF12CA3E016950795AA95F8
:1046B000E1F70170882777FD8095982F0E94D9AC8B
:1046C000AB01BC01F701EE0FFF1FE65FFD4F2E2D82
:1046D000808191810E944D5400C280E00E94559BD0
:1046E000D5018D919C91119792FFF7C15E968D91A6
:1046F0009D910D90BC91A02D0097A105B10509F0E9
:10470000DCC1EBC1F5018081918192FFE6C1868D0C
:10471000978DA0A1B1A1892B8A2B8B2B09F4DDC128
:1047200080E029960FB6F894DEBF0FBECDBFDF91B3
:10473000CF911F910F91FF90EF90DF90CF90BF909E
:10474000AF909F908F907F906F905F904F903F9031
:104750002F900C9469428BE692E00E94F83CD501C0
:104760008D919C9192FD0FC0F501808183FF16C051
:10477000F50162857385848595850E94ABAC80E0E8
:104780000E946E160BC010E0D5015E966C91812FD1
:104790000E946E161F5F1530B9F7E6CFD5018C91D8
:1047A00084FF0BC01E966D917D918D919C915197C8
:1047B0000E94ABAC81E00E946E16F501808185FFFE
:1047C00009C062897389848995890E94ABAC82E0B3
:1047D0000E946E16D5018C9186FF0BC056966D9186
:1047E0007D918D919C9159970E94ABAC83E00E9482
:1047F0006E16F5018081918193FF04C062A184E06F
:104800000E946E1629960FB6F894DEBF0FBECDBF7C
:10481000DF91CF911F910F91FF90EF90DF90CF909C
:10482000BF90AF909F908F907F906F905F904F90D0
:104830003F902F900C948516D5018D919C911197E6
:1048400092FF26C081E05E964D915D916D917C91C5
:104850009197452B462B472B09F480E029960FB6FC
:10486000F894DEBF0FBECDBFDF91CF911F910F91A6
:10487000FF90EF90DF90CF90BF90AF909F908F9080
:104880007F906F905F904F903F902F900C940BA073
:1048900029960FB6F894DEBF0FBECDBFDF91CF9142
:1048A0001F910F91FF90EF90DF90CF90BF90AF904E
:1048B0009F908F907F906F905F904F903F902F9040
:1048C0000C940CA029960FB6F894DEBF0FBECDBF96
:1048D000DF91CF911F910F91FF90EF90DF90CF90DC
:1048E000BF90AF909F908F907F906F905F904F9010
:1048F0003F902F900C941AA029960FB6F894DEBF23
:104900000FBECDBFDF91CF911F910F91FF90EF9020
:10491000DF90CF90BF90AF909F908F907F906F90DF
:104920005F904F903F902F900C94219AF5018081D9
:10493000918190FF05C0E28CF38C048D158D08C029
:10494000E090C717F090C8170091C9171091CA17C7
:104950009C0146E0369527954A95E1F72170AC0118
:1049600065E0569547956A95E1F74170BC01E4E032
:1049700076956795EA95E1F76170F3E096958795EE
:10498000FA95E1F781700E94829AA7C080E00E94A8
:10499000694286E290E10BC00E94B644E091400378
:1049A000F091410380810E94504E84E090E129966D
:1049B0000FB6F894DEBF0FBECDBFDF91CF911F9130
:1049C0000F91FF90EF90DF90CF90BF90AF909F90AE
:1049D0008F907F906F905F904F903F902F900C94AE
:1049E0000F3D29960FB6F894DEBF0FBECDBFDF9105
:1049F000CF911F910F91FF90EF90DF90CF90BF90DC
:104A0000AF909F908F907F906F905F904F903F906E
:104A10002F900C949C4082E592E00E94F83CD501D6
:104A20008D919C9188279C7081159C4009F055C000
:104A3000F501668D778D82A129960FB6F894DEBFB9
:104A40000FBECDBFDF91CF911F910F91FF90EF90DF
:104A5000DF90CF90BF90AF909F908F907F906F909E
:104A60005F904F903F902F900C94BC158091AA02BC
:104A700082FF33C085E995E10E94E03CC50129969B
:104A80000FB6F894DEBF0FBECDBFDF91CF911F915F
:104A90000F91FF90EF90DF90CF90BF90AF909F90DD
:104AA0008F907F906F905F904F903F902F900C94DD
:104AB00080600E94AE120C94EE1B0397A105B10515
:104AC00009F02ECE80E00E94F69B2ACE41145104BC
:104AD0006104710409F490C8DDC829960FB6F894F2
:104AE000DEBF0FBECDBFDF91CF911F910F91FF9021
:104AF000EF90DF90CF90BF90AF909F908F907F907E
:104B00006F905F904F903F902F9008952F923F921B
:104B10004F925F926F927F928F929F92AF92BF92CD
:104B2000CF92DF92EF92FF920F931F93CF93DF9379
:104B3000CDB7DEB7E8970FB6F894DEBF0FBECDBF96
:104B40001C01DC0118968D919C911997803291057A
:104B500011F40C94612E60F58531910509F460C162
:104B600098F48430910509F41DC128F4029708F4E3
:104B7000EEC00C948F39449711F00C948F3981E07A
:104B8000809315190C9499398D31910509F48DC1D3
:104B900028F44C9709F448C10C948F398E31910553
:104BA00009F49EC74F9711F40C944E2E0C948F3934
:104BB0008C35910511F40C94CC3550F58534910564
:104BC00011F40C94C032C0F48434910511F00C94AB
:104BD0008F398091C7179091C817A091C917B091CC
:104BE000CA178D879E87AF87B88B49E1442E512C19
:104BF000612C712C0C94EB308A35910511F40C94D6
:104C0000B2358B35910511F40C94BE350C948F3967
:104C10008438910511F40C945A3808F05DC084363C
:104C2000910511F40C94AE368338910511F00C9473
:104C30008F396091B5187091B6188091B71890911E
:104C4000B8182091B9183091BA184091BB185091FA
:104C5000BC18E090BD18F090BE180091BF181091DC
:104C6000C0184090C7175090C8176090C91770902F
:104C7000CA171092BB171092BC171092BD17109252
:104C8000BE171092B7171092B8171092B91710925A
:104C9000BA17E091CE02EF93E091CD02EF93E0914D
:104CA000CC02EF93E091CB02EF93E0EFAE2EE3E284
:104CB000BE2EE4E7CE2EE9E4DE2E0E94C1914092A2
:104CC000C7175092C8176092C9177092CA1780E030
:104CD0000E947E940C9455388538910511F40C94FB
:104CE000DD388638910511F00C948F394091D51834
:104CF0005091D6186091D7187091D81883E094E03D
:104D00000E94EF3D4091D9185091DA186091DB185C
:104D10007091DC188BE095E10E94EF3D4091DD1829
:104D20005091DE186091DF187091E0188BE095E1EA
:104D30000E94073E80E00E947E9485EF93E00E94EF
:104D4000E03C8FEE93E00E94B8120C949939F10187
:104D50008081918192FF11C0868D978DA0A1B1A114
:104D600020918B18892B8A2B8B2B19F0822F806234
:104D700002C0822F8F7D80938B18C1010E94F59510
:104D8000882311F40C94993941E061E081E00E949C
:104D90000F7B81110C94993985E59AE00E94053DBD
:104DA0000C9499390E94AE12D1018D919C9111976A
:104DB00093FF07C092968D909D90AD90BC90959773
:104DC00003C0812C912C540192FF0BC0F101268D60
:104DD000378D40A151A1A8EEB3E00E940AB04B016B
:104DE0005C010E9400A96B017C01C80CD91CEA1C63
:104DF000FB1C0E9400A9A7019601261B370B480B3C
:104E0000590BDA01C90181159449A543B74710F040
:104E10000C9499390E94756181E00E949512E9CF46
:104E2000109215190C949939D1018D919C91AC0176
:104E3000487355274115510551F49C0106E03695FC
:104E400027950A95E1F7B1E02B27217001C020E0FA
:104E500086FF08C01092CD181092CE181092CF186D
:104E60001092D018211117C0452BD1F0AC01A5E04C
:104E700056954795AA95E1F7BC01B4E076956795FC
:104E8000BA95E1F713E0969587951A95E1F7617069
:104E90004170817003C061E041E081E00E946F9B3E
:104EA00080E00E947E940C94993980E49AE00E94FC
:104EB000325FE0914003F091410320E030E048ECA4
:104EC00052E462A973A984A995A90E943AAE181662
:104ED00024F489E39AE00E94325F2091C717309151
:104EE000C8174091C9175091CA17298F3A8F4B8F15
:104EF0005C8F80E090E00E94351280E090E00E949C
:104F0000551280E090E00E94751280E00E94694294
:104F10000E94B64480E090E4A7EEB4E48093B3022C
:104F20009093B402A093B502B093B6020E947D881C
:104F300089E190E0A0E0B0E0898B9A8BAB8BBC8BD1
:104F4000FBE14F2E512C612C712C29893A894B8918
:104F50005C892D873E874F87588B41E061E081E077
:104F60000E946F9B89EA91E10E94325F80E00E947B
:104F7000559B0E94ED11162F072FF82EE92E84E382
:104F800093E00E94D5119B01AC0180E393E02DAB2F
:104F90003EAB4FAB58AF0E94D511EF92FF920F93EB
:104FA0001F93E0EFAE2EE3E2BE2EE4E7CE2EE9E45F
:104FB000DE2E860175012DA93EA94FA958AD0E948C
:104FC0002C9920E041E060E081E00E940BA269A3FF
:104FD0007AA38BA39CA320E041E060E081E00E94E3
:104FE0000BA26DA37EA38FA398A79B01AC0169A11F
:104FF0007AA18BA19CA10E94A1AB6B017C010F90B7
:105000000F900F900F902DEC3CEC4CEC5DE30E9468
:105010003AAE181654F02DEC3CEC4CEC5DEBC701AD
:10502000B6010E9406AC87FF1FC049895A896B8967
:105030007C898FE09AE00E94073E89899A89AB8932
:10504000BC898897A105B10544F482E30E948917C1
:10505000B301A20181EF99E029C18EED99E00E9490
:10506000F83C86EC99E093C08DE793E00E941BB476
:105070009E8B8D8BD1018D919C91119792FF0CC0CD
:105080005E968D919D910D90BC91A02D0297A105EA
:10509000B10511F40C94BC390E94ED11162F072FA5
:1050A000F82EE92E8CE393E00E94D5119B01AC0110
:1050B00088E393E02DAB3EAB4FAB58AF0E94D511C8
:1050C000EF92FF920F931F9350EFA52E53E2B52E50
:1050D00054E7C52E59E4D52E860175012DA93EA9A8
:1050E0004FA958AD0E942C9920E041E060E081E09A
:1050F0000E940BA269A77AA78BA79CA720E041E09A
:1051000060E081E00E940BA26DA77EA78FA798ABFD
:105110009B01AC0169A57AA58BA59CA50E94A1ABBA
:105120006B017C010F900F900F900F902DEC3CECD9
:105130004CEC5DE30E943AAE181654F02DEC3CECBA
:105140004CEC5DEBC701B6010E9406AC87FF26C0A0
:1051500049895A896B897C898CE999E00E94073ECC
:1051600029893A894B895C892832310541055105E5
:1051700044F482E30E948917B301A2018EE799E00B
:1051800095C08BE699E00E94F83C83E599E00E9487
:10519000325F80E491E10E94193DFDC18FE793E009
:1051A0000E941BB49E8F8D8FD1018D919C91119780
:1051B00092FF0CC05E968D919D910D90BC91A02D9B
:1051C0000297A105B10511F40C94CA390E94ED11A2
:1051D000162F072FF82EE92E84E493E00E94D511B4
:1051E0009B01AC0180E493E02DAB3EAB4FAB58AFDD
:1051F0000E94D511EF92FF920F931F9340EFA42EC0
:1052000043E2B42E44E7C42E49E4D42E860175014E
:105210002DA93EA94FA958AD0E942C9920E041E04C
:1052200060E081E00E940BA26B017C0120E041E084
:1052300060E081E00E940BA269AB7AAB8BAB9CABC8
:105240009B01AC01C701B6010E94A1AB4B015C01FF
:105250000F900F900F900F902DEC3CEC4CEC5DE319
:105260000E943AAE181654F02DEC3CEC4CEC5DEB81
:10527000C501B4010E9406AC87FF3EC049895A8926
:105280006B897C8989E299E00E94073E29893A89E5
:105290004B895C89283231054105510534F582E39B
:1052A0000E948917B301A2018BE099E00E94073E9A
:1052B000642D82E30E946617642D8AE30E946617BC
:1052C00082E30E948917F2E04F0E511C611C711C91
:1052D00029893A894B895C892E5F3F4F4F4F5F4F39
:1052E000298B3A8B4B8B5C8B30CE88EF98E00E94F9
:1052F000F83C80EE98E04BCF2DA13EA14FA158A5E0
:1053000069A17AA18BA19CA10E94A2AB20E030E010
:1053100040E05FE30E94AEAE20E030E040EA52E4BD
:105320000E94AEAE20E030E048EC54E40E94A1AB15
:105330000E94A6AC4B015C018D899E89AA2797FD2E
:10534000A095BA2F8D8B9E8BAF8BB88F2DA53EA5C8
:105350004FA558A969A57AA58BA59CA50E94A2ABCB
:1053600020E030E040E05FE30E94AEAE20E030E0BD
:1053700040EA52E40E94AEAE20E030E048EC54E453
:105380000E94A1AB0E94A6AC2B013C012D8D3E8D4D
:10539000442737FD4095542F2D8F3E8F4F8F58A3B4
:1053A00029A93AA94BA95CA9C701B6010E94A2ABE1
:1053B00020E030E040E05FE30E94AEAE20E030E06D
:1053C00040EA52E40E94AEAE20E030E048EC54E403
:1053D0000E94A1AB0E94A6AC6B017C0181E893E026
:1053E0000E941BB49C01442737FD4095542F29A3EC
:1053F0003AA34BA35CA380E00E947E940E947D8828
:1054000085EC91E10E940F3D4091CF175091D0174C
:105410006091D1177091D21722E080E391E10E9450
:10542000E13E898D9A8DAB8DBC8D8093C71790938B
:10543000C817A093C917B093CA1784149504A6047B
:10544000B70414F58C149D04AE04BF040CF042C0E4
:10545000481859086A087B082D8D3E8D4F8D58A13C
:10546000420E531E641E751EC818D908EA08FB08B0
:1054700089A19AA1ABA1BCA1C80ED91EEA1EFB1E30
:10548000812C912C540152C0481459046A047B04A5
:105490000CF54C145D046E047F04E4F48418950844
:1054A000A608B7082D893E894F89588D820E931E14
:1054B000A41EB51EC418D508E608F70889A19AA14C
:1054C000ABA1BCA1C80ED91EEA1EFB1E412C512C5B
:1054D000320125C0C814D904EA04FB0404F5C4143D
:1054E000D504E604F704DCF48C189D08AE08BF0868
:1054F0002D893E894F89588D820E931EA41EB51E9C
:105500004C185D086E087F088D8D9E8DAF8DB8A1FB
:10551000480E591E6A1E7B1EC12CD12C760191E9C2
:10552000891691E09906A104B10474F4A1E94A1620
:10553000A1E05A06610471043CF4B1E9CB16B1E074
:10554000DB06E104F104DCF049895A896B897C8926
:105550008EEB98E00E94073EB501A4018AEB98E02B
:105560000E94073EB301A20186EB98E00E94073E2D
:10557000B701A60182EB98E00E94073E0CC0C4016F
:105580000E943512C2010E945512C6010E94751276
:1055900080E00E94694281E00E947E94298D3A8DCC
:1055A0004B8D5C8D2093C7173093C8174093C91754
:1055B0005093CA178DEA98E00E94B81288EA91E1E8
:1055C0000E94325F212C312C80913B1890913C1825
:1055D000A0913D18B0913E18898B9A8BAB8BBC8BF8
:1055E00080E00E9469420E94B64481E00E94559B7F
:1055F00041E061E081E00E946F9B80E00E94559B4A
:1056000089EA91E10E94325F0E94ED119F938F938E
:105610007F936F9330EFA32E33E2B32E34E7C32E84
:1056200039E4D32E8601750120E030E0A901CA01DA
:10563000B9010E942C9920E041E060E081E00E94E5
:105640000BA26B017C0120E041E060E081E00E9460
:105650000BA24B015C019B01AC01C701B6010E948A
:10566000A1AB2B013C010F900F900F900F902DECF0
:105670003CEC4CEC5DE30E943AAE181654F02DEC75
:105680003CEC4CEC5DEBC301B2010E9406AC87FF21
:105690002BC04D855E856F8578898EE798E00E94E6
:1056A000073E2D853E854F855889283231054105B5
:1056B00051059CF482E30E9489178D859E85AF85F4
:1056C000B8890296A11DB11D8D879E87AF87B88BC3
:1056D000AC01BD0180E698E0CFC08DE498E00E9467
:1056E000F83C85E398E0E1C09FEF291A390AA5014B
:1056F0009401C701B6010E94A2AB20E030E040E077
:105700005FE30E94AEAE2B013C014091CF17509158
:10571000D0176091D1177091D21722E087E298E0FC
:105720000E94E13E2091BD183091BE184091BF18F3
:105730005091C018C301B2010E94A1AB9B01AC0102
:105740006091CF177091D0178091D1179091D21797
:105750000E94A2AB6093CF177093D0178093D1179C
:105760009093D2170E947D884091CF175091D01707
:105770006091D1177091D21722E089E198E00E94E0
:10578000E13E0E94ED11162F072FF82EE92E84E43A
:1057900093E00E94D5119B01AC0180E493E02DAB16
:1057A0003EAB4FAB58AF0E94D511EF92FF920F93D3
:1057B0001F9320EFA22E23E2B22E24E7C22E29E46B
:1057C000D22E860175012DA93EA94FA958AD0E9480
:1057D0002C9920E041E060E081E00E940BA26B0187
:1057E0007C0120E041E060E081E00E940BA26D8B33
:1057F0007E8B8F8B988F9B01AC01C701B6010E94F5
:10580000A1AB4B015C010F900F900F900F902DEC0E
:105810003CEC4CEC5DE30E943AAE181654F02DECD3
:105820003CEC4CEC5DEBC501B4010E9406AC87FF7B
:1058300043C04D855E856F8578898AEE97E00E942A
:10584000073E2D853E854F85588928323105410513
:1058500051052CF582E30E9489178D859E85AF85C1
:10586000B8890296A11DB11D8D879E87AF87B88B21
:10587000AC01BD018CEC97E00E94073E6D8582E390
:105880000E9466176D858AE30E94661782E30E9474
:105890008917B4E02B1631040CF496CEEBC089EBDB
:1058A00097E00E94F83C81EA97E00E94325F80E432
:1058B00091E10E94193DDEC02D893E894F89588DA6
:1058C000C701B6010E94A2AB20E030E040E05FE3F8
:1058D0000E94AEAE9B01AC01C301B2010E94A1AB1C
:1058E00020E030E040EA52E40E94AEAE6B017C0161
:1058F00020E030E0A9010E9406AC87FF27C0C70165
:10590000B601905820913B1830913C1840913D18B9
:1059100050913E180E940DAC9B01AC010E94A2ABBD
:105920006B017C0122E0AB01BC0184ED91E10E949E
:10593000E13EA701960160913B1870913C1880915F
:105940003D1890913E180E94A1AB18C080903B1862
:1059500090903C18A0903D18B0903E18A50194017D
:10596000C701B6010E940DAC9B01AC010E94A2AB25
:105970009B01AC01C501B4010E94A2AB60933B182E
:1059800070933C1880933D1890933E18C0903B183C
:10599000D0903C18E0903D18F0903E1820E030E0A8
:1059A00042E852E4C701B6010E940DAC4B015C0114
:1059B0002DEC3CEC4CE85FE30E943AAE181654F034
:1059C00026E636E646E65FE3C501B4010E9406AC72
:1059D00087FF13C022E0B701A60186E897E00E9486
:1059E000E13E80E090E0A2E8B2E480933B1890931F
:1059F0003C18A0933D18B0933E1822E049895A897B
:105A00006B897C898EE697E00E94E13E40913B18CD
:105A100050913C1860913D1870913E1822E086E547
:105A200097E00E94E13E94E0291631041CF5298993
:105A30003A894B895C8960913B1870913C18809140
:105A40003D1890913E180E94A1AB6B017C012DEC9A
:105A50003CEC4CEC5DE30E943AAE18160CF4B4CD6D
:105A60002DEC3CEC4CEC5DEBC701B6010E9406ACA2
:105A700087FDAACD80E090E0A8ECB3E48093B30268
:105A80009093B402A093B502B093B6020E947D88B1
:105A900081E00E94559B81E00E947E9481E597E021
:105AA0000E94B81288EA91E10E94325F298D3A8DF6
:105AB0004B8D5C8D2093C7173093C8174093C9173F
:105AC0005093CA1741E061E081E00E946F9B80E043
:105AD0000E94694287E397E00E94325F0C949939F3
