:100000000C94DF110C9410120C9410120C9410121A
:100010000C9410120C9410120C9410120C941012D8
:100020000C9410120C9410120C9410120C941012C8
:100030000C9410120C9410120C9410120C941012B8
:100040000C9410120C947A830C9410120C941012CD
:100050000C9410120C94F7840C941D840C9495AAA3
:100060000C9410120C944F850C9479850C941012FA
:100070000C9410120C9410120C9410120C94101278
:100080000C9410120C9410120C9410120C94101268
:100090000C9410120C9410120C9410120C94A4A82E
:1000A0000C9410120C9410120C9410120C94101248
:1000B0000C9410120C9410120C9410120C94101238
:1000C0000C9410120C9410120C9410120C94101228
:1000D0000C9410120C9410120C9410120C94101218
:1000E0000C941012F46E0B6F0B6F0B6F0B6F0B6F8A
:1000F0000B6F0B6F0B6F0B6F0B6F0B6F0B6F0B6F30
:100100000B6F0B6F0B6F0B6F0B6F0B6F0B6F0B6F1F
:100110000B6F0B6F0B6F0B6FE36E956E9F6E196E0F
:100120000B6FC56ECF6E0B6F0B6F2A6E076E0B6F6A
:10013000BB6E0B6FD96EB16EA96E0B6F0B6F0B6F31
:10014000776E816E8B6E0B6F0B6F0B6F0B6F0B6F80
:100150000B6F0B6F0B6F0B6FE36E956E9F6E196ECF
:100160000B6FC56ECF6E0B6F0B6F2A6E076E0B6F2A
:10017000BB6E0B6FD96EB16EA96E0B6F0B6F0B6FF1
:10018000776E816E8B6EF5A9FAA9FFA909AA13AA49
:100190008CAA1DAA25AA2DAA37AA41AA4BAA5AAAF7
:1001A00064AA8CAA6EAA78AA82AAB7ABBAABA9AB8A
:1001B000ADABB3ABF1ABBEABC2ABC8ABCCABD0ABB2
:1001C000D6ABDAABDEABF1ABE4ABE8ABECAB0763E1
:1001D0004236B79BD8A71A39685618AEBAAB558CB9
:1001E0001D3CB7CC5763BD6DEDFD753EF617723102
:1001F000BF000000803F05A84CCDB2D44EB93836C0
:10020000A9020C50B9918688083CA6AAAA2ABE0069
:100210000000803F436F6C64206578747275736969
:100220006F6E20646973616C6C6F77656400436FF7
:100230006C6420657874727573696F6E20616C6C84
:100240006F776564004175746F7265747261637471
:100250003A0053657474696E67206D6F746F722015
:1002600063757272656E742E2E2E00536574204D68
:100270006963726F7374657070696E670054726938
:1002800067676572696E67207761746368646F671A
:100290002E204966206163746976617465642C2040
:1002A000746865207072696E7465722077696C6C11
:1002B0002072657365742E0053657474696E6720CF
:1002C0005468726573686F6C6420546F3A00494ECD
:1002D000542050494E3A20004D32353120002074D0
:1002E0006F200053657420766F6C756D657472694C
:1002F0006320657874727573696F6E20666F722003
:100300006578747275646572200044697361626C0B
:10031000656420766F6C756D6574726963206578AD
:1003200074727573696F6E20666F7220657874726F
:100330007564657220004D313134200050696E20A3
:1003400063616E206E6F7420626520736574206235
:1003500079204D34322C206D617920696E20696ED0
:1003600076616C6964206F7220696E207573652EEA
:100370002000496C6C6567616C20532076616C7558
:100380006520666F72204D3432005A2028432920A0
:10039000746F77657220666C6F6F7220736574205E
:1003A000746F3A2000592028422920746F776572B3
:1003B00020666C6F6F722073657420746F3A200032
:1003C000582028412920746F77657220666C6F6F02
:1003D000722073657420746F3A2000526F6420524B
:1003E00061646975732073657420746F3A200047E7
:1003F0003133342000506F7346726F6D53746570E3
:10040000733A00436F6D7044656C74613A004361E8
:100410006C6962726174696F6E206D6F76656D656F
:100420006E74206973206C696D6974656420746FE3
:100430002031306D6D2E004669727374206D6F76B9
:100440006520746F20746F75636820617420782C48
:10045000793D302C3020746F206175746F2D736579
:1004600074207261646975732E0043616C696272F5
:100470006174696F6E206D6F76656D656E7420694D
:1004800073206C696D6974656420746F2031306D00
:100490006D2E0043616E6E6F7420736574207261FF
:1004A0006469757320616E6420666C6F6F72206181
:1004B000742073616D652074696D652E0043616CF5
:1004C0006962726174696F6E20636F64652069731D
:1004D000206C696D6974656420746F20626F747438
:1004E0006F6D20313025206F66205A20686569675E
:1004F00068740052656C617469766520706F736909
:1005000074696F6E696E67004162736F6C757465B4
:1005100020706F736974696F6E696E670047363952
:1005200020005A3A2000593A2000583A20004F46FD
:100530004653455453204F464620425920544F4F6E
:10054000204D554348205F20545259494E47204181
:100550004741494E3A200053657474696E672050D4
:10056000726F62652053656E736974697669747918
:1005700020546F3A005A2070726F6265206661697C
:100580006C6564206F6E2073656E7369746976693B
:1005900074793A200053657474696E672050726FE5
:1005A00062652053656E7369746976697479205445
:1005B0006F3A005A2070726F6265206661696C65DF
:1005C00064206F6E2073656E7369746976697479DF
:1005D0003A200053657474696E672050726F6265CB
:1005E0002053656E736974697669747920546F3A23
:1005F000005A2070726F6265206661696C656420C4
:100600006F6E2073656E73697469766974793A20C8
:100610000068656865004E6577205261646975738E
:100620003A20004F6C64205261646975733A20006F
:1006300043616C63756C61746564205261646975B3
:100640007320697320626164203A00536574746991
:100650006E672050726F62652053656E73697469AE
:100660007669747920546F3A005A2070726F62650F
:10067000206661696C6564206F6E2073656E7369B6
:100680007469766974793A200053657474696E6789
:100690002050726F62652053656E73697469766964
:1006A000747920546F3A005A2070726F6265206628
:1006B00061696C6564206F6E2073656E736974691F
:1006C000766974793A2000473332200050524F4205
:1006D000452D5A4F46465345543A00473330005350
:1006E000657474696E672050726F62652053656E21
:1006F000736974697669747920546F3A0050726F27
:1007000062657320646F206E6F74206D617463681E
:100710002E204F6666206279200047333020004D3E
:100720003131372043414C4942524154494F4E20C8
:10073000434F4D504C4554450068656865004E6513
:100740007720486F72697A6F6E74616C20526164B1
:100750006975733A20004F6C6420486F72697A6F34
:100760006E74616C205261646975733A2000436154
:100770006C63756C61746564205261646975732083
:100780006973206261643A20004D31313720434162
:100790004C4942524154494F4E204641494C4544F0
:1007A0000043616C6962726174696F6E20466169B1
:1007B0006C65640053657474696E672050726F6273
:1007C000652053656E736974697669747920546F16
:1007D0003A005A2070726F6265202843656E746516
:1007E0007220506F696E7429206661696C6564209F
:1007F0006F6E2073656E73697469766974793A20D7
:10080000004E6577205A204865696768743A004F42
:100810006C64205A204865696768743A004D31312C
:10082000372043414C4942524154494F4E204641A2
:10083000494C45440043616C6962726174696F6E32
:10084000204661696C65640053657474696E672045
:1008500050726F62652053656E736974697669744E
:100860007920546F3A005A2070726F6265202843D5
:10087000656E74657220506F696E742920666169B7
:100880006C6564206F6E2073656E73697469766938
:1008900074793A200047363920005A3A2000593AF4
:1008A0002000583A20004D31313720456E64737472
:1008B0006F70204F6666736574204572726F7200A8
:1008C0004F464653455453204F46462042592054E4
:1008D0004F4F204D5543482E2041626F7274696E10
:1008E000672E2053656E73697469766974793A204E
:1008F000004D3131372043414C4942524154494F18
:100900004E204641494C45440043616C6962726126
:1009100074696F6E204661696C6564005365747418
:10092000696E672050726F62652053656E736974DB
:10093000697669747920546F3A005A2070726F6238
:100940006520285A20546F77657229206661696C8A
:100950006564206F6E2073656E736974697669745F
:10096000793A20004D3131372043414C49425241C0
:1009700054494F4E204641494C45440043616C69FF
:1009800062726174696F6E204661696C65640053C0
:10099000657474696E672050726F62652053656E6E
:1009A000736974697669747920546F3A005A2070BB
:1009B000726F626520285920546F7765722920660E
:1009C00061696C6564206F6E2073656E736974690C
:1009D000766974793A20004D3131372043414C49D2
:1009E00042524154494F4E204641494C45440043F0
:1009F000616C6962726174696F6E204661696C65D1
:100A0000640053657474696E672050726F6265206C
:100A100053656E736974697669747920546F3A000E
:100A20005A2070726F626520285820546F77657263
:100A300029206661696C6564206F6E2073656E7332
:100A4000697469766974793A20004D3130342053E5
:100A5000300A4D3134302053300A4D313037004D9B
:100A600031313720493243204572726F722E204156
:100A7000626F7274696E6700493243204572726F0B
:100A800072202D2043616C6962726174696F6E20FF
:100A900041626F727465640065786563757465475B
:100AA000436F6465202F20717565756544656C74AE
:100AB000614D6F76652072657475726E7320657214
:100AC000726F720069697332646820616363656C78
:100AD00065726F6D6574657220696E697469616CA9
:100AE000697A696E672E2E2E00616363656C65728C
:100AF0006F6D65746572206932632072656376205C
:100B00006572726F722E002076616C75653A2000F6
:100B100072656164207265672000616363656C655E
:100B2000726F6D65746572207772697465206932C1
:100B300063206572726F722E00616363656C65720B
:100B40006F6D657465722073656E64206932632011
:100B50006572726F722E0000000100250030001DCA
:100B6000000C001E00240031001C000B00180023A4
:100B7000002F001B000A0017000D004700030004AF
:100B80000022002B001A0041004200000002003544
:100B900000206465672E204300206D6561737572C7
:100BA000656420004572726F723A436F756C642001
:100BB0006E6F7420686F6C642074656D706572610F
:100BC000747572652000206D730020616674657213
:100BD00020004572726F723A54656D702E207261FA
:100BE0006973656420746F20736C6F772E2052696F
:100BF0007365203D20004739310A4731452D313892
:100C00003046363030300A473930004D31313720E8
:100C1000457874727564657220300A54300A4D3814
:100C2000342050340A4739310A473145313732468A
:100C3000363030300A47314535463530300A47398D
:100C400030001C151C140000002243141F1F5610F6
:100C50000210920F420F000000000000BA0EAE0D0D
:100C60005E0DE20C660C0400081D900058091C0182
:100C7000B007A801C80634023006C002C0054C0304
:100C80006805D80318056404D004F00498047C05B2
:100C9000600408063004940600042007D003AC0763
:100CA000A80338088003C408580350093003DC093E
:100CB0000803680AD802F40AB002800B88020C0C00
:100CC0006002980C3002240DF801B00DC0013C0EFA
:100CD0008001C80E3001540FB800B40F2800E00F97
:100CE00000000400401D900060091C01B007A8012D
:100CF000D00634023806C002C8054C036805D80384
:100D000018056404D804F00498047C0560040806FF
:100D10003004940600042007D003AC07A803380869
:100D20008003C408580350093003DC090803680A2B
:100D3000E002F40AB802800B88020C0C6002980CE6
:100D40003002240DF801B00DC0013C0E8001C80E28
:100D50003001540FB800B40F2800E00F0000040069
:100D60000016D800C006AC0178058002C004540308
:100D700048042804E803FC049803D0055003A406A3
:100D800018037807D8024C08A80220097002F40959
:100D90003802C80A08029C0BD001700C9001440D67
:100DA0005001180EF800EC0E8800C00F000004007F
:100DB000681D4C00500B94005809DC0050082401B9
:100DC000A8076C012807B401C006FC0170064402A4
:100DD00028068C02F005D402B8051C0388056403BC
:100DE0005805AC033005F40310053C04E804840402
:100DF000C804CC04A804140590045C057004A40580
:100E00005804EC053804340620047C060804C406A3
:100E1000F0030C07D8035407C8039C07B003E4078A
:100E200098032C08800374087003BC085803040955
:100E300048034C09300394091803DC090803240A09
:100E4000F0026C0AE002B40AC802FC0AB002440BC9
:100E5000A0028C0B8802D40B70021C0C5802640C8C
:100E60004002AC0C2802F40C10023C0DF001840D81
:100E7000D801CC0DB801140E98015C0E7001A40EBF
:100E80004801EC0E1801340FD8007C0F8800C40F05
:100E90000800FC0F0000000000000000000000003F
:100EA0000000000000000000000000000000000042
:100EB000000000000000000000000000401F45008E
:100EC00060094F0010095C00C0086B0070087D00CD
:100ED00020089200D007AC008007CC003007DE006D
:100EE000E006230190065E014006A601F005FF0121
:100EF000A0056D025005F30200059603B0045A04E4
:100F00006004400510044806C0036E077003A8087B
:100F10002003EB09D002230B8002410C3002390D73
:100F2000E001040E9001A20E4001170FF000690FBE
:100F3000A000A20F5000C60F0000DD0FB0FFEB0FA6
:100F400060FF0400700DD8004804AC015803800213
:100F5000D8025403800228043802FC040002D005A1
:100F6000C801A4069801780770014C0848012009BF
:100F70001801F409F000C80AC8009C0BA000700C0E
:100F80007000440D3800180E0000EC0EA8FFC00FD2
:100F9000E8FE0400001B540060096400100974009E
:100FA000C008840070089C002008B800D007D80052
:100FB0008007000130072C01E00668019006AC01B3
:100FC00040060002F0056802A005E0025005740327
:100FD00000052404B004F0046004DC051004E406F9
:100FE000C0030408700330092003780B8002600DF1
:100FF000E001A80E4001680FA000C00F0000E80F3C
:1010000060FF0400801AD8009808AC012007800215
:1010100050065403C80528045805FC040005D005F3
:10102000B004A4066804780728044C08E8032009E3
:10103000B003F4097003C80A38039C0BF802700C63
:10104000B002440D6802180E0802EC0E8801C00FB1
:101050008800F00F00000000A00F5C00600969002C
:1010600010097900C0088C007008A2002008BD009B
:10107000D007DE008007050130073401E0066D016E
:101080009006B20140060702F0056D02A005E802D5
:1010900050057B0300052B04B004F8046004EB0644
:1010A000C003350920037F0B8002650DE001B00EFF
:1010B00040011D0FF000480FC8006C0FA000ED0F9D
:1010C00060FFFE0F48FE004D617854656D703A0078
:1010D0004469616D657465723A00416363656C656E
:1010E000726174696F6E3A004D6178537065656422
:1010F0003A004A65726B3A004D6178426564546506
:101100006D703A005072696E746572547970653A08
:1011100044656C7461005A54726176656C41636316
:10112000656C3A005954726176656C416363656C15
:101130003A005854726176656C416363656C3A009D
:101140005A5072696E74416363656C3A005950720B
:10115000696E74416363656C3A00585072696E74CD
:10116000416363656C3A005A53697A653A00595392
:10117000697A653A005853697A653A005A4D617840
:101180003A00594D61783A00584D61783A005A4D0D
:10119000696E3A00594D696E3A00584D696E3A00D1
:1011A0004A65726B58593A005072696E746C696E78
:1011B0006543616368653A00454550524F4D3A00BA
:1011C0004175746F6C6576656C3A005A50726F6247
:1011D000653A00436173654C69676874733A0053FC
:1011E0007570706F72744C6F63616C46696C616D81
:1011F000656E746368616E67653A00537570706FF1
:1012000072744731304731313A005A486F6D654446
:1012100069723A0059486F6D654469723A005848DE
:101220006F6D654469723A00536F667477617265D9
:10123000506F7765725377697463683A004C434422
:101240003A0046616E3A005344436172643A004882
:1012500065617465644265643A004D6978696E67DA
:1012600045787472756465723A004E756D45787490
:1012700072756465723A00496E707574427566667F
:1012800065723A0042617564726174653A004E6F2E
:101290002063617365206C6967687473004D313138
:1012A0003420007A70726F62696E672E2E2E006491
:1012B000656C6179203130306D732E00686F6D651B
:1012C000417869732000686F6D6541786973202FDC
:1012D00020717565756544656C74614D6F76652028
:1012E00072657475726E73206572726F72005072DF
:1012F000696E7465723A3A736574757020006D6F2B
:101300007665546F5265616C202F20717565756527
:1013100044656C74614D6F76652072657475726E8C
:1013200073206572726F72006D6F7665546F202F37
:1013300020717565756544656C74614D6F766520C7
:1013400072657475726E73206572726F7200697364
:10135000506F736974696F6E416C6C6F7765642050
:1013600000457874722E00436F6E6669673A004FCD
:101370006E6520686561746572207365656D7320A4
:101380006465636F75706C65642066726F6D207440
:101390006865726D6973746F72202D206469736162
:1013A000626C696E6720616C6C20666F722073617D
:1013B000666574792100616476616E6365204C20F6
:1013C0005B303D6F66665D0065787472756465724A
:1013D00020636F6F6C6572207370656564205B308D
:1013E0002D3235355D0064697374616E63652074F8
:1013F0006F2072657472616374207768656E20680F
:10140000656174696E67205B6D6D5D0074656D70FC
:101410002E20666F722072657472616374696F6EDC
:10142000207768656E2068656174696E67205B432C
:101430005D0074656D702E2073746162696C697AE9
:10144000652074696D65205B735D00592D6F66665C
:10145000736574205B73746570735D00582D6F66DF
:1014600066736574205B73746570735D00504944E6
:10147000206D61782076616C7565205B302D32358A
:10148000355D0050494420442D6761696E00504924
:101490004420492D6761696E0050494420502D67F2
:1014A00061696E2F646561642D74696D65005049D2
:1014B00044206472697665206D696E00504944204D
:1014C0006472697665206D61780068656174206D6D
:1014D000616E61676572205B302D335D006163630F
:1014E000656C65726174696F6E205B6D6D2F735EE4
:1014F000325D007374617274206665656472617434
:1015000065205B6D6D2F735D006D61782E206665C3
:10151000656472617465205B6D6D2F735D0073741B
:1015200065707320706572206D6D00436F72722E4E
:1015300020646961676F6E616C2043205B6D6D5D37
:1015400000436F72722E20646961676F6E616C2058
:1015500042205B6D6D5D00436F72722E2064696185
:10156000676F6E616C2041205B6D6D5D004D617831
:10157000207072696E7461626C6520726164697555
:1015800073205B6D6D5D00546F776572205A206526
:101590006E6473746F70206F6666736574205B731E
:1015A000746570735D00546F776572205920656EA5
:1015B0006473746F70206F6666736574205B7374F8
:1015C0006570735D00546F776572205820656E6496
:1015D00073746F70206F6666736574205B737465D7
:1015E00070735D005365676D656E74732F7320664D
:1015F0006F722074726176656C005365676D656EFD
:1016000074732F7320666F72207072696E74696EC6
:101610006700486F72697A6F6E74616C20726F64D4
:101620002072616469757320617420302C30205BF6
:101630006D6D5D00446961676F6E616C20726F64EF
:10164000206C656E677468205B6D6D5D00486F6D22
:10165000696E67206665656472617465205B6D6D97
:101660002F735D004D61782E20666565647261742C
:1016700065205B6D6D2F735D005374657073207012
:101680006572206D6D0054726176656C20616363D4
:10169000656C65726174696F6E205B6D6D2F735E32
:1016A000325D00416363656C65726174696F6E20C1
:1016B0005B6D6D2F735E325D004D61782E206A6523
:1016C000726B205B6D6D2F735D005A206D61782009
:1016D0006C656E677468205B6D6D5D0059206D618F
:1016E00078206C656E677468205B6D6D5D005820B6
:1016F0006D6178206C656E677468205B6D6D5D0050
:101700005A20686F6D6520706F73205B6D6D5D0092
:101710005920686F6D6520706F73205B6D6D5D0083
:101720005820686F6D6520706F73205B6D6D5D0074
:1017300053746F7020737465707065722061667485
:10174000657220696E6163746976697479205B6D76
:10175000732C303D6F66665D004D61782E20696E9A
:101760006163746976652074696D65205B6D732CA7
:10177000303D6F66665D005072696E7465722061FF
:101780006374697665205B735D0046696C616D65A5
:101790006E74207072696E746564205B6D5D0041CB
:1017A0006476616E6365642055736572004261758D
:1017B0006472617465004550523A332000455052BE
:1017C0003A3220004550523A3120004550523A30CA
:1017D000200050726F746F636F6C2076657273694E
:1017E0006F6E206368616E6765642C207570677228
:1017F0006164696E6700436F6E66696775726174D4
:10180000696F6E20726573657420746F20646566FD
:1018100061756C74732E00436F6E666967757261D3
:1018200074696F6E206C6F616465642066726F6DA1
:1018300020454550524F4D2E00436F6E66696775C7
:10184000726174696F6E2073746F72656420746F57
:1018500020454550524F4D2E004175746F6C657692
:10186000656C206163746976652028312F3029000A
:101870005A2D70726F6265205933005A2D70726F45
:101880006265205833005A2D70726F62652059329C
:10189000005A2D70726F6265205832005A2D707296
:1018A0006F6265205931005A2D70726F6265205841
:1018B00031005A2D70726F626520782D792D73700A
:1018C000656564205B6D6D2F735D005A2D70726FBE
:1018D0006265207370656564205B6D6D2F735D00BC
:1018E0005A2D70726F6265206F6666736574207919
:1018F000205B6D6D5D005A2D70726F6265206F66A2
:10190000667365742078205B6D6D5D004D61782E87
:10191000207A2D70726F6265202D206265642064CC
:101920006973742E205B6D6D5D005A2D70726F624D
:101930006520686569676874205B6D6D5D0077611F
:101940006974005072696E746572206865696768B1
:10195000743A005A2D70726F6265206661696C6519
:1019600064005472616E73666F726D6174696F6E3C
:10197000206D61747269783A004175746F6C657698
:10198000656C696E672064697361626C65640041AF
:1019900075746F6C6576656C696E6720656E6162E3
:1019A0006C6564004175746F6C6576656C206D6163
:1019B0007472697820726573657400004732382F3D
:1019C0006E47315A32352F6E005A2D70726F626534
:1019D0002073746174653A005265736574205A20EF
:1019E000686569676874005A2D70726F626520615E
:1019F000766572616765206865696768743A00207A
:101A00005374657020566172696174696F6E2066E7
:101A1000726F6D2050726F626520746F2062656412
:101A20002044697374616E63653A005A2D70726F59
:101A300062653A005072696E746572207365742035
:101A4000696E746F206472792072756E206D6F6498
:101A50006520756E74696C2072657374617274218F
:101A6000003A20776F726B696E67003A2074656D7B
:101A7000702073656E736F722064656665637400B1
:101A8000657874727564657220004D54454D503A06
:101A900000504944204175746F74756E6520666905
:101AA0006E6973686564202120506C6163652074E1
:101AB0006865204B702C204B6920616E64204B645C
:101AC00020636F6E7374616E747320696E20746826
:101AD0006520436F6E66696775726174696F6E2EFB
:101AE00068206F7220454550524F4D0050494420A8
:101AF0004175746F74756E65206661696C656421EB
:101B00002074696D656F7574005049442041757487
:101B10006F74756E65206661696C6564212054651B
:101B20006D706572617475726520746F2068696785
:101B30006800204B643A2000204B693A2000204B7B
:101B4000703A200020436C617373696320504944EC
:101B5000002054753A2000204B753A2000206D611A
:101B6000783A2000206D696E3A200020643A200007
:101B700020626961733A2000504944204175746FB6
:101B800074756E6520737461727400546172676558
:101B90007445787472004E6F206D6F766520696EA3
:101BA0002064656C7461207365676D656E74207761
:101BB000697468203E2031207365676D656E742EF0
:101BC00020546869732073686F756C64206E657645
:101BD00065722068617070656E20616E64206D6151
:101BE0007920636175736520612070726F626C6526
:101BF0006D210044656C74612052616469757320C5
:101C0000432830293A0044656C746120526164694C
:101C1000757320422830293A0044656C7461205263
:101C2000616469757320412830293A00416C7068FD
:101C3000612043283930293A00416C7068612042A4
:101C400028333330293A00416C70686120412832D2
:101C50003130293A00546F77657220333A00546F5F
:101C600077657220323A00546F77657220313A00FE
:101C7000496E76616C69642064656C746120636F81
:101C80006F7264696E617465202D206D6F766520BA
:101C900069676E6F726564006C696E656172204C75
:101CA0003A00454550524F4D20757064617465642B
:101CB000002C2073706565643D00206C696E656161
:101CC000722073746570733A004A65726B3A007AD9
:101CD0005F6D61783A00795F6D61783A00785F6D89
:101CE00061783A004C2000482000206973200020D1
:101CF000746F2000536574206F75747075743A208A
:101D0000004D53312C4D53322050696E73004531D4
:101D10003A0045303A005A3A00593A0020002C0067
:101D2000206D696E0020686F7572732000206461F9
:101D3000797320006D20005072696E74696E67209F
:101D400074696D653A005072696E746564206669E5
:101D50006C616D656E743A0046616E7370656564A2
:101D60003A00466C6F774D756C7469706C793A0007
:101D700053706565644D756C7469706C793A0020B8
:101D80002F003A0020403A00543A0020453A002003
:101D90005A3A0020593A0020583A00583A00467200
:101DA00065652052414D3A00556E6B6E6F776E201F
:101DB000636F6D6D616E643A00536F667477617224
:101DC00065205265736574005761746368646F675A
:101DD0002052657365740042726F776E206F757460
:101DE0002052657365740045787465726E616C206D
:101DF000526573657400506F776572557000737427
:101E000061727400424C4B2000736B69702000209B
:101E1000676F7420004572726F723A6578706563FF
:101E2000746564206C696E652000205200204A00B1
:101E3000204900205000205300204600204500206B
:101E40005A00205900205800466F726D6174206559
:101E500072726F720057726F6E6720636865636B92
:101E600073756D004563686F3A00526573656E6403
:101E70003A005761726E696E673A00496E666F3A52
:101E8000004572726F723A00494E46004E414E0054
:101E90006F6B004649524D574152455F4E414D458B
:101EA0003A52657065746965725F302E39322E3230
:101EB000204649524D574152455F444154453A32BC
:101EC00030313731303330204D414348494E455F42
:101ED000545950453A455249532044656C74612029
:101EE00000000000000000000000000000000000F2
:101EF0000024F403D950C38EB1C2A23D96828B3523
:101F000082127AE372816CCB66A861015DC758EBDF
:101F1000546151204E1E4B5648C14559431A410148
:101F20003F093D2F3B7139CD374036C934653314F5
:101F300032D430A32F802E6B2D632C672B752A8E05
:101F400029B028DC2710274B268F25D9242B248263
:101F500023E0224322AC211A218D200420801F007F
:101F60001F841E0C1E971D261DB81C4E1CE61B82CE
:101F70001B201BC11A641A0A1AB2195D190A19B971
:101F8000186A181C18D11788174017FA16B5167357
:101F9000163116F115B31576153A150015C7148FBD
:101FA0001458142214EE13BA13881356132513F67B
:101FB00012C71299126C1240121512EB11C111982E
:101FC00011701148112111FB10D610B1108D10693C
:101FD00010461024100210E10FC00FA00F800F61F7
:101FE0000F420F230F060FE80ECB0EAF0E930E77A6
:101FF0000E5C0E410E270E0D0EF30DDA0DC10DA86D
:102000000D900D780D600D490D320D1B0D050DEF76
:102010000CD90CC30CAE0C990C850C700C5C0C48E4
:102020000C350C210C0E0CFB0BE80BD60BC40BB2C1
:102030000BA00B8E0B7D0B6B0B5A0B4A0B390B292C
:102040000B180B080BF80AE90AD90ACA0ABB0AAC32
:102050000A9D0A8E0A800A710A630A550A470A39DC
:102060000A2C0A1E0A110A040AF709EA09DD09D036
:1020700009C409B709AB099F09920987097B096F50
:1020800009630958094C09410936092B092009152A
:10209000090A090009F508EB08E008D608CC08C2CF
:1020A00008B808AE08A4089A08900887087D087444
:1020B000086B08610858084F0846083D0834082C8A
:1020C0000823081A08120809080108F807F007E8A9
:1020D00007E007D807D007C807C007B807B007A8A8
:1020E00007A1070000420FA1071605D0030D038BBF
:1020F000022E02E801B2018601630145012C01179D
:10210000010401F400207A3A0020793A0020783A5C
:1021100000696E20717565756544656C74614D6FFD
:10212000766520746F2063616C63756C61746544BF
:10213000656C74615375625365676D656E74732069
:1021400072657475726E73206572726F722E0043C1
:102150002068697420666C6F6F720043706F732023
:102160007820737175617265200043706F732078F9
:10217000207374657073200043706F73207920732F
:102180007175617265200043706F732079207374DC
:102190006570732000422068697420666C6F6F72EE
:1021A0000042706F73207820737175617265200032
:1021B00042706F73207820737465707320004270D2
:1021C0006F73207920737175617265200042706FA2
:1021D00073207920737465707320004120686974DE
:1021E00020666C6F6F720041706F7320782073717E
:1021F00075617265200041706F732078207374657B
:102200007073200041706F73207920737175617253
:1022100065200041706F732079207374657073209E
:10222000006D6F766552656C61746976654469739B
:1022300074616E6365496E5374657073202F2071ED
:102240007565756544656C74614D6F766520726562
:102250007475726E73206572726F720000000A0BE3
:1022600002090C0D0E080703040100000000000025
:10227000000000000000000000000000000000005E
:10228000000000000000000012111000000000001B
:10229000000000000000000000000000000000003E
:1022A000000001021020200808102040102040806B
:1022B000020102010804020101020408102040800A
:1022C0008040201008040201800402018040201098
:1022D00008040201080402010102040810204080E1
:1022E00001020408102040800505050507050808BF
:1022F0000808020202020A0A080804040404010190
:1023000001010101010103030303030303030407A4
:1023100007070C0C0C0C0C0C0C0C0202020206063B
:102320000606060606060B0B0B0B0B0B0B0B000031
:1023300020002300260029002C002F00320000017D
:102340000000030106010901000022002500280009
:102350002B002E00310034000201000005010801AD
:102360000B0100002100240027002A002D0030006E
:10237000330001010000040107010A014E414E49EA
:102380004E495459494E46CDCCCC3D0AD7233C1733
:10239000B7D13877CC2B329595E6241FB14F0A0080
:1023A0000020410000C84200401C4620BCBE4CCA70
:1023B0001B0E5AAEC59D740099652986C5A71124C8
:1023C0001FBECFEFD1E2DEBFCDBF00E00CBF13E0F8
:1023D000A0E0B2E0E4ECFAE601E00BBF02C0079037
:1023E0000D92AC31B107D9F729E1ACE1B3E001C0FE
:1023F0001D92A53CB207E1F713E2CEEBD3E200E079
:1024000006C022970109FE010BBF0E9438B1C83BEC
:10241000D10780E00807A9F70E94B1AC0C9460B521
:102420000C940000CF93DF9300D01F92CDB7DEB79E
:1024300044E050E0BC01CE0101960E941CB56981C8
:102440007A818B819C810F900F900F900F90DF917C
:10245000CF910895179A0895169A0895159A089598
:1024600088E493E0DFCFCF92DF92EF92FF92CF9399
:10247000DF9300D01F921F92CDB7DEB76B017C01B6
:102480006093EF047093F0048093F1049093F2044E
:102490000E94F74DC982DA82EB82FC8244E050E070
:1024A00065E773E0CE0101960E943EB523E0B701D7
:1024B000A6018BED93E00E947D740E94EF77682F58
:1024C00088E690E06D830E942CB56D81681721F03D
:1024D00088E690E00E9447B50F900F900F900F9004
:1024E0000F90DF91CF91FF90EF90DF90CF90089504
:1024F000CF93DF931F92CDB7DEB7BC018DE793E09A
:102500000E945AB50E94EF77682F88E690E06983B1
:102510000E942CB56981681739F088E690E00F9029
:10252000DF91CF910C9447B50F90DF91CF91089533
:10253000CF93DF931F92CDB7DEB7BC018FE793E057
:102540000E945AB50E94EF77682F88E690E0698371
:102550000E942CB56981681739F088E690E00F90E9
:10256000DF91CF910C9447B50F90DF91CF910895F3
:10257000CF93DF931F92CDB7DEB7BC0181E893E024
:102580000E945AB50E94EF77682F88E690E0698331
:102590000E942CB56981681739F088E690E00F90A9
:1025A000DF91CF910C9447B50F90DF91CF910895B3
:1025B00080912D048823A1F010922D040E94EE49F1
:1025C00080919002815080939002811109C0809186
:1025D0009102833010F40E94954985E08093900227
:1025E000089580919207882329F00E94617180E00C
:1025F000DFDFF7CF08954F925F926F927F928F92B5
:102600009F92AF92BF92CF92DF92EF92FF920F9381
:102610001F93CF93DF9300D01F92CDB7DEB78C010D
:102620008091690590916A05A0916B05B0916C0548
:1026300089839A83AB83BC83C0906D05D0906E056F
:10264000E0906F05F0907005809071059090720594
:10265000A0907305B09074059C01AD01BC01CD0143
:102660000E9477B081110FC149805A806B807C80B5
:10267000E89477F82FEF3FEF4FE75FE7C301B20130
:102680000E9477B081110BC02FEF3FEF4FE75FE75C
:10269000C301B2010E9424AD18160CF4F4C0A701C6
:1026A0009601C701B6010E9477B08111ECC02601E6
:1026B0003701E89477F82FEF3FEF4FE75FE7C3016B
:1026C000B2010E9477B081110BC02FEF3FEF4FE7AF
:1026D0005FE7C301B2010E9424AD18160CF4D3C009
:1026E000A5019401C501B4010E9477B08111CBC04E
:1026F00024013501E89477F82FEF3FEF4FE75FE7CC
:10270000C301B2010E9477B081110BC02FEF3FEFE0
:102710004FE75FE7C301B2010E9424AD18160CF425
:10272000B2C020914105309142054091430550913E
:10273000440569817A818B819C810E94C0AC2B0108
:102740003C01209145053091460540914705509147
:102750004805C701B6010E94C0AC6B017C01209105
:10276000490530914A0540914B0550914C05C501F2
:10277000B4010E94C0AC4B015C018091C905882363
:1027800029F020E732E441E25DE304C020E030E0DC
:1027900040E85FE3C301B2010E94CCAFAB01BC01D2
:1027A00022E08BE99DE10E94BA748091C9058823DB
:1027B00029F020E732E441E25DE304C020E030E0AC
:1027C00040E85FE3C701B6010E94CCAFAB01BC019A
:1027D00022E083E99DE10E94BA748091C9058823B3
:1027E00029F020E732E441E25DE304C020E030E07C
:1027F00040E85FE3C501B4010E94CCAFAB01BC016E
:1028000023E08FE89DE10E94BA7460918105709188
:10281000820580918305909184050E94F7AD2091F7
:10282000C5053091C6054091C7055091C8050E9465
:10283000CCAF2091C905222329F020E732E441E200
:102840005DE304C020E030E040E85FE30E94CCAFED
:10285000AB01BC0124E08BE89DE10F900F900F903D
:102860000F90DF91CF911F910F91FF90EF90DF902C
:10287000CF90BF90AF909F908F907F906F905F9020
:102880004F900C947D74C8010E94B1724ACFCF92D0
:10289000DF92EF92FF92CF93DF93EC0189319105A4
:1028A0003CF0C53F81E0D8072CF0C4EFD1E002C076
:1028B000C9E1D0E0BE01882777FD8095982F0E945E
:1028C000F7AD6B017C016091790470917A048827DF
:1028D00077FD8095982F0E94F7AD9B01AC01C70151
:1028E000B6010E942BAD9B01AC0160917B047091FD
:1028F0007C0480917D0490917E040E94CCAF609313
:102900007B0470937C0480937D0490937E04D09329
:102910007A04C0937904BE0180E79DE1DF91CF91F5
:10292000FF90EF90DF90CF900C9463738F929F9203
:10293000AF92BF92CF92DF92EF92FF92CF93DF934D
:10294000EC018931910534F0893C91052CF0C8ECFB
:10295000D0E002C0C9E1D0E0D0937804C0937704FE
:10296000E0911C03F0911D03E258FF4FC080D1801D
:10297000E280F38020E030E0A901C701B6010E94A7
:1029800024ADAE01662757FD6095762F18165CF0D2
:10299000CB01BA010E94F7AD2AE037ED43E25CE3D8
:1029A0000E94CCAF24C0CB01BA010E94F7AD2AE04F
:1029B00037ED43E25CE30E94CCAF20E030E040E83A
:1029C00050E40E94CCAF4B015C01A7019601C70106
:1029D000B6010E94CCAF2BED3FE049E450E40E94E9
:1029E000CCAF9B01AC01C501B4010E942BAD60933B
:1029F0009602709397028093980290939902BE0179
:102A000082E69DE1DF91CF91FF90EF90DF90CF9034
:102A1000BF90AF909F908F900C946373CF93DF9390
:102A200020913D0597FD0DC0EC018F3F910519F0F8
:102A300014F0CFEFD0E0209721F0286020933D05DF
:102A400005C0277F20933D05C0E0D0E06111C9DDBE
:102A50008091EB1890E0C817D90729F0BE0188E5EE
:102A60009DE10E946373C093EB18DF91CF910895AD
:102A70004F925F926F927F928F929F92AF92BF928E
:102A8000CF92DF92EF92FF92CF93DF9300D01F920D
:102A9000CDB7DEB72FE632E143E85AE36091610437
:102AA0007091620480916304909164040E94CCAFA1
:102AB0006B017C0181E890E0B5DC9B01AC01C701B2
:102AC000B6010E94C0ACAB01BC0122E086E49DE1EE
:102AD0000E94BA7484E39DE10E947772E0910A0239
:102AE000F0910B0220E030E040E751E4638574850B
:102AF000858596850E9458AF18160CF46BC020E0AF
:102B000030E0A9018DE790E029833A834B835C8311
:102B10000E9434B54B015C0129813A814B815C8173
:102B2000820E931EA41EB51EC501B40120E831E536
:102B300041E050E00E94EBB060E87EEA8EEF9FEF4C
:102B40000E9493B06B017C01C80CD91CEA1CFB1CD1
:102B5000BA01A90187E39DE10E948973C701B6010B
:102B600020E13EE040E050E00E94EBB049015A0114
:102B7000BA01A9018DE29DE10E948973A0EFB1EF36
:102B8000A50194010E9434B16C0D7D1D8E1D9F1D09
:102B90002CE330E040E050E00E94EBB0BA01A90124
:102BA00085E29DE10E94897380E29DE10F900F9084
:102BB0000F900F90DF91CF91FF90EF90DF90CF902B
:102BC000BF90AF909F908F907F906F905F904F904D
:102BD0000C9490720E94DFAAC0906504D0906604A5
:102BE000E0906704F09068046C197D098E099F09D4
:102BF00028EE33E040E050E00E94C9B083CF81115D
:102C000002C08EE207C0813011F48DE203C0823031
:102C100019F48CE20C94D2A90895EAE0F1E08081E5
:102C200088608083808180618083808180628083EE
:102C300064E170E08EE20E94D2A964E170E08DE26E
:102C40000E94D2A962E870E08CE20E94D2A9E1E27F
:102C5000F1E08081887F81608083089567FD43C0B3
:102C60008230E9F028F4882341F0813061F03BC0E4
:102C7000833009F1843059F136C0662311F0A19AEE
:102C800069C0A19867C080910801662311F080682F
:102C900001C08F778093080147FF3AC05FC08091E1
:102CA0000801662311F0806401C08F7B80930801C6
:102CB00047FF34C055C080910801662311F0886039
:102CC00001C0877F8093080147FF32C046C08091D2
:102CD0000501662311F0806401C08F7B809305019C
:102CE00047FF2EC03CC047FD3BC08230B9F028F4FE
:102CF000882341F0813061F008958330C9F0843039
:102D0000F9F00895442311F0A09A0895A098089529
:102D1000442311F0A29A0895A29808958091080181
:102D2000442311F0806201C08F7D809308010895D3
:102D300080910801442311F08061F7CF8F7EF5CF99
:102D400080910501442311F0806401C08F7B809342
:102D50000501089547FFD6CF089508950895089571
:102D60000895643079F028F4613041F0623041F028
:102D70000895683051F0603141F0089540E003C09B
:102D800040E004C041E060E002C041E061E066CFA5
:102D9000CF93DF9381E09DE10E94907262B36695CC
:102DA000617070E08BE99DE10E94577362B36170BE
:102DB00070E08EE19DE10E946373C6E0D1E08881FE
:102DC000992787FD9095692F661F6627661F70E01B
:102DD00089E19DE10E94577362B362FB662760F947
:102DE00070E08EE19DE10E946373688166FB662757
:102DF00060F970E086E19DE10E945773688165FB90
:102E0000662760F970E08EE19DE10E94637368813E
:102E100063FB662760F970E082E19DE10E945773D1
:102E200068816295617070E08EE19DE10E9463733C
:102E3000C3E0D1E0688166FB662760F970E08EE050
:102E40009DE10E945773688166FB662760F970E018
:102E50008EE19DE1DF91CF910C946373FF920F930C
:102E60001F93CF93DF9300D01F921F92CDB7DEB791
:102E700085E0E7EFF2E0DE01119601900D928A9570
:102E8000E1F7989A9A9A80910701806280930701EE
:102E90008091070180618093070180910401806423
:102EA000809304018E010F5F1F4FF12CF801619197
:102EB0008F018F2D56DFF394F5E0FF12F7CF0F90BF
:102EC0000F900F900F900F90DF91CF911F910F9166
:102ED000FF9008950C9412830E94FD8220910802B5
:102EE000309109028217930724F49093090280938A
:102EF000080208956091080270910902809106020B
:102F0000909107026817790744F470930702609361
:102F100006028EE99DE10C9463730895CF93C82F48
:102F200069E170E086EF98E10E94B0A76C2F86EF10
:102F300098E10E9451A760E086EF98E10E94B1A756
:102F4000882329F089E39BE0CF910C949072CF9174
:102F50000895CF93DF93D82FC62F69E170E086EFF5
:102F600098E10E94B0A76D2F86EF98E10E9451A7CB
:102F70006C2F86EF98E10E9451A786EF98E10E949E
:102F8000C3A7882331F08AE19BE0DF91CF910C94B5
:102F90009072DF91CF9108951F93CF93DF93182FF5
:102FA000BDDF41E050E069E170E086EF98E10E940A
:102FB000A4A786EF98E10E94FAA6892B99F086EFE4
:102FC00098E10E9402A7EC01612F70E080E19BE094
:102FD0000E945773BE01772787E09BE00E946373CE
:102FE00081E005C089EE9AE00E94907280E0DF9156
:102FF000CF911F91089584EC9AE00E94907286EF21
:1030000098E10E948FA78FE0C7DF81E3C5DF80E2F0
:10301000C3DF6CE980E29DDF80E2BEDF82E2BCDFDD
:1030200060E482E296DF82E2B7DF85E2B5DF60E04E
:1030300085E28FDF85E2B0DF83E2AEDF60E383E22B
:1030400088DF83E2A9DF84E2A7DF6AE484E281DF2C
:1030500084E2A2DF80E3A0DF60E280E37ADF80E346
:103060009BDF81E399DF82E397DF69E182E371DF30
:1030700082E392DF83E390DF60E083E36ADF83E350
:103080008BDF84E389DF60E084E363DF84E384DF54
:1030900086E382DF62E386E35CDF86E37DDF87E34E
:1030A0007BDF60E087E355DF87E376DF88E374DF6B
:1030B00060E188E34EDF88E36FDF89E36DDF8AE359
:1030C0006BDF62E38AE345DF8AE366CFCF9381E378
:1030D00063DFC82F85E360DF811101C0C0E089E3B1
:1030E0005BDF811101C0C0E08DE256DF811101C0BC
:1030F000C0E08C2FCF9108956DE080EA96E00E94A9
:10310000B1816AE080EA96E00C94B181E0911C0301
:10311000F0911D0342A953A964A975A922E088E88A
:103120009DE10E94BA74E0911C03F0911D0346A931
:1031300057A960AD71AD20E08FE79DE10E94BA74A0
:10314000E0918F02EF3F29F4E0911C03F0911D0301
:10315000E081F0E0E851F74E608170E084E89DE1A5
:103160000E945773C9CF2F923F924F925F926F92F6
:103170007F928F929F92AF92BF92CF92DF92EF9207
:10318000FF920F931F93CF93DF93CDB7DEB72997AD
:103190000FB6F894DEBF0FBECDBF5C01DC01169602
:1031A0008D919C9117978C3C910511F40C94CB2137
:1031B00008F098C08A36910509F427C708F04FC077
:1031C0008335910509F446C278F58A32910509F4F0
:1031D000A3C158F48131910509F49BC1429711F0C4
:1031E0000C94542637D938D9C4C28135910509F4D5
:1031F00022C208F02BC28035910511F00C945426A0
:10320000F0D90E94DFAA6093F2187093F3188093AC
:10321000F4189093F5189B9A80913F0580648093F1
:103220003F05A3980C948B268C35910509F416C3A1
:1032300050F48435910509F412C28535910509F4DD
:10324000E9C20C9454268836910509F4BCC308F0F1
:10325000A4C48336910509F465C30C9454268537BC
:10326000910511F40C948B26F0F48F36910509F436
:10327000FEC650F48B36910509F4D8C68D369105FB
:1032800009F4ADC40C9454268337910509F41EC784
:1032900008F076C68237910511F00C94542686E327
:1032A00093E00C948C23883C910509F470C770F46A
:1032B0008C38910509F41DC48E3B910509F455C65F
:1032C0008737910511F00C9454261EC7F501208113
:1032D00031818A3C910511F40C94772108F4AAC736
:1032E0000C94BB218E32F1E09F0711F40C94192449
:1032F00008F09AC08F3D910511F40C94FB22E0F583
:103300008F3C910511F40C94412228F58D3C9105D8
:1033100011F40C9427228E3C910511F00C94542644
:10332000C50129960FB6F894DEBF0FBECDBFDF9161
:10333000CF911F910F91FF90EF90DF90CF90BF90B2
:10334000AF909F908F907F906F905F904F903F9045
:103350002F900C94407E8C3D910511F40C94A82282
:103360008D3D910511F40C94D022813D910511F011
:103370000C9454260C948922843031E0930711F484
:103380000C94A62390F5893E910511F40C9410231A
:103390008B3F910511F40C944923883E910511F05F
:1033A0000C9454266091F0187091F1188AEB9CE10E
:1033B0000E9457734091EC185091ED186091EE18EF
:1033C0007091EF1822E081EB9CE10E947D741092D5
:1033D000F1181092F0181092EC181092ED1810924B
:1033E000EE181092EF180C948B26863051E095075A
:1033F00011F40C94E22310F40C94C0238931914011
:1034000011F00C9454268DE792E00E94A77280E0A0
:103410000E94A74D68EC70E080E090E00E940EAB47
:103420008FB7F8940C9418248836E1E09E0711F4C5
:103430000C94802568F5813421E0920711F40C94F6
:103440008B2480F48F3241E0940711F40C945824BB
:103450008034914011F00C94542681E00E94D26097
:103460000C94A0248E35A1E09A0711F40C94C92481
:103470008336B1E09B0711F40C943A2582349140D5
:1034800011F00C94542680E00E9473610C94A024E7
:10349000843FF1E09F0711F40C94E42550F5813945
:1034A00031E0930711F40C949A25823941E0940796
:1034B00011F40C94B4258039914011F00C945426E9
:1034C00029960FB6F894DEBF0FBECDBFDF91CF9126
:1034D0001F910F91FF90EF90DF90CF90BF90AF9032
:1034E0009F908F907F906F905F904F903F902F9024
:1034F00078C8863FA1E09A0711F40C940F2610F4C7
:103500000C94EA258C38934011F40C9429260C94E1
:1035100054261798169854C2D5012D913C911197B5
:1035200033FD02C00C948B2692961C919297E12E4B
:103530009396FC90E7E5FBE0449150E04E155F0563
:1035400009F45DC03296BBE0EB3CFB07A9F7F7FC42
:1035500056C032FF2BC0F501468D578D60A171A179
:103560004F3F51056105710509F0E8F461E0812FD5
:103570000E94F2ABD5015E966C91812F0E942BAC1C
:10358000F501668D778D812F0E94D2A9B70184EF56
:103590009CE10E945773D5015E966D917C915F9777
:1035A0008FEE9CE112C082E793E02BC062E0812F96
:1035B0000E94F2ABB7018FEE9CE10E945773812FFE
:1035C0000E9460ACBC018AEE9CE129960FB6F8948B
:1035D000DEBF0FBECDBFDF91CF911F910F91FF9046
:1035E000EF90DF90CF90BF90AF909F908F907F90A3
:1035F0006F905F904F903F902F900C9463738CE38B
:1036000093E029960FB6F894DEBF0FBECDBFDF91D1
:10361000CF911F910F91FF90EF90DF90CF90BF90CF
:10362000AF909F908F907F906F905F904F903F9062
:103630002F900C94B1720E94F1129B9A80913F05D9
:103640008F7B80933F05A39A0C948B26109285055F
:103650000C948B2681E0809385050C948B26F501D4
:103660008081918192FF12C0268D378D40A151A19A
:10367000A8EEB3E00E9428B16093EF027093F002CD
:103680008093F1029093F2020C948B2693FFA5C0D5
:10369000F50182A193A1A4A1B5A182309105A10554
:1036A000B10509F466C02CF50097A105B10509F430
:1036B00046C00197A105B10511F00C948B262996FF
:1036C0000FB6F894DEBF0FBECDBFDF91CF911F9133
:1036D0000F91FF90EF90DF90CF90BF90AF909F90B1
:1036E0008F907F906F905F904F903F902F900C94B1
:1036F0002C1283309105A105B10509F454C004973B
:10370000A105B10511F00C948B2629960FB6F894FB
:10371000DEBF0FBECDBFDF91CF911F910F91FF9004
:10372000EF90DF90CF90BF90AF909F908F907F9061
:103730006F905F904F903F902F900C942842299665
:103740000FB6F894DEBF0FBECDBFDF91CF911F91B2
:103750000F91FF90EF90DF90CF90BF90AF909F9030
:103760008F907F906F905F904F903F902F900C9430
:103770002A1229960FB6F894DEBF0FBECDBFDF9197
:10378000CF911F910F91FF90EF90DF90CF90BF905E
:10379000AF909F908F907F906F905F904F903F90F1
:1037A0002F900C942E1229960FB6F894DEBF0FBE00
:1037B000CDBFDF91CF911F910F91FF90EF90DF90E0
:1037C000CF90BF90AF909F908F907F906F905F90C1
:1037D0004F903F902F900C941A420E94F11281E07A
:1037E00029960FB6F894DEBF0FBECDBFDF91CF9103
:1037F0001F910F91FF90EF90DF90CF90BF90AF900F
:103800009F908F907F906F905F904F903F902F9000
:103810000C94A74DD5018D919C91119792FF14C0E6
:103820005E962D913D914D915C919197A8EEB3E0FC
:103830000E9428B16093F3027093F4028093F50222
:103840009093F6020C948B261092F3021092F402DD
:103850001092F5021092F6020C948B26F5018081ED
:1038600083FF0CC082859385A485B5858093D8029B
:103870009093D902A093DA02B093DB02D5018C9128
:1038800084FF0EC01E968D919D910D90BC91A02D30
:103890008093DC029093DD02A093DE02B093DF02FE
:1038A000F501808185FF0CC082899389A489B5893F
:1038B0008093E0029093E102A093E202B093E302CE
:1038C0000E94F74DD5018C9186FD02C00C948B2689
:1038D00020911C0330911D0356968D919D910D9062
:1038E000BC91A02DF90181879287A387B48780813D
:1038F00029960FB6F894DEBF0FBECDBFDF91CF91F2
:103900001F910F91FF90EF90DF90CF90BF90AF90FD
:103910009F908F907F906F905F904F903F902F90EF
:103920000C945F40D501ED91FC911197F2FF0DC011
:103930005E962D913D914D915C919197A8EEB3E0EB
:103940000E9428B16B017C0106C040E1C42E47E211
:10395000D42EE12CF12CE3FD0E942A12F501808186
:1039600084FD0E942C12D5018C9185FD0E942E129F
:103970000E94DFAA2B013C014C0C5D1C6E1C7F1CBD
:103980000E94DFAAA3019201261B370B480B590B9B
:10399000DA01C901803A9648A140B10518F40E94A5
:1039A000ED52EECFD5018C9183FD1798F501808102
:1039B00084FD1698D5018C9185FD02C00C948B2650
:1039C00015980C948B260E94C64981110C948B2665
:1039D0000E94DFAA6093F2187093F3188093F41892
:1039E0009093F51880919B0283FF02C00C948B2664
:1039F000F5018081918193FF02C00C94772692FF9C
:103A00000AC0868D978DA0A1B1A1892B8A2B8B2B03
:103A100011F40C947726D5018D919C91119792FD0C
:103A200002C00C948B269C012227317091FF23C089
:103A3000232B89F011E020E030E0A9015A966D9126
:103A40007D918D919C915D970E9458AF18160CF056
:103A500010E0212F01C020E085010C5A1F4FF50115
:103A6000668D778D80A191A129870E94F7AD298568
:103A7000D8014C9124C0232B81F011E020E030E0EC
:103A8000A901F501628D738D848D958D0E9458AFCB
:103A900018160CF010E0212F01C020E000911C034B
:103AA00010911D03D5015E966D917D918D919C9134
:103AB000919729870E94F7AD2985F80140812996C1
:103AC0000FB6F894DEBF0FBECDBFDF91CF911F912F
:103AD0000F91FF90EF90DF90CF90BF90AF909F90AD
:103AE0008F907F906F905F904F903F902F900C94AD
:103AF0008E450E94C64981110C948B260E94DFAA34
:103B00006093F2187093F3188093F4189093F5185B
:103B100080919B0283FF02C00C948B26D5018D916E
:103B20009C91119792FD02C00C948B2690FF11C0BE
:103B300011E020E030E0A9015A966D917D918D91C0
:103B40009C915D970E9458AF18160CF010E0412F21
:103B500001C040E0F501668D778D80A191A1498774
:103B60000E94F7AD498529960FB6F894DEBF0FBEC7
:103B7000CDBFDF91CF911F910F91FF90EF90DF901C
:103B8000CF90BF90AF909F908F907F906F905F90FD
:103B90004F903F902F900C941942D5018D919C919C
:103BA00033E0969587953A95E1F7817029960FB69F
:103BB000F894DEBF0FBECDBFDF91CF911F910F9163
:103BC000FF90EF90DF90CF90BF90AF909F908F903D
:103BD0007F906F905F904F903F902F9097CA0E9478
:103BE000C64981110C948B260E94DFAA6093F218BB
:103BF0007093F3188093F4189093F51880919B02BA
:103C000083FF02C00C948B260E94F11220901C03AB
:103C100030901D03F5018081918191FF09C0EC5A1C
:103C2000FF4F2081211104C02CE0222E22E0322EF1
:103C300092FF1EC090FF0FC011E020E030E0A9010C
:103C4000D5015A966D917D918D919C915D970E94C1
:103C500058AF18160CF010E0F501668D778D80A135
:103C600091A10E94F7AD212FD1014C910E948E4568
:103C7000F10126A937A940AD51AD62A973A984A964
:103C800095A90E94BFAC2B013C0120E030E0A901C6
:103C90000E9458AF181664F420E030E040EA50E487
:103CA000C301B2010E9424AD87FF0EC00C948B2685
:103CB00020E030E040EA50ECC301B2010E9458AF6E
:103CC000181614F40C948B2699249394D101D09651
:103CD0002D913C91D1979E968D919C919F978217A3
:103CE00093070CF0912C0E94DFAA6D837E838F8353
:103CF000988710E0412C512C32010E94DFAA698381
:103D00007A838B839C836093F2187093F31880936B
:103D1000F4189093F518DC01CB012D813E814F8181
:103D20005885821B930BA40BB50B893E9340A105CC
:103D3000B10550F080E0EAD989819A81AB81BC81DC
:103D40008D839E83AF83B88781E00E94D8128091D3
:103D50001C0390911D032816390609F062C0D10199
:103D60009396ED90FC9094971E141F040CF059C08C
:103D7000111156C0992009F475C091966D917C91EE
:103D80009297882777FD8095982F0E94F7AD9B0129
:103D9000AC01F10162A973A984A995A90E9458AF49
:103DA00018160CF0B1C7662777276E197F09882788
:103DB00077FD8095982F0E94F7AD2091E402309115
:103DC000E5024091E6025091E7020E94CCAF0E94CA
:103DD000C4AD1F921F92D10152962C9152972F93EE
:103DE00051962C9151972F9350962C9150972F9339
:103DF0001F962C912F935B016C01E12CF12C870114
:103E000020E030E0A90160E070E0CB010E941B9F40
:103E10000F900F900F900F900F900F9011E074C7BC
:103E200011E0411451046104710409F050C099205B
:103E3000F1F020E030E040E85FE3F10166A977A906
:103E400080AD91AD0E94BFAC9B01AC01D101D29677
:103E50006D917D918D919C91D5970E9458AF87FF70
:103E60001FC048CF411451046104710481F520E062
:103E700030E040E85FE3F10166A977A980AD91AD3C
:103E80000E94C0AC9B01AC01D101D2966D917D9195
:103E90008D919C91D5970E9424AD18160CF42ACFD1
:103EA000F101A78DB0A128EE33E00E9422B12B01D1
:103EB0003C0129813A814B815C81420E531E641E74
:103EC000751E411451046104710409F416CFD30125
:103ED000C20129813A814B815C81821B930BA40B27
:103EE000B50B81159449A543B74708F406CF1123B4
:103EF000E1F180911C0390911D0328163906A9F564
:103F0000D10193966D917C919497882777FD809548
:103F1000982F0E94F7AD2091E4023091E502409184
:103F2000E6025091E7020E94CCAF0E94C4AD1F92FE
:103F30001F92F10122892F9321892F9320892F939A
:103F400027852F935B016C01E12CF12C870120E088
:103F500030E0A90160E070E0CB010E941B9F0F9050
:103F60000F900F900F900F900F900E94DFAA609318
:103F7000F2187093F3188093F4189093F518CBC649
:103F800080919B0283FDC7C60E94DFAA4B015C01A2
:103F90000E94DFAA681979098A099B09693E734062
:103FA0008105910530F080E0B1D80E94DFAA4B0175
:103FB0005C0181E00E94D81200910A0210910B026C
:103FC000D8011B964D905D906D907C901E9720E0DF
:103FD00030E040EF51E4C301B2010E9458AF18161F
:103FE0000CF099C6F8012781308541855285C301BF
:103FF000B2010E94BFAC9F7720E030E040E85FE371
:104000000E9458AF181624F286C6D5018D919C9156
:10401000119793FB662760F992FF05C05E968D911C
:104020009C915F970AC08FEF90E007C0F501618116
:1040300063FB662760F980E090E029960FB6F8945C
:10404000DEBF0FBECDBFDF91CF911F910F91FF90CB
:10405000EF90DF90CF90BF90AF909F908F907F9028
:104060006F905F904F903F902F900C940E15D5015C
:104070008D919C91119792FF04C05E962C91209394
:104080009B0293FF12C0F50182A193A1A4A1B5A147
:1040900020919B02181619061A061B0614F4822B8F
:1040A00002C08150822380939B0280919B0283FFF8
:1040B00032C620E040E060E070E0CB010E948E4517
:1040C00020E040E060E070E0CB01F9CC83E99EE1C4
:1040D0000E94907229960FB6F894DEBF0FBECDBF36
:1040E000DF91CF911F910F91FF90EF90DF90CF90D4
:1040F000BF90AF909F908F907F906F905F904F9008
:104100003F902F900C9438150E94F1128DED9CE198
:104110000E947772379903C084EE9CE102C087EE5B
:104120009CE10E94777286ED9CE10E947772029971
:1041300003C084EE9CE102C087EE9CE10E9477728E
:104140008FEC9CE10E947772019903C084EE9CE1A0
:1041500002C087EE9CE10E94777229960FB6F89410
:10416000DEBF0FBECDBFDF91CF911F910F91FF90AA
:10417000EF90DF90CF90BF90AF909F908F907F9007
:104180006F905F904F903F902F900C947C18E0912F
:104190001C03F0911D032081D5018D919C9191FF0D
:1041A00006C0F501EC5AFF4F8081882311F0822F61
:1041B00001C080E0F501928192FF05C046A457A49A
:1041C00060A871A803C0412C512C320193FF07C095
:1041D000D501D2964D905D906D907C90D597082F2B
:1041E00010E0B3E88B9FF0011124E657FD4F4082A9
:1041F000518262827382821306C08091770490910B
:1042000078040E94961420E030E0A901C301B201B5
:104210000E9424ADB801811103C08AE093E0D5C9A2
:1042200083EE92E00E94577322E0B301A2018EED6B
:1042300092E055C123FF0DC0F50182859385A485C9
:10424000B5858093AC029093AD02A093AE02B0937B
:10425000AF02D5018C9184FF0EC01E968D919D9169
:104260000D90BC91A02D8093B0029093B102A093C9
:10427000B202B093B302F501808185FF0CC0828940
:104280009389A489B5898093B4029093B502A093D1
:10429000B602B093B702D5018C9186FF0EC0569638
:1042A0008D919D910D90BC91A02D8093B80290931B
:1042B000B902A093BA02B093BB0229960FB6F89444
:1042C000DEBF0FBECDBFDF91CF911F910F91FF9049
:1042D000EF90DF90CF90BF90AF909F908F907F90A6
:1042E0006F905F904F903F902F900C94F74D23FF6D
:1042F0000DC0F50182859385A485B58580939C02C8
:1043000090939D02A0939E02B0939F02D5018C9141
:1043100084FF0EC01E968D919D910D90BC91A02D95
:104320008093A0029093A102A093A202B093A30253
:10433000F501808185FF0CC082899389A489B589A4
:104340008093A4029093A502A093A602B093A70223
:10435000D5018C9186FFB1CF56968D919D910D9090
:10436000BC91A02D8093A8029093A902A093AA02C9
:10437000B093AB02A2CF32FFCEC4F501868D978DEC
:10438000A0A1B1A1181619061A061B060CF4C3C485
:1043900080939102C0C4E0911C03F0911D03BB9671
:1043A000D5012D913C91119732FF0DC05E968D91F4
:1043B0009D910D90BC91A02D892B8A2B8B2B09F000
:1043C000AAC4E7E3F2E023FF0BC0D5011A964D9192
:1043D0005D916D917C911D97428F538F648F758F86
:1043E000D5018C9184FF0AC01E964D915D916D910F
:1043F0007C915197468F578F60A371A3D5018C9103
:1044000085FF0AC052964D915D916D917C915597B3
:1044100042A353A364A375A3CF0129960FB6F894C2
:10442000DEBF0FBECDBFDF91CF911F910F91FF90E7
:10443000EF90DF90CF90BF90AF909F908F907F9044
:104440006F905F904F903F902F900C941940299659
:104450000FB6F894DEBF0FBECDBFDF91CF911F9195
:104460000F91FF90EF90DF90CF90BF90AF909F9013
:104470008F907F906F905F904F903F902F900C9413
:10448000ED7FF501208123FF0CC082859385A485F3
:10449000B5858093730490937404A0937504B093CE
:1044A000760426FF11C020911C0330911D03F501F5
:1044B00086899789A08DB18DF901878B908FA18F07
:1044C000B28F80810E945F404091730450917404C8
:1044D000609175047091760422E089EC9CE1299644
:1044E0000FB6F894DEBF0FBECDBFDF91CF911F9105
:1044F0000F91FF90EF90DF90CF90BF90AF909F9083
:104500008F907F906F905F904F903F902F900C9482
:104510007D74D5018D919C91119792FFFCC361E050
:104520005E968D919D910D90BC91A02D20913E05A0
:10453000892B8A2B8B2B21F460E0822F8D7F02C088
:10454000822F826080933E0570E085E492E03DC852
:10455000F5018081918192FF05C0868D978DA0A184
:10456000B1A104C084E690E0A0E0B0E029960FB6C7
:10457000F894DEBF0FBECDBFDF91CF911F910F9199
:10458000FF90EF90DF90CF90BF90AF909F908F9073
:104590007F906F905F904F903F902F900C944714B6
:1045A000D5018D919C91119792FF07C05E968D91D8
:1045B0009D910D90BC91A02D04C084E690E0A0E0F8
:1045C000B0E029960FB6F894DEBF0FBECDBFDF91E5
:1045D000CF911F910F91FF90EF90DF90CF90BF9000
:1045E000AF909F908F907F906F905F904F903F9093
:1045F0002F900C949614F5018081918192FF8BC3CA
:104600004FB7F8948091CA059091CB05268D378DD0
:10461000820F931F9093CB058093CA054FBF7BC336
:10462000F501808120911C0330911D0384FF09C096
:1046300086859785A089B189F90185A396A3A7A34B
:10464000B0A7D90195964D915D916D917C91989708
:1046500022E088E99CE10E94BA740E947C182996A5
:104660000FB6F894DEBF0FBECDBFDF91CF911F9183
:104670000F91FF90EF90DF90CF90BF90AF909F9001
:104680008F907F906F905F904F903F902F900C9401
:10469000DD4D209171053091720540917305509167
:1046A00074056091830470918404809185049091D5
:1046B00086040E94BFAC609383047093840480934B
:1046C00085049093860410927D0510927E051092C9
:1046D0007F05109280050E94F74D69E875E085E737
:1046E00095E00E94019480E00E94FB594091830470
:1046F00050918404609185047091860422E083E4E3
:1047000099E10E947D7480E00E94067882EA9CE133
:104710000E94907288ED92E029960FB6F894DEBF61
:104720000FBECDBFDF91CF911F910F91FF90EF9002
:10473000DF90CF90BF90AF909F908F907F906F90C1
:104740005F904F903F902F900C94FB1229960FB6DC
:10475000F894DEBF0FBECDBFDF91CF911F910F91B7
:10476000FF90EF90DF90CF90BF90AF909F908F9091
:104770007F906F905F904F903F902F900C94FB171D
:1047800080E10E9460ACBC018EEC92E00E946373F9
:1047900029960FB6F894DEBF0FBECDBFDF91CF9143
:1047A0001F910F91FF90EF90DF90CF90BF90AF904F
:1047B0009F908F907F906F905F904F903F902F9041
:1047C0000C94661882E30E94CC17F50180819181D8
:1047D00092FFA1C2468D578D60A171A188EB92E036
:1047E0000E94A173D5015E966C9182E30E94A91785
:1047F000F501668D8AE30E94A91782E329960FB618
:10480000F894DEBF0FBECDBFDF91CF911F910F9106
:10481000FF90EF90DF90CF90BF90AF909F908F90E0
:104820007F906F905F904F903F902F900C94CC179B
:10483000FFCFD5018D919C91119792FF0EC021E081
:104840005E968D919D910D90BC91A02D892B8A2B08
:104850008B2B09F420E0822F01C081E090913F056D
:10486000882311F0906801C09F7790933F058823BB
:1048700019F08EE292E002C084E192E029960FB630
:10488000F894DEBF0FBECDBFDF91CF911F910F9186
:10489000FF90EF90DF90CF90BF90AF909F908F9060
:1048A0007F906F905F904F903F902F900C949072FC
:1048B000F5010081118112FF03C0668D778D02C062
:1048C00066E970E013FF0CC0D5019296ED90FC9064
:1048D00093971E141F0434F4EE24E394F12C02C0C9
:1048E000E12CF12CA3E016950795AA95E1F701704C
:1048F000882777FD8095982F0E94F7ADAB01BC010A
:10490000F701EE0FFF1FE65FFD4F2E2D8081918195
:104910000E946A4600C280E00E94D260D5018D915B
:104920009C91119792FFF7C15E968D919D910D908C
:10493000BC91A02D0097A105B10509F0DCC1EBC128
:10494000F5018081918192FFE6C1868D978DA0A1AE
:10495000B1A1892B8A2B8B2B09F4DDC180E029962C
:104960000FB6F894DEBF0FBECDBFDF91CF911F9180
:104970000F91FF90EF90DF90CF90BF90AF909F90FE
:104980008F907F906F905F904F903F902F900C94FE
:1049900006788BE692E00E949072D5018D919C91F1
:1049A00092FD0FC0F501808183FF16C0F50162857D
:1049B0007385848595850E94C9AD80E00E94B116FB
:1049C0000BC010E0D5015E966C91812F0E94B1164C
:1049D0001F5F1530B9F7E6CFD5018C9184FF0BC06E
:1049E0001E966D917D918D919C9151970E94C9ADBC
:1049F00081E00E94B116F501808185FF09C06289BE
:104A00007389848995890E94C9AD82E00E94B1169C
:104A1000D5018C9186FF0BC056966D917D918D913D
:104A20009C9159970E94C9AD83E00E94B116F5018F
:104A30008081918193FF04C062A184E00E94B1163D
:104A400029960FB6F894DEBF0FBECDBFDF91CF9190
:104A50001F910F91FF90EF90DF90CF90BF90AF909C
:104A60009F908F907F906F905F904F903F902F908E
:104A70000C94C816D5018D919C91119792FF26C078
:104A800081E05E964D915D916D917C919197452B62
:104A9000462B472B09F480E029960FB6F894DEBF29
:104AA0000FBECDBFDF91CF911F910F91FF90EF907F
:104AB000DF90CF90BF90AF909F908F907F906F903E
:104AC0005F904F903F902F900C94946529960FB66D
:104AD000F894DEBF0FBECDBFDF91CF911F910F9134
:104AE000FF90EF90DF90CF90BF90AF909F908F900E
:104AF0007F906F905F904F903F902F900C949565B2
:104B000029960FB6F894DEBF0FBECDBFDF91CF91CF
:104B10001F910F91FF90EF90DF90CF90BF90AF90DB
:104B20009F908F907F906F905F904F903F902F90CD
:104B30000C94A86529960FB6F894DEBF0FBECDBFC2
:104B4000DF91CF911F910F91FF90EF90DF90CF9069
:104B5000BF90AF909F908F907F906F905F904F909D
:104B60003F902F900C949E5FF5018081918190FF82
:104B700005C0E28CF38C048D158D08C0E0907B0499
:104B8000F0907C0400917D0410917E049C0146E02D
:104B9000369527954A95E1F72170AC0165E0569569
:104BA00047956A95E1F74170BC01E4E07695679519
:104BB000EA95E1F76170F3E096958795FA95E1F74C
:104BC00081700E94FF5FA7C080E00E94067889E3A1
:104BD00098E10BC00E94537AE0911C03F0911D03F1
:104BE00080810E945F4087E198E129960FB6F89492
:104BF000DEBF0FBECDBFDF91CF911F910F91FF9010
:104C0000EF90DF90CF90BF90AF909F908F907F906C
:104C10006F905F904F903F902F900C94A7722996C1
:104C20000FB6F894DEBF0FBECDBFDF91CF911F91BD
:104C30000F91FF90EF90DF90CF90BF90AF909F903B
:104C40008F907F906F905F904F903F902F900C943B
:104C5000397682E592E00E949072D5018D919C9107
:104C600088279C7081159C4009F055C0F501668D20
:104C7000778D82A129960FB6F894DEBF0FBECDBF07
:104C8000DF91CF911F910F91FF90EF90DF90CF9028
:104C9000BF90AF909F908F907F906F905F904F905C
:104CA0003F902F900C94FF1580919B0282FF33C0A0
:104CB00088EA9DE10E947772C50129960FB6F894A3
:104CC000DEBF0FBECDBFDF91CF911F910F91FF903F
:104CD000EF90DF90CF90BF90AF909F908F907F909C
:104CE0006F905F904F903F902F900C947C700E943B
:104CF000F1120C940B1D0397A105B10509F02ECEFE
:104D000080E00E9473612ACE411451046104710451
:104D100009F48FC8DCC829960FB6F894DEBF0FBE21
:104D2000CDBFDF91CF911F910F91FF90EF90DF905A
:104D3000CF90BF90AF909F908F907F906F905F903B
:104D40004F903F902F9008952F923F924F925F92F5
:104D50006F927F928F929F92AF92BF92CF92DF928B
:104D6000EF92FF920F931F93CF93DF93CDB7DEB7F0
:104D7000EC970FB6F894DEBF0FBECDBF1C01DC016F
:104D800018968D919C9119978032910509F4F0C77E
:104D900058F58531910509F45FC198F48430910587
:104DA00009F41CC128F4029708F4EDC00C94F13901
:104DB000449711F00C94F13981E08093C9050C946B
:104DC000FC398D31910509F48CC128F44C9709F414
:104DD00047C10C94F1398E31910509F4A0C74F9762
:104DE00009F4B3C70C94F1398C35910511F40C9486
:104DF000243650F58534910511F40C941733C0F422
:104E00008434910511F00C94F13980917B049091D8
:104E10007C04A0917D04B0917E048D879E87AF872E
:104E2000B88B49E1442E512C612C712C0C944231E9
:104E30008A35910511F40C9409368B35910511F4DE
:104E40000C9415360C94F1398438910511F40C94B6
:104E5000B63808F05DC08436910511F40C9406371D
:104E60008338910511F00C94F139609169057091C6
:104E70006A0580916B0590916C0520916D053091CC
:104E80006E0540916F0550917005E0907105F090AE
:104E90007205009173051091740540907B04509049
:104EA0007C0460907D0470907E0410926F041092D8
:104EB0007004109271041092720410926B0410929C
:104EC0006C0410926D0410926E04E091BF02EF9397
:104ED000E091BE02EF93E091BD02EF93E091BC023E
:104EE000EF93E0EFAE2EE3E2BE2EE4E7CE2EE9E450
:104EF000DE2E0E943E5740927B0450927C046092CA
:104F00007D0470927E0480E00E94FB590C94B138BD
:104F10008538910511F40C943C398638910511F0CF
:104F20000C94F1394091890550918A0560918B0567
:104F300070918C0583E094E00E94897340918D0507
:104F400050918E0560918F05709190058EE19DE1E5
:104F50000E9489734091910550919205609193054B
:104F6000709194058EE19DE10E94A17380E00E9402
:104F7000FB5985EF93E00E9477728FEE93E00E94D9
:104F8000FB120C94FC39F1018081918192FF11C0D8
:104F9000868D978DA0A1B1A120913F05892B8A2BE9
:104FA0008B2B19F0822F806202C0822F8F7D80931D
:104FB0003F05C1010E94725B882311F40C94FC39F7
:104FC00041E061E081E00E94E89981110C94FC3994
:104FD00088E99AE00E949D720C94FC390E94F112BB
:104FE000D1018D919C91119793FF07C092968D905E
:104FF0009D90AD90BC90959703C0812C912C54014D
:1050000092FF0BC0F101268D378D40A151A1A8EE72
:10501000B3E00E9428B14B015C010E94DFAA6B0142
:105020007C01C80CD91CEA1CFB1C0E94DFAAA7014A
:105030009601261B370B480B590BDA01C901811564
:105040009449A543B74710F00C94FC390E94617154
:1050500081E00E94D812E9CF1092C9050C94FC3966
:10506000D1018D919C91AC01487355274115510593
:1050700051F49C01A6E036952795AA95E1F7B1E099
:105080002B27217001C020E086FF08C01092810507
:10509000109282051092830510928405211117C089
:1050A000452BD1F0AC0165E0569547956A95E1F73F
:1050B000BC01E4E076956795EA95E1F7F3E0969513
:1050C0008795FA95E1F761704170817003C061E0E6
:1050D00041E081E00E94EC6080E00E94FB590C946A
:1050E000FC390E946618811107C088E79AE00E9487
:1050F00090728FE59AE00FC68AE49AE00E943D6FB5
:1051000020917B0430917C0440917D0450917E0479
:10511000298F3A8F4B8F5C8F80E090E00E9478124D
:1051200080E090E00E94981280E090E00E94B81227
:1051300080E00E9406780E94537A80E090E4A7EE17
:10514000B4E48093A4029093A502A093A602B09326
:10515000A7020E94F74D89E190E0A0E0B0E0898BC2
:105160009A8BAB8BBC8B3BE1432E512C612C712C69
:105170001DA229893A894B895C892D873E874F87F3
:10518000588B41E061E081E00E94EC608CEB99E19A
:105190000E943D6F80E00E94D2600E943012162F64
:1051A000072FF82EE92E84E393E00E9412129B0150
:1051B000AC0180E393E029AF3AAF4BAF5CAF0E9404
:1051C0001212EF92FF920F931F9320EFA22E23E271
:1051D000B22E24E7C22E29E4D22E8601750129AD14
:1051E0003AAD4BAD5CAD0E94A95E20E041E060E0CD
:1051F00081E00E94946769AB7AAB8BAB9CAB20E0FB
:1052000041E060E081E00E9494676DAB7EAB8FABC4
:1052100098AF9B01AC0169A97AA98BA99CA90E94AE
:10522000BFAC6B017C010F900F900F900F902DEC95
:105230003CEC4CEC5DE30E9458AF181654F02DEC9A
:105240003CEC4CEC5DEBC701B6010E9424AD87FF3E
:105250001FC049895A896B897C8980E29AE00E9443
:10526000A17389899A89AB89BC898897A105B10501
:1052700044F482E30E94CC17B301A20182E09AE0D9
:1052800023C18FEE99E00E94907287ED99E043C1AF
:105290008DE793E00E9439B59E8F8D8FD1018D915E
:1052A0009C91119792FF0CC05E968D919D910D90EF
:1052B000BC91A02D0297A105B10511F40C941F3AE1
:1052C0000E943012162F072FF82EE92E8CE393E060
:1052D0000E9412129B01AC0188E393E029AF3AAF20
:1052E0004BAF5CAF0E941212EF92FF920F931F938D
:1052F00000EFA02E03E2B02E04E7C02E09E4D02E6A
:105300008601750129AD3AAD4BAD5CAD0E94A95E39
:1053100020E041E060E081E00E9494676DA77EA7F5
:105320008FA798AB20E041E060E081E00E949467A5
:1053300069A77AA78BA79CA79B01AC016DA57EA549
:105340008FA598A90E94BFAC6B017C010F900F90B4
:105350000F900F902DEC3CEC4CEC5DE30E9458AFAD
:10536000181654F02DEC3CEC4CEC5DEBC701B6018B
:105370000E9424AD87FF20C049895A896B897C89A6
:105380008DEA99E00E94A17329893A894B895C8949
:10539000283231054105510544F482E30E94CC17BF
:1053A000B301A2018FE899E08FC08CE799E00E94D9
:1053B000907284E699E0AFC08FE793E00E9439B520
:1053C0009E8B8D8BD1018D919C91119792FF0CC07A
:1053D0005E968D919D910D90BC91A02D0297A10597
:1053E000B10511F40C942D3A0E943012162F072F9C
:1053F000F82EE92E84E493E00E9412129B01AC0186
:1054000080E493E029AF3AAF4BAF5CAF0E94121239
:10541000EF92FF920F931F9310EFA12E13E2B12E84
:1054200014E7C12E19E4D12E8601750129AD3AADDC
:105430004BAD5CAD0E94A95E20E041E060E081E000
:105440000E9494676B017C0120E041E060E081E014
:105450000E94946769A37AA38BA39CA39B01AC01D0
:10546000C701B6010E94BFAC4B015C010F900F90C9
:105470000F900F902DEC3CEC4CEC5DE30E9458AF8C
:10548000181654F02DEC3CEC4CEC5DEBC501B4016E
:105490000E9424AD87FF4AC049895A896B897C895B
:1054A0008AE399E00E94A17329893A894B895C8932
:1054B000283231054105510544F582E30E94CC179D
:1054C000B301A2018CE199E00E94A173642D82E3F3
:1054D0000E94A917642D8AE30E94A91782E30E9403
:1054E000CC17F2E04F0E511C611C711C29893A89BE
:1054F0004B895C892E5F3F4F4F4F5F4F298B3A8B13
:105500004B8B5C8B31E03DA334CE89E099E00E9467
:10551000907281EF98E00E943D6F83E599E10E94CF
:10552000B172EDA1E1110C94FC3954C12DA93EA931
:105530004FA958AD69A97AA98BA99CA90E94C0ACB2
:1055400020E030E040E05FE30E94CCAF20E030E0BC
:1055500040EA52E40E94CCAF20E030E048EC54E452
:105560000E94BFAC0E94C4AD4B015C018D8D9E8D2D
:10557000AA2797FDA095BA2F8D8F9E8FAF8FB8A3C6
:1055800029A53AA54BA55CA56DA57EA58FA598A9D3
:105590000E94C0AC20E030E040E05FE30E94CCAF6E
:1055A00020E030E040EA52E40E94CCAF20E030E05E
:1055B00048EC54E40E94BFAC0E94C4AD2B013C01F6
:1055C0002D893E89442737FD4095542F2D8B3E8BE6
:1055D0004F8B588F29A13AA14BA15CA1C701B601FD
:1055E0000E94C0AC20E030E040E05FE30E94CCAF1E
:1055F00020E030E040EA52E40E94CCAF20E030E00E
:1056000048EC54E40E94BFAC0E94C4AD6B017C0125
:1056100081E893E00E9439B59C01442737FD40950D
:10562000542F29A33AA34BA35CA380E00E94FB590B
:105630000E94F74D88ED99E10E94A7724091830482
:1056400050918404609185047091860422E083E483
:1056500099E10E947D74898D9A8DAB8DBC8D80936C
:105660007B0490937C04A0937D04B0937E04841407
:105670009504A604B70414F58C149D04AE04BF046D
:105680000CF042C0481859086A087B082D893E89E9
:105690004F89588D420E531E641E751EC818D908B6
:1056A000EA08FB0889A19AA1ABA1BCA1C80ED91E2A
:1056B000EA1EFB1E812C912C540152C0481459043F
:1056C0006A047B040CF54C145D046E047F04E4F45E
:1056D00084189508A608B7082D8D3E8D4F8D58A1CA
:1056E000820E931EA41EB51EC418D508E608F7083E
:1056F00089A19AA1ABA1BCA1C80ED91EEA1EFB1EAE
:10570000412C512C320125C0C814D904EA04FB04F1
:1057100004F5C414D504E604F704DCF48C189D08E1
:10572000AE08BF082D8D3E8D4F8D58A1820E931E61
:10573000A41EB51E4C185D086E087F088D899E89D1
:10574000AF89B88D480E591E6A1E7B1EC12CD12C04
:10575000760191E9891691E09906A104B10474F4E7
:10576000A1E94A16A1E05A06610471043CF4B1E9CA
:10577000CB16B1E0DB06E104F10404F149895A8952
:105780006B897C8980EC98E00E94A17386EA98E09E
:105790000E943D6FB501A40182EA98E00E94A173C6
:1057A000B301A2018EE998E00E94A173B701A6019E
:1057B0008AE998E00E94A1730C94FC39C4010E940C
:1057C0007812C2010E949812C6010E94B81280E0AD
:1057D0000E94067881E00E94FB59298D3A8D4B8DFD
:1057E0005C8D20937B0430937C0440937D04509324
:1057F0007E0485E998E00E94FB128BEB99E10E9400
:105800003D6F212C312C8091EF049091F004A091F8
:10581000F104B091F204898B9A8BAB8BBC8B80E046
:105820000E9406780E94537A81E00E94D26041E093
:1058300061E081E00E94EC6080E00E94D2608CEB2D
:1058400099E10E943D6F0E9430129F938F937F9346
:105850006F93B0EFAB2EB3E2BB2EB4E7CB2EB9E41F
:10586000DB2E8601750120E030E0A901CA01B901F3
:105870000E94A95E20E041E060E081E00E94946720
:105880006B017C0120E041E060E081E00E949467D0
:105890004B015C019B01AC01C701B6010E94BFAC8A
:1058A0002B013C010F900F900F900F902DEC3CECD2
:1058B0004CEC5DE30E9458AF181654F02DEC3CEC14
:1058C0004CEC5DEBC301B2010E9424AD87FF2BC0FD
:1058D0004D855E856F85788986E698E00E94A17384
:1058E0002D853E854F855889283231054105510562
:1058F0009CF482E30E94CC178D859E85AF85B88984
:105900000296A11DB11D8D879E87AF87B88BAC0114
:10591000BD0188E498E0CFC085E398E00E949072D2
:105920008DE198E0E1C09FEF291A390AA5019401A1
:10593000C701B6010E94C0AC20E030E040E05FE368
:105940000E94CCAF2B013C01409183045091840410
:10595000609185047091860422E08FE098E00E94B7
:105960007D742091710530917205409173055091BD
:105970007405C301B2010E94BFAC9B01AC016091F0
:1059800083047091840480918504909186040E9420
:10599000C0AC6093830470938404809385049093D7
:1059A00086040E94F74D40918304509184046091D5
:1059B00085047091860422E081E098E00E947D7465
:1059C0000E943012162F072FF82EE92E84E493E060
:1059D0000E9412129B01AC0180E493E029AF3AAF20
:1059E0004BAF5CAF0E941212EF92FF920F931F9386
:1059F000A0EFAA2EA3E2BA2EA4E7CA2EA9E4DA2EBB
:105A00008601750129AD3AAD4BAD5CAD0E94A95E32
:105A100020E041E060E081E00E9494676B017C013E
:105A200020E041E060E081E00E9494676D8B7E8B16
:105A30008F8B988F9B01AC01C701B6010E94BFAC50
:105A40004B015C010F900F900F900F902DEC3CECF0
:105A50004CEC5DE30E9458AF181654F02DEC3CEC72
:105A60004CEC5DEBC501B4010E9424AD87FF43C03F
:105A70004D855E856F85788982ED97E00E94A173E0
:105A80002D853E854F8558892832310541055105C0
:105A90002CF582E30E94CC178D859E85AF85B88951
:105AA0000296A11DB11D8D879E87AF87B88BAC0173
:105AB000BD0184EB97E00E94A1736D8582E30E9493
:105AC000A9176D858AE30E94A91782E30E94CC176B
:105AD000B4E02B1631040CF496CEEBC081EA97E0CB
