:100000000C9417120C9448120C9448120C94481239
:100010000C9448120C9448120C9448120C944812F8
:100020000C9448120C9448120C9448120C944812E8
:100030000C9448120C9448120C9448120C944812D8
:100040000C9448120C94B87F0C9448120C944812EB
:100050000C9448120C9435810C945B800C9429AB61
:100060000C9448120C948D810C94B7810C94481216
:100070000C9448120C9448120C9448120C94481298
:100080000C9448120C9448120C9448120C94481288
:100090000C9448120C9448120C9448120C9438A9F1
:1000A0000C9448120C9448120C9448120C94481268
:1000B0000C9448120C9448120C9448120C94481258
:1000C0000C9448120C9448120C9448120C94481248
:1000D0000C9448120C9448120C9448120C94481238
:1000E0000C9448123F865786578657865786578600
:1000F0005786578657865786578657865786578618
:100100005786578657865786578657865786578607
:1001100057865786578657862E86E085EA856485FA
:10012000578610861A865786578675855285578654
:10013000068657862486FC85F4855786578657861B
:10014000C285CC85D685578657865786578657866B
:1001500057865786578657862E86E085EA856485BA
:10016000578610861A865786578675855285578614
:10017000068657862486FC85F485578657865786DB
:10018000C285CC85D68589AA8EAA93AA9DAAA7AA3C
:1001900020ABB1AAB9AAC1AACBAAD5AADFAAEEAA56
:1001A000F8AA20AB02AB0CAB16AB4BAC4EAC3DACE3
:1001B00041AC47AC85AC52AC56AC5CAC60AC64AC0A
:1001C0006AAC6EAC72AC85AC78AC7CAC80AC0763CE
:1001D0004236B79BD8A71A39685618AEBAAB558CB9
:1001E0001D3CB7CC5763BD6DEDFD753EF617723102
:1001F000BF000000803F05A84CCDB2D44EB93836C0
:10020000A9020C50B9918688083CA6AAAA2ABE0069
:100210000000803F457874722E00436F6E666967F8
:100220003A004F6E6520686561746572207365657C
:100230006D73206465636F75706C65642066726FA2
:100240006D20746865726D6973746F72202D2064FF
:10025000697361626C696E6720616C6C20666F7295
:10026000207361666574792100616476616E6365EF
:10027000204C205B303D6F66665D0065787472755A
:1002800064657220636F6F6C65722073706565645E
:10029000205B302D3235355D0064697374616E63A7
:1002A0006520746F2072657472616374207768656D
:1002B0006E2068656174696E67205B6D6D5D0074AA
:1002C000656D702E20666F72207265747261637442
:1002D000696F6E207768656E2068656174696E6706
:1002E000205B435D0074656D702E207374616269DC
:1002F0006C697A652074696D65205B735D00592DAA
:100300006F6666736574205B73746570735D005807
:100310002D6F6666736574205B73746570735D0022
:10032000504944206D61782076616C7565205B30A2
:100330002D3235355D0050494420442D6761696E8A
:100340000050494420492D6761696E00504944209E
:10035000502D6761696E2F646561642D74696D65E8
:1003600000504944206472697665206D696E0050C2
:100370004944206472697665206D61780068656122
:1003800074206D616E61676572205B302D335D0096
:10039000616363656C65726174696F6E205B6D6D1E
:1003A0002F735E325D0073746172742066656564DC
:1003B00072617465205B6D6D2F735D006D61782EC9
:1003C000206665656472617465205B6D6D2F735D79
:1003D00000737465707320706572206D6D00436FDB
:1003E00072722E20646961676F6E616C2043205BBE
:1003F0006D6D5D00436F72722E20646961676F6E70
:10040000616C2042205B6D6D5D00436F72722E2027
:10041000646961676F6E616C2041205B6D6D5D008A
:100420004D6178207072696E7461626C65207261D2
:1004300064697573205B6D6D5D00546F7765722024
:100440005A20656E6473746F70206F66667365748E
:10045000205B73746570735D00546F77657220590B
:1004600020656E6473746F70206F666673657420A8
:100470005B73746570735D00546F776572205820EC
:10048000656E6473746F70206F6666736574205B4D
:1004900073746570735D005365676D656E74732F5B
:1004A0007320666F722074726176656C00536567A5
:1004B0006D656E74732F7320666F72207072696E33
:1004C00074696E6700486F72697A6F6E74616C2030
:1004D000726F642072616469757320617420302CBE
:1004E00030205B6D6D5D00446961676F6E616C20EB
:1004F000726F64206C656E677468205B6D6D5D0063
:10050000486F6D696E672066656564726174652009
:100510005B6D6D2F735D004D61782E20666565649F
:1005200072617465205B6D6D2F735D00537465702F
:100530007320706572206D6D0054726176656C2059
:10054000616363656C65726174696F6E205B6D6D6C
:100550002F735E325D00416363656C65726174691F
:100560006F6E205B6D6D2F735E325D004D61782E76
:10057000206A65726B205B6D6D2F735D005A206D74
:100580006178206C656E677468205B6D6D5D0059E5
:10059000206D6178206C656E677468205B6D6D5DA1
:1005A0000058206D6178206C656E677468205B6D03
:1005B0006D5D005A20686F6D6520706F73205B6DF4
:1005C0006D5D005920686F6D6520706F73205B6DE5
:1005D0006D5D005820686F6D6520706F73205B6DD6
:1005E0006D5D0053746F7020737465707065722058
:1005F000616674657220696E616374697669747985
:10060000205B6D732C303D6F66665D004D61782E0A
:1006100020696E6163746976652074696D65205B1D
:100620006D732C303D6F66665D005072696E746547
:100630007220616374697665205B735D0046696C46
:10064000616D656E74207072696E746564205B6D97
:100650005D00416476616E63656420557365720068
:100660004261756472617465004550523A332000EE
:100670004550523A3220004550523A312000455000
:10068000523A30200050726F746F636F6C20766541
:100690007273696F6E206368616E6765642C207584
:1006A0007067726164696E6700436F6E6669677533
:1006B000726174696F6E20726573657420746F2047
:1006C00064656661756C74732E00436F6E6669674E
:1006D00075726174696F6E206C6F61646564206609
:1006E000726F6D20454550524F4D2E00436F6E6620
:1006F000696775726174696F6E2073746F72656477
:1007000020746F20454550524F4D2E004175746F37
:100710006C6576656C206163746976652028312F7D
:100720003029005A2D70726F6265205933005A2D9E
:1007300070726F6265205833005A2D70726F626557
:10074000205932005A2D70726F6265205832005A5B
:100750002D70726F6265205931005A2D70726F6270
:1007600065205831005A2D70726F626520782D799E
:100770002D7370656564205B6D6D2F735D005A2D60
:1007800070726F6265207370656564205B6D6D2F9C
:10079000735D005A2D70726F6265206F66667365B7
:1007A000742079205B6D6D5D005A2D70726F6265EB
:1007B000206F66667365742078205B6D6D5D004DFB
:1007C00061782E207A2D70726F6265202D2062650F
:1007D0006420646973742E205B6D6D5D005A2D700A
:1007E000726F626520686569676874205B6D6D5D16
:1007F0000077616974005072696E74657220686573
:10080000696768743A005A2D70726F62652066617C
:10081000696C6564005472616E73666F726D6174A9
:10082000696F6E206D61747269783A004175746FFA
:100830006C6576656C696E672064697361626C656E
:1008400064004175746F6C6576656C696E672065D0
:100850006E61626C6564004175746F6C6576656C81
:10086000206D617472697820726573657400004749
:1008700032382F6E47315A32352F6E005A2D707232
:100880006F62652073746174653A005265736574B4
:10089000205A20686569676874005A2D70726F620B
:1008A000652061766572616765206865696768744F
:1008B0003A00205374657020566172696174696FE3
:1008C0006E2066726F6D2050726F626520746F20AB
:1008D0006265642044697374616E63653A005A2DE1
:1008E00070726F62653A005072696E74657220733F
:1008F000657420696E746F206472792072756E2041
:100900006D6F646520756E74696C207265737461B7
:10091000727421003A20776F726B696E67003A201B
:1009200074656D702073656E736F722064656665A3
:10093000637400657874727564657220004D544567
:100940004D503A00504944204175746F74756E657E
:100950002066696E6973686564202120506C61634C
:100960006520746865204B702C204B6920616E6493
:10097000204B6420636F6E7374616E747320696EB4
:100980002074686520436F6E66696775726174696B
:100990006F6E2E68206F7220454550524F4D0050AB
:1009A0004944204175746F74756E65206661696C89
:1009B0006564212074696D656F7574005049442029
:1009C0004175746F74756E65206661696C6564212C
:1009D0002054656D706572617475726520746F2046
:1009E0006869676800204B643A2000204B693A2010
:1009F00000204B703A200020436C617373696320C0
:100A0000504944002054753A2000204B753A20008C
:100A1000206D61783A2000206D696E3A20002064D4
:100A20003A200020626961733A2000504944204115
:100A300075746F74756E652073746172740054619F
:100A40007267657445787472004E6F206D6F7665BD
:100A500020696E2064656C7461207365676D656ED6
:100A6000742077697468203E2031207365676D6556
:100A70006E742E20546869732073686F756C6420DF
:100A80006E657665722068617070656E20616E6457
:100A9000206D617920636175736520612070726FCC
:100AA000626C656D210044656C74612052616469FB
:100AB000757320432830293A0044656C74612052D4
:100AC000616469757320422830293A0044656C746A
:100AD000612052616469757320412830293A0041D0
:100AE0006C7068612043283930293A00416C706885
:100AF00061204228333330293A00416C706861200C
:100B00004128323130293A00546F77657220333AE8
:100B100000546F77657220323A00546F7765722007
:100B2000313A00496E76616C69642064656C746169
:100B300020636F6F7264696E617465202D206D6F24
:100B400076652069676E6F726564006C696E6561B9
:100B500072204C3A00454550524F4D2075706461EB
:100B6000746564002C2073706565643D00206C69B9
:100B70006E6561722073746570733A004A65726BBA
:100B80003A007A5F6D61783A00795F6D61783A007A
:100B9000785F6D61783A004C20004820002069732E
:100BA000200020746F2000536574206F7574707579
:100BB000743A20004D53312C4D53322050696E73DE
:100BC0000045313A0045303A005A3A00593A00207F
:100BD000002C00206D696E0020686F757273200014
:100BE000206461797320006D20005072696E746911
:100BF0006E672074696D653A005072696E74656441
:100C00002066696C616D656E743A0046616E737042
:100C10006565643A00466C6F774D756C7469706CED
:100C2000793A0053706565644D756C7469706C79C0
:100C30003A00202F003A0020403A00543A00204564
:100C40003A00205A3A0020593A0020583A00583ABF
:100C500000467265652052414D3A00556E6B6E6FCD
:100C6000776E20636F6D6D616E643A00536F6674CA
:100C700077617265205265736574005761746368AB
:100C8000646F672052657365740042726F776E20DF
:100C90006F75742052657365740045787465726E63
:100CA000616C20526573657400506F776572557082
:100CB00000737461727400424C4B2000736B697056
:100CC000200020676F7420004572726F723A657859
:100CD000706563746564206C696E65200020520045
:100CE000204A0020490020500020530020460020C8
:100CF0004500205A00205900205800466F726D614F
:100D000074206572726F720057726F6E672063682D
:100D100065636B73756D004563686F3A0052657368
:100D2000656E643A005761726E696E673A00496E8B
:100D3000666F3A004572726F723A00494E46004E35
:100D4000414E006F6B004649524D574152455F4E30
:100D5000414D453A52657065746965725F302E3950
:100D6000322E32204649524D574152455F4441543C
:100D7000453A3230313731313130204D41434849E5
:100D80004E455F545950453A455249532044656C8D
:100D900074612000206465672E204300206D65612A
:100DA000737572656420004572726F723A436F7595
:100DB0006C64206E6F7420686F6C642074656D7055
:100DC000657261747572652000206D730020616624
:100DD00074657220004572726F723A54656D702EA0
:100DE0002072616973656420746F20736C6F772E55
:100DF0002052697365203D20004739310A4731454B
:100E00002D31383046363030300A473930004D31D8
:100E1000313720457874727564657220300A543019
:100E20000A4D38342050340A4739310A47314531A8
:100E3000373246363030300A473145354635303066
:100E40000A473930001C151C140000002243141FEF
:100E50001F5912051295114511000000000000BD38
:100E600010B10F610FE50E690E0400081D900058C7
:100E7000091C01B007A801C80634023006C002C030
:100E8000054C036805D80318056404D004F00498E1
:100E9000047C05600408063004940600042007D092
:100EA00003AC07A80338088003C40858035009306E
:100EB00003DC090803680AD802F40AB002800B8830
:100EC000020C0C6002980C3002240DF801B00DC029
:100ED000013C0E8001C80E3001540FB800B40F2839
:100EE00000E00F00000400401D900060091C01B0EC
:100EF00007A801D00634023806C002C8054C0368B2
:100F000005D80318056404D804F00498047C05602F
:100F10000408063004940600042007D003AC07A898
:100F20000338088003C408580350093003DC09085B
:100F300003680AE002F40AB802800B88020C0C6015
:100F400002980C3002240DF801B00DC0013C0E8057
:100F500001C80E3001540FB800B40F2800E00F0094
:100F60000004000016D800C006AC0178058002C05D
:100F700004540348042804E803FC049803D00550F3
:100F800003A40618037807D8024C08A802200970A9
:100F900002F4093802C80A08029C0BD001700C90B8
:100FA00001440D5001180EF800EC0E8800C00F002F
:100FB000000400681D4C00500B94005809DC0050E0
:100FC000082401A8076C012807B401C006FC0170C1
:100FD00006440228068C02F005D402B8051C0388DA
:100FE0000564035805AC033005F40310053C04E820
:100FF000048404C804CC04A804140590045C05709F
:1010000004A4055804EC053804340620047C0608C2
:1010100004C406F0030C07D8035407C8039C07B0A8
:1010200003E40798032C08800374087003BC085875
:1010300003040948034C09300394091803DC090828
:1010400003240AF0026C0AE002B40AC802FC0AB0E7
:1010500002440BA0028C0B8802D40B70021C0C58AB
:1010600002640C4002AC0C2802F40C10023C0DF09F
:1010700001840DD801CC0DB801140E98015C0E70DE
:1010800001A40E4801EC0E1801340FD8007C0F8823
:1010900000C40F0800FC0F0000000000000000006A
:1010A0000000000000000000000000000000000040
:1010B00000000000000000000000000000000040F0
:1010C0001F450060094F0010095C00C0086B0070EC
:1010D000087D0020089200D007AC008007CC0030CB
:1010E00007DE00E006230190065E014006A601F03F
:1010F00005FF01A0056D025005F30200059603B03F
:10110000045A046004400510044806C0036E0770CA
:1011100003A8082003EB09D002230B8002410C3006
:1011200002390DE001040E9001A20E4001170FF0EC
:1011300000690FA000A20F5000C60F0000DD0FB025
:10114000FFEB0F60FF0400700DD8004804AC01589D
:10115000038002D8025403800228043802FC0400F1
:1011600002D005C801A4069801780770014C084810
:101170000120091801F409F000C80AC8009C0BA05E
:1011800000700C7000440D3800180E0000EC0EA822
:10119000FFC00FE8FE0400001B540060096400104B
:1011A000097400C008840070089C002008B800D0B2
:1011B00007D8008007000130072C01E00668019085
:1011C00006AC0140060002F0056802A005E00250EE
:1011D00005740300052404B004F0046004DC051069
:1011E00004E406C0030408700330092003780B8070
:1011F00002600DE001A80E4001680FA000C00F00C2
:1012000000E80F60FF0400801AD8009808AC0120A5
:1012100007800250065403C80528045805FC040042
:1012200005D005B004A4066804780728044C08E833
:10123000032009B003F4097003C80A38039C0BF8B3
:1012400002700CB002440D6802180E0802EC0E8801
:1012500001C00F8800F00F00000000A00F5C0060CC
:1012600009690010097900C0088C007008A20020EC
:1012700008BD00D007DE008007050130073401E01B
:10128000066D019006B20140060702F0056D02A04E
:1012900005E80250057B0300052B04B004F8046048
:1012A00004EB06C003350920037F0B8002650DE0C7
:1012B00001B00E40011D0FF000480FC8006C0FA0D8
:1012C00000ED0F60FFFE0F48FE00436F6C64206569
:1012D0007874727573696F6E20646973616C6C6F7A
:1012E00077656400436F6C64206578747275736908
:1012F0006F6E20616C6C6F776564004175746F72FE
:101300006574726163743A0053657474696E672022
:101310006D6F746F722063757272656E742E2E2EEF
:1013200000536574204D6963726F737465707069E2
:101330006E670054726967676572696E67207761CE
:10134000746368646F672E204966206163746976F0
:10135000617465642C20746865207072696E7465B0
:10136000722077696C6C2072657365742E0053650A
:101370007474696E67205468726573686F6C64205A
:10138000546F3A00494E542050494E3A20004D3295
:101390003531200020746F200053657420766F6C07
:1013A000756D657472696320657874727573696FA1
:1013B0006E20666F722065787472756465722000A5
:1013C00044697361626C656420766F6C756D6574D9
:1013D00072696320657874727573696F6E20666FC9
:1013E0007220657874727564657220004D313134F5
:1013F000200050696E2063616E206E6F74206265FC
:1014000020736574206279204D34322C206D61790F
:1014100020696E20696E76616C6964206F72206944
:101420006E207573652E2000496C6C6567616C20B9
:10143000532076616C756520666F72204D343200E2
:101440005A2028432920746F77657220666C6F6F6D
:10145000722073657420746F3A2000592028422945
:1014600020746F77657220666C6F6F72207365747D
:1014700020746F3A2000582028412920746F776526
:101480007220666C6F6F722073657420746F3A20DF
:1014900000526F6420526164697573207365742013
:1014A000746F3A2000473133342000506F73467216
:1014B0006F6D53746570733A00436F6D7044656C63
:1014C00074613A0043616C6962726174696F6E2085
:1014D0006D6F76656D656E74206973206C696D69DA
:1014E00074656420746F2031306D6D2E0046697212
:1014F0007374206D6F766520746F20746F756368E8
:1015000020617420782C793D302C3020746F20615C
:1015100075746F2D736574207261646975732E0024
:1015200043616C6962726174696F6E206D6F76657C
:101530006D656E74206973206C696D6974656420D3
:10154000746F2031306D6D2E0043616E6E6F7420AC
:101550007365742072616469757320616E642066BE
:101560006C6F6F722061742073616D652074696D9A
:10157000652E0043616C6962726174696F6E2063ED
:101580006F6465206973206C696D6974656420748B
:101590006F20626F74746F6D20313025206F66206C
:1015A0005A206865696768740052656C6174697671
:1015B0006520706F736974696F6E696E6700416250
:1015C000736F6C75746520706F736974696F6E6981
:1015D0006E670047363920005A3A2000593A2000F9
:1015E000583A20004F464653455453204F46462014
:1015F000425920544F4F204D554348205F205452AC
:1016000059494E4720414741494E3A20005365749D
:1016100074696E672050726F62652053656E7369DE
:1016200074697669747920546F3A005A2070726F29
:101630006265206661696C6564206F6E2073656EFB
:1016400073697469766974793A20005365747469B2
:101650006E672050726F62652053656E736974699E
:101660007669747920546F3A005A2070726F6265FF
:10167000206661696C6564206F6E2073656E7369A6
:101680007469766974793A200053657474696E6779
:101690002050726F62652053656E73697469766954
:1016A000747920546F3A005A2070726F6265206618
:1016B00061696C6564206F6E2073656E736974690F
:1016C000766974793A200068656865004E65772010
:1016D0005261646975733A20004F6C6420526164F2
:1016E0006975733A200043616C63756C617465645D
:1016F0002052616469757320697320626164203AC5
:101700000053657474696E672050726F6265205370
:10171000656E736974697669747920546F3A005AFA
:101720002070726F6265206661696C6564206F6EFF
:101730002073656E73697469766974793A20005311
:10174000657474696E672050726F62652053656EB0
:10175000736974697669747920546F3A005A2070FD
:10176000726F6265206661696C6564206F6E2073BC
:10177000656E73697469766974793A20004733320B
:10178000200050524F42452D5A4F46465345543A39
:10179000004733300053657474696E672050726F70
:1017A00062652053656E7369746976697479205433
:1017B0006F3A0050726F62657320646F206E6F74B1
:1017C000206D617463682E204F6666206279200068
:1017D00047333020004D3131372043414C4942528C
:1017E0004154494F4E20434F4D504C45544500689D
:1017F000656865004E657720486F72697A6F6E7410
:10180000616C205261646975733A20004F6C6420EA
:10181000486F72697A6F6E74616C20526164697589
:10182000733A200043616C63756C61746564205287
:101830006164697573206973206261643A20004DA8
:101840003131372043414C4942524154494F4E2097
:101850004641494C45440043616C69627261746958
:101860006F6E204661696C65640053657474696EBF
:10187000672050726F62652053656E736974697674
:1018800069747920546F3A005A2070726F62652033
:10189000284852202D205A20746F776572292066BF
:1018A00061696C6564206F6E2073656E736974691D
:1018B000766974793A20004E6577205A2048656928
:1018C0006768743A004F6C64205A204865696768FD
:1018D000743A004D3131372043414C494252415412
:1018E000494F4E204641494C45440043616C696272
:1018F000726174696F6E204661696C65640053653E
:101900007474696E672050726F62652053656E73E0
:101910006974697669747920546F3A005A2070723C
:101920006F626520284852202D2043656E746572D1
:1019300020506F696E7429206661696C6564206F40
:101940006E2073656E73697469766974793A2000E4
:1019500047363920005A3A2000593A2000583A2098
:10196000004D31313720456E6473746F70204F66BF
:1019700066736574204572726F72004F4646534518
:101980005453204F464620425920544F4F204D5526
:1019900043482E2041626F7274696E672E20536532
:1019A0006E73697469766974793A20004D31313704
:1019B0002043414C4942524154494F4E20464149EF
:1019C0004C45440043616C6962726174696F6E20BA
:1019D0004661696C65640053657474696E67205074
:1019E000726F62652053656E736974697669747984
:1019F00020546F3A005A2070726F626520285A2076
:101A0000546F77657229206661696C6564206F6E1A
:101A10002073656E73697469766974793A20004D34
:101A20003131372043414C4942524154494F4E20B5
:101A30004641494C45440043616C69627261746976
:101A40006F6E204661696C65640053657474696EDD
:101A5000672050726F62652053656E736974697692
:101A600069747920546F3A005A2070726F62652051
:101A7000285920546F77657229206661696C656406
:101A8000206F6E2073656E73697469766974793A34
:101A900020004D3131372043414C49425241544995
:101AA0004F4E204641494C45440043616C69627287
:101AB0006174696F6E204661696C6564005365747A
:101AC00074696E672050726F62652053656E73692A
:101AD00074697669747920546F3A005A2070726F75
:101AE000626520285820546F7765722920666169E5
:101AF0006C6564206F6E2073656E736974697669B6
:101B000074793A2000456E6473746F7028732920CD
:101B10006E6F7420776F726B696E672070726F7072
:101B200065726C79005A20005920005820004572D7
:101B3000726F723A20004D31313720454E44535474
:101B40004F50204552524F52004D313034205330C7
:101B50000A4D3134302053300A4D313037004D3189
:101B6000313720493243204572726F722E20416214
:101B70006F7274696E6700493243204572726F72EA
:101B8000202D2043616C6962726174696F6E20411F
:101B9000626F7274656400456E6473746F7028734D
:101BA00029206E6F7420776F726B696E6720707278
:101BB0006F7065726C79005A20005920005820001F
:101BC0004572726F723A20004D31313720454E44D4
:101BD00053544F50204552524F52006578656375FB
:101BE000746547436F6465202F2071756575654482
:101BF000656C74614D6F76652072657475726E7375
:101C0000206572726F720069697332646820616363
:101C100063656C65726F6D6574657220696E697459
:101C200069616C697A696E672E2E2E006163636547
:101C30006C65726F6D6574657220693263207265C0
:101C40006376206661696C65642E00616363656C10
:101C500065726F6D6574657220777269746520694D
:101C60003263206661696C65642E00616363656C34
:101C700065726F6D657465722073656E642069327C
:101C800063206661696C65642E0000000100250018
:101C900030001D000C001E00240031001C000B0051
:101CA000180023002F001B000A0017000D0047003A
:101CB0000300040022002B001A0041004200000033
:101CC00002003500207A3A0020793A0020783A0064
:101CD000696E20717565756544656C74614D6F76CC
:101CE0006520746F2063616C63756C617465446515
:101CF0006C74615375625365676D656E74732072A1
:101D0000657475726E73206572726F722E00432057
:101D100068697420666C6F6F720043706F7320780F
:101D200020737175617265200043706F7320782095
:101D30007374657073200043706F73207920737122
:101D400075617265200043706F732079207374652C
:101D500070732000422068697420666C6F6F720097
:101D600042706F7320782073717561726520004234
:101D7000706F732078207374657073200042706FE9
:101D800073207920737175617265200042706F73E2
:101D90002079207374657073200041206869742075
:101DA000666C6F6F720041706F732078207371756D
:101DB000617265200041706F7320782073746570C4
:101DC00073200041706F73207920737175617265A3
:101DD000200041706F732079207374657073200048
:101DE0006D6F766552656C6174697665446973746C
:101DF000616E6365496E5374657073202F20717531
:101E000065756544656C74614D6F766520726574A7
:101E100075726E73206572726F72000000000000B0
:101E2000000000000000000000000024F403D9506E
:101E3000C38EB1C2A23D96828B3582127AE3728143
:101E40006CCB66A861015DC758EB546151204E1EF2
:101E50004B5648C14559431A41013F093D2F3B713B
:101E600039CD374036C93465331432D430A32F808E
:101E70002E6B2D632C672B752A8E29B028DC27103A
:101E8000274B268F25D9242B248223E0224322AC02
:101E9000211A218D200420801F001F841E0C1E97F4
:101EA0001D261DB81C4E1CE61B821B201BC11A647C
:101EB0001A0A1AB2195D190A19B9186A181C18D128
:101EC0001788174017FA16B51673163116F115B3A1
:101ED0001576153A150015C7148F1458142214EEF0
:101EE00013BA13881356132513F612C71299126CDE
:101EF0001240121512EB11C11198117011481121E5
:101F000011FB10D610B1108D10691046102410026C
:101F100010E10FC00FA00F800F610F420F230F06BB
:101F20000FE80ECB0EAF0E930E770E5C0E410E2710
:101F30000E0D0EF30DDA0DC10DA80D900D780D608C
:101F40000D490D320D1B0D050DEF0CD90CC30CAE58
:101F50000C990C850C700C5C0C480C350C210C0E8B
:101F60000CFB0BE80BD60BC40BB20BA00B8E0B7D3E
:101F70000B6B0B5A0B4A0B390B290B180B080BF880
:101F80000AE90AD90ACA0ABB0AAC0A9D0A8E0A8063
:101F90000A710A630A550A470A390A2C0A1E0A11ED
:101FA0000A040AF709EA09DD09D009C409B709AB2F
:101FB000099F09920987097B096F09630958094C30
:101FC00009410936092B09200915090A090009F5F3
:101FD00008EB08E008D608CC08C208B808AE08A488
:101FE000089A08900887087D0874086B08610858EB
:101FF000084F0846083D0834082C0823081A081220
:102000000809080108F807F007E807E007D807D033
:1020100007C807C007B807B007A807A10700004214
:102020000FA1071605D0030D038B022E02E801B2A3
:10203000018601630145012C0117010401F4004DE3
:10204000617854656D703A004469616D65746572BC
:102050003A00416363656C65726174696F6E3A0042
:102060004D617853706565643A004A65726B3A0059
:102070004D617842656454656D703A005072696EC6
:10208000746572547970653A44656C7461005A5491
:10209000726176656C416363656C3A005954726194
:1020A00076656C416363656C3A005854726176657D
:1020B0006C416363656C3A005A5072696E74416397
:1020C00063656C3A00595072696E74416363656C64
:1020D0003A00585072696E74416363656C3A005AF5
:1020E00053697A653A005953697A653A00585369D9
:1020F0007A653A005A4D61783A00594D61783A0054
:10210000584D61783A005A4D696E3A00594D696EE2
:102110003A00584D696E3A004A65726B58593A0058
:102120005072696E746C696E6543616368653A00EC
:10213000454550524F4D3A004175746F6C65766558
:102140006C3A005A50726F62653A00436173654C95
:1021500069676874733A00537570706F72744C6F6E
:1021600063616C46696C616D656E746368616E670E
:10217000653A00537570706F727447313047313172
:102180003A005A486F6D654469723A0059486F6D5C
:10219000654469723A0058486F6D654469723A0047
:1021A000536F667477617265506F776572537769A4
:1021B0007463683A004C43443A0046616E3A0053F7
:1021C00044436172643A00486561746564426564C1
:1021D0003A004D6978696E67457874727564657206
:1021E0003A004E756D45787472756465723A0049AF
:1021F0006E7075744275666665723A004261756408
:10220000726174653A004E6F2063617365206C697A
:1022100067687473004D313134200064656C6179F6
:10222000203130306D732E00686F6D6541786973B1
:102230002000686F6D6541786973202F2071756586
:10224000756544656C74614D6F7665207265747553
:10225000726E73206572726F72005072696E74656F
:10226000723A3A736574757020006D6F7665546FBD
:102270005265616C202F20717565756544656C74BD
:10228000614D6F76652072657475726E732065722C
:10229000726F72006D6F7665546F202F20717565B7
:1022A000756544656C74614D6F76652072657475F3
:1022B000726E73206572726F72006973506F73690A
:1022C00074696F6E416C6C6F776564200000000A62
:1022D0000B02090C0D0E08070304010000000000AA
:1022E00000000000000000000000000000000000EE
:1022F00000000000000000000012111000000000AB
:1023000000000000000000000000000000000000CD
:10231000000000010210202008081020401020407A
:102320008002010201080402010102040810204099
:1023300080804020100804020180040201804020B7
:1023400010080402010804020101020408102040E0
:1023500080010204081020408005050505070508D6
:10236000080808020202020A0A0808040404040118
:10237000010101010101010303030303030303043A
:102380000707070C0C0C0C0C0C0C0C0202020206CA
:10239000060606060606060B0B0B0B0B0B0B0B00BB
:1023A0000020002300260029002C002F003200000E
:1023B0000100000301060109010000220025002898
:1023C000002B002E0031003400020100000501083E
:1023D000010B0100002100240027002A002D0030FD
:1023E00000330001010000040107010A014E414EC3
:1023F000494E495459494E46CDCCCC3D0AD7233C91
:1024000017B7D13877CC2B329595E6241FB14F0AF8
:10241000000020410000C84200401C4620BCBE4CC9
:10242000CA1B0E5AAEC59D7467828CA559A811248B
:102430001FBECFEFD1E2DEBFCDBF00E00CBF13E087
:10244000A0E0B2E0ECEEFBE601E00BBF02C00790BB
:102450000D92AC31B107D9F729E1ACE1B3E001C08D
:102460001D92A53CB207E1F714E2CEE2D4E200E00F
:1024700006C022970109FE010BBF0E94CCB1C832F1
:10248000D10780E00807A9F70E941EAD0C94F4B5AF
:102490000C940000682F89EA95E10C94337E8DE05E
:1024A000F9DF8AE0F7CFCF93DF93FC018491EF014E
:1024B0002196882319F0EEDFFE01F8CFDF91CF914E
:1024C0000895CF93DF93EC0185E29DE0ECDFCE0130
:1024D000DF91CF91E8CFE7DFE2CFCF93DF93EC013D
:1024E0008AE192E0E0DFCE01DF91CF91F4CFCF938C
:1024F000DF93EC0185E29DE0D6DFCE01DF91CF9145
:10250000EACFCF93DF93EC018EE29DE0CCDFCE01EA
:10251000DF91CF91E0CFCF93DF93EC0184E39DE097
:10252000C2DFCE01DF91CF91D6CFCF93DF93EC0105
:102530008991882311F0AEDFFBCFDF91CF91089511
:10254000BF92CF92DF92EF92FF920F931F93CF93A0
:10255000DF93CDB7DEB72B970FB6F894DEBF0FBE73
:10256000CDBFB62E1B868E01055F1F4F2AE0C22EFF
:10257000D12CE12CF12C6B2DA70196010E945DB1AD
:1025800080E38B0D9AE0299F80191124F801829332
:102590008F01211531054105510521F0B22E732F10
:1025A000CA01E9CFCF01C1DF2B960FB6F894DEBF89
:1025B0000FBECDBFDF91CF911F910F91FF90EF9094
:1025C000DF90CF90BF900895CF93DF9300D01F92FC
:1025D000CDB7DEB749835A836B837C8364DF49813F
:1025E0005A816B817C81CB01BA010F900F900F90C3
:1025F0000F90DF91CF91A4CFCF93DF9300D01F92A4
:10260000CDB7DEB749835A836B837C834CDF498126
:102610005A816B817C81CB01BA0192DF0F900F90C0
:102620000F900F90DF91CF913ACFCF92DF92EF9240
:10263000FF926B017C0197FF0AC08DE22BDFF094C3
:10264000E094D094C094C11CD11CE11CF11CC701C2
:10265000B601FF90EF90DF90CF9072CFCF93DF93D2
:10266000EB0121DFBE01882777FD8095982FDF9150
:10267000CF91DBCFCF93DF93EB0115DFBE0188272E
:1026800077FD8095982FD1DFDF91CF9108CF0F9301
:102690001F93CF93DF931F921F92CDB7DEB78C01AC
:1026A0008AE192E069837A83FEDE69817A81C801DA
:1026B0000F900F90DF91CF911F910F91DBCFCF93B0
:1026C000DF9300D01F92CDB7DEB749835A836B8367
:1026D0007C83E9DE49815A816B817C81CB01BA011F
:1026E0000F900F900F900F90DF91CF919ECFCF93CF
:1026F000DF9300D01F92CDB7DEB749835A836B8337
:102700007C83D1DE49815A816B817C81CB01BA0106
:102710008CDF0F900F900F900F90DF91CF91BFCE75
:102720000F931F93CF93DF9300D01F92CDB7DEB7E7
:102730008C018AE192E049835A836B837C83B3DE08
:1027400049815A816B817C81C8010F900F900F9055
:102750000F90DF91CF911F910F91C9CF8F929F92D0
:10276000AF92BF92CF92DF92EF92FF92CF936B0125
:102770007C01C42F9B01AC010E940BB1882319F08E
:102780008FE39DE01AC046015701E894B7F82FEF98
:102790003FEF4FE75FE7C501B4010E940BB1811124
:1027A00016C02FEF3FEF4FE75FE7C501B4010E946E
:1027B000B8AD181664F48BE39DE0CF91FF90EF90D5
:1027C000DF90CF90BF90AF909F908F906CCE20E025
:1027D00030E0A901C701B6010E94B8AD87FF06C06D
:1027E0008DE258DEF7FAF094F7F8F094B12C60E03F
:1027F00070E080E09FE3BC1641F020E030E040E272
:1028000051E40E94BFADB394F6CF9B01AC01C70168
:10281000B6010E9454AD6B017C010E945DAE4B017C
:102820005C010E9489AE9B01AC01C701B6010E9408
:1028300053AD6B017C01C501B40182DECC2311F0E4
:102840008EE228DECC2311F120E030E040E251E4BA
:10285000C701B6010E9460B06B017C010E9458AEB6
:102860004B01AA2497FCA094BA2CC501B401DDDE6B
:10287000C501B4010E948BAE9B01AC01C701B6013A
:102880000E9453AD6B017C01C150DCCFCF91FF9012
:10289000EF90DF90CF90BF90AF909F908F90089572
:1028A000CF92DF92EF92FF92CF93DF931F92CDB73B
:1028B000DEB76A017B012983F6DD2981422FC7013A
:1028C000B6014CDF0F90DF91CF91FF90EF90DF903A
:1028D000CF90E5CD0F931F93CF93DF9300D01F923E
:1028E0001F92CDB7DEB78C018AE192E02D83498338
:1028F0005A836B837C83D7DD2D8149815A816B811B
:102900007C81C8010F900F900F900F900F90DF9176
:10291000CF911F910F91C4CFCF92DF92EF92FF9290
:10292000CF93DF931F92CDB7DEB76A017B01298376
:10293000BADD2981422FC701B6010F90DF91CF91F7
:10294000FF90EF90DF90CF9009CFCF92DF92FF9270
:102950000F931F93CF93DF931F921F92CDB7DEB7D4
:10296000042FF22E69837A839EDD6981C62E7A81D7
:10297000D72E10E0101761F0F6014191519161914D
:1029800071916F012F2D8FEC9BE0C6DF1F5FF2CF9F
:102990000F900F90DF91CF911F910F91FF90DF90DB
:1029A000CF907DCDCF93DF93FC01E05CFF4F208182
:1029B00021FD1FC0DB014D915D916D917C91DC018A
:1029C000AF5BBF4F4D935D936D937C931397EC0179
:1029D000CB5BDF4FDC0117964D915D916D917C9142
:1029E0001A97488359836A837B83822F897F826009
:1029F0008083DF91CF9108959F92AF92BF92CF9243
:102A0000DF92EF92FF920F931F93CF93DF93EC012E
:102A10005B018C01005C1F4FF801908092FC32C07A
:102A2000CB84DC84ED84FE84A70196016F817885D8
:102A300089859A850E9453AD9F7720E030E040E879
:102A40005FE30E9454AD20E030E040EA51E40E9490
:102A5000ECAF1816BCF0F50180819181A281B381A1
:102A6000FE01EF5BFF4F80839183A283B383CB5B37
:102A7000DF4FC882D982EA82FB82892D897F8460F8
:102A8000F8018083DF91CF911F910F91FF90EF901C
:102A9000DF90CF90BF90AF909F900895809168187D
:102AA000846080936818089508952F923F924F9202
:102AB0005F926F927F928F929F92AF92BF92CF92CE
:102AC000DF92EF92FF920F931F93CF93DF93CDB7D7
:102AD000DEB764970FB6F894DEBF0FBECDBF382EB9
:102AE000292E7A8769875A834983098B1A8B2B8B06
:102AF0003C8B4AA45BA46CA47DA423E333E948E89F
:102B000053E4C501B4010E9454AD6D837E838F836D
:102B1000988720E030E0A901C301B2010E94B8AD5E
:102B2000882359F12EA53FA548A959A9C301B2018F
:102B30000E9454AD4B015C0120E030E040EA50E4DB
:102B4000C301B2010E9460B0A50194010E94BFAD13
:102B50006D877E878F87988BA30192016EA57FA5D5
:102B600088A999A90E9460B0A50194010E94BFADF7
:102B70006EA77FA788AB99AB08C080E090E0A0EA81
:102B8000B0E48D879E87AF87B88B2D813E814F81C2
:102B9000588569897A898B899C8990580E94BFAD34
:102BA0000E942CAE9B01AC01C701B6010E9460B02F
:102BB0006D837E838F83988769817A81A985BA85A1
:102BC0006A1B7B0B882777FD8095982F0E948BAE20
:102BD00020E030E040E05DE30E9460B069877A87E2
:102BE0008B879C87032D122D212C312C89819A8172
:102BF000AA2797FDA095BA2F89839A83AB83BC83BC
:102C0000A89569817A818B819C810E948BAE6B0132
:102C10007C01B101882777FD8095982F0E948BAEAB
:102C200029853A854B855C850E9460B09B01AC018B
:102C3000C701B6010E9453AD6B017C0123E333E56C
:102C400048E853E40E9454AD9B01AC0169897A893C
:102C50008B899C890E94BFAD0E942CAE2D813E8144
:102C60004F8158850E9460B04B015C0120E030EC40
:102C70004FE755E40E9460B02D853E854F85588909
:102C80000E9460B02B013C01A50194016EA57FA5B7
:102C900088A999A90E9454AD20E030E040EA50E4B0
:102CA0000E9460B09B01AC01C301B2010E94BFADA4
:102CB0000E9458AE6D3F9FE0790714F06CEF7FE003
:102CC000D8016D937C9320E030E040E051E4C701EF
:102CD000B6010E9460B00E9458AEF801738362830F
:102CE000FFEF2F1A3F0A0C5F1F4F81E228163104B5
:102CF00009F086CF64960FB6F894DEBF0FBECDBF45
:102D0000DF91CF911F910F91FF90EF90DF90CF90C7
:102D1000BF90AF909F908F907F906F905F904F90FB
:102D20003F902F9008957F928F929F92AF92BF9283
:102D3000CF92DF92EF92FF920F931F93CF93DF9387
:102D400088E092E090931D0380931C0385E4782E25
:102D50007F92D2E9DF93C0EECF931F921F921F9212
:102D60001F921F92812C912C98ECA92E91E4B92EE0
:102D7000C12C20E5D22E23ECE22E27E4F22E00E037
:102D800010E12BE835E44CE251E06EEC7FEF83EA92
:102D900093E08BDE7F92DF93CF931F921F921F925F
:102DA0001F921F9200E018E728E835E44CE251E05A
:102DB0006CEE7FEF8FE193E078DE80910A01806412
:102DC00080930A013B9A809115022DB73EB7205F90
:102DD0003F4F0FB6F8943EBF0FBE2DBF87FD0CC00E
:102DE00061E00E9486AC80911602811105C061E00D
:102DF000809115020E94BFAC0E9473AB60934202A7
:102E00007093430280934402909345029D9AA59843
:102E1000DF91CF911F910F91FF90EF90DF90CF90B6
:102E2000BF90AF909F908F907F900C94557FCF92E2
:102E3000DF92EF92FF92CF93DF93EC018B89813089
:102E4000A9F5CE8CDF8CE8A0F9A020E030E0A90144
:102E5000C701B6010E94B8AD882341F1688D70E0CA
:102E600080E090E00E9489AE20E030E040E251E452
:102E70000E9460B0A70196010E94BFAD6FA378A722
:102E800089A79AA7698D70E080E090E00E9489AEE2
:102E900020E030E040E251E40E9460B0A7019601DA
:102EA0000E94BFAD6BA77CA78DA79EA7DF91CF9196
:102EB000FF90EF90DF90CF9008954F925F926F92C6
:102EC0007F92AF92BF92CF92DF92EF92FF920F93D9
:102ED0001F93CF93DF93CDB7DEB72C970FB6F8943F
:102EE000DEBF0FBECDBF8091A9189091AA18A09106
:102EF000AB18B091AC18E0911C03F0911D03838FC7
:102F0000948FA58FB68F28E032E030931D03209375
:102F10001C038093811890938218A0938318B09318
:102F20008418409011025090120260901302709029
:102F300014024092F3025092F4026092F5027092F1
:102F4000F602A301920160E070E080E89FE30E9436
:102F5000BFAD6093ED187093EE188093EF189093C7
:102F6000F018C0901702D0901802E0901902F0906B
:102F70001A02C092E302D092E402E092E502F092DB
:102F8000E60260911B0270911C0280911D029091DB
:102F90001E026093B7027093B8028093B9029093B7
:102FA000BA026093C7027093C8028093C9029093DB
:102FB000CA02A30192010E9460B00E945DAE6093BC
:102FC000DD187093DE188093DF189093E0186093FB
:102FD000CD187093CE188093CF189093D01820916D
:102FE0001F02309120024091210250912202C30120
:102FF000B2010E9460B09B01AC0160E074E284E722
:1030000098E40E94BFAD0E94C6AE0E945DAE162F2E
:103010006093F518A3019201C701B6010E9460B048
:103020009B01AC0160E074E284E798E40E94BFADCC
:103030000E94C6AE0E945DAE603118F46093F41831
:1030400003C08FE08093F4188091F418811710F07A
:103050001093F4186091F41870E080E090E00E9402
:1030600089AEA30192010E9460B09B01AC0160E0B7
:1030700074E284E798E40E94BFAD2B013C01A701F4
:1030800096010E94B8AD87FF08C04092E3025092BB
:10309000E4026092E5027092E60283E392E0C7DE0A
:1030A0002091911830919218409193185091941852
:1030B0002D833E834F8358874090951850909618E3
:1030C00060909718709098188091991890919A181C
:1030D000A0919B18B0919C1889879A87AB87BC8771
:1030E0002091A3173091A4174091A5175091A617CE
:1030F00029833A834B835C83E0901C03F0901D038B
:10310000F70181819281A381B4819C01AD01662781
:103110007727CB01621B730B840B950B0E948BAE40
:103120002091E1183091E2184091E3185091E41891
:103130000E9460B0609397177093981780939917C7
:1031400090939A17F70185819681A781B0859C019C
:10315000AD0166277727CB01621B730B840B950BA0
:103160000E948BAE2091E5183091E6184091E71847
:103170005091E8180E9460B0609393177093941771
:10318000809395179093961780919F179091A01711
:103190000E94EF328091671880FF24C08091CE0298
:1031A0008F938091CD028F938091CC028F938091E9
:1031B000CB028F9330EFA32E33E2B32E34E7C32E2E
:1031C00039E4D32EE984FA840B851C85A30192018E
:1031D0006D817E818F8198850E9486930F900F90DC
:1031E0000F900F9089819A81AB81BC818093A31746
:1031F0009093A417A093A517B093A61780E00E9400
:1032000043962C960FB6F894DEBF0FBECDBFDF916C
:10321000CF911F910F91FF90EF90DF90CF90BF90D3
:10322000AF907F906F905F904F900C943281089593
:10323000E0911C03F0911D03858587FD06C061E0C8
:103240009685911160E00C94BFAC089580911502B1
:1032500087FD07C061E090911602911160E00C9427
:10326000BFAC08952F923F924F925F926F927F92E0
:103270008F929F92AF92BF92CF92DF92EF92FF9286
:103280000F931F93CF93DF9300D01F92CDB7DEB77C
:103290009C838B83DC011196EC91E53338F4E233A7
:1032A00048F5EE2369F0ED3090F50DC0E43628F4D2
:1032B000E13648F4EC33F1F02AC0E436D9F027C007
:1032C00049E150E026C0AB81BC8112968C91A82FB9
:1032D000B0E0AA0FBB1FA95DBB4F4D915C918CEF75
:1032E0009FE0841B950BAB81BC8114969C938E93BD
:1032F000139715C0AB81BC8112968C91A82FB0E0BA
:10330000AA0FBB1FA95DBB4F4D915C9102C04FEF4F
:103310005FE0AB81BC8114965C934E931397AB81B5
:10332000BC8113960D911C911497E53338F5E23367
:1033300008F0A0C0EE2309F450C0ED3008F081C1C0
:10334000E1508E2F90E0FC01EB5BF14F4491440F74
:10335000FC01EE0FFF1FEF5AF14F85919491FC0194
:1033600085909490FC013296A590B4907CEF672EE6
:103370007FE0772E601A710A52E03CC0E436C0F458
:10338000E13608F0DBC0EC3309F05BC1B8018827F7
:1033900077FD8095982F0E948BAE20E030E04AE7C1
:1033A00054E40E9460B020E030E040E859E325C1D9
:1033B000E43609F046C1B801882777FD8095982F3B
:1033C0000E948BAE20E030E04AEF53E40E9460B0F0
:1033D00020E030E040E859E32CC180E090E0A8EC28
:1033E000B1E4EB81FC8187839087A187B28729C1F3
:1033F00051014801541708F011C1FC01E50FF11DFE
:10340000E50FF11D05911491FC0161E0650FE60FD8
:10341000F11D5E5FE60FF11D259034906016710678
:103420003CF7B501882777FD8095982F0E948BAED9
:103430006B017C01B30168197909882777FD8095B4
:10344000982F0E948BAE2B013C01B1016A197B09B8
:10345000882777FD8095982F0E948BAE9B01AC0149
:10346000C301B2010E9460B02B013C01B801681990
:103470007909ADC0EE528E2F90E0FC01EB5BF14F6D
:103480006491660FFC01EE0FFF1FEF5AF14F85911B
:103490009491FC0125903490FC0132968590949093
:1034A00072E0761708F044C0FC01E70FF11DE70F4A
:1034B000F11DA590B490FC0121E0270FE20FF11D52
:1034C0007E5FE20FF11D259134910A151B056CF505
:1034D000B401882777FD8095982F29833A830E942D
:1034E0008BAE6B017C01B80162197309882777FDE7
:1034F0008095982F0E948BAE2B013C0129813A8147
:10350000B90168197909882777FD8095982F0E945D
:103510008BAE9B01AC01C301B2010E9460B02B01D4
:103520003C01B5016219730952C049011501B9CFB7
:10353000B901882777FD8095982F75C0E23639F05C
:10354000A090A303B090A403E3EAF3E006C0A09028
:103550001F03B0902003EFE1F3E0828093804CEFF3
:10356000642E4FE0742E601A710A82E00481158186
:103570008E5F26803780601671060CF049C0B4015A
:10358000882777FD8095982F0E948BAE6B017C0178
:10359000B3016A197B09882777FD8095982F0E94CF
:1035A0008BAE2B013C01B10168197909882777FDA1
:1035B0008095982F0E948BAE9B01AC01C301B20194
:1035C0000E9460B02B013C01B8016A197B09882771
:1035D00077FD8095982F0E948BAE9B01AC01C301B3
:1035E000B2010E94BFAD9B01AC01C701B6010E94B0
:1035F00054AD20E030E040E05EE30E9460B0AB817B
:10360000BC8117966D937D938D939C931A9719C0E7
:103610003496823419F041015801A8CFB1018827AE
:1036200077FD8095982F0E948BAE20E030E040E03F
:103630005EE30E9460B0EB81FC81678370878187C5
:1036400092870F900F900F900F90DF91CF911F9165
:103650000F91FF90EF90DF90CF90BF90AF909F9031
:103660008F907F906F905F904F903F902F90089534
:103670008F929F92AF92BF92CF92DF92EF92FF9282
:103680000F931F93CF93DF93EC01CB01BA016B87AC
:103690007C878D879E87FE01E05CFF4F2081297F1C
:1036A000208320E030E040E051E40E9460B00E94BE
:1036B00058AE4B012981253318F5223308F08AC012
:1036C000222309F448C02D3008F019C1215030E000
:1036D000F901EB5BF14FB490BB0CF901EE0FFF1F4A
:1036E000EF5AF14F25913491F901E590F490F901E9
:1036F000329645915491C12CD12CB2E0AB2E30C002
:103700002436B0F4213608F0B4C02C3309F0F7C0E9
:10371000882777FD8095982F2CE0660F771F881FEC
:10372000991F2A95D1F728EE33E040E050E09CC085
:10373000243609F0E4C0882777FD8095982F0CE0A7
:10374000660F771F881F991F0A95D1F724EF31E084
:1037500040E050E089C01E821D82D1C0A8017D01D9
:10376000AB1498F5F901EA0DF11DEA0DF11DA591D3
:10377000B4916D01F90111E01A0DE10FF11DA3944F
:10378000A394E10FF11D059114910815190534F763
:103790009A01261B370BC7018A1B9B0BDC016CEFC0
:1037A000C62E6FE0D62ECE18DF080E94A1B19A0176
:1037B000201B310B442737FD4095542F0E947FB1C9
:1037C000C20ED31EDE82CD829AC08CEF9FE08C1990
:1037D0009D0993C02E5230E0F901EB5BF14FA491AB
:1037E000AA0FF901EE0FFF1FEF5AF14F2591349107
:1037F000F90105911491F901329645915491C12C2A
:10380000D12CB2E0BA1768F5F901EB0FF11DEB0FFF
:10381000F11DA590B4906501F901FF24F394FB0E0E
:10382000EF0DF11DBE5FEF0DF11DE590F4908E14CC
:103830009F04A4F49A01261B370BD801AA19BB09CF
:103840000E94A1B19A012E193F09442737FD4095E6
:10385000542F0E947FB1200F311F08C0A70185019E
:10386000D1CFCD82DE824BC00E947FB13E832D83BB
:1038700046C0223639F0E090A303F090A403A3EAF7
:10388000B3E006C0E0901F03F0902003AFE1B3E087
:1038900012964D915C91139722E014960D911C9114
:1038A00015972E5F1696ED91FC911797E815F9057F
:1038B000D4F49A01261B370BD701A01BB10B0CEFD8
:1038C0001FE00E191F090E94A1B19A012E1B3F0B88
:1038D000442737FD4095542F0E947FB1020F131FDC
:1038E0001E830D830CC01496223419F0AF017801A9
:1038F000D4CF8CEF9FE0801B910B9E838D83DF9153
:10390000CF911F910F91FF90EF90DF90CF90BF90DC
:10391000AF909F908F9008959F92AF92BF92CF9259
:10392000DF92EF92FF920F931F93CF93DF936B0180
:103930007C01042F922EE0910602F0910702C1E073
:1039400020E030E040E751E4638574858585968505
:103950000E94ECAF18160CF0C0E011E01C2720E02C
:1039600030E040E753E4C701B6010E94ECAF1816FF
:103970006CF020E030E0A901C701B6010E94B8ADAB
:1039800087FF0AC0C12CD12C760106C0C12CD12CD6
:1039900090E7E92E93E4F92EC02FD0E0FE01EE0F60
:1039A000FF1FEA5FFD4FA080B180F5018181811189
:1039B00003C0C12CD12C7601B701A601C50158DE88
:1039C000992081F020E030E040EF51E4C701B601DA
:1039D0000E94ECAF181634F4F501E05CFF4F8081D3
:1039E0008160808320E030E040E252E4C701B6010C
:1039F0000E94ECAF87FD0EC023E82C9FC0012D9FD5
:103A0000900D1124885F9D4FFC01E458FF4F2081E9
:103A100031962083602F70E080E090E00E9489AEB4
:103A2000AB01BC0120E08EE39AE00E948C1420E000
:103A3000B701A60185E39CE00E945014E0910602C4
:103A4000F091070220E030E040E751E4638574859F
:103A5000858596850E94ECAF18167CF0111119C06F
:103A6000DF91CF911F910F91FF90EF90DF90CF905A
:103A7000BF90AF909F900C94392E112351F00E946B
:103A800073AB60938D1770938E1780938F179093FD
:103A90009017DF91CF911F910F91FF90EF90DF90E2
:103AA000CF90BF90AF909F900895E0910602F09163
:103AB0000702168215821386148615861686E08103
:103AC000F0E0EB56FA4E10828FEF80938B02089550
:103AD0002F923F924F925F926F927F928F929F921E
:103AE000AF92BF92CF92DF92EF92FF920F931F930C
:103AF000CF93DF93CDB7DEB7E5970FB6F894DEBF6F
:103B00000FBECDBF9DAB8CAB4E8B5F8B688F798F1B
:103B10002E8F0BAB0E9473AB6A8F7B8F8C8F9D8F28
:103B2000ACA9BDA996968C9190E0959587952C01AE
:103B3000662457FC6094762C8BE29AE00E948112F6
:103B4000B4DFBE8DB0938B02ACA9BDA9EC91F0E0BF
:103B5000EB56FA4E96968C918083BE8DB11104C0BF
:103B60008091840280938502530142012A8D3B8D0E
:103B70004C8D5D8D2BA33CA34DA35EA32F8F38A34B
:103B800049A35AA319821F8630EA388B41E4498B36
:103B90001A8A1B8A50EA5C8B81E48D8B1BA61CA6BB
:103BA0001DA61EA61FA218A619A61AA6C12CD12CA6
:103BB00076011FA618AA19AA1AAA91E099871E864B
:103BC0001D86A8958CA99DA94DDBACA9BDA917960A
:103BD0003C90179718960C91189719961C91199765
:103BE0001A962C900E9473AB6D837E838F83988787
:103BF000232D302F412F522D6A897B898C899D89F5
:103C00000E94B8AD87FF04C03A8A0B8B1C8B2D8AAB
:103C1000232D302F412F522D69817F8588899989E5
:103C20000E94B8AD87FD04C039820F87188B298A9E
:103C3000B985BB2309F449C02E893F89488D598D28
:103C4000632D702F812F922D0E94ECAF18160CF06F
:103C500086C08D819E81AF81B8852BA13CA14DA1ED
:103C60005EA1821B930BA40BB50B3E8D311105C0D9
:103C700044EC59E060E070E004C04CED55E060E0D9
:103C800070E0481759076A077B0708F068C0ECA97D
:103C9000FDA92081E22FF0E0EB56FA4E242D2819E1
:103CA00020838FA798ABA9ABBAABFE89FA8B2F897B
:103CB0002B8B388D3C8B498D4D8B8D819E81AF81B7
:103CC000B8858F8F98A3A9A3BAA32E893F89488D61
:103CD000598D632D702F812F922D0E94B8AD87FFD3
:103CE00007C28D819E81AF81B8852F8D38A149A1F2
:103CF0005AA1821B930BA40BB50B3E8D3111E5C06D
:103D000048E853E160E070E0481759076A077B070D
:103D100008F0EEC14D855E85452B09F0DBC0ACA9EE
:103D2000BDA9EC91F0E0EB56FA4E882D840D80830E
:103D3000ED85FE853196FE87ED87FE89F9832F8913
:103D40002F87388D388B498D498B8D819E81AF812E
:103D5000B8858BA39CA3ADA3BEA391E0998720E077
:103D600030E040E252E46E897F89888D998D0E940F
:103D700054AD9B01AC01632D702F812F922D0E94B9
:103D8000ECAF18161CF48CEB99E03BC08D819E8142
:103D9000AF81B8852A8D3B8D4C8D5D8D821B930B39
:103DA000A40BB50B893E9340A105B10558F080E006
:103DB0000E9411378D819E81AF81B8858A8F9B8F3C
:103DC000AC8FBD8F8D819E81AF81B885880F991F83
:103DD000AA1FBB1F2BA13CA14DA15EA1821B930B6F
:103DE000A40BB50B2F8D38A149A15AA1821B930BAF
:103DF000A40BB50B81389F44A241B105E8F08FE9CF
:103E000099E00E948B12E5960FB6F894DEBF0FBEC4
:103E1000CDBFDF91CF911F910F91FF90EF90DF9079
:103E2000CF90BF90AF909F908F907F906F905F905A
:103E30004F903F902F9039CE4D855E85463051058D
:103E40000CF4BFCE84E499E00E9481122EDE5BA9BF
:103E5000552309F44FC1ACA9BDA95A96CD92DD9264
:103E6000ED92FC925D972FA138A549A55AA55E96C3
:103E70002D933D934D935C9391972BA53CA54DA518
:103E80005EA592962D933D934D935C93959781E01B
:103E900053968C9380E0E5960FB6F894DEBF0FBE84
:103EA000CDBFDF91CF911F910F91FF90EF90DF90E9
:103EB000CF90BF90AF909F908F907F906F905F90CA
:103EC0004F903F902F900C948C2748EB5BE060E084
:103ED00070E01ACF2FA538A949A95AA9280F391F70
:103EE0004A1F5B1F29873A874B875C872FA538A914
:103EF00049A95AA9281B390B4A0B5B0BCA01B90106
:103F0000A50194010E9427B129853A854B855C85DE
:103F10000E947FB1240D351D461D571D24313105EA
:103F200041055105A4F0ACA9BDA996968C9190E0ED
:103F30004497AA2797FDA095BA2F29013A01821725
:103F40009307A407B50744F42C013D0105C034E1F3
:103F5000432E512C612C712CECA9FDA926A1822F96
:103F6000869590E0A0E0B0E084159505A605B7051C
:103F70006CF4822F90E001974C01AA2497FCA09446
:103F8000BA2C84189508A608B70802C0530142014C
:103F9000B301A20183E29AE00E945F13B501A4017C
:103FA0008EE19AE00E945F1322E049815F85688973
:103FB000798987E19AE00E948C1422E04A895B8922
:103FC0006C897D8980E19AE00E9450142D853E85A0
:103FD000233031050CF4A3CEC501B4010E948BAE91
:103FE00020E030E040E850E40E9460B06B017C01CA
:103FF00029813F85488959896A897B898C899D896E
:104000000E9453AD20ED3FE049E450E40E9460B0CF
:104010009B01AC01C701B6010E94BFAD6B017C01E1
:1040200069857A858B859C850E948BAE20E030E087
:104030004AE754E40E94BFAD69837A838B839C83F3
:1040400022E0B701A6018AE09AE00E948C1422E0E7
:1040500049815A816B817C8184E09AE00E945014EE
:104060002AE939E949E15FE3C701B6010E9460B07E
:104070006B017C019B01AC010E9454AD29813A8106
:104080004B815C810E94BFAD6FA378A789A79AA7D7
:1040900029813A814B815C81C701B6010E9460B0E1
:1040A00020E030E040E05EE30E9460B06BA77CA7B8
:1040B0008DA79EA787EF99E00E946B1222E0B701BF
:1040C000A60181EF99E00E94501422E04FA158A56B
:1040D00069A57AA58BEE99E00E94501422E04BA5C9
:1040E0005CA56DA57EA585EE99E00E94501417CEC3
:1040F000198635CEE5960FB6F894DEBF0FBECDBF5C
:10410000DF91CF911F910F91FF90EF90DF90CF90B3
:10411000BF90AF909F908F907F906F905F904F90E7
:104120003F902F900895CF93DF930E9473ABAB0124
:10413000BC018DE399E00E945F13E0918D02F0E0F5
:10414000EE0FFF1FEA5FFD4FC081D1814F8158857F
:1041500069857A8522E08FEC9BE00E948C144B8568
:104160005C856D857E8520E08FEC9BE00E948C1441
:10417000E881F0E0EB56FA4E608170E08FEC9BE056
:10418000DF91CF910C943A138091681882FF22C07E
:1041900060E070E083E399E00E942E13E091060254
:1041A000F091070267817085818592850E9458AEE3
:1041B000605171096D31714018F08EE199E002C0D3
:1041C00084E199E00E946B1287EE98E00E948B12C6
:1041D00081E0089580E008952F923F924F925F9280
:1041E0006F927F928F929F92AF92BF92CF92DF9207
:1041F000EF92FF920F931F93CF93DF9300D01F9204
:104200001F92CDB7DEB7A8950E9473AB69837A83FE
:104210008B839C83009106021091070220E030E01E
:1042200040E252E4D80117966D917D918D919C9159
:104230001A970E94B8AD87FF10C020E030E040E23E
:1042400052E4F80163857485858596850E94B8AD32
:1042500087FF03C01092850204C08091840280937E
:10426000850280918B02811109C080911E038823F1
:1042700009F46FC2815080931E036BC2C8010E9473
:1042800032198091681882FD1CC0D8011796CD9014
:10429000DD90ED90FC901A9720E030E040E851E48A
:1042A000C701B6010E94B8AD87FD66C220E030E0CC
:1042B00046E953E4C701B6010E94ECAF18160CF4AE
:1042C0005BC2812C8091681882FD40C2FF24F39468
:1042D000F8012385348545855685678170858185FC
:1042E00092850E94ECAF87FDF12C992493949F2432
:1042F00041F47801F0E4EF0EF11CD7018C9180FDC0
:1043000048C2C980DA80EB80FC80F801E75BFF4F90
:1043100040805180628073805801B1E4AB0EB11CC3
:10432000F50180819181A281B381A7019601281BAB
:10433000390B4A0B5B0B421653066406750698F55B
:10434000180130E4230E311CD101BC91BD838B2FA9
:10435000867049F18091671886FF25C0FD81F1FFC5
:1043600056C27801E5E4EE0EF11CD7012D913D9186
:104370004D915C91F80167817085818592850E94DD
:1043800053AD20E030E040E85FE30E94B8AD87FD28
:1043900009C28D81897FD1018C93BE016F5F7F4FF0
:1043A000C8010E94D214D8019F968C919F971796AE
:1043B000CD90DD90ED90FC901A97F801B4E08B9FC2
:1043C000E00DF11D1124C0AAD1AAE2AAF3AA8F5FC1
:1043D0008370F80187A78389813009F0BCC04384CA
:1043E00054846584768420E030E040EA51E4C301DF
:1043F000B2010E94B8AD87FDC0C0A7019601C301FC
:10440000B2010E9453AD6B017C0120E030E040EA34
:1044100051E40E94ECAF18160CF4C6C020E030E066
:1044200040EA51ECC701B6010E94B8AD87FDD0C08B
:10443000BE016F5F7F4FC8010E94FC14F801228DFE
:10444000338D448D558DC701B6010E9460B02B019C
:104450003C01D80154962D913D914D915C91579717
:10446000C701B6010E9454AD6B017C01F80123A481
:1044700034A4A5A4B6A49101A5010E94B8AD87FDFE
:1044800016C0D80197962C90979798963C9098973D
:104490009996AC9099979A96BC909101A501B60116
:1044A000C7010E94ECAF181614F016015701C101A4
:1044B000D501F801848B958BA68BB78B268D378D14
:1044C00040A151A1B101C5010E9460B02DEC3CECAE
:1044D0004CEC5DE30E9460B09B01AC01C301B201F2
:1044E0000E9454AD6B017C01D8019F968C91F8011C
:1044F000B4E08B9FE00DF11D1124D80117962D918A
:104500003D914D915C911A9760A971A982A993A9D7
:104510000E9453ADF80122A133A144A155A10E94EC
:1045200060B02FED3FE445E550E40E9460B09B0190
:10453000AC01C701B6010E9454AD0E9458AE77FD90
:1045400047C0D80196962C9130E0261737070CF417
:10455000B901F62E98C0833009F09CC0F80143845D
:1045600054846584768420E030E040EA51E4C3015D
:10457000B2010E94B8AD87FF07C0F801E05CFF4FB1
:104580008081897F808324C0A7019601C301B20185
:104590000E9453AD6B017C0120E030E040EA51E421
:1045A0000E94ECAF181654F4D8019696FC90BE0108
:1045B0006F5F7F4FC8010E94D21465C020E030E0D9
:1045C00040EA51ECC701B6010E94B8AD87FF02C0B6
:1045D000F12C59C0BE016F5F7F4FC8010E94FC14CF
:1045E000F801C780D084E184F28420E030E040E428
:1045F00050E464897589868997890E9460B02B018F
:104600003C01D8019F968C91F801B4E08B9FE00D9E
:10461000F11D112420A931A942A953A9C701B6014E
:104620000E9453AD2FED3FE445E550E40E9460B099
:104630009B01AC01C301B2010E9454AD20E030E007
:1046400040E85EE30E9460B0F801648B758B868B56
:10465000978B228D338D448D558D0E9460B09B01C8
:10466000AC01C701B6010E9454ADD8011B962D9133
:104670003D914D915C911E970E94ECAF18160CF481
:10468000A7CFF801F08CD801EC91F0E0EB56FA4E90
:10469000F0823CC0823021F589819A81AB81BC8156
:1046A000F80147855089618972896C017D01C41ABE
:1046B000D50AE60AF70A29E8C21623E1D206E10480
:1046C000F10420F12081E22FF0E0EB56FA4E292D83
:1046D00021952083F8018787908BA18BB28B07C02F
:1046E000E081F0E0EB56FA4E892D81958083992088
:1046F00039F0BE016F5F7F4FC8010E94D21406C01F
:10470000F801E05CFF4F8081897F808320E030E00A
:1047100040E753E4F80167817085818592850E94A6
:10472000ECAF181634F4D801EC91F0E0EB56FA4EE9
:10473000108280911C0390911D038B960817190716
:1047400029F4992011F02F9A01C02F98882009F49C
:104750008CCD8091681882FFAAC0E0910602F0918A
:104760000702E081F0E0EB56FA4E10828091AA0237
:1047700088608093AA029BC080911E038F5F809304
:104780001E038B3018F00E944E15FEDC88248394A3
:1047900099CD63E082E30E94AB82F70180818E7F36
:1047A0008083AFCD80911E038F5F80931E038B307B
:1047B00008F46AC00E944E1582E292E00E948B12B9
:1047C000D7012D913D914D915C91F80167817085E4
:1047D000818592850E9453ADAB01BC0122E085ED3D
:1047E0009DE00E948C1449815A816B817C81F50186
:1047F00080819181A281B381481B590B6A0B7B0B8D
:104800008DEC9DE00E945F1389EC9DE03BC0F801B8
:104810002385348545855685678170858185928598
:104820000E9453AD9F7720E030E040EA51E40E94BF
:10483000ECAF181664F580911E038F5F80931E0302
:104840008B3010F10E944E1582E292E00E948B1292
:10485000F801EB5BFF4F408151816281738122E05F
:1048600087EA9DE00E948C14D80117964D915D91C6
:104870006D917C911A9722E08CE99DE00E948C1446
:1048800084E99DE00E946B12882483948CCDB8EE5D
:10489000CB0EB3E0DB1EE11CF11CC418D508E60802
:1048A000F708F501C082D182E282F3827CCD0F90BD
:1048B0000F900F900F900F90DF91CF911F910F915C
:1048C000FF90EF90DF90CF90BF90AF909F908F9030
:1048D0007F906F905F904F903F902F900895CF936F
:1048E000DF9300D01F92CDB7DEB749835A836B8325
:1048F0007C8344E050E0BC01CE0101960E94D2B519
:104900000F900F900F900F90DF91CF910895CF935C
:10491000DF9300D01F92CDB7DEB744E050E0BC017A
:10492000CE0101960E94B0B569817A818B819C810C
:104930000F900F900F900F90DF91CF9108954DEC55
:104940005CEC6CE47EEB88E293E0C9DF40E050E091
:1049500064EB72E48CE293E0C2DF40E050E068E494
:1049600072E488E493E0BBDF40E050E0BA0180E20B
:1049700093E0B5DF40E050E0BA0184E293E0AFDFBE
:1049800040E050E068E572EC80E393E0A8DF40E0AF
:1049900050E068EF71EC84E393E0A1DF40E050E089
:1049A00068E572E488E393E09ADF40E050E068EF66
:1049B00071EC8CE393E093DF40E050E0BA0180E4D7
:1049C00093E08DDF40E050E062E872E484E493E03D
:1049D00086DF40E050E0BA0180ED93E080DF40E008
:1049E00050E0BA0184ED93E07ADF40E050E0BA0194
:1049F00088ED93E074DF40E050E060EA71E481EA22
:104A000093E06DDF46E656EE66E073E481E793E0FF
:104A100066DF40E050E062E872E485E793E05FDF44
:104A200068EC70E089E793E00E94EEB560E570E025
:104A30008BE793E00E94EEB561E070E08BE290E0DE
:104A40000E94EEB560E070E08DE793E00E94EEB565
:104A500060E070E08FE793E00E94EEB560E070E008
:104A600081E893E00E94EEB540E050E062E573E437
:104A700085E893E034DF40E050E065EA73E489E8DC
:104A800093E02DDF40E050E064EB72E48DE893E0CA
:104A900026DF40E050E0BA0181E993E020DF40E00A
:104AA00050E0BA0185E993E01ADF40E050E0BA0136
:104AB00089E993E014DF40E050E062E872E48DE9B8
:104AC00093E00DDF40E050E0BA0185EA93E007DFB4
:104AD00040E050E0BA0189EA93E001DF40E050E0B5
:104AE000BA018DEA93E0FBDE40E050E0BA0180EDD0
:104AF00093E0F5DE40E050E0BA0184ED93E0EFDEB4
:104B000040E050E0BA0188ED93E0E9DE60E08CED32
:104B100093E00E94DBB540E050E060E470E480EE9A
:104B200093E0DDDE40E050E060E571E484EE93E088
:104B3000D6DE40E050E060E272E488EE93E0CFDE43
:104B400040E050E0BA018CEE93E0C9DE40E050E076
:104B5000BA0180EF93E0C3DE40E050E0BA0184EF99
:104B600093E0BDDE40E050E060EA71E488EF93E05E
:104B7000B6DE60E08AEF93E00C94DBB580E990ED5F
:104B8000A3E0B0E08093940290939502A0939602E4
:104B9000B093970280EA9BEBADE0B0E080939C027B
:104BA00090939D02A0939E02B0939F0280EC97E2A7
:104BB000A9E0B0E08093980290939902A0939A02A2
:104BC000B0939B0280E090E0A0EAB2E48093E70219
:104BD0009093E802A093E902B093EA028093EB027B
:104BE0009093EC02A093ED02B093EE028093EF025B
:104BF0009093F002A093F102B093F20240E050E0F3
:104C000060E87FE34093F3025093F4026093F5026F
:104C10007093F60240E050E06AEF72E44093D702EE
:104C20005093D8026093D9027093DA024093DB026A
:104C30005093DC026093DD027093DE024093DF024A
:104C40005093E0026093E1027093E2028093CB0202
:104C50009093CC02A093CD02B093CE028093CF026A
:104C60009093D002A093D102B093D2028093D3024A
:104C70009093D402A093D502B093D60280E090E046
:104C8000A0E4B1E480939B1790939C17A0939D1789
:104C9000B0939E1780E090E0AAE7B3E48093BB0254
:104CA0009093BC02A093BD02B093BE028093BF025A
:104CB0009093C002A093C102B093C2028093C3023A
:104CC0009093C402A093C502B093C60240E050E0A6
:104CD00068EC73E44093AB025093AC026093AD0276
:104CE0007093AE024093AF025093B0026093B10252
:104CF0007093B2024093B3025093B4026093B50232
:104D00007093B6028093BB179093BC17A093BD1706
:104D1000B093BE178093B3179093B417A093B517B1
:104D2000B093B61780E090E0AFE2B3E48093AB17A6
:104D30009093AC17A093AD17B093AE171092B7171E
:104D40001092B8171092B9171092BA171092AF17A5
:104D50001092B0171092B1171092B2171092A717B5
:104D60001092A8171092A9171092AA178DEC9CEC1C
:104D7000A8EBB2E48093110290931202A093130265
:104D8000B093140280E090E0A8ECB2E480931702A4
:104D900090931802A0931902B0931A0280E090E059
:104DA000A4E3B2E480931F0290932002A093210217
:104DB000B093220280E090E2ABECB5E480931B025A
:104DC00090931C02A0931D02B0931E0281E0809379
:104DD000460228EC20934B0288E780934C0280E047
:104DE00090E0A8ECB1E480934D0290934E02A09322
:104DF0004F02B09350028AE999E9A9E5BFE3809395
:104E0000510290935202A0935302B093540280E057
:104E100090E0A0E3B3E48093550290935602A093F0
:104E20005702B093580282ED8093590210920D02FE
:104E300010920E0210920F021092100210920902AC
:104E400010920A0210920B0210920C0283E090E082
:104E5000909328028093270286E990E090932A029B
:104E60008093290210922C0210922B02209384022C
:104E700010922D0210922E0210922F0210923002E8
:104E800080E00E941A9D81E00E9466A158DD0E9488
:104E90003F8AE0911C03F0911D0380810E945D1701
:104EA0000E94541589EA96E00C94811280E990EDF5
:104EB000A3E0B0E08093940290939502A0939602B1
:104EC000B093970280E090E00E94C0B5813061F419
:104ED0008BE490E00E94C8B56093940270939502B1
:104EE000809396029093970208951F93CF93DF9338
:104EF00010E0C0E0D0E0C836D10521F0CE010E941C
:104F0000C0B5180F2196C11588E0D807A1F7812FE9
:104F1000DF91CF911F910895FF920F931F93CF932D
:104F2000DF93F82E40919402509195026091960281
:104F3000709197028BE490E00E94E9B540919C0249
:104F400050919D0260919E0270919F028FE490E0CB
:104F50000E94E9B5409198025091990260919A029D
:104F600070919B0283E590E00E94E9B54091E702D1
:104F70005091E8026091E9027091EA0283E090E0CA
:104F8000AEDC4091EB025091EC026091ED02709129
:104F9000EE0287E090E0A3DC4091EF025091F00236
:104FA0006091F1027091F2028BE090E098DC409108
:104FB000D7025091D8026091D9027091DA028FE045
:104FC00090E08DDC4091DB025091DC026091DD02CB
:104FD0007091DE0283E190E082DC4091DF0250912B
:104FE000E0026091E1027091E20287E190E077DCFB
:104FF0004091CB025091CC026091CD027091CE02D3
:105000008BE190E06CDC4091CF025091D002609136
:10501000D1027091D2028FE190E061DC4091D30225
:105020005091D4026091D5027091D60283E290E053
:1050300056DC40919B1750919C1760919D17709181
:105040009E1787E290E04BDC4091BB025091BC027E
:105050006091BD027091BE0283E390E040DC40911C
:10506000BF025091C0026091C1027091C20287E3F9
:1050700090E035DC4091C3025091C4026091C502BA
:105080007091C6028BE390E02ADC4091AB02509114
:10509000AC026091AD027091AE028FE390E01FDC34
:1050A0004091AF025091B0026091B1027091B20292
:1050B00083E490E014DC4091B3025091B40260911B
:1050C000B5027091B60287E490E009DC61E08AE6FF
:1050D00090E00E94DBB56FEF8BE690E00E94DBB5BD
:1050E00060E58CE790E00E94DBB542E558EB6FEAA3
:1050F00072E48CE690E0F3DB47ED53EA60E470E4A1
:1051000080E790E0ECDB4BE754E760E274E484E78F
:1051100090E0E5DB6FEF88E790E00E94DBB540911F
:10512000B7175091B8176091B9177091BA1785E801
:1051300090E0D5DB4091AF175091B0176091B11757
:105140007091B21789E890E0CADB4091A71750919F
:10515000A8176091A9177091AA178DE890E0BFDB9E
:105160004091BB175091BC176091BD177091BE174D
:1051700081E990E0B4DB4091B3175091B41760918E
:10518000B5177091B61785E990E0A9DB4091AB1790
:105190005091AC176091AD177091AE1789E990E00E
:1051A0009EDB409117185091181860911918709152
:1051B0001A1885E793E093DB40E050E0BA018DE9EF
:1051C00090E08DDB40E050E0BA0181EA90E087DBBF
:1051D00040E050E0BA0185EA90E081DB6091681818
:1051E00065FB662760F980E793E00E94DBB5CDE3BD
:1051F000D8E100E010E04991599169917991C80195
:10520000880F991F880F991F845B9C4F68DB0F5F85
:105210001F4F0930110579F7A8954091110250915F
:105220001202609113027091140288EC90E057DB37
:1052300040911702509118026091190270911A0260
:105240008CEC90E04CDB40911F0250912002609169
:1052500021027091220280ED90E041DB40911B021F
:1052600050911C0260911D0270911E0284ED90E02D
:1052700036DB6091460288ED90E00E94DBB56091DC
:105280004B0289ED90E00E94DBB560914C0285EF06
:1052900090E00E94DBB540914D0250914E0260912A
:1052A0004F02709150028AED90E019DB409151025B
:1052B0005091520260915302709154028EED90E031
:1052C0000EDB409155025091560260915702709149
:1052D000580282EE90E003DB6091590286EE90E086
:1052E0000E94DBB54091090250910A0260910B02C5
:1052F00070910C0287EE90E00E94E9B540910D029A
:1053000050910E0260910F02709110028BEE90E0AE
:105310000E94E9B560912702709128028FEE90E01B
:105320000E94EEB56091290270912A028AEF90E006
:105330000E94EEB560912B0270912C028CEF90E0F0
:105340000E94EEB5609184028EEF90E00E94DBB582
:1053500040E050E0BA0181EF90E0C1DA40912D02C7
:1053600050912E0260912F027091300286EF90E0F2
:10537000B6DAFF2071F040E050E0BA018DE790E02E
:105380000E94E9B540E050E0BA0181E890E0A7DA78
:10539000D6DA6CE089E690E00E94DBB5A6DD682FE6
:1053A00088E690E0DF91CF911F910F91FF900C94D0
:1053B000DBB58F929F92AF92BF92CF92DF92EF9226
:1053C000FF921F93CF93DF9389E690E00E94C0B5D0
:1053D000182F8BE490E00E94C8B5609394027093FC
:1053E000950280939602909397028FE490E00E943A
:1053F000C8B560939C0270939D0280939E02909327
:105400009F0283E590E00E94C8B560939802709374
:10541000990280939A0290939B0283E090E077DA5E
:105420006093E7027093E8028093E9029093EA02A6
:1054300087E090E06CDA6093EB027093EC0280936B
:10544000ED029093EE028BE090E061DA6093EF0260
:105450007093F0028093F1029093F2028FE090E05B
:1054600056DA6093D7027093D8028093D902909352
:10547000DA0283E190E04BDA6093DB027093DC02A6
:105480008093DD029093DE0287E190E040DA609342
:10549000DF027093E0028093E1029093E2028BE1DD
:1054A00090E035DA6093CB027093CC028093CD020A
:1054B0009093CE028FE190E02ADA6093CF0270934E
:1054C000D0028093D1029093D20283E290E01FDA5F
:1054D0006093D3027093D4028093D5029093D60246
:1054E00087E290E014DA60939B1770939C17809387
:1054F0009D1790939E1783E390E009DA6093BB02B7
:105500007093BC028093BD029093BE0287E390E04B
:10551000FED96093BF027093C0028093C102909342
:10552000C2028BE390E0F3D96093C3027093C4028C
:105530008093C5029093C6028FE390E0E8D9609310
:10554000AB027093AC028093AD029093AE0283E401
:1055500090E0DDD96093AF027093B0028093B10206
:105560009093B20287E490E0D2D96093B302709333
:10557000B4028093B5029093B60285E890E0C7D953
:105580006093B7177093B8178093B9179093BA17B1
:1055900089E890E0BCD96093AF177093B0178093FF
:1055A000B1179093B2178DE890E0B1D96093A71727
:1055B0007093A8178093A9179093AA1781E990E098
:1055C000A6D96093BB177093BC178093BD179093B7
:1055D000BE1785E990E09BD96093B3177093B41719
:1055E0008093B5179093B61789E990E090D96093AE
:1055F000AB177093AC178093AD179093AE1785E7F8
:1056000093E085D960931718709318188093191830
:1056100090931A18133008F491C06DE3E62E68E1F8
:10562000F62EC0E0D0E0CE01880F991F880F991F99
:10563000845B9C4F6CD9F701619371938193919333
:105640007F012196C930D10571F760913D187091A5
:105650003E1880913F18909140189B01AC010E9428
:105660000BB1811106C0CDE3D8E1C12CD12C76015C
:105670002AC04DE3E42E48E1F42ECCE4D3E0CE0181
:10568000880F991F880F991F42D9F7016193719371
:10569000819391937F012196C535F3E0DF0779F778
:1056A000E2CFA5019401C501B4010E9460B09B0145
:1056B000AC01C701B6010E9454AD6B017C0188E1C9
:1056C000C136D80789F089909990A990B990A50121
:1056D0009401C501B4010E940BB1882311F320E0AD
:1056E00030E040E251E4E5CF2DEC3CEC4CE250E4FC
:1056F000C701B6010E94B8AD87FD0AC023E333E3BA
:1057000043E550E4C701B6010E94ECAF18161CF443
:1057100080E00E9466A180E793E00E94C0B591E01E
:10572000811101C090E0892F0E941A9D26E049E076
:105730006DE378E185E198E00E94A514A89588ECD6
:1057400090E0E5D8609311027093120280931302E7
:10575000909314028CEC90E0DAD860931702709367
:1057600018028093190290931A0280ED90E0CFD82E
:1057700060931F0270932002809321029093220273
:1057800084ED90E0C4D860931B0270931C02809358
:105790001D0290931E0288ED90E00E94C0B5809398
:1057A000460289ED90E00E94C0B580934B0285EFE0
:1057B00090E00E94C0B580934C028AED90E0A7D89B
:1057C00060934D0270934E0280934F02909350026B
:1057D0008EED90E09CD860935102709352028093BA
:1057E00053029093540282EE90E091D86093550258
:1057F00070935602809357029093580286EE90E081
:105800000E94C0B58093590287EE90E00E94C8B50F
:105810006093090270930A0280930B0290930C022A
:105820008BEE90E00E94C8B560930D0270930E025B
:1058300080930F02909310028FEE90E00E94CDB5FE
:1058400090932802809327028AEF90E00E94CDB5C2
:1058500090932A02809329028CEF90E00E94CDB5AC
:1058600090932C0280932B0286EF90E050D86093A7
:105870002D0270932E0280932F02909330021230EB
:1058800048F08EEF90E00E94C0B5809384021C30F7
:1058900009F44CC185E896E00E948112133008F0AB
:1058A00052C04DEC5CEC6CE47EEB88E293E017D8E0
:1058B00040E050E064EB72E48CE293E010D840E00A
:1058C00050E068E472E488E493E009D840E050E0F6
:1058D000BA0180E293E003D840E050E0BA0184E2EC
:1058E00093E00E946F2440E050E068E572EC80E3B2
:1058F00093E00E946F2440E050E068EF71EC84E395
:1059000093E00E946F2440E050E068E572E488E391
:1059100093E00E946F2440E050E068EF71EC8CE36C
:1059200093E00E946F2440E050E0BA0180E493E0ED
:105930000E946F2440E050E062E872E484E493E067
:105940000E946F2402C01330A9F546E656EE66E0C9
:1059500073E481E793E00E946F2440E050E062E846
:1059600072E485E793E00E946F2461E070E08BE2CF
:1059700090E00E94EEB568EC70E089E793E00E9449
:10598000EEB560E570E08BE793E00E94EEB560E075
:1059900070E08DE793E00E94EEB560E070E08FE785
:1059A00093E00E94EEB560E070E081E893E00E9431
:1059B000EEB502C01430C9F440E050E062E573E493
:1059C00085E893E00E946F2440E050E065EA73E4CC
:1059D00089E893E00E946F2440E050E064EB72E4B9
:1059E0008DE893E00E946F2402C01530B1F440E0CE
:1059F00050E0BA0181E993E00E946F2440E050E05A
:105A0000BA0185E993E00E946F2440E050E0BA01BA
:105A100089E993E00E946F2402C01630F1F440E05F
:105A200050E062E872E48DE993E00E946F2440E068
:105A300050E0BA0185EA93E00E946F2440E050E014
:105A4000BA0189EA93E00E946F2440E050E0BA0175
:105A50008DEA93E00E946F2402C0173049F440E0C1
:105A600050E060EA71E481EA93E00E946F2402C092
:105A70001A30B0F440E050E0BA0180ED93E00E94AB
:105A80006F2440E050E0BA0184ED93E00E946F245F
:105A900040E050E0BA0188ED93E00E946F2402C01C
:105AA0001A3031F460E08CED93E00E94DBB502C067
:105AB0001B30D1F540E050E060E470E480EE93E00C
:105AC0000E946F2440E050E060E571E484EE93E0D2
:105AD0000E946F2440E050E060E272E488EE93E0C0
