:100000000C94E61B0C94171C0C94171C0C94171CD6
:100010000C94171C0C94171C0C94171C0C94171C94
:100020000C94171C0C94171C0C94171C0C94171C84
:100030000C94171C0D949B020C94171C0C94171C09
:100040000C94171C0C947A730C94171C0C94171CAA
:100050000C94171C0C94EB740C941D740C9489FC78
:100060000C94171C0C9443750C946D750C94171C10
:100070000C94171C0C94171C0C94171C0C94171C34
:100080000C94171C0C94171C0C94171C0C94171C24
:100090000C94171C0C94171C0C94171C0C945BFBF1
:1000A0000C94171C0C94171C0C94171C0C94171C04
:1000B0000C94171C0C94171C0C94171C0C94171CF4
:1000C0000C94171C0C94171C0C94171C0C94171CE4
:1000D0000C94171C0C94171C0C94171C0C94171CD4
:1000E0000C94171CBB6CD36CD36CD36CD36CD36CDB
:1000F000D36CD36CD36CD36CD36CD36CD36CD36C08
:10010000D36CD36CD36CD36CD36CD36CD36CD36CF7
:10011000D36CD36CD36CD36CAA6C5C6C666CE06BE8
:10012000D36C8C6C966CD36CD36CF16BCE6BD36C44
:10013000826CD36CA06C786C706CD36CD36CD36C09
:100140003E6C486C526CD36CD36CD36CD36CD36C58
:10015000D36CD36CD36CD36CAA6C5C6C666CE06BA8
:10016000D36C8C6C966CD36CD36CF16BCE6BD36C04
:10017000826CD36CA06C786C706CD36CD36CD36CC9
:100180003E6C486C526C6AE2F3E286E3B7E4F4F149
:10019000F4F1F4F1F4F1F4F1F4F1F4F1F4F1F4F137
:1001A00017E44BE481E4F4F1F4F1F4F1F4F1F4F147
:1001B000F4F1F4F1F4F1F4F1F4F1F4F199E7FBE77F
:1001C0005BE8BBE81BE97BE9DBE9F4F1BBED46EA60
:1001D000A3EA00EB5DEBBAEB17EC74ECE1EC4EED4F
:1001E000F4F1F4F1F4F1F4F1F4F11CE6E9E63FE6A0
:1001F00003EE32EE9AEE03EF1AEF52EF81EFB0EF1B
:1002000005F05CF0B1F00AF129F131EFF4F1F4F10D
:10021000F4F1F4F1F4F1F4F1F4F1F4F1F4F1F4F1B6
:10022000F4F1F4F1F4F1EBE5F4F1F4F1F4F1F4F1BB
:10023000F4F1F4F1F4F1F4F1A0F1F4F1B8E6F4F131
:10024000F4F1F4F150F179F1F4F1F4F1F4F1F4F1A5
:100250005DE2F4F1F4F1FAE490E5CEE541E7B7FDB3
:10026000BCFDC1FDCBFDD5FD4EFEDFFDE7FDEFFD85
:10027000F9FD03FE0DFE1CFE26FE4EFE30FE3AFE8C
:1002800044FE70FE73FE62FE66FE6CFEAAFE77FE02
:100290007BFE81FE85FE89FE8FFE93FE97FEAAFE01
:1002A0009DFEA1FEA5FE07634236B79BD8A71A396B
:1002B000685618AEBAAB558C1D3CB7CC5763BD6DB4
:1002C000EDFD753EF6177231BF000000803F05A8B6
:1002D0004CCDB2D44EB93836A9020C50B9918688AB
:1002E000083CA6AAAA2ABE000000803F436F6C64A7
:1002F00020657874727573696F6E20646973616CC0
:100300006C6F77656400436F6C64206578747275F8
:1003100073696F6E20616C6C6F77656400417574F2
:100320006F726574726163743A0053657474696EB8
:1003300067206D6F746F722063757272656E742EB4
:100340002E2E00536574204D6963726F737465704F
:1003500070696E670054726967676572696E6720BD
:100360007761746368646F672E20496620616374E7
:100370006976617465642C20746865207072696E9A
:100380007465722077696C6C2072657365742E00D9
:1003900053657474696E67205468726573686F6C16
:1003A0006420546F3A00494E542050494E3A200080
:1003B0004D323531200020746F2000536574207653
:1003C0006F6C756D6574726963206578747275738E
:1003D000696F6E20666F72206578747275646572DD
:1003E000200044697361626C656420766F6C756D82
:1003F000657472696320657874727573696F6E20B5
:10040000666F7220657874727564657220004D3174
:100410003134200048656174696E672045787472D4
:10042000756465720050696E2063616E206E6F7432
:1004300020626520736574206279204D34322C204F
:100440006D617920696E20696E76616C6964206FD8
:100450007220696E207573652E2000496C6C65678B
:10046000616C20532076616C756520666F72204D3B
:100470003432005A2028432920746F776572206631
:100480006C6F6F722073657420746F3A200059206E
:1004900028422920746F77657220666C6F6F722016
:1004A00073657420746F3A20005820284129207405
:1004B0006F77657220666C6F6F722073657420743D
:1004C0006F3A2000526F6420526164697573207323
:1004D000657420746F3A2000473133342000506F28
:1004E0007346726F6D53746570733A00436F6D702D
:1004F00044656C74613A0043616C6962726174694D
:100500006F6E206D6F76656D656E74206973206CFB
:10051000696D6974656420746F2031306D6D2E00D3
:100520004669727374206D6F766520746F20746FE6
:1005300075636820617420782C793D302C302074EC
:100540006F206175746F2D736574207261646975B5
:10055000732E0043616C6962726174696F6E206D05
:100560006F76656D656E74206973206C696D697452
:10057000656420746F2031306D6D2E0043616E6EA6
:100580006F74207365742072616469757320616E85
:100590006420666C6F6F722061742073616D6520DA
:1005A00074696D652E0043616C6962726174696F74
:1005B0006E20636F6465206973206C696D69746572
:1005C0006420746F20626F74746F6D203130252049
:1005D0006F66205A206865696768740052656C61AF
:1005E0007469766520706F736974696F6E696E6780
:1005F000004162736F6C75746520706F7369746904
:100600006F6E696E670047363920005A3A200059EC
:100610003A2000583A20004F464653455453204F45
:10062000464620425920544F4F204D554348205FA5
:1006300020545259494E4720414741494E3A2000E3
:1006400053657474696E672050726F6265205365DC
:100650006E736974697669747920546F3A005A2010
:1006600070726F6265206661696C6564206F6E20D0
:1006700073656E73697469766974793A200053659D
:100680007474696E672050726F62652053656E7373
:100690006974697669747920546F3A005A207072CF
:1006A0006F6265206661696C6564206F6E2073659A
:1006B0006E73697469766974793A2000536574744D
:1006C000696E672050726F62652053656E7369743E
:1006D000697669747920546F3A005A2070726F629B
:1006E00065206661696C6564206F6E2073656E734A
:1006F000697469766974793A200068656865004EA6
:100700006577205261646975733A20004F6C6420EC
:100710005261646975733A200043616C63756C6162
:100720007465642052616469757320697320626125
:1007300064203A0053657474696E672050726F626A
:10074000652053656E736974697669747920546F96
:100750003A005A2070726F6265206661696C656448
:10076000206F6E2073656E73697469766974793A67
:10077000200053657474696E672050726F62652043
:1007800053656E736974697669747920546F3A00A1
:100790005A2070726F6265206661696C6564206FB3
:1007A0006E2073656E73697469766974793A200096
:1007B000473332200050524F42452D5A4F46465340
:1007C00045543A004733300053657474696E6720AE
:1007D00050726F62652053656E73697469766974CF
:1007E0007920546F3A0050726F62657320646F20F5
:1007F0006E6F74206D617463682E204F6666206290
:1008000079200047333020004D3131372043414CAF
:100810004942524154494F4E20434F4D504C45544C
:10082000450068656865004E657720486F72697A93
:100830006F6E74616C205261646975733A20004F69
:100840006C6420486F72697A6F6E74616C205261BB
:10085000646975733A200043616C63756C617465FB
:100860006420526164697573206973206261643A1F
:1008700020004D3131372043414C494252415449C7
:100880004F4E204641494C45440043616C696272B9
:100890006174696F6E204661696C656400536574AC
:1008A00074696E672050726F62652053656E73695C
:1008B00074697669747920546F3A005A2070726FA7
:1008C0006265202843656E74657220506F696E748E
:1008D00029206661696C6564206F6E2073656E7394
:1008E000697469766974793A20004E6577205A20D8
:1008F0004865696768743A004F6C64205A204865FF
:10090000696768743A004D3131372043414C4942A0
:10091000524154494F4E204641494C4544004361A1
:100920006C6962726174696F6E204661696C65649E
:100930000053657474696E672050726F626520534E
:10094000656E736974697669747920546F3A005AD8
:100950002070726F6265202843656E746572205046
:100960006F696E7429206661696C6564206F6E2002
:1009700073656E73697469766974793A20004736D5
:100980003920005A3A2000593A2000583A20004DA8
:1009900031313720456E6473746F70204F66667313
:1009A0006574204572726F72004F4646534554532A
:1009B000204F464620425920544F4F204D55434822
:1009C0002E2041626F7274696E672E2053656E73BC
:1009D000697469766974793A20004D313137204362
:1009E000414C4942524154494F4E204641494C45A1
:1009F000440043616C6962726174696F6E20466184
:100A0000696C65640053657474696E672050726F19
:100A100062652053656E73697469766974792054D0
:100A20006F3A005A2070726F626520285A20546F06
:100A300077657229206661696C6564206F6E20732A
:100A4000656E73697469766974793A20004D313145
:100A5000372043414C4942524154494F4E20464170
:100A6000494C45440043616C6962726174696F6E00
:100A7000204661696C65640053657474696E672013
:100A800050726F62652053656E736974697669741C
:100A90007920546F3A005A2070726F62652028598D
:100AA00020546F77657229206661696C6564206FD8
:100AB0006E2073656E73697469766974793A200083
:100AC0004D3131372043414C4942524154494F4EF8
:100AD000204641494C45440043616C69627261742F
:100AE000696F6E204661696C656400536574746952
:100AF0006E672050726F62652053656E736974690A
:100B00007669747920546F3A005A2070726F62656A
:100B100020285820546F77657229206661696C65BA
:100B200064206F6E2073656E736974697669747979
:100B30003A20004D3130342053300A4D31343020CA
:100B400053300A4D313037006578656375746547F9
:100B5000436F6465202F20717565756544656C74FD
:100B6000614D6F76652072657475726E7320657263
:100B7000726F720069697332646820616363656CC7
:100B800065726F6D6574657220696E697469616CF8
:100B9000697A696E672E2E2E00616363656C6572DB
:100BA0006F6D6574657220693263207265637620AB
:100BB0006572726F722E002076616C75653A200046
:100BC00072656164207265672000616363656C65AE
:100BD000726F6D6574657220777269746520693211
:100BE00063206572726F722E00616363656C65725B
:100BF0006F6D657465722073656E64206932632061
:100C00006572726F722E0000000100250030001D19
:100C1000000C001E00240031001C000B00180023F3
:100C2000002F001B000A0017000D004700030004FE
:100C30000022002B001A0041004200000002003593
:100C400000457874722E00436F6E6669673A004FF4
:100C50006E6520686561746572207365656D7320CB
:100C60006465636F75706C65642066726F6D207467
:100C70006865726D6973746F72202D206469736189
:100C8000626C696E6720616C6C20666F72207361A4
:100C900066657479210048656174657220646563D6
:100CA0006F75706C6564004372656174696F6E2066
:100CB0006661696C6564004469726563746F72791A
:100CC00020637265617465640044656C6574696F66
:100CD0006E206661696C65640046696C65206465B8
:100CE0006C6574656400446F6E6520736176696E2F
:100CF000672066696C652E0057726974696E67209B
:100D0000746F2066696C653A20006F70656E2066AE
:100D100061696C65642C2046696C653A20004E6FF1
:100D200074205344207072696E74696E6700534476
:100D3000207072696E74696E672062797465200034
:100D400066696C652E6F70656E206661696C65649E
:100D50000046696C652073656C656374656400208A
:100D600053697A653A0046696C65206F70656E65F7
:100D7000643A00456E642066696C65206C69737422
:100D800000426567696E2066696C65206C697374E2
:100D9000006572726F722077726974696E67207471
:100DA0006F2066696C6500534420696E6974206623
:100DB00061696C00616476616E6365204C205B3014
:100DC0003D6F66665D006578747275646572206358
:100DD0006F6F6C6572207370656564205B302D32B7
:100DE00035355D0064697374616E636520746F20CE
:100DF00072657472616374207768656E20686561DE
:100E000074696E67205B6D6D5D0074656D702E207A
:100E1000666F722072657472616374696F6E207799
:100E200068656E2068656174696E67205B435D006C
:100E300074656D702E2073746162696C697A6520C7
:100E400074696D65205B735D00592D6F666673650F
:100E500074205B73746570735D00582D6F666673E4
:100E60006574205B73746570735D00504944206D38
:100E700061782076616C7565205B302D3235355D8B
:100E80000050494420442D6761696E005049442058
:100E9000492D6761696E0050494420502D67616992
:100EA0006E2F646561642D74696D6500504944203E
:100EB0006472697665206D696E00504944206472E1
:100EC000697665206D61780068656174206D616E7A
:100ED00061676572205B302D335D00616363656C13
:100EE00065726174696F6E205B6D6D2F735E325D2C
:100EF0000073746172742066656564726174652044
:100F00005B6D6D2F735D006D61782E206665656485
:100F100072617465205B6D6D2F735D007374657015
:100F20007320706572206D6D00436F72722E2064A5
:100F30006961676F6E616C2043205B6D6D5D00437E
:100F40006F72722E20646961676F6E616C2042203F
:100F50005B6D6D5D00436F72722E20646961676F17
:100F60006E616C2041205B6D6D5D004D617820707D
:100F700072696E7461626C65207261646975732058
:100F80005B6D6D5D00546F776572205A20656E64ED
:100F900073746F70206F6666736574205B7374651D
:100FA00070735D00546F776572205920656E6473AD
:100FB000746F70206F6666736574205B7374657000
:100FC000735D00546F776572205820656E6473748A
:100FD0006F70206F6666736574205B7374657073E1
:100FE0005D005365676D656E74732F7320666F7255
:100FF0002074726176656C005365676D656E7473FD
:101000002F7320666F72207072696E74696E67004C
:10101000486F72697A6F6E74616C20726F642072AF
:10102000616469757320617420302C30205B6D6DB4
:101030005D00446961676F6E616C20726F64206C43
:10104000656E677468205B6D6D5D00486F6D696EDD
:1010500067206665656472617465205B6D6D2F73D2
:101060005D004D61782E206665656472617465204F
:101070005B6D6D2F735D00537465707320706572C6
:10108000206D6D0054726176656C20616363656CE0
:1010900065726174696F6E205B6D6D2F735E325D7A
:1010A00000416363656C65726174696F6E205B6D8E
:1010B0006D2F735E325D004D61782E206A65726B14
:1010C000205B6D6D2F735D005A206D6178206C651B
:1010D0006E677468205B6D6D5D0059206D617820CE
:1010E0006C656E677468205B6D6D5D0058206D6186
:1010F00078206C656E677468205B6D6D5D005A20AA
:10110000686F6D6520706F73205B6D6D5D00592099
:10111000686F6D6520706F73205B6D6D5D0058208A
:10112000686F6D6520706F73205B6D6D5D0053742B
:101130006F7020737465707065722061667465727B
:1011400020696E6163746976697479205B6D732CB4
:10115000303D6F66665D004D61782E20696E61637B
:10116000746976652074696D65205B6D732C303D04
:101170006F66665D005072696E746572206163749B
:10118000697665205B735D0046696C616D656E74A0
:10119000207072696E746564205B6D5D00416476D9
:1011A000616E636564205573657200426175647297
:1011B000617465004550523A3320004550523A322E
:1011C00020004550523A3120004550523A3020001C
:1011D00050726F746F636F6C2076657273696F6E97
:1011E000206368616E6765642C2075706772616446
:1011F000696E6700436F6E66696775726174696FC7
:101200006E20726573657420746F20646566617505
:101210006C74732E00436F6E6669677572617469D2
:101220006F6E206C6F616465642066726F6D20451F
:101230004550524F4D2E00436F6E6669677572615F
:1012400074696F6E2073746F72656420746F2045CB
:101250004550524F4D2E004175746F6C6576656C2C
:10126000206163746976652028312F3029005A2D5A
:1012700070726F6265205933005A2D70726F62650B
:10128000205833005A2D70726F6265205932005A0F
:101290002D70726F6265205832005A2D70726F6225
:1012A00065205931005A2D70726F626520583100E7
:1012B0005A2D70726F626520782D792D7370656577
:1012C00064205B6D6D2F735D005A2D70726F6265C7
:1012D000207370656564205B6D6D2F735D005A2D02
:1012E00070726F6265206F66667365742079205B2B
:1012F0006D6D5D005A2D70726F6265206F6666734A
:1013000065742078205B6D6D5D004D61782E207ACC
:101310002D70726F6265202D206265642064697390
:10132000742E205B6D6D5D005A2D70726F626520AA
:10133000686569676874205B6D6D5D0077616974CD
:10134000005072696E746572206865696768743AE6
:10135000005A2D70726F6265206661696C65640069
:101360005472616E73666F726D6174696F6E206D19
:1013700061747269783A004175746F6C6576656C5A
:10138000696E672064697361626C6564004175749D
:101390006F6C6576656C696E6720656E61626C6501
:1013A00064004175746F6C6576656C206D61747254
:1013B000697820726573657400004732382F6E4774
:1013C000315A32352F6E005A2D70726F626520735C
:1013D000746174653A005265736574205A206865BB
:1013E00069676874005A2D70726F62652061766556
:1013F00072616765206865696768743A0020537494
:10140000657020566172696174696F6E2066726FD3
:101410006D2050726F626520746F20626564204495
:10142000697374616E63653A005A2D70726F6265FC
:101430003A005072696E7465722073657420696E2B
:10144000746F206472792072756E206D6F646520F0
:10145000756E74696C207265737461727421003AE0
:1014600020776F726B696E67003A2074656D70202B
:1014700073656E736F72206465666563740065786A
:1014800074727564657220004D54454D503A005099
:101490004944204175746F74756E652066696E6984
:1014A00073686564202120506C61636520746865F1
:1014B000204B702C204B6920616E64204B642063AC
:1014C0006F6E7374616E747320696E20746865202A
:1014D000436F6E66696775726174696F6E2E6820FE
:1014E0006F7220454550524F4D0050494420417580
:1014F000746F74756E65206661696C656421207413
:10150000696D656F757400504944204175746F743E
:10151000756E65206661696C6564212054656D7027
:101520006572617475726520746F20686967680000
:10153000204B643A2000204B693A2000204B703A3F
:10154000200020436C61737369632050494400207C
:1015500054753A2000204B753A2000206D61783A8E
:101560002000206D696E3A200020643A200020623D
:101570006961733A2000504944204175746F747555
:101580006E6520737461727400546172676574458E
:10159000787472004E6F206D6F766520696E2064DE
:1015A000656C7461207365676D656E74207769740E
:1015B00068203E2031207365676D656E742E20545F
:1015C0006869732073686F756C64206E65766572E8
:1015D0002068617070656E20616E64206D61792095
:1015E000636175736520612070726F626C656D2137
:1015F0000044656C746120526164697573204328EE
:1016000030293A0044656C746120526164697573D5
:1016100020422830293A0044656C7461205261648C
:1016200069757320412830293A00416C7068612047
:1016300043283930293A00416C70686120422833D0
:101640003330293A00416C706861204128323130D2
:10165000293A00546F77657220333A00546F7765EA
:101660007220323A00546F77657220313A00496E29
:1016700076616C69642064656C746120636F6F725D
:1016800064696E617465202D206D6F7665206967D1
:101690006E6F726564006C696E656172204C3A0011
:1016A000454550524F4D2075706461746564002C3F
:1016B0002073706565643D00206C696E6561722001
:1016C00073746570733A004A65726B3A007A5F6DA5
:1016D00061783A00795F6D61783A00785F6D617882
:1016E0003A004C2000482000206973200020746FCD
:1016F0002000536574206F75747075743A20004D26
:1017000053312C4D53322050696E730045313A00ED
:1017100045303A005A3A00593A0020002C00206D1A
:10172000696E0020686F75727320002064617973A0
:1017300020006D20005072696E74696E67207469B4
:101740006D653A005072696E7465642066696C61FB
:101750006D656E743A0046616E73706565643A003B
:10176000482E205261646975733A00466C6F774D5C
:10177000756C7469706C793A0053706565644D7569
:101780006C7469706C793A00202F002F003A0020A9
:10179000403A00543A0020453A00205A3A00205975
:1017A0003A0020583A00583A004672656520524186
:1017B0004D3A00556E6B6E6F776E20636F6D6D6185
:1017C0006E643A00536F6674776172652052657378
:1017D0006574005761746368646F67205265736550
:1017E000740042726F776E206F7574205265736556
:1017F000740045787465726E616C2052657365740F
:1018000000506F7765725570007374617274004296
:101810004C4B2000736B6970200020676F742000B0
:101820004572726F723A6578706563746564206C96
:10183000696E652000534420726561642065727290
:101840006F7200205200204A0020490020500020E2
:101850005300204600204500205A002059002058FF
:1018600000446F6E65207072696E74696E672066E1
:10187000696C6500466F726D6174206572726F727B
:101880000057726F6E6720636865636B73756D00D8
:101890004563686F3A00526573656E643A0057613C
:1018A000726E696E673A00496E666F3A00457272F1
:1018B0006F723A00494E46004E414E006F6B004633
:1018C00049524D574152455F4E414D453A52657020
:1018D00065746965725F302E39322E322046495266
:1018E0004D574152455F444154453A3230313731CA
:1018F000303236204D414348494E455F545950459A
:101900003A4861636B657220483220002064656745
:101910002E204300206D656173757265642000455B
:1019200072726F723A436F756C64206E6F742068C8
:101930006F6C642074656D7065726174757265207A
:1019400000206D730020616674657220004572721C
:101950006F723A54656D702E2072616973656420F0
:10196000746F20736C6F772E2052697365203D2051
:10197000004739310A4731452D313830463630304D
:10198000300A473930004D3131372045787472754F
:1019900064657220300A54300A4D38342050340ABD
:1019A0004739310A47314531373246363030300A0F
:1019B00047314535463530300A473930001C151C53
:1019C000140000002243141F1FD11D7D1D0D1DBDDD
:1019D0001C000000000000351C291BD91A5D1AE10B
:1019E000190400081D900058091C01B007A801C87F
:1019F0000634023006C002C0054C036805D803183F
:101A0000056404D004F00498047C056004080630E2
:101A100004940600042007D003AC07A8033808800C
:101A200003C408580350093003DC090803680AD8C6
:101A300002F40AB002800B88020C0C6002980C3091
:101A400002240DF801B00DC0013C0E8001C80E301B
:101A500001540FB800B40F2800E00F00000400404C
:101A60001D900060091C01B007A801D0063402389F
:101A700006C002C8054C036805D80318056404D8DD
:101A800004F00498047C0560040806300494060001
:101A9000042007D003AC07A80338088003C4085803
:101AA0000350093003DC090803680AE002F40AB8AD
:101AB00002800B88020C0C6002980C3002240DF896
:101AC00001B00DC0013C0E8001C80E3001540FB8AA
:101AD00000B40F2800E00F000004000016D800C07A
:101AE00006AC0178058002C004540348042804E8C9
:101AF00003FC049803D0055003A40618037807D804
:101B0000024C08A80220097002F4093802C80A0829
:101B1000029C0BD001700C9001440D5001180EF87E
:101B200000EC0E8800C00F00000400681D4C00503F
:101B30000B94005809DC0050082401A8076C012808
:101B400007B401C006FC017006440228068C02F0AE
:101B500005D402B8051C03880564035805AC03309E
:101B600005F40310053C04E8048404C804CC04A86C
:101B700004140590045C057004A4055804EC0538B1
:101B800004340620047C060804C406F0030C07D8BD
:101B9000035407C8039C07B003E40798032C08808C
:101BA0000374087003BC085803040948034C093047
:101BB0000394091803DC090803240AF0026C0AE004
:101BC00002B40AC802FC0AB002440BA0028C0B88C3
:101BD00002D40B70021C0C5802640C4002AC0C289E
:101BE00002F40C10023C0DF001840DD801CC0DB8AC
:101BF00001140E98015C0E7001A40E4801EC0E1841
:101C000001340FD8007C0F8800C40F0800FC0F00BF
:101C100000000000000000000000000000000000C4
:101C200000000000000000000000000000000000B4
:101C300000000000000000401F450060094F001038
:101C4000095C00C0086B0070087D0020089200D07D
:101C500007AC008007CC003007DE00E006230190CF
:101C6000065E014006A601F005FF01A0056D0250C9
:101C700005F30200059603B0045A04600440051001
:101C8000044806C0036E077003A8082003EB09D0C0
:101C900002230B8002410C3002390DE001040E904A
:101CA00001A20E4001170FF000690FA000A20F5013
:101CB00000C60F0000DD0FB0FFEB0F60FF040070E7
:101CC0000DD8004804AC0158038002D802540380A8
:101CD0000228043802FC040002D005C801A40698BA
:101CE00001780770014C08480120091801F409F037
:101CF00000C80AC8009C0BA000700C7000440D388E
:101D000000180E0000EC0EA8FFC00FE8FE04000053
:101D10001B54006009640010097400C0088400703E
:101D2000089C002008B800D007D8008007000130C8
:101D3000072C01E00668019006AC0140060002F0A5
:101D4000056802A005E0025005740300052404B0F4
:101D500004F0046004DC051004E406C00304087009
:101D60000330092003780B8002600DE001A80E40CB
:101D700001680FA000C00F0000E80F60FF040080A2
:101D80001AD8009808AC012007800250065403C8F6
:101D90000528045805FC040005D005B004A4066815
:101DA00004780728044C08E8032009B003F40970FC
:101DB00003C80A38039C0BF802700CB002440D688B
:101DC00002180E0802EC0E8801C00F8800F00F0008
:101DD000000000A00F5C006009690010097900C0D4
:101DE000088C007008A2002008BD00D007DE00802B
:101DF00007050130073401E0066D019006B201408D
:101E0000060702F0056D02A005E80250057B0300FD
:101E1000052B04B004F8046004EB06C00335092068
:101E2000037F0B8002650DE001B00E40011D0FF035
:101E300000480FC8006C0FA000ED0F60FFFE0F48B8
:101E4000FE005344206572726F7220666978656483
:101E5000005344206572726F7220646964206E6F53
:101E600074207265636F7665722100534420526559
:101E70006164204572726F72000000000000000073
:101E800000000000000000000024F403D950C38EBD
:101E9000B1C2A23D96828B3582127AE372816CCBFD
:101EA00066A861015DC758EB546151204E1E4B5628
:101EB00048C14559431A41013F093D2F3B7139CD76
:101EC000374036C93465331432D430A32F802E6B9B
:101ED0002D632C672B752A8E29B028DC2710274B01
:101EE000268F25D9242B248223E0224322AC211AD9
:101EF000218D200420801F001F841E0C1E971D268C
:101F00001DB81C4E1CE61B821B201BC11A641A0A3A
:101F10001AB2195D190A19B9186A181C18D117884C
:101F2000174017FA16B51673163116F115B3157654
:101F3000153A150015C7148F1458142214EE13BA4D
:101F400013881356132513F612C71299126C1240F8
:101F5000121512EB11C1119811701148112111FBCA
:101F600010D610B1108D106910461024100210E127
:101F70000FC00FA00F800F610F420F230F060FE855
:101F80000ECB0EAF0E930E770E5C0E410E270E0D8C
:101F90000EF30DDA0DC10DA80D900D780D600D49F1
:101FA0000D320D1B0D050DEF0CD90CC30CAE0C99A9
:101FB0000C850C700C5C0C480C350C210C0E0CFBC9
:101FC0000BE80BD60BC40BB20BA00B8E0B7D0B6B6F
:101FD0000B5A0B4A0B390B290B180B080BF80AE9A3
:101FE0000AD90ACA0ABB0AAC0A9D0A8E0A800A717B
:101FF0000A630A550A470A390A2C0A1E0A110A04FA
:102000000AF709EA09DD09D009C409B709AB099F34
:1020100009920987097B096F09630958094C09412D
:102020000936092B09200915090A090009F508EBE9
:1020300008E008D608CC08C208B808AE08A4089A78
:1020400008900887087D0874086B08610858084FD5
:102050000846083D0834082C0823081A0812080905
:10206000080108F807F007E807E007D807D007C815
:1020700007C007B807B007A807A1070000420FA1D3
:10208000071605D0030D038B022E02E801B201866C
:1020900001630145012C0117010401F4005072692C
:1020A0006E746572205265616479005072696E7455
:1020B0006572205265616479005072696E74657250
:1020C00020526561647900207A3A0020793A002034
:1020D000783A00696E20717565756544656C746148
:1020E0004D6F766520746F2063616C63756C6174ED
:1020F0006544656C74615375625365676D656E7494
:10210000732072657475726E73206572726F722EB1
:1021100000432068697420666C6F6F720043706FB3
:1021200073207820737175617265200043706F733E
:102130002078207374657073200043706F7320796A
:1021400020737175617265200043706F7320792070
:1021500073746570732000422068697420666C6F28
:102160006F720042706F73207820737175617265B1
:10217000200042706F7320782073746570732000A4
:1021800042706F732079207371756172652000420F
:10219000706F73207920737465707320004120681C
:1021A000697420666C6F6F720041706F73207820C5
:1021B000737175617265200041706F7320782073B0
:1021C00074657073200041706F732079207371758E
:1021D000617265200041706F73207920737465709F
:1021E0007320006D6F766552656C61746976654425
:1021F000697374616E6365496E5374657073202FE3
:1022000020717565756544656C74614D6F766520E8
:1022100072657475726E73206572726F72004D61B3
:102220007854656D703A004469616D657465723A01
:1022300000416363656C65726174696F6E3A004D4D
:10224000617853706565643A004A65726B3A004D77
:10225000617842656454656D703A005072696E74BD
:102260006572547970653A44656C7461005A5472B1
:102270006176656C416363656C3A005954726176AE
:10228000656C416363656C3A005854726176656CA5
:10229000416363656C3A005A5072696E74416363BE
:1022A000656C3A00595072696E74416363656C3AAB
:1022B00000585072696E74416363656C3A005A53FA
:1022C000697A653A005953697A653A005853697AD0
:1022D000653A005A4D61783A00594D61783A005894
:1022E0004D61783A005A4D696E3A00594D696E3A1F
:1022F00000584D696E3A004A65726B58593A005061
:1023000072696E746C696E6543616368653A004515
:102310004550524F4D3A004175746F6C6576656C4F
:102320003A005A50726F62653A00436173654C69B6
:10233000676874733A00537570706F72744C6F6392
:10234000616C46696C616D656E746368616E67652A
:102350003A00537570706F72744731304731313ABB
:10236000005A486F6D654469723A0059486F6D654F
:102370004469723A0058486F6D654469723A005377
:102380006F667477617265506F77657253776974A1
:1023900063683A004C43443A0046616E3A00534445
:1023A000436172643A004865617465644265643AE9
:1023B000004D6978696E6745787472756465723A24
:1023C000004E756D45787472756465723A00496E99
:1023D0007075744275666665723A00426175647222
:1023E0006174653A004E6F2063617365206C6967A4
:1023F000687473004D31313420007A70726F6269F5
:102400006E672E2E2E0064656C6179203130306D40
:10241000732E00686F6D65417869732000686F6D79
:102420006541786973202F20717565756544656C09
:1024300074614D6F76652072657475726E73206578
:1024400072726F7200486F6D652044656C74610034
:102450005072696E7465723A3A73657475702000D3
:102460006D6F7665546F5265616C202F20717565B4
:10247000756544656C74614D6F7665207265747521
:10248000726E73206572726F72006D6F7665546F35
:10249000202F20717565756544656C74614D6F768C
:1024A000652072657475726E73206572726F72004A
:1024B000537465707065722044697361626C656401
:1024C000004B696C6C6564006973506F7369746963
:1024D0006F6E416C6C6F776564200055706C6F6136
:1024E00064696E672E2E2E00005344207072696E50
:1024F000742073746F7070656420627920757365E1
:10250000722E005344206361726420696E73657299
:10251000746564005344204361726420696E73657E
:102520007274656400534420436172642072656D67
:102530006F76656400534420636172642072656D38
:102540006F7665640000002110422063308440A54E
:1025500050C660E770088129914AA16BB18CC1AD6A
:10256000D1CEE1EFF13112100273325222B5529402
:1025700042F772D662399318837BB35AA3BDD39CBA
:10258000C3FFF3DEE36224433420040114E664C78E
:1025900074A44485546AA54BB528850995EEE5CF0A
:1025A000F5ACC58DD55336722611163006D776F6A2
:1025B000669556B4465BB77AA719973887DFF7FE5A
:1025C000E79DD7BCC7C448E5588668A7784008612E
:1025D0001802282338CCC9EDD98EE9AFF9488969AA
:1025E000990AA92BB9F55AD44AB77A966A711A5042
:1025F0000A333A122AFDDBDCCBBFFB9EEB799B58FA
:102600008B3BBB1AABA66C877CE44CC55C222C03CD
:102610003C600C411CAEED8FFDECCDCDDD2AAD0B49
:10262000BD688D499D977EB66ED55EF44E133E32E1
:102630002E511E700E9FFFBEEFDDDFFCCF1BBF3A99
:10264000AF599F788F8891A981CAB1EBA10CD12D88
:10265000C14EF16FE18010A100C230E3200450258B
:102660004046706760B9839893FBA3DAB33DC31CFF
:10267000D37FE35EF3B1029012F322D232354214DB
:102680005277625672EAB5CBA5A89589856EF54F4B
:10269000E52CD50DC5E234C324A01481046674472B
:1026A0006424540544DBA7FAB79987B8975FE77E9F
:1026B000F71DC73CD7D326F2369106B0165766767B
:1026C00076154634564CD96DC90EF92FE9C899E9EB
:1026D000898AB9ABA94458654806782768C018E1CB
:1026E000088238A3287DCB5CDB3FEB1EFBF98BD83F
:1026F0009BBBAB9ABB754A545A376A167AF10AD01B
:102700001AB32A923A2EFD0FED6CDD4DCDAABD8B8A
:10271000ADE89DC98D267C076C645C454CA23C836A
:102720002CE01CC10C1FEF3EFF5DCF7CDF9BAFBADE
:10273000BFD98FF89F176E367E554E745E932EB2BA
:102740003ED10EF01E7C3C3E5E2B3D3F2F5B5D3B41
:102750002C2A225C00526571756573745061757323
:10276000653A004D31313720494E5345525420537C
:10277000442043415244004D3131372053442043DB
:10278000415244204552524F520055495F414354F3
:10279000494F4E5F5345545F4D4541535552454453
:1027A0005F4F524947494E20004E6F20534420430B
:1027B0006172640053687574204F666620414C4C0A
:1027C00020486561747300507265686561742041CA
:1027D0004253005072656865617420504C41005549
:1027E000495F414354494F4E5F484F4D455F5A2022
:1027F0000055495F414354494F4E5F484F4D455F37
:1028000059200055495F414354494F4E5F484F4D51
:10281000455F58200055495F414354494F4E5F483A
:102820004F4D45414C4C200055495F414354494F61
:102830004E5F5A504F534954494F4E5F464153548F
:102840005F4E4F54455354200055495F414354490E
:102850004F4E5F5A504F534954494F4E5F4E4F545D
:10286000455354200055495F414354494F4E5F45FD
:10287000504F534954494F4E200055495F414354EE
:10288000494F4E5F5A504F534954494F4E5F46414E
:102890005354200055495F414354494F4E5F5950AE
:1028A0004F534954494F4E5F4641535420005549B8
:1028B0005F414354494F4E5F58504F534954494F1D
:1028C0004E5F46415354200055495F414354494FA0
:1028D0004E5F5A504F534954494F4E200055495F5F
:1028E000414354494F4E5F59504F534954494F4EFD
:1028F000200055495F414354494F4E5F58504F5354
:102900004954494F4E200042616E6742616E670034
:10291000536C6F7742616E6700446561642054694F
:102920006D650050494400003A00206461797320CD
:102930000050657263656E74205072696E746564D0
:102940003A00206465662000465720446174652083
:102950003230313731303236004861636B65722076
:102960004832005365654D65434E43004861636BD3
:10297000657220483200F435AA354235E5344163AA
:1029800074696F6E3A256C6100040003004E6F009D
:10299000596573004E2F41004F6666004F6E000070
:1029A00000003FCDCC4C3D0AD7A33B6F12033A52F7
:1029B00065706574696572207620302E39322E324A
:1029C00000004014548025000040380000004B00F7
:1029D000008070000000960000C0DA000000E100F6
:1029E00000002C010008B2010000C2010000F40147
:1029F000000084030090D0030000E80300000807F3
:102A00000020A1070000100E0040420F0060E316F6
:102A10000000000000110A0411040A1111001C1F1B
:102A200011111F0000040A0A0A0E1F1F0E001F11B9
:102A300011111F0000001F1F1F1F1F0000040A04A8
:102A40000000000000040E15041C0000000200003D
:102A50000600542A6C32BA2A3B2F8D2A8E2FFC2A6C
:102A60000200000700672A6C32752A3B2F8D2A8EE0
:102A70002FC62EA12A7C2A023C3000005072696EBB
:102A80007465722053657474696E677300942A02CA
:102A90002A31000041646A7573742054656D707347
:102AA00000A82A02D22A0000416476616E63656440
:102AB0002053657474696E677300C12A0255300033
:102AC000005072696E7465722053657474696E6724
:102AD00073000200000900D92A6C32E72BD32BC304
:102AE0002BB32BEB2A9C2B842BFC2AF22A02692E77
:102AF0000000446562756767696E6700032B024DCD
:102B000031000043616C6962726174696F6E204DBF
:102B1000656E750003102702001B2B262B1F2B2D23
:102B20002B00000000003E2B00000000006C6F61D5
:102B300064656420662E20454550524F4D00436F1A
:102B40006E66696775726174696F6E0003102702A3
:102B500000532B5E2B572B652B0000000000762BBB
:102B6000000000000073746F72656420696E204578
:102B70004550524F4D00436F6E66696775726174C0
:102B8000696F6E008B2B03070400004C6F6164209B
:102B900066726F6D20454550524F4D00A32B0306C2
:102BA00004000053746F726520746F2045455052C5
:102BB0004F4D00BA2B02F62B0000457874727564F5
:102BC000657200CA2B02FD2D0000466565647261C6
:102BD000746500DA2B02292E0000416363656C6581
:102BE000726174696F6E00EE2B02492D000047651B
:102BF0006E6572616C000200001000FD2B6C3235B6
:102C00002D212D0F2DFE2CE92CBA2CD22CA32C908B
:102C10002C7C2C6B2C5A2C452C302C1D2C242C0459
:102C20002F040000504944204D61783A2558440053
:102C3000372C04260400004472697665204D6178C3
:102C40003A25584D004C2C04250400004472697646
:102C500065204D696E3A25586D00612C04240400EE
:102C60000050494420443A25586400722C0423043F
:102C7000000050494420493A25586900832C042219
:102C800004000044542F50494420503A2558700005
:102C9000972C042D040000436F6E74726F6C3A25FC
:102CA000586800AA2C0446040000416476616E63F3
:102CB00065206C696E3A25586C00C12C044D0400E7
:102CC000005761697420556E6974733A2558556DC3
:102CD0006D00D92C044C04000057616974205465C0
:102CE0006D702E255854024300F02C042E04000071
:102CF000537461622E54696D653A25587700052D2D
:102D0000042A040000416363656C3A2558410016AB
:102D10002D042B0400004D61782046523A25584678
:102D200000282D042C040000537461727420465254
:102D30003A255866003C2D04290400005374657040
:102D4000732F4D4D3A255365000200000400502DAD
:102D50006C32852D6D2D582D5F2D02992D00004D63
:102D600061782E20496E61637469766500742D0266
:102D7000CB2D00005374657070657220496E6163DD
:102D800074697665008C2D0410040000426175643E
:102D9000726174653A256F63000358040200A02D28
:102DA000AB2DA42DB22D0000000000BC2D000000B2
:102DB00000005B735D20303D4F6666004469732EF2
:102DC0002041667465723A25697000032004020090
:102DD000D22DDD2DD62DE42D0000000000EE2D00BB
:102DE000000000005B735D20303D4F666600446963
:102DF000732E2041667465723A25697300020000E3
:102E00000300042E6C321A2E0A2E112E0413040015
:102E100000486F6D653A25665A00212E041604009D
:102E2000004D61783A25667A000200000400302ED9
:102E30006C32582E482E382E3F2E040E0400004AC5
:102E400065726B3A25616A004F2E040D0400004D37
:102E50006F76653A25615A005F2E040A040000501F
:102E600072696E743A25617A000200000500702EC6
:102E70006C32B32EA02E8D2E7A2E812E03350400B7
:102E8000004472792072756E3A25646400942E03B2
:102E9000340400004572726F7273203A2564650035
:102EA000A72E0333040000496E666F2020203A25C8
:102EB000646900BA2E03320400004563686F202065
:102EC000203A25646F00CD2E02DA2E0000534420F4
:102ED00043617264204D656E75000200000600E1DA
:102EE0002E6C323B2F282F122F002FED2EF42E03A5
:102EF000F403010244656C6574652066696C6500C5
:102F0000072F025A2F020053746F70205072696E9F
:102F10007400192F03F7030400436F6E74696E7514
:102F200065205072696E74002F2F03F6030204505F
:102F300061757365205072696E7400422F03F5034A
:102F4000010253656C6563742053442046696C65C7
:102F5000000100000100582F6C32020000030061E4
:102F60002F7C2F722F672F6E2F0354240200596578
:102F70007300792F03E80300004E6F00832F0100D8
:102F800000000053746F70205072696E7400952FAA
:102F900002A62F000041646A7573742046616E209A
:102FA0007370656564000200000700AD2F6C322469
:102FB000301030FB2FE62FD12FBB2FC22F031E0462
:102FC00000005365742046616E2031303025252580
:102FD00000D82F031D0400005365742046616E2045
:102FE000373525252500ED2F031C0400005365749B
:102FF0002046616E203530252525000230031B0454
:1030000000005365742046616E2032352525250069
:103010001730031A0408005475726E2046616E2042
:103020004F6666002B30045204000046616E207328
:10303000706565643A254673252525000200000A5F
:103040000043306C32A1308830FF30EC30D2305841
:1030500032BA3012310200000A005C306C32A1300A
:103060008830FF30EC30D23058327030BA30123104
:10307000773003B20F0000556E6C6F636B2046759E
:103080006C6C204D656E75008F300448040000465E
:103090006C6F772020526174653A256F662525256F
:1030A00000A830041F04000053706565642052615D
:1030B00074653A256F6D25252500C1300342040053
:1030C0001044697361626C65205374657070657239
:1030D0007300D930033804000053687574204F66BC
:1030E0006620414C4C20486561747300F3300347FF
:1030F0000400005072656865617420414253000607
:103100003103370400005072656865617420504CCB
:1031100041001931033604000041545820706F7784
:103120006572206F6E2F6F6666000200000300312B
:10313000316C3235313C31043D0400004E4F5A2091
:1031400054656D703A20202545300243000200008E
:10315000060054316C328A31603158322232763175
:1031600067310421040000482E20526164697573A0
:10317000203A256F68007D3103AC0F000053657461
:10318000205A204F726967696E00913102A23100A6
:103190000046756C6C2043616C6962726174696F82
:1031A0006E000200000400A9316C32DF31CA31B177
:1031B00031B83103B10F0000426567696E20436189
:1031C0006C6962726174696F6E00D13103B50F0072
:1031D000004245442041524520434C45414E00E6C3
:1031E0003103B40F00004D414B452053555245204B
:1031F0004E4F5A5A4C45202600020000060000326D
:103200006C3258324632343222320C32133202855A
:10321000320000457874722E20706F736974696F84
:103220006E00293202E63300005A20506F73697431
:10323000696F6E003B32023B3400005920506F73BF
:103240006974696F6E004D3202903400005820504E
:103250006F736974696F6E005F3203FD030000488D
:103260006F6D65205072696E74657200733203E889
:1032700003000050726576696F7573205363726541
:10328000656E20010003F00304008C32A932A232E3
:103290009B329432B0320000000000BE32000000C9
:1032A0000000CF320000000000DE3200000000000D
:1032B000255566206D207072696E74656400204526
:1032C0003A2565632F25456302437E256F43003110
:1032D00020636C69636B203D2031206D6D00453AA1
:1032E000257833206D6D0003FC030400EE320B33B0
:1032F0000433FD32F63212330000000000133300B5
:103300000000000023330000000000333300000001
:103310000000004D617820656E6473746F703A250B
:10332000735A004D696E20656E6473746F703A2530
:10333000737A005A3A257832206D6D0003FB03043E
:103340000043336033593352334B3367330000004B
:103350000000683300000000007833000000000027
:1033600088330000000000004D617820656E6473B2
:10337000746F703A257359004D696E20656E6473E1
:10338000746F703A25737900593A257831206D6D44
:103390000003FA0304009833B533AE33A733A033E8
:1033A000BC330000000000BD330000000000CD333E
:1033B0000000000000DD330000000000004D6178D7
:1033C00020656E6473746F703A257358004D696E92
:1033D00020656E6473746F703A25737800583A25CF
:1033E0007830206D6D0003EF030400ED330A3403E1
:1033F00034FC33F5331134000000000012340000B7
:103400000000002234000000000032340000000000
:1034100000004D617820656E6473746F703A257397
:103420005A004D696E20656E6473746F703A25732F
:103430007A005A3A257832206D6D0003EE030400BD
:1034400042345F34583451344A346634000000004A
:10345000006734000000000077340000000000879F
:10346000340000000000004D617820656E647374C4
:103470006F703A257359004D696E20656E647374E0
:103480006F703A25737900593A257831206D6D00B7
:1034900003ED0304009734B434AD34A6349F34BB39
:1034A000340000000000BC340000000000CC3400F8
:1034B00000000000DC340000000000004D617820B6
:1034C000656E6473746F703A257358004D696E2091
:1034D000656E6473746F703A25737800583A257876
:1034E00030206D6D000000000400EC340935023519
:1034F000FB34F434103500000000001635000000E5
:1035000000002A3500000000002E350000000000F9
:10351000255566206D00546F74616C2046696C619E
:103520006D656E7420557365640025557400546F85
:1035300074616C205072696E74696E672054696D95
:1035400065000000000400493566355F3558355187
:10355000356D350000000000773500000000008563
:10356000350000000000973500000000004861634E
:103570006B6572204832005072696E746572204D1E
:103580006F64656C00465720446174653A203230A0
:103590003137313032360046572056657273696FC5
:1035A0006E3A20302E39322E32000000000400B175
:1035B00035CE35C735C035B935D5350000000000EA
:1035C000D9350000000000E2350000000000EB35B6
:1035D0000000000000256F73005A3A257832206DF4
:1035E0006D00593A257831206D6D00583A257830B4
:1035F000206D6D000000000400FB35183611360AFE
:103600003603361F3600000000002336000000009D
:10361000002C3600000000004536000000000025A8
:103620006F73005A3A257832206D6D0053706565CE
:10363000643A256F6D25252520466C6F773A256FF6
:1036400066252525004E4F5A3A2565632054617240
:103650006765743A25456300000000000000000023
:10366000000000FF0000010000000A0B02090C0D21
:103670000E08070304010000000000000000000025
:10368000000000000000000000000000000000003A
:1036900000000000121110000000000000000000F7
:1036A0000000000000000000000000000000010217
:1036B0001020200808102040102040800201020144
:1036C00008040201010204081020408080402010FC
:1036D0000804020180040201804020100804020155
:1036E00008040201010204081020408001020408BD
:1036F0001020408005050505070508080808020296
:1037000002020A0A0808040404040101010101017B
:1037100001010303030303030303040707070C0C5E
:103720000C0C0C0C0C0C0202020206060606060625
:1037300006060B0B0B0B0B0B0B0B000020002300E2
:10374000260029002C002F00320000010000030198
:103750000601090100002200250028002B002E0090
:103760003100340002010000050108010B010000D6
:103770002100240027002A002D0030003300010121
:103780000000040107010A01024E414E494E49540E
:1037900059494E46CDCCCC3D0AD7233C17B7D1383A
:1037A00077CC2B329595E6241FB14F0A00002041BB
:1037B0000000C84200401C4620BCBE4CCA1B0E5A2A
:1037C000AEC59D741D766CB04FBB7CFA11241FBE34
:1037D000CFEFD1E2DEBFCDBF00E00CBF13E0A0E031
:1037E000B2E0E0E1F8E102E00BBF02C007900D9209
:1037F000A633B107D9F72EE1A6E3B3E001C01D92CD
:10380000A932B207E1F717E3CCECD7E300E006C03A
:1038100022970109FE010BBF0F948107C43CD10719
:1038200080E00807A9F70E9442FF0D94060C0C9453
:103830000000CF93DF9300D01F92CDB7DEB744E0F6
:1038400050E0BC01CE0101960F94C20B69817A81D0
:103850008B819C810F900F900F900F90DF91CF91F3
:103860000895179A0895169A0895159A089588E468
:1038700093E0DFCFCF92DF92EF92FF92CF93DF936F
:1038800000D01F921F92CDB7DEB76B017C01609311
:1038900031187093321880933318909334180E9423
:1038A000B598C982DA82EB82FC8244E050E065E799
:1038B00073E0CE0101960F94E40B23E0B701A6015B
:1038C00084EC94E00E94894C0E94FB4F682F88E6AC
:1038D00090E06D830F94D20B6D81681721F088E61C
:1038E00090E00F94ED0B0F900F900F900F900F90B2
:1038F000DF91CF91FF90EF90DF90CF900895CF931D
:10390000DF931F92CDB7DEB7BC018DE793E00F9434
:10391000000C0E94FB4F682F88E690E069830F94AB
:10392000D20B6981681739F088E690E00F90DF913B
:10393000CF910D94ED0B0F90DF91CF910895CF9320
:10394000DF931F92CDB7DEB7BC018FE793E00F94F2
:10395000000C0E94FB4F682F88E690E069830F946B
:10396000D20B6981681739F088E690E00F90DF91FB
:10397000CF910D94ED0B0F90DF91CF910895CF93E0
:10398000DF931F92CDB7DEB7BC0181E893E00F94BF
:10399000000C0E94FB4F682F88E690E069830F942B
:1039A000D20B6981681739F088E690E00F90DF91BB
:1039B000CF910D94ED0B0F90DF91CF910895CF93A0
:1039C000C82F809147048823D1F0109247040E94A9
:1039D000976590919002915090939002911109C037
:1039E00080919102833010F40E943E6585E08093BF
:1039F00090026C2F83E79CE1CF910C9403F8CF9158
:103A0000089580910E06882349F00E94416F80E05E
:103A1000D6DF83E79CE10E9402F8F3CF08954F922E
:103A20005F926F927F928F929F92AF92BF92CF924E
:103A3000DF92EF92FF920F931F93CF93DF9300D00B
:103A40001F92CDB7DEB78C018091AB189091AC1866
:103A5000A091AD18B091AE1889839A83AB83BC83D3
:103A6000C090AF18D090B018E090B118F090B21894
:103A70008090B3189090B418A090B518B090B61874
:103A80009C01AD01BC01CD010F94B30681110FC1A2
:103A900049805A806B807C80E89477F82FEF3FEF65
:103AA0004FE75FE7C301B2010F94B30681110BC06A
:103AB0002FEF3FEF4FE75FE7C301B2010F946003C1
:103AC00018160CF4F4C0A7019601C701B6010F94B3
:103AD000B3068111ECC026013701E89477F82FEF87
:103AE0003FEF4FE75FE7C301B2010F94B3068111C7
:103AF0000BC02FEF3FEF4FE75FE7C301B2010F9419
:103B0000600318160CF4D3C0A5019401C501B401DB
:103B10000F94B3068111CBC024013501E89477F8E6
:103B20002FEF3FEF4FE75FE7C301B2010F94B306FA
:103B300081110BC02FEF3FEF4FE75FE7C301B201E9
:103B40000F94600318160CF4B2C0209183183091C2
:103B50008418409185185091861869817A818B81EB
:103B60009C810F94FC022B013C012091871830911D
:103B700088184091891850918A18C701B6010F948E
:103B8000FC026B017C0120918B1830918C184091C4
:103B90008D1850918E18C501B4010F94FC024B0191
:103BA0005C0180910B19882329F020E732E441E27F
:103BB0005DE304C020E030E040E85FE3C301B20110
:103BC0000F940806AB01BC0122E086EA97E10E944F
:103BD000C64C80910B19882329F020E732E441E29A
:103BE0005DE304C020E030E040E85FE3C701B601D8
:103BF0000F940806AB01BC0122E08EE997E10E9418
:103C0000C64C80910B19882329F020E732E441E269
:103C10005DE304C020E030E040E85FE3C501B401AB
:103C20000F940806AB01BC0123E08AE997E10E94EA
:103C3000C64C6091C3187091C4188091C5189091BA
:103C4000C6180F9433042091071930910819409138
:103C5000091950910A190F94080620910B19222373
:103C600029F020E732E441E25DE304C020E030E0E7
:103C700040E85FE30F940806AB01BC0124E086E94D
:103C800097E10F900F900F900F90DF91CF911F91C0
:103C90000F91FF90EF90DF90CF90BF90AF909F90EB
:103CA0008F907F906F905F904F900C94894CC801DB
:103CB0000E94AF4A4ACFCF92DF92EF92FF92CF930A
:103CC000DF93EC01893191053CF0C53F81E0D807D5
:103CD0002CF0C4EFD1E002C0C9E1D0E0BE018827DA
:103CE00077FD8095982F0F9433046B017C016091D0
:103CF000BB177091BC17882777FD8095982F0F947C
:103D000033049B01AC01C701B6010F9467039B010B
:103D1000AC016091BD177091BE178091BF17909153
:103D2000C0170F9408066093BD177093BE17809359
:103D3000BF179093C017D093BC17C093BB17BE0199
:103D400089E797E1DF91CF91FF90EF90DF90CF90DF
:103D50000C94714BCF92DF92EF92FF926B017C013A
:103D600020E030E040E752E40F94600387FD11C08B
:103D700020E030E046E153E4C701B6010F9494051A
:103D800018166CF4C12CD12C86E1E82E83E4F82EB1
:103D900006C0C12CD12C90E7E92E92E4F92EC092F6
:103DA0003118D0923218E0923318F092341822E091
:103DB000B701A60180E697E1FF90EF90DF90CF90EA
:103DC0000C94894C8F929F92AF92BF92CF92DF92C8
:103DD000EF92FF92CF93DF93EC018931910534F09C
:103DE000893C91052CF0C8ECD0E002C0C9E1D0E0DC
:103DF000D093BA17C093B917E0913603F091370307
:103E0000E258FF4FC080D180E280F38020E030E0B4
:103E1000A901C701B6010F946003AE01662757FDE3
:103E20006095762F18165CF0CB01BA010F9433041D
:103E30002AE037ED43E25CE30F94080624C0CB018F
:103E4000BA010F9433042AE037ED43E25CE30F94A8
:103E5000080620E030E040E850E40F9408064B01EB
:103E60005C01A7019601C701B6010F9408062BED6E
:103E70003FE049E450E40F9408069B01AC01C50102
:103E8000B4010F9467036093A5027093A602809318
:103E9000A7029093A802BE018BE697E1DF91CF9134
:103EA000FF90EF90DF90CF90BF90AF909F908F905A
:103EB0000C94714BCF93DF9320917F1897FD0DC029
:103EC000EC018F3F910519F014F0CFEFD0E020976F
:103ED00021F0286020937F1805C0277F20937F184A
:103EE000C0E0D0E061118DDD8091671790E0C817C8
:103EF000D90729F0BE0186E597E10E94714BC09376
:103F00006717DF91CF9108954F925F926F927F92E2
:103F10008F929F92AF92BF92CF92DF92EF92FF92D9
:103F2000CF93DF9300D01F92CDB7DEB72FE632E1FB
:103F300043E85AE36091A3177091A4178091A517E5
:103F40009091A6170F9408066B017C0181E890E020
:103F500070DC9B01AC01C701B6010F94FC02AB0100
:103F6000BC0122E084E497E10E94C64C82E397E121
:103F70000E94764AE0910A02F0910B0220E030E0C4
:103F800040E751E463857485858596850F94940593
:103F900018160CF46BC020E030E0A9018DE790E02A
:103FA00029833A834B835C830F94DA0B4B015C01CA
:103FB00029813A814B815C81820E931EA41EB51E1D
:103FC000C501B40120E831E541E050E00F94340729
:103FD00060E87EEA8EEF9FEF0F94CF066B017C01C5
:103FE000C80CD91CEA1CFB1CBA01A90185E397E1A6
:103FF0000E94974BC701B60120E13EE040E050E04F
:104000000F94340749015A01BA01A9018BE297E1E3
:104010000E94974BA0EFB1EFA50194010F947D078B
:104020006C0D7D1D8E1D9F1D2CE330E040E050E0A7
:104030000F943407BA01A90183E297E10E94974BDC
:104040008EE197E10F900F900F900F90DF91CF913D
:10405000FF90EF90DF90CF90BF90AF909F908F90A8
:104060007F906F905F904F900C948E4A0E94D3FC8B
:10407000C090A717D090A817E090A917F090AA17A2
:104080006C197D098E099F0928EE33E040E050E06D
:104090000F94120783CF811102C08EE207C08130D6
:1040A00011F48DE203C0823019F48CE20C9493FD7C
:1040B0000895EAE0F1E080818860808380818061FA
:1040C000808380818062808364E670E08EE20E945B
:1040D00093FD64E670E08DE20E9493FD62E870E07B
:1040E0008CE20E9493FDE1E2F1E08081887F8160B3
:1040F0008083089567FD43C08230E9F028F4882367
:1041000041F0813061F03BC0833009F1843059F1D6
:1041100036C0662311F0A19A69C0A19867C080914A
:104120000801662311F0806801C08F778093080131
:1041300047FF3AC05FC080910801662311F0806498
:1041400001C08F7B8093080147FF34C055C0809128
:104150000801662311F0886001C0877F8093080101
:1041600047FF32C046C080910501662311F080648C
:1041700001C08F7B8093050147FF2EC03CC047FDE7
:104180003BC08230B9F028F4882341F0813061F0DF
:1041900008958330C9F08430F9F00895442311F074
:1041A000A09A0895A0980895442311F0A29A089522
:1041B000A298089580910801442311F0806201C003
:1041C0008F7D80930801089580910801442311F0A8
:1041D0008061F7CF8F7EF5CF80910501442311F0E8
:1041E000806401C08F7B80930501089547FFD6CF7F
:1041F00008950895089508950895643079F028F495
:10420000613041F0623041F00895683051F0603122
:1042100041F0089540E003C040E004C041E060E0A8
:1042200002C041E061E066CFCF93DF938FEF96E16C
:104230000E948E4A62B36695617070E086EA97E1EB
:104240000E94654B62B3617070E08CE197E10E945F
:10425000714BC6E0D1E08881992787FD9095692F41
:10426000661F6627661F70E087E197E10E94654B35
:1042700062B362FB662760F970E08CE197E10E940F
:10428000714B688166FB662760F970E084E197E115
:104290000E94654B688165FB662760F970E08CE1E0
:1042A00097E10E94714B688163FB662760F970E0BB
:1042B00080E197E10E94654B68816295617070E0D2
:1042C0008CE197E10E94714BC3E0D1E0688166FB0D
:1042D000662760F970E08CE097E10E94654B688189
:1042E00066FB662760F970E08CE197E1DF91CF9182
:1042F0000C94714BFF920F931F93CF93DF9300D0D9
:104300001F921F92CDB7DEB785E0E8EFF2E0DE0145
:10431000119601900D928A95E1F7989A9A9A809158
:10432000070180628093070180910701806180937B
:104330000701809104018064809304018E010F5F66
:104340001F4FF12CF80161918F018F2D56DFF394EF
:10435000F5E0FF12F7CF0F900F900F900F900F9096
:10436000DF91CF911F910F91FF9008950C941273DC
:104370000E94FD7220910802309109028217930772
:1043800024F4909309028093080208956091080232
:1043900070910902809106029091070268177907CF
:1043A00044F4709307026093060289EA97E10C9443
:1043B000714B0895CF93C82F69E170E080E39DE1D0
:1043C0000E9467FA6C2F80E39DE10E9408FA60E08A
:1043D00080E39DE10E9468FA882329F089EE9BE042
:1043E000CF910C948E4ACF910895CF93DF93D82F1D
:1043F000C62F69E170E080E39DE10E9467FA6D2FAE
:1044000080E39DE10E9408FA6C2F80E39DE10E9409
:1044100008FA80E39DE10E947AFA882331F08AEC61
:104420009BE0DF91CF910C948E4ADF91CF9108955C
:104430001F93CF93DF93182FBDDF41E050E069E178
:1044400070E080E39DE10E945BFA80E39DE10E94C1
:10445000B1F9892BA1F080E39DE10E94B9F9EC014B
:10446000612F70E080EC9BE00E94654BBE017727D6
:1044700087EB9BE0DF91CF911F910C94714B89E901
:104480009BE0DF91CF911F910C948E4A84E79BE0D3
:104490000E948E4A80E39DE10E9446FA8FE0C8DFC9
:1044A00081E3C6DF80E2C4DF6CE980E29EDF80E268
:1044B000BFDF82E2BDDF60E482E297DF82E2B8DF45
:1044C00085E2B6DF60E085E290DF85E2B1DF83E27E
:1044D000AFDF60E383E289DF83E2AADF84E2A8DF63
:1044E0006AE484E282DF84E2A3DF80E3A1DF60E2AA
:1044F00080E37BDF80E39CDF81E39ADF82E398DF68
:1045000064E182E372DF82E393DF83E391DF60E0C3
:1045100083E36BDF83E38CDF84E38ADF60E084E3A3
:1045200064DF84E385DF86E383DF62E386E35DDFC8
:1045300086E37EDF87E37CDF60E087E356DF87E3A7
:1045400077DF88E375DF60E188E34FDF88E370DFC2
:1045500089E36EDF8AE36CDF62E38AE346DF8AE3A6
:1045600067CF81E365DF85E363DF89E361DF8DE2A8
:104570005FCF6DE08CE195E00E94B1716AE08CE163
:1045800095E00C94B171E0913603F091370342A9A4
:1045900053A964A975A922E083E997E10E94C64C5A
:1045A000E0913603F091370346A957A960AD71AD8C
:1045B00020E088E897E10E94C64CE0918F02EF3F2F
:1045C00029F4E0913603F0913703E081F0E0EC59F3
:1045D000F84E608170E08FE897E10E94654BC9CF8B
:1045E0002F923F924F925F926F927F928F929F9203
:1045F000AF92BF92CF92DF92EF92FF920F931F93F1
:10460000CF93DF93CDB7DEB729970FB6F894DEBF0F
:104610000FBECDBF5C01DC0116968D919C91179762
:104620008C38910509F48BC608F0E7C082359105F6
:1046300009F42FC408F08AC08A31910509F4D1C267
:1046400008F03FC08531910509F449C278F4823100
:10465000910509F423C28431910509F424C24197DC
:1046600011F00C94153317981698D0C58731910521
:1046700009F46DC208F44FC28831910509F495C25E
:10468000499711F00C94153360E080E199E1299687
:104690000FB6F894DEBF0FBECDBFDF91CF911F9153
:1046A0000F91FF90EF90DF90CF90BF90AF909F90D1
:1046B0008F907F906F905F904F903F902F900C94D1
:1046C00019B78E31910509F4E9C218F58C319105BD
:1046D00009F4BCC210F00C944C3380E199E12996A6
:1046E0000FB6F894DEBF0FBECDBFDF91CF911F9103
:1046F0000F91FF90EF90DF90CF90BF90AF909F9081
:104700008F907F906F905F904F903F902F900C9480
:1047100069BA8A32910509F41BC328F4809709F419
:10472000EAC20C9415338035910509F49DC3813597
:10473000910511F00C94153364D99B9A80918118DE
:104740008F7B80938118A39A0C944C338B36910500
:1047500011F40C944D2C38F58C35910509F4A4C452
:1047600060F48435910509F49DC308F496C385353A
:10477000910509F475C40C9415338836910509F434
:1047800048C530F48336910509F4F2C40C9415330E
:104790008936910509F427C68A36910511F40C94DF
:1047A0003C2C0C9415338337910511F40C949D2CFB
:1047B00080F48F36910511F40C946E2C823791059C
:1047C00011F40C94BB2C8D36910511F00C9415331B
:1047D0002CC68537910511F40C94BE2C10F40C9462
:1047E000F62B8737910511F40C94E92C8837910545
:1047F00011F40C942C2D0C9415338530B1E09B07EB
:1048000011F40C94363008F0B0C08F3C910511F4CF
:104810000C94D02E08F041C08A3C910511F40C9400
:10482000032E70F4883C910511F40C94522D10F075
:104830000C94A52D8E3B910509F4CBC70C94153330
:104840008C3C910511F40C945A2E10F40C94482EC3
:104850008D3C910511F40C94B62E8E3C910511F00F
:104860000C941533C50129960FB6F894DEBF0FBE20
:10487000CDBFDF91CF911F910F91FF90EF90DF900F
:10488000CF90BF90AF909F908F907F906F905F90F0
:104890004F903F902F900C944B568F3D910511F403
:1048A0000C948B2F88F48C3D910511F40C94382FC7
:1048B0008D3D910511F40C94602F813D910511F00F
:1048C0000C9415330C94182F893E910511F40C9417
:1048D000A02F40F5883E910511F00C94153360919E
:1048E0006C1770916D1788EB96E10E94654B4091B3
:1048F00068175091691760916A1770916B1722E0E1
:104900008FEA96E10E94894C10926D1710926C17F5
:10491000109268171092691710926A1710926B170D
:104920000C944C338B3F910511F40C94D92F8430A7
:10493000914011F00C94153329960FB6F894DEBF10
:104940000FBECDBFDF91CF911F910F91FF90EF90E0
:10495000DF90CF90BF90AF909F908F907F906F909F
:104960005F904F903F902F9091CD8E3521E0920730
:1049700011F40C948D31C0F58E3241E0940711F49E
:104980000C94D93098F48931A1E09A0711F40C9471
:104990008E308C32B1E09B0711F40C949E3086303F
:1049A000914011F00C9415330C9458308034F1E0A0
:1049B0009F0711F40C944B3138F48F32914011F46D
:1049C0000C9418310C941533813441E0940711F4A0
:1049D0000C944F318234914011F00C94153380E0E7
:1049E0000E943EAC0C9464318239A1E09A0711F424
:1049F0000C94783298F58836E1E09E0711F40C9417
:104A0000443238F48336914011F40C94FE310C9406
:104A10001533803931E0930711F40C945E328139FB
:104A2000914011F00C94153329960FB6F894DEBF1F
:104A30000FBECDBFDF91CF911F910F91FF90EF90EF
:104A4000DF90CF90BF90AF909F908F907F906F90AE
:104A50005F904F903F902F900C9461AA853F51E05A
:104A6000950711F40C94A83260F4843F914011F042
:104A70000C94153380E00E94125087E392E10C946D
:104A8000B332863FE1E09E0711F40C94CD328C38AE
:104A9000934011F40C94E7320C9415330E94311CAE
:104AA0000E94331C8CC280E199E129960FB6F894DC
:104AB000DEBF0FBECDBFDF91CF911F910F91FF9051
:104AC000EF90DF90CF90BF90AF909F908F907F90AE
:104AD0006F905F904F903F902F900C94ADB980E114
:104AE00099E129960FB6F894DEBF0FBECDBFDF91D6
:104AF000CF911F910F91FF90EF90DF90CF90BF90DB
:104B0000AF909F908F907F906F905F904F903F906D
:104B10002F900C949BB680E199E129960FB6F894FA
:104B2000DEBF0FBECDBFDF91CF911F910F91FF90E0
:104B3000EF90DF90CF90BF90AF909F908F907F903D
:104B40006F905F904F903F902F900C94A0B6D5013E
:104B50008D919C9197FD02C00C944C3360E080E1F4
:104B600099E10E949FC4F501EE5AFF4F6081718167
:104B700040E080E199E129960FB6F894DEBF0FBEC0
:104B8000CDBFDF91CF911F910F91FF90EF90DF90FC
:104B9000CF90BF90AF909F908F907F906F905F90DD
:104BA0004F903F902F900C94E0B980E199E12996C5
:104BB0000FB6F894DEBF0FBECDBFDF91CF911F912E
:104BC0000F91FF90EF90DF90CF90BF90AF909F90AC
:104BD0008F907F906F905F904F903F902F900C94AC
:104BE00008B7F5018081918192FD02C00C944C338D
:104BF000468D578D60A171A180917A19882311F497
:104C00000C944C334093711950937219609373193B
:104C10007093741980E599E129960FB6F894DEBF78
:104C20000FBECDBFDF91CF911F910F91FF90EF90FD
:104C3000DF90CF90BF90AF909F908F907F906F90BC
:104C40005F904F903F902F900C94E5C2D5018D91CD
:104C50009C9197FD02C00C944C33F501EE5AFF4F26
:104C60006081718180E199E129960FB6F894DEBFE9
:104C70000FBECDBFDF91CF911F910F91FF90EF90AD
:104C8000DF90CF90BF90AF909F908F907F906F906C
:104C90005F904F903F902F900C948DBAF5018081DA
:104CA000918197FD02C00C944C3360E080E199E162
:104CB0000E949FC4F501EE5AFF4F6081718180E12F
:104CC00099E129960FB6F894DEBF0FBECDBFDF91F4
:104CD000CF911F910F91FF90EF90DF90CF90BF90F9
:104CE000AF909F908F907F906F905F904F903F908C
:104CF0002F900C94EEBAD5018D919C9197FD02C036
:104D00000C944C3360E080E199E10E949FC4F5016E
:104D1000EE5AFF4F6081718180E199E129960FB6CB
:104D2000F894DEBF0FBECDBFDF91CF911F910F91E1
:104D3000FF90EF90DF90CF90BF90AF909F908F90BB
:104D40007F906F905F904F903F902F900C941CBB82
:104D5000F5012081318133FD02C00C944C3312A146
:104D6000E12EF3A0E7E0FCE0449150E04E155F0532
:104D700009F45EC032964CE0EB37F407A9F7F7FC74
:104D800057C032FF2CC0D5015E964D915D916D915B
:104D90007C9191974F3F51056105710509F0E0F451
:104DA00061E0812F0E94ABFEF501668D812F0E948C
:104DB000E4FED5015E966D917C915F97812F0E94F4
:104DC00093FDB70182EF96E10E94654BF501668D78
:104DD000778D8DEE96E112C08BE594E02BC062E0FA
:104DE000812F0E94ABFEB7018DEE96E10E94654BCC
:104DF000812F0E9419FFBC0188EE96E129960FB61B
:104E0000F894DEBF0FBECDBFDF91CF911F910F9100
:104E1000FF90EF90DF90CF90BF90AF909F908F90DA
:104E20007F906F905F904F903F902F900C94714BBC
:104E300085E294E029960FB6F894DEBF0FBECDBF91
:104E4000DF91CF911F910F91FF90EF90DF90CF9066
:104E5000BF90AF909F908F907F906F905F904F909A
:104E60003F902F900C94AF4A0E94011D0E94D3FCEA
:104E700060936E1770936F178093701790937117EC
:104E80009B9A80918118806480938118A3980C94D8
:104E90004C331092C7180C944C3381E08093C718A0
:104EA0000C944C33D5018D919C91119792FF14C0B5
:104EB0005E962D913D914D915C919197A8EEB3E056
:104EC0000F9471076093990270939A0280939B02EA
:104ED00090939C020C944C3393FFA5C0F50182A1E2
:104EE00093A1A4A1B5A182309105A105B10509F452
:104EF00066C02CF50097A105B10509F446C00197DD
:104F0000A105B10511F00C944C3329960FB6F89415
:104F1000DEBF0FBECDBFDF91CF911F910F91FF90EC
:104F2000EF90DF90CF90BF90AF909F908F907F9049
:104F30006F905F904F903F902F900C94331C833074
:104F40009105A105B10509F454C00497A105B10567
:104F500011F00C944C3329960FB6F894DEBF0FBEB7
:104F6000CDBFDF91CF911F910F91FF90EF90DF9018
:104F7000CF90BF90AF909F908F907F906F905F90F9
:104F80004F903F902F900C94C75D29960FB6F894E0
:104F9000DEBF0FBECDBFDF91CF911F910F91FF906C
:104FA000EF90DF90CF90BF90AF909F908F907F90C9
:104FB0006F905F904F903F902F900C94311C2996EA
:104FC0000FB6F894DEBF0FBECDBFDF91CF911F911A
:104FD0000F91FF90EF90DF90CF90BF90AF909F9098
:104FE0008F907F906F905F904F903F902F900C9498
:104FF000351C29960FB6F894DEBF0FBECDBFDF91EA
:10500000CF911F910F91FF90EF90DF90CF90BF90C5
:10501000AF909F908F907F906F905F904F903F9058
:105020002F900C94B95D0E94011D81E029960FB666
:10503000F894DEBF0FBECDBFDF91CF911F910F91CE
:10504000FF90EF90DF90CF90BF90AF909F908F90A8
:105050007F906F905F904F903F902F900C944D9861
:10506000D5018D919C91119792FF14C05E962D9160
:105070003D914D915C919197A8EEB3E00F9471072B
:1050800060939D0270939E0280939F029093A00272
:105090000C944C3310929D0210929E0210929F022B
:1050A0001092A0020C944C33F501808183FF0CC058
:1050B00082859385A485B5858093E7029093E80265
:1050C000A093E902B093EA02D5018C9184FF0EC04F
:1050D0001E968D919D910D90BC91A02D8093EB0219
:1050E0009093EC02A093ED02B093EE02F501808163
:1050F00085FF0CC082899389A489B5898093EF02CA
:105100009093F002A093F102B093F2020E94B5983E
:10511000D5018C9186FD02C00C944C33209136034E
:105120003091370356968D919D910D90BC91A02D95
:10513000F90181879287A387B487808129960FB66A
:10514000F894DEBF0FBECDBFDF91CF911F910F91BD
:10515000FF90EF90DF90CF90BF90AF909F908F9097
:105160007F906F905F904F903F902F900C94F95BE1
:10517000D501ED91FC911197F2FF0DC05E962D9136
:105180003D914D915C919197A8EEB3E00F9471071A
:105190006B017C0106C040E1C42E47E2D42EE12C15
:1051A000F12CE3FD0E94311CF501808184FD0E94F9
:1051B000331CD5018C9185FD0E94351C0E94D3FCC7
:1051C0002B013C014C0C5D1C6E1C7F1C0E94D3FC0F
:1051D000A3019201261B370B480B590BDA01C901B9
:1051E000803A9648A140B10518F40E94AB9DEECFDD
:1051F000D5018C9183FD1798F501808184FD169867
:10520000D5018C9185FD02C00C944C3315980C94FB
:105210004C330E946F6581110C944C330E94D3FC77
:1052200060936E1770936F17809370179093711738
:105230008091AA0283FF02C00C944C33F501808157
:10524000918193FF02C00C94383392FF0AC0868D7F
:10525000978DA0A1B1A1892B8A2B8B2B11F40C94D3
:105260003833D5018D919C91119792FD02C00C9419
:105270004C339C012227317091FF23C0232B89F0EE
:1052800011E020E030E0A9015A966D917D918D9159
:105290009C915D970F94940518160CF010E0212F47
:1052A00001C020E085010C5A1F4FF501668D778DF6
:1052B00080A191A129870F9433042985D8014C91AD
:1052C00024C0232B81F011E020E030E0A901F5019A
:1052D000628D738D848D958D0F94940518160CF046
:1052E00010E0212F01C020E0009136031091370318
:1052F000D5015E966D917D918D919C9191972987B5
:105300000F9433042985F801408129960FB6F8944B
:10531000DEBF0FBECDBFDF91CF911F910F91FF90E8
:10532000EF90DF90CF90BF90AF909F908F907F9045
:105330006F905F904F903F902F900C942D610E9442
:105340006F6581110C944C330E94D3FC60936E17EF
:1053500070936F1780937017909371178091AA02C2
:1053600083FF02C00C944C33D5018D919C91119711
:1053700092FD02C00C944C3390FF11C011E020E06C
:1053800030E0A9015A966D917D918D919C915D9728
:105390000F94940518160CF010E0412F01C040E066
:1053A000F501668D778D80A191A149870F94330413
:1053B000498529960FB6F894DEBF0FBECDBFDF91A9
:1053C000CF911F910F91FF90EF90DF90CF90BF9002
:1053D000AF909F908F907F906F905F904F903F9095
:1053E0002F900C94B35DD5018D919C9133E09695EF
:1053F00087953A95E1F7817029960FB6F894DEBF4C
:105400000FBECDBFDF91CF911F910F91FF90EF9015
:10541000DF90CF90BF90AF909F908F907F906F90D4
:105420005F904F903F902F90AEC80E946F658111A2
:105430000C944C330E94D3FC60936E1770936F17DB
:1054400080937017909371178091AA0283FF02C016
:105450000C944C3340E064E174E083E79CE10E94EB
:1054600009DB83E79CE10E945DDE0E94011D209024
:10547000360330903703F5018081918191FF09C097
:10548000EC5AFF4F2081211104C02CE0222E22E093
:10549000322E92FF1EC090FF0FC011E020E030E0DE
:1054A000A901D5015A966D917D918D919C915D9741
:1054B0000F94940518160CF010E0F501668D778DA9
:1054C00080A191A10F943304212FD1014C910E940E
:1054D0002D61F10126A937A940AD51AD62A973A98B
:1054E00084A995A90F94FB022B013C0120E030E038
:1054F000A9010F949405181664F420E030E040EA06
:1055000050E4C301B2010F94600387FF0EC00C94F6
:105510004C3320E030E040EA50ECC301B2010F947C
:105520009405181614F40C944C3399249394D101D7
:10553000D0962D913C91D1979E968D919C919F975D
:10554000821793070CF0912C0E94D3FC6D837E830D
:105550008F83988710E0412C512C32010E94D3FC9C
:1055600069837A838B839C8360936E1770936F1724
:105570008093701790937117DC01CB012D813E81D0
:105580004F815885821B930BA40BB50B893E93402A
:10559000A105B10558F080E00E94C32289819A815B
:1055A000AB81BC818D839E83AF83B88781E00E94ED
:1055B000DF1C80913603909137032816390609F0D5
:1055C00064C0D1019396ED90FC9094971E141F0433
:1055D0000CF05BC0111158C0992009F477C0919666
:1055E0006D917C919297882777FD8095982F0F94E5
:1055F00033049B01AC01F10162A973A984A995A9A7
:105600000F949405181614F00C94453366277727E9
:105610006E197F09882777FD8095982F0F943304A2
:105620002091F3023091F4024091F5025091F6027C
:105630000F9408060F9400041F921F92D1015296F6
:105640002C9152972F9351962C9151972F935096BE
:105650002C9150972F931F962C912F935B016C01E7
:10566000E12CF12C870120E030E0A90160E070E03E
:10567000CB010E9440900F900F900F900F900F90D1
:105680000F9011E00C94453311E041145104610472
:10569000710409F050C09920F1F020E030E040E8BA
:1056A0005FE3F10166A977A980AD91AD0F94FB028C
:1056B0009B01AC01D101D2966D917D918D919C9110
:1056C000D5970F94940587FF1FC045CF411451040F
:1056D0006104710481F520E030E040E85FE3F1010E
:1056E00066A977A980AD91AD0F94FC029B01AC0136
:1056F000D101D2966D917D918D919C91D5970F940A
:10570000600318160CF427CFF101A78DB0A128EE85
:1057100033E00F946B072B013C0129813A814B81C7
:105720005C81420E531E641E751E411451046104B7
:10573000710409F413CFD301C20129813A814B814D
:105740005C81821B930BA40BB50B81159449A54377
:10575000B74708F403CF1123E1F18091360390910C
:10576000370328163906A9F5D10193966D917C91DE
:105770009497882777FD8095982F0F943304209174
:10578000F3023091F4024091F5025091F6020F9429
:1057900008060F9400041F921F92F10122892F9393
:1057A00021892F9320892F9327852F935B016C01EB
:1057B000E12CF12C870120E030E0A90160E070E0ED
:1057C000CB010E9440900F900F900F900F900F9080
:1057D0000F901092DC1C0E94D3FC60936E177093A4
:1057E0006F17809370179093711756C78091AA0214
:1057F00083FD52C70E94D3FC4B015C010E94D3FC85
:10580000681979098A099B09693E734081059105E8
:1058100038F080E00E94C3220E94D3FC4B015C015F
:1058200081E00E94DF1C00910A0210910B02D80156
:105830001B964D905D906D907C901E9720E030E01F
:1058400040EF51E4C301B2010F94940518160CF017
:1058500023C7F8012781308541855285C301B201F4
:105860000F94FB029F7720E030E040E85FE30F9465
:10587000940518161CF210C7D5018D919C911197B3
:1058800093FB662760F992FF05C05E968D919C910F
:105890005F970AC08FEF90E007C0F501618163FB5D
:1058A000662760F980E090E029960FB6F894DEBF95
:1058B0000FBECDBFDF91CF911F910F91FF90EF9061
:1058C000DF90CF90BF90AF909F908F907F906F9020
:1058D0005F904F903F902F900C945A1FD5018D915F
:1058E0009C91119792FF04C05E962C912093AA027E
:1058F00093FF12C0F50182A193A1A4A1B5A12091AB
:10590000AA02181619061A061B0614F4822B02C0E6
:10591000815082238093AA028091AA0283FFBCC691
:1059200020E040E060E070E0CB010E942D6120E0CB
:1059300040E060E070E0CB01E8CC8FEB98E10E94A2
:105940008E4A29960FB6F894DEBF0FBECDBFDF9109
:10595000CF911F910F91FF90EF90DF90CF90BF906C
:10596000AF909F908F907F906F905F904F903F90FF
:105970002F900C94841F8EE094E05EC3D5018D912E
:105980009C9197FF89C6F501EE5AFF4F60817181A6
:1059900040E083E79CE10E9482DB83E79CE129965B
:1059A0000FB6F894DEBF0FBECDBFDF91CF911F9130
:1059B0000F91FF90EF90DF90CF90BF90AF909F90AE
:1059C0008F907F906F905F904F903F902F900C94AE
:1059D0005DDE0E94011D8BED96E10E94764A3799AB
:1059E00003C082EE96E102C085EE96E10E94764AFF
:1059F00084ED96E10E94764A029B03C085EE96E113
:105A000002C082EE96E10E94764A8DEC96E10E94F9
:105A1000764A019903C082EE96E102C085EE96E1D6
:105A20000E94764A29960FB6F894DEBF0FBECDBF0E
:105A3000DF91CF911F910F91FF90EF90DF90CF906A
:105A4000BF90AF909F908F907F906F905F904F909E
:105A50003F902F900C94B922F50180819181882785
:105A60009C7081159C4009F017C6F50162A1868DD6
:105A700029960FB6F894DEBF0FBECDBFDF91CF9150
:105A80001F910F91FF90EF90DF90CF90BF90AF905C
:105A90009F908F907F906F905F904F903F902F904E
:105AA0000C943DD2E0913603F09137032081D5016B
:105AB0008D919C9191FF06C0F501EC5AFF4F8081BA
:105AC000882311F0822F01C080E0F501928192FFBE
:105AD00005C046A457A460A871A803C0412C512C4E
