:100000000C943D1C0C946E1C0C946E1C0C946E1C79
:100010000C946E1C0C946E1C0C946E1C0C946E1C38
:100020000C946E1C0C946E1C0C946E1C0C946E1C28
:100030000C946E1C0D9469030C946E1C0C946E1C35
:100040000C946E1C0C94F2D50C946E1C0C946E1CCB
:100050000C946E1C0C9463D70C9495D60C9429FECA
:100060000C946E1C0C94BBD70C94E5D70C946E1CAE
:100070000C946E1C0C946E1C0C946E1C0C946E1CD8
:100080000C946E1C0C946E1C0C946E1C0C946E1CC8
:100090000C946E1C0C946E1C0C946E1C0C9437FC0F
:1000A0000C946E1C0C946E1C0C946E1C0C946E1CA8
:1000B0000C946E1C0C946E1C0C946E1C0C946E1C98
:1000C0000C946E1C0C946E1C0C946E1C0C946E1C88
:1000D0000C946E1C0C946E1C0C946E1C0C946E1C78
:1000E0000C946E1C2C9344934493449344934493F4
:1000F0004493449344934493449344934493449348
:100100004493449344934493449344934493449337
:1001100044934493449344931B93CD92D79251922A
:100120004493FD9207934493449362923F92449385
:10013000F39244931193E992E1924493449344934C
:10014000AF92B992C392449344934493449344939B
:1001500044934493449344931B93CD92D7925192EA
:100160004493FD9207934493449362923F92449345
:10017000F39244931193E992E1924493449344930C
:10018000AF92B992C3922CB0B5B048B179B2B6BFB4
:10019000B6BFB6BFB6BFB6BFB6BFB6BFB6BFB6BFB7
:1001A000D9B10DB243B2B6BFB6BFB6BFB6BFB6BFC8
:1001B000B6BFB6BFB6BFB6BFB6BFB6BF5BB5BDB5FF
:1001C0001DB67DB6DDB63DB79DB7B6BF7DBB08B8E1
:1001D00065B8C2B81FB97CB9D9B936BAA3BA10BBD1
:1001E000B6BFB6BFB6BFB6BFB6BFDEB3ABB401B421
:1001F000C5BBF4BB5CBCC5BCDCBC14BD43BD72BD9F
:10020000C7BD1EBE73BECCBEEBBEF3BCB6BFB6BF91
:10021000B6BFB6BFB6BFB6BFB6BFB6BFB6BFB6BF36
:10022000B6BFB6BFB6BFADB3B6BFB6BFB6BFB6BF3B
:10023000B6BFB6BFB6BFB6BF62BFB6BF7AB4B6BFB1
:10024000B6BFB6BF12BF3BBFB6BFB6BFB6BFB6BF25
:100250001FB0B6BFB6BFBCB252B390B303B589FDF1
:100260008EFD93FD9DFDA7FD20FEB1FDB9FDC1FDF5
:10027000CBFDD5FDDFFDEEFDF8FD20FE02FE0CFE00
:1002800016FE4CFF4FFF3EFF42FF48FF86FF53FF25
:1002900057FF5DFF61FF65FF6BFF6FFF73FF86FF19
:1002A00079FF7DFF81FF07634236B79BD8A71A39D4
:1002B000685618AEBAAB558C1D3CB7CC5763BD6DB4
:1002C000EDFD753EF6177231BF000000803F05A8B6
:1002D0004CCDB2D44EB93836A9020C50B9918688AB
:1002E000083CA6AAAA2ABE000000803F0D941D006B
:1002F000436F6C6420657874727573696F6E2064E7
:100300006973616C6C6F77656400436F6C64206522
:100310007874727573696F6E20616C6C6F77656449
:10032000004175746F726574726163743A0053654D
:100330007474696E67206D6F746F7220637572726A
:10034000656E742E2E2E00536574204D6963726F96
:100350007374657070696E6700547269676765725F
:10036000696E67207761746368646F672E204966E1
:10037000206163746976617465642C2074686520FB
:100380007072696E7465722077696C6C2072657327
:1003900065742E0053657474696E672054687265C5
:1003A00073686F6C6420546F3A00494E5420504972
:1003B0004E3A20004D323531200020746F2000531A
:1003C000657420766F6C756D6574726963206578ED
:1003D00074727573696F6E20666F722065787472BF
:1003E00075646572200044697361626C656420768F
:1003F0006F6C756D6574726963206578747275735E
:10040000696F6E20666F72206578747275646572AC
:1004100020004D313134200048656174696E6720D9
:1004200045787472756465720050696E2063616E00
:10043000206E6F7420626520736574206279204D90
:1004400034322C206D617920696E20696E76616C82
:100450006964206F7220696E207573652E200049D3
:100460006C6C6567616C20532076616C75652066E5
:100470006F72204D3432005A2028432920746F7740
:10048000657220666C6F6F722073657420746F3AAA
:100490002000592028422920746F77657220666CED
:1004A0006F6F722073657420746F3A200058202893
:1004B000412920746F77657220666C6F6F722073AC
:1004C000657420746F3A2000526F64205261646931
:1004D00075732073657420746F3A2000473133348C
:1004E0002000506F7346726F6D53746570733A00DD
:1004F000436F6D7044656C74613A0043616C69626E
:10050000726174696F6E206D6F76656D656E7420B3
:100510006973206C696D6974656420746F20313073
:100520006D6D2E004669727374206D6F7665207450
:100530006F20746F75636820617420782C793D306A
:100540002C3020746F206175746F2D736574207268
:1005500061646975732E0043616C696272617469CC
:100560006F6E206D6F76656D656E74206973206C9B
:10057000696D6974656420746F2031306D6D2E0073
:1005800043616E6E6F742073657420726164697567
:100590007320616E6420666C6F6F722061742073CB
:1005A000616D652074696D652E0043616C696272CE
:1005B0006174696F6E20636F6465206973206C6974
:1005C0006D6974656420746F20626F74746F6D2040
:1005D000313025206F66205A20686569676874008D
:1005E00052656C617469766520706F736974696FA8
:1005F0006E696E67004162736F6C75746520706F11
:10060000736974696F6E696E670047363920005AE6
:100610003A2000593A2000583A20004F46465345A8
:100620005453204F464620425920544F4F204D5599
:100630004348205F20545259494E47204147414981
:100640004E3A200053657474696E672050726F6271
:10065000652053656E736974697669747920546F87
:100660003A005A2070726F6265206661696C656439
:10067000206F6E2073656E73697469766974793A58
:10068000200053657474696E672050726F62652034
:1006900053656E736974697669747920546F3A0092
:1006A0005A2070726F6265206661696C6564206FA4
:1006B0006E2073656E73697469766974793A200087
:1006C00053657474696E672050726F62652053655C
:1006D0006E736974697669747920546F3A005A2090
:1006E00070726F6265206661696C6564206F6E2050
:1006F00073656E73697469766974793A2000686508
:100700006865004E6577205261646975733A200010
:100710004F6C64205261646975733A200043616CC8
:1007200063756C61746564205261646975732069D6
:100730007320626164203A0053657474696E6720A7
:1007400050726F62652053656E736974697669745F
:100750007920546F3A005A2070726F62652066618A
:10076000696C6564206F6E2073656E736974697659
:100770006974793A200053657474696E6720507209
:100780006F62652053656E73697469766974792048
:10079000546F3A005A2070726F6265206661696C0E
:1007A0006564206F6E2073656E7369746976697411
:1007B000793A2000473332200050524F42452D5A9B
:1007C0004F46465345543A004733300053657474DE
:1007D000696E672050726F62652053656E7369742D
:1007E000697669747920546F3A0050726F6265734C
:1007F00020646F206E6F74206D617463682E204FCB
:100800006666206279200047333020004D31313751
:100810002043414C4942524154494F4E20434F4D91
:10082000504C4554450068656865004E6577204822
:100830006F72697A6F6E74616C205261646975734E
:100840003A20004F6C6420486F72697A6F6E746151
:100850006C205261646975733A200043616C637562
:100860006C617465642052616469757320697320DA
:100870006261643A20004D3131372043414C494296
:10088000524154494F4E204641494C454400436132
:100890006C6962726174696F6E204661696C65642F
:1008A0000053657474696E672050726F62652053DF
:1008B000656E736974697669747920546F3A005A69
:1008C0002070726F626520284852202D205A2074B3
:1008D0006F77657229206661696C6564206F6E2090
:1008E00073656E73697469766974793A20004E6530
:1008F00077205A204865696768743A004F6C642015
:100900005A204865696768743A004D313137204391
:10091000414C4942524154494F4E204641494C4571
:10092000440043616C6962726174696F6E20466154
:10093000696C65640053657474696E672050726FEA
:1009400062652053656E73697469766974792054A1
:100950006F3A005A2070726F626520284852202D2D
:100960002043656E74657220506F696E742920662D
:1009700061696C6564206F6E2073656E736974695C
:10098000766974793A200047363920005A3A2000B7
:10099000593A2000583A20004D31313720456E64D5
:1009A00073746F70204F6666736574204572726F42
:1009B00072004F464653455453204F4646204259F5
:1009C00020544F4F204D5543482E2041626F727482
:1009D000696E672E2053656E7369746976697479E0
:1009E0003A20004D3131372043414C494252415465
:1009F000494F4E204641494C45440043616C696271
:100A0000726174696F6E204661696C65640053653C
:100A10007474696E672050726F62652053656E73DF
:100A20006974697669747920546F3A005A2070723B
:100A30006F626520285A20546F776572292066619D
:100A4000696C6564206F6E2073656E736974697676
:100A50006974793A20004D3131372043414C494285
:100A6000524154494F4E204641494C454400436150
:100A70006C6962726174696F6E204661696C65644D
:100A80000053657474696E672050726F62652053FD
:100A9000656E736974697669747920546F3A005A87
:100AA0002070726F626520285920546F7765722913
:100AB000206661696C6564206F6E2073656E736972
:100AC0007469766974793A20004D31313720434199
:100AD0004C4942524154494F4E204641494C4544AD
:100AE0000043616C6962726174696F6E204661696E
:100AF0006C65640053657474696E672050726F6230
:100B0000652053656E736974697669747920546FD2
:100B10003A005A2070726F626520285820546F770F
:100B2000657229206661696C6564206F6E2073654B
:100B30006E73697469766974793A2000456E6473DE
:100B4000746F70287329206E6F7420776F726B69D1
:100B50006E672070726F7065726C79005A20005950
:100B600020005820004572726F723A20004D3131DA
:100B70003720454E4453544F50204552524F520057
:100B80004D3130342053300A4D3134302053300A47
:100B90004D313037004D31313720493243204572D5
:100BA000726F722E2041626F7274696E67004932F3
:100BB00043204572726F72202D2043616C6962720E
:100BC0006174696F6E2041626F7274656400456E76
:100BD0006473746F70287329206E6F7420776F723E
:100BE0006B696E672070726F7065726C79005A2045
:100BF000005920005820004572726F723A20004D53
:100C000031313720454E4453544F50204552524FB6
:100C100052006578656375746547436F6465202F7E
:100C200020717565756544656C74614D6F766520DE
:100C300072657475726E73206572726F7200696985
:100C40007332646820616363656C65726F6D65748F
:100C5000657220696E697469616C697A696E672E64
:100C60002E2E00616363656C65726F6D65746572CD
:100C7000206932632072656376206661696C656401
:100C80002E00616363656C65726F6D6574657220BB
:100C9000777269746520693263206661696C656486
:100CA0002E00616363656C65726F6D65746572209B
:100CB00073656E6420693263206661696C65642EB9
:100CC0000000000100250030001D000C001E002463
:100CD0000031001C000B00180023002F001B000A2D
:100CE0000017000D0047000300040022002B001A2B
:100CF0000041004200000002003500206465672EBC
:100D0000204300206D656173757265642000457233
:100D1000726F723A436F756C64206E6F7420686FE7
:100D20006C642074656D7065726174757265200005
:100D3000206D730020616674657220004572726FC9
:100D4000723A54656D702E20726169736564207407
:100D50006F20736C6F772E2052697365203D2000E1
:100D60004739310A4731452D313830463630303039
:100D70000A473930004D3131372045787472756437
:100D8000657220300A54300A4D38342050340A47F6
:100D900039310A47314531373246363030300A472B
:100DA000314535463530300A473930001C151C14A2
:100DB0000000002243141F1FC0116C11FC10AC1066
:100DC0000000000000002410180FC80E4C0ED00DBB
:100DD0000400081D900058091C01B007A801C806AE
:100DE00034023006C002C0054C036805D80318055C
:100DF0006404D004F00498047C0560040806300400
:100E0000940600042007D003AC07A8033808800329
:100E1000C408580350093003DC090803680AD802E3
:100E2000F40AB002800B88020C0C6002980C3002AD
:100E3000240DF801B00DC0013C0E8001C80E300138
:100E4000540FB800B40F2800E00F00000400401D4C
:100E5000900060091C01B007A801D00634023806D2
:100E6000C002C8054C036805D80318056404D804FB
:100E7000F00498047C05600408063004940600041D
:100E80002007D003AC07A80338088003C408580320
:100E900050093003DC090803680AE002F40AB802CA
:100EA000800B88020C0C6002980C3002240DF801B3
:100EB000B00DC0013C0E8001C80E3001540FB800C7
:100EC000B40F2800E00F000004000016D800C00690
:100ED000AC0178058002C004540348042804E803E8
:100EE000FC049803D0055003A40618037807D80221
:100EF0004C08A80220097002F4093802C80A080246
:100F00009C0BD001700C9001440D5001180EF8009C
:100F1000EC0E8800C00F00000400681D4C00500B50
:100F200094005809DC0050082401A8076C01280728
:100F3000B401C006FC017006440228068C02F005CC
:100F4000D402B8051C03880564035805AC033005BA
:100F5000F40310053C04E8048404C804CC04A80489
:100F6000140590045C057004A4055804EC053804CD
:100F7000340620047C060804C406F0030C07D803DA
:100F80005407C8039C07B003E40798032C088003A8
:100F900074087003BC085803040948034C09300363
:100FA00094091803DC090803240AF0026C0AE00221
:100FB000B40AC802FC0AB002440BA0028C0B8802DF
:100FC000D40B70021C0C5802640C4002AC0C2802BA
:100FD000F40C10023C0DF001840DD801CC0DB801C9
:100FE000140E98015C0E7001A40E4801EC0E18015D
:100FF000340FD8007C0F8800C40F0800FC0F0000DD
:1010000000000000000000000000000000000000E0
:1010100000000000000000000000000000000000D0
:10102000000000000000401F450060094F0010094B
:101030005C00C0086B0070087D0020089200D0079B
:10104000AC008007CC003007DE00E00623019006EC
:101050005E014006A601F005FF01A0056D025005E6
:10106000F30200059603B0045A046004400510041E
:101070004806C0036E077003A8082003EB09D002DE
:10108000230B8002410C3002390DE001040E900167
:10109000A20E4001170FF000690FA000A20F500030
:1010A000C60F0000DD0FB0FFEB0F60FF0400700DF6
:1010B000D8004804AC0158038002D80254038002CF
:1010C00028043802FC040002D005C801A4069801D7
:1010D000780770014C08480120091801F409F00054
:1010E000C80AC8009C0BA000700C7000440D3800AA
:1010F000180E0000EC0EA8FFC00FE8FE0400001B55
:1011000054006009640010097400C008840070086D
:101110009C002008B800D007D800800700013007E5
:101120002C01E00668019006AC0140060002F005C3
:101130006802A005E0025005740300052404B00411
:10114000F0046004DC051004E406C0030408700326
:1011500030092003780B8002600DE001A80E4001E9
:10116000680FA000C00F0000E80F60FF0400801AA5
:10117000D8009808AC012007800250065403C80527
:1011800028045805FC040005D005B004A406680432
:10119000780728044C08E8032009B003F409700319
:1011A000C80A38039C0BF802700CB002440D6802A8
:1011B000180E0802EC0E8801C00F8800F00F000026
:1011C0000000A00F5C006009690010097900C008E8
:1011D0008C007008A2002008BD00D007DE00800748
:1011E000050130073401E0066D019006B2014006AA
:1011F0000702F0056D02A005E80250057B0300051B
:101200002B04B004F8046004EB06C0033509200386
:101210007F0B8002650DE001B00E40011D0FF00054
:10122000480FC8006C0FA000ED0F60FFFE0F48FED6
:101230000000002110422063308440A550C660E7C2
:1012400070088129914AA16BB18CC1ADD1CEE1EF7B
:10125000F13112100273325222B5529442F772D613
:1012600062399318837BB35AA3BDD39CC3FFF3DECB
:10127000E36224433420040114E664C774A4448563
:10128000546AA54BB528850995EEE5CFF5ACC58D1B
:10129000D55336722611163006D776F6669556B4B3
:1012A000465BB77AA719973887DFF7FEE79DD7BC6B
:1012B000C7C448E5588668A7784008611802282303
:1012C00038CCC9EDD98EE9AFF9488969990AA92BBB
:1012D000B9F55AD44AB77A966A711A500A333A1253
:1012E0002AFDDBDCCBBFFB9EEB799B588B3BBB1A0B
:1012F000ABA66C877CE44CC55C222C033C600C41A3
:101300001CAEED8FFDECCDCDDD2AAD0BBD688D495A
:101310009D977EB66ED55EF44E133E322E511E70F2
:101320000E9FFFBEEFDDDFFCCF1BBF3AAF599F78AA
:101330008F8891A981CAB1EBA10CD12DC14EF16F5B
:10134000E18010A100C230E32004502540467067C0
:1013500060B9839893FBA3DAB33DC31CD37FE35EEC
:10136000F3B1029012F322D2323542145277625610
:1013700072EAB5CBA5A89589856EF54FE52CD50DFC
:10138000C5E234C324A01481046674476424540560
:1013900044DBA7FAB79987B8975FE77EF71DC73C8C
:1013A000D7D326F2369106B01657667676154634B0
:1013B000564CD96DC90EF92FE9C899E9898AB9AB9C
:1013C000A94458654806782768C018E1088238A300
:1013D000287DCB5CDB3FEB1EFBF98BD89BBBAB9A2C
:1013E000BB754A545A376A167AF10AD01AB32A9250
:1013F0003A2EFD0FED6CDD4DCDAABD8BADE89DC93C
:101400008D267C076C645C454CA23C832CE01CC19F
:101410000C1FEF3EFF5DCF7CDF9BAFBABFD98FF8CB
:101420009F176E367E554E745E932EB23ED10EF0EF
:101430001E7C3C3E5E2B3D3F2F5B5D3B2C2A225C9D
:10144000004D617854656D703A004469616D657452
:1014500065723A00416363656C65726174696F6EB1
:101460003A004D617853706565643A004A65726B65
:101470003A004D617842656454656D703A0050726F
:10148000696E746572547970653A44656C74610074
:101490005A54726176656C416363656C3A005954C5
:1014A000726176656C416363656C3A005854726191
:1014B00076656C416363656C3A005A5072696E746C
:1014C000416363656C3A00595072696E744163639D
:1014D000656C3A00585072696E74416363656C3A8A
:1014E000005A53697A653A005953697A653A005847
:1014F00053697A653A005A4D61783A00594D6178DE
:101500003A00584D61783A005A4D696E3A00594D8B
:10151000696E3A00584D696E3A004A65726B5859C7
:101520003A005072696E746C696E654361636865F8
:101530003A00454550524F4D3A004175746F6C6505
:1015400076656C3A005A50726F62653A0043617377
:10155000654C69676874733A00537570706F727484
:101560004C6F63616C46696C616D656E7463686134
:101570006E67653A00537570706F7274473130470B
:1015800031313A005A486F6D654469723A005948E2
:101590006F6D654469723A0058486F6D65446972B1
:1015A0003A00536F667477617265506F7765725356
:1015B00077697463683A004C43443A0046616E3A76
:1015C000005344436172643A004865617465644243
:1015D00065643A004D6978696E6745787472756420
:1015E00065723A004E756D45787472756465723A2D
:1015F00000496E7075744275666665723A004261A4
:101600007564726174653A004E6F20636173652082
:101610006C6967687473004D313134200064656C07
:101620006179203130306D732E00686F6D654178BF
:1016300069732000686F6D6541786973202F207190
:101640007565756544656C74614D6F76652072656E
:101650007475726E73206572726F7200486F6D657B
:101660002044656C7461005072696E7465723A3A18
:10167000736574757020006D6F7665546F52656187
:101680006C202F20717565756544656C74614D6FB4
:1016900076652072657475726E73206572726F72F2
:1016A000006D6F7665546F202F20717565756544E8
:1016B000656C74614D6F76652072657475726E73BA
:1016C000206572726F720053746570706572204489
:1016D000697361626C6564004B696C6C6564006978
:1016E00073506F736974696F6E416C6C6F7765646A
:1016F00020005344206572726F72206669786564B9
:10170000005344206572726F7220646964206E6FAA
:1017100074207265636F76657221005344205265B0
:101720006164204572726F720055706C6F616469FC
:101730006E672E2E2E00005344207072696E742046
:1017400073746F7070656420627920757365722E92
:10175000005344206361726420696E73657274651E
:1017600064005344204361726420696E736572742F
:10177000656400534420436172642072656D6F7626
:10178000656400534420636172642072656D6F76F6
:10179000656400457874722E00436F6E6669673A1F
:1017A000004F6E6520686561746572207365656DB4
:1017B00073206465636F75706C65642066726F6D0D
:1017C00020746865726D6973746F72202D2064696E
:1017D0007361626C696E6720616C6C20666F722049
:1017E000736166657479210048656174657220646F
:1017F00065636F75706C6564004372656174696FD1
:101800006E206661696C6564004469726563746F1B
:10181000727920637265617465640044656C6574F7
:10182000696F6E206661696C65640046696C65204D
:1018300064656C6574656400446F6E6520736176E1
:10184000696E672066696C652E0057726974696EEF
:101850006720746F2066696C653A20006F70656E52
:10186000206661696C65642C2046696C653A2000CD
:101870004E6F74205344207072696E74696E6700F5
:101880005344207072696E74696E67206279746562
:10189000200066696C652E6F70656E206661696CEC
:1018A00065640046696C652073656C656374656486
:1018B000002053697A653A0046696C65206F70654F
:1018C0006E65643A00456E642066696C65206C69DB
:1018D000737400426567696E2066696C65206C6987
:1018E0007374006572726F722077726974696E67C3
:1018F00020746F2066696C6500534420696E6974BA
:10190000206661696C00616476616E6365204C20BD
:101910005B303D6F66665D006578747275646572F4
:1019200020636F6F6C6572207370656564205B3037
:101930002D3235355D0064697374616E63652074A2
:101940006F2072657472616374207768656E2068B9
:10195000656174696E67205B6D6D5D0074656D70A7
:101960002E20666F722072657472616374696F6E87
:10197000207768656E2068656174696E67205B43D7
:101980005D0074656D702E2073746162696C697A94
:10199000652074696D65205B735D00592D6F666607
:1019A000736574205B73746570735D00582D6F668A
:1019B00066736574205B73746570735D0050494491
:1019C000206D61782076616C7565205B302D323535
:1019D000355D0050494420442D6761696E005049CF
:1019E0004420492D6761696E0050494420502D679D
:1019F00061696E2F646561642D74696D650050497D
:101A000044206472697665206D696E0050494420F7
:101A10006472697665206D61780068656174206D17
:101A2000616E61676572205B302D335D00616363B9
:101A3000656C65726174696F6E205B6D6D2F735E8E
:101A4000325D0073746172742066656564726174DE
:101A500065205B6D6D2F735D006D61782E2066656E
:101A6000656472617465205B6D6D2F735D007374C6
:101A700065707320706572206D6D00436F72722EF9
:101A800020646961676F6E616C2043205B6D6D5DE2
:101A900000436F72722E20646961676F6E616C2003
:101AA00042205B6D6D5D00436F72722E2064696130
:101AB000676F6E616C2041205B6D6D5D004D6178DC
:101AC000207072696E7461626C6520726164697500
:101AD00073205B6D6D5D00546F776572205A2065D1
:101AE0006E6473746F70206F6666736574205B73C9
:101AF000746570735D00546F776572205920656E50
:101B00006473746F70206F6666736574205B7374A2
:101B10006570735D00546F776572205820656E6440
:101B200073746F70206F6666736574205B73746581
:101B300070735D005365676D656E74732F732066F7
:101B40006F722074726176656C005365676D656EA7
:101B500074732F7320666F72207072696E74696E71
:101B60006700486F72697A6F6E74616C20726F647F
:101B70002072616469757320617420302C30205BA1
:101B80006D6D5D00446961676F6E616C20726F649A
:101B9000206C656E677468205B6D6D5D00486F6DCD
:101BA000696E67206665656472617465205B6D6D42
:101BB0002F735D004D61782E2066656564726174D7
:101BC00065205B6D6D2F735D0053746570732070BD
:101BD0006572206D6D0054726176656C206163637F
:101BE000656C65726174696F6E205B6D6D2F735EDD
:101BF000325D00416363656C65726174696F6E206C
:101C00005B6D6D2F735E325D004D61782E206A65CD
:101C1000726B205B6D6D2F735D005A206D617820B3
:101C20006C656E677468205B6D6D5D0059206D6139
:101C300078206C656E677468205B6D6D5D00582060
:101C40006D6178206C656E677468205B6D6D5D00FA
:101C50005A20686F6D6520706F73205B6D6D5D003D
:101C60005920686F6D6520706F73205B6D6D5D002E
:101C70005820686F6D6520706F73205B6D6D5D001F
:101C800053746F7020737465707065722061667430
:101C9000657220696E6163746976697479205B6D21
:101CA000732C303D6F66665D004D61782E20696E45
:101CB0006163746976652074696D65205B6D732C52
:101CC000303D6F66665D005072696E7465722061AA
:101CD0006374697665205B735D0046696C616D6550
:101CE0006E74207072696E746564205B6D5D004176
:101CF0006476616E63656420557365720042617538
:101D00006472617465004550523A33200045505268
:101D10003A3220004550523A3120004550523A3074
:101D2000200050726F746F636F6C207665727369F8
:101D30006F6E206368616E6765642C2075706772D2
:101D40006164696E6700436F6E666967757261747E
:101D5000696F6E20726573657420746F20646566A8
:101D600061756C74732E00436F6E6669677572617E
:101D700074696F6E206C6F616465642066726F6D4C
:101D800020454550524F4D2E00436F6E6669677572
:101D9000726174696F6E2073746F72656420746F02
:101DA00020454550524F4D2E004175746F6C65763D
:101DB000656C206163746976652028312F302900B5
:101DC0005A2D70726F6265205933005A2D70726FF0
:101DD0006265205833005A2D70726F626520593247
:101DE000005A2D70726F6265205832005A2D707241
:101DF0006F6265205931005A2D70726F62652058EC
:101E000031005A2D70726F626520782D792D7370B4
:101E1000656564205B6D6D2F735D005A2D70726F68
:101E20006265207370656564205B6D6D2F735D0066
:101E30005A2D70726F6265206F66667365742079C3
:101E4000205B6D6D5D005A2D70726F6265206F664C
:101E5000667365742078205B6D6D5D004D61782E32
:101E6000207A2D70726F6265202D20626564206477
:101E70006973742E205B6D6D5D005A2D70726F62F8
:101E80006520686569676874205B6D6D5D007761CA
:101E90006974005072696E7465722068656967685C
:101EA000743A005A2D70726F6265206661696C65C4
:101EB00064005472616E73666F726D6174696F6EE7
:101EC000206D61747269783A004175746F6C657643
:101ED000656C696E672064697361626C656400415A
:101EE00075746F6C6576656C696E6720656E61628E
:101EF0006C6564004175746F6C6576656C206D610E
:101F00007472697820726573657400004732382FE7
:101F10006E47315A32352F6E005A2D70726F6265DE
:101F20002073746174653A005265736574205A2099
:101F3000686569676874005A2D70726F6265206108
:101F4000766572616765206865696768743A002024
:101F50005374657020566172696174696F6E206692
:101F6000726F6D2050726F626520746F20626564BD
:101F70002044697374616E63653A005A2D70726F04
:101F800062653A005072696E7465722073657420E0
:101F9000696E746F206472792072756E206D6F6443
:101FA0006520756E74696C2072657374617274213A
:101FB000003A20776F726B696E67003A2074656D26
:101FC000702073656E736F7220646566656374005C
:101FD000657874727564657220004D54454D503AB1
:101FE00000504944204175746F74756E65206669B0
:101FF0006E6973686564202120506C61636520748C
:102000006865204B702C204B6920616E64204B6406
:1020100020636F6E7374616E747320696E207468D0
:102020006520436F6E66696775726174696F6E2EA5
:1020300068206F7220454550524F4D005049442052
:102040004175746F74756E65206661696C65642195
:102050002074696D656F7574005049442041757432
:102060006F74756E65206661696C656421205465C6
:102070006D706572617475726520746F2068696730
:102080006800204B643A2000204B693A2000204B26
:10209000703A200020436C61737369632050494497
:1020A000002054753A2000204B753A2000206D61C5
:1020B000783A2000206D696E3A200020643A2000B2
:1020C00020626961733A2000504944204175746F61
:1020D00074756E6520737461727400546172676503
:1020E0007445787472004E6F206D6F766520696E4E
:1020F0002064656C7461207365676D656E7420770C
:10210000697468203E2031207365676D656E742E9A
:1021100020546869732073686F756C64206E6576EF
:1021200065722068617070656E20616E64206D61FB
:102130007920636175736520612070726F626C65D0
:102140006D210044656C746120526164697573206F
:10215000432830293A0044656C74612052616469F7
:10216000757320422830293A0044656C746120520E
:10217000616469757320412830293A00416C7068A8
:10218000612043283930293A00416C70686120424F
:1021900028333330293A00416C706861204128327D
:1021A0003130293A00546F77657220333A00546F0A
:1021B00077657220323A00546F77657220313A00A9
:1021C000496E76616C69642064656C746120636F2C
:1021D0006F7264696E617465202D206D6F76652065
:1021E00069676E6F726564006C696E656172204C20
:1021F0003A00454550524F4D2075706461746564D6
:10220000002C2073706565643D00206C696E65610B
:10221000722073746570733A004A65726B3A007A83
:102220005F6D61783A00795F6D61783A00785F6D33
:1022300061783A004C20004820002069732000207B
:10224000746F2000536574206F75747075743A2034
:10225000004D53312C4D53322050696E730045317F
:102260003A0045303A005A3A00593A0020002C0012
:10227000206D696E0020686F7572732000206461A4
:10228000797320006D20005072696E74696E67204A
:1022900074696D653A005072696E74656420666990
:1022A0006C616D656E743A0046616E73706565644D
:1022B0003A00482E205261646975733A00466C6F8B
:1022C000774D756C7469706C793A0053706565640C
:1022D0004D756C7469706C793A00202F002F003AAC
:1022E0000020403A00543A0020453A00205A3A0073
:1022F00020593A0020583A00583A00467265652045
:1023000052414D3A00556E6B6E6F776E20636F6D64
:102310006D616E643A00536F667477617265205226
:1023200065736574005761746368646F67205265F4
:102330007365740042726F776E206F7574205265FA
:102340007365740045787465726E616C20526573B4
:10235000657400506F7765725570007374617274A4
:1023600000424C4B2000736B6970200020676F7433
:1023700020004572726F723A6578706563746564A7
:10238000206C696E6520005344207265616420658D
:1023900072726F7200205200204A002049002050C3
:1023A00000205300204600204500205A00205900FC
:1023B000205800446F6E65207072696E74696E6794
:1023C0002066696C6500466F726D6174206572727B
:1023D0006F720057726F6E6720636865636B737509
:1023E0006D004563686F3A00526573656E643A002C
:1023F0005761726E696E673A00496E666F3A0045C2
:1024000072726F723A00494E46004E414E006F6B39
:10241000004649524D574152455F4E414D453A5253
:10242000657065746965725F302E39322E322046D0
:1024300049524D574152455F444154453A3230313B
:102440003731313133204D414348494E455F54596E
:1024500050453A4861636B657220483220005265EE
:10246000717565737450617573653A004D3131371C
:1024700020494E5345525420534420434152440076
:102480004D3131372053442043415244204552526C
:102490004F520055495F414354494F4E5F53455495
:1024A0005F4D454153555245445F4F524947494E50
:1024B00020004E6F205344204361726400536875BE
:1024C00074204F666620414C4C204865617473004F
:1024D00050726568656174204142530050726568AE
:1024E00065617420504C410055495F414354494F48
:1024F0004E5F484F4D455F5A200055495F41435458
:10250000494F4E5F484F4D455F59200055495F4147
:102510004354494F4E5F484F4D455F582000554941
:102520005F414354494F4E5F484F4D45414C4C200D
:102530000055495F414354494F4E5F5A504F5349EC
:1025400054494F4E5F464153545F4E4F5445535488
:10255000200055495F414354494F4E5F5A504F53F5
:102560004954494F4E5F4E4F5445535420005549EE
:102570005F414354494F4E5F45504F534954494F73
:102580004E200055495F414354494F4E5F5A504FCA
:10259000534954494F4E5F46415354200055495FBB
:1025A000414354494F4E5F59504F534954494F4E40
:1025B0005F46415354200055495F414354494F4EB3
:1025C0005F58504F534954494F4E5F464153542032
:1025D0000055495F414354494F4E5F5A504F53494C
:1025E00054494F4E200055495F414354494F4E5F77
:1025F00059504F534954494F4E200055495F41436C
:1026000054494F4E5F58504F534954494F4E200044
:1026100042616E6742616E6700536C6F7742616E14
:102620006700446561642054696D65005049440049
:10263000003A002064617973200050657263656E12
:1026400074205072696E7465643A00206465662077
:1026500000465720446174652032303137313131C2
:1026600033004861636B6572204832005365654DE5
:1026700065434E43004861636B657220483200FD3C
:1026800032B3324B32EE31416374696F6E3A256C6E
:102690006100040003004E6F00596573004E2F4126
:1026A000004F6666004F6E000000003FCDCC4C3DF1
:1026B0000AD7A33B6F12033A52657065746965725D
:1026C000207620302E39322E3200004014548025DE
:1026D000000040380000004B0000807000000096B1
:1026E0000000C0DA000000E10000002C010008B288
:1026F000010000C2010000F401000084030090D03A
:10270000030000E803000008070020A107000010F4
:102710000E0040420F0060E3160000000000110AA6
:102720000411040A1111001C1F11111F0000040ADA
:102730000A0A0E1F1F0E001F1111111F0000001F9B
:102740001F1F1F1F0000040A040000000000040EE9
:1027500015041C00000002000006005D27752FC351
:1027600027442C9627972C05280200000700702785
:10277000752F7E27442C9627972CCF2BAA278527A9
:1027800002452D00005072696E74657220536574A5
:1027900074696E6773009D2702332E000041646ADE
:1027A0007573742054656D707300B12702DB2700C8
:1027B00000416476616E6365642053657474696E6C
:1027C000677300CA27025E2D00005072696E74653F
:1027D000722053657474696E67730002000009000B
:1027E000E227752FF028DC28CC28BC28F427A52860
:1027F0008D280528FB2702722B000044656275674F
:1028000067696E67000C2802562E000043616C69F0
:1028100062726174696F6E204D656E7500031027DA
:10282000020024282F28282836280000000000470E
:102830002800000000006C6F6164656420662E2033
:10284000454550524F4D00436F6E66696775726122
:1028500074696F6E0003102702005C2867286028E7
:102860006E2800000000007F280000000000737444
:102870006F72656420696E20454550524F4D00438C
:102880006F6E66696775726174696F6E0094280374
:10289000070400004C6F61642066726F6D2045452F
:1028A00050524F4D00AC28030604000053746F7261
:1028B0006520746F20454550524F4D00C32802FFDC
:1028C000280000457874727564657200D32802068A
:1028D0002B0000466565647261746500E32802326E
:1028E0002B0000416363656C65726174696F6E00F3
:1028F000F72802522A000047656E6572616C00027B
:10290000000010000629752F3E2A2A2A182A072AB5
:10291000F229C329DB29AC2999298529742963293E
:102920004E29392926292D29042F04000050494415
:10293000204D61783A2558440040290426040000BF
:102940004472697665204D61783A25584D005529C5
:1029500004250400004472697665204D696E3A25AD
:10296000586D006A29042404000050494420443A68
:10297000255864007B290423040000504944204961
:102980003A255869008C29042204000044542F5031
:10299000494420503A25587000A029042D04000015
:1029A000436F6E74726F6C3A25586800B329044601
:1029B000040000416476616E6365206C696E3A259F
:1029C000586C00CA29044D040000576169742055F1
:1029D0006E6974733A2558556D6D00E229044C04F4
:1029E0000000576169742054656D702E255854029B
:1029F0004300F929042E040000537461622E5469C7
:102A00006D653A255877000E2A042A0400004163B8
:102A100063656C3A255841001F2A042B0400004DC1
:102A200061782046523A25584600312A042C040089
:102A30000053746172742046523A25586600452A44
:102A4000042904000053746570732F4D4D3A2553CB
:102A500065000200000400592A752F8E2A762A612B
:102A60002A682A02A22A00004D61782E20496E6150
:102A70006374697665007D2A02D42A000053746568
:102A80007070657220496E61637469766500952A7D
:102A9000041004000042617564726174653A256F28
:102AA00063000358040200A92AB42AAD2ABB2A00F5
:102AB00000000000C52A00000000005B735D2030AC
:102AC0003D4F6666004469732E2041667465723A14
:102AD000256970000320040200DB2AE62ADF2AEDC4
:102AE0002A0000000000F72A00000000005B735D70
:102AF00020303D4F6666004469732E204166746540
:102B0000723A2569730002000003000D2B752F2314
:102B10002B132B1A2B0413040000486F6D653A2504
:102B2000665A002A2B04160400004D61783A256687
:102B30007A000200000400392B752F612B512B41C4
:102B40002B482B040E0400004A65726B3A25616A1B
:102B500000582B040D0400004D6F76653A25615A2C
:102B600000682B040A0400005072696E743A2561F3
:102B70007A000200000500792B752FBC2BA92B963B
:102B80002B832B8A2B033504000044727920727545
:102B90006E3A256464009D2B033404000045727274
:102BA0006F7273203A25646500B02B033304000074
:102BB000496E666F2020203A25646900C32B0332DA
:102BC0000400004563686F2020203A25646F00D61A
:102BD0002B02E32B000053442043617264204D65B7
:102BE0006E75000200000600EA2B752F442C312C74
:102BF0001B2C092CF62BFD2B03F403010244656CFE
:102C00006574652066696C6500102C02632C0200F7
:102C100053746F70205072696E7400222C03F70396
:102C20000400436F6E74696E7565205072696E742E
:102C300000382C03F603020450617573652050724E
:102C4000696E74004B2C03F503010253656C6563D8
:102C5000742053442046696C650001000001006146
:102C60002C752F02000003006A2C852C7B2C702C05
:102C7000772C035424020059657300822C03E80367
:102C800000004E6F008C2C010000000053746F7028
:102C9000205072696E74009E2C02AF2C00004164BB
:102CA0006A7573742046616E2073706565640002F6
:102CB00000000700B62C752F2D2D192D042DEF2C9B
:102CC000DA2CC42CCB2C031E040000536574204660
:102CD000616E2031303025252500E12C031D0400D4
:102CE000005365742046616E20373525252500F692
:102CF0002C031C0400005365742046616E2035309F
:102D0000252525000B2D031B040000536574204668
:102D1000616E20323525252500202D031A04080078
:102D20005475726E2046616E204F666600342D0425
:102D30005204000046616E2073706565643A254652
:102D400073252525000200000A004C2D752FAA2DA1
:102D5000912D082EF52DDB2D612FC32D1B2E02008A
:102D6000000A00652D752FAA2D912D082EF52DDB5B
:102D70002D612F792DC32D1B2E802D03B20F000046
:102D8000556E6C6F636B2046756C6C204D656E756F
:102D900000982D0448040000466C6F772020526193
:102DA00074653A256F6625252500B12D041F0400A2
:102DB00000537065656420526174653A256F6D2516
:102DC000252500CA2D034204001044697361626C1A
:102DD0006520537465707065727300E22D033804CA
:102DE000000053687574204F666620414C4C2048A3
:102DF0006561747300FC2D03470400005072656820
:102E000065617420414253000F2E033704000050C7
:102E100072656865617420504C4100222E033604AF
:102E2000000041545820706F776572206F6E2F6FCD
:102E300066660002000003003A2E752F3E2E452ED6
:102E4000043D0400004E4F5A2054656D703A202016
:102E500025453002430002000006005D2E752F93C9
:102E60002E692E612F2B2F7F2E702E04210400003F
:102E7000482E20526164697573203A256F68008678
:102E80002E03AC0F0000536574205A204F726967FF
:102E9000696E009A2E02AB2E000046756C6C2043C2
:102EA000616C6962726174696F6E000200000400F7
:102EB000B22E752FE82ED32EBA2EC12E03B10F00DD
:102EC00000426567696E2043616C69627261746972
:102ED0006F6E00DA2E03B50F0000424544204152C8
:102EE0004520434C45414E00EF2E03B40F00004DEA
:102EF000414B452053555245204E4F5A5A4C452080
:102F000026000200000600092F752F612F4F2F3D6C
:102F10002F2B2F152F1C2F028E2F00004578747237
:102F20002E20706F736974696F6E00322F02EF305C
:102F300000005A20506F736974696F6E00442F024D
:102F4000443100005920506F736974696F6E0056E8
:102F50002F02993100005820506F736974696F6EA9
:102F600000682F03FD030000486F6D6520507269F3
:102F70006E746572007C2F03E80300005072657662
:102F8000696F75732053637265656E20010003F0ED
:102F9000030400952FB22FAB2FA42F9D2FB92F0024
:102FA00000000000C72F0000000000D82F00000024
:102FB0000000E72F0000000000255566206D2070FE
:102FC00072696E7465640020453A2565632F254556
:102FD0006302437E256F43003120636C69636B207D
:102FE0003D2031206D6D00453A257833206D6D0010
:102FF00003FC030400F72F14300D300630FF2F1BA5
:103000003000000000001C3000000000002C3000E8
:10301000000000003C300000000000004D617820FE
:10302000656E6473746F703A25735A004D696E2033
:10303000656E6473746F703A25737A005A3A257816
:1030400032206D6D0003FB0304004C3069306230A8
:103050005B30543070300000000000713000000020
:1030600000008130000000000091300000000000EE
:10307000004D617820656E6473746F703A257359E2
:10308000004D696E20656E6473746F703A257379B4
:1030900000593A257831206D6D0003FA030400A130
:1030A00030BE30B730B030A930C53000000000006D
:1030B000C6300000000000D6300000000000E630FE
:1030C0000000000000004D617820656E6473746F2D
:1030D000703A257358004D696E20656E6473746F85
:1030E000703A25737800583A257830206D6D0003CA
:1030F000EF030400F63013310C310531FE301A3184
:1031000000000000001B3100000000002B31000017
:103110000000003B310000000000004D6178206598
:103120006E6473746F703A25735A004D696E206532
:103130006E6473746F703A25737A005A3A25783248
:10314000206D6D0003EE0304004B31683161315A8C
:103150003153316F31000000000070310000000079
:1031600000803100000000009031000000000000ED
:103170004D617820656E6473746F703A25735900E1
:103180004D696E20656E6473746F703A25737900B3
:10319000593A257831206D6D0003ED030400A0310C
:1031A000BD31B631AF31A831C4310000000000C5D7
:1031B000310000000000D5310000000000E53100C2
:1031C00000000000004D617820656E6473746F70BC
:1031D0003A257358004D696E20656E6473746F7084
:1031E0003A25737800583A257830206D6D0000003C
:1031F000000400F53112320B320432FD3119320075
:10320000000000001F320000000000333200000008
:10321000000037320000000000255566206D005484
:103220006F74616C2046696C616D656E74205573B6
:1032300065640025557400546F74616C2050726988
:103240006E74696E672054696D65000000000400AB
:1032500052326F32683261325A32763200000000E8
:1032600000803200000000008E320000000000A04C
:103270003200000000004861636B65722048320034
:103280005072696E746572204D6F64656C004657AC
:1032900020446174653A20323031373131313300A6
:1032A00046572056657273696F6E3A20302E393258
:1032B0002E32000000000400BA32D732D032C932B8
:1032C000C232DE320000000000E2320000000000E6
:1032D000EB320000000000F4320000000000256F17
:1032E00073005A3A257832206D6D00593A257831AD
:1032F000206D6D00583A257830206D6D000000007B
:103300000400043321331A3313330C332833000001
:103310000000002C330000000000353300000000E6
:10332000004E330000000000256F73005A3A2578E4
:1033300032206D6D0053706565643A256F6D2525EB
:103340002520466C6F773A256F66252525004E4F60
:103350005A3A256563205461726765743A2545635E
:10336000000000000000000000000000FF0000015D
:10337000000000000000000000000000000000004D
:103380000024F403D950C38EB1C2A23D96828B357E
:1033900082127AE372816CCB66A861015DC758EB3B
:1033A000546151204E1E4B5648C14559431A4101A4
:1033B0003F093D2F3B7139CD374036C93465331451
:1033C00032D430A32F802E6B2D632C672B752A8E61
:1033D00029B028DC2710274B268F25D9242B2482BF
:1033E00023E0224322AC211A218D200420801F00DB
:1033F0001F841E0C1E971D261DB81C4E1CE61B822A
:103400001B201BC11A641A0A1AB2195D190A19B9CC
:10341000186A181C18D11788174017FA16B51673B2
:10342000163116F115B31576153A150015C7148F18
:103430001458142214EE13BA13881356132513F6D6
:1034400012C71299126C1240121512EB11C1119889
:1034500011701148112111FB10D610B1108D106997
:1034600010461024100210E10FC00FA00F800F6152
:103470000F420F230F060FE80ECB0EAF0E930E7701
:103480000E5C0E410E270E0D0EF30DDA0DC10DA8C8
:103490000D900D780D600D490D320D1B0D050DEFD2
:1034A0000CD90CC30CAE0C990C850C700C5C0C4840
:1034B0000C350C210C0E0CFB0BE80BD60BC40BB21D
:1034C0000BA00B8E0B7D0B6B0B5A0B4A0B390B2988
:1034D0000B180B080BF80AE90AD90ACA0ABB0AAC8E
:1034E0000A9D0A8E0A800A710A630A550A470A3938
:1034F0000A2C0A1E0A110A040AF709EA09DD09D092
:1035000009C409B709AB099F09920987097B096FAB
:1035100009630958094C09410936092B0920091585
:10352000090A090009F508EB08E008D608CC08C22A
:1035300008B808AE08A4089A08900887087D08749F
:10354000086B08610858084F0846083D0834082CE5
:103550000823081A08120809080108F807F007E804
:1035600007E007D807D007C807C007B807B007A803
:1035700007A1070000420FA1071605D0030D038B1A
:10358000022E02E801B2018601630145012C0117F8
:10359000010401F4005072696E7465722052656115
:1035A0006479005072696E74657220526561647945
:1035B000005072696E7465722052656164790020F2
:1035C0007A3A0020793A0020783A00696E207175C5
:1035D00065756544656C74614D6F766520746F2008
:1035E00063616C63756C61746544656C746153757B
:1035F000625365676D656E74732072657475726E63
:1036000073206572726F722E0043206869742066A1
:103610006C6F6F720043706F7320782073717561E7
:103620007265200043706F73207820737465707327
:10363000200043706F73207920737175617265206B
:103640000043706F7320792073746570732000429B
:103650002068697420666C6F6F720042706F73200F
:103660007820737175617265200042706F732078E5
:10367000207374657073200042706F73207920731B
:103680007175617265200042706F732079207374C8
:103690006570732000412068697420666C6F6F72DA
:1036A0000041706F7320782073717561726520001E
:1036B00041706F73207820737465707320004170BF
:1036C0006F73207920737175617265200041706F8E
:1036D00073207920737465707320006D6F76655266
:1036E000656C617469766544697374616E6365497C
:1036F0006E5374657073202F207175657565446510
:103700006C74614D6F76652072657475726E73208E
:103710006572726F720000000A0B02090C0D0E0830
:10372000070304010000000000000000000000008A
:103730000000000000000000000000000000000089
:103740000000121110000000000000000000000046
:103750000000000000000000000000000102102036
:1037600020080810204010204080020102010804B7
:10377000020101020408102040808040201008044B
:1037800002018004020180402010080402010804A4
:1037900002010102040810204080010204081020E8
:1037A0004080050505050705080808080202020211
:1037B0000A0A0808040404040101010101010101CD
:1037C0000303030303030303040707070C0C0C0C98
:1037D0000C0C0C0C02020202060606060606060681
:1037E0000B0B0B0B0B0B0B0B000020002300260018
:1037F00029002C002F003200000100000301060107
:10380000090100002200250028002B002E003100B5
:10381000340002010000050108010B010000210035
:10382000240027002A002D00300033000101000091
:10383000040107010A01024E414E494E49545949BB
:103840004E46CDCCCC3D0AD7233C17B7D13877CCE8
:103850002B329595E6241FB14F0A0000204100004D
:10386000C84200401C4620BCBE4CCA1B0E5AAEC506
:103870009D74948DD19C95D858FB11241FBECFEF19
:10388000D1E2DEBFCDBF00E00CBF13E0A0E0B2E0AC
:10389000E8ECF9E102E00BBF02C007900D92A633FD
:1038A000B107D9F72EE1A6E3B3E001C01D92A9321A
:1038B000B207E1F718E3CAE7D8E300E006C02297B1
:1038C0000109FE010BBF0F945D08C237D10780E0EC
:1038D0000807A9F70F94C9030D94E20C0C9400009B
:1038E000CF93DF9300D01F92CDB7DEB744E050E016
:1038F000BC01CE0101960F949E0C69817A818B8167
:103900009C810F900F900F900F90DF91CF910895B1
:10391000179A0895169A0895159A089580B182FB12
:10392000882780F9089580B186958170089588E48C
:1039300093E0D6CFCF92DF92EF92FF92CF93DF93B7
:1039400000D01F921F92CDB7DEB76B017C01609350
:1039500018077093190780931A0790931B070E940A
:103960003272C982DA82EB82FC8244E050E065E781
:1039700073E0CE0101960F94C00C23E0B701A601BD
:1039800088EC94E00E94EC9E0E9465CA682F88E64D
:1039900090E06D830F94AE0C6D81681721F088E67E
:1039A00090E00F94C90C0F900F900F900F900F9014
:1039B000DF91CF91FF90EF90DF90CF900895CF935C
:1039C000DF931F92CDB7DEB7BC018DE793E00F9474
:1039D000DC0C0E9465CA682F88E690E069830F942A
:1039E000AE0C6981681739F088E690E00F90DF919E
:1039F000CF910D94C90C0F90DF91CF910895CF9383
:103A0000DF931F92CDB7DEB7BC018FE793E00F9431
:103A1000DC0C0E9465CA682F88E690E069830F94E9
:103A2000AE0C6981681739F088E690E00F90DF915D
:103A3000CF910D94C90C0F90DF91CF910895CF9342
:103A4000DF931F92CDB7DEB7BC0181E893E00F94FE
:103A5000DC0C0E9465CA682F88E690E069830F94A9
:103A6000AE0C6981681739F088E690E00F90DF911D
:103A7000CF910D94C90C0F90DF91CF910895CF9302
:103A8000C82F809147048823D1F0109247040E94E8
:103A9000A25790919002915090939002911109C079
:103AA00080919102833010F40E94495785E0809301
:103AB00090026C2F87E19AE0CF910C94C6C5CF910C
:103AC00008958091CC0B882349F00E94B19580E045
:103AD000D6DF87E19AE00E94C5C5F3CF08954F92E3
:103AE0005F926F927F928F929F92AF92BF92CF928E
:103AF000DF92EF92FF920F931F93CF93DF9300D04B
:103B00001F92CDB7DEB78C018091920790919307F9
:103B1000A0919407B091950789839A83AB83BC8366
:103B2000C0909607D0909707E0909807F09099077B
:103B300080909A0790909B07A0909C07B0909D075B
:103B40009C01AD01BC01CD010F948F0781110FC104
:103B500049805A806B807C80E89477F82FEF3FEFA4
:103B60004FE75FE7C301B2010F948F0781110BC0CC
:103B70002FEF3FEF4FE75FE7C301B2010F943C0423
:103B800018160CF4F4C0A7019601C701B6010F94F2
:103B90008F078111ECC026013701E89477F82FEFE9
:103BA0003FEF4FE75FE7C301B2010F948F07811129
:103BB0000BC02FEF3FEF4FE75FE7C301B2010F9458
:103BC0003C0418160CF4D3C0A5019401C501B4013E
:103BD0000F948F078111CBC024013501E89477F849
:103BE0002FEF3FEF4FE75FE7C301B2010F948F075D
:103BF00081110BC02FEF3FEF4FE75FE7C301B20129
:103C00000F943C0418160CF4B2C020916A0730914E
:103C10006B0740916C0750916D0769817A818B81A8
:103C20009C810F94D8032B013C0120916E073091A9
:103C30006F074091700750917107C701B6010F944B
:103C4000D8036B017C01209172073091730740917A
:103C5000740750917507C501B4010F94D8034B0147
:103C60005C018091F207882329F020E732E441E2E9
:103C70005DE304C020E030E040E85FE3C301B2014F
:103C80000F94E406AB01BC0122E088EF92E20E94AF
:103C9000299F8091F207882329F020E732E441E24E
:103CA0005DE304C020E030E040E85FE3C701B60117
:103CB0000F94E406AB01BC0122E080EF92E20E9487
:103CC000299F8091F207882329F020E732E441E21E
:103CD0005DE304C020E030E040E85FE3C501B401EB
:103CE0000F94E406AB01BC0123E08CEE92E20E944B
:103CF000299F6091AA077091AB078091AC079091C2
:103D0000AD070F940F052091EE073091EF0740911A
:103D1000F0075091F1070F94E4062091F207222357
:103D200029F020E732E441E25DE304C020E030E026
:103D300040E85FE30F94E406AB01BC0124E088EEA9
:103D400092E20F900F900F900F90DF91CF911F9103
:103D50000F91FF90EF90DF90CF90BF90AF909F902A
:103D60008F907F906F905F904F900C94EC9EC80165
:103D70000E940E9D4ACFCF92DF92EF92FF92CF9397
:103D8000DF93EC01893191053CF0C53F81E0D80714
:103D90002CF0C4EFD1E002C0C9E1D0E0BE01882719
:103DA00077FD8095982F0F940F056B017C01609132
:103DB000A2067091A306882777FD8095982F0F940F
:103DC0000F059B01AC01C701B6010F9443049B0191
:103DD000AC016091A4067091A5068091A606909111
:103DE000A7060F94E4066093A4067093A50680933B
:103DF000A6069093A706D093A306C093A206BE0181
:103E00008BEC92E2DF91CF91FF90EF90DF90CF901B
:103E10000C94D29DCF92DF92EF92FF926B017C01C6
:103E200020E030E040E752E40F943C0487FD11C0ED
:103E300020E030E046E153E4C701B6010F9470067C
:103E400018166CF4C12CD12C86E1E82E83E4F82EF0
:103E500006C0C12CD12C90E7E92E92E4F92EC09235
:103E60001807D0921907E0921A07F0921B0722E078
:103E7000B701A60182EB92E2FF90EF90DF90CF9026
:103E80000C94EC9E8F929F92AF92BF92CF92DF9252
:103E9000EF92FF92CF93DF93EC018931910534F0DB
:103EA000893C91052CF0C8ECD0E002C0C9E1D0E01B
:103EB000D093A106C093A006E0913603F09137039A
:103EC000E258FF4FC080D180E280F38020E030E0F4
:103ED000A901C701B6010F943C04AE01662757FD46
:103EE0006095762F18165CF0CB01BA010F940F0580
:103EF0002AE037ED43E25CE30F94E40624C0CB01F3
:103F0000BA010F940F052AE037ED43E25CE30F940A
:103F1000E40620E030E040E850E40F94E4064B0172
:103F20005C01A7019601C701B6010F94E4062BEDD1
:103F30003FE049E450E40F94E4069B01AC01C50165
:103F4000B4010F9443046093960270939702809398
:103F5000980290939902BE018DEB92E2DF91CF918E
:103F6000FF90EF90DF90CF90BF90AF909F908F9099
:103F70000C94D29DCF93DF932091660797FD0DC0DF
:103F8000EC018F3F910519F014F0CFEFD0E02097AE
:103F900021F028602093660705C0277F20936607DD
:103FA000C0E0D0E061118DDD8091251D90E0C81743
:103FB000D90729F0BE0188EA92E20E94D29DC093FF
:103FC000251DDF91CF9108954F925F926F927F925E
:103FD0008F929F92AF92BF92CF92DF92EF92FF9219
:103FE000CF93DF9300D01F92CDB7DEB72FE632E13B
:103FF00043E85AE360918A0670918B0680918C06A3
:1040000090918D060F94E4066B017C0181E890E0AD
:1040100067DC9B01AC01C701B6010F94D803AB016B
:10402000BC0122E086E992E20E94299F84E892E2A4
:104030000E94D49CE0910A02F0910B0220E030E053
:1040400040E751E463857485858596850F947006F5
:1040500018160CF46BC020E030E0A9018DE790E069
:1040600029833A834B835C830F94B60C4B015C012C
:1040700029813A814B815C81820E931EA41EB51E5C
:10408000C501B40120E831E541E050E00F9410088B
:1040900060E87EEA8EEF9FEF0F94AB076B017C0127
:1040A000C80CD91CEA1CFB1CBA01A90187E892E2E2
:1040B0000E94F89DC701B60120E13EE040E050E0DB
:1040C0000F94100849015A01BA01A9018DE792E243
:1040D0000E94F89DA0EFB1EFA50194010F9459083B
:1040E0006C0D7D1D8E1D9F1D2CE330E040E050E0E7
:1040F0000F941008BA01A90185E792E20E94F89D89
:1041000080E792E20F900F900F900F90DF91CF9188
:10411000FF90EF90DF90CF90BF90AF909F908F90E7
:104120007F906F905F904F900C94ED9C0E9473FE77
:10413000C0908E06D0908F06E0909006F090910689
:104140006C197D098E099F0928EE33E040E050E0AC
:104150000F94EE0783CF811102C08EE207C0813039
:1041600011F48DE203C0823019F48CE20C9465FDE9
:104170000895EAE0F1E08081886080838081806139
:10418000808380818062808364E670E08EE20E949A
:1041900065FD64E670E08DE20E9465FD62E870E016
:1041A0008CE20E9465FDE1E2F1E08081887F816020
:1041B0008083089567FD43C08230E9F028F48823A6
:1041C00041F0813061F03BC0833009F1843059F116
:1041D00036C0662311F0A19A69C0A19867C080918A
:1041E0000801662311F0806801C08F778093080171
:1041F00047FF3AC05FC080910801662311F08064D8
:1042000001C08F7B8093080147FF34C055C0809167
:104210000801662311F0886001C0877F8093080140
:1042200047FF32C046C080910501662311F08064CB
:1042300001C08F7B8093050147FF2EC03CC047FD26
:104240003BC08230B9F028F4882341F0813061F01E
:1042500008958330C9F08430F9F00895442311F0B3
:10426000A09A0895A0980895442311F0A29A089561
:10427000A298089580910801442311F0806201C042
:104280008F7D80930801089580910801442311F0E7
:104290008061F7CF8F7EF5CF80910501442311F027
:1042A000806401C08F7B80930501089547FFD6CFBE
:1042B00008950895089508950895643079F028F4D4
:1042C000613041F0623041F00895683051F0603162
:1042D00041F0089540E003C040E004C041E060E0E8
:1042E00002C041E061E066CFCF93DF9381E592E2C7
:1042F0000E94ED9C62B36695617070E088EF92E277
:104300000E94C69D62B3617070E08EE692E20E94E8
:10431000D29DC6E0D1E08881992787FD9095692FCD
:10432000661F6627661F70E089E692E20E94C69DBE
:1043300062B362FB662760F970E08EE692E20E944B
:10434000D29D688166FB662760F970E086E692E29E
:104350000E94C69D688165FB662760F970E08EE665
:1043600092E20E94D29D688163FB662760F970E04B
:1043700082E692E20E94C69D68816295617070E05B
:104380008EE692E20E94D29DC3E0D1E0688166FB96
:10439000662760F970E08EE592E20E94C69D688112
:1043A00066FB662760F970E08EE692E2DF91CF91BE
:1043B0000C94D29DFF920F931F93CF93DF9300D065
:1043C0001F921F92CDB7DEB785E0E8EFF2E0DE0185
:1043D000119601900D928A95E1F7989A9A9A809198
:1043E00007018062809307018091070180618093BB
:1043F0000701809104018064809304018E010F5FA6
:104400001F4FF12CF80161918F018F2D56DFF3942E
:10441000F5E0FF12F7CF0F900F900F900F900F90D5
:10442000DF91CF911F910F91FF9008950C948AD541
:104430000E9475D5209108023091090282179307D6
:1044400024F4909309028093080208956091080271
:10445000709109028091060290910702681779070E
:1044600044F470930702609306028BEF92E20C947F
:10447000D29D0895CF93C82F69E170E080E39DE15C
:104480000E9443FB6C2F80E39DE10E94E4FA60E010
:1044900080E39DE10E9444FB882329F082EA9CE0AE
:1044A000CF910C94ED9CCF910895CF93DF93D82FAB
:1044B000C62F69E170E080E39DE10E9443FB6D2F10
:1044C00080E39DE10E94E4FA6C2F80E39DE10E946D
:1044D000E4FA80E39DE10E9456FB882331F082E8F4
:1044E0009CE0DF91CF910C94ED9CDF91CF910895EA
:1044F000C1DF41E050E069E170E080E39DE10E94AE
:1045000037FB80E39DE10E948DFA892B31F080E337
:104510009DE10E9495FA81E0089583E69CE00E9467
:10452000ED9C80E008958EE39CE00E94ED9C80E38A
:104530009DE10E9422FB8FE0DBDF81E3D9DF80E297
:10454000D7DF6CE980E2B1DF80E2D2DF82E2D0DF48
:1045500060E482E2AADF82E2CBDF85E2C9DF60E0CD
:1045600085E2A3DF85E2C4DF83E2C2DF60E383E2AA
:104570009CDF83E2BDDF84E2BBDF6AE484E295DF97
:1045800084E2B6DF80E3B4DF60E280E38EDF80E3C5
:10459000AFDF81E3ADDF82E3ABDF64E182E385DFA0
:1045A00082E3A6DF83E3A4DF60E083E37EDF83E3CF
:1045B0009FDF84E39DDF60E084E377DF84E398DFBF
:1045C00086E396DF62E386E370DF86E391DF87E3CD
:1045D0008FDF60E087E369DF87E38ADF88E388DFD6
:1045E00060E188E362DF88E383DF89E381DF8AE3D8
:1045F0007FDF62E38AE359DF8AE37ACFCF9381E3F7
:1046000077DFC82F85E374DF811101C0C0E089E343
:104610006FDF811101C0C0E08DE26ADF811101C04E
:10462000C0E08C2FCF9108956DE08AED9AE00E9452
:1046300029D46AE08AED9AE00C9429D4E0913603FB
:10464000F091370342A953A964A975A922E085EE28
:1046500092E20E94299FE0913603F091370346A928
:1046600057A960AD71AD20E08AED92E20E94299FCA
:10467000E0918F02EF3F29F4E0913603F091370388
:10468000E081F0E0EE5DF24E608170E081EE92E25A
:104690000E94C69DC9CF2F923F924F925F926F9218
:1046A0007F928F929F92AF92BF92CF92DF92EF92C2
:1046B000FF920F931F93CF93DF93CDB7DEB7299768
:1046C0000FB6F894DEBF0FBECDBF5C01DC011696BD
:1046D0008D919C9117978C38910509F48BC608F041
:1046E000E7C08235910509F42FC408F08AC08A31E9
:1046F000910509F4D1C208F03FC08531910509F454
:1047000049C278F48231910509F423C284319105BC
:1047100009F424C2419711F00C9474331798169839
:10472000D0C58731910509F46DC208F44FC28831B4
:10473000910509F495C2499711F00C94743360E027
:1047400083EC98E029960FB6F894DEBF0FBECDBF7C
:10475000DF91CF911F910F91FF90EF90DF90CF905D
:10476000BF90AF909F908F907F906F905F904F9091
:104770003F902F900C94A6988E31910509F4E9C2D0
:1047800018F58C31910509F4BCC210F00C94AC33CF
:1047900083EC98E029960FB6F894DEBF0FBECDBF2C
:1047A000DF91CF911F910F91FF90EF90DF90CF900D
:1047B000BF90AF909F908F907F906F905F904F9041
:1047C0003F902F900C94ED9B8A32910509F41BC306
:1047D00028F4809709F4EAC20C947433803591056B
:1047E00009F49DC38135910511F00C94743369D996
:1047F0009B9A809168078F7B80936807A39A0C949B
:10480000AC338B36910511F40C94A82C38F58C350B
:10481000910509F4A4C460F48435910509F49DC39D
:1048200008F496C38535910509F475C40C94743366
:104830008836910509F448C530F48336910509F4AA
:10484000F2C40C9474338936910509F427C68A366C
:10485000910511F40C94972C0C94743383379105C3
:1048600011F40C94F82C80F48F36910511F40C940B
:10487000C92C8237910511F40C94162D8D369105B3
:1048800011F00C9474332CC68537910511F40C94F7
:10489000192D10F40C94512C8737910511F40C94B8
:1048A000442D8837910511F40C948B2D0C9474339E
:1048B0008530B1E09B0711F40C94953008F0B0C03E
:1048C0008F3C910511F40C942F2F08F041C08A3CC5
:1048D000910511F40C94622E70F4883C910511F44A
:1048E0000C94B12D10F00C94042E8E3B910509F41C
:1048F000CBC70C9474338C3C910511F40C94B92EF5
:1049000010F40C94A72E8D3C910511F40C94152FE6
:104910008E3C910511F00C947433C50129960FB6A5
:10492000F894DEBF0FBECDBFDF91CF911F910F91E5
:10493000FF90EF90DF90CF90BF90AF909F908F90BF
:104940007F906F905F904F903F902F900C94B8D0D5
:104950008F3D910511F40C94EA2F88F48C3D91055C
:1049600011F40C94972F8D3D910511F40C94BF2FE9
:10497000813D910511F00C9474330C94772F893E8E
:10498000910511F40C94FF2F40F5883E910511F02C
:104990000C94743360912A1D70912B1D8AE092E271
:1049A0000E94C69D4091261D5091271D6091281D93
:1049B0007091291D22E081E092E20E94EC9E10920B
:1049C0002B1D10922A1D1092261D1092271D109249
:1049D000281D1092291D0C94AC338B3F910511F4C6
:1049E0000C9438308430914011F00C947433299633
:1049F0000FB6F894DEBF0FBECDBFDF91CF911F91F0
:104A00000F91FF90EF90DF90CF90BF90AF909F906D
:104A10008F907F906F905F904F903F902F9083CDBD
:104A20008E3521E0920711F40C94EC31C0F58E32F2
:104A300041E0940711F40C94383198F48931A1E0E5
:104A40009A0711F40C94ED308C32B1E09B0711F40D
:104A50000C94FD308630914011F00C9474330C941A
:104A6000B7308034F1E09F0711F40C94AA3138F488
:104A70008F32914011F40C9477310C94743381345B
:104A800041E0940711F40C94AE318234914011F05E
:104A90000C94743380E00E9466890C94C33182398F
:104AA000A1E09A0711F40C94D73298F58836E1E02A
:104AB0009E0711F40C94A33238F48336914011F41C
:104AC0000C945D320C947433803931E0930711F407
:104AD0000C94BD328139914011F00C9474332996B5
:104AE0000FB6F894DEBF0FBECDBFDF91CF911F91FF
:104AF0000F91FF90EF90DF90CF90BF90AF909F907D
:104B00008F907F906F905F904F903F902F900C947C
:104B1000DE83853F51E0950711F40C94073360F470
:104B2000843F914011F00C94743380E00E947CCA61
:104B300089E89DE10C941233863FE1E09E0711F471
:104B40000C942C338C38934011F40C9446330C9411
:104B500074330E94881C0E948A1C8CC283EC98E0EB
:104B600029960FB6F894DEBF0FBECDBFDF91CF916F
:104B70001F910F91FF90EF90DF90CF90BF90AF907B
:104B80009F908F907F906F905F904F903F902F906D
:104B90000C94369B83EC98E029960FB6F894DEBF10
:104BA0000FBECDBFDF91CF911F910F91FF90EF907E
:104BB000DF90CF90BF90AF909F908F907F906F903D
:104BC0005F904F903F902F900C942A9883EC98E040
:104BD00029960FB6F894DEBF0FBECDBFDF91CF91FF
:104BE0001F910F91FF90EF90DF90CF90BF90AF900B
:104BF0009F908F907F906F905F904F903F902F90FD
:104C00000C942F98D5018D919C9197FD02C00C9426
:104C1000AC3360E083EC98E00E948064F501EE5ACA
:104C2000FF4F6081718140E083EC98E029960FB6D8
:104C3000F894DEBF0FBECDBFDF91CF911F910F91D2
:104C4000FF90EF90DF90CF90BF90AF909F908F90AC
:104C50007F906F905F904F903F902F900C94679B48
:104C600083EC98E029960FB6F894DEBF0FBECDBF57
:104C7000DF91CF911F910F91FF90EF90DF90CF9038
:104C8000BF90AF909F908F907F906F905F904F906C
:104C90003F902F900C949598F5018081918192FD21
:104CA00002C00C94AC33468D578D60A171A18091E8
:104CB0002D09882311F40C94AC33409324095093AC
:104CC0002509609326097093270983E099E02996C6
:104CD0000FB6F894DEBF0FBECDBFDF91CF911F910D
:104CE0000F91FF90EF90DF90CF90BF90AF909F908B
:104CF0008F907F906F905F904F903F902F900C948B
:104D0000C662D5018D919C9197FD02C00C94AC3385
:104D1000F501EE5AFF4F6081718183EC98E029968E
:104D20000FB6F894DEBF0FBECDBFDF91CF911F91BC
:104D30000F91FF90EF90DF90CF90BF90AF909F903A
:104D40008F907F906F905F904F903F902F900C943A
:104D50000E9CF5018081918197FD02C00C94AC33CB
:104D600060E083EC98E00E948064F501EE5AFF4F0A
:104D70006081718183EC98E029960FB6F894DEBFCC
:104D80000FBECDBFDF91CF911F910F91FF90EF909C
:104D9000DF90CF90BF90AF909F908F907F906F905B
:104DA0005F904F903F902F900C94709CD5018D9107
:104DB0009C9197FD02C00C94AC3360E083EC98E0CA
:104DC0000E948064F501EE5AFF4F6081718183EC8F
:104DD00098E029960FB6F894DEBF0FBECDBFDF91E5
:104DE000CF911F910F91FF90EF90DF90CF90BF90E8
:104DF000AF909F908F907F906F905F904F903F907B
:104E00002F900C949E9CF5012081318133FD02C0CE
:104E10000C94AC3312A1E12EF3A0E1ECFCE0449140
:104E200050E04E155F0509F45EC032964DE0E53363
:104E3000F407A9F7F7FC57C032FF2CC0D5015E96E6
:104E40004D915D916D917C9191974F3F5105610519
:104E5000710509F0E0F461E0812F0E9487FFF50100
:104E6000668D812F0E94C0FFD5015E966D917C9169
:104E70005F97812F0E9465FDB70184E492E20E9452
:104E8000C69DF501668D778D8FE392E212C08FE5A6
:104E900094E02BC062E0812F0E9487FFB7018FE36F
:104EA00092E20E94C69D812F0E94F5FFBC018AE319
:104EB00092E229960FB6F894DEBF0FBECDBFDF9108
:104EC000CF911F910F91FF90EF90DF90CF90BF9007
:104ED000AF909F908F907F906F905F904F903F909A
:104EE0002F900C94D29D89E294E029960FB6F89405
:104EF000DEBF0FBECDBFDF91CF911F910F91FF900D
:104F0000EF90DF90CF90BF90AF909F908F907F9069
:104F10006F905F904F903F902F900C940E9D0E9449
:104F2000611D0E9473FE60932C1D70932D1D809354
:104F30002E1D90932F1D9B9A80916807806480930B
:104F40006807A3980C94AC331092AE070C94AC3362
:104F500081E08093AE070C94AC33D5018D919C9188
:104F6000119792FF14C05E962D913D914D915C91E9
:104F70009197A8EEB3E00F944D086093EF02709301
:104F8000F0028093F1029093F2020C94AC3393FF01
:104F9000A5C0F50182A193A1A4A1B5A1823091057C
:104FA000A105B10509F466C02CF50097A105B1056E
:104FB00009F446C00197A105B10511F00C94AC337A
:104FC00029960FB6F894DEBF0FBECDBFDF91CF910B
:104FD0001F910F91FF90EF90DF90CF90BF90AF9017
:104FE0009F908F907F906F905F904F903F902F9009
:104FF0000C948A1C83309105A105B10509F454C0B5
:105000000497A105B10511F00C94AC3329960FB6A5
:10501000F894DEBF0FBECDBFDF91CF911F910F91EE
:10502000FF90EF90DF90CF90BF90AF909F908F90C8
:105030007F906F905F904F903F902F900C94D24F45
:1050400029960FB6F894DEBF0FBECDBFDF91CF918A
:105050001F910F91FF90EF90DF90CF90BF90AF9096
:105060009F908F907F906F905F904F903F902F9088
:105070000C94881C29960FB6F894DEBF0FBECDBFE6
:10508000DF91CF911F910F91FF90EF90DF90CF9024
:10509000BF90AF909F908F907F906F905F904F9058
:1050A0003F902F900C948C1C29960FB6F894DEBF7D
:1050B0000FBECDBFDF91CF911F910F91FF90EF9069
:1050C000DF90CF90BF90AF909F908F907F906F9028
:1050D0005F904F903F902F900C94C44F0E94611DA1
:1050E00081E029960FB6F894DEBF0FBECDBFDF91E9
:1050F000CF911F910F91FF90EF90DF90CF90BF90D5
:10510000AF909F908F907F906F905F904F903F9067
:105110002F900C94CA71D5018D919C91119792FF9B
:1051200014C05E962D913D914D915C919197A8EEA2
:10513000B3E00F944D086093F3027093F4028093F0
:10514000F5029093F6020C94AC331092F302109295
:10515000F4021092F5021092F6020C94AC33F501B1
:10516000808183FF0CC082859385A485B58580935B
:10517000D8029093D902A093DA02B093DB02D50152
:105180008C9184FF0EC01E968D919D910D90BC91C7
:10519000A02D8093DC029093DD02A093DE02B093F9
:1051A000DF02F501808185FF0CC082899389A48983
:1051B000B5898093E0029093E102A093E202B0935C
:1051C000E3020E943272D5018C9186FD02C00C94DC
:1051D000AC33209136033091370356968D919D91D3
:1051E0000D90BC91A02DF90181879287A387B48788
:1051F000808129960FB6F894DEBF0FBECDBFDF9138
:10520000CF911F910F91FF90EF90DF90CF90BF90C3
:10521000AF909F908F907F906F905F904F903F9056
:105220002F900C94044ED501ED91FC911197F2FF53
:105230000DC05E962D913D914D915C919197A8EE98
:10524000B3E00F944D086B017C0106C040E1C42E11
:1052500047E2D42EE12CF12CE3FD0E94881CF501DD
:10526000808184FD0E948A1CD5018C9185FD0E945D
:105270008C1C0E9473FE2B013C014C0C5D1C6E1CAF
:105280007F1C0E9473FEA3019201261B370B480B63
:10529000590BDA01C901803A9648A140B10518F4CA
:1052A0000E942877EECFD5018C9183FD1798F501E8
:1052B000808184FD1698D5018C9185FD02C00C94E7
:1052C000AC3315980C94AC330E947A5781110C942E
:1052D000AC330E9473FE60932C1D70932D1D809340
:1052E0002E1D90932F1D80919B0283FF02C00C9472
:1052F000AC33F5018081918193FF02C00C94973308
:1053000092FF0AC0868D978DA0A1B1A1892B8A2B0F
:105310008B2B11F40C949733D5018D919C9111979F
:1053200092FD02C00C94AC339C012227317091FF96
:1053300023C0232B89F011E020E030E0A9015A9628
:105340006D917D918D919C915D970F9470061816CB
:105350000CF010E0212F01C020E085010C5A1F4FF6
:10536000F501668D778D80A191A129870F940F0596
:105370002985D8014C9124C0232B81F011E020E035
:1053800030E0A901F501628D738D848D958D0F94A8
:10539000700618160CF010E0212F01C020E00091DB
:1053A000360310913703D5015E966D917D918D91F5
:1053B0009C91919729870F940F052985F8014081C9
:1053C00029960FB6F894DEBF0FBECDBFDF91CF9107
:1053D0001F910F91FF90EF90DF90CF90BF90AF9013
:1053E0009F908F907F906F905F904F903F902F9005
:1053F0000C9438530E947A5781110C94AC330E945C
:1054000073FE60932C1D70932D1D80932E1D909321
:105410002F1D80919B0283FF02C00C94AC33D501F9
:105420008D919C91119792FD02C00C94AC3390FF2A
:1054300011C011E020E030E0A9015A966D917D91F4
:105440008D919C915D970F94700618160CF010E0EA
:10545000412F01C040E0F501668D778D80A191A1BB
:1054600049870F940F05498529960FB6F894DEBF3A
:105470000FBECDBFDF91CF911F910F91FF90EF90A5
:10548000DF90CF90BF90AF909F908F907F906F9064
:105490005F904F903F902F900C94BE4FD5018D910F
:1054A0009C9133E0969587953A95E1F7817029961E
:1054B0000FB6F894DEBF0FBECDBFDF91CF911F9125
:1054C0000F91FF90EF90DF90CF90BF90AF909F90A3
:1054D0008F907F906F905F904F903F902F90AEC8CD
:1054E0000E947A5781110C94AC330E9473FE609332
:1054F0002C1D70932D1D80932E1D90932F1D809138
:105500009B0283FF02C00C94AC3340E068E174E07E
:1055100087E19AE00E94CBA887E19AE00E941FAC45
:105520000E94611D2090360330903703F501808181
:10553000918191FF09C0EC5AFF4F2081211104C0D5
:105540002CE0222E22E0322E92FF1EC090FF0FC0D0
:1055500011E020E030E0A901D5015A966D917D91CE
:105560008D919C915D970F94700618160CF010E0C9
:10557000F501668D778D80A191A10F940F05212FE4
:10558000D1014C910E943853F10126A937A940ADB1
:1055900051AD62A973A984A995A90F94D7032B01D2
:1055A0003C0120E030E0A9010F947006181664F465
:1055B00020E030E040EA50E4C301B2010F943C0423
:1055C00087FF0EC00C94AC3320E030E040EA50EC92
:1055D000C301B2010F947006181614F40C94AC3386
:1055E00099249394D101D0962D913C91D1979E9678
:1055F0008D919C919F97821793070CF0912C0E949C
:1056000073FE6D837E838F83988710E0412C512C2D
:1056100032010E9473FE69837A838B839C8360933B
:105620002C1D70932D1D80932E1D90932F1DDC013A
:10563000CB012D813E814F815885821B930BA40B9A
:10564000B50B893E9340A105B10558F080E00E945A
:105650001E2389819A81AB81BC818D839E83AF8318
:10566000B88781E00E943F1D8091360390913703F7
:105670002816390609F064C0D1019396ED90FC908C
:1056800094971E141F040CF05BC0111158C0992090
:1056900009F477C091966D917C919297882777FD58
:1056A0008095982F0F940F059B01AC01F10162A921
:1056B00073A984A995A90F947006181614F00C9478
:1056C000A433662777276E197F09882777FD809591
:1056D000982F0F940F052091E4023091E50240913C
:1056E000E6025091E7020F94E4060F94DC041F9247
:1056F0001F92D10152962C9152972F9351962C9133
:1057000051972F9350962C9150972F931F962C9131
:105710002F935B016C01E12CF12C870120E030E03C
:10572000A90160E070E0CB010E9494F20F900F900D
:105730000F900F900F900F9011E00C94A43311E094
:10574000411451046104710409F050C09920F1F032
:1057500020E030E040E85FE3F10166A977A980AD81
:1057600091AD0F94D7039B01AC01D101D2966D91FD
:105770007D918D919C91D5970F94700687FF1FC0E6
:1057800045CF411451046104710481F520E030E0FB
:1057900040E85FE3F10166A977A980AD91AD0F9470
:1057A000D8039B01AC01D101D2966D917D918D9171
:1057B0009C91D5970F943C0418160CF427CFF10157
:1057C000A78DB0A128EE33E00F9447082B013C01D0
:1057D00029813A814B815C81420E531E641E751EE5
:1057E000411451046104710409F413CFD301C201BF
:1057F00029813A814B815C81821B930BA40BB50BF1
:1058000081159449A543B74708F403CF1123E1F16B
:10581000809136039091370328163906A9F5D101F6
:1058200093966D917C919497882777FD8095982F1A
:105830000F940F052091E4023091E5024091E602B9
:105840005091E7020F94E4060F94DC041F921F921C
:10585000F10122892F9321892F9320892F93278566
:105860002F935B016C01E12CF12C870120E030E0EB
:10587000A90160E070E0CB010E9494F20F900F90BC
:105880000F900F900F900F901092800A0E9473FE5D
:1058900060932C1D70932D1D80932E1D90932F1DB2
:1058A0005BC780919B0283FD57C70E9473FE4B012B
:1058B0005C010E9473FE681979098A099B09693E97
:1058C00073408105910538F080E00E941E230E94FC
:1058D00073FE4B015C0181E00E943F1D00910A02B2
:1058E00010910B02D8011B964D905D906D907C90AD
:1058F0001E9720E030E040EF51E4C301B2010F9465
:10590000700618160CF028C7F801278130854185EC
:105910005285C301B2010F94D7039F7720E030E096
:1059200040E85FE30F94700618161CF215C7D50106
:105930008D919C91119793FB662760F992FF05C0AA
:105940005E968D919C915F970AC08FEF90E007C0A3
:10595000F501618163FB662760F980E090E029969C
:105960000FB6F894DEBF0FBECDBFDF91CF911F9170
:105970000F91FF90EF90DF90CF90BF90AF909F90EE
:105980008F907F906F905F904F903F902F900C94EE
:10599000BA1FD5018D919C91119792FF04C05E961C
:1059A0002C9120939B0293FF12C0F50182A193A139
:1059B000A4A1B5A120919B02181619061A061B0670
:1059C00014F4822B02C08150822380939B02809129
:1059D0009B0283FFC1C620E040E060E070E0CB01A5
:1059E0000E94385320E040E060E070E0CB01E8CC5A
:1059F00081E194E20E94ED9C29960FB6F894DEBFF7
:105A00000FBECDBFDF91CF911F910F91FF90EF900F
:105A1000DF90CF90BF90AF909F908F907F906F90CE
:105A20005F904F903F902F900C94E41F82E194E0A0
:105A300062C3D5018D919C9197FF8EC6F501EE5AF8
:105A4000FF4F6081718140E087E19AE00E9444A9A4
:105A500087E19AE029960FB6F894DEBF0FBECDBF5E
:105A6000DF91CF911F910F91FF90EF90DF90CF903A
:105A7000BF90AF909F908F907F906F905F904F906E
:105A80003F902F900C941FAC0E94611D8DE292E21A
:105A90000E94D49C379903C084E392E202C087E35A
:105AA00092E20E94D49C86E292E20E94D49C0E94E0
:105AB0008E1C882319F087E392E202C084E392E20D
:105AC0000E94D49C8FE192E20E94D49C0E94931C7D
:105AD000882319F087E392E202C084E392E20E94F5
