:100000000C94D71B0C94081C0C94081C0C94081C12
:100010000C94081C0C94081C0C94081C0C94081CD0
:100020000C94081C0C94081C0C94081C0C94081CC0
:100030000C94081C0D942D030C94081C0C94081CA3
:100040000C94081C0C940F730C94081C0C94081C42
:100050000C94081C0C9479740C94B2730C941BFDD2
:100060000C94081C0C94D1740C94FB740C94081C14
:100070000C94081C0C94081C0C94081C0C94081C70
:100080000C94081C0C94081C0C94081C0C94081C60
:100090000C94081C0C94081C0C94081C0C94EDFB8C
:1000A0000C94081C0C94081C0C94081C0C94081C40
:1000B0000C94081C0C94081C0C94081C0C94081C30
:1000C0000C94081C0C94081C0C94081C0C94081C20
:1000D0000C94081C0C94081C0C94081C0C94081C10
:1000E0000C94081C506C686C686C686C686C686C6C
:1000F000686C686C686C686C686C686C686C686C60
:10010000686C686C686C686C686C686C686C686C4F
:10011000686C686C686C686C3F6CF16BFB6B756B42
:10012000686C216C2B6C686C686C866B636B686C9C
:10013000176C686C356C0D6C056C686C686C686C61
:10014000D36BDD6BE76B686C686C686C686C686CB3
:10015000686C686C686C686C3F6CF16BFB6B756B02
:10016000686C216C2B6C686C686C866B636B686C5C
:10017000176C686C356C0D6C056C686C686C686C21
:10018000D36BDD6BE76B04E38DE320E451E58EF286
:100190008EF28EF28EF28EF28EF28EF28EF28EF25F
:1001A000B1E4E5E41BE58EF28EF28EF28EF28EF271
:1001B0008EF28EF28EF28EF28EF28EF233E895E8A7
:1001C000F5E855E9B5E915EA75EA8EF255EEE0EA8B
:1001D0003DEB9AEBF7EB54ECB1EC0EED7BEDE8ED7B
:1001E0008EF28EF28EF28EF28EF2B6E683E7D9E6CA
:1001F0009DEECCEE34EF9DEFB4EFECEF1BF04AF048
:100200009FF0F6F04BF1A4F1C3F1CBEF8EF28EF23A
:100210008EF28EF28EF28EF28EF28EF28EF28EF2DE
:100220008EF28EF28EF285E68EF28EF28EF28EF2E3
:100230008EF28EF28EF28EF23AF28EF252E78EF259
:100240008EF28EF2EAF113F28EF28EF28EF28EF2CE
:10025000F7E28EF28EF294E52AE668E6DBE749FEE5
:100260004EFE53FE5DFE67FEE0FE71FE79FE81FEEE
:100270008BFE95FE9FFEAEFEB8FEE0FEC2FECCFEFB
:10028000D6FE02FF05FFF4FEF8FEFEFE3CFF09FF6E
:100290000DFF13FF17FF1BFF21FF25FF29FF3CFF69
:1002A0002FFF33FF37FF07634236B79BD8A71A39B2
:1002B000685618AEBAAB558C1D3CB7CC5763BD6DB4
:1002C000EDFD753EF6177231BF000000803F05A8B6
:1002D0004CCDB2D44EB93836A9020C50B9918688AB
:1002E000083CA6AAAA2ABE000000803F436F6C64A7
:1002F00020657874727573696F6E20646973616CC0
:100300006C6F77656400436F6C64206578747275F8
:1003100073696F6E20616C6C6F77656400417574F2
:100320006F726574726163743A0053657474696EB8
:1003300067206D6F746F722063757272656E742EB4
:100340002E2E00536574204D6963726F737465704F
:1003500070696E670054726967676572696E6720BD
:100360007761746368646F672E20496620616374E7
:100370006976617465642C20746865207072696E9A
:100380007465722077696C6C2072657365742E00D9
:1003900053657474696E67205468726573686F6C16
:1003A0006420546F3A00494E542050494E3A200080
:1003B0004D323531200020746F2000536574207653
:1003C0006F6C756D6574726963206578747275738E
:1003D000696F6E20666F72206578747275646572DD
:1003E000200044697361626C656420766F6C756D82
:1003F000657472696320657874727573696F6E20B5
:10040000666F7220657874727564657220004D3174
:100410003134200048656174696E672045787472D4
:10042000756465720050696E2063616E206E6F7432
:1004300020626520736574206279204D34322C204F
:100440006D617920696E20696E76616C6964206FD8
:100450007220696E207573652E2000496C6C65678B
:10046000616C20532076616C756520666F72204D3B
:100470003432005A2028432920746F776572206631
:100480006C6F6F722073657420746F3A200059206E
:1004900028422920746F77657220666C6F6F722016
:1004A00073657420746F3A20005820284129207405
:1004B0006F77657220666C6F6F722073657420743D
:1004C0006F3A2000526F6420526164697573207323
:1004D000657420746F3A2000473133342000506F28
:1004E0007346726F6D53746570733A00436F6D702D
:1004F00044656C74613A0043616C6962726174694D
:100500006F6E206D6F76656D656E74206973206CFB
:10051000696D6974656420746F2031306D6D2E00D3
:100520004669727374206D6F766520746F20746FE6
:1005300075636820617420782C793D302C302074EC
:100540006F206175746F2D736574207261646975B5
:10055000732E0043616C6962726174696F6E206D05
:100560006F76656D656E74206973206C696D697452
:10057000656420746F2031306D6D2E0043616E6EA6
:100580006F74207365742072616469757320616E85
:100590006420666C6F6F722061742073616D6520DA
:1005A00074696D652E0043616C6962726174696F74
:1005B0006E20636F6465206973206C696D69746572
:1005C0006420746F20626F74746F6D203130252049
:1005D0006F66205A206865696768740052656C61AF
:1005E0007469766520706F736974696F6E696E6780
:1005F000004162736F6C75746520706F7369746904
:100600006F6E696E670047363920005A3A200059EC
:100610003A2000583A20004F464653455453204F45
:10062000464620425920544F4F204D554348205FA5
:1006300020545259494E4720414741494E3A2000E3
:1006400053657474696E672050726F6265205365DC
:100650006E736974697669747920546F3A005A2010
:1006600070726F6265206661696C6564206F6E20D0
:1006700073656E73697469766974793A200053659D
:100680007474696E672050726F62652053656E7373
:100690006974697669747920546F3A005A207072CF
:1006A0006F6265206661696C6564206F6E2073659A
:1006B0006E73697469766974793A2000536574744D
:1006C000696E672050726F62652053656E7369743E
:1006D000697669747920546F3A005A2070726F629B
:1006E00065206661696C6564206F6E2073656E734A
:1006F000697469766974793A200068656865004EA6
:100700006577205261646975733A20004F6C6420EC
:100710005261646975733A200043616C63756C6162
:100720007465642052616469757320697320626125
:1007300064203A0053657474696E672050726F626A
:10074000652053656E736974697669747920546F96
:100750003A005A2070726F6265206661696C656448
:10076000206F6E2073656E73697469766974793A67
:10077000200053657474696E672050726F62652043
:1007800053656E736974697669747920546F3A00A1
:100790005A2070726F6265206661696C6564206FB3
:1007A0006E2073656E73697469766974793A200096
:1007B000473332200050524F42452D5A4F46465340
:1007C00045543A004733300053657474696E6720AE
:1007D00050726F62652053656E73697469766974CF
:1007E0007920546F3A0050726F62657320646F20F5
:1007F0006E6F74206D617463682E204F6666206290
:10080000792000202D2050524F4245204F4646531C
:1008100045543A00506F696E742000473330200011
:100820004D3131372043414C4942524154494F4E9A
:1008300020434F4D504C4554450068656865004E57
:10084000657720486F72697A6F6E74616C205261AF
:10085000646975733A20004F6C6420486F72697A3E
:100860006F6E74616C205261646975733A20004345
:10087000616C63756C617465642052616469757341
:10088000206973206261643A20004D313137204382
:10089000414C4942524154494F4E204641494C45F2
:1008A000440043616C6962726174696F6E204661D5
:1008B000696C65640053657474696E672050726F6B
:1008C00062652053656E7369746976697479205422
:1008D0006F3A005A2070726F6265202843656E740B
:1008E000657220506F696E7429206661696C656459
:1008F000206F6E2073656E73697469766974793AD6
:1009000020004E6577205A204865696768743A0070
:100910004F6C64205A204865696768743A004D310D
:1009200031372043414C4942524154494F4E2046B1
:1009300041494C45440043616C6962726174696F5E
:100940006E204661696C65640053657474696E67F6
:100950002050726F62652053656E736974697669A1
:10096000747920546F3A005A2070726F62652028A3
:1009700043656E74657220506F696E7429206661DC
:10098000696C6564206F6E2073656E736974697637
:100990006974793A200047363920005A3A200059C4
:1009A0003A2000583A20004F464653455453204FB2
:1009B000464620425920544F4F204D5543482E2043
:1009C00041626F7274696E67004D31313720434167
:1009D0004C4942524154494F4E204641494C4544AE
:1009E0000043616C6962726174696F6E204661696F
:1009F0006C65640053657474696E672050726F6231
:100A0000652053656E736974697669747920546FD3
:100A10003A005A2070726F626520285A20546F770E
:100A2000657229206661696C6564206F6E2073654C
:100A30006E73697469766974793A20004D31313783
:100A40002043414C4942524154494F4E204641496E
:100A50004C45440043616C6962726174696F6E2039
:100A60004661696C65640053657474696E672050F3
:100A7000726F62652053656E736974697669747903
:100A800020546F3A005A2070726F626520285920F6
:100A9000546F77657229206661696C6564206F6E9A
:100AA0002073656E73697469766974793A20004DB4
:100AB0003131372043414C4942524154494F4E2035
:100AC0004641494C45440043616C696272617469F6
:100AD0006F6E204661696C65640053657474696E5D
:100AE000672050726F62652053656E736974697612
:100AF00069747920546F3A005A2070726F626520D1
:100B0000285820546F77657229206661696C656486
:100B1000206F6E2073656E73697469766974793AB3
:100B20002000473420533130004D313034205330D1
:100B30000A4D3134302053300A4D3130370065785A
:100B4000656375746547436F6465202F2071756513
:100B5000756544656C74614D6F766520726574755A
:100B6000726E73206572726F7200696973326468A5
:100B700020616363656C65726F6D65746572206971
:100B80006E697469616C697A696E672E2E2E0061D8
:100B90006363656C65726F6D65746572206932633D
:100BA0002072656376206572726F722E0020766106
:100BB0006C75653A2000726561642072656720007B
:100BC000616363656C65726F6D65746572207772C1
:100BD00069746520693263206572726F722E0061DC
:100BE0006363656C65726F6D657465722073656EA5
:100BF0006420693263206572726F722E00000001FA
:100C000000250030001D000C001E00240031001CD7
:100C1000000B00180023002F001B000A0017000D16
:100C20000047000300040022002B001A004100428C
:100C300000000002003500457874722E00436F6E8C
:100C40006669673A004F6E65206865617465722059
:100C50007365656D73206465636F75706C65642082
:100C600066726F6D20746865726D6973746F72203F
:100C70002D2064697361626C696E6720616C6C2001
:100C8000666F7220736166657479210048656174CE
:100C90006572206465636F75706C6564004372658E
:100CA0006174696F6E206661696C65640044697285
:100CB0006563746F72792063726561746564004462
:100CC000656C6574696F6E206661696C6564004669
:100CD000696C652064656C6574656400446F6E655D
:100CE00020736176696E672066696C652E005772A5
:100CF0006974696E6720746F2066696C653A2000BC
:100D00006F70656E206661696C65642C2046696C45
:100D1000653A20004E6F74205344207072696E74DF
:100D2000696E67005344207072696E74696E672043
:100D300062797465200066696C652E6F70656E203F
:100D40006661696C65640046696C652073656C65F5
:100D500063746564002053697A653A0046696C657E
:100D6000206F70656E65643A00456E642066696C3C
:100D700065206C69737400426567696E2066696CF2
:100D800065206C697374006572726F722077726986
:100D900074696E6720746F2066696C650053442027
:100DA000696E6974206661696C00616476616E6366
:100DB00065204C205B303D6F66665D00657874721F
:100DC0007564657220636F6F6C6572207370656502
:100DD00064205B302D3235355D0064697374616E5B
:100DE000636520746F207265747261637420776824
:100DF000656E2068656174696E67205B6D6D5D006E
:100E000074656D702E20666F7220726574726163F6
:100E100074696F6E207768656E2068656174696EAD
:100E200067205B435D0074656D702E207374616292
:100E3000696C697A652074696D65205B735D005922
:100E40002D6F6666736574205B73746570735D00E7
:100E5000582D6F6666736574205B73746570735D7F
:100E600000504944206D61782076616C7565205B87
:100E7000302D3235355D0050494420442D6761697D
:100E80006E0050494420492D6761696E0050494405
:100E900020502D6761696E2F646561642D74696DE2
:100EA0006500504944206472697665206D696E0062
:100EB000504944206472697665206D6178006865E8
:100EC0006174206D616E61676572205B302D335DEA
:100ED00000616363656C65726174696F6E205B6D40
:100EE0006D2F735E325D0073746172742066656588
:100EF0006472617465205B6D6D2F735D006D617848
:100F00002E206665656472617465205B6D6D2F735C
:100F10005D00737465707320706572206D6D0043A1
:100F20006F72722E20646961676F6E616C2043205E
:100F30005B6D6D5D00436F72722E20646961676F37
:100F40006E616C2042205B6D6D5D00436F72722E8E
:100F500020646961676F6E616C2041205B6D6D5D1F
:100F6000004D6178207072696E7461626C652072E8
:100F70006164697573205B6D6D5D00546F77657298
:100F8000205A20656E6473746F70206F6666736597
:100F900074205B73746570735D00546F77657220A5
:100FA0005920656E6473746F70206F666673657424
:100FB000205B73746570735D00546F7765722058A1
:100FC00020656E6473746F70206F6666736574203D
:100FD0005B73746570735D005365676D656E7473E4
:100FE0002F7320666F722074726176656C00536592
:100FF000676D656E74732F7320666F7220707269EF
:101000006E74696E6700486F72697A6F6E74616C96
:1010100020726F642072616469757320617420307E
:101020002C30205B6D6D5D00446961676F6E616C93
:1010300020726F64206C656E677468205B6D6D5DF7
:1010400000486F6D696E67206665656472617465DE
:10105000205B6D6D2F735D004D61782E2066656598
:101060006472617465205B6D6D2F735D00537465F0
:10107000707320706572206D6D0054726176656CBE
:1010800020616363656C65726174696F6E205B6D6E
:101090006D2F735E325D00416363656C65726174D0
:1010A000696F6E205B6D6D2F735E325D004D6178F0
:1010B0002E206A65726B205B6D6D2F735D005A2068
:1010C0006D6178206C656E677468205B6D6D5D0086
:1010D00059206D6178206C656E677468205B6D6D5A
:1010E0005D0058206D6178206C656E677468205BC8
:1010F0006D6D5D005A20686F6D6520706F73205BA9
:101100006D6D5D005920686F6D6520706F73205B99
:101110006D6D5D005820686F6D6520706F73205B8A
:101120006D6D5D0053746F702073746570706572BF
:1011300020616674657220696E6163746976697492
:1011400079205B6D732C303D6F66665D004D617874
:101150002E20696E6163746976652074696D6520FF
:101160005B6D732C303D6F66665D005072696E7406
:10117000657220616374697665205B735D00466902
:101180006C616D656E74207072696E746564205B4D
:101190006D5D00416476616E6365642055736572B0
:1011A000004261756472617465004550523A3320A3
:1011B000004550523A3220004550523A3120004505
:1011C00050523A30200050726F746F636F6C20760B
:1011D000657273696F6E206368616E6765642C2049
:1011E000757067726164696E6700436F6E666967E8
:1011F00075726174696F6E20726573657420746FA7
:101200002064656661756C74732E00436F6E666949
:101210006775726174696F6E206C6F6164656420BC
:1012200066726F6D20454550524F4D2E00436F6ED4
:1012300066696775726174696F6E2073746F726529
:101240006420746F20454550524F4D2E00417574F7
:101250006F6C6576656C20616374697665202831F2
:101260002F3029005A2D70726F6265205933005A51
:101270002D70726F6265205833005A2D70726F6244
:1012800065205932005A2D70726F62652058320005
:101290005A2D70726F6265205931005A2D70726F2D
:1012A0006265205831005A2D70726F626520782D6A
:1012B000792D7370656564205B6D6D2F735D005AC9
:1012C0002D70726F6265207370656564205B6D6D53
:1012D0002F735D005A2D70726F6265206F666673A2
:1012E00065742079205B6D6D5D005A2D70726F62A0
:1012F00065206F66667365742078205B6D6D5D0098
:101300004D61782E207A2D70726F6265202D2062DB
:10131000656420646973742E205B6D6D5D005A2DC9
:1013200070726F626520686569676874205B6D6DB7
:101330005D0077616974005072696E74657220682F
:1013400065696768743A005A2D70726F626520662D
:1013500061696C6564005472616E73666F726D6171
:1013600074696F6E206D61747269783A00417574AA
:101370006F6C6576656C696E672064697361626C19
:101380006564004175746F6C6576656C696E672085
:10139000656E61626C6564004175746F6C6576653D
:1013A0006C206D61747269782072657365740000D9
:1013B0004732382F6E47315A32352F6E005A2D7012
:1013C000726F62652073746174653A00526573656B
:1013D00074205A20686569676874005A2D70726FAE
:1013E0006265206176657261676520686569676816
:1013F000743A002053746570205661726961746993
:101400006F6E2066726F6D2050726F626520746F10
:10141000206265642044697374616E63653A005AA2
:101420002D70726F62653A005072696E7465722039
:1014300073657420696E746F206472792072756EA2
:10144000206D6F646520756E74696C2072657374AD
:1014500061727421003A20776F726B696E67003A8F
:101460002074656D702073656E736F72206465669D
:1014700065637400657874727564657220004D54FC
:10148000454D503A00504944204175746F74756E53
:10149000652066696E6973686564202120506C61FF
:1014A000636520746865204B702C204B6920616E49
:1014B00064204B6420636F6E7374616E7473206973
:1014C0006E2074686520436F6E666967757261741B
:1014D000696F6E2E68206F7220454550524F4D0047
:1014E000504944204175746F74756E65206661695A
:1014F0006C6564212074696D656F75740050494492
:10150000204175746F74756E65206661696C6564E1
:10151000212054656D706572617475726520746FF9
:10152000206869676800204B643A2000204B693AC4
:101530002000204B703A200020436C617373696374
:1015400020504944002054753A2000204B753A2021
:1015500000206D61783A2000206D696E3A200020ED
:10156000643A200020626961733A200050494420A7
:101570004175746F74756E65207374617274005474
:10158000617267657445787472004E6F206D6F7676
:101590006520696E2064656C7461207365676D6594
:1015A0006E742077697468203E2031207365676D02
:1015B000656E742E20546869732073686F756C644F
:1015C000206E657665722068617070656E20616E50
:1015D00064206D617920636175736520612070728C
:1015E0006F626C656D210044656C746120526164AA
:1015F00069757320432830293A0044656C74612072
:1016000052616469757320422830293A0044656C40
:1016100074612052616469757320412830293A0051
:10162000416C7068612043283930293A00416C7060
:101630006861204228333330293A00416C70686178
:10164000204128323130293A00546F7765722033B7
:101650003A00546F77657220323A00546F776572A2
:1016600020313A00496E76616C69642064656C745F
:101670006120636F6F7264696E617465202D206DE7
:101680006F76652069676E6F726564006C696E6560
:101690006172204C3A00454550524F4D20757064A0
:1016A00061746564002C2073706565643D00206C76
:1016B000696E6561722073746570733A004A657271
:1016C0006B3A007A5F6D61783A00795F6D61783AC4
:1016D00000785F6D61783A004C2000482000206956
:1016E00073200020746F2000536574206F75747030
:1016F00075743A20004D53312C4D53322050696E91
:10170000730045313A0045303A005A3A00593A00E0
:1017100020002C00206D696E0020686F75727320A8
:1017200000206461797320006D20005072696E742E
:10173000696E672074696D653A005072696E7465F0
:10174000642066696C616D656E743A0046616E7303
:10175000706565643A00482E205261646975733A79
:1017600000466C6F774D756C7469706C793A0053F4
:10177000706565644D756C7469706C793A00202FE2
:10178000002F003A0020403A00543A0020453A0029
:10179000205A3A0020593A0020583A00583A004658
:1017A0007265652052414D3A00556E6B6E6F776ED3
:1017B00020636F6D6D616E643A00536F667477617C
:1017C0007265205265736574005761746368646F55
:1017D000672052657365740042726F776E206F7573
:1017E000742052657365740045787465726E616C1F
:1017F00020526573657400506F7765725570007381
:101800007461727400424C4B2000736B697020004D
:1018100020676F7420004572726F723A6578706548
:1018200063746564206C696E6520005344207265A2
:101830006164206572726F7200205200204A00209D
:101840004900205000205300204600204500205A27
:1018500000205900205800446F6E65207072696E38
:1018600074696E672066696C6500466F726D61749D
:10187000206572726F720057726F6E6720636865C1
:10188000636B73756D004563686F3A0052657365ED
:101890006E643A005761726E696E673A00496E660F
:1018A0006F3A004572726F723A00494E46004E41DF
:1018B0004E006F6B004649524D574152455F4E41B5
:1018C0004D453A52657065746965725F302E3932E4
:1018D0002E32204649524D574152455F44415445AE
:1018E0003A3230313730323031204D414348494E61
:1018F000455F545950453A4861636B6572204832E0
:101900002000206465672E204300206D656173759B
:1019100072656420004572726F723A436F756C6431
:10192000206E6F7420686F6C642074656D706572D2
:1019300061747572652000206D73002061667465A6
:101940007220004572726F723A54656D702E20726B
:10195000616973656420746F20736C6F772E2052F9
:10196000697365203D2000004D3131372045787482
:1019700072756465722031001C151C140000002271
:1019800043141F1F8C1D381DC81C781C000000004C
:101990000000F01BE41A941A181A9C190400081D80
:1019A000900058091C01B007A801C806340230068F
:1019B000C002C0054C036805D80318056404D004B0
:1019C000F00498047C0560040806300494060004C2
:1019D0002007D003AC07A80338088003C4085803C5
:1019E00050093003DC090803680AD802F40AB0027F
:1019F000800B88020C0C6002980C3002240DF80158
:101A0000B00DC0013C0E8001C80E3001540FB8006B
:101A1000B40F2800E00F00000400401D9000600992
:101A20001C01B007A801D00634023806C002C80560
:101A30004C036805D80318056404D804F00498041E
:101A40007C05600408063004940600042007D003D7
:101A5000AC07A80338088003C408580350093003B2
:101A6000DC090803680AE002F40AB802800B880265
:101A70000C0C6002980C3002240DF801B00DC0016E
:101A80003C0E8001C80E3001540FB800B40F28007E
:101A9000E00F000004000016D800C006AC01780575
:101AA0008002C004540348042804E803FC0498039B
:101AB000D0055003A40618037807D8024C08A802E2
:101AC00020097002F4093802C80A08029C0BD001F0
:101AD000700C9001440D5001180EF800EC0E8800B7
:101AE000C00F00000400681D4C00500B9400580902
:101AF000DC0050082401A8076C012807B401C006C7
:101B0000FC017006440228068C02F005D402B805D8
:101B10001C03880564035805AC033005F403100565
:101B20003C04E8048404C804CC04A804140590040C
:101B30005C057004A4055804EC0538043406200440
:101B40007C060804C406F0030C07D8035407C80336
:101B50009C07B003E40798032C0880037408700303
:101B6000BC085803040948034C09300394091803BE
:101B7000DC090803240AF0026C0AE002B40AC80275
:101B8000FC0AB002440BA0028C0B8802D40B70023A
:101B90001C0C5802640C4002AC0C2802F40C10021D
:101BA0003C0DF001840DD801CC0DB801140E980144
:101BB0005C0E7001A40E4801EC0E1801340FD80021
:101BC0007C0F8800C40F0800FC0F0000000000001C
:101BD0000000000000000000000000000000000005
:101BE00000000000000000000000000000000000F5
:101BF0000000401F450060094F0010095C00C0084C
:101C00006B0070087D0020089200D007AC008007B0
:101C1000CC003007DE00E006230190065E0140069E
:101C2000A601F005FF01A0056D025005F3020005B5
:101C30009603B0045A046004400510044806C0032B
:101C40006E077003A8082003EB09D002230B800263
:101C5000410C3002390DE001040E9001A20E40014A
:101C6000170FF000690FA000A20F5000C60F000070
:101C7000DD0FB0FFEB0F60FF0400700DD8004804CB
:101C8000AC0158038002D8025403800228043802B1
:101C9000FC040002D005C801A40698017807700171
:101CA0004C08480120091801F409F000C80AC800CE
:101CB0009C0BA000700C7000440D3800180E000042
:101CC000EC0EA8FFC00FE8FE0400001B54006009E2
:101CD000640010097400C008840070089C0020088B
:101CE000B800D007D8008007000130072C01E006BB
:101CF00068019006AC0140060002F0056802A005EC
:101D0000E0025005740300052404B004F0046004EC
:101D1000DC051004E406C003040870033009200346
:101D2000780B8002600DE001A80E4001680FA00052
:101D3000C00F0000E80F60FF0400801AD800980868
:101D4000AC012007800250065403C805280458053A
:101D5000FC040005D005B004A40668047807280434
:101D60004C08E8032009B003F4097003C80A3803DB
:101D70009C0BF802700CB002440D6802180E0802A9
:101D8000EC0E8801C00F8800F00F00000000A00FCB
:101D90005C006009690010097900C0088C007008B7
:101DA000A2002008BD00D007DE0080070501300733
:101DB0003401E0066D019006B20140060702F0050D
:101DC0006D02A005E80250057B0300052B04B0045A
:101DD000F8046004EB06C003350920037F0B800282
:101DE000650DE001B00E40011D0FF000480FC80066
:101DF0006C0FA000ED0F60FFFE0F48FE0053442063
:101E00006572726F7220666978656400534420655C
:101E100072726F7220646964206E6F7420726563E1
:101E20006F766572210053442052656164204572CB
:101E3000726F72000000000000000000000000004F
:101E40000000000024F403D950C38EB1C2A23D9615
:101E5000828B3582127AE372816CCB66A861015D58
:101E6000C758EB546151204E1E4B5648C14559434B
:101E70001A41013F093D2F3B7139CD374036C934F6
:101E800065331432D430A32F802E6B2D632C672B37
:101E9000752A8E29B028DC2710274B268F25D924B8
:101EA0002B248223E0224322AC211A218D200420FE
:101EB000801F001F841E0C1E971D261DB81C4E1C63
:101EC000E61B821B201BC11A641A0A1AB2195D197B
:101ED0000A19B9186A181C18D11788174017FA166A
:101EE000B51673163116F115B31576153A1500159A
:101EF000C7148F1458142214EE13BA1388135613F0
:101F00002513F612C71299126C1240121512EB111A
:101F1000C1119811701148112111FB10D610B11088
:101F20008D106910461024100210E10FC00FA00F91
:101F3000800F610F420F230F060FE80ECB0EAF0E7E
:101F4000930E770E5C0E410E270E0D0EF30DDA0D7B
:101F5000C10DA80D900D780D600D490D320D1B0DB2
:101F6000050DEF0CD90CC30CAE0C990C850C700C44
:101F70005C0C480C350C210C0E0CFB0BE80BD60B43
:101F8000C40BB20BA00B8E0B7D0B6B0B5A0B4A0BC9
:101F9000390B290B180B080BF80AE90AD90ACA0AE7
:101FA000BB0AAC0A9D0A8E0A800A710A630A550AA6
:101FB000470A390A2C0A1E0A110A040AF709EA0913
:101FC000DD09D009C409B709AB099F09920987093E
:101FD0007B096F09630958094C09410936092B0926
:101FE000200915090A090009F508EB08E008D608D8
:101FF000CC08C208B808AE08A4089A089008870858
:102000007D0874086B08610858084F0846083D08A9
:1020100034082C0823081A08120809080108F807D0
:10202000F007E807E007D807D007C807C007B807D8
:10203000B007A807A1070000420FA1071605D003AB
:102040000D038B022E02E801B201860163014501F6
:102050002C0117010401F4005072696E746572203E
:102060005265616479005072696E746572205265C0
:10207000616479005072696E7465722052656164A2
:102080007900207A3A0020793A0020783A00696E87
:1020900020717565756544656C74614D6F7665205A
:1020A000746F2063616C63756C61746544656C74F6
:1020B000615375625365676D656E747320726574E4
:1020C00075726E73206572726F722E00432068699C
:1020D0007420666C6F6F720043706F73207820738A
:1020E0007175617265200043706F7320782073747E
:1020F000657073200043706F732079207371756170
:102100007265200043706F7320792073746570735B
:102110002000422068697420666C6F6F7200427004
:102120006F73207820737175617265200042706F43
:10213000732078207374657073200042706F732071
:102140007920737175617265200042706F73207918
:102150002073746570732000412068697420666C78
:102160006F6F720041706F732078207371756172A8
:1021700065200041706F7320782073746570732040
:102180000041706F73207920737175617265200052
:1021900041706F73207920737465707320006D6FC8
:1021A000766552656C617469766544697374616EB5
:1021B0006365496E5374657073202F207175657562
:1021C0006544656C74614D6F7665207265747572D7
:1021D0006E73206572726F72004D617854656D7018
:1021E0003A004469616D657465723A0041636365E4
:1021F0006C65726174696F6E3A004D6178537065F9
:1022000065643A004A65726B3A004D6178426564D4
:1022100054656D703A005072696E746572547970CD
:10222000653A44656C7461005A54726176656C411C
:102230006363656C3A005954726176656C416363FF
:10224000656C3A005854726176656C416363656CE5
:102250003A005A5072696E74416363656C3A005972
:102260005072696E74416363656C3A0058507269CC
:102270006E74416363656C3A005A53697A653A003B
:102280005953697A653A005853697A653A005A4D4C
:1022900061783A00594D61783A00584D61783A00BA
:1022A0005A4D696E3A00594D696E3A00584D696E43
:1022B0003A004A65726B58593A005072696E746CF4
:1022C000696E6543616368653A00454550524F4DFC
:1022D0003A004175746F6C6576656C3A005A5072BD
:1022E0006F62653A00436173654C69676874733A5D
:1022F00000537570706F72744C6F63616C46696CDB
:10230000616D656E746368616E67653A00537570E0
:10231000706F72744731304731313A005A486F6DEF
:10232000654469723A0059486F6D654469723A00B4
:1023300058486F6D654469723A00536F66747761EF
:102340007265506F7765725377697463683A004CB1
:1023500043443A0046616E3A005344436172643A22
:10236000004865617465644265643A004D69786946
:102370006E6745787472756465723A004E756D4586
:10238000787472756465723A00496E70757442753E
:10239000666665723A0042617564726174653A00FE
:1023A0004E6F2063617365206C6967687473004DBC
:1023B00031313420007A70726F62696E672E2E2E72
:1023C0000064656C6179203130306D732E00686F68
:1023D0006D65417869732000686F6D654178697338
:1023E000202F20717565756544656C74614D6F763D
:1023F000652072657475726E73206572726F7200FB
:10240000486F6D652044656C7461005072696E742C
:1024100065723A3A736574757020006D6F76655415
:102420006F5265616C202F20717565756544656C10
:1024300074614D6F76652072657475726E73206578
:1024400072726F72006D6F7665546F202F207175F8
:1024500065756544656C74614D6F76652072657451
:1024600075726E73206572726F720053746570704E
:1024700065722044697361626C6564004B696C6CC1
:102480006564006973506F736974696F6E416C6C39
:102490006F776564200055706C6F6164696E672E9C
:1024A0002E2E00005344207072696E742073746F76
:1024B0007070656420627920757365722E004739EB
:1024C000312F6E4731205A2D31302E302045352E98
:1024D000312046313530302F6E4739302F6E00476E
:1024E00039312F6E4731205A31302E3020452D356D
:1024F0002E302046313530302F6E4739302F6E0068
:102500005344206361726420696E736572746564FC
:10251000005344204361726420696E736572746570
:102520006400534420436172642072656D6F766568
:102530006400534420636172642072656D6F766538
:10254000640000002110422063308440A550C66022
:10255000E770088129914AA16BB18CC1ADD1CEE160
:10256000EFF13112100273325222B5529442F772D7
:10257000D662399318837BB35AA3BDD39CC3FFF3B0
:10258000DEE36224433420040114E664C774A444E7
:1025900085546AA54BB528850995EEE5CFF5ACC500
:1025A0008DD55336722611163006D776F6669556B7
:1025B000B4465BB77AA719973887DFF7FEE79DD750
:1025C000BCC7C448E5588668A77840086118022847
:1025D0002338CCC9EDD98EE9AFF9488969990AA9A0
:1025E0002BB9F55AD44AB77A966A711A500A333A17
:1025F000122AFDDBDCCBBFFB9EEB799B588B3BBBF0
:102600001AABA66C877CE44CC55C222C033C600CA6
:10261000411CAEED8FFDECCDCDDD2AAD0BBD688D3F
:10262000499D977EB66ED55EF44E133E322E511EF6
:10263000700E9FFFBEEFDDDFFCCF1BBF3AAF599F8F
:10264000788F8891A981CAB1EBA10CD12DC14EF12F
:102650006FE18010A100C230E32004502540467095
:102660006760B9839893FBA3DAB33DC31CD37FE3C0
:102670005EF3B1029012F322D232354214527762E5
:102680005672EAB5CBA5A89589856EF54FE52CD590
:102690000DC5E234C324A014810466744764245435
:1026A0000544DBA7FAB79987B8975FE77EF71DC7A0
:1026B0003CD7D326F2369106B01657667676154685
:1026C00034564CD96DC90EF92FE9C899E9898AB9F0
:1026D000ABA94458654806782768C018E1088238D5
:1026E000A3287DCB5CDB3FEB1EFBF98BD89BBBAB00
:1026F0009ABB754A545A376A167AF10AD01AB32A25
:10270000923A2EFD0FED6CDD4DCDAABD8BADE89D4F
:10271000C98D267C076C645C454CA23C832CE01C74
:10272000C10C1FEF3EFF5DCF7CDF9BAFBABFD98FDF
:10273000F89F176E367E554E745E932EB23ED10EC4
:10274000F01E7C3C3E5E2B3D3F2F5B5D3B2C2A22E6
:102750005C005265717565737450617573653A00FC
:102760004D31313720494E53455254205344204374
:10277000415244004D3131372053442043415244AB
:10278000204552524F520055495F414354494F4EE4
:102790005F5345545F4D454153555245445F4F5239
:1027A0004947494E20004E6F2053442043617264D4
:1027B0000053687574204F666620414C4C20486574
:1027C0006174730050726568656174204142530002
:1027D0005072656865617420504C410055495F41F5
:1027E0004354494F4E5F484F4D455F5A200055496D
:1027F0005F414354494F4E5F484F4D455F5920005C
:1028000055495F414354494F4E5F484F4D455F58CE
:10281000200055495F414354494F4E5F484F4D4555
:10282000414C4C200055495F414354494F4E5F5A3B
:10283000504F534954494F4E5F464153545F4E4F9A
:1028400054455354200055495F414354494F4E5F0E
:102850005A504F534954494F4E5F4E4F544553546D
:10286000200055495F414354494F4E5F45504F53F7
:102870004954494F4E200055495F414354494F4EFA
:102880005F5A504F534954494F4E5F46415354206D
:102890000055495F414354494F4E5F59504F53498A
:1028A00054494F4E5F46415354200055495F4143C0
:1028B00054494F4E5F58504F534954494F4E5F460D
:1028C000415354200055495F414354494F4E5F5A8C
:1028D000504F534954494F4E200055495F4143548E
:1028E000494F4E5F59504F534954494F4E20005560
:1028F000495F414354494F4E5F58504F53495449E3
:102900004F4E200042616E6742616E6700536C6FEC
:102910007742616E6700446561642054696D6500AB
:1029200050494400003A00206461797320005065EA
:102930007263656E74205072696E7465643A00202B
:10294000646566200046572044617465203230314A
:102950003730323031004861636B65722048320095
:102960005365654D65434E43004861636B65722056
:10297000483200D5358B352335C634416374696FD1
:102980006E3A256C6100040003004E6F00596573B8
:10299000004E2F41004F6666004F6E000000003F62
:1029A000CDCC4C3D0AD7A33B6F12033A52657065FC
:1029B00074696572207620302E39322E3200004044
:1029C00014548025000040380000004B0000807047
:1029D000000000960000C0DA000000E10000002CBA
:1029E000010008B2010000C2010000F401000084EF
:1029F000030090D0030000E803000008070020A1B6
:102A0000070000100E0040420F0060E316000000B7
:102A10000000110A0411040A1111001C1F11111FDA
:102A20000000040A0A0A0E1F1F0E001F1111111FB9
:102A30000000001F1F1F1F1F0000040A04000000E9
:102A40000000040E15041C000000020000060051E6
:102A50002A4D32B72A382F8A2A8B2FF92A020000F2
:102A60000700642A4D32722A382F8A2A8B2FC32EF0
:102A70009E2A792A02393000005072696E7465729C
:102A80002053657474696E677300912A020B3100DC
:102A90000041646A7573742054656D707300A52AD3
:102AA00002CF2A0000416476616E6365642053653D
:102AB0007474696E677300BE2A0250300000507251
:102AC000696E7465722053657474696E6773000271
:102AD00000000900D62A4D32E42BD02BC02BB02B9E
:102AE000E82A992B812BF92AEF2A02662E0000444E
:102AF0006562756767696E6700002B022E31000002
:102B000043616C6962726174696F6E204D656E75A8
:102B1000000310270200182B232B1C2B2A2B00004C
:102B20000000003B2B00000000006C6F61646564D6
:102B300020662E20454550524F4D00436F6E66690A
:102B40006775726174696F6E000310270200502B65
:102B50005B2B542B622B0000000000732B00000045
:102B6000000073746F72656420696E204545505291
:102B70004F4D00436F6E66696775726174696F6E61
:102B800000882B03070400004C6F61642066726F9D
:102B90006D20454550524F4D00A02B030604000008
:102BA00053746F726520746F20454550524F4D002D
:102BB000B72B02F32B0000457874727564657200C0
:102BC000C72B02FA2D0000466565647261746500CA
:102BD000D72B02262E0000416363656C6572617419
:102BE000696F6E00EB2B02462D000047656E657223
:102BF000616C000200001000FA2B4D32322D1E2DA8
:102C00000C2DFB2CE62CB72CCF2CA02C8D2C792C4A
:102C1000682C572C422C2D2C1A2C212C042F04000C
:102C200000504944204D61783A25584400342C0422
:102C3000260400004472697665204D61783A255873
:102C40004D00492C04250400004472697665204D2E
:102C5000696E3A25586D005E2C042404000050492A
:102C60004420443A255864006F2C0423040000508B
:102C7000494420493A25586900802C042204000068
:102C800044542F50494420503A25587000942C0445
:102C90002D040000436F6E74726F6C3A2558680003
:102CA000A72C0446040000416476616E6365206CC5
:102CB000696E3A25586C00BE2C044D040000576123
:102CC000697420556E6974733A2558556D6D00D638
:102CD0002C044C040000576169742054656D702EFB
:102CE000255854024300ED2C042E04000053746157
:102CF000622E54696D653A25587700022D042A0426
:102D00000000416363656C3A25584100132D042B84
:102D10000400004D61782046523A25584600252D82
:102D2000042C04000053746172742046523A2558F2
:102D30006600392D042904000053746570732F4D0B
:102D40004D3A2553650002000004004D2D4D32829E
:102D50002D6A2D552D5C2D02962D00004D61782E8B
:102D600020496E61637469766500712D02C82D007B
:102D7000005374657070657220496E616374697682
:102D80006500892D0410040000426175647261744D
:102D9000653A256F630003580402009D2DA82DA1FC
:102DA0002DAF2D0000000000B92D00000000005BD9
:102DB000735D20303D4F6666004469732E20416686
:102DC0007465723A256970000320040200CF2DDA81
:102DD0002DD32DE12D0000000000EB2D00000000A0
:102DE000005B735D20303D4F6666004469732E20A2
:102DF00041667465723A25697300020000030001A0
:102E00002E4D32172E072E0E2E0413040000486F8D
:102E10006D653A25665A001E2E04160400004D61A9
:102E2000783A25667A0002000004002D2E4D3255B6
:102E30002E452E352E3C2E040E0400004A65726B82
:102E40003A25616A004C2E040D0400004D6F766532
:102E50003A25615A005C2E040A0400005072696E23
:102E6000743A25617A0002000005006D2E4D32B0E3
:102E70002E9D2E8A2E772E7E2E033504000044725E
:102E8000792072756E3A25646400912E0334040033
:102E9000004572726F7273203A25646500A42E0398
:102EA00033040000496E666F2020203A25646900D3
:102EB000B72E03320400004563686F2020203A25B6
:102EC000646F00CA2E02D72E000053442043617263
:102ED00064204D656E75000200000600DE2E4D3246
:102EE000382F252F0F2FFD2EEA2EF12E03F403018C
:102EF0000244656C6574652066696C6500042F0288
:102F0000572F020053746F70205072696E74001650
:102F10002F03F7030400436F6E74696E75652050CC
:102F200072696E74002C2F03F603020450617573EE
:102F300065205072696E74003F2F03F50301025340
:102F4000656C6563742053442046696C650001001C
:102F5000000100552F4D3202000003005E2F792F33
:102F60006F2F642F6B2F0354240200596573007672
:102F70002F03E80300004E6F00802F0100000000C7
:102F800053746F70205072696E7400922F02A32FD9
:102F9000000041646A7573742046616E2073706529
:102FA0006564000200000700AA2F4D3221300D3069
:102FB000F82FE32FCE2FB82FBF2F031E040000538E
:102FC00065742046616E2031303025252500D52FCF
:102FD000031D0400005365742046616E20373525BB
:102FE000252500EA2F031C04000053657420466168
:102FF0006E20353025252500FF2F031B04000053CC
:1030000065742046616E2032352525250014300375
:103010001A0408005475726E2046616E204F666671
:10302000002830045204000046616E20737065650C
:10303000643A25467325252500020000090040302A
:103040004D329A308130F830E530CB303932B33000
:10305000020000090057304D329A308130F830E5D7
:1030600030CB3039326930B330703003B20F0000EA
:10307000556E6C6F636B2046756C6C204D656E757C
:103080000088300448040000466C6F7720205261AD
:1030900074653A256F6625252500A130041F0400BC
:1030A00000537065656420526174653A256F6D2523
:1030B000252500BA30034204001044697361626C34
:1030C0006520537465707065727300D230033804E4
:1030D000000053687574204F666620414C4C2048B0
:1030E0006561747300EC300347040000507265683A
:1030F0006561742041425300FF30033704000050E3
:1031000072656865617420504C4100020000030044
:1031100012314D3216311D31043D0400004E4F5A1C
:103120002054656D703A202025453002430002008E
:1031300000060035314D326B31413139320332579F
:103140003148310421040000482E20526164697521
:1031500073203A256F68005E3103AC0F00005365A1
:1031600074205A204F726967696E00723102833190
:10317000000046756C6C2043616C69627261746911
:103180006F6E0002000004008A314D32C031AB3155
:103190009231993103B10F0000426567696E204397
:1031A000616C6962726174696F6E00B23103B50F50
:1031B00000004245442041524520434C45414E00C9
:1031C000C73103B40F00004D414B452053555245C4
:1031D000204E4F5A5A4C452026000200000600E1BE
:1031E000314D323932273215320332ED31F43102AA
:1031F00066320000457874722E20706F73697469AE
:103200006F6E000A3202C73300005A20506F736994
:1032100074696F6E001C32021C3400005920506F1C
:10322000736974696F6E002E320271340000582089
:10323000506F736974696F6E00403203FD030000C4
:10324000486F6D65205072696E7465720054320368
:10325000E803000050726576696F757320536372DE
:1032600065656E20010003F00304006D328A32832D
:10327000327C327532913200000000009F32000033
:10328000000000B0320000000000BF32000000006B
:1032900000255566206D207072696E74656400208B
:1032A000453A2565632F25456302437E256F43001C
:1032B0003120636C69636B203D2031206D6D0045CA
:1032C0003A257833206D6D0003FC030400CF32EC07
:1032D00032E532DE32D732F3320000000000F43241
:1032E0000000000000043300000000001433000060
:1032F000000000004D617820656E6473746F703A51
:1033000025735A004D696E20656E6473746F703A50
:1033100025737A005A3A257832206D6D0003FB033D
:103320000400243341333A3333332C334833000021
:103330000000004933000000000059330000000085
:103340000069330000000000004D617820656E6464
:1033500073746F703A257359004D696E20656E6401
:1033600073746F703A25737900593A257831206D5E
:103370006D0003FA030400793396338F3388338169
:10338000339D3300000000009E330000000000AEBB
:10339000330000000000BE330000000000004D615B
:1033A0007820656E6473746F703A257358004D69A8
:1033B0006E20656E6473746F703A25737800583AA6
:1033C000257830206D6D0003EF030400CE33EB331E
:1033D000E433DD33D633F2330000000000F3330072
:1033E000000000000334000000000013340000005F
:1033F0000000004D617820656E6473746F703A252B
:10340000735A004D696E20656E6473746F703A254F
:10341000737A005A3A257832206D6D0003EE03046A
:103420000023344034393432342B34473400000024
:103430000000483400000000005834000000000084
:1034400068340000000000004D617820656E6473F0
:10345000746F703A257359004D696E20656E647300
:10346000746F703A25737900593A257831206D6D63
:103470000003ED030400783495348E3487348034AF
:103480009C3400000000009D340000000000AD34BA
:103490000000000000BD340000000000004D617815
:1034A00020656E6473746F703A257358004D696EB1
:1034B00020656E6473746F703A25737800583A25EE
:1034C0007830206D6D000000000400CD34EA34E354
:1034D00034DC34D534F1340000000000F73400004F
:1034E0000000000B3500000000000F350000000058
:1034F00000255566206D00546F74616C2046696C20
:10350000616D656E742055736564002555740054B3
:103510006F74616C205072696E74696E67205469B3
:103520006D650000000004002A3547354035393507
:1035300032354E3500000000005835000000000014
:10354000663500000000007835000000000048618A
:10355000636B6572204832005072696E7465722028
:103560004D6F64656C00465720446174653A2032A3
:10357000303137303230310046572056657273692A
:103580006F6E3A20302E39322E32000000000400D7
:103590009235AF35A835A1359A35B6350000000013
:1035A00000BA350000000000C3350000000000CC68
:1035B000350000000000256F73005A3A257832204C
:1035C0006D6D00593A257831206D6D00583A257897
:1035D00030206D6D000000000400DC35F935F23557
:1035E000EB35E43500360000000000043600000032
:1035F00000000D360000000000263600000000002C
:10360000256F73005A3A257832206D6D005370652E
:1036100065643A256F6D25252520466C6F773A2520
:103620006F66252525004E4F5A3A25656320546163
:10363000726765743A2545630000000000000000D1
:1036400000000000FF0000010000000A0B02090C4E
:103650000D0E080703040100000000000000000038
:10366000000000000000000000000000000000005A
:103670000000000000121110000000000000000017
:103680000000000000000000000000000000000139
:103690000210202008081020401020408002010263
:1036A000010804020101020408102040808040202B
:1036B0001008040201800402018040201008040266
:1036C00001080402010102040810204080010204E4
:1036D00008102040800505050507050808080802B0
:1036E0000202020A0A08080404040401010101019B
:1036F0000101010303030303030303040707070C8A
:103700000C0C0C0C0C0C0C0202020206060606063F
:103710000606060B0B0B0B0B0B0B0B0000200023FC
:1037200000260029002C002F0032000001000003B9
:10373000010601090100002200250028002B002EAF
:10374000003100340002010000050108010B0100F6
:10375000002100240027002A002D00300033000142
:10376000010000040107010A01024E414E494E4981
:103770005459494E46CDCCCC3D0AD7233C17B7D13E
:103780003877CC2B329595E6241FB14F0A000020E4
:10379000410000C84200401C4620BCBE4CCA1B0E63
:1037A0005AAEC59D7400AB75F5AFE9BB0EFB112495
:1037B0001FBECFEFD1E2DEBFCDBF00E00CBF13E0F4
:1037C000A0E0B2E0E4E3F9E102E00BBF02C0079041
:1037D0000D92A633B107D9F72EE1A6E3B3E001C0FD
:1037E0001D92AD34B207E1F717E3CEEAD7E300E06C
:1037F00006C022970109FE010BBF0F941308C63AB9
:10380000D10780E00807A9F70E94D4FF0D94980C17
:103810000C940000CF93DF9300D01F92CDB7DEB79A
:1038200044E050E0BC01CE0101960F94540C698134
:103830007A818B819C810F900F900F900F90DF9178
:10384000CF91089588E493E0E5CFCF92DF92EF9295
:10385000FF92CF93DF9300D01F921F92CDB7DEB7B8
:103860006B017C016093551870935618809357181C
:10387000909358180E944098C982DA82EB82FC82A9
:1038800044E050E065E773E0CE0101960F94760CBA
:1038900023E0B701A60184EC94E00E942C4C0E9426
:1038A0009E4F682F88E690E06D830F94640C6D81C5
:1038B000681721F088E690E00F947F0C0F900F902E
:1038C0000F900F900F90DF91CF91FF90EF90DF90CE
:1038D000CF900895CF93DF931F92CDB7DEB7BC0191
:1038E0008DE793E00F94920C0E949E4F682F88E61C
:1038F00090E069830F94640C6981681739F088E659
:1039000090E00F90DF91CF910D947F0C0F90DF919D
:10391000CF910895CF93DF931F92CDB7DEB7BC014F
:103920008FE793E00F94920C0E949E4F682F88E6D9
:1039300090E069830F94640C6981681739F088E618
:1039400090E00F90DF91CF910D947F0C0F90DF915D
:10395000CF910895CF93DF931F92CDB7DEB7BC010F
:1039600081E893E00F94920C0E949E4F682F88E6A6
:1039700090E069830F94640C6981681739F088E6D8
:1039800090E00F90DF91CF910D947F0C0F90DF911D
:10399000CF910895CF93C82F80916B048823D1F0E5
:1039A00010926B040E942C6590919002915090931C
:1039B0009002911109C080919102833010F40E940D
:1039C000D36485E0809390026C2F87E99CE1CF91CE
:1039D0000C9495F8CF91089580913206882349F090
:1039E0000E94D66E80E0D6DF87E99CE10E9494F8C1
:1039F000F3CF08954F925F926F927F928F929F9232
:103A0000AF92BF92CF92DF92EF92FF920F931F93EC
:103A1000CF93DF9300D01F92CDB7DEB78C0180919A
:103A2000CF189091D018A091D118B091D218898355
:103A30009A83AB83BC83C090D318D090D418E09005
:103A4000D518F090D6188090D7189090D818A090DC
:103A5000D918B090DA189C01AD01BC01CD010F94CA
:103A6000450781110FC149805A806B807C80E894A2
:103A700077F82FEF3FEF4FE75FE7C301B2010F94F5
:103A8000450781110BC02FEF3FEF4FE75FE7C30101
:103A9000B2010F94F20318160CF4F4C0A7019601BA
:103AA000C701B6010F9445078111ECC0260137010B
:103AB000E89477F82FEF3FEF4FE75FE7C301B201DC
:103AC0000F94450781110BC02FEF3FEF4FE75FE7E2
:103AD000C301B2010F94F20318160CF4D3C0A50170
:103AE0009401C501B4010F9445078111CBC0240195
:103AF0003501E89477F82FEF3FEF4FE75FE7C30119
:103B0000B2010F94450781110BC02FEF3FEF4FE734
:103B10005FE7C301B2010F94F20318160CF4B2C0B0
:103B20002091A7183091A8184091A9185091AA186F
:103B300069817A818B819C810F948E032B013C01DA
:103B40002091AB183091AC184091AD185091AE183F
:103B5000C701B6010F948E036B017C012091AF1851
:103B60003091B0184091B1185091B218C501B4010C
:103B70000F948E034B015C0180912F19882329F04B
:103B800020E732E441E25DE304C020E030E040E8B9
:103B90005FE3C301B2010F949A06AB01BC0122E0BE
:103BA0008CE997E10E94694C80912F19882329F0B4
:103BB00020E732E441E25DE304C020E030E040E889
:103BC0005FE3C701B6010F949A06AB01BC0122E086
:103BD00084E997E10E94694C80912F19882329F08C
:103BE00020E732E441E25DE304C020E030E040E859
:103BF0005FE3C501B4010F949A06AB01BC0123E059
:103C000080E997E10E94694C6091E7187091E8188B
:103C10008091E9189091EA180F94C50420912B190E
:103C200030912C1940912D1950912E190F949A060C
:103C300020912F19222329F020E732E441E25DE3AD
:103C400004C020E030E040E85FE30F949A06AB0147
:103C5000BC0124E08CE897E10F900F900F900F903B
:103C6000DF91CF911F910F91FF90EF90DF90CF9058
:103C7000BF90AF909F908F907F906F905F904F908C
:103C80000C942C4CC8010E94524A4ACFCF92DF922A
:103C9000EF92FF92CF93DF93EC01893191053CF0D5
:103CA000C53F81E0D8072CF0C4EFD1E002C0C9E1E4
:103CB000D0E0BE01882777FD8095982F0F94C5042A
:103CC0006B017C016091DF177091E017882777FD09
:103CD0008095982F0F94C5049B01AC01C701B601D4
:103CE0000F94F9039B01AC016091E1177091E21709
:103CF0008091E3179091E4170F949A066093E1176F
:103D00007093E2178093E3179093E417D093E01732
:103D1000C093DF17BE018FE697E1DF91CF91FF904F
:103D2000EF90DF90CF900C94144BCF92DF92EF92F4
:103D3000FF926B017C0120E030E040E752E40F94F9
:103D4000F20387FD11C020E030E046E153E4C701F3
:103D5000B6010F94260618166CF4C12CD12C86E1FE
:103D6000E82E83E4F82E06C0C12CD12C90E7E92E72
:103D700092E4F92EC0925518D0925618E092571836
:103D8000F092581822E0B701A60186E597E1FF906E
:103D9000EF90DF90CF900C942C4C8F929F92AF922B
:103DA000BF92CF92DF92EF92FF92CF93DF93EC011D
:103DB0008931910534F0893C91052CF0C8ECD0E0B4
:103DC00002C0C9E1D0E0D093DE17C093DD17E091C7
:103DD0005A03F0915B03E258FF4FC080D180E2802C
:103DE000F38020E030E0A901C701B6010F94F2038F
:103DF000AE01662757FD6095762F18165CF0CB0153
:103E0000BA010F94C5042AE037ED43E25CE30F9456
:103E10009A0624C0CB01BA010F94C5042AE037EDFD
:103E200043E25CE30F949A0620E030E040E850E47F
:103E30000F949A064B015C01A7019601C701B601D8
:103E40000F949A062BED3FE049E450E40F949A0654
:103E50009B01AC01C501B4010F94F9036093A50265
:103E60007093A6028093A7029093A802BE0181E6F8
:103E700097E1DF91CF91FF90EF90DF90CF90BF90CF
:103E8000AF909F908F900C94144BCF93DF93209121
:103E9000A31897FD0DC0EC018F3F910519F014F0A8
:103EA000CFEFD0E0209721F028602093A31805C021
:103EB000277F2093A318C0E0D0E061118DDD8091B1
:103EC0008B1790E0C817D90729F0BE018CE497E161
:103ED0000E94144BC0938B17DF91CF9108954F929E
:103EE0005F926F927F928F929F92AF92BF92CF928A
:103EF000DF92EF92FF92CF93DF9300D01F92CDB766
:103F0000DEB72FE632E143E85AE36091C7177091BC
:103F1000C8178091C9179091CA170F949A066B0120
:103F20007C0181E890E076DC9B01AC01C701B60121
:103F30000F948E03AB01BC0122E08AE397E10E945B
:103F4000694C88E297E10E94194AE0910A02F091D7
:103F50000B0220E030E040E751E4638574858585FD
:103F600096850F94260618160CF46BC020E030E0FE
:103F7000A9018DE790E029833A834B835C830F94FA
:103F80006C0C4B015C0129813A814B815C81820E72
:103F9000931EA41EB51EC501B40120E831E541E021
:103FA00050E00F94C60760E87EEA8EEF9FEF0F9413
:103FB00061076B017C01C80CD91CEA1CFB1CBA010F
:103FC000A9018BE297E10E943A4BC701B60120E1BB
:103FD0003EE040E050E00F94C60749015A01BA01A3
:103FE000A90181E297E10E943A4BA0EFB1EFA50150
:103FF00094010F940F086C0D7D1D8E1D9F1D2CE3E9
:1040000030E040E050E00F94C607BA01A90189E111
:1040100097E10E943A4B84E197E10F900F900F9047
:104020000F90DF91CF91FF90EF90DF90CF90BF90F6
:10403000AF909F908F907F906F905F904F900C9477
:10404000314A0E9465FDC090CB17D090CC17E0900C
:10405000CD17F090CE176C197D098E099F0928EEB7
:1040600033E040E050E00F94A40783CF811102C0F9
:104070008EE207C0813011F48DE203C0823019F462
:104080008CE20C9425FE0895EAE0F1E080818860DE
:10409000808380818061808380818062808364E608
:1040A00070E08EE20E9425FE64E670E08DE20E94E0
:1040B00025FE62E870E08CE20E9425FEE1E2F1E07C
:1040C0008081887F81608083089567FD43C082304E
:1040D000E9F028F4882341F0813061F03BC083305F
:1040E00009F1843059F136C0662311F0A19A69C0F4
:1040F000A19867C080910801662311F0806801C013
:104100008F778093080147FF3AC05FC08091080114
:10411000662311F0806401C08F7B8093080147FF04
:1041200034C055C080910801662311F0886001C039
:10413000877F8093080147FF32C046C08091050108
:10414000662311F0806401C08F7B8093050147FFD7
:104150002EC03CC047FD3BC08230B9F028F4882314
:1041600041F0813061F008958330C9F08430F9F076
:104170000895442311F0A09A0895A0980895442327
:1041800011F0A29A0895A2980895809108014423FD
:1041900011F0806201C08F7D8093080108958091A5
:1041A0000801442311F08061F7CF8F7EF5CF809115
:1041B0000501442311F0806401C08F7B80930501C9
:1041C000089547FFD6CF0895089508950895089556
:1041D000643079F028F4613041F0623041F00895A4
:1041E000683051F0603141F0089540E003C040E094
:1041F00004C041E060E002C041E061E066CFCF93DF
:10420000DF9385EF96E10E94314A62B36695617053
:1042100070E08CE997E10E94084B62B3617070E036
:1042200082E197E10E94144BC6E0D1E08881992792
:1042300087FD9095692F661F6627661F70E08DE0E9
:1042400097E10E94084B62B362FB662760F970E059
:1042500082E197E10E94144B688166FB662760F952
:1042600070E08AE097E10E94084B688165FB662751
:1042700060F970E082E197E10E94144B688163FB72
:10428000662760F970E086E097E10E94084B68813C
:104290006295617070E082E197E10E94144BC3E087
:1042A000D1E0688166FB662760F970E082E097E103
:1042B0000E94084B688166FB662760F970E082E126
:1042C00097E1DF91CF910C94144BFF920F931F93C2
:1042D000CF93DF9300D01F921F92CDB7DEB785E05A
:1042E000E8EFF2E0DE01119601900D928A95E1F778
:1042F000989A9A9A80910701806280930701809131
:10430000070180618093070180910401806480939C
:1043100004018E010F5F1F4FF12CF80161918F0195
:104320008F2D56DFF394F5E0FF12F7CF0F900F902B
:104330000F900F900F90DF91CF911F910F91FF90F1
:1043400008950C94A7720E949272209108023091F5
:1043500009028217930724F49093090280930802BC
:10436000089560910802709109028091060290916F
:1043700007026817790744F47093070260930602F6
:104380008FE997E10C94144B0895CF93C82F69E1FE
:1043900070E084E59DE10E94F9FA6C2F84E59DE1CF
:1043A0000E949AFA60E084E59DE10E94FAFA88236F
:1043B00029F08FED9BE0CF910C94314ACF91089575
:1043C000CF93DF93D82FC62F69E170E084E59DE19C
:1043D0000E94F9FA6D2F84E59DE10E949AFA6C2FF4
:1043E00084E59DE10E949AFA84E59DE10E940CFB20
:1043F000882331F080EC9BE0DF91CF910C94314A1F
:10440000DF91CF9108951F93CF93DF93182FBDDFD6
:1044100041E050E069E170E084E59DE10E94EDFA41
:1044200084E59DE10E9443FA892BA1F084E59DE19A
:104430000E944BFAEC01612F70E086EB9BE00E943A
:10444000084BBE0177278DEA9BE0DF91CF911F914A
:104450000C94144B8FE89BE0DF91CF911F910C944B
:10446000314A8AE69BE00E94314A84E59DE10E9440
:10447000D8FA8FE0C8DF81E3C6DF80E2C4DF6CE9F1
:1044800080E29EDF80E2BFDF82E2BDDF60E482E2A5
:1044900097DF82E2B8DF85E2B6DF60E085E290DF99
:1044A00085E2B1DF83E2AFDF60E383E289DF83E2AD
:1044B000AADF84E2A8DF6AE484E282DF84E2A3DF89
:1044C00080E3A1DF60E280E37BDF80E39CDF81E3C8
:1044D0009ADF82E398DF64E182E372DF82E393DFB5
:1044E00083E391DF60E083E36BDF83E38CDF84E3CE
:1044F0008ADF60E084E364DF84E385DF86E383DFD3
:1045000062E386E35DDF86E37EDF87E37CDF60E0F6
:1045100087E356DF87E377DF88E375DF60E188E3D1
:104520004FDF88E370DF89E36EDF8AE36CDF62E3ED
:104530008AE346DF8AE367CF81E365DF85E363DFF4
:1045400089E361DF8DE25FCF6DE080E495E00E945A
:1045500046716AE080E495E00C944671E0915A035C
:10456000F0915B0342A953A964A975A922E089E8E7
:1045700097E10E94694CE0915A03F0915B0346A9D0
:1045800057A960AD71AD20E08EE797E10E94694CBC
:10459000E0918F02EF3F29F4E0915A03F0915B0321
:1045A000E081F0E0E857F84E608170E085E897E13F
:1045B0000E94084BC9CF2F923F924F925F926F9209
:1045C0007F928F929F92AF92BF92CF92DF92EF92A3
:1045D000FF920F931F93CF93DF93CDB7DEB7299749
:1045E0000FB6F894DEBF0FBECDBF5C01DC0116969E
:1045F0008D919C9117978C38910509F4B9C508F0F5
:10460000D7C08235910509F40AC408F07EC08A310A
:10461000910509F4C1C208F03FC08531910509F444
:1046200039C278F48231910509F413C284319105BD
:1046300009F414C2419711F00C942C321798169873
:10464000FEC48731910509F45DC208F43FC2883188
:10465000910509F485C2499711F00C942C3260E061
:1046600084E399E129960FB6F894DEBF0FBECDBF63
:10467000DF91CF911F910F91FF90EF90DF90CF903E
:10468000BF90AF909F908F907F906F905F904F9072
:104690003F902F900C94A2B68E31910509F4D9C2A7
:1046A00018F58C31910509F4ACC210F00C9463320A
:1046B00084E399E129960FB6F894DEBF0FBECDBF13
:1046C000DF91CF911F910F91FF90EF90DF90CF90EE
:1046D000BF90AF909F908F907F906F905F904F9022
:1046E0003F902F900C9403BB8A32910509F40BC3C1
:1046F00028F4809709F4DAC20C942C3280359105A5
:1047000010F00C9463320C942C328B36910509F422
:10471000DCC730F58C35910509F4E2C360F48435CB
:10472000910509F485C308F47EC38535910509F424
:10473000B6C30C942C328836910509F483C430F446
:104740008336910509F430C40C942C3289369105D6
:1047500009F462C58A36910509F4A6C70C942C3277
:104760008337910511F40C94B52B78F48F369105AD
:1047700009F4CCC78237910511F40C94D32B8D36F4
:10478000910511F00C942C3269C58537910511F40F
:104790000C94D62B08F442C78737910511F40C947A
:1047A000012C8837910511F40C94442C0C942C3274
:1047B0008530B1E09B0711F40C944D2F08F0B0C088
:1047C0008F3C910511F40C94E82D08F041C08A3C0F
:1047D000910511F40C941B2D70F4883C910511F493
:1047E0000C946A2C10F00C94BD2C8E3B910509F4AE
:1047F00008C70C942C328C3C910511F40C94722D4A
:1048000010F40C94602D8D3C910511F40C94CE2D78
:104810008E3C910511F00C942C32C50129960FB6EF
:10482000F894DEBF0FBECDBFDF91CF911F910F91E6
:10483000FF90EF90DF90CF90BF90AF909F908F90C0
:104840007F906F905F904F903F902F900C94EE551B
:104850008F3D910511F40C94A22E88F48C3D9105A6
:1048600011F40C944F2E8D3D910511F40C94772E7C
:10487000813D910511F00C942C320C94302E893E20
:10488000910511F40C94B72E40F5883E910511F076
:104890000C942C3260919017709191178EEA96E1EA
:1048A0000E94084B40918C1750918D1760918E1784
:1048B00070918F1722E085EA96E10E942C4C1092AD
:1048C00091171092901710928C1710928D171092CA
:1048D0008E1710928F170C9463328B3F910511F451
:1048E0000C94F02E8430914011F00C942C322996C7
:1048F0000FB6F894DEBF0FBECDBFDF91CF911F91F1
:104900000F91FF90EF90DF90CF90BF90AF909F906E
:104910008F907F906F905F904F903F902F90A1CDA0
:104920008E3521E0920711F40C94A430C0F58E323C
:1049300041E0940711F40C94F02F98F48931A1E030
:104940009A0711F40C94A52F8C32B1E09B0711F457
:104950000C94B52F8630914011F00C942C320C94AD
:104960006F2F8034F1E09F0711F40C94623038F41B
:104970008F32914011F40C942F300C942C328134EE
:1049800041E0940711F40C9466308234914011F0A8
:104990000C942C3280E00E94C9AB0C947B3082399D
:1049A000A1E09A0711F40C948F3198F58836E1E074
:1049B0009E0711F40C945B3138F48336914011F466
:1049C0000C9415310C942C32803931E0930711F49A
:1049D0000C9475318139914011F00C942C32299648
:1049E0000FB6F894DEBF0FBECDBFDF91CF911F9100
:1049F0000F91FF90EF90DF90CF90BF90AF909F907E
:104A00008F907F906F905F904F903F902F900C947D
:104A1000ECA9853F51E0950711F40C94BF3160F487
:104A2000843F914011F00C942C3280E00E94B54FED
:104A30008DE292E10C94CA31863FE1E09E0711F4C9
:104A40000C94E4318C38934011F40C94FE310C94A6
:104A50002C32179A169A159A0C94633284E399E1D2
:104A600029960FB6F894DEBF0FBECDBFDF91CF9170
:104A70001F910F91FF90EF90DF90CF90BF90AF907C
:104A80009F908F907F906F905F904F903F902F906E
:104A90000C9447BA84E399E129960FB6F894DEBFE7
:104AA0000FBECDBFDF91CF911F910F91FF90EF907F
:104AB000DF90CF90BF90AF909F908F907F906F903E
:104AC0005F904F903F902F900C9424B684E399E12F
:104AD00029960FB6F894DEBF0FBECDBFDF91CF9100
:104AE0001F910F91FF90EF90DF90CF90BF90AF900C
:104AF0009F908F907F906F905F904F903F902F90FE
:104B00000C9429B6D5018D919C9197FD02C00C940F
:104B1000633260E084E399E10E9439C5F501EE5A01
:104B2000FF4F6081718140E084E399E129960FB6DF
:104B3000F894DEBF0FBECDBFDF91CF911F910F91D3
:104B4000FF90EF90DF90CF90BF90AF909F908F90AD
:104B50007F906F905F904F903F902F900C947ABA17
:104B600084E399E129960FB6F894DEBF0FBECDBF5E
:104B7000DF91CF911F910F91FF90EF90DF90CF9039
:104B8000BF90AF909F908F907F906F905F904F906D
:104B90003F902F900C9491B6F5018081918192FD08
:104BA00002C00C946332468D578D60A171A1809133
:104BB0009E19882311F40C946332409395195093F5
:104BC0009619609397197093981984E799E129963B
:104BD0000FB6F894DEBF0FBECDBFDF91CF911F910E
:104BE0000F91FF90EF90DF90CF90BF90AF909F908C
:104BF0008F907F906F905F904F903F902F900C948C
:104C00007FC3D5018D919C9197FD02C00C946332B6
:104C1000F501EE5AFF4F6081718184E399E1299695
:104C20000FB6F894DEBF0FBECDBFDF91CF911F91BD
:104C30000F91FF90EF90DF90CF90BF90AF909F903B
:104C40008F907F906F905F904F903F902F900C943B
:104C500027BBF5018081918197FD02C00C946332DE
:104C600060E084E399E10E9439C5F501EE5AFF4FF7
:104C70006081718184E399E129960FB6F894DEBFD3
:104C80000FBECDBFDF91CF911F910F91FF90EF909D
:104C9000DF90CF90BF90AF909F908F907F906F905C
:104CA0005F904F903F902F900C9488BBD5018D91D1
:104CB0009C9197FD02C00C94633260E084E399E11B
:104CC0000E9439C5F501EE5AFF4F6081718184E37E
:104CD00099E129960FB6F894DEBF0FBECDBFDF91E4
:104CE000CF911F910F91FF90EF90DF90CF90BF90E9
:104CF000AF909F908F907F906F905F904F903F907C
:104D00002F900C94B6BBF5012081318133FD02C098
:104D10000C94633212A1E12EF3A0EDEFFBE044917D
:104D200050E04E155F0509F45EC032964CE0E13765
:104D3000F407A9F7F7FC57C032FF2CC0D5015E96E7
:104D40004D915D916D917C9191974F3F510561051A
:104D5000710509F0E0F461E0812F0E943DFFF5014B
:104D6000668D812F0E9476FFD5015E966D917C91B4
:104D70005F97812F0E9425FEB70188EE96E10E9481
:104D8000084BF501668D778D83EE96E112C08BE5B9
:104D900094E02BC062E0812F0E943DFFB70183EEBB
:104DA00096E10E94084B812F0E94ABFFBC018EED63
:104DB00096E129960FB6F894DEBF0FBECDBFDF9106
:104DC000CF911F910F91FF90EF90DF90CF90BF9008
:104DD000AF909F908F907F906F905F904F903F909B
:104DE0002F900C94144B85E294E029960FB6F8941A
:104DF000DEBF0FBECDBFDF91CF911F910F91FF900E
:104E0000EF90DF90CF90BF90AF909F908F907F906A
:104E10006F905F904F903F902F900C94524A109259
:104E2000EB180C94633281E08093EB180C9463329E
:104E3000D5018D919C91119792FF14C05E962D9192
:104E40003D914D915C919197A8EEB3E00F940308CA
:104E50006093990270939A0280939B0290939C02B4
:104E60000C9463320E94EC1C81E029960FB6F894F2
:104E7000DEBF0FBECDBFDF91CF911F910F91FF908D
:104E8000EF90DF90CF90BF90AF909F908F907F90EA
:104E90006F905F904F903F902F900C94DB97F501AF
:104EA0008081918192FF12C0268D378D40A151A142
:104EB000A8EEB3E00F94030860939D0270939E02E6
:104EC00080939F029093A0020C94633210929D02F3
:104ED00010929E0210929F021092A0020C946332D4
:104EE000D5018C9183FF0EC01A968D919D910D90E6
:104EF000BC91A02D8093E7029093E802A093E90271
:104F0000B093EA02F501808184FF0CC08685978505
:104F1000A089B1898093EB029093EC02A093ED02FB
:104F2000B093EE02D5018C9185FF0EC052968D9103
:104F30009D910D90BC91A02D8093EF029093F00273
:104F4000A093F102B093F2020E944098F501808193
:104F500086FD02C00C94633220915A0330915B03AA
:104F600086899789A08DB18DF90181879287A38762
:104F7000B487808129960FB6F894DEBF0FBECDBFEF
:104F8000DF91CF911F910F91FF90EF90DF90CF9025
:104F9000BF90AF909F908F907F906F905F904F9059
:104FA0003F902F900C949C5BD501ED91FC91119753
:104FB000F2FF0DC05E962D913D914D915C919197C0
:104FC000A8EEB3E00F9403086B017C0106C040E13A
:104FD000C42E47E2D42EE12CF12CE3FD179AF50103
:104FE000808184FD169AD5018C9185FD159A0E94C9
:104FF00065FD2B013C014C0C5D1C6E1C7F1C0E944E
:1050000065FDA3019201261B370B480B590BDA01F2
:10501000C901803A9648A140B10518F40E94369D16
:10502000EECFD5018C9183FD1798F501808184FD29
:105030001698D5018C9185FD02C00C9463321598A9
:105040000C9463320E94046581110C9463320E94B7
:1050500065FD6093921770939317809394179093C4
:1050600095178091AA0283FF02C00C946332F50168
:105070008081918193FF02C00C944F3292FF0AC04D
:10508000868D978DA0A1B1A1892B8A2B8B2B11F432
:105090000C944F32D5018D919C91119792FD02C0D5
:1050A0000C9463329C012227317091FF23C0232B83
:1050B00089F011E020E030E0A9015A966D917D91D0
:1050C0008D919C915D970F94260618160CF010E0B8
:1050D000212F01C020E085010C5A1F4FF501668D7C
:1050E000778D80A191A129870F94C5042985D801C6
:1050F0004C9124C0232B81F011E020E030E0A90185
:10510000F501628D738D848D958D0F94260618168A
:105110000CF010E0212F01C020E000915A03109103
:105120005B03D5015E966D917D918D919C919197D8
:1051300029870F94C5042985F801408129960FB667
:10514000F894DEBF0FBECDBFDF91CF911F910F91BD
:10515000FF90EF90DF90CF90BF90AF909F908F9097
:105160007F906F905F904F903F902F900C94C26013
:105170000E94046581110C9463320E9465FD609366
:10518000921770939317809394179093951780912B
:10519000AA0283FF02C00C946332D5018D919C91C9
:1051A000119792FD02C00C94633290FF11C011E080
:1051B00020E030E0A9015A966D917D918D919C91EE
:1051C0005D970F94260618160CF010E0412F01C0D1
:1051D00040E0F501668D778D80A191A149870F94FC
:1051E000C504498529960FB6F894DEBF0FBECDBF22
:1051F000DF91CF911F910F91FF90EF90DF90CF90B3
:10520000BF90AF909F908F907F906F905F904F90E6
:105210003F902F900C94565DD5018D919C9133E079
:10522000969587953A95E1F7817029960FB6F8948F
:10523000DEBF0FBECDBFDF91CF911F910F91FF90C9
:10524000EF90DF90CF90BF90AF909F908F907F9026
:105250006F905F904F903F902F9080C90E9404659F
:1052600081110C9463320E9465FD609392177093D4
:10527000931780939417909395178091AA0283FFB8
:1052800002C00C94633240E064E174E087E99CE181
:105290000E94A3DB87E99CE10E94F7DE0E94EC1CE0
:1052A00020905A0330905B03F5018081918191FF3A
:1052B00009C0EC5AFF4F2081211104C02CE0222E9E
:1052C00022E0322E92FF1EC090FF0FC011E020E0BE
:1052D00030E0A901D5015A966D917D918D919C91F7
:1052E0005D970F94260618160CF010E0F501668DF8
:1052F000778D80A191A10F94C504212FD1014C91EC
:105300000E94C260F10126A937A940AD51AD62A942
:1053100073A984A995A90F948D032B013C0120E06A
:1053200030E0A9010F942606181664F420E030E05E
:1053300040E050E4C301B2010F94F20387FF0EC0B6
:105340000C94633220E030E040E050ECC301B20145
:105350000F942606181614F40C946332992493942F
:10536000D101D0962D913C91D1979E968D919C9193
:105370009F97821793070CF0912C0E9465FD6D8317
:105380007E838F83988710E0412C512C32010E943C
:1053900065FD69837A838B839C83609392177093F6
:1053A00093178093941790939517DC01CB012D816F
:1053B0003E814F815885821B930BA40BB50B893E10
:1053C0009340A105B10550F080E0C8D889819A8149
:1053D000AB81BC818D839E83AF83B88781E00E94BF
:1053E000CA1C80915A0390915B032816390609F074
:1053F00064C0D1019396ED90FC9094971E141F0405
:105400000CF05BC0111158C0992009F477C0919637
:105410006D917C919297882777FD8095982F0F94B6
:10542000C5049B01AC01F10162A973A984A995A9E6
:105430000F942606181614F00C945C326627772712
:105440006E197F09882777FD8095982F0F94C504E2
:105450002091F3023091F4024091F5025091F6024E
:105460000F949A060F9492041F921F92D1015296A4
:105470002C9152972F9351962C9151972F93509690
:105480002C9150972F931F962C912F935B016C01B9
:10549000E12CF12C870120E030E0A90160E070E010
:1054A000CB010E94CE8F0F900F900F900F900F9016
:1054B0000F9011E00C945C3211E04114510461042E
:1054C000710409F050C09920F1F020E030E040E88C
:1054D0005FE3F10166A977A980AD91AD0F948D03CB
:1054E0009B01AC01D101D2966D917D918D919C91E2
:1054F000D5970F94260687FF1FC046CF411451044D
:105500006104710481F520E030E040E85FE3F101DF
:1055100066A977A980AD91AD0F948E039B01AC0174
:10552000D101D2966D917D918D919C91D5970F94DB
:10553000F20318160CF428CFF101A78DB0A128EEC4
:1055400033E00F94FD072B013C0129813A814B8107
:105550005C81420E531E641E751E41145104610489
:10556000710409F414CFD301C20129813A814B811E
:105570005C81821B930BA40BB50B81159449A54349
:10558000B74708F404CF1123E1F180915A039091B9
:105590005B0328163906A9F5D10193966D917C918C
:1055A0009497882777FD8095982F0F94C5042091B4
:1055B000F3023091F4024091F5025091F6020F94FB
:1055C0009A060F9492041F921F92F10122892F9341
:1055D00021892F9320892F9327852F935B016C01BD
:1055E000E12CF12C870120E030E0A90160E070E0BF
:1055F000CB010E94CE8F0F900F900F900F900F90C5
:105600000F901092001D0E9465FD60939217709399
:105610009317809394179093951755C78091AA027A
:1056200083FD51C70E9465FD4B015C010E9465FD31
:10563000681979098A099B09693E734081059105BA
:1056400038F080E00E94AE220E9465FD4B015C01B3
:1056500081E00E94CA1C00910A0210910B02D8013D
:105660001B964D905D906D907C901E9720E030E0F1
:1056700040EF51E4C301B2010F94260618160CF056
:1056800022C7F8012781308541855285C301B201C7
:105690000F948D039F7720E030E040E85FE30F94A4
:1056A000260618161CF20FC7D5018D919C911197F3
:1056B00093FB662760F992FF05C05E968D919C91E1
:1056C0005F970AC08FEF90E007C0F501618163FB2F
:1056D000662760F980E090E029960FB6F894DEBF67
:1056E0000FBECDBFDF91CF911F910F91FF90EF9033
:1056F000DF90CF90BF90AF909F908F907F906F90F2
:105700005F904F903F902F900C94451FD5018D9145
:105710009C91119792FF04C05E962C912093AA024F
:1057200093FF12C0F50182A193A1A4A1B5A120917C
:10573000AA02181619061A061B0614F4822B02C0B8
:10574000815082238093AA028091AA0283FFBBC664
:1057500020E040E060E070E0CB010E94C26020E009
:1057600040E060E070E0CB01E9CC85EB98E10E947D
:10577000314A29960FB6F894DEBF0FBECDBFDF9138
:10578000CF911F910F91FF90EF90DF90CF90BF903E
:10579000AF909F908F907F906F905F904F903F90D1
:1057A0002F900C946F1F8EE094E05DC3D5018D9116
:1057B0009C9197FF88C6F501EE5AFF4F6081718179
:1057C00040E087E99CE10E941CDC87E99CE1299686
:1057D0000FB6F894DEBF0FBECDBFDF91CF911F9102
:1057E0000F91FF90EF90DF90CF90BF90AF909F9080
:1057F0008F907F906F905F904F903F902F900C9480
:10580000F7DE0E94EC1C81ED96E10E94194A37995F
:1058100003C088ED96E102C08BED96E10E94194A23
:105820008AEC96E10E94194A029903C088ED96E13C
:1058300002C08BED96E10E94194A83EC96E10E942A
:10584000194A019903C088ED96E102C08BED96E1FB
:105850000E94194A29960FB6F894DEBF0FBECDBF3D
:10586000DF91CF911F910F91FF90EF90DF90CF903C
:10587000BF90AF909F908F907F906F905F904F9070
:105880003F902F900C94A422F5018081918188276C
:105890009C7081159C4009F016C6F50162A1868DA9
:1058A00029960FB6F894DEBF0FBECDBFDF91CF9122
:1058B0001F910F91FF90EF90DF90CF90BF90AF902E
:1058C0009F908F907F906F905F904F903F902F9020
:1058D0000C94D7D2E0915A03F0915B032081D5015B
:1058E0008D919C9191FF06C0F501EC5AFF4F80818C
:1058F000882311F0822F01C080E0F501928192FF90
:1059000005C046A457A460A871A803C0412C512C1F
:10591000320193FF07C0D501D2964D905D906D90F6
:105920007C90D597082F10E0B3E88B9FF0011124ED
:10593000E657FD4F4082518262827382821306C015
:105940008091DD179091DE170E94CD1E20E030E09F
:10595000A901C301B2010F94F203B801811103C080
:1059600082EE93E026CA8BEB93E00E94084B22E084
:10597000B301A20186EB93E059C1F501808183FF59
:105980000CC082859385A485B5858093BB029093D6
:10599000BC02A093BD02B093BE02D5018C9184FFDE
:1059A0000EC01E968D919D910D90BC91A02D80935F
:1059B000BF029093C002A093C102B093C202F5014E
:1059C000808185FF0CC082899389A489B5898093E1
:1059D000C3029093C402A093C502B093C602D5013E
:1059E0008C9186FF0EC056968D919D910D90BC9125
:1059F000A02D8093C7029093C802A093C902B093D0
:105A0000CA0229960FB6F894DEBF0FBECDBFDF9154
:105A1000CF911F910F91FF90EF90DF90CF90BF90AB
:105A2000AF909F908F907F906F905F904F903F903E
:105A30002F900C944098F501808183FF0CC08285E3
:105A40009385A485B5858093AB029093AC02A09317
:105A5000AD02B093AE02D5018C9184FF0EC01E96AC
:105A60008D919D910D90BC91A02D8093AF0290934C
:105A7000B002A093B102B093B202F501808185FF1C
:105A80000CC082899389A489B5898093B3029093CD
:105A9000B402A093B502B093B602D5018C9186FFF3
:105AA000B0CF56968D919D910D90BC91A02D809375
:105AB000B7029093B802A093B902B093BA02A1CFF3
:105AC000F5018081918192FFFEC4868D978DA0A102
:105AD000B1A1181619061A061B060CF4F4C480931B
