:100000000C94031C0C94341C0C94341C0C94341C61
:100010000C94341C0C94341C0C94341C0C94341C20
:100020000C94341C0C94341C0C94341C0C94341C10
:100030000C94341C0D94D4020C94341C0C94341C79
:100040000C94341C0C945DD50C94341C0C94341C0E
:100050000C94341C0C94CED60C9400D60C9494FDC5
:100060000C94341C0C9426D70C9450D70C94341C4C
:100070000C94341C0C94341C0C94341C0C94341CC0
:100080000C94341C0C94341C0C94341C0C94341CB0
:100090000C94341C0C94341C0C94341C0C94A2FB53
:1000A0000C94341C0C94341C0C94341C0C94341C90
:1000B0000C94341C0C94341C0C94341C0C94341C80
:1000C0000C94341C0C94341C0C94341C0C94341C70
:1000D0000C94341C0C94341C0C94341C0C94341C60
:1000E0000C94341C9792AF92AF92AF92AF92AF92B2
:1000F000AF92AF92AF92AF92AF92AF92AF92AF92F8
:10010000AF92AF92AF92AF92AF92AF92AF92AF92E7
:10011000AF92AF92AF92AF92869238924292BC91D8
:10012000AF9268927292AF92AF92CD91AA91AF9234
:100130005E92AF927C9254924C92AF92AF92AF92F9
:100140001A9224922E92AF92AF92AF92AF92AF9248
:10015000AF92AF92AF92AF92869238924292BC9198
:10016000AF9268927292AF92AF92CD91AA91AF92F4
:100170005E92AF927C9254924C92AF92AF92AF92B9
:100180001A9224922E9297AF20B0B3B0E4B121BF5F
:1001900021BF21BF21BF21BF21BF21BF21BF21BF5F
:1001A00044B178B1AEB121BF21BF21BF21BF21BF72
:1001B00021BF21BF21BF21BF21BF21BFC6B428B5A8
:1001C00088B5E8B548B6A8B608B721BFE8BA73B78E
:1001D000D0B72DB88AB8E7B844B9A1B90EBA7BBA7E
:1001E00021BF21BF21BF21BF21BF49B316B46CB3CA
:1001F00030BB5FBBC7BB30BC47BC7FBCAEBCDDBC4B
:1002000032BD89BDDEBD37BE56BE5EBC21BF21BF3B
:1002100021BF21BF21BF21BF21BF21BF21BF21BFDE
:1002200021BF21BF21BF18B321BF21BF21BF21BFE3
:1002300021BF21BF21BF21BFCDBE21BFE5B321BF5B
:1002400021BF21BF7DBEA6BE21BF21BF21BF21BFCF
:100250008AAF21BF21BF27B2BDB2FBB26EB4F4FC9E
:10026000F9FCFEFC08FD12FD8BFD1CFD24FD2CFDA0
:1002700036FD40FD4AFD59FD63FD8BFD6DFD77FDAB
:1002800081FDB7FEBAFEA9FEADFEB3FEF1FEBEFED5
:10029000C2FEC8FECCFED0FED6FEDAFEDEFEF1FEC9
:1002A000E4FEE8FEECFE07634236B79BD8A71A3996
:1002B000685618AEBAAB558C1D3CB7CC5763BD6DB4
:1002C000EDFD753EF6177231BF000000803F05A8B6
:1002D0004CCDB2D44EB93836A9020C50B9918688AB
:1002E000083CA6AAAA2ABE000000803F436F6C64A7
:1002F00020657874727573696F6E20646973616CC0
:100300006C6F77656400436F6C64206578747275F8
:1003100073696F6E20616C6C6F77656400417574F2
:100320006F726574726163743A0053657474696EB8
:1003300067206D6F746F722063757272656E742EB4
:100340002E2E00536574204D6963726F737465704F
:1003500070696E670054726967676572696E6720BD
:100360007761746368646F672E20496620616374E7
:100370006976617465642C20746865207072696E9A
:100380007465722077696C6C2072657365742E00D9
:1003900053657474696E67205468726573686F6C16
:1003A0006420546F3A00494E542050494E3A200080
:1003B0004D323531200020746F2000536574207653
:1003C0006F6C756D6574726963206578747275738E
:1003D000696F6E20666F72206578747275646572DD
:1003E000200044697361626C656420766F6C756D82
:1003F000657472696320657874727573696F6E20B5
:10040000666F7220657874727564657220004D3174
:100410003134200048656174696E672045787472D4
:10042000756465720050696E2063616E206E6F7432
:1004300020626520736574206279204D34322C204F
:100440006D617920696E20696E76616C6964206FD8
:100450007220696E207573652E2000496C6C65678B
:10046000616C20532076616C756520666F72204D3B
:100470003432005A2028432920746F776572206631
:100480006C6F6F722073657420746F3A200059206E
:1004900028422920746F77657220666C6F6F722016
:1004A00073657420746F3A20005820284129207405
:1004B0006F77657220666C6F6F722073657420743D
:1004C0006F3A2000526F6420526164697573207323
:1004D000657420746F3A2000473133342000506F28
:1004E0007346726F6D53746570733A00436F6D702D
:1004F00044656C74613A0043616C6962726174694D
:100500006F6E206D6F76656D656E74206973206CFB
:10051000696D6974656420746F2031306D6D2E00D3
:100520004669727374206D6F766520746F20746FE6
:1005300075636820617420782C793D302C302074EC
:100540006F206175746F2D736574207261646975B5
:10055000732E0043616C6962726174696F6E206D05
:100560006F76656D656E74206973206C696D697452
:10057000656420746F2031306D6D2E0043616E6EA6
:100580006F74207365742072616469757320616E85
:100590006420666C6F6F722061742073616D6520DA
:1005A00074696D652E0043616C6962726174696F74
:1005B0006E20636F6465206973206C696D69746572
:1005C0006420746F20626F74746F6D203130252049
:1005D0006F66205A206865696768740052656C61AF
:1005E0007469766520706F736974696F6E696E6780
:1005F000004162736F6C75746520706F7369746904
:100600006F6E696E670047363920005A3A200059EC
:100610003A2000583A20004F464653455453204F45
:10062000464620425920544F4F204D554348205FA5
:1006300020545259494E4720414741494E3A2000E3
:1006400053657474696E672050726F6265205365DC
:100650006E736974697669747920546F3A005A2010
:1006600070726F6265206661696C6564206F6E20D0
:1006700073656E73697469766974793A200053659D
:100680007474696E672050726F62652053656E7373
:100690006974697669747920546F3A005A207072CF
:1006A0006F6265206661696C6564206F6E2073659A
:1006B0006E73697469766974793A2000536574744D
:1006C000696E672050726F62652053656E7369743E
:1006D000697669747920546F3A005A2070726F629B
:1006E00065206661696C6564206F6E2073656E734A
:1006F000697469766974793A200068656865004EA6
:100700006577205261646975733A20004F6C6420EC
:100710005261646975733A200043616C63756C6162
:100720007465642052616469757320697320626125
:1007300064203A0053657474696E672050726F626A
:10074000652053656E736974697669747920546F96
:100750003A005A2070726F6265206661696C656448
:10076000206F6E2073656E73697469766974793A67
:10077000200053657474696E672050726F62652043
:1007800053656E736974697669747920546F3A00A1
:100790005A2070726F6265206661696C6564206FB3
:1007A0006E2073656E73697469766974793A200096
:1007B000473332200050524F42452D5A4F46465340
:1007C00045543A004733300053657474696E6720AE
:1007D00050726F62652053656E73697469766974CF
:1007E0007920546F3A0050726F62657320646F20F5
:1007F0006E6F74206D617463682E204F6666206290
:1008000079200047333020004D3131372043414CAF
:100810004942524154494F4E20434F4D504C45544C
:10082000450068656865004E657720486F72697A93
:100830006F6E74616C205261646975733A20004F69
:100840006C6420486F72697A6F6E74616C205261BB
:10085000646975733A200043616C63756C617465FB
:100860006420526164697573206973206261643A1F
:1008700020004D3131372043414C494252415449C7
:100880004F4E204641494C45440043616C696272B9
:100890006174696F6E204661696C656400536574AC
:1008A00074696E672050726F62652053656E73695C
:1008B00074697669747920546F3A005A2070726FA7
:1008C0006265202843656E74657220506F696E748E
:1008D00029206661696C6564206F6E2073656E7394
:1008E000697469766974793A20004E6577205A20D8
:1008F0004865696768743A004F6C64205A204865FF
:10090000696768743A004D3131372043414C4942A0
:10091000524154494F4E204641494C4544004361A1
:100920006C6962726174696F6E204661696C65649E
:100930000053657474696E672050726F626520534E
:10094000656E736974697669747920546F3A005AD8
:100950002070726F6265202843656E746572205046
:100960006F696E7429206661696C6564206F6E2002
:1009700073656E73697469766974793A20004736D5
:100980003920005A3A2000593A2000583A20004DA8
:1009900031313720456E6473746F70204F66667313
:1009A0006574204572726F72004F4646534554532A
:1009B000204F464620425920544F4F204D55434822
:1009C0002E2041626F7274696E672E2053656E73BC
:1009D000697469766974793A20004D313137204362
:1009E000414C4942524154494F4E204641494C45A1
:1009F000440043616C6962726174696F6E20466184
:100A0000696C65640053657474696E672050726F19
:100A100062652053656E73697469766974792054D0
:100A20006F3A005A2070726F626520285A20546F06
:100A300077657229206661696C6564206F6E20732A
:100A4000656E73697469766974793A20004D313145
:100A5000372043414C4942524154494F4E20464170
:100A6000494C45440043616C6962726174696F6E00
:100A7000204661696C65640053657474696E672013
:100A800050726F62652053656E736974697669741C
:100A90007920546F3A005A2070726F62652028598D
:100AA00020546F77657229206661696C6564206FD8
:100AB0006E2073656E73697469766974793A200083
:100AC0004D3131372043414C4942524154494F4EF8
:100AD000204641494C45440043616C69627261742F
:100AE000696F6E204661696C656400536574746952
:100AF0006E672050726F62652053656E736974690A
:100B00007669747920546F3A005A2070726F62656A
:100B100020285820546F77657229206661696C65BA
:100B200064206F6E2073656E736974697669747979
:100B30003A20004D3130342053300A4D31343020CA
:100B400053300A4D313037004D313137204932436F
:100B5000204572726F722E2041626F7274696E67E7
:100B600000493243204572726F72202D2043616C20
:100B70006962726174696F6E2041626F727465643C
:100B8000006578656375746547436F6465202F2041
:100B9000717565756544656C74614D6F766520721D
:100BA000657475726E73206572726F720069697315
:100BB00032646820616363656C65726F6D6574652E
:100BC0007220696E697469616C697A696E672E2E2C
:100BD0002E00616363656C65726F6D65746572206C
:100BE0006932632072656376206572726F722E00BF
:100BF0002076616C75653A200072656164207265CB
:100C0000672000616363656C65726F6D6574657202
:100C100020777269746520693263206572726F7221
:100C20002E00616363656C65726F6D65746572201B
:100C300073656E6420693263206572726F722E0074
:100C400000000100250030001D000C001E002400E3
:100C500031001C000B00180023002F001B000A00AD
:100C600017000D0047000300040022002B001A00AB
:100C700041004200000002003500206465672E201C
:100C80004300206D65617375726564200045727262
:100C90006F723A436F756C64206E6F7420686F6C6E
:100CA000642074656D7065726174757265200020D2
:100CB0006D730020616674657220004572726F72F8
:100CC0003A54656D702E2072616973656420746F8B
:100CD00020736C6F772E2052697365203D2000478A
:100CE00039310A4731452D31383046363030300AF7
:100CF000473930004D31313720457874727564655D
:100D00007220300A54300A4D38342050340A4739A2
:100D1000310A47314531373246363030300A4731B3
:100D20004535463530300A473930001C151C140053
:100D300000002243141F1F3F11EB107B102B1000EB
:100D40000000000000A30F970E470ECB0D4F0D04BF
:100D500000081D900058091C01B007A801C80634FE
:100D6000023006C002C0054C036805D803180564AC
:100D700004D004F00498047C056004080630049450
:100D80000600042007D003AC07A80338088003C47A
:100D900008580350093003DC090803680AD802F434
:100DA0000AB002800B88020C0C6002980C300224FE
:100DB0000DF801B00DC0013C0E8001C80E30015489
:100DC0000FB800B40F2800E00F00000400401D9091
:100DD0000060091C01B007A801D00634023806C023
:100DE00002C8054C036805D80318056404D804F04C
:100DF0000498047C0560040806300494060004206E
:100E000007D003AC07A80338088003C40858035070
:100E1000093003DC090803680AE002F40AB802801A
:100E20000B88020C0C6002980C3002240DF801B003
:100E30000DC0013C0E8001C80E3001540FB800B443
:100E40000F2800E00F000004000016D800C006AC18
:100E50000178058002C004540348042804E803FC18
:100E6000049803D0055003A40618037807D8024C51
:100E700008A80220097002F4093802C80A08029C76
:100E80000BD001700C9001440D5001180EF800ECCD
:100E90000E8800C00F00000400681D4C00500B9429
:100EA000005809DC0050082401A8076C012807B489
:100EB00001C006FC017006440228068C02F005D42D
:100EC00002B8051C03880564035805AC033005F41B
:100ED0000310053C04E8048404C804CC04A80414EA
:100EE0000590045C057004A4055804EC053804342E
:100EF0000620047C060804C406F0030C07D803543B
:100F000007C8039C07B003E40798032C0880037408
:100F1000087003BC085803040948034C09300394C3
:100F2000091803DC090803240AF0026C0AE002B481
:100F30000AC802FC0AB002440BA0028C0B8802D43F
:100F40000B70021C0C5802640C4002AC0C2802F41A
:100F50000C10023C0DF001840DD801CC0DB8011429
:100F60000E98015C0E7001A40E4801EC0E180134BD
:100F70000FD8007C0F8800C40F0800FC0F00000091
:100F80000000000000000000000000000000000061
:100F90000000000000000000000000000000000051
:100FA0000000000000401F450060094F0010095C70
:100FB00000C0086B0070087D0020089200D007ACCC
:100FC000008007CC003007DE00E006230190065EBB
:100FD000014006A601F005FF01A0056D025005F3D2
:100FE0000200059603B0045A04600440051004484A
:100FF00006C0036E077003A8082003EB09D0022384
:101000000B8002410C3002390DE001040E9001A268
:101010000E4001170FF000690FA000A20F5000C68C
:101020000F0000DD0FB0FFEB0F60FF0400700DD864
:10103000004804AC0158038002D8025403800228FF
:10104000043802FC040002D005C801A40698017807
:101050000770014C08480120091801F409F000C884
:101060000AC8009C0BA000700C7000440D380018DA
:101070000E0000EC0EA8FFC00FE8FE0400001B5499
:10108000006009640010097400C008840070089CA6
:10109000002008B800D007D8008007000130072CD6
:1010A00001E00668019006AC0140060002F0056808
:1010B00002A005E0025005740300052404B004F00A
:1010C000046004DC051004E406C003040870033067
:1010D000092003780B8002600DE001A80E40016832
:1010E0000FA000C00F0000E80F60FF0400801AD8B6
:1010F000009808AC012007800250065403C8052858
:10110000045805FC040005D005B004A40668047862
:101110000728044C08E8032009B003F4097003C849
:101120000A38039C0BF802700CB002440D680218D8
:101130000E0802EC0E8801C00F8800F00F000000BE
:1011400000A00F5C006009690010097900C0088CDC
:10115000007008A2002008BD00D007DE008007054F
:101160000130073401E0066D019006B20140060728
:1011700002F0056D02A005E80250057B0300052B77
:1011800004B004F8046004EB06C003350920037FB3
:101190000B8002650DE001B00E40011D0FF000480C
:1011A0000FC8006C0FA000ED0F60FFFE0F48FE009F
:1011B00000002110422063308440A550C660E770D3
:1011C000088129914AA16BB18CC1ADD1CEE1EFF17B
:1011D0003112100273325222B5529442F772D66223
:1011E000399318837BB35AA3BDD39CC3FFF3DEE3CB
:1011F0006224433420040114E664C774A444855473
:101200006AA54BB528850995EEE5CFF5ACC58DD51A
:101210005336722611163006D776F6669556B446C2
:101220005BB77AA719973887DFF7FEE79DD7BCC76A
:10123000C448E5588668A778400861180228233812
:10124000CCC9EDD98EE9AFF9488969990AA92BB9BA
:10125000F55AD44AB77A966A711A500A333A122A62
:10126000FDDBDCCBBFFB9EEB799B588B3BBB1AAB0A
:10127000A66C877CE44CC55C222C033C600C411CB2
:10128000AEED8FFDECCDCDDD2AAD0BBD688D499D5A
:10129000977EB66ED55EF44E133E322E511E700E02
:1012A0009FFFBEEFDDDFFCCF1BBF3AAF599F788FAA
:1012B0008891A981CAB1EBA10CD12DC14EF16FE18A
:1012C0008010A100C230E3200450254046706760C2
:1012D000B9839893FBA3DAB33DC31CD37FE35EF3DA
:1012E000B1029012F322D232354214527762567212
:1012F000EAB5CBA5A89589856EF54FE52CD50DC52A
:10130000E234C324A0148104667447642454054461
:10131000DBA7FAB79987B8975FE77EF71DC73CD779
:10132000D326F2369106B0165766767615463456B1
:101330004CD96DC90EF92FE9C899E9898AB9ABA9C9
:101340004458654806782768C018E1088238A32801
:101350007DCB5CDB3FEB1EFBF98BD89BBBAB9ABB19
:10136000754A545A376A167AF10AD01AB32A923A51
:101370002EFD0FED6CDD4DCDAABD8BADE89DC98D69
:10138000267C076C645C454CA23C832CE01CC10CA1
:101390001FEF3EFF5DCF7CDF9BAFBABFD98FF89FB9
:1013A000176E367E554E745E932EB23ED10EF01EF1
:1013B0007C3C3E5E2B3D3F2F5B5D3B2C2A225C003C
:1013C0004D617854656D703A004469616D6574656E
:1013D000723A00416363656C65726174696F6E3A5D
:1013E000004D617853706565643A004A65726B3AE6
:1013F000004D617842656454656D703A00507269C1
:101400006E746572547970653A44656C7461005A03
:1014100054726176656C416363656C3A005954722D
:101420006176656C416363656C3A0058547261760D
:10143000656C416363656C3A005A5072696E744121
:101440006363656C3A00595072696E7441636365F9
:101450006C3A00585072696E74416363656C3A006F
:101460005A53697A653A005953697A653A00585374
:10147000697A653A005A4D61783A00594D61783A77
:1014800000584D61783A005A4D696E3A00594D69DD
:101490006E3A00584D696E3A004A65726B58593A77
:1014A000005072696E746C696E6543616368653A79
:1014B00000454550524F4D3A004175746F6C65764A
:1014C000656C3A005A50726F62653A004361736509
:1014D0004C69676874733A00537570706F72744C1E
:1014E0006F63616C46696C616D656E746368616E93
:1014F00067653A00537570706F72744731304731C9
:10150000313A005A486F6D654469723A0059486F24
:101510006D654469723A0058486F6D654469723A66
:1015200000536F667477617265506F776572537799
:10153000697463683A004C43443A0046616E3A006D
:101540005344436172643A0048656174656442655E
:10155000643A004D6978696E6745787472756465A0
:10156000723A004E756D45787472756465723A0012
:10157000496E7075744275666665723A00426175AF
:1015800064726174653A004E6F2063617365206C0C
:101590006967687473004D31313420007A70726F5E
:1015A00062696E672E2E2E0064656C617920313081
:1015B000306D732E00686F6D654178697320006827
:1015C0006F6D6541786973202F207175657565446D
:1015D000656C74614D6F76652072657475726E739B
:1015E000206572726F7200486F6D652044656C747F
:1015F00061005072696E7465723A3A736574757001
:1016000020006D6F7665546F5265616C202F2071DC
:101610007565756544656C74614D6F76652072659E
:101620007475726E73206572726F72006D6F76657D
:10163000546F202F20717565756544656C74614D1C
:101640006F76652072657475726E73206572726F45
:101650007200537465707065722044697361626CC6
:101660006564004B696C6C6564006973506F7369E5
:1016700074696F6E416C6C6F776564200053442011
:101680006572726F722066697865640053442065E4
:1016900072726F7220646964206E6F742072656369
:1016A0006F76657221005344205265616420457253
:1016B000726F720055706C6F6164696E672E2E2EAA
:1016C00000005344207072696E742073746F7070E0
:1016D000656420627920757365722E00534420631F
:1016E00061726420696E736572746564005344208E
:1016F0004361726420696E7365727465640053445B
:1017000020436172642072656D6F76656400534496
:1017100020636172642072656D6F76656400457840
:1017200074722E00436F6E6669673A004F6E6520D3
:10173000686561746572207365656D7320646563A7
:101740006F75706C65642066726F6D207468657269
:101750006D6973746F72202D2064697361626C69A6
:101760006E6720616C6C20666F72207361666574B1
:10177000792100486561746572206465636F7570D6
:101780006C6564004372656174696F6E206661699F
:101790006C6564004469726563746F72792063726A
:1017A00065617465640044656C6574696F6E20667C
:1017B00061696C65640046696C652064656C65747C
:1017C000656400446F6E6520736176696E6720669C
:1017D000696C652E0057726974696E6720746F209A
:1017E00066696C653A20006F70656E206661696C91
:1017F00065642C2046696C653A20004E6F74205356
:1018000044207072696E74696E6700534420707270
:10181000696E74696E672062797465200066696C10
:10182000652E6F70656E206661696C65640046693F
:101830006C652073656C6563746564002053697A18
:10184000653A0046696C65206F70656E65643A00A4
:10185000456E642066696C65206C6973740042652E
:1018600067696E2066696C65206C697374006572C7
:10187000726F722077726974696E6720746F206668
:10188000696C6500534420696E6974206661696CF7
:1018900000616476616E6365204C205B303D6F664D
:1018A000665D00657874727564657220636F6F6C35
:1018B0006572207370656564205B302D3235355D4F
:1018C0000064697374616E636520746F207265745F
:1018D00072616374207768656E2068656174696EF3
:1018E00067205B6D6D5D0074656D702E20666F7294
:1018F0002072657472616374696F6E207768656EBB
:101900002068656174696E67205B435D0074656D76
:10191000702E2073746162696C697A652074696DD8
:1019200065205B735D00592D6F6666736574205B7F
:1019300073746570735D00582D6F666673657420EF
:101940005B73746570735D00504944206D6178204D
:1019500076616C7565205B302D3235355D00504900
:101960004420442D6761696E0050494420492D6729
:1019700061696E0050494420502D6761696E2F6483
:101980006561642D74696D65005049442064726915
:101990007665206D696E00504944206472697665F1
:1019A000206D61780068656174206D616E616765A6
:1019B00072205B302D335D00616363656C6572611D
:1019C00074696F6E205B6D6D2F735E325D00737492
:1019D000617274206665656472617465205B6D6D0B
:1019E0002F735D006D61782E206665656472617489
:1019F00065205B6D6D2F735D00737465707320706F
:101A00006572206D6D00436F72722E20646961678C
:101A10006F6E616C2043205B6D6D5D00436F727271
:101A20002E20646961676F6E616C2042205B6D6D72
:101A30005D00436F72722E20646961676F6E616C26
:101A40002041205B6D6D5D004D6178207072696E84
:101A50007461626C6520726164697573205B6D6D81
:101A60005D00546F776572205A20656E6473746FE1
:101A700070206F6666736574205B73746570735D48
:101A800000546F776572205920656E6473746F70AF
:101A9000206F6666736574205B73746570735D0098
:101AA000546F776572205820656E6473746F702070
:101AB0006F6666736574205B73746570735D005345
:101AC00065676D656E74732F7320666F7220747214
:101AD0006176656C005365676D656E74732F732056
:101AE000666F72207072696E74696E6700486F72FB
:101AF000697A6F6E74616C20726F642072616469C0
:101B0000757320617420302C30205B6D6D5D004456
:101B10006961676F6E616C20726F64206C656E67BF
:101B20007468205B6D6D5D00486F6D696E6720663F
:101B300065656472617465205B6D6D2F735D004D2A
:101B400061782E206665656472617465205B6D6DD9
:101B50002F735D00537465707320706572206D6D16
:101B60000054726176656C20616363656C657261B7
:101B700074696F6E205B6D6D2F735E325D00416323
:101B800063656C65726174696F6E205B6D6D2F7338
:101B90005E325D004D61782E206A65726B205B6D50
:101BA0006D2F735D005A206D6178206C656E6774CF
:101BB00068205B6D6D5D0059206D6178206C656EED
:101BC000677468205B6D6D5D0058206D6178206CD6
:101BD000656E677468205B6D6D5D005A20686F6D7F
:101BE0006520706F73205B6D6D5D005920686F6DAF
:101BF0006520706F73205B6D6D5D005820686F6DA0
:101C00006520706F73205B6D6D5D0053746F702085
:101C10007374657070657220616674657220696E98
:101C20006163746976697479205B6D732C303D6FE4
:101C300066665D004D61782E20696E616374697619
:101C4000652074696D65205B6D732C303D6F666631
:101C50005D005072696E74657220616374697665A7
:101C6000205B735D0046696C616D656E74207072F7
:101C7000696E746564205B6D5D00416476616E63BE
:101C800065642055736572004261756472617465A4
:101C9000004550523A3320004550523A3220004518
:101CA00050523A3120004550523A30200050726F65
:101CB000746F636F6C2076657273696F6E206368F2
:101CC000616E6765642C20757067726164696E6708
:101CD00000436F6E66696775726174696F6E20721A
:101CE0006573657420746F2064656661756C7473C8
:101CF0002E00436F6E66696775726174696F6E203E
:101D00006C6F616465642066726F6D20454550524A
:101D10004F4D2E00436F6E66696775726174696F0F
:101D20006E2073746F72656420746F204545505245
:101D30004F4D2E004175746F6C6576656C20616344
:101D4000746976652028312F3029005A2D70726F02
:101D50006265205933005A2D70726F6265205833C6
:101D6000005A2D70726F6265205932005A2D7072C0
:101D70006F6265205832005A2D70726F626520596B
:101D800031005A2D70726F6265205831005A2D70E3
:101D9000726F626520782D792D7370656564205BA4
:101DA0006D6D2F735D005A2D70726F6265207370B8
:101DB000656564205B6D6D2F735D005A2D70726FC9
:101DC0006265206F66667365742079205B6D6D5D5A
:101DD000005A2D70726F6265206F6666736574209D
:101DE00078205B6D6D5D004D61782E207A2D7072CC
:101DF0006F6265202D2062656420646973742E20F3
:101E00005B6D6D5D005A2D70726F6265206865694B
:101E1000676874205B6D6D5D007761697400507256
:101E2000696E746572206865696768743A005A2D36
:101E300070726F6265206661696C656400547261DE
:101E40006E73666F726D6174696F6E206D6174720E
:101E500069783A004175746F6C6576656C696E6778
:101E60002064697361626C6564004175746F6C65B0
:101E700076656C696E6720656E61626C65640041B1
:101E800075746F6C6576656C206D6174726978200D
:101E9000726573657400004732382F6E47315A32CD
:101EA000352F6E005A2D70726F62652073746174E5
:101EB000653A005265736574205A206865696768E1
:101EC00074005A2D70726F62652061766572616769
:101ED00065206865696768743A00205374657020EE
:101EE000566172696174696F6E2066726F6D205001
:101EF000726F626520746F20626564204469737438
:101F0000616E63653A005A2D70726F62653A0050D7
:101F100072696E7465722073657420696E746F20C7
:101F20006472792072756E206D6F646520756E74B1
:101F3000696C207265737461727421003A20776F46
:101F4000726B696E67003A2074656D702073656E00
:101F5000736F72206465666563740065787472756A
:101F600064657220004D54454D503A00504944205C
:101F70004175746F74756E652066696E6973686506
:101F800064202120506C61636520746865204B706B
:101F90002C204B6920616E64204B6420636F6E734C
:101FA00074616E747320696E2074686520436F6E6F
:101FB00066696775726174696F6E2E68206F722032
:101FC000454550524F4D00504944204175746F743F
:101FD000756E65206661696C6564212074696D6544
:101FE0006F757400504944204175746F74756E6547
:101FF000206661696C6564212054656D706572614D
:102000007475726520746F206869676800204B647E
:102010003A2000204B693A2000204B703A200020E3
:10202000436C617373696320504944002054753ACE
:102030002000204B753A2000206D61783A20002066
:102040006D696E3A200020643A2000206269617355
:102050003A2000504944204175746F74756E6520B4
:102060007374617274005461726765744578747238
:10207000004E6F206D6F766520696E2064656C740C
:1020800061207365676D656E742077697468203EA2
:102090002031207365676D656E742E2054686973F6
:1020A0002073686F756C64206E6576657220686158
:1020B0007070656E20616E64206D6179206361755A
:1020C000736520612070726F626C656D21004465DC
:1020D0006C74612052616469757320432830293A19
:1020E0000044656C746120526164697573204228F4
:1020F00030293A0044656C746120526164697573DB
:1021000020412830293A00416C7068612043283909
:1021100030293A00416C70686120422833333029FD
:102120003A00416C706861204128323130293A0010
:10213000546F77657220333A00546F77657220329E
:102140003A00546F77657220313A00496E76616CBF
:1021500069642064656C746120636F6F7264696E7A
:10216000617465202D206D6F76652069676E6F72D2
:102170006564006C696E656172204C3A004545509B
:10218000524F4D2075706461746564002C2073702B
:102190006565643D00206C696E65617220737465CD
:1021A00070733A004A65726B3A007A5F6D61783AF3
:1021B00000795F6D61783A00785F6D61783A004C24
:1021C0002000482000206973200020746F200053F5
:1021D0006574206F75747075743A20004D53312CFE
:1021E0004D53322050696E730045313A0045303A04
:1021F000005A3A00593A0020002C00206D696E0008
:1022000020686F7572732000206461797320006DFF
:1022100020005072696E74696E672074696D653A4A
:10222000005072696E7465642066696C616D656EDC
:10223000743A0046616E73706565643A00482E20FA
:102240005261646975733A00466C6F774D756C74B2
:1022500069706C793A0053706565644D756C74698A
:10226000706C793A00202F002F003A0020403A008D
:10227000543A0020453A00205A3A0020593A0020AA
:10228000583A00583A00467265652052414D3A006E
:10229000556E6B6E6F776E20636F6D6D616E643A15
:1022A00000536F66747761726520526573657400C0
:1022B0005761746368646F67205265736574004288
:1022C000726F776E206F7574205265736574004568
:1022D000787465726E616C20526573657400506F1E
:1022E000776572557000737461727400424C4B20B4
:1022F00000736B6970200020676F74200045727254
:102300006F723A6578706563746564206C696E6598
:10231000200053442072656164206572726F720000
:10232000205200204A002049002050002053002065
:102330004600204500205A00205900205800446FD4
:102340006E65207072696E74696E672066696C656F
:1023500000466F726D6174206572726F7200577201
:102360006F6E6720636865636B73756D00456368A6
:102370006F3A00526573656E643A005761726E6918
:102380006E673A00496E666F3A004572726F723A34
:1023900000494E46004E414E006F6B004649524D7B
:1023A000574152455F4E414D453A526570657469DB
:1023B00065725F302E39322E32204649524D5741D8
:1023C00052455F444154453A323031373130333031
:1023D000204D414348494E455F545950453A486164
:1023E000636B6572204832200052657175657374A5
:1023F00050617573653A004D31313720494E534570
:1024000052542053442043415244004D313137202F
:1024100053442043415244204552524F52005549A3
:102420005F414354494F4E5F5345545F4D454153BF
:10243000555245445F4F524947494E20004E6F2048
:10244000534420436172640053687574204F66667C
:1024500020414C4C2048656174730050726568657A
:102460006174204142530050726568656174205068
:102470004C410055495F414354494F4E5F484F4DD1
:10248000455F5A200055495F414354494F4E5F48CC
:102490004F4D455F59200055495F414354494F4EC8
:1024A0005F484F4D455F58200055495F41435449AF
:1024B0004F4E5F484F4D45414C4C200055495F41C0
:1024C0004354494F4E5F5A504F534954494F4E5F02
:1024D000464153545F4E4F54455354200055495F75
:1024E000414354494F4E5F5A504F534954494F4E00
:1024F0005F4E4F54455354200055495F4143544962
:102500004F4E5F45504F534954494F4E2000554957
:102510005F414354494F4E5F5A504F534954494FBE
:102520004E5F46415354200055495F414354494F43
:102530004E5F59504F534954494F4E5F4641535493
:10254000200055495F414354494F4E5F58504F5307
:102550004954494F4E5F46415354200055495F410D
:102560004354494F4E5F5A504F534954494F4E20A0
:102570000055495F414354494F4E5F59504F5349AD
:1025800054494F4E200055495F414354494F4E5FD7
:1025900058504F534954494F4E200042616E674294
:1025A000616E6700536C6F7742616E6700446561CE
:1025B000642054696D650050494400003A0020646D
:1025C000617973200050657263656E742050726982
:1025D0006E7465643A0020646566200046572044A6
:1025E00061746520323031373130333000486163F7
:1025F0006B6572204832005365654D65434E43005C
:102600004861636B65722048320088323E32D631B1
:102610007931416374696F6E3A256C61000400037F
:10262000004E6F00596573004E2F41004F666600E3
:102630004F6E000000003FCDCC4C3D0AD7A33B6F4E
:1026400012033A5265706574696572207620302EE7
:1026500039322E32000040145480250000403800EA
:1026600000004B00008070000000960000C0DA00FF
:102670000000E10000002C010008B2010000C201CE
:102680000000F401000084030090D0030000E80380
:10269000000008070020A1070000100E0040420FB4
:1026A0000060E3160000000000110A0411040A1182
:1026B00011001C1F11111F0000040A0A0A0E1F1F1F
:1026C0000E001F1111111F0000001F1F1F1F1F00F0
:1026D00000040A040000000000040E15041C0000A1
:1026E000000200000600E826002F4E27CF2B2127EE
:1026F000222C90270200000700FB26002F0927CF7D
:102700002B2127222C5A2B3527102702D02C0000F2
:102710005072696E7465722053657474696E677364
:1027200000282702BE2D000041646A75737420548E
:10273000656D7073003C2702662700004164766176
:102740006E6365642053657474696E677300552702
:1027500002E92C00005072696E7465722053657432
:1027600074696E67730002000009006D27002F7BFB
:10277000286728572847287F273028182890278639
:102780002702FD2A0000446562756767696E67006D
:10279000972702E12D000043616C696272617469E0
:1027A0006F6E204D656E75000310270200AF27BACB
:1027B00027B327C1270000000000D2270000000037
:1027C000006C6F6164656420662E20454550524F51
:1027D0004D00436F6E66696775726174696F6E0054
:1027E0000310270200E727F227EB27F92700000054
:1027F00000000A28000000000073746F72656420F6
:10280000696E20454550524F4D00436F6E666967B3
:1028100075726174696F6E001F2803070400004C15
:102820006F61642066726F6D20454550524F4D00B8
:102830003728030604000053746F726520746F20FC
:10284000454550524F4D004E28028A2800004578D9
:10285000747275646572005E2802912A00004665F4
:10286000656472617465006E2802BD2A00004163D0
:1028700063656C65726174696F6E00822802DD2980
:10288000000047656E6572616C00020000100091E7
:1028900028002FC929B529A32992297D294E296607
:1028A00029372924291029FF28EE28D928C428B13E
:1028B00028B828042F040000504944204D61783A7C
:1028C00025584400CB28042604000044726976652C
:1028D000204D61783A25584D00E028042504000079
:1028E0004472697665204D696E3A25586D00F52869
:1028F000042404000050494420443A25586400064A
:1029000029042304000050494420493A255869000D
:102910001729042204000044542F50494420503AFF
:10292000255870002B29042D040000436F6E74722B
:102930006F6C3A255868003E290446040000416443
:1029400076616E6365206C696E3A25586C00552976
:10295000044D0400005761697420556E6974733A20
:102960002558556D6D006D29044C040000576169B0
:10297000742054656D702E25585402430084290438
:102980002E040000537461622E54696D653A255817
:1029900077009929042A040000416363656C3A2595
:1029A000584100AA29042B0400004D6178204652AA
:1029B0003A25584600BC29042C0400005374617267
:1029C000742046523A25586600D029042904000094
:1029D00053746570732F4D4D3A2553650002000006
:1029E0000400E429002F192A012AEC29F329022DD9
:1029F0002A00004D61782E20496E61637469766506
:102A000000082A025F2A0000537465707065722006
:102A1000496E61637469766500202A041004000021
:102A200042617564726174653A256F6300035804EE
:102A30000200342A3F2A382A462A000000000050AB
:102A40002A00000000005B735D20303D4F66660089
:102A50004469732E2041667465723A2569700003DB
:102A600020040200662A712A6A2A782A00000000DF
:102A700000822A00000000005B735D20303D4F663D
:102A800066004469732E2041667465723A25697345
:102A9000000200000300982A002FAE2A9E2AA52AD1
:102AA0000413040000486F6D653A25665A00B52A84
:102AB00004160400004D61783A25667A0002000091
:102AC0000400C42A002FEC2ADC2ACC2AD32A040EC4
:102AD0000400004A65726B3A25616A00E32A040D1E
:102AE0000400004D6F76653A25615A00F32A040A06
:102AF0000400005072696E743A25617A0002000089
:102B00000500042B002F472B342B212B0E2B152BCC
:102B100003350400004472792072756E3A256464AE
:102B200000282B03340400004572726F7273203A40
:102B3000256465003B2B0333040000496E666F205B
:102B400020203A256469004E2B03320400004563BF
:102B5000686F2020203A25646F00612B026E2B00E5
:102B60000053442043617264204D656E750002007D
:102B7000000600752B002FCF2BBC2BA62B942B818E
:102B80002B882B03F403010244656C657465206691
:102B9000696C65009B2B02EE2B020053746F702052
:102BA0005072696E7400AD2B03F7030400436F6E1F
:102BB00074696E7565205072696E7400C32B03F6DC
:102BC0000302045061757365205072696E7400D6FB
:102BD0002B03F503010253656C6563742053442095
:102BE00046696C65000100000100EC2B002F02001B
:102BF000000300F52B102C062CFB2B022C03542475
:102C00000200596573000D2C03E80300004E6F00AD
:102C1000172C010000000053746F70205072696E11
:102C20007400292C023A2C000041646A75737420E8
:102C300046616E2073706565640002000007004104
:102C40002C002FB82CA42C8F2C7A2C652C4F2C56B2
:102C50002C031E0400005365742046616E20313041
:102C600030252525006C2C031D04000053657420BD
:102C700046616E20373525252500812C031C040074
:102C8000005365742046616E203530252525009659
:102C90002C031B0400005365742046616E203235FE
:102CA00025252500AB2C031A0408005475726E20EC
:102CB00046616E204F666600BF2C04520400004639
:102CC000616E2073706565643A254673252525007D
:102CD0000200000A00D72C002F352D1C2D932D80CB
:102CE0002D662DEC2E4E2DA62D0200000A00F02C94
:102CF000002F352D1C2D932D802D662DEC2E042DAF
:102D00004E2DA62D0B2D03B20F0000556E6C6F6378
:102D10006B2046756C6C204D656E7500232D044844
:102D2000040000466C6F772020526174653A256F6D
:102D300066252525003C2D041F04000053706565A1
:102D40006420526174653A256F6D25252500552D47
:102D5000034204001044697361626C65205374651A
:102D60007070657273006D2D033804000053687530
:102D700074204F666620414C4C2048656174730096
:102D8000872D034704000050726568656174204117
:102D90004253009A2D033704000050726568656144
:102DA0007420504C4100AD2D0336040000415458AE
:102DB00020706F776572206F6E2F6F66660002005D
:102DC000000300C52D002FC92DD02D043D040000A7
:102DD0004E4F5A2054656D703A20202545300243ED
:102DE000000200000600E82D002F1E2EF42DEC2E10
:102DF000B62E0A2EFB2D0421040000482E2052611D
:102E000064697573203A256F6800112E03AC0F00BA
:102E100000536574205A204F726967696E00252E31
:102E200002362E000046756C6C2043616C6962723C
:102E30006174696F6E0002000004003D2E002F7364
:102E40002E5E2E452E4C2E03B10F000042656769A1
:102E50006E2043616C6962726174696F6E00652EE9
:102E600003B50F00004245442041524520434C45E4
:102E7000414E007A2E03B40F00004D414B452053C4
:102E8000555245204E4F5A5A4C452026000200000C
:102E90000600942E002FEC2EDA2EC82EB62EA02E71
:102EA000A72E02192F0000457874722E20706F73C0
:102EB0006974696F6E00BD2E027A3000005A20508E
:102EC0006F736974696F6E00CF2E02CF30000059A6
:102ED00020506F736974696F6E00E12E0224310017
:102EE000005820506F736974696F6E00F32E03FDF4
:102EF000030000486F6D65205072696E7465720042
:102F0000072F03E803000050726576696F75732020
:102F100053637265656E20010003F0030400202FE7
:102F20003D2F362F2F2F282F442F00000000005256
:102F30002F0000000000632F0000000000722F002F
:102F400000000000255566206D207072696E746562
:102F5000640020453A2565632F25456302437E259D
:102F60006F43003120636C69636B203D2031206D1D
:102F70006D00453A257833206D6D0003FC03040095
:102F8000822F9F2F982F912F8A2FA62F00000000AD
:102F900000A72F0000000000B72F0000000000C7AE
:102FA0002F0000000000004D617820656E6473748E
:102FB0006F703A25735A004D696E20656E647374A4
:102FC0006F703A25737A005A3A257832206D6D0079
:102FD00003FB030400D72FF42FED2FE62FDF2FFB89
:102FE0002F0000000000FC2F00000000000C30004B
:102FF000000000001C300000000000004D6178203F
:10300000656E6473746F703A257359004D696E2054
:10301000656E6473746F703A25737900593A257838
:1030200031206D6D0003FA0304002C30493042302A
:103030003B303430503000000000005130000000C0
:10304000000061300000000000713000000000004E
:10305000004D617820656E6473746F703A25735803
:10306000004D696E20656E6473746F703A257378D5
:1030700000583A257830206D6D0003EF030400817D
:10308000309E30973090308930A53000000000002D
:10309000A6300000000000B6300000000000C6307E
:1030A0000000000000004D617820656E6473746F4D
:1030B000703A25735A004D696E20656E6473746FA3
:1030C000703A25737A005A3A257832206D6D0003E4
:1030D000EE030400D630F330EC30E530DE30FA3069
:1030E0000000000000FB3000000000000B31000079
:1030F0000000001B310000000000004D61782065D9
:103100006E6473746F703A257359004D696E206553
:103110006E6473746F703A25737900593A2578316B
:10312000206D6D0003ED0304002B31483141313A2D
:103130003133314F310000000000503100000000F9
:10314000006031000000000070310000000000004D
:103150004D617820656E6473746F703A2573580002
:103160004D696E20656E6473746F703A25737800D4
:10317000583A257830206D6D000000000400803141
:103180009D3196318F318831A4310000000000AAB2
:10319000310000000000BE310000000000C231001C
:1031A00000000000255566206D00546F74616C208E
:1031B00046696C616D656E742055736564002555B4
:1031C0007400546F74616C205072696E74696E671C
:1031D0002054696D65000000000400DD31FA31F310
:1031E00031EC31E531013200000000000B3200000B
:1031F000000000193200000000002B320000000027
:10320000004861636B6572204832005072696E74C9
:103210006572204D6F64656C00465720446174658B
:103220003A2032303137313033300046572056653E
:103230007273696F6E3A20302E39322E32000000E0
:10324000000400453262325B3254324D3269320042
:10325000000000006D320000000000763200000027
:1032600000007F320000000000256F73005A3A25ED
:103270007832206D6D00593A257831206D6D0058F7
:103280003A257830206D6D0000000004008F32ACCC
:1032900032A5329E329732B3320000000000B732BE
:1032A0000000000000C0320000000000D932000021
:1032B000000000256F73005A3A257832206D6D00AA
:1032C00053706565643A256F6D25252520466C6F22
:1032D000773A256F66252525004E4F5A3A256563B6
:1032E000205461726765743A254563000000000050
:1032F00000000000000000FF0000010000000000CE
:1033000000000000000000000000000024F403D9C9
:1033100050C38EB1C2A23D96828B3582127AE3727F
:10332000816CCB66A861015DC758EB546151204E9A
:103330001E4B5648C14559431A41013F093D2F3B99
:103340007139CD374036C93465331432D430A32FA8
:10335000802E6B2D632C672B752A8E29B028DC27D5
:1033600010274B268F25D9242B248223E0224322A9
:10337000AC211A218D200420801F001F841E0C1EEA
:10338000971D261DB81C4E1CE61B821B201BC11A54
:10339000641A0A1AB2195D190A19B9186A181C18A0
:1033A000D11788174017FA16B51673163116F1158E
:1033B000B31576153A150015C7148F145814221436
:1033C000EE13BA13881356132513F612C712991267
:1033D0006C1240121512EB11C111981170114811A5
:1033E0002111FB10D610B1108D1069104610241059
:1033F0000210E10FC00FA00F800F610F420F230FCB
:10340000060FE80ECB0EAF0E930E770E5C0E410E3C
:10341000270E0D0EF30DDA0DC10DA80D900D780DD0
:10342000600D490D320D1B0D050DEF0CD90CC30CB1
:10343000AE0C990C850C700C5C0C480C350C210CF6
:103440000E0CFB0BE80BD60BC40BB20BA00B8E0BB8
:103450007D0B6B0B5A0B4A0B390B290B180B080B06
:10346000F80AE90AD90ACA0ABB0AAC0A9D0A8E0AF6
:10347000800A710A630A550A470A390A2C0A1E0A89
:10348000110A040AF709EA09DD09D009C409B709D4
:10349000AB099F09920987097B096F0963095809DC
:1034A0004C09410936092B09200915090A090009A7
:1034B000F508EB08E008D608CC08C208B808AE0842
:1034C000A4089A08900887087D0874086B086108AA
:1034D00058084F0846083D0834082C0823081A08E5
:1034E000120809080108F807F007E807E007D807FD
:1034F000D007C807C007B807B007A807A107000092
:10350000420FA1071605D0030D038B022E02E8011E
:10351000B2018601630145012C0117010401F40089
:103520005072696E746572205265616479005072E0
:10353000696E746572205265616479005072696EBB
:1035400074657220526561647900207A3A002079AE
:103550003A0020783A00696E20717565756544659A
:103560006C74614D6F766520746F2063616C637558
:103570006C61746544656C74615375625365676D05
:10358000656E74732072657475726E7320657272E5
:103590006F722E00432068697420666C6F6F720032
:1035A00043706F73207820737175617265200043DA
:1035B000706F732078207374657073200043706F90
:1035C00073207920737175617265200043706F7389
:1035D000207920737465707320004220686974201C
:1035E000666C6F6F720042706F7320782073717514
:1035F000617265200042706F73207820737465706B
:1036000073200042706F7320792073717561726549
:10361000200042706F7320792073746570732000EE
:10362000412068697420666C6F6F720041706F731F
:10363000207820737175617265200041706F73206E
:1036400078207374657073200041706F7320792047
:10365000737175617265200041706F7320792073FA
:103660007465707320006D6F766552656C61746966
:10367000766544697374616E6365496E53746570F1
:1036800073202F20717565756544656C74614D6F8D
:1036900076652072657475726E73206572726F72D2
:1036A0000000000A0B02090C0D0E080703040100BC
:1036B000000000000000000000000000000000000A
:1036C00000000000000000000000000000121110C7
:1036D00000000000000000000000000000000000EA
:1036E0000000000000000001021020200808102047
:1036F000401020408002010201080402010102047E
:10370000081020408080402010080402018004023C
:103710000180402010080402010804020101020493
:103720000810204080010204081020408005050593
:1037300005070508080808020202020A0A08080428
:103740000404040101010101010101030303030356
:10375000030303040707070C0C0C0C0C0C0C0C02E5
:1037600002020206060606060606060B0B0B0B0BEC
:103770000B0B0B000020002300260029002C002F3B
:1037800000320000010000030106010901000022CF
:1037900000250028002B002E00310034000201001B
:1037A00000050108010B0100002100240027002A68
:1037B000002D003000330001010000040107010A60
:1037C00001024E414E494E495459494E46CDCCCC4A
:1037D0003D0AD7233C17B7D13877CC2B329595E6E5
:1037E000241FB14F0A000020410000C84200401CC5
:1037F0004620BCBE4CCA1B0E5AAEC59D740035890E
:103800003C9C00D8C3FA11241FBECFEFD1E2DEBF2B
:10381000CDBF00E00CBF13E0A0E0B2E0EEE9F8E1BC
:1038200002E00BBF02C007900D92A633B107D9F793
:103830002EE1A6E3B3E001C01D92A932B207E1F781
:1038400017E3C6E0D8E300E006C022970109FE01B5
:103850000BBF0F94C807CE3FD10780E00807A9F738
:103860000F9434030D944D0C0C940000CF93DF9310
:1038700000D01F92CDB7DEB744E050E0BC01CE01CE
:1038800001960F94090C69817A818B819C810F903C
:103890000F900F900F90DF91CF910895179A089590
:1038A000169A0895159A089588E493E0DFCFCF9291
:1038B000DF92EF92FF92CF93DF9300D01F921F927F
:1038C000CDB7DEB76B017C016093180770931907C1
:1038D00080931A0790931B070E947E71C982DA8237
:1038E000EB82FC8244E050E065E773E0CE01019694
:1038F0000F942B0C23E0B701A60184EC94E00E9406
:10390000579E0E94D0C9682F88E690E06D830F947F
:10391000190C6D81681721F088E690E00F94340C43
:103920000F900F900F900F900F90DF91CF91FF901D
:10393000EF90DF90CF900895CF93DF931F92CDB794
:10394000DEB7BC018DE793E00F94470C0E94D0C90D
:10395000682F88E690E069830F94190C69816817D5
:1039600039F088E690E00F90DF91CF910D94340C00
:103970000F90DF91CF910895CF93DF931F92CDB732
:10398000DEB7BC018FE793E00F94470C0E94D0C9CB
:10399000682F88E690E069830F94190C6981681795
:1039A00039F088E690E00F90DF91CF910D94340CC0
:1039B0000F90DF91CF910895CF93DF931F92CDB7F2
:1039C000DEB7BC0181E893E00F94470C0E94D0C998
:1039D000682F88E690E069830F94190C6981681755
:1039E00039F088E690E00F90DF91CF910D94340C80
:1039F0000F90DF91CF910895CF93C82F8091470406
:103A00008823D1F0109247040E94EE5690919002C4
:103A1000915090939002911109C08091910283304E
:103A200010F40E94955685E0809390026C2F87E1F8
:103A30009AE0CF910C9431C5CF9108958091CC0B31
:103A4000882349F00E941C9580E0D6DF87E19AE048
:103A50000E9430C5F3CF08954F925F926F927F928C
:103A60008F929F92AF92BF92CF92DF92EF92FF928E
:103A70000F931F93CF93DF9300D01F92CDB7DEB784
:103A80008C018091920790919307A0919407B09137
:103A9000950789839A83AB83BC83C0909607D090A7
:103AA0009707E0909807F090990780909A07909078
:103AB0009B07A0909C07B0909D079C01AD01BC01A5
:103AC000CD010F94FA0681110FC149805A806B8095
:103AD0007C80E89477F82FEF3FEF4FE75FE7C30173
:103AE000B2010F94FA0681110BC02FEF3FEF4FE7A1
:103AF0005FE7C301B2010F94A70318160CF4F4C0DA
:103B0000A7019601C701B6010F94FA068111ECC016
:103B100026013701E89477F82FEF3FEF4FE75FE793
:103B2000C301B2010F94FA0681110BC02FEF3FEFD2
:103B30004FE75FE7C301B2010F94A70318160CF417
:103B4000D3C0A5019401C501B4010F94FA068111F7
:103B5000CBC024013501E89477F82FEF3FEF4FE712
:103B60005FE7C301B2010F94FA0681110BC02FEF7A
:103B70003FEF4FE75FE7C301B2010F94A7031816A9
:103B80000CF4B2C020916A0730916B0740916C072A
:103B900050916D0769817A818B819C810F944303D9
:103BA0002B013C0120916E0730916F074091700707
:103BB00050917107C701B6010F9443036B017C015B
:103BC00020917207309173074091740750917507E7
:103BD000C501B4010F9443034B015C018091F207CE
:103BE000882329F020E732E441E25DE304C020E0CD
:103BF00030E040E85FE3C301B2010F944F06AB0130
:103C0000BC0122E083E892E20E94949E8091F20738
:103C1000882329F020E732E441E25DE304C020E09C
:103C200030E040E85FE3C701B6010F944F06AB01F7
:103C3000BC0122E08BE792E20E94949E8091F20701
:103C4000882329F020E732E441E25DE304C020E06C
:103C500030E040E85FE3C501B4010F944F06AB01CB
:103C6000BC0123E087E792E20E94949E6091AA073C
:103C70007091AB078091AC079091AD070F947A04D7
:103C80002091EE073091EF074091F0075091F10736
:103C90000F944F062091F207222329F020E732E407
:103CA00041E25DE304C020E030E040E85FE30F94D0
:103CB0004F06AB01BC0124E083E792E20F900F9026
:103CC0000F900F90DF91CF911F910F91FF90EF9088
:103CD000DF90CF90BF90AF909F908F907F906F902C
:103CE0005F904F900C94579EC8010E94799C4ACFD8
:103CF000CF92DF92EF92FF92CF93DF93EC01893165
:103D000091053CF0C53F81E0D8072CF0C4EFD1E02D
:103D100002C0C9E1D0E0BE01882777FD8095982FC9
:103D20000F947A046B017C016091A2067091A30646
:103D3000882777FD8095982F0F947A049B01AC011A
:103D4000C701B6010F94AE039B01AC016091A406BC
:103D50007091A5068091A6069091A7060F944F0634
:103D60006093A4067093A5068093A6069093A70679
:103D7000D093A306C093A206BE0186E592E2DF912E
:103D8000CF91FF90EF90DF90CF900C943D9DCF921C
:103D9000DF92EF92FF926B017C0120E030E040E780
:103DA00052E40F94A70387FD11C020E030E046E104
:103DB00053E4C701B6010F94DB0518166CF4C12C4F
:103DC000D12C86E1E82E83E4F82E06C0C12CD12C3C
:103DD00090E7E92E92E4F92EC0921807D0921907C5
:103DE000E0921A07F0921B0722E0B701A6018DE3CB
:103DF00092E2FF90EF90DF90CF900C94579E8F92BD
:103E00009F92AF92BF92CF92DF92EF92FF92CF93A9
:103E1000DF93EC018931910534F0893C91052CF058
:103E2000C8ECD0E002C0C9E1D0E0D093A106C093B5
:103E3000A006E0913603F0913703E258FF4FC080AF
:103E4000D180E280F38020E030E0A901C701B60113
:103E50000F94A703AE01662757FD6095762F1816BD
:103E60005CF0CB01BA010F947A042AE037ED43E20B
:103E70005CE30F944F0624C0CB01BA010F947A047F
:103E80002AE037ED43E25CE30F944F0620E030E098
:103E900040E850E40F944F064B015C01A7019601E6
:103EA000C701B6010F944F062BED3FE049E450E403
:103EB0000F944F069B01AC01C501B4010F94AE03F2
:103EC0006093960270939702809398029093990260
:103ED000BE0188E492E2DF91CF91FF90EF90DF90F6
:103EE000CF90BF90AF909F908F900C943D9DCF93BB
:103EF000DF932091660797FD0DC0EC018F3F910580
:103F000019F014F0CFEFD0E0209721F02860209333
:103F1000660705C0277F20936607C0E0D0E06111E7
:103F20008DDD8091251D90E0C817D90729F0BE01CD
:103F300083E392E20E943D9DC093251DDF91CF91C6
:103F400008954F925F926F927F928F929F92AF925D
:103F5000BF92CF92DF92EF92FF92CF93DF9300D088
:103F60001F92CDB7DEB72FE632E143E85AE3609106
:103F70008A0670918B0680918C0690918D060F9425
:103F80004F066B017C0181E890E070DC9B01AC0185
:103F9000C701B6010F944303AB01BC0122E081E2EB
:103FA00092E20E94949E8FE092E20E943F9CE091F8
:103FB0000A02F0910B0220E030E040E751E4638513
:103FC0007485858596850F94DB0518160CF46BC0F7
:103FD00020E030E0A9018DE790E029833A834B830C
:103FE0005C830F94210C4B015C0129813A814B8148
:103FF0005C81820E931EA41EB51EC501B40120E88B
:1040000031E541E050E00F947B0760E87EEA8EEFF7
:104010009FEF0F9416076B017C01C80CD91CEA1C9A
:10402000FB1CBA01A90182E192E20E94639DC701D3
:10403000B60120E13EE040E050E00F947B074901EB
:104040005A01BA01A90188E092E20E94639DA0EFA3
:10405000B1EFA50194010F94C4076C0D7D1D8E1D59
:104060009F1D2CE330E040E050E00F947B07BA0145
:10407000A90180E092E20E94639D8BEF91E20F9094
:104080000F900F900F90DF91CF91FF90EF90DF9006
:10409000CF90BF90AF909F908F907F906F905F90E8
:1040A0004F900C94589C0E94DEFDC0908E06D090DC
:1040B0008F06E0909006F09091066C197D098E09AC
:1040C0009F0928EE33E040E050E00F94590783CF7A
:1040D000811102C08EE207C0813011F48DE203C06D
:1040E000823019F48CE20C94D0FC0895EAE0F1E0FF
:1040F000808188608083808180618083808180620C
:10410000808364E670E08EE20E94D0FC64E670E09A
:104110008DE20E94D0FC62E870E08CE20E94D0FC4C
:10412000E1E2F1E08081887F81608083089567FD0E
:1041300043C08230E9F028F4882341F0813061F0F7
:104140003BC0833009F1843059F136C0662311F049
:10415000A19A69C0A19867C080910801662311F0F7
:10416000806801C08F778093080147FF3AC05FC025
:1041700080910801662311F0806401C08F7B8093D9
:10418000080147FF34C055C080910801662311F033
:10419000886001C0877F8093080147FF32C046C016
:1041A00080910501662311F0806401C08F7B8093AC
:1041B000050147FF2EC03CC047FD3BC08230B9F02F
:1041C00028F4882341F0813061F008958330C9F0EC
:1041D0008430F9F00895442311F0A09A0895A0982E
:1041E0000895442311F0A29A0895A2980895809109
:1041F0000801442311F0806201C08F7D8093080183
:10420000089580910801442311F08061F7CF8F7EDB
:10421000F5CF80910501442311F0806401C08F7BAC
:1042200080930501089547FFD6CF08950895089516
:1042300008950895643079F028F4613041F06230D7
:1042400041F00895683051F0603141F0089540E048
:1042500003C040E004C041E060E002C041E061E032
:1042600066CFCF93DF938CED91E20E94589C62B3AE
:104270006695617070E083E892E20E94319D62B3BE
:10428000617070E089EF91E20E943D9DC6E0D1E04F
:104290008881992787FD9095692F661F6627661F7D
:1042A00070E084EF91E20E94319D62B362FB662769
:1042B00060F970E089EF91E20E943D9D688166FBA4
:1042C000662760F970E081EF91E20E94319D68817C
:1042D00065FB662760F970E089EF91E20E943D9DE1
:1042E000688163FB662760F970E08DEE91E20E94C1
:1042F000319D68816295617070E089EF91E20E9462
:104300003D9DC3E0D1E0688166FB662760F970E0FF
:1043100089EE91E20E94319D688166FB662760F913
:1043200070E089EF91E2DF91CF910C943D9DFF9277
:104330000F931F93CF93DF9300D01F921F92CDB79F
:10434000DEB785E0E8EFF2E0DE01119601900D9214
:104350008A95E1F7989A9A9A8091070180628093F2
:10436000070180910701806180930701809104011A
:104370008064809304018E010F5F1F4FF12CF801C0
:1043800061918F018F2D56DFF394F5E0FF12F7CF87
:104390000F900F900F900F900F90DF91CF911F9182
:1043A0000F91FF9008950C94F5D40E94E0D42091D1
:1043B0000802309109028217930724F490930902AE
:1043C000809308020895609108027091090280911B
:1043D0000602909107026817790744F47093070268
:1043E0006093060286E892E20C943D9D0895CF9377
:1043F000C82F69E170E080E39DE10E94AEFA6C2F66
:1044000080E39DE10E944FFA60E080E39DE10E941D
:10441000AFFA882329F082E29CE0CF910C94589C5B
:10442000CF910895CF93DF93D82FC62F69E170E025
:1044300080E39DE10E94AEFA6D2F80E39DE10E9432
:104440004FFA6C2F80E39DE10E944FFA80E39DE1DB
:104450000E94C1FA882331F083E09CE0DF91CF9184
:104460000C94589CDF91CF9108951F93CF93DF93C5
:10447000182FBDDF41E050E069E170E080E39DE18D
:104480000E94A2FA80E39DE10E94F8F9892B99F03D
:1044900080E39DE10E9400FAEC01612F70E089EF5A
:1044A0009BE00E94319DBE01772780EF9BE00E9438
:1044B0003D9D81E005C082ED9BE00E94589C80E01C
:1044C000DF91CF911F9108958DEA9BE00E94589C47
:1044D00080E39DE10E948DFA8FE0C7DF81E3C5DFB5
:1044E00080E2C3DF6CE980E29DDF80E2BEDF82E232
:1044F000BCDF60E482E296DF82E2B7DF85E2B5DF0F
:1045000060E085E28FDF85E2B0DF83E2AEDF60E36B
:1045100083E288DF83E2A9DF84E2A7DF6AE484E242
:1045200081DF84E2A2DF80E3A0DF60E280E37ADF64
:1045300080E39BDF81E399DF82E397DF64E182E33D
:1045400071DF82E392DF83E390DF60E083E36ADF81
:1045500083E38BDF84E389DF60E084E363DF84E36C
:1045600084DF86E382DF62E386E35CDF86E37DDF70
:1045700087E37BDF60E087E355DF87E376DF88E36F
:1045800074DF60E188E34EDF88E36FDF89E36DDF8E
:104590008AE36BDF62E38AE345DF8AE366CFCF938A
:1045A00081E363DFC82F85E360DF811101C0C0E0D4
:1045B00089E35BDF811101C0C0E08DE256DF81112C
:1045C00001C0C0E08C2FCF9108956DE08AED9AE094
:1045D0000E9494D36AE08AED9AE00C9494D3E0911F
:1045E0003603F091370342A953A964A975A922E0C3
:1045F00080E792E20E94949EE0913603F0913703A7
:1046000046A957A960AD71AD20E085E692E20E940F
:10461000949EE0918F02EF3F29F4E0913603F091F0
:104620003703E081F0E0EE5DF24E608170E08CE6F1
:1046300092E20E94319DC9CF2F923F924F925F929A
:104640006F927F928F929F92AF92BF92CF92DF92A2
:10465000EF92FF920F931F93CF93DF93CDB7DEB707
:1046600029970FB6F894DEBF0FBECDBF5C01DC0109
:1046700016968D919C9117978C38910509F48BC6ED
:1046800008F0E7C08235910509F42FC408F08AC00C
:104690008A31910509F4D1C208F03FC085319105F6
:1046A00009F449C278F48231910509F423C28431B6
:1046B000910509F424C2419711F00C9441331798E5
:1046C0001698D0C58731910509F46DC208F44FC220
:1046D0008831910509F495C2499711F00C94413342
:1046E00060E083EC98E029960FB6F894DEBF0FBE29
:1046F000CDBFDF91CF911F910F91FF90EF90DF9091
:10470000CF90BF90AF909F908F907F906F905F9071
:104710004F903F902F900C9411988E31910509F491
:10472000E9C218F58C31910509F4BCC210F00C9463
:10473000783383EC98E029960FB6F894DEBF0FBE6D
:10474000CDBFDF91CF911F910F91FF90EF90DF9040
:10475000CF90BF90AF909F908F907F906F905F9021
:104760004F903F902F900C94589B8A32910509F4FA
:104770001BC328F4809709F4EAC20C9441338035B6
:10478000910509F49DC38135910511F00C944133D5
:1047900055D99B9A809168078F7B80936807A39A6D
:1047A0000C9478338B36910511F40C94792C38F5F0
:1047B0008C35910509F4A4C460F48435910509F49D
:1047C0009DC308F496C38535910509F475C40C940E
:1047D00041338836910509F448C530F48336910594
:1047E00009F4F2C40C9441338936910509F427C6C3
:1047F0008A36910511F40C94682C0C94413383375C
:10480000910511F40C94C92C80F48F36910511F4A4
:104810000C949A2C8237910511F40C94E72C8D3668
:10482000910511F00C9441332CC68537910511F494
:104830000C94EA2C10F40C94222C8737910511F477
:104840000C94152D8837910511F40C94582D0C9467
:1048500041338530B1E09B0711F40C94623008F0CD
:10486000B0C08F3C910511F40C94FC2E08F041C0AF
:104870008A3C910511F40C942F2E70F4883C91051C
:1048800011F40C947E2D10F00C94D12D8E3B9105DB
:1048900009F4CBC70C9441338C3C910511F40C9472
:1048A000862E10F40C94742E8D3C910511F40C940A
:1048B000E22E8E3C910511F00C944133C5012996EE
:1048C0000FB6F894DEBF0FBECDBFDF91CF911F9121
:1048D0000F91FF90EF90DF90CF90BF90AF909F909F
:1048E0008F907F906F905F904F903F902F900C949F
:1048F00023D08F3D910511F40C94B72F88F48C3D93
:10490000910511F40C94642F8D3D910511F40C94D4
:104910008C2F813D910511F00C9441330C94442F60
:10492000893E910511F40C94CC2F40F5883E9105F9
:1049300011F00C94413360912A1D70912B1D85E973
:1049400091E20E94319D4091261D5091271D60915A
:10495000281D7091291D22E08CE891E20E94579E4B
:1049600010922B1D10922A1D1092261D1092271DA9
:104970001092281D1092291D0C9478338B3F9105BD
:1049800011F40C9405308430914011F00C944133B3
:1049900029960FB6F894DEBF0FBECDBFDF91CF9141
:1049A0001F910F91FF90EF90DF90CF90BF90AF904D
:1049B0009F908F907F906F905F904F903F902F903F
:1049C00083CD8E3521E0920711F40C94B931C0F5F6
:1049D0008E3241E0940711F40C94053198F489313A
:1049E000A1E09A0711F40C94BA308C32B1E09B0725
:1049F00011F40C94CA308630914011F00C9441337C
:104A00000C9484308034F1E09F0711F40C947731DA
:104A100038F48F32914011F40C9444310C944133AA
:104A2000813441E0940711F40C947B31823491403D
:104A300011F00C94413380E00E9407850C94903172
:104A40008239A1E09A0711F40C94A43298F58836C3
:104A5000E1E09E0711F40C94703238F483369140F3
:104A600011F40C942A320C944133803931E09307CD
:104A700011F40C948A328139914011F00C94413335
:104A800029960FB6F894DEBF0FBECDBFDF91CF9150
:104A90001F910F91FF90EF90DF90CF90BF90AF905C
:104AA0009F908F907F906F905F904F903F902F904E
:104AB0000C942A83853F51E0950711F40C94D4326D
:104AC00060F4843F914011F00C94413380E00E94E7
:104AD000E7C984E19DE10C94DF32863FE1E09E0767
:104AE00011F40C94F9328C38934011F40C94133374
:104AF0000C9441330E944E1C0E94501C8CC283ECCB
:104B000098E029960FB6F894DEBF0FBECDBFDF91B7
:104B1000CF911F910F91FF90EF90DF90CF90BF90BA
:104B2000AF909F908F907F906F905F904F903F904D
:104B30002F900C94A19A83EC98E029960FB6F894E4
:104B4000DEBF0FBECDBFDF91CF911F910F91FF90C0
:104B5000EF90DF90CF90BF90AF909F908F907F901D
:104B60006F905F904F903F902F900C94959783ECAF
:104B700098E029960FB6F894DEBF0FBECDBFDF9147
:104B8000CF911F910F91FF90EF90DF90CF90BF904A
:104B9000AF909F908F907F906F905F904F903F90DD
:104BA0002F900C949A97D5018D919C9197FD02C0FE
:104BB0000C94783360E083EC98E00E94CC63F501BC
:104BC000EE5AFF4F6081718140E083EC98E02996B6
:104BD0000FB6F894DEBF0FBECDBFDF91CF911F910E
:104BE0000F91FF90EF90DF90CF90BF90AF909F908C
:104BF0008F907F906F905F904F903F902F900C948C
:104C0000D29A83EC98E029960FB6F894DEBF0FBED7
:104C1000CDBFDF91CF911F910F91FF90EF90DF906B
:104C2000CF90BF90AF909F908F907F906F905F904C
:104C30004F903F902F900C940098F50180819181C6
:104C400092FD02C00C947833468D578D60A171A1FE
:104C500080912D09882311F40C9478334093240912
:104C600050932509609326097093270983E099E002
:104C700029960FB6F894DEBF0FBECDBFDF91CF915E
:104C80001F910F91FF90EF90DF90CF90BF90AF906A
:104C90009F908F907F906F905F904F903F902F905C
:104CA0000C941262D5018D919C9197FD02C00C94D9
:104CB0007833F501EE5AFF4F6081718183EC98E003
:104CC00029960FB6F894DEBF0FBECDBFDF91CF910E
:104CD0001F910F91FF90EF90DF90CF90BF90AF901A
:104CE0009F908F907F906F905F904F903F902F900C
:104CF0000C94799BF5018081918197FD02C00C9401
:104D0000783360E083EC98E00E94CC63F501EE5AC2
:104D1000FF4F6081718183EC98E029960FB6F8947B
:104D2000DEBF0FBECDBFDF91CF911F910F91FF90DE
:104D3000EF90DF90CF90BF90AF909F908F907F903B
:104D40006F905F904F903F902F900C94DB9BD5011C
:104D50008D919C9197FD02C00C94783360E083ECB8
:104D600098E00E94CC63F501EE5AFF4F608171819B
:104D700083EC98E029960FB6F894DEBF0FBECDBF46
:104D8000DF91CF911F910F91FF90EF90DF90CF9027
:104D9000BF90AF909F908F907F906F905F904F905B
:104DA0003F902F900C94099CF5012081318133FDB7
:104DB00002C00C94783312A1E12EF3A0E0E4FCE0F1
:104DC000449150E04E155F0509F45EC032964CE008
:104DD000E43BF407A9F7F7FC57C032FF2CC0D5011C
:104DE0005E964D915D916D917C9191974F3F5105EC
:104DF0006105710509F0E0F461E0812F0E94F2FE87
:104E0000F501668D812F0E942BFFD5015E966D9175
:104E10007C915F97812F0E94D0FCB7018FEC91E2CB
:104E20000E94319DF501668D778D8AEC91E212C06A
:104E30008BE594E02BC062E0812F0E94F2FEB70167
:104E40008AEC91E20E94319D812F0E9460FFBC019B
:104E500085EC91E229960FB6F894DEBF0FBECDBF68
:104E6000DF91CF911F910F91FF90EF90DF90CF9046
:104E7000BF90AF909F908F907F906F905F904F907A
:104E80003F902F900C943D9D85E294E029960FB6BB
:104E9000F894DEBF0FBECDBFDF91CF911F910F9170
:104EA000FF90EF90DF90CF90BF90AF909F908F904A
:104EB0007F906F905F904F903F902F900C94799CD3
:104EC0000E941E1D0E94DEFD60932C1D70932D1DFF
:104ED00080932E1D90932F1D9B9A8091680780646C
:104EE00080936807A3980C9478331092AE070C94C3
:104EF000783381E08093AE070C947833D5018D919F
:104F00009C91119792FF14C05E962D913D914D9109
:104F10005C919197A8EEB3E00F94B8076093EF020D
:104F20007093F0028093F1029093F2020C94783324
:104F300093FFA5C0F50182A193A1A4A1B5A18230E0
:104F40009105A105B10509F466C02CF50097A105EE
:104F5000B10509F446C00197A105B10511F00C9403
:104F6000783329960FB6F894DEBF0FBECDBFDF9120
:104F7000CF911F910F91FF90EF90DF90CF90BF9056
:104F8000AF909F908F907F906F905F904F903F90E9
:104F90002F900C94501C83309105A105B10509F4A4
:104FA00054C00497A105B10511F00C9478332996EB
:104FB0000FB6F894DEBF0FBECDBFDF91CF911F912A
:104FC0000F91FF90EF90DF90CF90BF90AF909F90A8
:104FD0008F907F906F905F904F903F902F900C94A8
:104FE0001E4F29960FB6F894DEBF0FBECDBFDF91DE
:104FF000CF911F910F91FF90EF90DF90CF90BF90D6
:10500000AF909F908F907F906F905F904F903F9068
:105010002F900C944E1C29960FB6F894DEBF0FBE4D
:10502000CDBFDF91CF911F910F91FF90EF90DF9057
:10503000CF90BF90AF909F908F907F906F905F9038
:105040004F903F902F900C94521C29960FB6F894D5
:10505000DEBF0FBECDBFDF91CF911F910F91FF90AB
:10506000EF90DF90CF90BF90AF909F908F907F9008
:105070006F905F904F903F902F900C94104F0E9434
:105080001E1D81E029960FB6F894DEBF0FBECDBF7E
:10509000DF91CF911F910F91FF90EF90DF90CF9014
:1050A000BF90AF909F908F907F906F905F904F9048
:1050B0003F902F900C941671D5018D919C91119772
:1050C00092FF14C05E962D913D914D915C91919708
:1050D000A8EEB3E00F94B8076093F3027093F40264
:1050E0008093F5029093F6020C9478331092F302B9
:1050F0001092F4021092F5021092F6020C9478339A
:10510000F501808183FF0CC082859385A485B585D8
:105110008093D8029093D902A093DA02B093DB0275
:10512000D5018C9184FF0EC01E968D919D910D909E
:10513000BC91A02D8093DC029093DD02A093DE024F
:10514000B093DF02F501808185FF0CC082899389CD
:10515000A489B5898093E0029093E102A093E202D2
:10516000B093E3020E947E71D5018C9186FD02C04E
:105170000C947833209136033091370356968D91F5
:105180009D910D90BC91A02DF90181879287A387F5
:10519000B487808129960FB6F894DEBF0FBECDBFCD
:1051A000DF91CF911F910F91FF90EF90DF90CF9003
:1051B000BF90AF909F908F907F906F905F904F9037
:1051C0003F902F900C94504DD501ED91FC9111978B
:1051D000F2FF0DC05E962D913D914D915C9191979E
:1051E000A8EEB3E00F94B8076B017C0106C040E164
:1051F000C42E47E2D42EE12CF12CE3FD0E944E1C7C
:10520000F501808184FD0E94501CD5018C9185FDA3
:105210000E94521C0E94DEFD2B013C014C0C5D1CC7
:105220006E1C7F1C0E94DEFDA3019201261B370B22
:10523000480B590BDA01C901803A9648A140B105E3
:1052400018F40E947476EECFD5018C9183FD1798E7
:10525000F501808184FD1698D5018C9185FD02C0F1
:105260000C94783315980C9478330E94C6568111AB
:105270000C9478330E94DEFD60932C1D70932D1DDD
:1052800080932E1D90932F1D80919B0283FF02C05F
:105290000C947833F5018081918193FF02C00C94C6
:1052A000643392FF0AC0868D978DA0A1B1A1892B8E
:1052B0008A2B8B2B11F40C946433D5018D919C9126
:1052C000119792FD02C00C9478339C012227317013
:1052D00091FF23C0232B89F011E020E030E0A901E9
:1052E0005A966D917D918D919C915D970F94DB0500
:1052F00018160CF010E0212F01C020E085010C5A97
:105300001F4FF501668D778D80A191A129870F949C
:105310007A042985D8014C9124C0232B81F011E017
:1053200020E030E0A901F501628D738D848D958DAB
:105330000F94DB0518160CF010E0212F01C020E0BF
:105340000091360310913703D5015E966D917D91E2
:105350008D919C91919729870F947A042985F80162
:10536000408129960FB6F894DEBF0FBECDBFDF9106
:10537000CF911F910F91FF90EF90DF90CF90BF9052
:10538000AF909F908F907F906F905F904F903F90E5
:105390002F900C9484520E94C65681110C9478333D
:1053A0000E94DEFD60932C1D70932D1D80932E1D99
:1053B00090932F1D80919B0283FF02C00C94783341
:1053C000D5018D919C91119792FD02C00C94783378
:1053D00090FF11C011E020E030E0A9015A966D91D4
:1053E0007D918D919C915D970F94DB0518160CF0C3
:1053F00010E0412F01C040E0F501668D778D80A15E
:1054000091A149870F947A04498529960FB6F8949B
:10541000DEBF0FBECDBFDF91CF911F910F91FF90E7
:10542000EF90DF90CF90BF90AF909F908F907F9044
:105430006F905F904F903F902F900C940A4FD50142
:105440008D919C9133E0969587953A95E1F781701F
:1054500029960FB6F894DEBF0FBECDBFDF91CF9176
:105460001F910F91FF90EF90DF90CF90BF90AF9082
:105470009F908F907F906F905F904F903F902F9074
:10548000AEC80E94C65681110C9478330E94DEFD8E
:1054900060932C1D70932D1D80932E1D90932F1DB6
:1054A00080919B0283FF02C00C94783340E064E15A
:1054B00074E087E19AE00E9436A887E19AE00E94B2
:1054C0008AAB0E941E1D2090360330903703F501F1
:1054D0008081918191FF09C0EC5AFF4F20812111F9
:1054E00004C02CE0222E22E0322E92FF1EC090FF3C
:1054F0000FC011E020E030E0A901D5015A966D916E
:105500007D918D919C915D970F94DB0518160CF0A1
:1055100010E0F501668D778D80A191A10F947A043A
:10552000212FD1014C910E948452F10126A937A963
:1055300040AD51AD62A973A984A995A90F94420306
:105540002B013C0120E030E0A9010F94DB05181687
:1055500064F420E030E040EA50E4C301B2010F946B
:10556000A70387FF0EC00C94783320E030E040EAB8
:1055700050ECC301B2010F94DB05181614F40C941F
:10558000783399249394D101D0962D913C91D19761
:105590009E968D919C919F97821793070CF0912C6A
:1055A0000E94DEFD6D837E838F83988710E0412CFF
:1055B000512C32010E94DEFD69837A838B839C83A8
:1055C00060932C1D70932D1D80932E1D90932F1D85
:1055D000DC01CB012D813E814F815885821B930BCD
:1055E000A40BB50B893E9340A105B10558F080E0AE
:1055F0000E94EF2289819A81AB81BC818D839E8339
:10560000AF83B88781E00E94FC1C809136039091A3
:1056100037032816390609F064C0D1019396ED903E
:10562000FC9094971E141F040CF05BC0111158C01D
:10563000992009F477C091966D917C919297882773
:1056400077FD8095982F0F947A049B01AC01F101AE
:1056500062A973A984A995A90F94DB05181614F003
:105660000C947133662777276E197F09882777FD99
:105670008095982F0F947A042091E4023091E502EE
:105680004091E6025091E7020F944F060F944704B1
:105690001F921F92D10152962C9152972F9351969F
:1056A0002C9151972F9350962C9150972F931F9692
:1056B0002C912F935B016C01E12CF12C870120E0F0
:1056C00030E0A90160E070E0CB010E94FFF10F9093
:1056D0000F900F900F900F900F9011E00C9471337A
:1056E00011E0411451046104710409F050C0992083
:1056F000F1F020E030E040E85FE3F10166A977A92E
:1057000080AD91AD0F9442039B01AC01D101D296C3
:105710006D917D918D919C91D5970F94DB0587FFBD
:105720001FC045CF411451046104710481F520E08C
:1057300030E040E85FE3F10166A977A980AD91AD63
:105740000F9443039B01AC01D101D2966D917D91E1
:105750008D919C91D5970F94A70318160CF427CF21
:10576000F101A78DB0A128EE33E00F94B2072B0111
:105770003C0129813A814B815C81420E531E641E9B
:10578000751E411451046104710409F413CFD3014F
:10579000C20129813A814B815C81821B930BA40B4E
:1057A000B50B81159449A543B74708F403CF1123DE
:1057B000E1F1809136039091370328163906A9F557
:1057C000D10193966D917C919497882777FD809570
:1057D000982F0F947A042091E4023091E5024091D1
:1057E000E6025091E7020F944F060F9447041F9270
:1057F0001F92F10122892F9321892F9320892F93C2
:1058000027852F935B016C01E12CF12C870120E0AF
:1058100030E0A90160E070E0CB010E94FFF10F9041
:105820000F900F900F900F900F901092800A0E948F
:10583000DEFD60932C1D70932D1D80932E1D909383
:105840002F1D56C780919B0283FD52C70E94DEFD2B
:105850004B015C010E94DEFD681979098A099B09E8
:10586000693E73408105910538F080E00E94EF2287
:105870000E94DEFD4B015C0181E00E94FC1C009156
:105880000A0210910B02D8011B964D905D906D900D
:105890007C901E9720E030E040EF51E4C301B2015C
:1058A0000F94DB0518160CF023C7F801278130850B
:1058B00041855285C301B2010F9442039F7720E0D6
:1058C00030E040E85FE30F94DB0518161CF210C7C8
:1058D000D5018D919C91119793FB662760F992FFFA
:1058E00005C05E968D919C915F970AC08FEF90E006
:1058F00007C0F501618163FB662760F980E090E0F5
:1059000029960FB6F894DEBF0FBECDBFDF91CF91C1
:105910001F910F91FF90EF90DF90CF90BF90AF90CD
:105920009F908F907F906F905F904F903F902F90BF
:105930000C94771FD5018D919C91119792FF04C013
:105940005E962C9120939B0293FF12C0F50182A1D9
:1059500093A1A4A1B5A120919B02181619061A06BD
:105960001B0614F4822B02C08150822380939B0279
:1059700080919B0283FFBCC620E040E060E070E0C5
:10598000CB010E94845220E040E060E070E0CB0157
:10599000E8CC8CE993E20E94589C29960FB6F894C3
:1059A000DEBF0FBECDBFDF91CF911F910F91FF9052
:1059B000EF90DF90CF90BF90AF909F908F907F90AF
:1059C0006F905F904F903F902F900C94A11F8EE0AE
:1059D00094E05EC3D5018D919C9197FF89C6F50136
:1059E000EE5AFF4F6081718140E087E19AE00E94AA
:1059F000AFA887E19AE029960FB6F894DEBF0FBEF4
:105A0000CDBFDF91CF911F910F91FF90EF90DF906D
:105A1000CF90BF90AF909F908F907F906F905F904E
:105A20004F903F902F900C948AAB0E941E1D88EBE4
:105A300091E20E943F9C379903C08FEB91E202C034
:105A400082EC91E20E943F9C81EB91E20E943F9C9C
:105A5000029B03C082EC91E202C08FEB91E20E94B4
:105A60003F9C8AEA91E20E943F9C019903C08FEB20
:105A700091E202C082EC91E20E943F9C29960FB60F
:105A8000F894DEBF0FBECDBFDF91CF911F910F9174
:105A9000FF90EF90DF90CF90BF90AF909F908F904E
:105AA0007F906F905F904F903F902F900C94E522E5
:105AB000F5018081918188279C7081159C4009F0B7
:105AC00017C6F50162A1868D29960FB6F894DEBF40
:105AD0000FBECDBFDF91CF911F910F91FF90EF903F
