:100000000C94B71C0C94E81C0C94E81C0C94E81C91
:100010000C94E81C0C94E81C0C94E81C0C94E81C50
:100020000C94E81C0C94E81C0C94E81C0C94E81C40
:100030000C94E81C0D943E080C94E81C0C94E81CED
:100040000C94E81C0C94ADDA0C94E81C0C94E81C9D
:100050000C94E81C0C9438DC0C9450DB0D94FE02DC
:100060000C94E81C0C9490DC0C94BADC0C94E81C06
:100070000C94E81C0C94E81C0C94E81C0C94E81CF0
:100080000C94E81C0C94E81C0C94E81C0C94E81CE0
:100090000C94E81C0C94E81C0C94E81C0D940C01C6
:1000A0000C94E81C0C94E81C0C94E81C0C94E81CC0
:1000B0000C94E81C0C94E81C0C94E81C0C94E81CB0
:1000C0000C94E81C0C94E81C0C94E81C0C94E81CA0
:1000D0000C94E81C0C94E81C0C94E81C0C94E81C90
:1000E0000C94E81C3E955695569556955695569502
:1000F00056955695569556955695569556955695A8
:100100005695569556955695569556955695569597
:1001100056955695569556952D95DF94E99463948A
:1001200056950F95199556955695749451945695E4
:10013000059556952395FB94F394569556955695AB
:10014000C194CB94D59456955695569556955695FB
:1001500056955695569556952D95DF94E99463944A
:1001600056950F95199556955695749451945695A4
:10017000059556952395FB94F3945695569556956B
:10018000C194CB94D59456B2E7B27AB3CBB466C3DC
:1001900066C366C366C366C366C366C366C366C317
:1001A00013B44FB48DB466C366C366C366C366C377
:1001B00066C366C366C366C366C366C3F2B754B894
:1001C000B4B814B974B9D4B934BA66C3B0BEB8BA45
:1001D0002EBBA1BB13BC85BCF7BC69BDD6BD43BE5D
:1001E00066C366C366C366C366C375B642B798B6D0
:1001F000F8BE65BFD1BF3EC05FC0A1C0D3C005C1BE
:100200005EC1B9C112C26BC28CC280C066C366C374
:1002100066C366C366C366C366C366C366C366C396
:1002200066C366C315B644B666C366C366C366C313
:1002300066C366C366C366C30EC366C311B766C32F
:1002400066C366C3B6C2E4C266C366C366C366C39A
:1002500049B266C366C30EB5B1B5F5B59AB77801B4
:10026000A00184019801AC01A4018601B6018801B6
:100270008E019E01B001BC01BA01A401B2018A0144
:10028000A801A20176019C0190017A01AA01B401A2
:100290007E01B801A60192019A0196019401AA017A
:1002A0008C017C01820107634236B79BD8A71A39BB
:1002B000685618AEBAAB558C1D3CB7CC5763BD6DB4
:1002C000EDFD753EF6177231BF000000803F05A8B6
:1002D0004CCDB2D44EB93836A9020C50B9918688AB
:1002E000083CA6AAAA2ABE000000803F0D94240460
:1002F0000D945E020D941D040D9452040D942C0473
:100300000D942D000D9456040D9468020D948602F0
:100310000D9496020D94E1020D944E040D94A002EA
:100320000D9417040D943A040D9448040D9444045C
:100330000D9472020D9440040D9413040D94AA02BE
:100340000D9463020D9421040D94F5020D9436046E
:100350000D94EB020D945B040D947C020D94F20459
:100360000D94B4020D94D7020D9428040D948E02BE
:100370000D9432040D94CD020D94C302436F6C644E
:1003800020657874727573696F6E20646973616C2F
:100390006C6F77656400436F6C6420657874727568
:1003A00073696F6E20616C6C6F7765640041757462
:1003B0006F726574726163743A0053657474696E28
:1003C00067206D6F746F722063757272656E742E24
:1003D0002E2E00536574204D6963726F73746570BF
:1003E00070696E670054726967676572696E67202D
:1003F0007761746368646F672E2049662061637457
:100400006976617465642C20746865207072696E09
:100410007465722077696C6C2072657365742E0048
:1004200053657474696E67205468726573686F6C85
:100430006420546F3A00494E542050494E3A2000EF
:100440004D323531200020746F20005365742076C2
:100450006F6C756D657472696320657874727573FD
:10046000696F6E20666F722065787472756465724C
:10047000200044697361626C656420766F6C756DF1
:10048000657472696320657874727573696F6E2024
:10049000666F7220657874727564657220004D31E4
:1004A0003134200048656174696E672042656400DC
:1004B00048656174696E6720457874727564657209
:1004C0000050696E2063616E206E6F74206265203B
:1004D000736574206279204D34322C206D6179204F
:1004E000696E20696E76616C6964206F7220696E36
:1004F000207573652E2000496C6C6567616C205314
:100500002076616C756520666F72204D3432005A1A
:100510002028432920746F77657220666C6F6F7294
:100520002073657420746F3A2000592028422920D6
:10053000746F77657220666C6F6F722073657420BC
:10054000746F3A2000582028412920746F77657213
:1005500020666C6F6F722073657420746F3A200090
:10056000526F6420526164697573207365742074DE
:100570006F3A2000473133342000506F7346726F5A
:100580006D53746570733A00436F6D7044656C749D
:10059000613A0043616C6962726174696F6E206DCB
:1005A0006F76656D656E74206973206C696D697412
:1005B000656420746F2031306D6D2E004669727352
:1005C00074206D6F766520746F20746F756368207A
:1005D000617420782C793D302C3020746F20617547
:1005E000746F2D736574207261646975732E004396
:1005F000616C6962726174696F6E206D6F76656D92
:10060000656E74206973206C696D6974656420740B
:100610006F2031306D6D2E0043616E6E6F742073EC
:1006200065742072616469757320616E6420666C04
:100630006F6F722061742073616D652074696D65E0
:100640002E0043616C6962726174696F6E20636F22
:100650006465206973206C696D6974656420746FCA
:1006600020626F74746F6D20313025206F66205AC0
:10067000206865696768740052656C6174697665A5
:1006800020706F736974696F6E696E670041627381
:100690006F6C75746520706F736974696F6E696EC5
:1006A000670047363920005A3A2000593A2000584E
:1006B0003A20004F464653455453204F4646204269
:1006C0005920544F4F204D554348205F20545259D4
:1006D000494E4720414741494E3A200053657474C2
:1006E000696E672050726F62652053656E7369741E
:1006F000697669747920546F3A005A2070726F627B
:1007000065206661696C6564206F6E2073656E7329
:10071000697469766974793A200053657474696EF6
:10072000672050726F62652053656E7369746976D5
:1007300069747920546F3A005A2070726F62652094
:100740006661696C6564206F6E2073656E73697491
:1007500069766974793A200053657474696E67200C
:1007600050726F62652053656E736974697669743F
:100770007920546F3A005A2070726F62652066616A
:10078000696C6564206F6E2073656E736974697639
:100790006974793A200068656865004E6577205273
:1007A00061646975733A20004F6C6420526164691A
:1007B00075733A200043616C63756C6174656420E5
:1007C00052616469757320697320626164203A0024
:1007D00053657474696E672050726F62652053654B
:1007E0006E736974697669747920546F3A005A207F
:1007F00070726F6265206661696C6564206F6E203F
:1008000073656E73697469766974793A200053650B
:100810007474696E672050726F62652053656E73E1
:100820006974697669747920546F3A005A2070723D
:100830006F6265206661696C6564206F6E20736508
:100840006E73697469766974793A2000473332208F
:100850000050524F42452D5A4F46465345543A0098
:100860004733300053657474696E672050726F624D
:10087000652053656E736974697669747920546F65
:100880003A0050726F62657320646F206E6F74203F
:100890006D617463682E204F666620627920004780
:1008A000333020004D3131372043414C49425241D1
:1008B00054494F4E20434F4D504C455445006865B8
:1008C0006865004E657720486F72697A6F6E746153
:1008D0006C205261646975733A20004F6C64204843
:1008E0006F72697A6F6E74616C205261646975739E
:1008F0003A200043616C63756C61746564205261D9
:1009000064697573206973206261643A20004D3117
:1009100031372043414C4942524154494F4E2046C1
:1009200041494C45440043616C6962726174696F6E
:100930006E204661696C65640053657474696E6706
:100940002050726F62652053656E736974697669B1
:10095000747920546F3A005A2070726F62652028B3
:1009600043656E74657220506F696E7429206661EC
:10097000696C6564206F6E2073656E736974697647
:100980006974793A20004E6577205A204865696776
:1009900068743A004F6C64205A204865696768742F
:1009A0003A004D3131372043414C4942524154497C
:1009B0004F4E204641494C45440043616C69627288
:1009C0006174696F6E204661696C6564005365747B
:1009D00074696E672050726F62652053656E73692B
:1009E00074697669747920546F3A005A2070726F76
:1009F0006265202843656E74657220506F696E745D
:100A000029206661696C6564206F6E2073656E7362
:100A1000697469766974793A200047363920005A3A
:100A20003A2000593A2000583A20004D3131372001
:100A3000456E6473746F70204F66667365742045ED
:100A400072726F72004F464653455453204F4646CC
:100A500020425920544F4F204D5543482E2041628B
:100A60006F7274696E672E2053656E736974697650
:100A70006974793A20004D3131372043414C494265
:100A8000524154494F4E204641494C454400436130
:100A90006C6962726174696F6E204661696C65642D
:100AA0000053657474696E672050726F62652053DD
:100AB000656E736974697669747920546F3A005A67
:100AC0002070726F626520285A20546F77657229F2
:100AD000206661696C6564206F6E2073656E736952
:100AE0007469766974793A20004D31313720434179
:100AF0004C4942524154494F4E204641494C45448D
:100B00000043616C6962726174696F6E204661694D
:100B10006C65640053657474696E672050726F620F
:100B2000652053656E736974697669747920546FB2
:100B30003A005A2070726F626520285920546F77EE
:100B4000657229206661696C6564206F6E2073652B
:100B50006E73697469766974793A20004D31313762
:100B60002043414C4942524154494F4E204641494D
:100B70004C45440043616C6962726174696F6E2018
:100B80004661696C65640053657474696E672050D2
:100B9000726F62652053656E7369746976697479E2
:100BA00020546F3A005A2070726F626520285820D6
:100BB000546F77657229206661696C6564206F6E79
:100BC0002073656E73697469766974793A20004D93
:100BD0003130342053300A4D3134302053300A4DF7
:100BE000313037004D313137204932432045727260
:100BF0006F722E2041626F7274696E6700493243D2
:100C0000204572726F72202D2043616C696272619F
:100C100074696F6E2041626F7274656400657865F7
:100C20006375746547436F6465202F207175657522
:100C30006544656C74614D6F76652072657475727C
:100C40006E73206572726F72006969733264682016
:100C5000616363656C65726F6D6574657220696E42
:100C6000697469616C697A696E672E2E2E00616302
:100C700063656C65726F6D6574657220693263209F
:100C800072656376206572726F722E002076616CD9
:100C900075653A20007265616420726567200061A5
:100CA0006363656C65726F6D6574657220777269D8
:100CB000746520693263206572726F722E00616301
:100CC00063656C65726F6D657465722073656E64C3
:100CD00020693263206572726F722E00000001007D
:100CE000250030001D000C001E00240031001C00F7
:100CF0000B00180023002F001B000A0017000D0036
:100D000047000300040022002B001A0041004200AB
:100D1000000002003500206465672E204300206D2E
:100D20006561737572656420004572726F723A4333
:100D30006F756C64206E6F7420686F6C64207465CE
:100D40006D70657261747572652000206D7300208E
:100D5000616674657220004572726F723A54656DF7
:100D6000702E2072616973656420746F20736C6FDC
:100D7000772E2052697365203D20004739310A479C
:100D800031452D31383046363030300A4739300061
:100D90004D31313720457874727564657220300AA0
:100DA00054300A4D38342050340A4739310A47311B
:100DB0004531373246363030300A473145354635D1
:100DC00030300A473930001C151C14000000224343
:100DD000141F1FDB1187111711C71000000000003E
:100DE000003F10330FE30E670EEB0D0400081D905B
:100DF0000058091C01B007A801C80634023006C01B
:100E000002C0054C036805D80318056404D004F03B
:100E10000498047C0560040806300494060004204D
:100E200007D003AC07A80338088003C40858035050
:100E3000093003DC090803680AD802F40AB002800A
:100E40000B88020C0C6002980C3002240DF801B0E3
:100E50000DC0013C0E8001C80E3001540FB800B423
:100E60000F2800E00F00000400401D900060091CE6
:100E700001B007A801D00634023806C002C8054CEC
:100E8000036805D80318056404D804F00498047CAA
:100E900005600408063004940600042007D003AC63
:100EA00007A80338088003C408580350093003DC3E
:100EB000090803680AE002F40AB802800B88020CF1
:100EC0000C6002980C3002240DF801B00DC0013CFA
:100ED0000E8001C80E3001540FB800B40F2800E096
:100EE0000F000004000016D800C006AC0178058091
:100EF00002C004540348042804E803FC049803D007
:100F0000055003A40618037807D8024C08A802204D
:100F1000097002F4093802C80A08029C0BD001705B
:100F20000C9001440D5001180EF800EC0E8800C022
:100F30000F00000400681D4C00500B94005809DCA1
:100F40000050082401A8076C012807B401C006FC62
:100F5000017006440228068C02F005D402B8051C74
:100F600003880564035805AC033005F40310053C01
:100F700004E8048404C804CC04A804140590045CA8
:100F8000057004A4055804EC053804340620047CDC
:100F9000060804C406F0030C07D8035407C8039CD2
:100FA00007B003E40798032C08800374087003BC9F
:100FB000085803040948034C09300394091803DC5A
:100FC000090803240AF0026C0AE002B40AC802FC11
:100FD0000AB002440BA0028C0B8802D40B70021CD6
:100FE0000C5802640C4002AC0C2802F40C10023CB9
:100FF0000DF001840DD801CC0DB801140E98015CE0
:101000000E7001A40E4801EC0E1801340FD8007CBC
:101010000F8800C40F0800FC0F0000000000000053
:1010200000000000000000000000000000000000C0
:1010300000000000000000000000000000000000B0
:1010400000401F450060094F0010095C00C0086B9C
:101050000070087D0020089200D007AC008007CC0B
:10106000003007DE00E006230190065E014006A680
:1010700001F005FF01A0056D025005F30200059681
:1010800003B0045A046004400510044806C0036E0F
:10109000077003A8082003EB09D002230B8002414C
:1010A0000C3002390DE001040E9001A20E40011730
:1010B0000FF000690FA000A20F5000C60F0000DD66
:1010C0000FB0FFEB0F60FF0400700DD8004804ACB8
:1010D0000158038002D8025403800228043802FC1D
:1010E000040002D005C801A4069801780770014CDD
:1010F00008480120091801F409F000C80AC8009C3A
:101100000BA000700C7000440D3800180E0000ECAD
:101110000EA8FFC00FE8FE0400001B540060096425
:101120000010097400C008840070089C002008B8F2
:1011300000D007D8008007000130072C01E00668C6
:10114000019006AC0140060002F0056802A005E02F
:10115000025005740300052404B004F0046004DCAC
:10116000051004E406C00304087003300920037866
:101170000B8002600DE001A80E4001680FA000C0C6
:101180000F0000E80F60FF0400801AD8009808AC38
:10119000012007800250065403C80528045805FCA6
:1011A000040005D005B004A4066804780728044CA0
:1011B00008E8032009B003F4097003C80A38039C47
:1011C0000BF802700CB002440D6802180E0802EC15
:1011D0000E8801C00F8800F00F00000000A00F5C17
:1011E000006009690010097900C0088C007008A22D
:1011F000002008BD00D007DE00800705013007345D
:1012000001E0066D019006B20140060702F0056D8F
:1012100002A005E80250057B0300052B04B004F88A
:10122000046004EB06C003350920037F0B800265D0
:101230000DE001B00E40011D0FF000480FC8006C1A
:101240000FA000ED0F60FFFE0F48FE00020000211E
:1012500010422063308440A550C660E770088129A1
:10126000914AA16BB18CC1ADD1CEE1EFF131121039
:101270000273325222B5529442F772D662399318F1
:10128000837BB35AA3BDD39CC3FFF3DEE362244345
:101290003420040114E664C774A44485546AA54B41
:1012A000B528850995EEE5CFF5ACC58DD5533672D9
:1012B0002611163006D776F6669556B4465BB77A91
:1012C000A719973887DFF7FEE79DD7BCC7C448E565
:1012D000588668A7784008611802282338CCC9EDE1
:1012E000D98EE9AFF9488969990AA92BB9F55AD479
:1012F0004AB77A966A711A500A333A122AFDDBDC31
:10130000CBBFFB9EEB799B588B3BBB1AABA66C8784
:101310007CE44CC55C222C033C600C411CAEED8F80
:10132000FDECCDCDDD2AAD0BBD688D499D977EB618
:101330006ED55EF44E133E322E511E700E9FFFBED0
:10134000EFDDDFFCCF1BBF3AAF599F788F8891A9A3
:1013500081CAB1EBA10CD12DC14EF16FE18010A17A
:1013600000C230E3200450254046706760B983987E
:1013700093FBA3DAB33DC31CD37FE35EF3B10290CA
:1013800012F322D2323542145277625672EAB5CB4A
:10139000A5A89589856EF54FE52CD50DC5E234C31A
:1013A00024A01481046674476424540544DBA7FA1E
:1013B000B79987B8975FE77EF71DC73CD7D326F26A
:1013C000369106B01657667676154634564CD96D6A
:1013D000C90EF92FE9C899E9898AB9ABA9445865BA
:1013E0004806782768C018E1088238A3287DCB5CBE
:1013F000DB3FEB1EFBF98BD89BBBAB9ABB754A540A
:101400005A376A167AF10AD01AB32A923A2EFD0F89
:10141000ED6CDD4DCDAABD8BADE89DC98D267C0759
:101420006C645C454CA23C832CE01CC10C1FEF3E5D
:10143000FF5DCF7CDF9BAFBABFD98FF89F176E36A9
:101440007E554E745E932EB23ED10EF01E7C3C3E15
:101450005E2B3D3F2F5B5D3B2C2A225C004D61786B
:1014600054656D703A004469616D657465723A0047
:10147000416363656C65726174696F6E3A004D61BA
:101480007853706565643A004A65726B3A004D6145
:101490007842656454656D703A005072696E746587
:1014A00072547970653A44656C7461005A54726183
:1014B00076656C416363656C3A0059547261766578
:1014C0006C416363656C3A005854726176656C4197
:1014D0006363656C3A005A5072696E744163636568
:1014E0006C3A00595072696E74416363656C3A00DE
:1014F000585072696E74416363656C3A005A53695F
:101500007A653A005953697A653A005853697A65A1
:101510003A005A4D61783A00594D61783A00584D79
:1015200061783A005A4D696E3A00594D696E3A0039
:10153000584D696E3A004A65726B58593A005072BC
:10154000696E746C696E6543616368653A00454510
:1015500050524F4D3A004175746F6C6576656C3A28
:10156000005A50726F62653A00436173654C696757
:101570006874733A00537570706F72744C6F636166
:101580006C46696C616D656E746368616E67653A1F
:1015900000537570706F72744731304731313A00C3
:1015A0005A486F6D654469723A0059486F6D6544D9
:1015B00069723A0058486F6D654469723A00536F1A
:1015C000667477617265506F77657253776974637B
:1015D000683A004C43443A0046616E3A0053444333
:1015E0006172643A004865617465644265643A00FA
:1015F0004D6978696E6745787472756465723A00F2
:101600004E756D45787472756465723A00496E70F6
:1016100075744275666665723A00426175647261FE
:1016200074653A004E6F2063617365206C6967686A
:101630007473004D31313420007A70726F62696EBC
:10164000672E2E2E0064656C6179203130306D7309
:101650002E00686F6D65417869732000686F6D6555
:1016600041786973202F20717565756544656C74C8
:10167000614D6F76652072657475726E7320657248
:10168000726F7200486F6D652044656C7461005024
:1016900072696E7465723A3A736574757020006D84
:1016A0006F7665546F5265616C202F20717565757A
:1016B0006544656C74614D6F7665207265747572F2
:1016C0006E73206572726F72006D6F7665546F2055
:1016D0002F20717565756544656C74614D6F766515
:1016E0002072657475726E73206572726F7200532A
:1016F0007465707065722044697361626C65640022
:101700004B696C6C6564006973506F736974696FC1
:101710006E416C6C6F776564200053442065727273
:101720006F72206669786564005344206572726F39
:101730007220646964206E6F74207265636F7665D1
:1017400072210053442052656164204572726F72A9
:101750000055706C6F6164696E672E2E2E00005309
:1017600044207072696E742073746F7070656420A9
:10177000627920757365722E005344206361726430
:1017800020696E736572746564005344204361720E
:101790006420696E7365727465640053442043610C
:1017A00072642072656D6F766564005344206361D6
:1017B00072642072656D6F76656400457874722E70
:1017C00000436F6E6669673A004F6E652068656119
:1017D000746572207365656D73206465636F7570E1
:1017E0006C65642066726F6D20746865726D6973D4
:1017F000746F72202D2064697361626C696E67205A
:10180000616C6C20666F722073616665747921006B
:10181000486561746572206465636F75706C65649A
:10182000004372656174696F6E206661696C6564FE
:10183000004469726563746F7279206372656174C4
:1018400065640044656C6574696F6E206661696CDF
:1018500065640046696C652064656C657465640048
:10186000446F6E6520736176696E672066696C658A
:101870002E0057726974696E6720746F2066696CF8
:10188000653A20006F70656E206661696C65642C36
:101890002046696C653A20004E6F742053442070D6
:1018A00072696E74696E67005344207072696E7459
:1018B000696E672062797465200066696C652E6FB9
:1018C00070656E206661696C65640046696C6520B0
:1018D00073656C6563746564002053697A653A00CA
:1018E00046696C65206F70656E65643A00456E648C
:1018F0002066696C65206C69737400426567696E67
:101900002066696C65206C697374006572726F7211
:101910002077726974696E6720746F2066696C65E0
:1019200000534420696E6974206661696C006164CB
:1019300076616E6365204C205B303D6F66665D00AE
:10194000657874727564657220636F6F6C65722060
:101950007370656564205B302D3235355D006469D8
:101960007374616E636520746F2072657472616355
:1019700074207768656E2068656174696E67205BA6
:101980006D6D5D0074656D702E20666F72207265DE
:101990007472616374696F6E207768656E20686524
:1019A0006174696E67205B435D0074656D702E2005
:1019B00073746162696C697A652074696D65205B16
:1019C000735D00592D6F6666736574205B73746573
:1019D00070735D00582D6F6666736574205B737459
:1019E0006570735D00504944206D61782076616CAC
:1019F0007565205B302D3235355D005049442044FB
:101A00002D6761696E0050494420492D6761696EF8
:101A10000050494420502D6761696E2F64656164F0
:101A20002D74696D650050494420647269766520A3
:101A30006D696E00504944206472697665206D615D
:101A4000780068656174206D616E61676572205B06
:101A5000302D335D00616363656C65726174696F1D
:101A60006E205B6D6D2F735E325D007374617274F6
:101A7000206665656472617465205B6D6D2F735DB2
:101A8000006D61782E206665656472617465205B07
:101A90006D6D2F735D0073746570732070657220B7
:101AA0006D6D0042656420504944206D6178207658
:101AB000616C7565205B302D3235355D00426564A3
:101AC0002050494420442D6761696E0042656420BE
:101AD00050494420492D6761696E00426564205079
:101AE000494420502D6761696E0042656420504969
:101AF00044206472697665206D696E0042656420D9
:101B0000504944206472697665206D6178004265B1
:101B1000642048656174204D616E61676572205B69
:101B2000302D335D00436F72722E20646961676FE0
:101B30006E616C2043205B6D6D5D00436F72722E91
:101B400020646961676F6E616C2042205B6D6D5D22
:101B500000436F72722E20646961676F6E616C2042
:101B600041205B6D6D5D004D6178207072696E740F
:101B700061626C6520726164697573205B6D6D5D77
:101B800000546F776572205A20656E6473746F70AD
:101B9000206F6666736574205B73746570735D0097
:101BA000546F776572205920656E6473746F70206E
:101BB0006F6666736574205B73746570735D005443
:101BC0006F776572205820656E6473746F70206F34
:101BD0006666736574205B73746570735D0053652E
:101BE000676D656E74732F7320666F7220747261F7
:101BF00076656C005365676D656E74732F73206630
:101C00006F72207072696E74696E6700486F7269D6
:101C10007A6F6E74616C20726F6420726164697592
:101C20007320617420302C30205B6D6D5D00446941
:101C300061676F6E616C20726F64206C656E677493
:101C400068205B6D6D5D00486F6D696E672066652D
:101C5000656472617465205B6D6D2F735D004D610D
:101C6000782E206665656472617465205B6D6D2FEA
:101C7000735D00537465707320706572206D6D0024
:101C800054726176656C20616363656C6572617422
:101C9000696F6E205B6D6D2F735E325D0041636313
:101CA000656C65726174696F6E205B6D6D2F735E1C
:101CB000325D004D61782E206A65726B205B6D6D20
:101CC0002F735D005A206D6178206C656E677468B3
:101CD000205B6D6D5D0059206D6178206C656E67CD
:101CE0007468205B6D6D5D0058206D6178206C65B7
:101CF0006E677468205B6D6D5D005A20686F6D655E
:101D000020706F73205B6D6D5D005920686F6D658D
:101D100020706F73205B6D6D5D005820686F6D657E
:101D200020706F73205B6D6D5D0053746F70207356
:101D300074657070657220616674657220696E6189
:101D400063746976697479205B6D732C303D6F66BE
:101D5000665D004D61782E20696E616374697665F9
:101D60002074696D65205B6D732C303D6F66665D18
:101D7000005072696E7465722061637469766520C3
:101D80005B735D0046696C616D656E74207072698D
:101D90006E746564205B6D5D00416476616E6365A1
:101DA00064205573657200426175647261746500E8
:101DB0004550523A3320004550523A3220004550A7
:101DC000523A3120004550523A30200050726F7420
:101DD0006F636F6C2076657273696F6E20636861E4
:101DE0006E6765642C20757067726164696E670048
:101DF000436F6E66696775726174696F6E20726594
:101E000073657420746F2064656661756C74732EDD
:101E100000436F6E66696775726174696F6E206CDE
:101E20006F616465642066726F6D20454550524F46
:101E30004D2E00436F6E66696775726174696F6ECF
:101E40002073746F72656420746F20454550524F43
:101E50004D2E004175746F6C6576656C20616374FE
:101E60006976652028312F3029005A2D70726F62F3
:101E700065205933005A2D70726F62652058330007
:101E80005A2D70726F6265205932005A2D70726F30
:101E90006265205832005A2D70726F626520593188
:101EA000005A2D70726F6265205831005A2D707281
:101EB0006F626520782D792D7370656564205B6D88
:101EC0006D2F735D005A2D70726F6265207370659F
:101ED0006564205B6D6D2F735D005A2D70726F62AB
:101EE00065206F66667365742079205B6D6D5D009B
:101EF0005A2D70726F6265206F6666736574207804
:101F0000205B6D6D5D004D61782E207A2D70726FB3
:101F10006265202D2062656420646973742E205BE5
:101F20006D6D5D005A2D70726F626520686569671E
:101F30006874205B6D6D5D00776169740050726933
:101F40006E746572206865696768743A005A2D700E
:101F5000726F6265206661696C6564005472616EBF
:101F600073666F726D6174696F6E206D61747269F2
:101F7000783A004175746F6C6576656C696E6720A0
:101F800064697361626C6564004175746F6C657639
:101F9000656C696E6720656E61626C656400417591
:101FA000746F6C6576656C206D61747269782072EF
:101FB0006573657400004732382F6E47315A3235E9
:101FC0002F6E005A2D70726F626520737461746594
:101FD0003A005265736574205A20686569676874B1
:101FE000005A2D70726F6265206176657261676557
:101FF000206865696768743A0020537465702056DC
:102000006172696174696F6E2066726F6D205072C3
:102010006F626520746F2062656420446973746127
:102020006E63653A005A2D70726F62653A005072A5
:10203000696E7465722073657420696E746F2064B4
:1020400072792072756E206D6F646520756E74698B
:102050006C207265737461727421003A20776F721C
:102060006B696E67003A2074656D702073656E73DE
:102070006F72206465666563740065787472756458
:102080006572200068656174656420626564004D56
:1020900054454D503A00504944204175746F747551
:1020A0006E652066696E6973686564202120506CD6
:1020B00061636520746865204B702C204B6920613A
:1020C0006E64204B6420636F6E7374616E74732052
:1020D000696E2074686520436F6E6669677572610A
:1020E00074696F6E2E68206F7220454550524F4DB7
:1020F00000504944204175746F74756E65206661A7
:10210000696C6564212074696D656F757400504950
:1021100044204175746F74756E65206661696C65E5
:1021200064212054656D70657261747572652074E8
:102130006F206869676800204B643A2000204B6973
:102140003A2000204B703A200020436C6173736981
:102150006320504944002054753A2000204B753AC2
:102160002000206D61783A2000206D696E3A2000D1
:1021700020643A200020626961733A20005049448B
:10218000204175746F74756E65207374617274008C
:102190005461726765744265643A005461726765A0
:1021A0007445787472004E6F206D6F766520696E8D
:1021B0002064656C7461207365676D656E7420774B
:1021C000697468203E2031207365676D656E742EDA
:1021D00020546869732073686F756C64206E65762F
:1021E00065722068617070656E20616E64206D613B
:1021F0007920636175736520612070726F626C6510
:102200006D210044656C74612052616469757320AE
:10221000432830293A0044656C7461205261646936
:10222000757320422830293A0044656C746120524D
:10223000616469757320412830293A00416C7068E7
:10224000612043283930293A00416C70686120428E
:1022500028333330293A00416C70686120412832BC
:102260003130293A00546F77657220333A00546F49
:1022700077657220323A00546F77657220313A00E8
:10228000496E76616C69642064656C746120636F6B
:102290006F7264696E617465202D206D6F766520A4
:1022A00069676E6F726564006C696E656172204C5F
:1022B0003A00454550524F4D207570646174656415
:1022C000002C2073706565643D00206C696E65614B
:1022D000722073746570733A004A65726B3A007AC3
:1022E0005F6D61783A00795F6D61783A00785F6D73
:1022F00061783A004C2000482000206973200020BB
:10230000746F2000536574206F75747075743A2073
:10231000004D53312C4D53322050696E73004531BE
:102320003A0045303A005A3A00593A0020002C0051
:10233000206D696E0020686F7572732000206461E3
:10234000797320006D20005072696E74696E672089
:1023500074696D653A005072696E746564206669CF
:102360006C616D656E743A0046616E73706565648C
:102370003A00482E205261646975733A00466C6FCA
:10238000774D756C7469706C793A0053706565644B
:102390004D756C7469706C793A00202F002F003AEB
:1023A0000020524157002042403A0020403A00208D
:1023B000423A00543A0020453A00205A3A00205947
:1023C0003A0020583A00583A00467265652052415A
:1023D0004D3A00556E6B6E6F776E20636F6D6D6159
:1023E0006E643A00536F667477617265205265734C
:1023F0006574005761746368646F67205265736524
:10240000740042726F776E206F7574205265736529
:10241000740045787465726E616C205265736574E2
:1024200000506F776572557000737461727400426A
:102430004C4B2000736B6970200020676F74200084
:102440004572726F723A6578706563746564206C6A
:10245000696E652000534420726561642065727264
:102460006F7200205200204A0020490020500020B6
:102470005300204600204500205A002059002058D3
:1024800000446F6E65207072696E74696E672066B5
:10249000696C6500466F726D6174206572726F724F
:1024A0000057726F6E6720636865636B73756D00AC
:1024B0004563686F3A00526573656E643A00576110
:1024C000726E696E673A00496E666F3A00457272C5
:1024D0006F723A00494E46004E414E006F6B004607
:1024E00049524D574152455F4E414D453A526570F4
:1024F00065746965725F302E39322E32204649523A
:102500004D574152455F444154453A32303137319D
:10251000303330204D414348494E455F5459504572
:102520003A4F52494F4E2044656C74612000526509
:10253000717565737450617573653A004D3131374B
:1025400020494E53455254205344204341524400A5
:102550004D3131372053442043415244204552529B
:102560004F520055495F414354494F4E5F534554C4
:102570005F4D454153555245445F4F524947494E7F
:1025800020004E6F205344204361726400536875ED
:1025900074204F666620414C4C204865617473007E
:1025A00050726568656174204142530050726568DD
:1025B00065617420504C410055495F414354494F77
:1025C0004E5F484F4D455F5A200055495F41435487
:1025D000494F4E5F484F4D455F59200055495F4177
:1025E0004354494F4E5F484F4D455F582000554971
:1025F0005F414354494F4E5F484F4D45414C4C203D
:102600000055495F414354494F4E5F5A504F53491B
:1026100054494F4E5F464153545F4E4F54455354B7
:10262000200055495F414354494F4E5F5A504F5324
:102630004954494F4E5F4E4F54455354200055491D
:102640005F414354494F4E5F45504F534954494FA2
:102650004E200055495F414354494F4E5F5A504FF9
:10266000534954494F4E5F46415354200055495FEA
:10267000414354494F4E5F59504F534954494F4E6F
:102680005F46415354200055495F414354494F4EE2
:102690005F58504F534954494F4E5F464153542061
:1026A0000055495F414354494F4E5F5A504F53497B
:1026B00054494F4E200055495F414354494F4E5FA6
:1026C00059504F534954494F4E200055495F41439B
:1026D00054494F4E5F58504F534954494F4E200074
:1026E00042616E6742616E6700536C6F7742616E44
:1026F0006700446561642054696D65005049440079
:10270000003A002064617973200050657263656E41
:1027100074205072696E7465643A002064656620A6
:1027200000465720446174652032303137313033F0
:1027300030004F52494F4E2044656C746100536520
:10274000654D65434E43004F52494F4E2044656CE2
:10275000746100ED33A3333933DC32416374696F44
:102760006E3A256C6100040003004E6F00596573DA
:10277000004E2F41004F6666004F6E000000003F84
:10278000CDCC4C3D0AD7A33B6F12033A526570651E
:1027900074696572207620302E39322E3200004066
:1027A00014548025000040380000004B0000807069
:1027B000000000960000C0DA000000E10000002CDC
:1027C000010008B2010000C2010000F40100008411
:1027D000030090D0030000E803000008070020A1D8
:1027E000070000100E0040420F0060E316000000DA
:1027F0000000110A0411040A1111001C1F11111FFD
:102800000000040A0A0A0E1F1F0E001F1111111FDB
:102810000000001F1F1F1F1F0000040A040000000B
:102820000000040E15041C00000002000006003128
:102830002863309728182D6A286B2DD928020000AC
:102840000700442863305228182D6A286B2DA32CCA
:102850007E28592802192E00005072696E74657224
:102860002053657474696E677300712802072F0026
:102870000041646A7573742054656D707300852817
:1028800002AF280000416476616E63656420536581
:102890007474696E6773009E2802322E00005072B5
:1028A000696E7465722053657474696E6773000293
:1028B00000000900B6286330C429B029A029902956
:1028C000C82879296129D928CF2802462C0000443C
:1028D0006562756767696E6700E02802442F000033
:1028E00043616C6962726174696F6E204D656E75CB
:1028F000000310270200F8280329FC280A290000F9
:102900000000001B2900000000006C6F616465641A
:1029100020662E20454550524F4D00436F6E66692C
:102920006775726174696F6E0003102702003029A9
:102930003B293429422900000000005329000000EF
:10294000000073746F72656420696E2045455052B3
:102950004F4D00436F6E66696775726174696F6E83
:1029600000682903070400004C6F61642066726FE1
:102970006D20454550524F4D00802903060400004C
:1029800053746F726520746F20454550524F4D004F
:10299000972902D329000045787472756465720026
:1029A000A72902DA2B000046656564726174650030
:1029B000B72902062C0000416363656C657261747F
:1029C000696F6E00CB2902262B000047656E657289
:1029D000616C000200001000DA296330122BFE2A1D
:1029E000EC2ADB2AC62A972AAF2A802A6D2A592A7E
:1029F000482A372A222A0D2AFA29012A042F0400FC
:102A000000504944204D61783A25584400142A0466
:102A1000260400004472697665204D61783A255895
:102A20004D00292A04250400004472697665204D72
:102A3000696E3A25586D003E2A042404000050496E
:102A40004420443A255864004F2A042304000050CF
:102A5000494420493A25586900602A0422040000AC
:102A600044542F50494420503A25587000742A0489
:102A70002D040000436F6E74726F6C3A2558680025
:102A8000872A0446040000416476616E6365206C09
:102A9000696E3A25586C009E2A044D040000576167
:102AA000697420556E6974733A2558556D6D00B67A
:102AB0002A044C040000576169742054656D702E1F
:102AC000255854024300CD2A042E0400005374619B
:102AD000622E54696D653A25587700E22A042A046B
:102AE0000000416363656C3A25584100F32A042BCA
:102AF0000400004D61782046523A25584600052BC7
:102B0000042C04000053746172742046523A255814
:102B10006600192B042904000053746570732F4D4F
:102B20004D3A2553650002000004002D2B633062EE
:102B30002B4A2B352B3C2B02762B00004D61782E37
:102B400020496E61637469766500512B02A82B00E1
:102B5000005374657070657220496E6163746976A4
:102B60006500692B04100400004261756472617491
:102B7000653A256F630003580402007D2B882B8182
:102B80002B8F2B0000000000992B00000000005B41
:102B9000735D20303D4F6666004469732E204166A8
:102BA0007465723A256970000320040200AF2BBAE5
:102BB0002BB32BC12B0000000000CB2B000000002A
:102BC000005B735D20303D4F6666004469732E20C4
:102BD00041667465723A256973000200000300E1E2
:102BE0002B6330F72BE72BEE2B0413040000486F08
:102BF0006D653A25665A00FE2B04160400004D61EF
:102C0000783A25667A0002000004000D2C63303506
:102C10002C252C152C1C2C040E0400004A65726B0C
:102C20003A25616A002C2C040D0400004D6F766576
:102C30003A25615A003C2C040A0400005072696E67
:102C4000743A25617A0002000005004D2C63309033
:102C50002C7D2C6A2C572C5E2C033504000044720A
:102C6000792072756E3A25646400712C0334040077
:102C7000004572726F7273203A25646500842C03DC
:102C800033040000496E666F2020203A25646900F5
:102C9000972C03320400004563686F2020203A25FA
:102CA000646F00AA2C02B72C0000534420436172C9
:102CB00064204D656E75000200000600BE2C633076
:102CC000182D052DEF2CDD2CCA2CD12C03F403017B
:102CD0000244656C6574652066696C6500E42C02CD
:102CE000372D020053746F70205072696E7400F6B5
:102CF0002C03F7030400436F6E74696E75652050F2
:102D000072696E74000C2D03F60302045061757332
:102D100065205072696E74001F2D03F50301025384
:102D2000656C6563742053442046696C650001003E
:102D3000000100352D633002000003003E2D592DA7
:102D40004F2D442D4B2D035424020059657300561A
:102D50002D03E80300004E6F00602D01000000000D
:102D600053746F70205072696E7400722D02832D3F
:102D7000000041646A7573742046616E207370654B
:102D800065640002000007008A2D6330012EED2DDE
:102D9000D82DC32DAE2D982D9F2D031E040000535A
:102DA00065742046616E2031303025252500B52D13
:102DB000031D0400005365742046616E20373525DD
:102DC000252500CA2D031C040000536574204661AC
:102DD0006E20353025252500DF2D031B0400005310
:102DE00065742046616E20323525252500F42D03BB
:102DF0001A0408005475726E2046616E204F666694
:102E000000082E045204000046616E207370656550
:102E1000643A254673252525000200000A00202E6D
:102E200063307E2E652EDC2EC92EAF2E4F30972EAE
:102E3000EF2E0200000A00392E63307E2E652EDC54
:102E40002EC92EAF2E4F304D2E972EEF2E542E031F
:102E5000B20F0000556E6C6F636B2046756C6C2072
:102E60004D656E75006C2E0448040000466C6F774B
:102E70002020526174653A256F6625252500852E30
:102E8000041F040000537065656420526174653A44
:102E9000256F6D252525009E2E03420400104469F0
:102EA0007361626C6520537465707065727300B6EF
:102EB0002E033804000053687574204F6666204165
:102EC0004C4C20486561747300D02E034704000009
:102ED000507265686561742041425300E32E0337E8
:102EE0000400005072656865617420504C4100F622
:102EF0002E033604000041545820706F776572200D
:102F00006F6E2F6F66660002000004000E2F6330A4
:102F10002C2F142F1B2F043C040000424544205446
:102F2000656D703A2020254562024300332F043D31
:102F30000400004E4F5A2054656D703A20202545FC
:102F40003002430002000006004B2F6330812F57F0
:102F50002F4F3019306D2F5E2F0421040000482EB2
:102F600020526164697573203A256F6800742F03DD
:102F7000AC0F0000536574205A204F726967696E68
:102F800000882F02992F000046756C6C2043616CFD
:102F90006962726174696F6E000200000400A02F04
:102FA0006330D62FC12FA82FAF2F03B10F000042DF
:102FB0006567696E2043616C6962726174696F6EE6
:102FC00000C82F03B50F0000424544204152452060
:102FD000434C45414E00DD2F03B40F00004D414BE3
:102FE000452053555245204E4F5A5A4C45202600F5
:102FF0000200000600F72F63304F303D302B3019B0
:103000003003300A30027C300000457874722E2084
:10301000706F736974696F6E00203002DD310000DB
:103020005A20506F736974696F6E00323002323209
:1030300000005920506F736974696F6E004430024C
:10304000873200005820506F736974696F6E0056A4
:103050003003FD030000486F6D65205072696E7487
:103060006572006A3003E803000050726576696F8C
:1030700075732053637265656E20010003F00304CD
:10308000008330A030993092308B30A730000000A0
:103090000000B5300000000000C630000000000055
:1030A000D5300000000000255566206D2070726943
:1030B0006E7465640020453A2565632F25456302DB
:1030C000437E256F43003120636C69636B203D2094
:1030D00031206D6D00453A257833206D6D0003FC7D
:1030E000030400E5300231FB30F430ED30093100EB
:1030F000000000000A3100000000001A310000004A
:1031000000002A310000000000004D617820656E4B
:103110006473746F703A25735A004D696E20656E42
:103120006473746F703A25737A005A3A25783220A6
:103130006D6D0003FB0304003A31573150314931C2
:1031400042315E3100000000005F310000000000ED
:103150006F3100000000007F310000000000004DD2
:10316000617820656E6473746F703A257359004DF1
:10317000696E20656E6473746F703A2573790059B7
:103180003A257831206D6D0003FA0304008F31ACCD
:1031900031A5319E319731B3310000000000B431C8
:1031A0000000000000C4310000000000D431000025
:1031B000000000004D617820656E6473746F703A92
:1031C000257358004D696E20656E6473746F703A94
:1031D00025737800583A257830206D6D0003EF0391
:1031E0000400E4310132FA31F331EC3108320000ED
:1031F0000000000932000000000019320000000049
:103200000029320000000000004D617820656E64E6
:1032100073746F703A25735A004D696E20656E6441
:1032200073746F703A25737A005A3A257832206D9C
:103230006D0003EE030400393256324F32483241FA
:10324000325D3200000000005E3200000000006EBF
:103250003200000000007E320000000000004D61DE
:103260007820656E6473746F703A257359004D69E8
:103270006E20656E6473746F703A25737900593AE5
:10328000257831206D6D0003ED0304008E32AB32E2
:10329000A4329D329632B2320000000000B33200F8
:1032A00000000000C3320000000000D33200000024
:1032B0000000004D617820656E6473746F703A256C
:1032C0007358004D696E20656E6473746F703A2593
:1032D000737800583A257830206D6D0000000004A6
:1032E00000E3320033F932F232EB320733000000F0
:1032F00000000D330000000000213300000000003A
:1033000025330000000000255566206D00546F74C1
:10331000616C2046696C616D656E742055736564DF
:103320000025557400546F74616C205072696E747E
:10333000696E672054696D65000000000400403329
:103340005D3356334F334833643300000000007060
:103350003300000000007E330000000000903300C6
:10336000000000004F52494F4E2044656C746100CC
:103370005072696E746572204D6F64656C004657BB
:1033800020446174653A20323031373130333000B7
:1033900046572056657273696F6E3A20302E393267
:1033A0002E32000000000400AA33C733C033B93303
:1033B000B233CE330000000000D233000000000022
:1033C000DB330000000000E4330000000000256F44
:1033D00073005A3A257832206D6D00593A257831BC
:1033E000206D6D00583A257830206D6D000000008A
:1033F0000400F43311340A340334FC33183400006D
:103400000000001C34000000000035340000000003
:103410000048340000000000256F7300537065659C
:10342000643A256F6D25252520466C6F773A256F08
:1034300066252525004245443A256562205461727F
:103440006765743A254562004E4F5A3A25656320F8
:103450005461726765743A254563000000000000FE
:10346000000000000000FF0000010000000000005C
:10347000000000000000000000000024F403D95008
:10348000C38EB1C2A23D96828B3582127AE37281DD
:103490006CCB66A861015DC758EB546151204E1E8C
:1034A0004B5648C14559431A41013F093D2F3B71D5
:1034B00039CD374036C93465331432D430A32F8028
:1034C0002E6B2D632C672B752A8E29B028DC2710D4
:1034D000274B268F25D9242B248223E0224322AC9C
:1034E000211A218D200420801F001F841E0C1E978E
:1034F0001D261DB81C4E1CE61B821B201BC11A6416
:103500001A0A1AB2195D190A19B9186A181C18D1C1
:103510001788174017FA16B51673163116F115B33A
:103520001576153A150015C7148F1458142214EE89
:1035300013BA13881356132513F612C71299126C77
:103540001240121512EB11C111981170114811217E
:1035500011FB10D610B1108D106910461024100206
:1035600010E10FC00FA00F800F610F420F230F0655
:103570000FE80ECB0EAF0E930E770E5C0E410E27AA
:103580000E0D0EF30DDA0DC10DA80D900D780D6026
:103590000D490D320D1B0D050DEF0CD90CC30CAEF2
:1035A0000C990C850C700C5C0C480C350C210C0E25
:1035B0000CFB0BE80BD60BC40BB20BA00B8E0B7DD8
:1035C0000B6B0B5A0B4A0B390B290B180B080BF81A
:1035D0000AE90AD90ACA0ABB0AAC0A9D0A8E0A80FD
:1035E0000A710A630A550A470A390A2C0A1E0A1187
:1035F0000A040AF709EA09DD09D009C409B709ABC9
:10360000099F09920987097B096F09630958094CC9
:1036100009410936092B09200915090A090009F58C
:1036200008EB08E008D608CC08C208B808AE08A421
:10363000089A08900887087D0874086B0861085884
:10364000084F0846083D0834082C0823081A0812B9
:103650000809080108F807F007E807E007D807D0CD
:1036600007C807C007B807B007A807A107000042AE
:103670000FA1071605D0030D038B022E02E801B23D
:10368000018601630145012C0117010401F4004F7B
:1036900052494F4E205265616479004F52494F4E56
:1036A000205265616479004F52494F4E2052656146
:1036B000647900207A3A0020793A0020783A00694B
:1036C0006E20717565756544656C74614D6F7665C6
:1036D00020746F2063616C63756C61746544656C04
:1036E00074615375625365676D656E74732072659E
:1036F0007475726E73206572726F722E004320684B
:10370000697420666C6F6F720043706F732078204D
:10371000737175617265200043706F732078207338
:1037200074657073200043706F7320792073717516
:10373000617265200043706F732079207374657027
:10374000732000422068697420666C6F6F720042BB
:10375000706F7320782073717561726520004270FC
:103760006F732078207374657073200042706F73DC
:10377000207920737175617265200042706F73202B
:103780007920737465707320004120686974206625
:103790006C6F6F720041706F732078207371756168
:1037A0007265200041706F732078207374657073A8
:1037B000200041706F7320792073717561726520EC
:1037C0000041706F73207920737465707320006DF1
:1037D0006F766552656C617469766544697374616E
:1037E0006E6365496E5374657073202F2071756523
:1037F000756544656C74614D6F766520726574758E
:10380000726E73206572726F720000000A0B0209FB
:103810000C0D0E080703040100000000000000006A
:103820000000000000000000000000000000000098
:103830000000000000001211100000000000000055
:103840000000000000000000000000000000000078
:1038500001021020200808102040102040800201A2
:103860000201080402010102040810204080804087
:103870002010080402018004020180402010080486
:103880000201080402010102040810204080010224
:1038900004081020408005050505070508080808EC
:1038A000020202020A0A08080404040401010101D8
:1038B00001010101030303030303030304070707D3
:1038C0000C0C0C0C0C0C0C0C020202020606060678
:1038D000060606060B0B0B0B0B0B0B0B0000200058
:1038E0002300260029002C002F00320000010000D8
:1038F00003010601090100002200250028002B0019
:103900002E003100340002010000050108010B0106
:1039100000002100240027002A002D003000330081
:1039200001010000040107010A01024E414E494E07
:10393000495459494E46CDCCCC3D0AD7233C17B704
:10394000D13877CC2B329595E6241FB14F0A000071
:1039500020410000C84200401C4620BCBE4CCA1B8F
:103960000E5AAEC59D74DC8BE39E6ADD8001112486
:103970001FBECFEFD1E2DEBFCDBF00E00CBF13E032
:10398000A0E0B2E0E2E7F3E202E00BBF02C0079082
:103990000D92A638B107D9F72EE1A6E8B3E001C031
:1039A0001D92AE37B207E1F719E3CEE6D9E300E0A6
:1039B00006C022970109FE010BBF0F94320DC636D7
:1039C000D10780E00807A9F70F949E080D94B7115E
:1039D0000C940000CF93DF9300D01F92CDB7DEB7D9
:1039E00044E050E0BC01CE0101960F94731169814F
:1039F0007A818B819C810F900F900F900F90DF91B7
:103A0000CF9108958091EA0283FB882780F9089579
:103A1000179A0895169A0895159A089588E493E0E0
:103A2000D9CFCF92DF92EF92FF92CF93DF9300D066
:103A30001F921F92CDB7DEB76B017C0160936D07BB
:103A400070936E0780936F07909370070E942574A0
:103A5000C982DA82EB82FC8244E050E065E773E0E1
:103A6000CE0101960F94951123E0B701A60180E6DF
:103A700095E00E94FEA00E94A2CE682F88E690E00A
:103A80006D830F9483116D81681721F088E690E0B3
:103A90000F949E110F900F900F900F900F90DF9149
:103AA000CF91FF90EF90DF90CF900895CF93DF9369
:103AB0001F92CDB7DEB7BC018DE793E00F94B11133
:103AC0000E94A2CE682F88E690E069830F9483114C
:103AD0006981681739F088E690E00F90DF91CF9107
:103AE0000D949E110F90DF91CF910895CF93DF93A6
:103AF0001F92CDB7DEB7BC018FE793E00F94B111F1
:103B00000E94A2CE682F88E690E069830F9483110B
:103B10006981681739F088E690E00F90DF91CF91C6
:103B20000D949E110F90DF91CF910895CF93DF9365
:103B30001F92CDB7DEB7BC0181E893E00F94B111BD
:103B40000E94A2CE682F88E690E069830F948311CB
:103B50006981681739F088E690E00F90DF91CF9186
:103B60000D949E110F90DF91CF910895CF93C82FA0
:103B700080919C048823D1F010929C040E944A59A1
:103B80009091DF0291509093DF02911109C08091D2
:103B9000E002833010F40E94D75885E08093DF0262
:103BA0006C2F8CE69AE0CF910C94D6C9CF910895F2
:103BB0008091210C882349F00E94C39780E0D6DFD2
:103BC0008CE69AE00E94D5C9F3CF08954F925F9298
:103BD0006F927F928F929F92AF92BF92CF92DF921D
:103BE000EF92FF920F931F93CF93DF9300D01F921A
:103BF000CDB7DEB78C018091E7079091E807A091DF
:103C0000E907B091EA0789839A83AB83BC83C090AC
:103C1000EB07D090EC07E090ED07F090EE07809076
:103C2000EF079090F007A090F107B090F2079C0189
:103C3000AD01BC01CD010F94640C81110FC149800D
:103C40005A806B807C80E89477F82FEF3FEF4FE746
:103C50005FE7C301B2010F94640C81110BC02FEF19
:103C60003FEF4FE75FE7C301B2010F941109181648
:103C70000CF4F4C0A7019601C701B6010F94640CBF
:103C80008111ECC026013701E89477F82FEF3FEF60
:103C90004FE75FE7C301B2010F94640C81110BC0C1
:103CA0002FEF3FEF4FE75FE7C301B2010F94110918
:103CB00018160CF4D3C0A5019401C501B4010F94EA
:103CC000640C8111CBC024013501E89477F82FEF03
:103CD0003FEF4FE75FE7C301B2010F94640C81111E
:103CE0000BC02FEF3FEF4FE75FE7C301B2010F9427
:103CF000110918160CF4B2C02091BF073091C0070B
:103D00004091C1075091C20769817A818B819C8162
:103D10000F94AD082B013C012091C3073091C407DB
:103D20004091C5075091C607C701B6010F94AD0871
:103D30006B017C012091C7073091C8074091C907EA
:103D40005091CA07C501B4010F94AD084B015C0145
:103D500080914708882329F020E732E441E25DE3BF
:103D600004C020E030E040E85FE3C301B2010F94FB
:103D7000B90BAB01BC0122E086EC93E20E943BA1AF
:103D800080914708882329F020E732E441E25DE38F
:103D900004C020E030E040E85FE3C701B6010F94C3
:103DA000B90BAB01BC0122E08EEB93E20E943BA178
:103DB00080914708882329F020E732E441E25DE35F
:103DC00004C020E030E040E85FE3C501B4010F9497
:103DD000B90BAB01BC0123E08AEB93E20E943BA14B
:103DE0006091FF077091000880910108909102088E
:103DF0000F94E4092091430830914408409145080C
:103E0000509146080F94B90B20914708222329F0BE
:103E100020E732E441E25DE304C020E030E040E826
:103E20005FE30F94B90BAB01BC0124E086EB93E296
:103E30000F900F900F900F90DF91CF911F910F91E6
:103E4000FF90EF90DF90CF90BF90AF909F908F90BA
:103E50007F906F905F904F900C94FEA0C8010E94DD
:103E6000209F4ACFCF92DF92EF92FF92CF93DF93C2
:103E7000EC01893191053CF0C53F81E0D8072CF079
:103E8000C4EFD1E002C0C9E1D0E0BE01882777FDD0
:103E90008095982F0F94E4096B017C016091F706DF
:103EA0007091F806882777FD8095982F0F94E40984
:103EB0009B01AC01C701B6010F9418099B01AC012D
:103EC0006091F9067091FA068091FB069091FC06CC
:103ED0000F94B90B6093F9067093FA068093FB0672
:103EE0009093FC06D093F806C093F706BE018BE8CA
:103EF00093E2DF91CF91FF90EF90DF90CF900C9401
:103F0000E49FCF92DF92EF92FF926B017C0120E061
:103F100030E040E752E40F94110987FD11C020E022
:103F200030E046E153E4C701B6010F94450B181683
:103F30006CF4C12CD12C86E1E82E83E4F82E06C067
:103F4000C12CD12C90E7E92E92E4F92EC0926D0796
:103F5000D0926E07E0926F07F092700722E0B701EF
:103F6000A60182E793E2FF90EF90DF90CF900C9450
:103F7000FEA08F929F92AF92BF92CF92DF92EF926C
:103F8000FF92CF93DF93EC018931910534F0893CA6
:103F900091052CF0C8ECD0E002C0C9E1D0E0D0938C
:103FA000F606C093F506E0918603F0918703E25888
:103FB000FF4FC080D180E280F38020E030E0A90193
:103FC000C701B6010F941109AE01662757FD609530
:103FD000762F18165CF0CB01BA010F94E4092AE0A1
:103FE00037ED43E25CE30F94B90B24C0CB01BA0177
:103FF0000F94E4092AE037ED43E25CE30F94B90B38
:1040000020E030E040E850E40F94B90B4B015C0134
:10401000A7019601C701B6010F94B90B2BED3FE044
:1040200049E450E40F94B90B9B01AC01C501B40104
:104030000F9418096093E5027093E6028093E702FB
:104040009093E802BE018DE793E2DF91CF91FF905C
:10405000EF90DF90CF90BF90AF909F908F900C9497
:10406000E49FCF93DF932091BB0797FD0DC0EC0138
:104070008F3F910519F014F0CFEFD0E0209721F099
:1040800028602093BB0705C0277F2093BB07C0E0B3
:10409000D0E061118DDD80917A1D90E0C817D907BD
:1040A00029F0BE0188E693E20E94E49FC0937A1D46
:1040B000DF91CF9108954F925F926F927F928F928E
:1040C0009F92AF92BF92CF92DF92EF92FF92CF93E7
:1040D000DF9300D01F92CDB7DEB72FE632E143E881
:1040E0005AE36091DF067091E0068091E1069091BD
:1040F000E2060F94B90B6B017C0181E890E06ADC69
:104100009B01AC01C701B6010F94AD08AB01BC0126
:1041100022E086E593E20E943BA184E493E20E94C0
:10412000E69EE0910A02F0910B0220E030E040E7C9
:1041300051E463857485858596850F94450B181623
:104140000CF46BC020E030E0A9018DE790E02983FA
:104150003A834B835C830F948B114B015C01298163
:104160003A814B815C81820E931EA41EB51EC5014F
:10417000B40120E831E541E050E00F94E50C60E83F
:104180007EEA8EEF9FEF0F94800C6B017C01C80CD0
:10419000D91CEA1CFB1CBA01A90187E493E20E9426
:1041A0000AA0C701B60120E13EE040E050E00F94D4
:1041B000E50C49015A01BA01A9018DE393E20E947D
:1041C0000AA0A0EFB1EFA50194010F942E0D6C0D84
:1041D0007D1D8E1D9F1D2CE330E040E050E00F94CC
:1041E000E50CBA01A90185E393E20E940AA080E3ED
:1041F00093E20F900F900F900F90DF91CF91FF906F
:10420000EF90DF90CF90BF90AF909F908F907F9076
:104210006F905F904F900C94FF9E0F944803C09056
:10422000E306D090E406E090E506F090E6066C190F
:104230007D098E099F0928EE33E040E050E00F949D
:10424000C30C83CF811102C08EE207C0813011F40C
:104250008DE203C0823019F48CE20D943A02089585
:10426000EAE0F1E0808188608083808180618083E2
:104270008081806280836CE370E08EE20F943A026A
:104280006CE370E08DE20F943A0262E870E08CE239
:104290000F943A02E1E2F1E08081887F81608083BF
:1042A000089567FD43C08230E9F028F4882341F087
:1042B000813061F03BC0833009F1843059F136C060
:1042C000662311F0A19A69C0A19867C08091080186
:1042D000662311F0806801C08F778093080147FF43
:1042E0003AC05FC080910801662311F0806401C06C
:1042F0008F7B8093080147FF34C055C0809108012F
:10430000662311F0886001C0877F8093080147FF12
:1043100032C046C080910501662311F0806401C05F
:104320008F7B8093050147FF2EC03CC047FD3BC0FB
:104330008230B9F028F4882341F0813061F008958B
:104340008330C9F08430F9F00895442311F0A09A25
:104350000895A0980895442311F0A29A0895A29870
:10436000089580910801442311F0806201C08F7D7F
:1043700080930801089580910801442311F0806121
:10438000F7CF8F7EF5CF80910501442311F0806433
:1043900001C08F7B80930501089547FFD6CF089514
:1043A0000895089508950895643079F028F46130EF
:1043B00041F0623041F00895683051F0603141F0D1
:1043C000089540E003C040E004C041E060E002C066
:1043D00041E061E066CFCF93DF9381E193E20E94F9
:1043E000FF9E62B36695617070E086EC93E20E9476
:1043F000D89F62B3617070E08EE293E20E94E49F06
:10440000C6E0D1E08881992787FD9095692F661FC6
:104410006627661F70E089E293E20E94D89F62B32C
:1044200062FB662760F970E08EE293E20E94E49FEF
:10443000688166FB662760F970E086E293E20E947D
:10444000D89F688165FB662760F970E08EE293E291
:104450000E94E49F688163FB662760F970E082E256
:1044600093E20E94D89F68816295617070E08EE24D
:1044700093E20E94E49FC3E0D1E0688166FB662777
:1044800060F970E08EE193E20E94D89F688166FB3C
:10449000662760F970E08EE293E2DF91CF910C9491
:1044A000E49FFF920F931F93CF93DF9300D01F924F
:1044B0001F92CDB7DEB785E0E7E4F3E0DE011196A9
:1044C00001900D928A95E1F7989A9A9A8091070146
:1044D00080628093070180910701806180930701CA
:1044E000809104018064809304018E010F5F1F4F4F
:1044F000F12CF80161918F018F2D56DFF394F5E0D7
:10450000FF12F7CF0F900F900F900F900F90DF9149
:10451000CF911F910F91FF9008950C943BDA0E9468
:1045200026DA20910802309109028217930724F4B9
:104530009093090280930802089560910802709197
:10454000090280910602909107026817790744F4E6
:10455000709307026093060289EC93E20C94E49F47
:104560000895CF93C82F69E170E085E89DE10F942D
:1045700018006C2F85E89DE10E94B9FF60E085E896
:104580009DE10F941900882329F08EEB9CE0CF91D8
:104590000C94FF9ECF910895CF93DF93D82FC62F11
:1045A00069E170E085E89DE10F9418006D2F85E8C2
:1045B0009DE10E94B9FF6C2F85E89DE10E94B9FF43
:1045C00085E89DE10F942B00882331F08FE99CE072
:1045D000DF91CF910C94FF9EDF91CF9108951F93AF
:1045E000CF93DF93182FBDDF41E050E069E170E029
:1045F00085E89DE10F940C0085E89DE10E9462FF33
:10460000892B99F085E89DE10E946AFFEC01612FFA
:1046100070E085E99CE00E94D89FBE0177278CE876
:104620009CE00E94E49F81E005C08EE69CE00E9431
:10463000FF9E80E0DF91CF911F91089589E49CE077
:104640000E94FF9E85E89DE10E94F7FF8FE0C7DF93
:1046500081E3C5DF80E2C3DF6CE980E29DDF80E2B9
:10466000BEDF82E2BCDF60E482E296DF82E2B7DF97
:1046700085E2B5DF60E085E28FDF85E2B0DF83E2CF
:10468000AEDF60E383E288DF83E2A9DF84E2A7DFB5
:104690006AE484E281DF84E2A2DF80E3A0DF60E2FB
:1046A00080E37ADF80E39BDF81E399DF82E397DFBA
:1046B00064E182E371DF82E392DF83E390DF60E015
:1046C00083E36ADF83E38BDF84E389DF60E084E3F5
:1046D00063DF84E384DF86E382DF62E386E35CDF1B
:1046E00086E37DDF87E37BDF60E087E355DF87E3F9
:1046F00076DF88E374DF60E188E34EDF88E36FDF15
:1047000089E36DDF8AE36BDF62E38AE345DF8AE3F7
:1047100066CFCF9381E363DFC82F85E360DF81112C
:1047200001C0C0E089E35BDF811101C0C0E08DE220
:1047300056DF811101C0C0E08C2FCF9108956DE04C
:104740008FE29BE00E94DAD86AE08FE29BE00C9453
:10475000DAD8CF93C82FE0918603F091870342A95E
:1047600053A964A975A922E083EB93E20E943BA1BF
:10477000E0918603F091870346A957A960AD71AD1A
:1047800020E08AE993E20E943BA10E94DB50AB014A
:10479000BC0122E08FEA93E20E943BA14091190202
:1047A00050911A0260911B0270911C0220E08AE96C
:1047B00093E20E943BA1CC2391F061E070E081EA9A
:1047C00093E20E94D89F6CEF7FE08091110290915C
:1047D0001202681B790B8FE993E20E94D89FE09147
:1047E0000E02F0E0E958F24E608170E086EA93E252
:1047F0000E94D89FE091DE02EF3F29F4E09186030A
:10480000F0918703E081F0E0E958F24E608170E0BA
:104810008BEA93E20E94D89FCF9191CF2F923F9243
:104820004F925F926F927F928F929F92AF92BF92C0
:10483000CF92DF92EF92FF920F931F93CF93DF936C
:10484000CDB7DEB729970FB6F894DEBF0FBECDBF48
:104850005C01DC0116968D919C9117978C3891051F
:1048600009F48AC608F0E7C08235910509F42FC41F
:1048700008F08AC08A31910509F4D1C208F03FC01E
:104880008531910509F449C278F48231910509F422
:1048900023C28431910509F424C2419711F00C948C
:1048A0000D3517981698D0C58731910509F46DC25A
:1048B00008F44FC28831910509F495C2499711F067
:1048C0000C940D3560E088E199E029960FB6F894D4
:1048D000DEBF0FBECDBFDF91CF911F910F91FF9033
:1048E000EF90DF90CF90BF90AF909F908F907F9090
:1048F0006F905F904F903F902F900C94B89A8E31AC
:10490000910509F4E9C218F58C31910509F4BCC28E
:1049100010F00C94463588E199E029960FB6F8948A
:10492000DEBF0FBECDBFDF91CF911F910F91FF90E2
:10493000EF90DF90CF90BF90AF909F908F907F903F
:104940006F905F904F903F902F900C94FF9D8A3214
:10495000910509F41BC328F4809709F4EAC20C946A
:104960000D358035910509F49DC38135910511F010
:104970000C940D351DD99B9A8091BD078F7B809338
:10498000BD07A39A0C9446358B36910511F40C940F
:104990003F2E38F58C35910509F4A4C460F48435B4
:1049A000910509F49DC308F496C38535910509F472
:1049B00075C40C940D358836910509F448C530F45A
:1049C0008336910509F4F2C40C940D3589369105AE
:1049D00009F425C68A36910511F40C942E2E0C94F8
:1049E0000D358337910511F40C94902E80F48F3699
:1049F000910511F40C94602E8237910511F40C94FA
:104A0000AE2E8D36910511F00C940D352AC68537E2
:104A1000910511F40C94B12E10F40C94B82D873735
:104A2000910511F40C94DC2E8837910511F40C9447
:104A30001F2F0C940D358530B1E09B0711F40C94B9
:104A40002D3208F0B0C08F3C910511F40C94C730A2
:104A500008F041C08A3C910511F40C94F62F70F4D3
:104A6000883C910511F40C94452F10F00C94982F6C
:104A70008E3B910509F4CBC70C940D358C3C910508
:104A800011F40C944D3010F40C943B308D3C910596
:104A900011F40C94AD308E3C910511F00C940D3551
:104AA000C50129960FB6F894DEBF0FBECDBFDF91CA
:104AB000CF911F910F91FF90EF90DF90CF90BF901B
:104AC000AF909F908F907F906F905F904F903F90AE
:104AD0002F900C9443D58F3D910511F40C948231A5
:104AE00088F48C3D910511F40C942F318D3D910586
:104AF00011F40C945731813D910511F00C940D3552
:104B00000C940F31893E910511F40C94973140F5C6
:104B1000883E910511F00C940D3560917F1D7091C8
:104B2000801D8AEC92E20E94D89F40917B1D50919B
:104B30007C1D60917D1D70917E1D22E081EC92E2D2
:104B40000E94FEA01092801D10927F1D10927B1D6E
:104B500010927C1D10927D1D10927E1D0C94463586
:104B60008B3F910511F40C94D0318430914011F0B9
:104B70000C940D3529960FB6F894DEBF0FBECDBF4D
:104B8000DF91CF911F910F91FF90EF90DF90CF9029
:104B9000BF90AF909F908F907F906F905F904F905D
:104BA0003F902F904BCD8E3521E0920711F40C945D
:104BB0008533C0F58E3241E0940711F40C94D03265
:104BC00098F48931A1E09A0711F40C9485328C3263
:104BD000B1E09B0711F40C9495328630914011F0AE
:104BE0000C940D350C944F328034F1E09F0711F492
:104BF0000C94433338F48F32914011F40C940F33FA
:104C00000C940D35813441E0940711F40C94473332
:104C10008234914011F00C940D3580E00E94AE87F3
:104C20000C945C338239A1E09A0711F40C9470342F
:104C300098F58836E1E09E0711F40C943C3438F482
:104C40008336914011F40C94F6330C940D35803971
:104C500031E0930711F40C9456348139914011F0EE
:104C60000C940D3529960FB6F894DEBF0FBECDBF5C
:104C7000DF91CF911F910F91FF90EF90DF90CF9038
:104C8000BF90AF909F908F907F906F905F904F906C
:104C90003F902F900C94D185853F51E0950711F4FA
:104CA0000C94A03460F4843F914011F00C940D35C5
:104CB00080E00E94B9CE83E39EE10C94AB34863F42
:104CC000E1E09E0711F40C94C5348C38934011F444
:104CD0000C94DF340C940D350E94081D0E940A1DAF
:104CE0008CC288E199E029960FB6F894DEBF0FBE1A
:104CF000CDBFDF91CF911F910F91FF90EF90DF908B
:104D0000CF90BF90AF909F908F907F906F905F906B
:104D10004F903F902F900C94489D88E199E0299600
:104D20000FB6F894DEBF0FBECDBFDF91CF911F91BC
:104D30000F91FF90EF90DF90CF90BF90AF909F903A
:104D40008F907F906F905F904F903F902F900C943A
:104D50003C9A88E199E029960FB6F894DEBF0FBE21
:104D6000CDBFDF91CF911F910F91FF90EF90DF901A
:104D7000CF90BF90AF909F908F907F906F905F90FB
:104D80004F903F902F900C94419AD5018D919C911A
:104D900097FD02C00C94463560E088E199E00E94DE
:104DA0006C66F501EE5AFF4F6081718140E088E149
:104DB00099E029960FB6F894DEBF0FBECDBFDF9104
:104DC000CF911F910F91FF90EF90DF90CF90BF9008
:104DD000AF909F908F907F906F905F904F903F909B
:104DE0002F900C94799D88E199E029960FB6F8945C
:104DF000DEBF0FBECDBFDF91CF911F910F91FF900E
:104E0000EF90DF90CF90BF90AF909F908F907F906A
:104E10006F905F904F903F902F900C94A79AF50160
:104E20008081918192FD02C00C944635468D578D4C
:104E300060A171A180918209882311F40C944635F8
:104E40004093790950937A0960937B0970937C09A8
:104E500088E599E029960FB6F894DEBF0FBECDBF66
:104E6000DF91CF911F910F91FF90EF90DF90CF9046
:104E7000BF90AF909F908F907F906F905F904F907A
:104E80003F902F900C94B264D5018D919C9197FD29
:104E900002C00C944635F501EE5AFF4F60817181D6
:104EA00088E199E029960FB6F894DEBF0FBECDBF1A
:104EB000DF91CF911F910F91FF90EF90DF90CF90F6
:104EC000BF90AF909F908F907F906F905F904F902A
:104ED0003F902F900C94209EF5018081918197FD49
:104EE00002C00C94463560E088E199E00E946C664F
:104EF000F501EE5AFF4F6081718188E199E02996B2
:104F00000FB6F894DEBF0FBECDBFDF91CF911F91DA
:104F10000F91FF90EF90DF90CF90BF90AF909F9058
:104F20008F907F906F905F904F903F902F900C9458
:104F3000829ED5018D919C9197FD02C00C944635BF
:104F400060E088E199E00E946C66F501EE5AFF4F3F
:104F50006081718188E199E029960FB6F894DEBFEF
:104F60000FBECDBFDF91CF911F910F91FF90EF90BA
:104F7000DF90CF90BF90AF909F908F907F906F9079
:104F80005F904F903F902F900C94B09EF501208140
:104F9000318133FD02C00C94463512A1E12EF3A0FD
:104FA000ECEDFCE0449150E04E155F0509F45EC065
:104FB00032964DE0E035F407A9F7F7FC57C032FF11
:104FC0002CC0D5015E964D915D916D917C9191972C
:104FD0004F3F51056105710509F0E0F461E0812F53
:104FE0000F945C04F501668D812F0F949504D50113
:104FF0005E966D917C915F97812F0F943A02B70175
:1050000084E093E20E94D89FF501668D778D8FEF43
:1050100092E212C087EF94E02BC062E0812F0F94E0
:105020005C04B7018FEF92E20E94D89F812F0F940A
:10503000CA04BC018AEF92E229960FB6F894DEBF4B
:105040000FBECDBFDF91CF911F910F91FF90EF90D9
:10505000DF90CF90BF90AF909F908F907F906F9098
:105060005F904F903F902F900C94E49F81EC94E0E0
:1050700029960FB6F894DEBF0FBECDBFDF91CF915A
:105080001F910F91FF90EF90DF90CF90BF90AF9066
:105090009F908F907F906F905F904F903F902F9058
:1050A0000C94209F0E94D81D0F9448036093811D8B
:1050B0007093821D8093831D9093841D9B9A809191
:1050C000BD0780648093BD07A3980C944635109269
:1050D00003080C94463581E0809303080C94463510
:1050E000D5018D919C91119792FF14C05E962D91E0
:1050F0003D914D915C919197A8EEB3E00F94220DF4
:1051000060933E0370933F03809340039093410369
:105110000C94463593FFA5C0F50182A193A1A4A1EB
:10512000B5A182309105A105B10509F466C02CF541
:105130000097A105B10509F446C00197A105B10585
:1051400011F00C94463529960FB6F894DEBF0FBEC9
:10515000CDBFDF91CF911F910F91FF90EF90DF9026
:10516000CF90BF90AF909F908F907F906F905F9007
:105170004F903F902F900C940A1D83309105A1050C
:10518000B10509F454C00497A105B10511F00C94C0
:10519000463529960FB6F894DEBF0FBECDBFDF911E
:1051A000CF911F910F91FF90EF90DF90CF90BF9024
:1051B000AF909F908F907F906F905F904F903F90B7
:1051C0002F900C94F25029960FB6F894DEBF0FBEC4
:1051D000CDBFDF91CF911F910F91FF90EF90DF90A6
:1051E000CF90BF90AF909F908F907F906F905F9087
:1051F0004F903F902F900C94081D29960FB6F8946D
:10520000DEBF0FBECDBFDF91CF911F910F91FF90F9
:10521000EF90DF90CF90BF90AF909F908F907F9056
:105220006F905F904F903F902F900C940C1D29969B
:105230000FB6F894DEBF0FBECDBFDF91CF911F91A7
:105240000F91FF90EF90DF90CF90BF90AF909F9025
:105250008F907F906F905F904F903F902F900C9425
:10526000E4500E94D81D81E029960FB6F894DEBF65
:105270000FBECDBFDF91CF911F910F91FF90EF90A7
:10528000DF90CF90BF90AF909F908F907F906F9066
:105290005F904F903F902F900C94B673D5018D91F5
:1052A0009C91119792FF14C05E962D913D914D9166
:1052B0005C919197A8EEB3E00F94220D60934203A6
:1052C0007093430380934403909345030C944635B5
:1052D000109242031092430310924403109245032C
:1052E0000C944635F501808183FF0CC0828593853F
:1052F000A485B5858093270390932803A093290361
:10530000B0932A03D5018C9184FF0EC01E968D9117
:105310009D910D90BC91A02D80932B0390932C0315
:10532000A0932D03B0932E03F501808185FF0CC05F
:1053300082899389A489B58980932F039093300340
:10534000A0933103B09332030E942574D5018C9150
:1053500086FD02C00C944635209186033091870368
:1053600056968D919D910D90BC91A02DF90181874C
:105370009287A387B487808129960FB6F894DEBF01
:105380000FBECDBFDF91CF911F910F91FF90EF9096
:10539000DF90CF90BF90AF909F908F907F906F9055
:1053A0005F904F903F902F900C94214FD501ED913D
:1053B000FC911197F2FF0DC05E962D913D914D919C
:1053C0005C919197A8EEB3E00F94220D6B017C01E4
:1053D00006C040E1C42E47E2D42EE12CF12CE3FDBF
:1053E0000E94081DF501808184FD0E940A1DD501DF
:1053F0008C9185FD0E940C1D0F9448032B013C01EC
:105400004C0C5D1C6E1C7F1C0F944803A301920181
:10541000261B370B480B590BDA01C901803A964815
:10542000A140B10518F40E941B79EECFD5018C91F3
:1054300083FD1798F501808184FD1698D5018C9124
:1054400085FD02C00C94463515980C9446350E9493
:10545000085981110C9446350F9448036093811DBF
:105460007093821D8093831D9093841D0E94021D62
:1054700081110C944635F5018081918193FF02C022
:105480000C94303592FF0AC0868D978DA0A1B1A1F2
:10549000892B8A2B8B2B11F40C943035D5018D91EF
:1054A0009C91119792FD02C00C9446359C012227D5
:1054B000317091FF23C0232B89F011E020E030E010
:1054C000A9015A966D917D918D919C915D970F9454
:1054D000450B18160CF010E0212F01C020E08501CB
:1054E0000C5A1F4FF501668D778D80A191A12987F8
:1054F0000F94E4092985D8014C9124C0232B81F015
:1055000011E020E030E0A901F501628D738D848DFA
:10551000958D0F94450B18160CF010E0212F01C04B
:1055200020E00091860310918703D5015E966D916E
:105530007D918D919C91919729870F94E4092985FC
:10554000F801408129960FB6F894DEBF0FBECDBF9B
:10555000DF91CF911F910F91FF90EF90DF90CF904F
:10556000BF90AF909F908F907F906F905F904F9083
:105570003F902F900C9458540E94085981110C941C
:1055800046350F9448036093811D7093821D80936C
:10559000831D9093841D0E94021D81110C94463539
:1055A000D5018D919C91119792FD02C00C944635C6
:1055B00090FF11C011E020E030E0A9015A966D91F2
:1055C0007D918D919C915D970F94450B18160CF071
:1055D00010E0412F01C040E0F501668D778D80A17C
:1055E00091A149870F94E409498529960FB6F8944B
:1055F000DEBF0FBECDBFDF91CF911F910F91FF9006
:10560000EF90DF90CF90BF90AF909F908F907F9062
:105610006F905F904F903F902F900C942155D50143
:105620008D919C9133E0969587953A95E1F781703D
:1056300029960FB6F894DEBF0FBECDBFDF91CF9194
:105640001F910F91FF90EF90DF90CF90BF90AF90A0
:105650009F908F907F906F905F904F903F902F9092
:1056600078C80E94085981110C9446350F9448035C
:105670006093811D7093821D8093831D9093841D80
:105680000E94021D81110C94463540E060EB74E0ED
:105690008CE69AE00E94F5AA8CE69AE00E9449AE58
:1056A0000E94D81D2090860330908703F5018081E9
:1056B000918191FF09C0EC5AFF4F2081211104C054
:1056C0002BE5222E22E0322E92FF1EC090FF0FC04B
:1056D00011E020E030E0A901D5015A966D917D914D
:1056E0008D919C915D970F94450B18160CF010E06E
:1056F000F501668D778D80A191A10F94E409212F8A
:10570000D1014C910E945854F10126A937A940AD0E
:1057100051AD62A973A984A995A90F94AC082B0176
:105720003C0120E030E0A9010F94450B181664F409
:1057300020E030E040EA50E4C301B2010F941109C7
:1057400087FF0EC00C94463520E030E040EA50EC74
:10575000C301B2010F94450B181614F40C9446358E
:1057600099249394D101D0962D913C91D1979E96F6
:105770008D919C919F97821793070CF0912C0F9419
:1057800048036D837E838F83988710E0412C512CD2
:1057900032010F94480369837A838B839C836093DF
:1057A000811D7093821D8093831D9093841DDC0165
:1057B000CB012D813E814F815885821B930BA40B19
:1057C000B50B893E9340A105B10558F080E00E94D9
:1057D000A92389819A81AB81BC818D839E83AF830C
:1057E000B88781E00E94B61D80918603909187035F
:1057F0002816390609F064C0D1019396ED90FC900B
:1058000094971E141F040CF05BC0111158C099200E
:1058100009F477C091966D917C919297882777FDD6
:105820008095982F0F94E4099B01AC01F10162A9C6
:1058300073A984A995A90F94450B181614F00C941C
:105840003D35662777276E197F09882777FD809574
:10585000982F0F94E4092091330330913403409141
:105860003503509136030F94B90B0F94B1091F9271
:105870001F92D10152962C9152972F9351962C91B1
:1058800051972F9350962C9150972F931F962C91B0
:105890002F935B016C01E12CF12C870120E030E0BB
:1058A000A90160E070E0CB010E9469F70F900F90B2
:1058B0000F900F900F900F9011E00C943D3511E078
:1058C000411451046104710409F050C09920F1F0B1
:1058D00020E030E040E85FE3F10166A977A980AD00
:1058E00091AD0F94AC089B01AC01D101D2966D91A2
:1058F0007D918D919C91D5970F94450B87FF1FC08B
:1059000045CF411451046104710481F520E030E079
:1059100040E85FE3F10166A977A980AD91AD0F94EE
:10592000AD089B01AC01D101D2966D917D918D9115
:105930009C91D5970F94110918160CF427CFF101FB
:10594000A78DB0A128EE33E00F941C0D2B013C0174
:1059500029813A814B815C81420E531E641E751E63
:10596000411451046104710409F413CFD301C2013D
:1059700029813A814B815C81821B930BA40BB50B6F
:1059800081159449A543B74708F403CF112309F4BF
:10599000E2C080918603909187032816390609F0AA
:1059A000DAC0D10193966D917C919497882777FD09
:1059B0008095982F0F94E40920913303309134039C
:1059C00040913503509136030F94B90B0F94B109F0
:1059D0001F921F92F10122892F9321892F932089F1
:1059E0002F9327852F935B016C01E12CF12C87010C
:1059F00020E030E0A90160E070E0CB010E9469F78F
:105A00000F900F900F900F900F900F90A4C00E94D6
:105A1000021D81110C94463540E064EA74E08CE686
:105A20009AE00E94F5AA8CE69AE00E9449AE0E9494
:105A3000D81DD5018D919C91119792FF1FC090FFA9
:105A400011C011E020E030E0A9015A966D917D91DE
:105A50008D919C915D970F94450B18160CF010E0FA
:105A6000412F01C040E0F501668D778D80A191A1A5
:105A700049870F94E40949850E9421552091190214
:105A800030911A0240911B0250911C026091150244
:105A90007091160280911702909118020F94AC0831
:105AA0002B013C0120E030E0A9010F94450B1816B2
:105AB0005CF420E030E040EA50E4C301B2010F940E
:105AC000110987FF0CC0E2C720E030E040EA50EC4B
:105AD000C301B2010F94450B18160CF4D7C70F94ED
