:100000000C94991C0C94CA1C0C94CA1C0C94CA1C09
:100010000C94CA1C0C94CA1C0C94CA1C0C94CA1CC8
:100020000C94CA1C0C94CA1C0C94CA1C0C94CA1CB8
:100030000C94CA1C0D9406080C94CA1C0C94CA1C7F
:100040000C94CA1C0C94C5760C94CA1C0C94CA1C43
:100050000C94CA1C0C9450780C9468770D94F4019D
:100060000C94CA1C0C94A8780C94D2780C94CA1CDA
:100070000C94CA1C0C94CA1C0C94CA1C0C94CA1C68
:100080000C94CA1C0C94CA1C0C94CA1C0C94CA1C58
:100090000C94CA1C0C94CA1C0C94CA1C0D94C60067
:1000A0000C94CA1C0C94CA1C0C94CA1C0C94CA1C38
:1000B0000C94CA1C0C94CA1C0C94CA1C0C94CA1C28
:1000C0000C94CA1C0C94CA1C0C94CA1C0C94CA1C18
:1000D0000C94CA1C0C94CA1C0C94CA1C0C94CA1C08
:1000E0000C94CA1CFC6F147014701470147014708B
:1000F00014701470147014701470147014701470E0
:1001000014701470147014701470147014701470CF
:100110001470147014701470EB6F9D6FA76F216FC3
:100120001470CD6FD76F14701470326F0F6F14701E
:10013000C36F1470E16FB96FB16F147014701470E5
:100140007F6F896F936F1470147014701470147033
:100150001470147014701470EB6F9D6FA76F216F83
:100160001470CD6FD76F14701470326F0F6F1470DE
:10017000C36F1470E16FB96FB16F147014701470A5
:100180007F6F896F936FEEE57FE612E763E8FEF617
:10019000FEF6FEF6FEF6FEF6FEF6FEF6FEF6FEF6BF
:1001A000ABE7E7E725E8FEF6FEF6FEF6FEF6FEF61E
:1001B000FEF6FEF6FEF6FEF6FEF6FEF68AEBECEB3B
:1001C0004CECACEC0CED6CEDCCEDFEF648F250EEE8
:1001D000C6EE39EFABEF1DF08FF001F16EF1DBF100
:1001E000FEF6FEF6FEF6FEF6FEF60DEADAEA30EA76
:1001F00090F2FDF269F3D6F3F7F339F46BF49DF462
:10020000F6F451F5AAF503F624F618F4FEF6FEF618
:10021000FEF6FEF6FEF6FEF6FEF6FEF6FEF6FEF63E
:10022000FEF6FEF6ADE9DCE9FEF6FEF6FEF6FEF6BB
:10023000FEF6FEF6FEF6FEF6A6F6FEF6A9EAFEF6D7
:10024000FEF6FEF64EF67CF6FEF6FEF6FEF6FEF640
:10025000E1E5FEF6FEF6A6E849E98DE932EB80011C
:10026000A4017C01980186019E019401B401B601AC
:1002700090019A01B201A8018A019E018401AC019A
:10028000BA01B8017801AE01AA019C01A0018E015A
:100290008C017E0192017601960188018201A00104
:1002A000A201B0017A0107634236B79BD8A71A3979
:1002B000685618AEBAAB558C1D3CB7CC5763BD6DB4
:1002C000EDFD753EF6177231BF000000803F05A8B6
:1002D0004CCDB2D44EB93836A9020C50B9918688AB
:1002E000083CA6AAAA2ABE000000803F0D94F40391
:1002F0000D94DE030D9410040D942C030D94EC0367
:100300000D9422030D9402040D949B030D9440035D
:100310000D94FE030D9491030D94E6030D94E203F6
:100320000D9464030D94F0030D944A030D94FA03A5
:100330000D9436030D946E030D94D7030D94B903F9
:100340000D9415040D9408040D9427030D94BA041C
:100350000D9487030D94D1030D94A5030D94CD0343
:100360000D940C040D9478030D9452030D945A03CC
:100370000D94DB030D94AF03436F6C6420657874B8
:10038000727573696F6E20646973616C6C6F7765E9
:100390006400436F6C6420657874727573696F6E66
:1003A00020616C6C6F776564004175746F72657461
:1003B000726163743A0053657474696E67206D6F7F
:1003C000746F722063757272656E742E2E2E0053D8
:1003D0006574204D6963726F7374657070696E67C0
:1003E0000054726967676572696E6720776174632C
:1003F00068646F672E204966206163746976617452
:1004000065642C20746865207072696E7465722052
:1004100077696C6C2072657365742E005365747413
:10042000696E67205468726573686F6C6420546FDE
:100430003A00494E542050494E3A20004D32353151
:10044000200020746F200053657420766F6C756DEA
:10045000657472696320657874727573696F6E2054
:10046000666F7220657874727564657220004469E5
:100470007361626C656420766F6C756D657472690A
:100480006320657874727573696F6E20666F722071
:10049000657874727564657220004D3131342000C6
:1004A00048656174696E67204265640048656174DF
:1004B000696E672045787472756465720050696E64
:1004C0002063616E206E6F742062652073657420F6
:1004D0006279204D34322C206D617920696E20695B
:1004E0006E76616C6964206F7220696E2075736529
:1004F0002E2000496C6C6567616C20532076616C1E
:10050000756520666F72204D3432005A20284329C9
:1005100020746F77657220666C6F6F7220736574DC
:1005200020746F3A2000592028422920746F776583
:100530007220666C6F6F722073657420746F3A203E
:1005400000582028412920746F77657220666C6FEF
:100550006F722073657420746F3A2000526F6420AC
:100560005261646975732073657420746F3A20005A
:10057000473133342000506F7346726F6D5374658A
:1005800070733A00436F6D7044656C74613A004358
:10059000616C6962726174696F6E206D6F76656DF2
:1005A000656E74206973206C696D6974656420746C
:1005B0006F2031306D6D2E004669727374206D6F3F
:1005C000766520746F20746F75636820617420787D
:1005D0002C793D302C3020746F206175746F2D7331
:1005E0006574207261646975732E0043616C696281
:1005F000726174696F6E206D6F76656D656E7420C3
:100600006973206C696D6974656420746F20313082
:100610006D6D2E0043616E6E6F7420736574207271
:10062000616469757320616E6420666C6F6F7220FF
:1006300061742073616D652074696D652E0043617E
:100640006C6962726174696F6E20636F64652069A2
:1006500073206C696D6974656420746F20626F74B7
:10066000746F6D20313025206F66205A20686569CF
:100670006768740052656C617469766520706F7389
:100680006974696F6E696E67004162736F6C75742F
:100690006520706F736974696F6E696E67004736A5
:1006A0003920005A3A2000593A2000583A20004F89
:1006B000464653455453204F464620425920544FF6
:1006C0004F204D554348205F20545259494E4720F2
:1006D000414741494E3A200053657474696E672062
:1006E00050726F62652053656E73697469766974C0
:1006F0007920546F3A005A2070726F6265206661EB
:10070000696C6564206F6E2073656E7369746976B9
:100710006974793A200053657474696E6720507269
:100720006F62652053656E736974697669747920A8
:10073000546F3A005A2070726F6265206661696C6E
:100740006564206F6E2073656E7369746976697471
:10075000793A200053657474696E672050726F6235
:10076000652053656E736974697669747920546F76
:100770003A005A2070726F6265206661696C656428
:10078000206F6E2073656E73697469766974793A47
:10079000200068656865004E657720526164697560
:1007A000733A20004F6C64205261646975733A207B
:1007B0000043616C63756C617465642052616469A7
:1007C000757320697320626164203A005365747404
:1007D000696E672050726F62652053656E7369742D
:1007E000697669747920546F3A005A2070726F628A
:1007F00065206661696C6564206F6E2073656E7339
:10080000697469766974793A200053657474696E05
:10081000672050726F62652053656E7369746976E4
:1008200069747920546F3A005A2070726F626520A3
:100830006661696C6564206F6E2073656E736974A0
:1008400069766974793A2000473332200050524F5C
:1008500042452D5A4F46465345543A0047333000DF
:1008600053657474696E672050726F6265205365BA
:100870006E736974697669747920546F3A005072A6
:100880006F62657320646F206E6F74206D61746396
:10089000682E204F666620627920004733302000A2
:1008A0004D3131372043414C4942524154494F4E1A
:1008B00020434F4D504C4554450068656865004ED7
:1008C000657720486F72697A6F6E74616C2052612F
:1008D000646975733A20004F6C6420486F72697ABE
:1008E0006F6E74616C205261646975733A200043C5
:1008F000616C63756C6174656420526164697573C1
:10090000206973206261643A20004D313137204301
:10091000414C4942524154494F4E204641494C4571
:10092000440043616C6962726174696F6E20466154
:10093000696C65640053657474696E672050726FEA
:1009400062652053656E73697469766974792054A1
:100950006F3A005A2070726F6265202843656E748A
:10096000657220506F696E7429206661696C6564D8
:10097000206F6E2073656E73697469766974793A55
:1009800020004E6577205A204865696768743A00F0
:100990004F6C64205A204865696768743A004D318D
:1009A00031372043414C4942524154494F4E204631
:1009B00041494C45440043616C6962726174696FDE
:1009C0006E204661696C65640053657474696E6776
:1009D0002050726F62652053656E73697469766921
:1009E000747920546F3A005A2070726F6265202823
:1009F00043656E74657220506F696E74292066615C
:100A0000696C6564206F6E2073656E7369746976B6
:100A10006974793A200047363920005A3A20005943
:100A20003A2000583A20004D31313720456E64732A
:100A3000746F70204F6666736574204572726F72B2
:100A4000004F464653455453204F464620425920B6
:100A5000544F4F204D5543482E2041626F727469A8
:100A60006E672E2053656E73697469766974793A7E
:100A700020004D3131372043414C494252415449C5
:100A80004F4E204641494C45440043616C696272B7
:100A90006174696F6E204661696C656400536574AA
:100AA00074696E672050726F62652053656E73695A
:100AB00074697669747920546F3A005A2070726FA5
:100AC000626520285A20546F776572292066616913
:100AD0006C6564206F6E2073656E736974697669E6
:100AE00074793A20004D3131372043414C4942520C
:100AF0004154494F4E204641494C45440043616CA6
:100B00006962726174696F6E204661696C65640028
:100B100053657474696E672050726F626520536507
:100B20006E736974697669747920546F3A005A203B
:100B300070726F626520285920546F776572292082
:100B40006661696C6564206F6E2073656E7369748D
:100B500069766974793A20004D3131372043414C30
:100B60004942524154494F4E204641494C45440068
:100B700043616C6962726174696F6E204661696C71
:100B800065640053657474696E672050726F6265A6
:100B90002053656E736974697669747920546F3A6D
:100BA000005A2070726F626520285820546F776554
:100BB0007229206661696C6564206F6E2073656EB2
:100BC00073697469766974793A20004D3130342044
:100BD00053300A4D3134302053300A4D3130370014
:100BE0006578656375746547436F6465202F207170
:100BF0007565756544656C74614D6F7665207265C9
:100C00007475726E73206572726F720069697332E7
:100C1000646820616363656C65726F6D657465728D
:100C200020696E697469616C697A696E672E2E2E0F
:100C300000616363656C65726F6D657465722069D0
:100C400032632072656376206572726F722E0020A7
:100C500076616C75653A2000726561642072656723
:100C60002000616363656C65726F6D6574657220E9
:100C7000777269746520693263206572726F722EB3
:100C800000616363656C65726F6D65746572207376
:100C9000656E6420693263206572726F722E000087
:100CA000000100250030001D000C001E0024003152
:100CB000001C000B00180023002F001B000A001767
:100CC000000D0047000300040022002B001A004121
:100CD000004200000002003500457874722E004387
:100CE0006F6E6669673A004F6E652068656174656E
:100CF00072207365656D73206465636F75706C65D4
:100D0000642066726F6D20746865726D6973746FAC
:100D100072202D2064697361626C696E6720616C5A
:100D20006C20666F72207361666574792100486576
:100D300061746572206465636F75706C65640043EF
:100D400072656174696F6E206661696C65640044E8
:100D500069726563746F727920637265617465642A
:100D60000044656C6574696F6E206661696C6564CA
:100D70000046696C652064656C6574656400446F49
:100D80006E6520736176696E672066696C652E00FA
:100D900057726974696E6720746F2066696C653A72
:100DA00020006F70656E206661696C65642C20465A
:100DB000696C653A20004E6F74205344207072694C
:100DC0006E74696E67005344207072696E74696E48
:100DD000672062797465200066696C652E6F7065A6
:100DE0006E206661696C65640046696C6520736598
:100DF0006C6563746564002053697A653A004669DE
:100E00006C65206F70656E65643A00456E6420669F
:100E1000696C65206C69737400426567696E206651
:100E2000696C65206C697374006572726F722077EB
:100E3000726974696E6720746F2066696C6500530F
:100E40004420696E6974206661696C006164766132
:100E50006E6365204C205B303D6F66665D00657893
:100E600074727564657220636F6F6C657220737045
:100E7000656564205B302D3235355D0064697374BF
:100E8000616E636520746F20726574726163742093
:100E90007768656E2068656174696E67205B6D6D4B
:100EA0005D0074656D702E20666F722072657472BD
:100EB000616374696F6E207768656E206865617420
:100EC000696E67205B435D0074656D702E207374DE
:100ED0006162696C697A652074696D65205B735D18
:100EE00000592D6F6666736574205B73746570734B
:100EF0005D00582D6F6666736574205B7374657052
:100F0000735D00504944206D61782076616C756591
:100F1000205B302D3235355D0050494420442D672B
:100F200061696E0050494420492D6761696E005027
:100F3000494420502D6761696E2F646561642D748A
:100F4000696D6500504944206472697665206D6959
:100F50006E00504944206472697665206D617800A6
:100F600068656174206D616E61676572205B302D0C
:100F7000335D00616363656C65726174696F6E20D7
:100F80005B6D6D2F735E325D0073746172742066E9
:100F900065656472617465205B6D6D2F735D006DB6
:100FA00061782E206665656472617465205B6D6D85
:100FB0002F735D00737465707320706572206D6DA2
:100FC0000042656420504944206D61782076616C50
:100FD0007565205B302D3235355D004265642050EB
:100FE000494420442D6761696E0042656420504980
:100FF0004420492D6761696E004265642050494470
:1010000020502D6761696E0042656420504944207C
:101010006472697665206D696E004265642050498E
:1010200044206472697665206D61780042656420B1
:1010300048656174204D616E61676572205B302D7B
:10104000335D00436F72722E20646961676F6E6159
:101050006C2043205B6D6D5D00436F72722E2064C7
:101060006961676F6E616C2042205B6D6D5D00434E
:101070006F72722E20646961676F6E616C2041200F
:101080005B6D6D5D004D6178207072696E74616298
:101090006C6520726164697573205B6D6D5D0054D1
:1010A0006F776572205A20656E6473746F70206F5D
:1010B0006666736574205B73746570735D00546F4E
:1010C000776572205920656E6473746F70206F6647
:1010D00066736574205B73746570735D00546F771D
:1010E0006572205820656E6473746F70206F666639
:1010F000736574205B73746570735D005365676D11
:10110000656E74732F7320666F72207472617665DA
:101110006C005365676D656E74732F7320666F7214
:10112000207072696E74696E6700486F72697A6FB9
:101130006E74616C20726F642072616469757320D3
:10114000617420302C30205B6D6D5D0044696167F7
:101150006F6E616C20726F64206C656E67746820BE
:101160005B6D6D5D00486F6D696E672066656564D7
:1011700072617465205B6D6D2F735D004D61782E1B
:10118000206665656472617465205B6D6D2F735DAB
:1011900000537465707320706572206D6D00547219
:1011A0006176656C20616363656C65726174696FFB
:1011B0006E205B6D6D2F735E325D00416363656C05
:1011C00065726174696F6E205B6D6D2F735E325D49
:1011D000004D61782E206A65726B205B6D6D2F73F8
:1011E0005D005A206D6178206C656E677468205BC5
:1011F0006D6D5D0059206D6178206C656E67746857
:10120000205B6D6D5D0058206D6178206C656E67A8
:101210007468205B6D6D5D005A20686F6D6520708D
:101220006F73205B6D6D5D005920686F6D65207078
:101230006F73205B6D6D5D005820686F6D65207069
:101240006F73205B6D6D5D0053746F7020737465F8
:101250007070657220616674657220696E61637476
:101260006976697479205B6D732C303D6F66665DBD
:10127000004D61782E20696E616374697665207413
:10128000696D65205B6D732C303D6F66665D005047
:1012900072696E74657220616374697665205B7330
:1012A0005D0046696C616D656E74207072696E7464
:1012B0006564205B6D5D00416476616E63656420EA
:1012C00055736572004261756472617465004550C2
:1012D000523A3320004550523A3220004550523A9B
:1012E0003120004550523A30200050726F746F63C5
:1012F0006F6C2076657273696F6E206368616E67CC
:1013000065642C20757067726164696E6700436F55
:101310006E66696775726174696F6E207265736558
:101320007420746F2064656661756C74732E00435D
:101330006F6E66696775726174696F6E206C6F613C
:101340006465642066726F6D20454550524F4D2E86
:1013500000436F6E66696775726174696F6E2073A2
:10136000746F72656420746F20454550524F4D2E46
:10137000004175746F6C6576656C20616374697685
:10138000652028312F3029005A2D70726F62652038
:101390005933005A2D70726F6265205833005A2DF0
:1013A00070726F6265205932005A2D70726F6265DB
:1013B000205832005A2D70726F6265205931005AE0
:1013C0002D70726F6265205831005A2D70726F62F5
:1013D0006520782D792D7370656564205B6D6D2FA8
:1013E000735D005A2D70726F62652073706565645D
:1013F000205B6D6D2F735D005A2D70726F626520DA
:101400006F66667365742079205B6D6D5D005A2D83
:1014100070726F6265206F66667365742078205BFA
:101420006D6D5D004D61782E207A2D70726F626552
:10143000202D2062656420646973742E205B6D6DBD
:101440005D005A2D70726F62652068656967687407
:10145000205B6D6D5D0077616974005072696E7418
:101460006572206865696768743A005A2D70726FFA
:101470006265206661696C6564005472616E7366B2
:101480006F726D6174696F6E206D61747269783A04
:10149000004175746F6C6576656C696E6720646970
:1014A0007361626C6564004175746F6C6576656C20
:1014B000696E6720656E61626C6564004175746F6A
:1014C0006C6576656C206D617472697820726573E5
:1014D000657400004732382F6E47315A32352F6E0F
:1014E000005A2D70726F62652073746174653A00E2
:1014F0005265736574205A20686569676874005A7C
:101500002D70726F62652061766572616765206813
:1015100065696768743A002053746570205661727B
:10152000696174696F6E2066726F6D2050726F62B0
:101530006520746F206265642044697374616E6312
:10154000653A005A2D70726F62653A005072696E8A
:101550007465722073657420696E746F206472798B
:101560002072756E206D6F646520756E74696C20D5
:101570007265737461727421003A20776F726B69BF
:101580006E67003A2074656D702073656E736F72BC
:10159000206465666563740065787472756465724D
:1015A000200068656174656420626564004D54457F
:1015B0004D503A00504944204175746F74756E6502
:1015C0002066696E6973686564202120506C6163D0
:1015D0006520746865204B702C204B6920616E6417
:1015E000204B6420636F6E7374616E747320696E38
:1015F0002074686520436F6E6669677572617469EF
:101600006F6E2E68206F7220454550524F4D00502E
:101610004944204175746F74756E65206661696C0C
:101620006564212074696D656F75740050494420AC
:101630004175746F74756E65206661696C656421AF
:101640002054656D706572617475726520746F20C9
:101650006869676800204B643A2000204B693A2093
:1016600000204B703A200020436C61737369632043
:10167000504944002054753A2000204B753A200010
:10168000206D61783A2000206D696E3A2000206458
:101690003A200020626961733A2000504944204199
:1016A00075746F74756E6520737461727400546123
:1016B000726765744265643A005461726765744587
:1016C000787472004E6F206D6F766520696E2064AD
:1016D000656C7461207365676D656E7420776974DD
:1016E00068203E2031207365676D656E742E20542E
:1016F0006869732073686F756C64206E65766572B7
:101700002068617070656E20616E64206D61792063
:10171000636175736520612070726F626C656D2105
:101720000044656C746120526164697573204328BC
:1017300030293A0044656C746120526164697573A4
:1017400020422830293A0044656C7461205261645B
:1017500069757320412830293A00416C7068612016
:1017600043283930293A00416C706861204228339F
:101770003330293A00416C706861204128323130A1
:10178000293A00546F77657220333A00546F7765B9
:101790007220323A00546F77657220313A00496EF8
:1017A00076616C69642064656C746120636F6F722C
:1017B00064696E617465202D206D6F7665206967A0
:1017C0006E6F726564006C696E656172204C3A00E0
:1017D000454550524F4D2075706461746564002C0E
:1017E0002073706565643D00206C696E65617220D0
:1017F00073746570733A004A65726B3A007A5F6D74
:1018000061783A00795F6D61783A00785F6D617850
:101810003A004C2000482000206973200020746F9B
:101820002000536574206F75747075743A20004DF4
:1018300053312C4D53322050696E730045313A00BC
:1018400045303A005A3A00593A0020002C00206DE9
:10185000696E0020686F757273200020646179736F
:1018600020006D20005072696E74696E6720746983
:101870006D653A005072696E7465642066696C61CA
:101880006D656E743A0046616E73706565643A000A
:10189000482E205261646975733A00466C6F774D2B
:1018A000756C7469706C793A0053706565644D7538
:1018B0006C7469706C793A00202F002F003A002078
:1018C000524157002042403A0020403A0020423A1C
:1018D00000543A0020453A00205A3A0020593A0074
:1018E00020583A00583A00467265652052414D3AF8
:1018F00000556E6B6E6F776E20636F6D6D616E64F9
:101900003A00536F6674776172652052657365742F
:10191000005761746368646F672052657365740073
:1019200042726F776E206F75742052657365740014
:1019300045787465726E616C2052657365740050F1
:101940006F776572557000737461727400424C4B0E
:101950002000736B6970200020676F74200045724F
:10196000726F723A6578706563746564206C696E35
:1019700065200053442072656164206572726F7245
:1019800000205200204A002049002050002053002F
:10199000204600204500205A0020590020580044CD
:1019A0006F6E65207072696E74696E672066696C0F
:1019B0006500466F726D6174206572726F720057B8
:1019C000726F6E6720636865636B73756D00456346
:1019D000686F3A00526573656E643A005761726EC3
:1019E000696E673A00496E666F3A004572726F72AF
:1019F0003A00494E46004E414E006F6B0046495238
:101A00004D574152455F4E414D453A5265706574A0
:101A10006965725F302E39322E32204649524D5759
:101A20004152455F444154453A32303137313032CA
:101A300036204D414348494E455F545950453A4F31
:101A400052494F4E2044656C7461200020646567E4
:101A50002E204300206D656173757265642000451A
:101A600072726F723A436F756C64206E6F74206887
:101A70006F6C642074656D70657261747572652039
:101A800000206D73002061667465722000457272DB
:101A90006F723A54656D702E2072616973656420AF
:101AA000746F20736C6F772E2052697365203D2010
:101AB000004739310A4731452D313830463630300C
:101AC000300A473930004D3131372045787472750E
:101AD00064657220300A54300A4D38342050340A7C
:101AE0004739310A47314531373246363030300ACE
:101AF00047314535463530300A473930001C151C12
:101B0000140000002243141F1F111FBD1E4D1EFD97
:101B10001D000000000000751D691C191C9D1B2183
:101B20001B0400081D900058091C01B007A801C83B
:101B30000634023006C002C0054C036805D80318FD
:101B4000056404D004F00498047C056004080630A1
:101B500004940600042007D003AC07A803380880CB
:101B600003C408580350093003DC090803680AD885
:101B700002F40AB002800B88020C0C6002980C3050
:101B800002240DF801B00DC0013C0E8001C80E30DA
:101B900001540FB800B40F2800E00F00000400400B
:101BA0001D900060091C01B007A801D0063402385E
:101BB00006C002C8054C036805D80318056404D89C
:101BC00004F00498047C05600408063004940600C0
:101BD000042007D003AC07A80338088003C40858C2
:101BE0000350093003DC090803680AE002F40AB86C
:101BF00002800B88020C0C6002980C3002240DF855
:101C000001B00DC0013C0E8001C80E3001540FB868
:101C100000B40F2800E00F000004000016D800C038
:101C200006AC0178058002C004540348042804E887
:101C300003FC049803D0055003A40618037807D8C2
:101C4000024C08A80220097002F4093802C80A08E8
:101C5000029C0BD001700C9001440D5001180EF83D
:101C600000EC0E8800C00F00000400681D4C0050FE
:101C70000B94005809DC0050082401A8076C0128C7
:101C800007B401C006FC017006440228068C02F06D
:101C900005D402B8051C03880564035805AC03305D
:101CA00005F40310053C04E8048404C804CC04A82B
:101CB00004140590045C057004A4055804EC053870
:101CC00004340620047C060804C406F0030C07D87C
:101CD000035407C8039C07B003E40798032C08804B
:101CE0000374087003BC085803040948034C093006
:101CF0000394091803DC090803240AF0026C0AE0C3
:101D000002B40AC802FC0AB002440BA0028C0B8881
:101D100002D40B70021C0C5802640C4002AC0C285C
:101D200002F40C10023C0DF001840DD801CC0DB86A
:101D300001140E98015C0E7001A40E4801EC0E18FF
:101D400001340FD8007C0F8800C40F0800FC0F007E
:101D50000000000000000000000000000000000083
:101D60000000000000000000000000000000000073
:101D700000000000000000401F450060094F0010F7
:101D8000095C00C0086B0070087D0020089200D03C
:101D900007AC008007CC003007DE00E0062301908E
:101DA000065E014006A601F005FF01A0056D025088
:101DB00005F30200059603B0045A046004400510C0
:101DC000044806C0036E077003A8082003EB09D07F
:101DD00002230B8002410C3002390DE001040E9009
:101DE00001A20E4001170FF000690FA000A20F50D2
:101DF00000C60F0000DD0FB0FFEB0F60FF040070A6
:101E00000DD8004804AC0158038002D80254038066
:101E10000228043802FC040002D005C801A4069878
:101E200001780770014C08480120091801F409F0F5
:101E300000C80AC8009C0BA000700C7000440D384C
:101E400000180E0000EC0EA8FFC00FE8FE04000012
:101E50001B54006009640010097400C008840070FD
:101E6000089C002008B800D007D800800700013087
:101E7000072C01E00668019006AC0140060002F064
:101E8000056802A005E0025005740300052404B0B3
:101E900004F0046004DC051004E406C003040870C8
:101EA0000330092003780B8002600DE001A80E408A
:101EB00001680FA000C00F0000E80F60FF04008061
:101EC0001AD8009808AC012007800250065403C8B5
:101ED0000528045805FC040005D005B004A40668D4
:101EE00004780728044C08E8032009B003F40970BB
:101EF00003C80A38039C0BF802700CB002440D684A
:101F000002180E0802EC0E8801C00F8800F00F00C6
:101F1000000000A00F5C006009690010097900C092
:101F2000088C007008A2002008BD00D007DE0080E9
:101F300007050130073401E0066D019006B201404B
:101F4000060702F0056D02A005E80250057B0300BC
:101F5000052B04B004F8046004EB06C00335092027
:101F6000037F0B8002650DE001B00E40011D0FF0F4
:101F700000480FC8006C0FA000ED0F60FFFE0F4877
:101F8000FE00025344206572726F722066697865A4
:101F900064005344206572726F7220646964206E1D
:101FA0006F74207265636F7665722100534420520E
:101FB000656164204572726F7200000000000000CD
:101FC0000000000000000000000024F403D950C30A
:101FD0008EB1C2A23D96828B3582127AE372816CF9
:101FE000CB66A861015DC758EB546151204E1E4B72
:101FF0005648C14559431A41013F093D2F3B7139AC
:10200000CD374036C93465331432D430A32F802EF7
:102010006B2D632C672B752A8E29B028DC2710279F
:102020004B268F25D9242B248223E0224322AC2166
:102030001A218D200420801F001F841E0C1E971D56
:10204000261DB81C4E1CE61B821B201BC11A641ADD
:102050000A1AB2195D190A19B9186A181C18D11789
:1020600088174017FA16B51673163116F115B31501
:1020700076153A150015C7148F1458142214EE1350
:10208000BA13881356132513F612C71299126C123D
:1020900040121512EB11C111981170114811211144
:1020A000FB10D610B1108D106910461024100210CC
:1020B000E10FC00FA00F800F610F420F230F060F1B
:1020C000E80ECB0EAF0E930E770E5C0E410E270E70
:1020D0000D0EF30DDA0DC10DA80D900D780D600DEC
:1020E000490D320D1B0D050DEF0CD90CC30CAE0CB8
:1020F000990C850C700C5C0C480C350C210C0E0CEA
:10210000FB0BE80BD60BC40BB20BA00B8E0B7D0B9D
:102110006B0B5A0B4A0B390B290B180B080BF80ADF
:10212000E90AD90ACA0ABB0AAC0A9D0A8E0A800AC1
:10213000710A630A550A470A390A2C0A1E0A110A4B
:10214000040AF709EA09DD09D009C409B709AB098E
:102150009F09920987097B096F09630958094C098E
:10216000410936092B09200915090A090009F50852
:10217000EB08E008D608CC08C208B808AE08A408E6
:102180009A08900887087D0874086B086108580849
:102190004F0846083D0834082C0823081A0812087E
:1021A00009080108F807F007E807E007D807D00793
:1021B000C807C007B807B007A807A1070000420F6B
:1021C000A1071605D0030D038B022E02E801B20110
:1021D0008601630145012C0117010401F4004F52EF
:1021E000494F4E205265616479004F52494F4E204D
:1021F0005265616479004F52494F4E2052656164C7
:102200007900207A3A0020793A0020783A00696E05
:1022100020717565756544656C74614D6F766520D8
:10222000746F2063616C63756C61746544656C7474
:10223000615375625365676D656E74732072657462
:1022400075726E73206572726F722E00432068691A
:102250007420666C6F6F720043706F732078207308
:102260007175617265200043706F732078207374FC
:10227000657073200043706F7320792073717561EE
:102280007265200043706F732079207374657073DA
:102290002000422068697420666C6F6F7200427083
:1022A0006F73207820737175617265200042706FC2
:1022B000732078207374657073200042706F7320F0
:1022C0007920737175617265200042706F73207997
:1022D0002073746570732000412068697420666CF7
:1022E0006F6F720041706F73207820737175617227
:1022F00065200041706F73207820737465707320BF
:102300000041706F732079207371756172652000D0
:1023100041706F73207920737465707320006D6F46
:10232000766552656C617469766544697374616E33
:102330006365496E5374657073202F2071756575E0
:102340006544656C74614D6F766520726574757255
:102350006E73206572726F72004D617854656D7096
:102360003A004469616D657465723A004163636562
:102370006C65726174696F6E3A004D617853706577
:1023800065643A004A65726B3A004D617842656453
:1023900054656D703A005072696E7465725479704C
:1023A000653A44656C7461005A54726176656C419B
:1023B0006363656C3A005954726176656C4163637E
:1023C000656C3A005854726176656C416363656C64
:1023D0003A005A5072696E74416363656C3A0059F1
:1023E0005072696E74416363656C3A00585072694B
:1023F0006E74416363656C3A005A53697A653A00BA
:102400005953697A653A005853697A653A005A4DCA
:1024100061783A00594D61783A00584D61783A0038
:102420005A4D696E3A00594D696E3A00584D696EC1
:102430003A004A65726B58593A005072696E746C72
:10244000696E6543616368653A00454550524F4D7A
:102450003A004175746F6C6576656C3A005A50723B
:102460006F62653A00436173654C69676874733ADB
:1024700000537570706F72744C6F63616C46696C59
:10248000616D656E746368616E67653A005375705F
:10249000706F72744731304731313A005A486F6D6E
:1024A000654469723A0059486F6D654469723A0033
:1024B00058486F6D654469723A00536F667477616E
:1024C0007265506F7765725377697463683A004C30
:1024D00043443A0046616E3A005344436172643AA1
:1024E000004865617465644265643A004D697869C5
:1024F0006E6745787472756465723A004E756D4505
:10250000787472756465723A00496E7075744275BC
:10251000666665723A0042617564726174653A007C
:102520004E6F2063617365206C6967687473004D3A
:1025300031313420007A70726F62696E672E2E2EF0
:102540000064656C6179203130306D732E00686FE6
:102550006D65417869732000686F6D6541786973B6
:10256000202F20717565756544656C74614D6F76BB
:10257000652072657475726E73206572726F720079
:10258000486F6D652044656C7461005072696E74AB
:1025900065723A3A736574757020006D6F76655494
:1025A0006F5265616C202F20717565756544656C8F
:1025B00074614D6F76652072657475726E732065F7
:1025C00072726F72006D6F7665546F202F20717577
:1025D00065756544656C74614D6F766520726574D0
:1025E00075726E73206572726F72005374657070CD
:1025F00065722044697361626C6564004B696C6C40
:102600006564006973506F736974696F6E416C6CB7
:102610006F776564200055706C6F6164696E672E1A
:102620002E2E00005344207072696E742073746FF4
:102630007070656420627920757365722E00534452
:10264000206361726420696E7365727465640053FF
:1026500044204361726420696E736572746564001E
:10266000534420436172642072656D6F7665640027
:10267000534420636172642072656D6F76656400F7
:1026800000002110422063308440A550C660E770EE
:10269000088129914AA16BB18CC1ADD1CEE1EFF196
:1026A0003112100273325222B5529442F772D6623E
:1026B000399318837BB35AA3BDD39CC3FFF3DEE3E6
:1026C0006224433420040114E664C774A44485548E
:1026D0006AA54BB528850995EEE5CFF5ACC58DD536
:1026E0005336722611163006D776F6669556B446DE
:1026F0005BB77AA719973887DFF7FEE79DD7BCC786
:10270000C448E5588668A77840086118022823382D
:10271000CCC9EDD98EE9AFF9488969990AA92BB9D5
:10272000F55AD44AB77A966A711A500A333A122A7D
:10273000FDDBDCCBBFFB9EEB799B588B3BBB1AAB25
:10274000A66C877CE44CC55C222C033C600C411CCD
:10275000AEED8FFDECCDCDDD2AAD0BBD688D499D75
:10276000977EB66ED55EF44E133E322E511E700E1D
:102770009FFFBEEFDDDFFCCF1BBF3AAF599F788FC5
:102780008891A981CAB1EBA10CD12DC14EF16FE1A5
:102790008010A100C230E3200450254046706760DD
:1027A000B9839893FBA3DAB33DC31CD37FE35EF3F5
:1027B000B1029012F322D23235421452776256722D
:1027C000EAB5CBA5A89589856EF54FE52CD50DC545
:1027D000E234C324A014810466744764245405447D
:1027E000DBA7FAB79987B8975FE77EF71DC73CD795
:1027F000D326F2369106B0165766767615463456CD
:102800004CD96DC90EF92FE9C899E9898AB9ABA9E4
:102810004458654806782768C018E1088238A3281C
:102820007DCB5CDB3FEB1EFBF98BD89BBBAB9ABB34
:10283000754A545A376A167AF10AD01AB32A923A6C
:102840002EFD0FED6CDD4DCDAABD8BADE89DC98D84
:10285000267C076C645C454CA23C832CE01CC10CBC
:102860001FEF3EFF5DCF7CDF9BAFBABFD98FF89FD4
:10287000176E367E554E745E932EB23ED10EF01E0C
:102880007C3C3E5E2B3D3F2F5B5D3B2C2A225C0057
:102890005265717565737450617573653A004D3199
:1028A000313720494E53455254205344204341521E
:1028B00044004D3131372053442043415244204598
:1028C00052524F520055495F414354494F4E5F5356
:1028D00045545F4D454153555245445F4F5249471A
:1028E000494E20004E6F20534420436172640053D0
:1028F000687574204F666620414C4C2048656174B1
:1029000073005072656865617420414253005072D3
:10291000656865617420504C410055495F414354DE
:10292000494F4E5F484F4D455F5A200055495F4122
:102930004354494F4E5F484F4D455F59200055491C
:102940005F414354494F4E5F484F4D455F5820000B
:1029500055495F414354494F4E5F484F4D45414CA7
:102960004C200055495F414354494F4E5F5A504FE8
:10297000534954494F4E5F464153545F4E4F54455F
:102980005354200055495F414354494F4E5F5A50BC
:102990004F534954494F4E5F4E4F544553542000B6
:1029A00055495F414354494F4E5F45504F53495439
:1029B000494F4E200055495F414354494F4E5F5A9D
:1029C000504F534954494F4E5F4641535420005590
:1029D000495F414354494F4E5F59504F5349544901
:1029E0004F4E5F46415354200055495F414354497F
:1029F0004F4E5F58504F534954494F4E5F464153D5
:102A000054200055495F414354494F4E5F5A504F3F
:102A1000534954494F4E200055495F414354494F53
:102A20004E5F59504F534954494F4E200055495F0E
:102A3000414354494F4E5F58504F534954494F4EAC
:102A4000200042616E6742616E6700536C6F77428F
:102A5000616E6700446561642054696D650050498A
:102A60004400003A0020646179732000506572636D
:102A7000656E74205072696E7465643A00206465F6
:102A8000662000465720446174652032303137316A
:102A9000303236004F52494F4E2044656C7461000D
:102AA0005365654D65434E43004F52494F4E204498
:102AB000656C7461004F3705379B363E3641637451
:102AC000696F6E3A256C6100040003004E6F005977
:102AD0006573004E2F41004F6666004F6E00000088
:102AE000003FCDCC4C3D0AD7A33B6F12033A526551
:102AF000706574696572207620302E39322E32006E
:102B0000004014548025000040380000004B0000B5
:102B10008070000000960000C0DA000000E10000B4
:102B2000002C010008B2010000C2010000F4010005
:102B30000084030090D0030000E8030000080700B1
:102B400020A1070000100E0040420F0060E31600B5
:102B500000000000110A0411040A1111001C1F11C9
:102B6000111F0000040A0A0A0E1F1F0E001F111178
:102B7000111F0000001F1F1F1F1F0000040A040078
:102B800000000000040E15041C00000002000006F6
:102B900000932BC533F92B7A30CC2BCD303B2C0254
:102BA00000000700A62BC533B42B7A30CC2BCD30D8
:102BB0000530E02BBB2B027B3100005072696E7434
:102BC00065722053657474696E677300D32B026954
:102BD00032000041646A7573742054656D7073002F
:102BE000E72B02112C0000416476616E636564205E
:102BF00053657474696E677300002C029431000091
:102C00005072696E7465722053657474696E67736F
:102C1000000200000900182CC533262D122D022DAC
:102C2000F22C2A2CDB2CC32C3B2C312C02A82F009D
:102C300000446562756767696E6700422C02A632C0
:102C4000000043616C6962726174696F6E204D654A
:102C50006E750003102702005A2C652C5E2C6C2C1C
:102C600000000000007D2C00000000006C6F61641B
:102C7000656420662E20454550524F4D00436F6ECF
:102C800066696775726174696F6E000310270200D0
:102C9000922C9D2C962CA42C0000000000B52C003A
:102CA0000000000073746F72656420696E204545F2
:102CB00050524F4D00436F6E66696775726174695B
:102CC0006F6E00CA2C03070400004C6F616420661D
:102CD000726F6D20454550524F4D00E22C030604A3
:102CE000000053746F726520746F20454550524F39
:102CF0004D00F92C02352D0000457874727564651D
:102D00007200092D023C2F000046656564726174F3
:102D10006500192D02682F0000416363656C6572C0
:102D20006174696F6E002D2D02882E000047656E5C
:102D30006572616C0002000010003C2DC533742EDA
:102D4000602E4E2E3D2E282EF92D112EE22DCF2D48
:102D5000BB2DAA2D992D842D6F2D5C2D632D042F55
:102D6000040000504944204D61783A2558440076CB
:102D70002D04260400004472697665204D61783A7E
:102D800025584D008B2D042504000044726976659A
:102D9000204D696E3A25586D00A02D0424040000D2
:102DA00050494420443A25586400B12D04230400BE
:102DB0000050494420493A25586900C22D04220494
:102DC000000044542F50494420503A25587000D6F2
:102DD0002D042D040000436F6E74726F6C3A2558F9
:102DE0006800E92D0446040000416476616E636565
:102DF000206C696E3A25586C00002E044D040000CA
:102E00005761697420556E6974733A2558556D6D14
:102E100000182E044C040000576169742054656D3D
:102E2000702E2558540243002F2E042E0400005308
:102E30007461622E54696D653A25587700442E04FA
:102E40002A040000416363656C3A25584100552E01
:102E5000042B0400004D61782046523A2558460064
:102E6000672E042C04000053746172742046523A99
:102E7000255866007B2E0429040000537465707386
:102E80002F4D4D3A2553650002000004008F2EC5DA
:102E900033C42EAC2E972E9E2E02D82E00004D61EC
:102EA000782E20496E61637469766500B32E020A3C
:102EB0002F00005374657070657220496E616374F1
:102EC00069766500CB2E04100400004261756472BF
:102ED0006174653A256F63000358040200DF2EEA2F
:102EE0002EE32EF12E0000000000FB2E000000005B
:102EF000005B735D20303D4F6666004469732E2091
:102F000041667465723A256970000320040200115D
:102F10002F1C2F152F232F00000000002D2F000045
:102F20000000005B735D20303D4F666600446973AE
:102F30002E2041667465723A256973000200000311
:102F400000432FC533592F492F502F04130400007D
:102F5000486F6D653A25665A00602F04160400001C
:102F60004D61783A25667A0002000004006F2FC593
:102F700033972F872F772F7E2F040E0400004A658A
:102F8000726B3A25616A008E2F040D0400004D6FAC
:102F900076653A25615A009E2F040A04000050729B
:102FA000696E743A25617A000200000500AF2FC5F2
:102FB00033F22FDF2FCC2FB92FC02F0335040000A1
:102FC0004472792072756E3A25646400D32F0334FD
:102FD0000400004572726F7273203A25646500E642
:102FE0002F0333040000496E666F2020203A2564C9
:102FF0006900F92F03320400004563686F20202028
:103000003A25646F000C300219300000534420430D
:10301000617264204D656E7500020000060020306C
:10302000C5337A30673051303F302C30333003F4C1
:1030300003010244656C6574652066696C65004631
:1030400030029930020053746F70205072696E74B0
:1030500000583003F7030400436F6E74696E7565A2
:10306000205072696E74006E3003F60302045061E2
:10307000757365205072696E7400813003F5030129
:103080000253656C6563742053442046696C650087
:1030900001000001009730C5330200000300A0309A
:1030A000BB30B130A630AD300354240200596573F3
:1030B00000B83003E80300004E6F00C2300100008A
:1030C000000053746F70205072696E7400D4300227
:1030D000E530000041646A7573742046616E2073A8
:1030E00070656564000200000700EC30C533633191
:1030F0004F313A3125311031FA300131031E0400CD
:10310000005365742046616E20313030252525003E
:103110001731031D0400005365742046616E20378B
:1031200035252525002C31031C040000536574202F
:1031300046616E203530252525004131031B0400F2
:10314000005365742046616E2032352525250056D2
:1031500031031A0408005475726E2046616E204FC8
:103160006666006A31045204000046616E20737086
:103170006565643A254673252525000200000A008E
:103180008231C533E031C7313E322B321132B13397
:10319000F93151320200000A009B31C533E031C7DA
:1031A000313E322B321132B133AF31F9315132B6B7
:1031B0003103B20F0000556E6C6F636B2046756C67
:1031C0006C204D656E7500CE310448040000466CDD
:1031D0006F772020526174653A256F66252525009A
:1031E000E731041F04000053706565642052617468
:1031F000653A256F6D252525000032034204001035
:1032000044697361626C6520537465707065727394
:10321000001832033804000053687574204F666646
:1032200020414C4C204865617473003232034704DE
:103230000000507265686561742041425300453258
:1032400003370400005072656865617420504C417A
:10325000005832033604000041545820706F7765DF
:1032600072206F6E2F6F66660002000004007032DD
:10327000C5338E3276327D32043C04000042454430
:103280002054656D703A2020254562024300953236
:10329000043D0400004E4F5A2054656D703A2020C2
:1032A0002545300243000200000600AD32C533E37D
:1032B00032B932B1337B33CF32C032042104000043
:1032C000482E20526164697573203A256F6800D6D4
:1032D0003203AC0F0000536574205A204F726967A7
:1032E000696E00EA3202FB32000046756C6C2043C6
:1032F000616C6962726174696F6E000200000400A3
:103300000233C533383323330A33113303B10F008B
:1033100000426567696E2043616C6962726174691D
:103320006F6E002A3303B50F00004245442041521E
:103330004520434C45414E003F3303B40F00004D40
:10334000414B452053555245204E4F5A5A4C45202B
:10335000260002000006005933C533B1339F338D78
:10336000337B3365336C3302DE330000457874728F
:103370002E20706F736974696F6E008233023F355F
:1033800000005A20506F736974696F6E00943302A5
:10339000943500005920506F736974696F6E00A6F0
:1033A0003302E93500005820506F736974696F6EFD
:1033B00000B83303FD030000486F6D65205072694B
:1033C0006E74657200CC3303E803000050726576BA
:1033D000696F75732053637265656E20010003F099
:1033E000030400E5330234FB33F433ED33093400D6
:1033F0000000000017340000000000283400000026
:10340000000037340000000000255566206D207054
:1034100072696E7465640020453A2565632F254501
:103420006302437E256F43003120636C69636B2028
:103430003D2031206D6D00453A257833206D6D00BB
:1034400003FC030400473464345D3456344F346B5A
:103450003400000000006C3400000000007C3400E8
:10346000000000008C340000000000004D61782056
:10347000656E6473746F703A25735A004D696E20DF
:10348000656E6473746F703A25737A005A3A2578C2
:1034900032206D6D0003FB0304009C34B934B23458
:1034A000AB34A434C0340000000000C1340000007C
:1034B0000000D1340000000000E1340000000000F2
:1034C000004D617820656E6473746F703A2573598E
:1034D000004D696E20656E6473746F703A25737960
:1034E00000593A257831206D6D0003FA030400F18C
:1034F000340E3507350035F934153500000000006D
:1035000016350000000000263500000000003635AA
:103510000000000000004D617820656E6473746FD8
:10352000703A257358004D696E20656E6473746F30
:10353000703A25737800583A257830206D6D000375
:10354000EF030400463563355C3555354E356A3535
:1035500000000000006B3500000000007B3500001B
:103560000000008B350000000000004D61782065F0
:103570006E6473746F703A25735A004D696E2065DE
:103580006E6473746F703A25737A005A3A257832F4
:10359000206D6D0003EE0304009B35B835B135AAEC
:1035A00035A335BF350000000000C0350000000025
:1035B00000D0350000000000E035000000000000F1
:1035C0004D617820656E6473746F703A257359008D
:1035D0004D696E20656E6473746F703A257379005F
:1035E000593A257831206D6D0003ED030400F03564
:1035F0000D360636FF35F83514360000000000158C
:1036000036000000000025360000000000353600BE
:1036100000000000004D617820656E6473746F7067
:103620003A257358004D696E20656E6473746F702F
:103630003A25737800583A257830206D6D000000E7
:10364000000400453662365B3654364D3669360026
:10365000000000006F36000000000083360000000C
:10366000000087360000000000255566206D0054DC
:103670006F74616C2046696C616D656E7420557362
:1036800065640025557400546F74616C2050726934
:103690006E74696E672054696D6500000000040057
:1036A000A236BF36B836B136AA36C636000000009C
:1036B00000D2360000000000E0360000000000F2FA
:1036C0003600000000004F52494F4E2044656C7494
:1036D00061005072696E746572204D6F64656C0094
:1036E000465720446174653A2032303137313032E8
:1036F000360046572056657273696F6E3A20302E39
:1037000039322E320000000004000C3729372237EE
:103710001B3714373037000000000034370000003A
:1037200000003D37000000000046370000000000A8
:10373000256F73005A3A257832206D6D00593A256D
:103740007831206D6D00583A257830206D6D00007D
:1037500000000400563773376C3765375E377A37A9
:1037600000000000007E37000000000097370000D6
:10377000000000AA370000000000256F730053709E
:103780006565643A256F6D25252520466C6F773A6F
:10379000256F66252525004245443A25656220545B
:1037A00061726765743A254562004E4F5A3A256545
:1037B00063205461726765743A2545630000000018
:1037C0000000000000000000FF0000010000000AEF
:1037D0000B02090C0D0E0807030401000000000095
:1037E00000000000000000000000000000000000D9
:1037F0000000000000000000001211100000000096
:1038000000000000000000000000000000000000B8
:103810000000000102102020080810204010204065
:103820008002010201080402010102040810204084
:1038300080804020100804020180040201804020A2
:1038400010080402010804020101020408102040CB
:1038500080010204081020408005050505070508C1
:10386000080808020202020A0A0808040404040103
:103870000101010101010103030303030303030425
:103880000707070C0C0C0C0C0C0C0C0202020206B5
:10389000060606060606060B0B0B0B0B0B0B0B00A6
:1038A0000020002300260029002C002F00320000F9
:1038B0000100000301060109010000220025002883
:1038C000002B002E00310034000201000005010829
:1038D000010B0100002100240027002A002D0030E8
:1038E00000330001010000040107010A01024E41FA
:1038F0004E494E495459494E46CDCCCC3D0AD7236A
:103900003C17B7D13877CC2B329595E6241FB14FB1
:103910000A000020410000C84200401C4620BCBEF6
:103920004CCA1B0E5AAEC59D74008279D8B3BBBE7B
:10393000E7FF11241FBECFEFD1E2DEBFCDBF00E015
:103940000CBF13E0A0E0B2E0E6EEF2E202E00BBF53
:1039500002C007900D92A638B107D9F72EE1A6E86C
:10396000B3E001C01D92AE37B207E1F719E3C2E33D
:10397000D9E300E006C022970109FE010BBF0F94B6
:10398000EC0CCA32D10780E00807A9F70F94AD0408
:103990000D9471110C940000CF93DF9300D01F920F
:1039A000CDB7DEB744E050E0BC01CE0101960F94E4
:1039B0002D1169817A818B819C810F900F900F90DE
:1039C0000F90DF91CF9108958091F90283FB8827B2
:1039D00080F90895179A0895169A0895159A0895EA
:1039E00088E493E0D9CFCF92DF92EF92FF92CF930A
:1039F000DF9300D01F921F92CDB7DEB76B017C0121
:103A0000609386187093871880938818909389180C
:103A10000E94219CC982DA82EB82FC8244E050E061
:103A200065E773E0CE0101960F944F1123E0B701D3
:103A3000A6018CE595E00E94564E0E94F551682F34
:103A400088E690E06D830F943D116D81681721F039
:103A500088E690E00F9458110F900F900F900F9000
:103A60000F90DF91CF91FF90EF90DF90CF9008956E
:103A7000CF93DF931F92CDB7DEB7BC018DE793E004
:103A80000F946B110E94F551682F88E690E06983CE
:103A90000F943D116981681739F088E690E00F9026
:103AA000DF91CF910D9458110F90DF91CF91089530
:103AB000CF93DF931F92CDB7DEB7BC018FE793E0C2
:103AC0000F946B110E94F551682F88E690E069838E
:103AD0000F943D116981681739F088E690E00F90E6
:103AE000DF91CF910D9458110F90DF91CF910895F0
:103AF000CF93DF931F92CDB7DEB7BC0181E893E08F
:103B00000F946B110E94F551682F88E690E069834D
:103B10000F943D116981681739F088E690E00F90A5
:103B2000DF91CF910D9458110F90DF91CF910895AF
:103B3000CF93C82F80919C048823D1F010929C04CD
:103B40000E9494689091DF0291509093DF0291114E
:103B500009C08091E002833010F40E94216885E062
:103B60008093DF026C2F88EC9CE1CF910C946EFD6A
:103B7000CF91089580916306882349F00E94827254
:103B800080E0D6DF88EC9CE10E946DFDF3CF0895C4
:103B90004F925F926F927F928F929F92AF92BF925D
:103BA000CF92DF92EF92FF920F931F93CF93DF9309
:103BB00000D01F92CDB7DEB78C0180910019909193
:103BC0000119A0910219B091031989839A83AB83DB
:103BD000BC83C0900419D0900519E0900619F090AC
:103BE00007198090081990900919A0900A19B090AF
:103BF0000B199C01AD01BC01CD010F941E0C81116C
:103C00000FC149805A806B807C80E89477F82FEF51
:103C10003FEF4FE75FE7C301B2010F941E0C811124
:103C20000BC02FEF3FEF4FE75FE7C301B2010F94E7
:103C3000CB0818160CF4F4C0A7019601C701B60111
:103C40000F941E0C8111ECC026013701E89477F81F
:103C50002FEF3FEF4FE75FE7C301B2010F941E0C58
:103C600081110BC02FEF3FEF4FE75FE7C301B201B8
:103C70000F94CB0818160CF4D3C0A5019401C5010C
:103C8000B4010F941E0C8111CBC024013501E894BE
:103C900077F82FEF3FEF4FE75FE7C301B2010F94D3
:103CA0001E0C81110BC02FEF3FEF4FE75FE7C30101
:103CB000B2010F94CB0818160CF4B2C02091D8189A
:103CC0003091D9184091DA185091DB1869817A81C6
:103CD0008B819C810F9467082B013C012091DC189B
:103CE0003091DD184091DE185091DF18C701B60100
:103CF0000F9467086B017C012091E0183091E11866
:103D00004091E2185091E318C501B4010F9467087F
:103D10004B015C0180916019882329F020E732E48F
:103D200041E25DE304C020E030E040E85FE3C3012E
:103D3000B2010F94730BAB01BC0122E084EE98E159
:103D40000E94934E80916019882329F020E732E485
:103D500041E25DE304C020E030E040E85FE3C701FA
:103D6000B6010F94730BAB01BC0122E08CED98E11E
:103D70000E94934E80916019882329F020E732E455
:103D800041E25DE304C020E030E040E85FE3C501CC
:103D9000B4010F94730BAB01BC0123E088ED98E1F3
:103DA0000E94934E609118197091191980911A19F7
:103DB00090911B190F949E0920915C1930915D1907
:103DC00040915E1950915F190F94730B2091601907
:103DD000222329F020E732E441E25DE304C020E041
:103DE00030E040E85FE30F94730BAB01BC0124E0CB
:103DF00084ED98E10F900F900F900F90DF91CF918D
:103E00001F910F91FF90EF90DF90CF90BF90AF90F8
:103E10009F908F907F906F905F904F900C94564E34
:103E2000C8010E947C4C4ACFCF92DF92EF92FF9262
:103E3000CF93DF93EC01893191053CF0C53F81E0E0
:103E4000D8072CF0C4EFD1E002C0C9E1D0E0BE0138
:103E5000882777FD8095982F0F949E096B017C0130
:103E60006091101870911118882777FD8095982F10
:103E70000F949E099B01AC01C701B6010F94D208B3
:103E80009B01AC0160911218709113188091141865
:103E9000909115180F94730B609312187093131868
:103EA0008093141890931518D0931118C09310187C
:103EB000BE0189EA98E1DF91CF91FF90EF90DF900A
:103EC000CF900C943E4DCF92DF92EF92FF926B0118
:103ED0007C0120E030E040E752E40F94CB0887FDFE
:103EE00011C020E030E046E153E4C701B6010F9471
:103EF000FF0A18166CF4C12CD12C86E1E82E83E45D
:103F0000F82E06C0C12CD12C90E7E92E92E4F92EB0
:103F1000C0928618D0928718E0928818F09289187B
:103F200022E0B701A60180E998E1FF90EF90DF90D1
:103F3000CF900C94564E8F929F92AF92BF92CF9299
:103F4000DF92EF92FF92CF93DF93EC0189319105DD
:103F500034F0893C91052CF0C8ECD0E002C0C9E1F6
:103F6000D0E0D0930F18C0930E18E0918603F09123
:103F70008703E258FF4FC080D180E280F38020E0C9
:103F800030E0A901C701B6010F94CB08AE01662746
:103F900057FD6095762F18165CF0CB01BA010F948F
:103FA0009E092AE037ED43E25CE30F94730B24C0D3
:103FB000CB01BA010F949E092AE037ED43E25CE39E
:103FC0000F94730B20E030E040E850E40F94730B43
:103FD0004B015C01A7019601C701B6010F94730B59
:103FE0002BED3FE049E450E40F94730B9B01AC01CF
:103FF000C501B4010F94D2086093F4027093F502E6
:104000008093F6029093F702BE018BE998E1DF916D
:10401000CF91FF90EF90DF90CF90BF90AF909F90A7
:104020008F900C943E4DCF93DF932091D41897FD41
:104030000DC0EC018F3F910519F014F0CFEFD0E0E7
:10404000209721F028602093D41805C0277F209363
:10405000D418C0E0D0E061118DDD8091BC1790E0F4
:10406000C817D90729F0BE0186E898E10E943E4DA5
:10407000C093BC17DF91CF9108954F925F926F92DA
:104080007F928F929F92AF92BF92CF92DF92EF92E8
:10409000FF92CF93DF9300D01F92CDB7DEB72FE60C
:1040A00032E143E85AE36091F8177091F917809173
:1040B000FA179091FB170F94730B6B017C0181E849
:1040C00090E06ADC9B01AC01C701B6010F94670860
:1040D000AB01BC0122E084E798E10E94934E82E6A6
:1040E00098E10E94434CE0910A02F0910B0220E01B
:1040F00030E040E751E463857485858596850F94AB
:10410000FF0A18160CF46BC020E030E0A9018DE71F
:1041100090E029833A834B835C830F9445114B01D4
:104120005C0129813A814B815C81820E931EA41E21
:10413000B51EC501B40120E831E541E050E00F941F
:104140009F0C60E87EEA8EEF9FEF0F943A0C6B01B4
:104150007C01C80CD91CEA1CFB1CBA01A90185E62C
:1041600098E10E94644DC701B60120E13EE040E0C5
:1041700050E00F949F0C49015A01BA01A9018BE547
:1041800098E10E94644DA0EFB1EFA50194010F9456
:10419000E80C6C0D7D1D8E1D9F1D2CE330E040E072
:1041A00050E00F949F0CBA01A90183E598E10E94A9
:1041B000644D8EE498E10F900F900F900F90DF9177
:1041C000CF91FF90EF90DF90CF90BF90AF909F90F6
:1041D0008F907F906F905F904F900C945B4C0F94FA
:1041E0003E02C090FC17D090FD17E090FE17F090B3
:1041F000FF176C197D098E099F0928EE33E040E016
:1042000050E00F947D0C83CF811102C08EE207C075
:10421000813011F48DE203C0823019F48CE20D94E8
:10422000FE020895EAE0F1E0808188608083808169
:10423000806180838081806280836CE370E08EE2A5
:104240000F94FE026CE370E08DE20F94FE0262E8D0
:1042500070E08CE20F94FE02E1E2F1E08081887F61
:1042600081608083089567FD43C08230E9F028F4BF
:10427000882341F0813061F03BC0833009F1843004
:1042800059F136C0662311F0A19A69C0A19867C0A0
:1042900080910801662311F0806801C08F778093B8
:1042A000080147FF3AC05FC080910801662311F002
:1042B000806401C08F7B8093080147FF34C055C0E4
:1042C00080910801662311F0886001C0877F809388
:1042D000080147FF32C046C080910501662311F0F6
:1042E000806401C08F7B8093050147FF2EC03CC0D6
:1042F00047FD3BC08230B9F028F4882341F081307B
:1043000061F008958330C9F08430F9F008954423B2
:1043100011F0A09A0895A0980895442311F0A29A4C
:104320000895A298089580910801442311F08062B5
:1043300001C08F7D80930801089580910801442376
:1043400011F08061F7CF8F7EF5CF80910501442376
:1043500011F0806401C08F7B80930501089547FFB1
:10436000D6CF08950895089508950895643079F09A
:1043700028F4613041F0623041F00895683051F026
:10438000603141F0089540E003C040E004C041E0E6
:1043900060E002C041E061E066CFCF93DF938FE23F
:1043A00098E10E945B4C62B36695617070E084EEA8
:1043B00098E10E94324D62B3617070E08CE498E144
:1043C0000E943E4DC6E0D1E08881992787FD9095F7
:1043D000692F661F6627661F70E087E498E10E94D8
:1043E000324D62B362FB662760F970E08CE498E1BD
:1043F0000E943E4D688166FB662760F970E084E4A8
:1044000098E10E94324D688165FB662760F970E093
:104410008CE498E10E943E4D688163FB662760F959
:1044200070E080E498E10E94324D6881629561708D
:1044300070E08CE498E10E943E4DC3E0D1E06881D9
:1044400066FB662760F970E08CE398E10E94324DCC
:10445000688166FB662760F970E08CE498E1DF9183
:10446000CF910C943E4DFF920F931F93CF93DF9308
:1044700000D01F921F92CDB7DEB785E0E7E4F3E0EE
:10448000DE01119601900D928A95E1F7989A9A9A19
:10449000809107018062809307018091070180610C
:1044A00080930701809104018064809304018E0150
:1044B0000F5F1F4FF12CF80161918F018F2D56DF97
:1044C000F394F5E0FF12F7CF0F900F900F900F903D
:1044D0000F90DF91CF911F910F91FF9008950C9451
:1044E00053760E943E76209108023091090282178D
:1044F000930724F490930902809308020895609131
:1045000008027091090280910602909107026817D3
:10451000790744F4709307026093060287EE98E1EE
:104520000C943E4D0895CF93C82F69E170E085E863
:104530009DE10E94D2FF6C2F85E89DE10E9473FFF0
:1045400060E085E89DE10E94D3FF882329F081E89F
:104550009CE0CF910C945B4CCF910895CF93DF9367
:10456000D82FC62F69E170E085E89DE10E94D2FF57
:104570006D2F85E89DE10E9473FF6C2F85E89DE11A
:104580000E9473FF85E89DE10E94E5FF882331F0DA
:1045900082E69CE0DF91CF910C945B4CDF91CF9150
:1045A00008951F93CF93DF93182FBDDF41E050E0B4
:1045B00069E170E085E89DE10E94C6FF85E89DE124
:1045C0000E941CFF892BA1F085E89DE10E9424FF39
:1045D000EC01612F70E088E59CE00E94324DBE0145
:1045E00077278FE49CE0DF91CF911F910C943E4D93
:1045F00081E39CE0DF91CF911F910C945B4C8CE0A8
:104600009CE00E945B4C85E89DE10E94B1FF8FE039
:10461000C8DF81E3C6DF80E2C4DF6CE980E29EDFB1
:1046200080E2BFDF82E2BDDF60E482E297DF82E208
:10463000B8DF85E2B6DF60E085E290DF85E2B1DFDA
:1046400083E2AFDF60E383E289DF83E2AADF84E213
:10465000A8DF6AE484E282DF84E2A3DF80E3A1DFF3
:1046600060E280E37BDF80E39CDF81E39ADF82E32B
:1046700098DF64E182E372DF82E393DF83E391DF1B
:1046800060E083E36BDF83E38CDF84E38ADF60E059
:1046900084E364DF84E385DF86E383DF62E386E32C
:1046A0005DDF86E37EDF87E37CDF60E087E356DF64
:1046B00087E377DF88E375DF60E188E34FDF88E336
:1046C00070DF89E36EDF8AE36CDF62E38AE346DF53
:1046D0008AE367CF81E365DF85E363DF89E361DF39
:1046E0008DE25FCF6DE081E795E00E94F2746AE0B1
:1046F00081E795E00C94F274CF93C82FE091860384
:10470000F091870342A953A964A975A922E081ED1C
:1047100098E10E94934EE0918603F091870346A9A9
:1047200057A960AD71AD20E088EB98E10E94934EEF
:104730000E942560AB01BC0122E08DEC98E10E9453
:10474000934E4091190250911A0260911B02709190
:104750001C0220E088EB98E10E94934ECC2391F05C
:1047600061E070E08FEB98E10E94324D6CEF7FE0EA
:104770008091110290911202681B790B8DEB98E1E8
:104780000E94324DE0910E02F0E0E754F84E608155
:1047900070E084EC98E10E94324DE091DE02EF3F40
:1047A00029F4E0918603F0918703E081F0E0E7547B
:1047B000F84E608170E089EC98E10E94324DCF9113
:1047C00091CF2F923F924F925F926F927F928F92F2
:1047D0009F92AF92BF92CF92DF92EF92FF920F9390
:1047E0001F93CF93DF93CDB7DEB729970FB6F89419
:1047F000DEBF0FBECDBF5C01DC0116968D919C9192
:1048000017978C38910509F48AC608F0E7C08235FD
:10481000910509F42FC408F08AC08A31910509F482
:10482000D1C208F03FC08531910509F449C278F43E
:104830008231910509F423C28431910509F424C21F
:10484000419711F00C94E03417981698D0C5873131
:10485000910509F46DC208F44FC28831910509F43D
:1048600095C2499711F00C94E03460E085E699E137
:1048700029960FB6F894DEBF0FBECDBFDF91CF9162
:104880001F910F91FF90EF90DF90CF90BF90AF906E
:104890009F908F907F906F905F904F903F902F9060
:1048A0000C9485BA8E31910509F4E9C218F58C3162
:1048B000910509F4BCC210F00C94193585E699E114
:1048C00029960FB6F894DEBF0FBECDBFDF91CF9112
:1048D0001F910F91FF90EF90DF90CF90BF90AF901E
:1048E0009F908F907F906F905F904F903F902F9010
:1048F0000C94D5BD8A32910509F41BC328F4809726
:1049000009F4EAC20C94E0348035910509F49DC3A2
:104910008135910511F00C94E0342CD99B9A80914B
:10492000D6188F7B8093D618A39A0C9419358B36A2
:10493000910511F40C94122E38F58C35910509F47B
:10494000A4C460F48435910509F49DC308F496C3AA
:104950008535910509F475C40C94E03488369105C9
:1049600009F448C530F48336910509F4F2C40C9477
:10497000E0348936910509F425C68A36910511F48B
:104980000C94012E0C94E0348337910511F40C94AF
:10499000632E80F48F36910511F40C94332E8237F8
:1049A000910511F40C94812E8D36910511F00C9423
:1049B000E0342AC68537910511F40C94842E10F446
:1049C0000C948B2D8737910511F40C94AF2E8837FA
:1049D000910511F40C94F22E0C94E0348530B1E082
:1049E0009B0711F40C94003208F0B0C08F3C910585
:1049F00011F40C949A3008F041C08A3C910511F4EE
:104A00000C94C92F70F4883C910511F40C94182F64
:104A100010F00C946B2F8E3B910509F4CBC70C94CE
:104A2000E0348C3C910511F40C94203010F40C947B
:104A30000E308D3C910511F40C9480308E3C910524
:104A400011F00C94E034C50129960FB6F894DEBF3E
:104A50000FBECDBFDF91CF911F910F91FF90EF90CF
:104A6000DF90CF90BF90AF909F908F907F906F908E
:104A70005F904F903F902F900C9494588F3D9105EC
:104A800011F40C94553188F48C3D910511F40C947B
:104A900002318D3D910511F40C942A31813D91052F
:104AA00011F00C94E0340C94E230893E910511F43D
:104AB0000C946A3140F5883E910511F00C94E03475
:104AC0006091C1177091C21788EE97E10E94324D34
:104AD0004091BD175091BE176091BF177091C017DC
:104AE00022E08FED97E10E94564E1092C21710926D
:104AF000C1171092BD171092BE171092BF171092D7
:104B0000C0170C9419358B3F910511F40C94A33107
:104B10008430914011F00C94E03429960FB6F8944B
:104B2000DEBF0FBECDBFDF91CF911F910F91FF90E0
:104B3000EF90DF90CF90BF90AF909F908F907F903D
:104B40006F905F904F903F902F9059CD8E3521E020
:104B5000920711F40C945833C0F58E3241E094075B
:104B600011F40C94A33298F48931A1E09A0711F45E
:104B70000C9458328C32B1E09B0711F40C946832DB
:104B80008630914011F00C94E0340C942232803441
:104B9000F1E09F0711F40C94163338F48F329140F2
:104BA00011F40C94E2320C94E034813441E0940727
:104BB00011F40C941A338234914011F00C94E034C7
:104BC00080E00E94AAAF0C942F338239A1E09A07AB
:104BD00011F40C94433498F58836E1E09E0711F403
:104BE0000C940F3438F48336914011F40C94C9338B
:104BF0000C94E034803931E0930711F40C9429349B
:104C00008139914011F00C94E03429960FB6F89454
:104C1000DEBF0FBECDBFDF91CF911F910F91FF90EF
:104C2000EF90DF90CF90BF90AF909F908F907F904C
:104C30006F905F904F903F902F900C94CDAD853F3B
:104C400051E0950711F40C94733460F4843F914063
:104C500011F00C94E03480E00E940C5281E593E165
:104C60000C947E34863FE1E09E0711F40C94983456
:104C70008C38934011F40C94B2340C94E0340E94BC
:104C8000EA1C0E94EC1C8CC285E699E129960FB6BD
:104C9000F894DEBF0FBECDBFDF91CF911F910F9172
:104CA000FF90EF90DF90CF90BF90AF909F908F904C
:104CB0007F906F905F904F903F902F900C9419BD14
:104CC00085E699E129960FB6F894DEBF0FBECDBFF9
:104CD000DF91CF911F910F91FF90EF90DF90CF90D8
:104CE000BF90AF909F908F907F906F905F904F900C
:104CF0003F902F900C9407BA85E699E129960FB65C
:104D0000F894DEBF0FBECDBFDF91CF911F910F9101
:104D1000FF90EF90DF90CF90BF90AF909F908F90DB
:104D20007F906F905F904F903F902F900C940CBAB3
:104D3000D5018D919C9197FD02C00C94193560E0CE
:104D400085E699E10E940BC8F501EE5AFF4F60819C
:104D5000718140E085E699E129960FB6F894DEBFAF
:104D60000FBECDBFDF91CF911F910F91FF90EF90BC
:104D7000DF90CF90BF90AF909F908F907F906F907B
:104D80005F904F903F902F900C944CBD85E699E139
:104D900029960FB6F894DEBF0FBECDBFDF91CF913D
:104DA0001F910F91FF90EF90DF90CF90BF90AF9049
:104DB0009F908F907F906F905F904F903F902F903B
:104DC0000C9474BAF5018081918192FD02C00C941B
:104DD0001935468D578D60A171A18091CF19882317
:104DE00011F40C9419354093C6195093C719609368
:104DF000C8197093C91985EA99E129960FB6F894F4
:104E0000DEBF0FBECDBFDF91CF911F910F91FF90FD
:104E1000EF90DF90CF90BF90AF909F908F907F905A
:104E20006F905F904F903F902F900C9451C6D5019A
:104E30008D919C9197FD02C00C941935F501EE5AA5
:104E4000FF4F6081718185E699E129960FB6F8944C
:104E5000DEBF0FBECDBFDF91CF911F910F91FF90AD
:104E6000EF90DF90CF90BF90AF909F908F907F900A
:104E70006F905F904F903F902F900C94F9BDF5018B
:104E80008081918197FD02C00C94193560E085E620
:104E900099E10E940BC8F501EE5AFF4F60817181C4
:104EA00085E699E129960FB6F894DEBF0FBECDBF17
:104EB000DF91CF911F910F91FF90EF90DF90CF90F6
:104EC000BF90AF909F908F907F906F905F904F902A
:104ED0003F902F900C945ABED5018D919C9197FDD7
:104EE00002C00C94193560E085E699E10E940BC878
:104EF000F501EE5AFF4F6081718185E699E12996AF
:104F00000FB6F894DEBF0FBECDBFDF91CF911F91DA
:104F10000F91FF90EF90DF90CF90BF90AF909F9058
:104F20008F907F906F905F904F903F902F900C9458
:104F300088BEF5012081318133FD02C00C94193502
:104F400012A1E12EF3A0EFE9FCE0449150E04E15F0
:104F50005F0509F45EC032964DE0E331F407A9F72E
:104F6000F7FC57C032FF2CC0D5015E964D915D9184
:104F70006D917C9191974F3F51056105710509F045
:104F8000E0F461E0812F0F941604F501668D812F06
:104F90000F944F04D5015E966D917C915F97812FA0
:104FA0000F94FE02B70182E298E10E94324DF501B2
:104FB000668D778D8DE198E112C083EF94E02BC070
:104FC00062E0812F0F941604B7018DE198E10E94F1
:104FD000324D812F0F948404BC0188E198E1299619
:104FE0000FB6F894DEBF0FBECDBFDF91CF911F91FA
:104FF0000F91FF90EF90DF90CF90BF90AF909F9078
:105000008F907F906F905F904F903F902F900C9477
:105010003E4D8DEB94E029960FB6F894DEBF0FBE9F
:10502000CDBFDF91CF911F910F91FF90EF90DF9057
:10503000CF90BF90AF909F908F907F906F905F9038
:105040004F903F902F900C947C4C0E94BA1D0F946F
:105050003E026093C3177093C4178093C517909353
:10506000C6179B9A8091D61880648093D618A3980F
:105070000C94193510921C190C94193581E0809309
:105080001C190C941935D5018D919C91119792FFA3
:1050900014C05E962D913D914D915C919197A8EE33
:1050A000B3E00F94DC0C6093E8027093E902809304
:1050B000EA029093EB020C94193593FFA5C0F50119
:1050C00082A193A1A4A1B5A182309105A105B1054A
:1050D00009F466C02CF50097A105B10509F446C096
:1050E0000197A105B10511F00C94193529960FB659
:1050F000F894DEBF0FBECDBFDF91CF911F910F910E
:10510000FF90EF90DF90CF90BF90AF909F908F90E7
:105110007F906F905F904F903F902F900C94EC1C7D
:1051200083309105A105B10509F454C00497A10588
:10513000B10511F00C94193529960FB6F894DEBF1D
:105140000FBECDBFDF91CF911F910F91FF90EF90D8
:10515000DF90CF90BF90AF909F908F907F906F9097
:105160005F904F903F902F900C943C6029960FB623
:10517000F894DEBF0FBECDBFDF91CF911F910F918D
:10518000FF90EF90DF90CF90BF90AF909F908F9067
:105190007F906F905F904F903F902F900C94EA1CFF
:1051A00029960FB6F894DEBF0FBECDBFDF91CF9129
:1051B0001F910F91FF90EF90DF90CF90BF90AF9035
:1051C0009F908F907F906F905F904F903F902F9027
:1051D0000C94EE1C29960FB6F894DEBF0FBECDBF1F
:1051E000DF91CF911F910F91FF90EF90DF90CF90C3
:1051F000BF90AF909F908F907F906F905F904F90F7
:105200003F902F900C942E600E94BA1D81E0299649
:105210000FB6F894DEBF0FBECDBFDF91CF911F91C7
:105220000F91FF90EF90DF90CF90BF90AF909F9045
:105230008F907F906F905F904F903F902F900C9445
:10524000B29BD5018D919C91119792FF14C05E96EF
:105250002D913D914D915C919197A8EEB3E00F9403
:10526000DC0C6093EC027093ED028093EE0290935D
:10527000EF020C9419351092EC021092ED0210928C
:10528000EE021092EF020C941935F501808183FF34
:105290000CC082859385A485B58580933603909351
:1052A0003703A0933803B0933903D5018C9184FF61
:1052B0000EC01E968D919D910D90BC91A02D809356
:1052C0003A0390933B03A0933C03B0933D03F50155
:1052D000808185FF0CC082899389A489B5898093D8
:1052E0003E0390933F03A0934003B09341030E9479
:1052F000219CD5018C9186FD02C00C94193520911A
:1053000086033091870356968D919D910D90BC91A7
:10531000A02DF90181879287A387B4878081299680
:105320000FB6F894DEBF0FBECDBFDF91CF911F91B6
:105330000F91FF90EF90DF90CF90BF90AF909F9034
:105340008F907F906F905F904F903F902F900C9434
:105350006B5ED501ED91FC911197F2FF0DC05E9649
:105360002D913D914D915C919197A8EEB3E00F94F2
:10537000DC0C6B017C0106C040E1C42E47E2D42E58
:10538000E12CF12CE3FD0E94EA1CF501808184FDF3
:105390000E94EC1CD5018C9185FD0E94EE1C0F949F
:1053A0003E022B013C014C0C5D1C6E1C7F1C0F94BB
:1053B0003E02A3019201261B370B480B590BDA0161
:1053C000C901803A9648A140B10518F40E9417A17E
:1053D000EECFD5018C9183FD1798F501808184FD76
:1053E0001698D5018C9185FD02C00C94193515983D
:1053F0000C9419350E94526881110C9419350F9440
:105400003E026093C3177093C4178093C51790939F
:10541000C6170E94E41C81110C941935F501808196
:10542000918193FF02C00C94033592FF0AC0868DD0
:10543000978DA0A1B1A1892B8A2B8B2B11F40C94F1
:105440000335D5018D919C91119792FD02C00C946A
:1054500019359C012227317091FF23C0232B89F03D
:1054600011E020E030E0A9015A966D917D918D9177
:105470009C915D970F94FF0A18160CF010E0212FF5
:1054800001C020E085010C5A1F4FF501668D778D14
:1054900080A191A129870F949E092985D8014C915B
:1054A00024C0232B81F011E020E030E0A901F501B8
:1054B000628D738D848D958D0F94FF0A18160CF0F4
:1054C00010E0212F01C020E0009186031091870396
:1054D000D5015E966D917D918D919C9191972987D3
:1054E0000F949E092985F801408129960FB6F894FA
:1054F000DEBF0FBECDBFDF91CF911F910F91FF9007
:10550000EF90DF90CF90BF90AF909F908F907F9063
:105510006F905F904F903F902F900C94A2630E94E9
:10552000526881110C9419350F943E026093C31791
:105530007093C4178093C5179093C6170E94E41CFC
:1055400081110C941935D5018D919C91119792FD83
:1055500002C00C94193590FF11C011E020E030E03A
:10556000A9015A966D917D918D919C915D970F94B3
:10557000FF0A18160CF010E0412F01C040E0F501C1
:10558000668D778D80A191A149870F949E094985E9
:1055900029960FB6F894DEBF0FBECDBFDF91CF9135
:1055A0001F910F91FF90EF90DF90CF90BF90AF9041
:1055B0009F908F907F906F905F904F903F902F9033
:1055C0000C946B64D5018D919C9133E096958795F1
:1055D0003A95E1F7817029960FB6F894DEBF0FBEB9
:1055E000CDBFDF91CF911F910F91FF90EF90DF9092
:1055F000CF90BF90AF909F908F907F906F905F9073
:105600004F903F902F9078C80E94526881110C945F
:1056100019350F943E026093C3177093C41780939B
:10562000C5179093C6170E94E41C81110C9419357C
:1056300040E06CEA74E088EC9CE10E948DDE88EC2E
:105640009CE10E94E1E10E94BA1D20908603309007
:105650008703F5018081918191FF09C0EC5AFF4FCA
:105660002081211104C02BE5222E22E0322E92FF50
:105670001EC090FF0FC011E020E030E0A901D5016D
:105680005A966D917D918D919C915D970F94FF0A33
:1056900018160CF010E0F501668D778D80A191A1B0
:1056A0000F949E09212FD1014C910E94A263F10118
:1056B00026A937A940AD51AD62A973A984A995A9BE
:1056C0000F9466082B013C0120E030E0A9010F9403
:1056D000FF0A181664F420E030E040EA50E4C30109
:1056E000B2010F94CB0887FF0EC00C94193520E04F
:1056F00030E040EA50ECC301B2010F94FF0A1816E3
:1057000014F40C94193599249394D101D0962D91C9
:105710003C91D1979E968D919C919F97821793076C
:105720000CF0912C0F943E026D837E838F839887BB
:1057300010E0412C512C32010F943E0269837A8390
:105740008B839C836093C3177093C4178093C51792
:105750009093C617DC01CB012D813E814F81588586
:10576000821B930BA40BB50B893E9340A105B10599
:1057700058F080E00E947C2389819A81AB81BC81B2
:105780008D839E83AF83B88781E00E94981D8091AE
:105790008603909187032816390609F064C0D10169
:1057A0009396ED90FC9094971E141F040CF05BC030
:1057B000111158C0992009F477C091966D917C9190
:1057C0009297882777FD8095982F0F949E099B01CB
:1057D000AC01F10162A973A984A995A90F94FF0AEC
:1057E000181614F00C941035662777276E197F0968
:1057F000882777FD8095982F0F949E09209142036A
:105800003091430340914403509145030F94730B2F
:105810000F946B091F921F92D10152962C915297AF
:105820002F9351962C9151972F9350962C915097DE
:105830002F931F962C912F935B016C01E12CF12C7F
:10584000870120E030E0A90160E070E0CB010E9418
:10585000A5930F900F900F900F900F900F9011E065
:105860000C94103511E0411451046104710409F0E5
:1058700050C09920F1F020E030E040E85FE3F10112
:1058800066A977A980AD91AD0F9466089B01AC0124
:10589000D101D2966D917D918D919C91D5970F9468
:1058A000FF0A87FF1FC045CF4114510461047104F2
:1058B00081F520E030E040E85FE3F10166A977A9D7
:1058C00080AD91AD0F9467089B01AC01D101D296D8
:1058D0006D917D918D919C91D5970F94CB08181661
:1058E0000CF427CFF101A78DB0A128EE33E00F947F
:1058F000D60C2B013C0129813A814B815C81420EFF
:10590000531E641E751E411451046104710409F490
:1059100013CFD301C20129813A814B815C81821B63
:10592000930BA40BB50B81159449A543B74708F415
:1059300003CF112309F4E2C080918603909187037D
:105940002816390609F0DAC0D10193966D917C9141
:105950009497882777FD8095982F0F949E09209122
:1059600042033091430340914403509145030F9407
:10597000730B0F946B091F921F92F10122892F93D1
:1059800021892F9320892F9327852F935B016C0109
:10599000E12CF12C870120E030E0A90160E070E00B
:1059A000CB010E94A5930F900F900F900F900F9036
:1059B0000F90A4C00E94E41C81110C94193540E0A2
:1059C00060EA74E088EC9CE10E948DDE88EC9CE14A
:1059D0000E94E1E10E94BA1DD5018D919C91119721
:1059E00092FF1FC090FF11C011E020E030E0A9013C
:1059F0005A966D917D918D919C915D970F94FF0AC0
:105A000018160CF010E0412F01C040E0F501668D42
:105A1000778D80A191A149870F949E0949850E94A5
:105A20006B642091190230911A0240911B0250912F
:105A30001C026091150270911602809117029091DC
:105A400018020F9466082B013C0120E030E0A90108
:105A50000F94FF0A18165CF420E030E040EA50E4AE
:105A6000C301B2010F94CB0887FF0CC0E2C720E04E
:105A700030E040EA50ECC301B2010F94FF0A18165F
:105A80000CF4D7C70F943E022B013C0120E030E01C
:105A900040E05FE360911502709116028091170259
:105AA000909118020F9467082091190230911A0200
:105AB00040911B0250911C020F94CB0887FF1EC01F
:105AC0000F943E026419750986099709693E73406F
:105AD0008105910578F080E00E947C230F943E02BE
