:100000000C94991C0C94CA1C0C94CA1C0C94CA1C09
:100010000C94CA1C0C94CA1C0C94CA1C0C94CA1CC8
:100020000C94CA1C0C94CA1C0C94CA1C0C94CA1CB8
:100030000C94CA1C0D9405080C94CA1C0C94CA1C80
:100040000C94CA1C0C9474DA0C94CA1C0C94CA1C30
:100050000C94CA1C0C94FFDB0C9417DB0D94C502A6
:100060000C94CA1C0C9457DC0C9481DC0C94CA1CB4
:100070000C94CA1C0C94CA1C0C94CA1C0C94CA1C68
:100080000C94CA1C0C94CA1C0C94CA1C0C94CA1C58
:100090000C94CA1C0C94CA1C0C94CA1C0D94D3005A
:1000A0000C94CA1C0C94CA1C0C94CA1C0C94CA1C38
:1000B0000C94CA1C0C94CA1C0C94CA1C0C94CA1C28
:1000C0000C94CA1C0C94CA1C0C94CA1C0C94CA1C18
:1000D0000C94CA1C0C94CA1C0C94CA1C0C94CA1C08
:1000E0000C94CA1C05951D951D951D951D951D9576
:1000F0001D951D951D951D951D951D951D951D9570
:100100001D951D951D951D951D951D951D951D955F
:100110001D951D951D951D95F494A694B0942A9453
:100120001D95D694E0941D951D953B9418941D95AE
:10013000CC941D95EA94C294BA941D951D951D9575
:10014000889492949C941D951D951D951D951D95C3
:100150001D951D951D951D95F494A694B0942A9413
:100160001D95D694E0941D951D953B9418941D956E
:10017000CC941D95EA94C294BA941D951D951D9535
:10018000889492949C941DB2AEB241B392B42DC3A4
:100190002DC32DC32DC32DC32DC32DC32DC32DC3DF
:1001A000DAB316B454B42DC32DC32DC32DC32DC340
:1001B0002DC32DC32DC32DC32DC32DC3B9B71BB85C
:1001C0007BB8DBB83BB99BB9FBB92DC377BE7FBA0F
:1001D000F5BA68BBDABB4CBCBEBC30BD9DBD0ABE27
:1001E0002DC32DC32DC32DC32DC33CB609B75FB698
:1001F000BFBE2CBF98BF05C026C068C09AC0CCC087
:1002000025C180C1D9C132C253C247C02DC32DC33D
:100210002DC32DC32DC32DC32DC32DC32DC32DC35E
:100220002DC32DC3DCB50BB62DC32DC32DC32DC3DC
:100230002DC32DC32DC32DC3D5C22DC3D8B62DC3F9
:100240002DC32DC37DC2ABC22DC32DC32DC32DC362
:1002500010B22DC32DC3D5B478B5BCB561B7B60106
:10026000BA019A01940182017801A001A8018001DC
:100270008A01AC01A6018601AA0178017C01AE01C8
:100280009801B8017A01B201B0019E01A20190016A
:100290008E018401920176019C018C018801A201EA
:1002A000A401B4017E0107634236B79BD8A71A396F
:1002B000685618AEBAAB558C1D3CB7CC5763BD6DB4
:1002C000EDFD753EF6177231BF000000803F05A8B6
:1002D0004CCDB2D44EB93836A9020C50B9918688AB
:1002E000083CA6AAAA2ABE000000803F0D94010483
:1002F0000D94BC020D94EB030D949E020D941D040D
:100300000D945D020D9443020D94F9030D948A023D
:100310000D940F040D9467020D940B040D94F303D8
:100320000D94EF030D94FD030D9439020D94B9045F
:100330000D94B2020D942F020D9407040D94E40362
:100340000D944D020D9422040D9415040D947B021E
:100350000D9455020D9494020D9471020D94A8020F
:100360000D94DE030D94DA030D9419040D94250207
:100370000D94E8030D942A02436F6C642065787431
:10038000727573696F6E20646973616C6C6F7765E9
:100390006400436F6C6420657874727573696F6E66
:1003A00020616C6C6F776564004175746F72657461
:1003B000726163743A0053657474696E67206D6F7F
:1003C000746F722063757272656E742E2E2E0053D8
:1003D0006574204D6963726F7374657070696E67C0
:1003E0000054726967676572696E6720776174632C
:1003F00068646F672E204966206163746976617452
:1004000065642C20746865207072696E7465722052
:1004100077696C6C2072657365742E005365747413
:10042000696E67205468726573686F6C6420546FDE
:100430003A00494E542050494E3A20004D32353151
:10044000200020746F200053657420766F6C756DEA
:10045000657472696320657874727573696F6E2054
:10046000666F7220657874727564657220004469E5
:100470007361626C656420766F6C756D657472690A
:100480006320657874727573696F6E20666F722071
:10049000657874727564657220004D3131342000C6
:1004A00048656174696E67204265640048656174DF
:1004B000696E672045787472756465720050696E64
:1004C0002063616E206E6F742062652073657420F6
:1004D0006279204D34322C206D617920696E20695B
:1004E0006E76616C6964206F7220696E2075736529
:1004F0002E2000496C6C6567616C20532076616C1E
:10050000756520666F72204D3432005A20284329C9
:1005100020746F77657220666C6F6F7220736574DC
:1005200020746F3A2000592028422920746F776583
:100530007220666C6F6F722073657420746F3A203E
:1005400000582028412920746F77657220666C6FEF
:100550006F722073657420746F3A2000526F6420AC
:100560005261646975732073657420746F3A20005A
:10057000473133342000506F7346726F6D5374658A
:1005800070733A00436F6D7044656C74613A004358
:10059000616C6962726174696F6E206D6F76656DF2
:1005A000656E74206973206C696D6974656420746C
:1005B0006F2031306D6D2E004669727374206D6F3F
:1005C000766520746F20746F75636820617420787D
:1005D0002C793D302C3020746F206175746F2D7331
:1005E0006574207261646975732E0043616C696281
:1005F000726174696F6E206D6F76656D656E7420C3
:100600006973206C696D6974656420746F20313082
:100610006D6D2E0043616E6E6F7420736574207271
:10062000616469757320616E6420666C6F6F7220FF
:1006300061742073616D652074696D652E0043617E
:100640006C6962726174696F6E20636F64652069A2
:1006500073206C696D6974656420746F20626F74B7
:10066000746F6D20313025206F66205A20686569CF
:100670006768740052656C617469766520706F7389
:100680006974696F6E696E67004162736F6C75742F
:100690006520706F736974696F6E696E67004736A5
:1006A0003920005A3A2000593A2000583A20004F89
:1006B000464653455453204F464620425920544FF6
:1006C0004F204D554348205F20545259494E4720F2
:1006D000414741494E3A200053657474696E672062
:1006E00050726F62652053656E73697469766974C0
:1006F0007920546F3A005A2070726F6265206661EB
:10070000696C6564206F6E2073656E7369746976B9
:100710006974793A200053657474696E6720507269
:100720006F62652053656E736974697669747920A8
:10073000546F3A005A2070726F6265206661696C6E
:100740006564206F6E2073656E7369746976697471
:10075000793A200053657474696E672050726F6235
:10076000652053656E736974697669747920546F76
:100770003A005A2070726F6265206661696C656428
:10078000206F6E2073656E73697469766974793A47
:10079000200068656865004E657720526164697560
:1007A000733A20004F6C64205261646975733A207B
:1007B0000043616C63756C617465642052616469A7
:1007C000757320697320626164203A005365747404
:1007D000696E672050726F62652053656E7369742D
:1007E000697669747920546F3A005A2070726F628A
:1007F00065206661696C6564206F6E2073656E7339
:10080000697469766974793A200053657474696E05
:10081000672050726F62652053656E7369746976E4
:1008200069747920546F3A005A2070726F626520A3
:100830006661696C6564206F6E2073656E736974A0
:1008400069766974793A2000473332200050524F5C
:1008500042452D5A4F46465345543A0047333000DF
:1008600053657474696E672050726F6265205365BA
:100870006E736974697669747920546F3A005072A6
:100880006F62657320646F206E6F74206D61746396
:10089000682E204F666620627920004733302000A2
:1008A0004D3131372043414C4942524154494F4E1A
:1008B00020434F4D504C4554450068656865004ED7
:1008C000657720486F72697A6F6E74616C2052612F
:1008D000646975733A20004F6C6420486F72697ABE
:1008E0006F6E74616C205261646975733A200043C5
:1008F000616C63756C6174656420526164697573C1
:10090000206973206261643A20004D313137204301
:10091000414C4942524154494F4E204641494C4571
:10092000440043616C6962726174696F6E20466154
:10093000696C65640053657474696E672050726FEA
:1009400062652053656E73697469766974792054A1
:100950006F3A005A2070726F6265202843656E748A
:10096000657220506F696E7429206661696C6564D8
:10097000206F6E2073656E73697469766974793A55
:1009800020004E6577205A204865696768743A00F0
:100990004F6C64205A204865696768743A004D318D
:1009A00031372043414C4942524154494F4E204631
:1009B00041494C45440043616C6962726174696FDE
:1009C0006E204661696C65640053657474696E6776
:1009D0002050726F62652053656E73697469766921
:1009E000747920546F3A005A2070726F6265202823
:1009F00043656E74657220506F696E74292066615C
:100A0000696C6564206F6E2073656E7369746976B6
:100A10006974793A200047363920005A3A20005943
:100A20003A2000583A20004D31313720456E64732A
:100A3000746F70204F6666736574204572726F72B2
:100A4000004F464653455453204F464620425920B6
:100A5000544F4F204D5543482E2041626F727469A8
:100A60006E672E2053656E73697469766974793A7E
:100A700020004D3131372043414C494252415449C5
:100A80004F4E204641494C45440043616C696272B7
:100A90006174696F6E204661696C656400536574AA
:100AA00074696E672050726F62652053656E73695A
:100AB00074697669747920546F3A005A2070726FA5
:100AC000626520285A20546F776572292066616913
:100AD0006C6564206F6E2073656E736974697669E6
:100AE00074793A20004D3131372043414C4942520C
:100AF0004154494F4E204641494C45440043616CA6
:100B00006962726174696F6E204661696C65640028
:100B100053657474696E672050726F626520536507
:100B20006E736974697669747920546F3A005A203B
:100B300070726F626520285920546F776572292082
:100B40006661696C6564206F6E2073656E7369748D
:100B500069766974793A20004D3131372043414C30
:100B60004942524154494F4E204641494C45440068
:100B700043616C6962726174696F6E204661696C71
:100B800065640053657474696E672050726F6265A6
:100B90002053656E736974697669747920546F3A6D
:100BA000005A2070726F626520285820546F776554
:100BB0007229206661696C6564206F6E2073656EB2
:100BC00073697469766974793A20004D3130342044
:100BD00053300A4D3134302053300A4D3130370014
:100BE0006578656375746547436F6465202F207170
:100BF0007565756544656C74614D6F7665207265C9
:100C00007475726E73206572726F720069697332E7
:100C1000646820616363656C65726F6D657465728D
:100C200020696E697469616C697A696E672E2E2E0F
:100C300000616363656C65726F6D657465722069D0
:100C400032632072656376206572726F722E0020A7
:100C500076616C75653A2000726561642072656723
:100C60002000616363656C65726F6D6574657220E9
:100C7000777269746520693263206572726F722EB3
:100C800000616363656C65726F6D65746572207376
:100C9000656E6420693263206572726F722E000087
:100CA000000100250030001D000C001E0024003152
:100CB000001C000B00180023002F001B000A001767
:100CC000000D0047000300040022002B001A004121
:100CD000004200000002003500206465672E2043BA
:100CE00000206D6561737572656420004572726FD6
:100CF000723A436F756C64206E6F7420686F6C6419
:100D00002074656D70657261747572652000206D68
:100D1000730020616674657220004572726F723ACA
:100D200054656D702E2072616973656420746F2044
:100D3000736C6F772E2052697365203D2000473910
:100D4000310A4731452D31383046363030300A4788
:100D50003930004D313137204578747275646572D1
:100D600020300A54300A4D38342050340A47393183
:100D70000A47314531373246363030300A4731453F
:100D800035463530300A473930001C151C14000038
:100D9000002243141F1F9E114A11DA108A1000000E
:100DA000000000000210F60EA60E2A0EAE0D040082
:100DB000081D900058091C01B007A801C80634029C
:100DC0003006C002C0054C036805D803180564044A
:100DD000D004F00498047C056004080630049406EE
:100DE00000042007D003AC07A80338088003C40818
:100DF000580350093003DC090803680AD802F40AD2
:100E0000B002800B88020C0C6002980C3002240D9A
:100E1000F801B00DC0013C0E8001C80E3001540F26
:100E2000B800B40F2800E00F00000400401D90003F
:100E300060091C01B007A801D00634023806C002C0
:100E4000C8054C036805D80318056404D804F004E9
:100E500098047C056004080630049406000420070A
:100E6000D003AC07A80338088003C408580350090E
:100E70003003DC090803680AE002F40AB802800BB8
:100E800088020C0C6002980C3002240DF801B00DA1
:100E9000C0013C0E8001C80E3001540FB800B40FE1
:100EA0002800E00F000004000016D800C006AC01C6
:100EB00078058002C004540348042804E803FC04B5
:100EC0009803D0055003A40618037807D8024C08ED
:100ED000A80220097002F4093802C80A08029C0B13
:100EE000D001700C9001440D5001180EF800EC0E6A
:100EF0008800C00F00000400681D4C00500B9400D7
:100F00005809DC0050082401A8076C012807B40127
:100F1000C006FC017006440228068C02F005D402CB
:100F2000B8051C03880564035805AC033005F403B9
:100F300010053C04E8048404C804CC04A804140587
:100F400090045C057004A4055804EC0538043406CC
:100F500020047C060804C406F0030C07D8035407D9
:100F6000C8039C07B003E40798032C0880037408A7
:100F70007003BC085803040948034C093003940962
:100F80001803DC090803240AF0026C0AE002B40A20
:100F9000C802FC0AB002440BA0028C0B8802D40BDE
:100FA00070021C0C5802640C4002AC0C2802F40CB9
:100FB00010023C0DF001840DD801CC0DB801140EC7
:100FC00098015C0E7001A40E4801EC0E1801340F5C
:100FD000D8007C0F8800C40F0800FC0F0000000040
:100FE0000000000000000000000000000000000001
:100FF00000000000000000000000000000000000F1
:1010000000000000401F450060094F0010095C000F
:10101000C0086B0070087D0020089200D007AC006B
:101020008007CC003007DE00E006230190065E0159
:101030004006A601F005FF01A0056D025005F30270
:1010400000059603B0045A046004400510044806E5
:10105000C0036E077003A8082003EB09D002230B1E
:101060008002410C3002390DE001040E9001A20E05
:101070004001170FF000690FA000A20F5000C60F2B
:101080000000DD0FB0FFEB0F60FF0400700DD80013
:101090004804AC0158038002D8025403800228049B
:1010A0003802FC040002D005C801A40698017807A4
:1010B00070014C08480120091801F409F000C80A21
:1010C000C8009C0BA000700C7000440D3800180E76
:1010D0000000EC0EA8FFC00FE8FE0400001B540047
:1010E0006009640010097400C008840070089C0046
:1010F0002008B800D007D8008007000130072C0175
:10110000E00668019006AC0140060002F0056802A6
:10111000A005E0025005740300052404B004F004A7
:101120006004DC051004E406C00304087003300901
:101130002003780B8002600DE001A80E4001680FCB
:10114000A000C00F0000E80F60FF0400801AD80064
:101150009808AC012007800250065403C8052804F3
:101160005805FC040005D005B004A40668047807FF
:1011700028044C08E8032009B003F4097003C80AE6
:1011800038039C0BF802700CB002440D6802180E74
:101190000802EC0E8801C00F8800F00F000000006C
:1011A000A00F5C006009690010097900C0088C007C
:1011B0007008A2002008BD00D007DE0080070501EE
:1011C00030073401E0066D019006B20140060702C7
:1011D000F0056D02A005E80250057B0300052B0415
:1011E000B004F8046004EB06C003350920037F0B4C
:1011F0008002650DE001B00E40011D0FF000480FA8
:10120000C8006C0FA000ED0F60FFFE0F48FE00024B
:1012100000002110422063308440A550C660E77072
:10122000088129914AA16BB18CC1ADD1CEE1EFF11A
:101230003112100273325222B5529442F772D662C2
:10124000399318837BB35AA3BDD39CC3FFF3DEE36A
:101250006224433420040114E664C774A444855412
:101260006AA54BB528850995EEE5CFF5ACC58DD5BA
:101270005336722611163006D776F6669556B44662
:101280005BB77AA719973887DFF7FEE79DD7BCC70A
:10129000C448E5588668A7784008611802282338B2
:1012A000CCC9EDD98EE9AFF9488969990AA92BB95A
:1012B000F55AD44AB77A966A711A500A333A122A02
:1012C000FDDBDCCBBFFB9EEB799B588B3BBB1AABAA
:1012D000A66C877CE44CC55C222C033C600C411C52
:1012E000AEED8FFDECCDCDDD2AAD0BBD688D499DFA
:1012F000977EB66ED55EF44E133E322E511E700EA2
:101300009FFFBEEFDDDFFCCF1BBF3AAF599F788F49
:101310008891A981CAB1EBA10CD12DC14EF16FE129
:101320008010A100C230E320045025404670676061
:10133000B9839893FBA3DAB33DC31CD37FE35EF379
:10134000B1029012F322D2323542145277625672B1
:10135000EAB5CBA5A89589856EF54FE52CD50DC5C9
:10136000E234C324A0148104667447642454054401
:10137000DBA7FAB79987B8975FE77EF71DC73CD719
:10138000D326F2369106B016576676761546345651
:101390004CD96DC90EF92FE9C899E9898AB9ABA969
:1013A0004458654806782768C018E1088238A328A1
:1013B0007DCB5CDB3FEB1EFBF98BD89BBBAB9ABBB9
:1013C000754A545A376A167AF10AD01AB32A923AF1
:1013D0002EFD0FED6CDD4DCDAABD8BADE89DC98D09
:1013E000267C076C645C454CA23C832CE01CC10C41
:1013F0001FEF3EFF5DCF7CDF9BAFBABFD98FF89F59
:10140000176E367E554E745E932EB23ED10EF01E90
:101410007C3C3E5E2B3D3F2F5B5D3B2C2A225C00DB
:101420004D617854656D703A004469616D6574650D
:10143000723A00416363656C65726174696F6E3AFC
:10144000004D617853706565643A004A65726B3A85
:10145000004D617842656454656D703A0050726960
:101460006E746572547970653A44656C7461005AA3
:1014700054726176656C416363656C3A00595472CD
:101480006176656C416363656C3A005854726176AD
:10149000656C416363656C3A005A5072696E7441C1
:1014A0006363656C3A00595072696E744163636599
:1014B0006C3A00585072696E74416363656C3A000F
:1014C0005A53697A653A005953697A653A00585314
:1014D000697A653A005A4D61783A00594D61783A17
:1014E00000584D61783A005A4D696E3A00594D697D
:1014F0006E3A00584D696E3A004A65726B58593A17
:10150000005072696E746C696E6543616368653A18
:1015100000454550524F4D3A004175746F6C6576E9
:10152000656C3A005A50726F62653A0043617365A8
:101530004C69676874733A00537570706F72744CBD
:101540006F63616C46696C616D656E746368616E32
:1015500067653A00537570706F7274473130473168
:10156000313A005A486F6D654469723A0059486FC4
:101570006D654469723A0058486F6D654469723A06
:1015800000536F667477617265506F776572537739
:10159000697463683A004C43443A0046616E3A000D
:1015A0005344436172643A004865617465644265FE
:1015B000643A004D6978696E674578747275646540
:1015C000723A004E756D45787472756465723A00B2
:1015D000496E7075744275666665723A004261754F
:1015E00064726174653A004E6F2063617365206CAC
:1015F0006967687473004D31313420007A70726FFE
:1016000062696E672E2E2E0064656C617920313020
:10161000306D732E00686F6D6541786973200068C6
:101620006F6D6541786973202F207175657565440C
:10163000656C74614D6F76652072657475726E733A
:10164000206572726F7200486F6D652044656C741E
:1016500061005072696E7465723A3A7365747570A0
:1016600020006D6F7665546F5265616C202F20717C
:101670007565756544656C74614D6F76652072653E
:101680007475726E73206572726F72006D6F76651D
:10169000546F202F20717565756544656C74614DBC
:1016A0006F76652072657475726E73206572726FE5
:1016B0007200537465707065722044697361626C66
:1016C0006564004B696C6C6564006973506F736985
:1016D00074696F6E416C6C6F7765642000534420B1
:1016E0006572726F72206669786564005344206584
:1016F00072726F7220646964206E6F742072656309
:101700006F766572210053442052656164204572F2
:10171000726F720055706C6F6164696E672E2E2E49
:1017200000005344207072696E742073746F70707F
:10173000656420627920757365722E0053442063BE
:1017400061726420696E736572746564005344202D
:101750004361726420696E736572746564005344FA
:1017600020436172642072656D6F76656400534436
:1017700020636172642072656D6F766564004578E0
:1017800074722E00436F6E6669673A004F6E652073
:10179000686561746572207365656D732064656347
:1017A0006F75706C65642066726F6D207468657209
:1017B0006D6973746F72202D2064697361626C6946
:1017C0006E6720616C6C20666F7220736166657451
:1017D000792100486561746572206465636F757076
:1017E0006C6564004372656174696F6E206661693F
:1017F0006C6564004469726563746F72792063720A
:1018000065617465640044656C6574696F6E20661B
:1018100061696C65640046696C652064656C65741B
:10182000656400446F6E6520736176696E6720663B
:10183000696C652E0057726974696E6720746F2039
:1018400066696C653A20006F70656E206661696C30
:1018500065642C2046696C653A20004E6F742053F5
:1018600044207072696E74696E6700534420707210
:10187000696E74696E672062797465200066696CB0
:10188000652E6F70656E206661696C6564004669DF
:101890006C652073656C6563746564002053697AB8
:1018A000653A0046696C65206F70656E65643A0044
:1018B000456E642066696C65206C697374004265CE
:1018C00067696E2066696C65206C69737400657267
:1018D000726F722077726974696E6720746F206608
:1018E000696C6500534420696E6974206661696C97
:1018F00000616476616E6365204C205B303D6F66ED
:10190000665D00657874727564657220636F6F6CD4
:101910006572207370656564205B302D3235355DEE
:101920000064697374616E636520746F20726574FE
:1019300072616374207768656E2068656174696E92
:1019400067205B6D6D5D0074656D702E20666F7233
:101950002072657472616374696F6E207768656E5A
:101960002068656174696E67205B435D0074656D16
:10197000702E2073746162696C697A652074696D78
:1019800065205B735D00592D6F6666736574205B1F
:1019900073746570735D00582D6F6666736574208F
:1019A0005B73746570735D00504944206D617820ED
:1019B00076616C7565205B302D3235355D005049A0
:1019C0004420442D6761696E0050494420492D67C9
:1019D00061696E0050494420502D6761696E2F6423
:1019E0006561642D74696D650050494420647269B5
:1019F0007665206D696E0050494420647269766591
:101A0000206D61780068656174206D616E61676545
:101A100072205B302D335D00616363656C657261BC
:101A200074696F6E205B6D6D2F735E325D00737431
:101A3000617274206665656472617465205B6D6DAA
:101A40002F735D006D61782E206665656472617428
:101A500065205B6D6D2F735D00737465707320700E
:101A60006572206D6D0042656420504944206D61AF
:101A7000782076616C7565205B302D3235355D00E0
:101A80004265642050494420442D6761696E0042DC
:101A900065642050494420492D6761696E004265A4
:101AA000642050494420502D6761696E004265648E
:101AB00020504944206472697665206D696E004249
:101AC000656420504944206472697665206D6178B0
:101AD000004265642048656174204D616E616765F0
:101AE00072205B302D335D00436F72722E2064696B
:101AF00061676F6E616C2043205B6D6D5D00436FAD
:101B000072722E20646961676F6E616C2042205B87
:101B10006D6D5D00436F72722E20646961676F6E38
:101B2000616C2041205B6D6D5D004D6178207072AD
:101B3000696E7461626C6520726164697573205BA3
:101B40006D6D5D00546F776572205A20656E647309
:101B5000746F70206F6666736574205B7374657054
:101B6000735D00546F776572205920656E647374DD
:101B70006F70206F6666736574205B737465707335
:101B80005D00546F776572205820656E6473746FC2
:101B900070206F6666736574205B73746570735D27
:101BA000005365676D656E74732F7320666F7220C6
:101BB00074726176656C005365676D656E74732F22
:101BC0007320666F72207072696E74696E67004868
:101BD0006F72697A6F6E74616C20726F64207261CB
:101BE0006469757320617420302C30205B6D6D5DED
:101BF00000446961676F6E616C20726F64206C6570
:101C00006E677468205B6D6D5D00486F6D696E670F
:101C1000206665656472617465205B6D6D2F735D10
:101C2000004D61782E206665656472617465205B85
:101C30006D6D2F735D005374657073207065722035
:101C40006D6D0054726176656C20616363656C65CF
:101C5000726174696F6E205B6D6D2F735E325D0013
:101C6000416363656C65726174696F6E205B6D6D55
:101C70002F735E325D004D61782E206A65726B2095
:101C80005B6D6D2F735D005A206D6178206C656E01
:101C9000677468205B6D6D5D0059206D6178206C04
:101CA000656E677468205B6D6D5D0058206D6178AE
:101CB000206C656E677468205B6D6D5D005A2068EE
:101CC0006F6D6520706F73205B6D6D5D00592068CE
:101CD0006F6D6520706F73205B6D6D5D00582068BF
:101CE0006F6D6520706F73205B6D6D5D0053746F59
:101CF00070207374657070657220616674657220FF
:101D0000696E6163746976697479205B6D732C30D8
:101D10003D6F66665D004D61782E20696E6163746B
:101D20006976652074696D65205B6D732C303D6F3D
:101D300066665D005072696E7465722061637469D5
:101D40007665205B735D0046696C616D656E74201D
:101D50007072696E746564205B6D5D0041647661CC
:101D60006E636564205573657200426175647261CB
:101D70007465004550523A3320004550523A3220A3
:101D8000004550523A3120004550523A3020005020
:101D9000726F746F636F6C2076657273696F6E20FB
:101DA0006368616E6765642C207570677261646931
:101DB0006E6700436F6E66696775726174696F6EF6
:101DC00020726573657420746F2064656661756C3C
:101DD00074732E00436F6E66696775726174696F04
:101DE0006E206C6F616465642066726F6D2045457E
:101DF00050524F4D2E00436F6E6669677572617465
:101E0000696F6E2073746F72656420746F2045452E
:101E100050524F4D2E004175746F6C6576656C2085
:101E20006163746976652028312F3029005A2D703E
:101E3000726F6265205933005A2D70726F6265208F
:101E40005833005A2D70726F6265205932005A2D36
:101E500070726F6265205832005A2D70726F626521
:101E6000205931005A2D70726F6265205831005A26
:101E70002D70726F626520782D792D7370656564A1
:101E8000205B6D6D2F735D005A2D70726F6265203F
:101E90007370656564205B6D6D2F735D005A2D70E6
:101EA000726F6265206F66667365742079205B6D62
:101EB0006D5D005A2D70726F6265206F6666736586
:101EC000742078205B6D6D5D004D61782E207A2D39
:101ED00070726F6265202D2062656420646973747E
:101EE0002E205B6D6D5D005A2D70726F62652068EB
:101EF0006569676874205B6D6D5D0077616974006A
:101F00005072696E746572206865696768743A001A
:101F10005A2D70726F6265206661696C6564005449
:101F200072616E73666F726D6174696F6E206D6140
:101F3000747269783A004175746F6C6576656C6986
:101F40006E672064697361626C6564004175746FCB
:101F50006C6576656C696E6720656E61626C656440
:101F6000004175746F6C6576656C206D6174726983
:101F70007820726573657400004732382F6E4731E0
:101F80005A32352F6E005A2D70726F62652073744D
:101F90006174653A005265736574205A20686569FA
:101FA000676874005A2D70726F6265206176657281
:101FB000616765206865696768743A0020537465D5
:101FC0007020566172696174696F6E2066726F6D00
:101FD0002050726F626520746F20626564204469CE
:101FE0007374616E63653A005A2D70726F62653A60
:101FF000005072696E7465722073657420696E7426
:102000006F206472792072756E206D6F6465207523
:102010006E74696C207265737461727421003A2069
:10202000776F726B696E67003A2074656D7020730C
:10203000656E736F7220646566656374006578749D
:1020400072756465722000686561746564206265FC
:1020500064004D54454D503A005049442041757438
:102060006F74756E652066696E697368656420219A
:1020700020506C61636520746865204B702C204B88
:102080006920616E64204B6420636F6E7374616EAF
:10209000747320696E2074686520436F6E6669678B
:1020A00075726174696F6E2E68206F72204545509D
:1020B000524F4D00504944204175746F74756E65E0
:1020C000206661696C6564212074696D656F757443
:1020D00000504944204175746F74756E65206661C7
:1020E000696C6564212054656D70657261747572E8
:1020F0006520746F206869676800204B643A20008F
:10210000204B693A2000204B703A200020436C613C
:102110007373696320504944002054753A200020AD
:102120004B753A2000206D61783A2000206D696E71
:102130003A200020643A200020626961733A20004E
:10214000504944204175746F74756E6520737461D5
:102150007274005461726765744265643A00546138
:102160007267657445787472004E6F206D6F766586
:1021700020696E2064656C7461207365676D656E9F
:10218000742077697468203E2031207365676D651F
:102190006E742E20546869732073686F756C6420A8
:1021A0006E657665722068617070656E20616E6420
:1021B000206D617920636175736520612070726F95
:1021C000626C656D210044656C74612052616469C4
:1021D000757320432830293A0044656C746120529D
:1021E000616469757320422830293A0044656C7433
:1021F000612052616469757320412830293A004199
:102200006C7068612043283930293A00416C70684D
:1022100061204228333330293A00416C70686120D4
:102220004128323130293A00546F77657220333AB1
:1022300000546F77657220323A00546F77657220D0
:10224000313A00496E76616C69642064656C746132
:1022500020636F6F7264696E617465202D206D6FED
:1022600076652069676E6F726564006C696E656182
:1022700072204C3A00454550524F4D2075706461B4
:10228000746564002C2073706565643D00206C6982
:102290006E6561722073746570733A004A65726B83
:1022A0003A007A5F6D61783A00795F6D61783A0043
:1022B000785F6D61783A004C2000482000206973F7
:1022C000200020746F2000536574206F7574707542
:1022D000743A20004D53312C4D53322050696E73A7
:1022E0000045313A0045303A005A3A00593A002048
:1022F000002C00206D696E0020686F7572732000DD
:10230000206461797320006D20005072696E7469D9
:102310006E672074696D653A005072696E74656409
:102320002066696C616D656E743A0046616E73700B
:102330006565643A00482E205261646975733A00FD
:10234000466C6F774D756C7469706C793A00537098
:102350006565644D756C7469706C793A00202F0066
:102360002F003A0020524157002042403A002040BE
:102370003A0020423A00543A0020453A00205A3AA6
:102380000020593A0020583A00583A0046726565D4
:102390002052414D3A00556E6B6E6F776E20636F21
:1023A0006D6D616E643A00536F667477617265207B
:1023B0005265736574005761746368646F67205277
:1023C000657365740042726F776E206F757420526A
:1023D000657365740045787465726E616C20526532
:1023E00073657400506F7765725570007374617215
:1023F0007400424C4B2000736B6970200020676FA3
:102400007420004572726F723A6578706563746506
:1024100064206C696E6520005344207265616420FD
:102420006572726F7200205200204A00204900201D
:102430005000205300204600204500205A0020591B
:1024400000205800446F6E65207072696E74696E6A
:10245000672066696C6500466F726D6174206572F5
:10246000726F720057726F6E6720636865636B737B
:10247000756D004563686F3A00526573656E643A26
:10248000005761726E696E673A00496E666F3A0076
:102490004572726F723A00494E46004E414E006FCF
:1024A0006B004649524D574152455F4E414D453AAA
:1024B00052657065746965725F302E39322E322034
:1024C0004649524D574152455F444154453A323096
:1024D000313730383231204D414348494E455F5401
:1024E0005950453A4F52494F4E2044656C74612013
:1024F000005265717565737450617573653A004D6E
:1025000031313720494E53455254205344204341E2
:102510005244004D3131372053442043415244202E
:102520004552524F520055495F414354494F4E5F07
:102530005345545F4D454153555245445F4F5249B1
:1025400047494E20004E6F2053442043617264007F
:1025500053687574204F666620414C4C2048656175
:102560007473005072656865617420414253005075
:1025700072656865617420504C410055495F414364
:1025800054494F4E5F484F4D455F5A200055495FB3
:10259000414354494F4E5F484F4D455F59200055C8
:1025A000495F414354494F4E5F484F4D455F582066
:1025B0000055495F414354494F4E5F484F4D454197
:1025C0004C4C200055495F414354494F4E5F5A508F
:1025D0004F534954494F4E5F464153545F4E4F54F9
:1025E000455354200055495F414354494F4E5F5A6B
:1025F000504F534954494F4E5F4E4F54455354200A
:102600000055495F414354494F4E5F45504F534930
:1026100054494F4E200055495F414354494F4E5F46
:102620005A504F534954494F4E5F4641535420002E
:1026300055495F414354494F4E5F59504F53495498
:10264000494F4E5F46415354200055495F41435422
:10265000494F4E5F58504F534954494F4E5F464182
:102660005354200055495F414354494F4E5F5A50DF
:102670004F534954494F4E200055495F41435449F7
:102680004F4E5F59504F534954494F4E20005549C2
:102690005F414354494F4E5F58504F534954494F3F
:1026A0004E200042616E6742616E6700536C6F7727
:1026B00042616E6700446561642054696D65005035
:1026C000494400003A00206461797320005065722B
:1026D00063656E74205072696E7465643A0020649C
:1026E00065662000465720446174652032303137DA
:1026F00030383231004F52494F4E2044656C74617E
:10270000005365654D65434E43004F52494F4E207F
:1027100044656C746100B0336633FC329F324163B0
:1027200074696F6E3A256C6100040003004E6F00FF
:10273000596573004E2F41004F6666004F6E0000D2
:1027400000003FCDCC4C3D0AD7A33B6F12033A5259
:1027500065706574696572207620302E39322E32AC
:1027600000004014548025000040380000004B0059
:10277000008070000000960000C0DA000000E10058
:1027800000002C010008B2010000C2010000F401A9
:10279000000084030090D0030000E8030000080755
:1027A0000020A1070000100E0040420F0060E31659
:1027B0000000000000110A0411040A1111001C1F7E
:1027C00011111F0000040A0A0A0E1F1F0E001F111C
:1027D00011111F0000001F1F1F1F1F0000040A040B
:1027E0000000000000040E15041C000000020000A0
:1027F0000600F42726305A28DB2C2D282E2D9C2865
:102800000200000700072826301528DB2C2D282E73
:102810002D662C41281C2802DC2D00005072696EA8
:102820007465722053657474696E6773003428028E
:10283000CA2E000041646A7573742054656D70730C
:102840000048280272280000416476616E63656466
:102850002053657474696E677300612802F52D005A
:10286000005072696E7465722053657474696E6786
:102870007300020000090079282630872973296334
:102880002953298B283C2924299C28922802092C89
:102890000000446562756767696E6700A3280207D8
:1028A0002F000043616C6962726174696F6E204D24
:1028B000656E75000310270200BB28C628BF28CD0F
:1028C000280000000000DE2800000000006C6F619E
:1028D00064656420662E20454550524F4D00436F7D
:1028E0006E66696775726174696F6E000310270206
:1028F00000F328FE28F7280529000000000016290B
:10290000000000000073746F72656420696E2045DA
:102910004550524F4D00436F6E6669677572617422
:10292000696F6E002B2903070400004C6F6164205F
:1029300066726F6D20454550524F4D004329030686
:1029400004000053746F726520746F204545505227
:102950004F4D005A2902962900004578747275641B
:102960006572006A29029D2B0000466565647261EC
:102970007465007A2902C92B0000416363656C65A8
:10298000726174696F6E008E2902E92A0000476542
:102990006E6572616C0002000010009D292630D522
:1029A0002AC12AAF2A9E2A892A5A2A722A432A3001
:1029B0002A1C2A0B2AFA29E529D029BD29C4290471
:1029C0002F040000504944204D61783A25584400B6
:1029D000D72904260400004472697665204D617889
:1029E0003A25584D00EC290425040000447269760C
:1029F00065204D696E3A25586D00012A04240400B3
:102A00000050494420443A25586400122A04230403
:102A1000000050494420493A25586900232A0422DD
:102A200004000044542F50494420503A2558700067
:102A3000372A042D040000436F6E74726F6C3A25C0
:102A40005868004A2A0446040000416476616E63B7
:102A500065206C696E3A25586C00612A044D0400AB
:102A6000005761697420556E6974733A2558556D25
:102A70006D00792A044C0400005761697420546584
:102A80006D702E255854024300902A042E04000035
:102A9000537461622E54696D653A25587700A52AF2
:102AA000042A040000416363656C3A25584100B66E
:102AB0002A042B0400004D61782046523A255846DE
:102AC00000C82A042C04000053746172742046521A
:102AD0003A25586600DC2A04290400005374657006
:102AE000732F4D4D3A255365000200000400F02A73
:102AF0002630252B0D2BF82AFF2A02392B00004DFA
:102B000061782E20496E61637469766500142B022A
:102B10006B2B00005374657070657220496E6163A1
:102B200074697665002C2B04100400004261756402
:102B3000726174653A256F63000358040200402BEC
:102B40004B2B442B522B00000000005C2B0000009C
:102B500000005B735D20303D4F6666004469732E54
:102B60002041667465723A256970000320040200F2
:102B7000722B7D2B762B842B00000000008E2B0007
:102B8000000000005B735D20303D4F6666004469C5
:102B9000732E2041667465723A2569730002000045
:102BA0000300A42B2630BA2BAA2BB12B041304004C
:102BB00000486F6D653A25665A00C12B0416040063
:102BC000004D61783A25667A000200000400D02B9F
:102BD0002630F82BE82BD82BDF2B040E0400004AFC
:102BE00065726B3A25616A00EF2B040D0400004DFD
:102BF0006F76653A25615A00FF2B040A04000050E5
:102C000072696E743A25617A000200000500102C8A
:102C10002630532C402C2D2C1A2C212C033504004B
:102C2000004472792072756E3A25646400342C0376
:102C3000340400004572726F7273203A2564650097
:102C4000472C0333040000496E666F2020203A258C
:102C50006469005A2C03320400004563686F202029
:102C6000203A25646F006D2C027A2C00005344201A
:102C700043617264204D656E75000200000600819C
:102C80002C2630DB2CC82CB22CA02C8D2C942C03A1
:102C9000F403010244656C6574652066696C650027
:102CA000A72C02FA2C020053746F70205072696EC8
:102CB0007400B92C03F7030400436F6E74696E75DA
:102CC00065205072696E7400CF2C03F60302045025
:102CD00061757365205072696E7400E22C03F50310
:102CE000010253656C6563742053442046696C652A
:102CF000000100000100F82C263002000003000152
:102D00002D1C2D122D072D0E2D0354240200596564
:102D10007300192D03E80300004E6F00232D0100FE
:102D200000000053746F70205072696E7400352D6E
:102D300002462D000041646A7573742046616E205E
:102D400073706565640002000007004D2D2630C4D5
:102D50002DB02D9B2D862D712D5B2D622D031E0414
:102D600000005365742046616E20313030252525E2
:102D700000782D031D0400005365742046616E2009
:102D80003735252525008D2D031C0400005365745F
:102D90002046616E20353025252500A22D031B0419
:102DA00000005365742046616E20323525252500CC
:102DB000B72D031A0408005475726E2046616E2008
:102DC0004F666600CB2D045204000046616E2073EE
:102DD000706565643A254673252525000200000AC2
:102DE00000E32D2630412E282E9F2E8C2E722E127F
:102DF000305A2EB22E0200000A00FC2D2630412E41
:102E0000282E9F2E8C2E722E1230102E5A2EB22E5D
:102E1000172E03B20F0000556E6C6F636B20467562
:102E20006C6C204D656E75002F2E04480400004622
:102E30006C6F772020526174653A256F66252525D1
:102E400000482E041F040000537065656420526121
:102E500074653A256F6D25252500612E0342040017
:102E60001044697361626C6520537465707065729B
:102E70007300792E033804000053687574204F6680
:102E80006620414C4C20486561747300932E0347C3
:102E9000040000507265686561742041425300A6C9
:102EA0002E03370400005072656865617420504C31
:102EB0004100B92E033604000041545820706F774A
:102EC0006572206F6E2F6F6666000200000400D1ED
:102ED0002E2630EF2ED72EDE2E043C040000424575
:102EE000442054656D703A2020254562024300F667
:102EF0002E043D0400004E4F5A2054656D703A2058
:102F00002025453002430002000006000E2F263027
:102F1000442F1A2F1230DC2F302F212F04210400D0
:102F200000482E20526164697573203A256F68004D
:102F3000372F03AC0F0000536574205A204F72697D
:102F400067696E004B2F025C2F000046756C6C2089
:102F500043616C6962726174696F6E000200000403
:102F600000632F2630992F842F6B2F722F03B10F00
:102F70000000426567696E2043616C69627261742A
:102F8000696F6E008B2F03B50F000042454420414E
:102F9000524520434C45414E00A02F03B40F000082
:102FA0004D414B452053555245204E4F5A5A4C45A2
:102FB0002026000200000600BA2F26301230003012
:102FC000EE2FDC2FC62FCD2F023F30000045787446
:102FD000722E20706F736974696F6E00E32F02A008
:102FE0003100005A20506F736974696F6E00F52FBD
:102FF00002F53100005920506F736974696F6E00DB
:103000000730024A3200005820506F736974696FAC
:103010006E00193003FD030000486F6D652050728B
:10302000696E746572002D3003E80300005072650C
:1030300076696F75732053637265656E20010003B6
:10304000F0030400463063305C3055304E306A3057
:10305000000000000078300000000000893000000F
:1030600000000098300000000000255566206D200B
:103070007072696E7465640020453A2565632F257A
:10308000456302437E256F43003120636C69636BA7
:10309000203D2031206D6D00453A257833206D6D3F
:1030A0000003FC030400A830C530BE30B730B03098
:1030B000CC300000000000CD300000000000DD300A
:1030C0000000000000ED300000000000004D6178BD
:1030D00020656E6473746F703A25735A004D696E83
:1030E00020656E6473746F703A25737A005A3A25BE
:1030F0007832206D6D0003FB030400FD301A31139C
:10310000310C310531213100000000002231000076
:1031100000000032310000000000423100000000D9
:1031200000004D617820656E6473746F703A25738A
:1031300059004D696E20656E6473746F703A257323
:103140007900593A257831206D6D0003FA030400A7
:1031500052316F31683161315A31763100000000EF
:103160000077310000000000873100000000009768
:10317000310000000000004D617820656E647374BA
:103180006F703A257358004D696E20656E647374D4
:103190006F703A25737800583A257830206D6D00AD
:1031A00003EF030400A731C431BD31B631AF31CBD9
:1031B000310000000000CC310000000000DC3100D4
:1031C00000000000EC310000000000004D6178209C
:1031D000656E6473746F703A25735A004D696E2082
:1031E000656E6473746F703A25737A005A3A257865
:1031F00032206D6D0003EE030400FC3119321232EF
:103200000B320432203200000000002132000000A6
:1032100000003132000000000041320000000000D8
:10322000004D617820656E6473746F703A25735930
:10323000004D696E20656E6473746F703A25737902
:1032400000593A257831206D6D0003ED03040051DB
:10325000326E32673260325932753200000000003F
:103260007632000000000086320000000000963236
:103270000000000000004D617820656E6473746F7B
:10328000703A257358004D696E20656E6473746FD3
:10329000703A25737800583A257830206D6D00001B
:1032A00000000400A632C332BC32B532AE32CA329C
:1032B0000000000000D0320000000000E4320000F6
:1032C000000000E8320000000000255566206D0077
:1032D000546F74616C2046696C616D656E74205525
:1032E0007365640025557400546F74616C205072CE
:1032F000696E74696E672054696D65000000000492
:103300000003332033193312330B3327330000000B
:1033100000003333000000000041330000000000D3
:10332000533300000000004F52494F4E2044656C5B
:103330007461005072696E746572204D6F64656CC3
:1033400000465720446174653A20323031373038B6
:1033500032310046572056657273696F6E3A2030DD
:103360002E39322E320000000004006D338A338380
:10337000337C337533913300000000009533000037
:103380000000009E330000000000A7330000000092
:1033900000256F73005A3A257832206D6D00593A36
:1033A000257831206D6D00583A257830206D6D00FC
:1033B0000000000400B733D433CD33C633BF33DB52
:1033C000330000000000DF330000000000F833008D
:1033D000000000000B340000000000256F73005354
:1033E000706565643A256F6D25252520466C6F77DD
:1033F0003A256F66252525004245443A2565622019
:103400005461726765743A254562004E4F5A3A25F9
:103410006563205461726765743A25456300000056
:10342000000000000000000000FF0000010000009C
:10343000000000000000000000000000000024F474
:1034400003D950C38EB1C2A23D96828B3582127AC7
:10345000E372816CCB66A861015DC758EB54615182
:10346000204E1E4B5648C14559431A41013F093D64
:103470002F3B7139CD374036C93465331432D430DF
:10348000A32F802E6B2D632C672B752A8E29B028D5
:10349000DC2710274B268F25D9242B248223E022DA
:1034A0004322AC211A218D200420801F001F841E7E
:1034B0000C1E971D261DB81C4E1CE61B821B201BD4
:1034C000C11A641A0A1AB2195D190A19B9186A18C8
:1034D0001C18D11788174017FA16B516731631162F
:1034E000F115B31576153A150015C7148F14581435
:1034F0002214EE13BA13881356132513F612C712AB
:1035000099126C1240121512EB11C1119811701121
:1035100048112111FB10D610B1108D106910461002
:1035200024100210E10FC00FA00F800F610F420F97
:10353000230F060FE80ECB0EAF0E930E770E5C0E28
:10354000410E270E0D0EF30DDA0DC10DA80D900DD5
:10355000780D600D490D320D1B0D050DEF0CD90CCA
:10356000C30CAE0C990C850C700C5C0C480C350C23
:10357000210C0E0CFB0BE80BD60BC40BB20BA00BF3
:103580008E0B7D0B6B0B5A0B4A0B390B290B180B4F
:10359000080BF80AE90AD90ACA0ABB0AAC0A9D0A4A
:1035A0008E0A800A710A630A550A470A390A2C0AE8
:1035B0001E0A110A040AF709EA09DD09D009C4093B
:1035C000B709AB099F09920987097B096F0963094C
:1035D00058094C09410936092B09200915090A091E
:1035E0000009F508EB08E008D608CC08C208B808BE
:1035F000AE08A4089A08900887087D0874086B082C
:10360000610858084F0846083D0834082C0823086C
:103610001A08120809080108F807F007E807E00788
:10362000D807D007C807C007B807B007A807A10781
:103630000000420FA1071605D0030D038B022E02D6
:10364000E801B2018601630145012C011701040163
:10365000F4004F52494F4E205265616479004F5239
:10366000494F4E205265616479004F52494F4E20B8
:10367000526561647900207A3A0020793A00207816
:103680003A00696E20717565756544656C74614DAD
:103690006F766520746F2063616C63756C6174650F
:1036A00044656C74615375625365676D656E7473C0
:1036B0002072657475726E73206572726F722E005F
:1036C000432068697420666C6F6F720043706F737B
:1036D000207820737175617265200043706F7320CC
:1036E00078207374657073200043706F73207920A5
:1036F000737175617265200043706F732079207358
:10370000746570732000422068697420666C6F6F66
:10371000720042706F73207820737175617265203A
:103720000042706F732078207374657073200042BC
:10373000706F73207920737175617265200042701B
:103740006F7320792073746570732000412068695D
:103750007420666C6F6F720041706F7320782073F5
:103760007175617265200041706F732078207374E9
:10377000657073200041706F7320792073717561DB
:103780007265200041706F732079207374657073C7
:1037900020006D6F766552656C6174697665446969
:1037A0007374616E6365496E5374657073202F2066
:1037B000717565756544656C74614D6F76652072D1
:1037C000657475726E73206572726F720000000A04
:1037D0000B02090C0D0E0807030401000000000095
:1037E00000000000000000000000000000000000D9
:1037F0000000000000000000001211100000000096
:1038000000000000000000000000000000000000B8
:103810000000000102102020080810204010204065
:103820008002010201080402010102040810204084
:1038300080804020100804020180040201804020A2
:1038400010080402010804020101020408102040CB
:1038500080010204081020408005050505070508C1
:10386000080808020202020A0A0808040404040103
:103870000101010101010103030303030303030425
:103880000707070C0C0C0C0C0C0C0C0202020206B5
:10389000060606060606060B0B0B0B0B0B0B0B00A6
:1038A0000020002300260029002C002F00320000F9
:1038B0000100000301060109010000220025002883
:1038C000002B002E00310034000201000005010829
:1038D000010B0100002100240027002A002D0030E8
:1038E00000330001010000040107010A01024E41FA
:1038F0004E494E495459494E46CDCCCC3D0AD7236A
:103900003C17B7D13877CC2B329595E6241FB14FB1
:103910000A000020410000C84200401C4620BCBEF6
:103920004CCA1B0E5AAEC59D7400A38BAA9E31DDF6
:10393000F4FF11241FBECFEFD1E2DEBFCDBF00E008
:103940000CBF13E0A0E0B2E0E0E0F3E202E00BBF66
:1039500002C007900D92A638B107D9F72EE1A6E86C
:10396000B3E001C01D92AE37B207E1F719E3C2E33D
:10397000D9E300E006C022970109FE010BBF0F94B6
:10398000F90CCA32D10780E00807A9F70F9465083F
:103990000D947E110C940000CF93DF9300D01F9202
:1039A000CDB7DEB744E050E0BC01CE0101960F94E4
:1039B0003A1169817A818B819C810F900F900F90D1
:1039C0000F90DF91CF9108958091EA0283FB8827C1
:1039D00080F90895179A0895169A0895159A0895EA
:1039E00088E493E0D9CFCF92DF92EF92FF92CF930A
:1039F000DF9300D01F921F92CDB7DEB76B017C0121
:103A000060936D0770936E0780936F0790937007B4
:103A10000E94EC73C982DA82EB82FC8244E050E0BF
:103A200065E773E0CE0101960F945C1123E0B701C6
:103A3000A6018CE595E00E94C5A00E9469CE682F82
:103A400088E690E06D830F944A116D81681721F02C
:103A500088E690E00F9465110F900F900F900F90F3
:103A60000F90DF91CF91FF90EF90DF90CF9008956E
:103A7000CF93DF931F92CDB7DEB7BC018DE793E004
:103A80000F9478110E9469CE682F88E690E06983D0
:103A90000F944A116981681739F088E690E00F9019
:103AA000DF91CF910D9465110F90DF91CF91089523
:103AB000CF93DF931F92CDB7DEB7BC018FE793E0C2
:103AC0000F9478110E9469CE682F88E690E0698390
:103AD0000F944A116981681739F088E690E00F90D9
:103AE000DF91CF910D9465110F90DF91CF910895E3
:103AF000CF93DF931F92CDB7DEB7BC0181E893E08F
:103B00000F9478110E9469CE682F88E690E069834F
:103B10000F944A116981681739F088E690E00F9098
:103B2000DF91CF910D9465110F90DF91CF910895A2
:103B3000CF93C82F80919C048823D1F010929C04CD
:103B40000E9411599091DF0291509093DF029111E0
:103B500009C08091E002833010F40E949E5885E0F5
:103B60008093DF026C2F8CE69AE0CF910C949DC974
:103B7000CF9108958091210C882349F00E948A9763
:103B800080E0D6DF8CE69AE00E949CC9F3CF0895CE
:103B90004F925F926F927F928F929F92AF92BF925D
:103BA000CF92DF92EF92FF920F931F93CF93DF9309
:103BB00000D01F92CDB7DEB78C018091E7079091BE
:103BC000E807A091E907B091EA0789839A83AB835C
:103BD000BC83C090EB07D090EC07E090ED07F0902D
:103BE000EE078090EF079090F007A090F107B0905B
:103BF000F2079C01AD01BC01CD010F942B0C81118A
:103C00000FC149805A806B807C80E89477F82FEF51
:103C10003FEF4FE75FE7C301B2010F942B0C811117
:103C20000BC02FEF3FEF4FE75FE7C301B2010F94E7
:103C3000D80818160CF4F4C0A7019601C701B60104
:103C40000F942B0C8111ECC026013701E89477F812
:103C50002FEF3FEF4FE75FE7C301B2010F942B0C4B
:103C600081110BC02FEF3FEF4FE75FE7C301B201B8
:103C70000F94D80818160CF4D3C0A5019401C501FF
:103C8000B4010F942B0C8111CBC024013501E894B1
:103C900077F82FEF3FEF4FE75FE7C301B2010F94D3
:103CA0002B0C81110BC02FEF3FEF4FE75FE7C301F4
:103CB000B2010F94D80818160CF4B2C02091BF07B7
:103CC0003091C0074091C1075091C20769817A8144
:103CD0008B819C810F9474082B013C012091C307B8
:103CE0003091C4074091C5075091C607C701B6017E
:103CF0000F9474086B017C012091C7073091C807AD
:103D00004091C9075091CA07C501B4010F947408C6
:103D10004B015C0180914708882329F020E732E4B9
:103D200041E25DE304C020E030E040E85FE3C3012E
:103D3000B2010F94800BAB01BC0122E089E893E251
:103D40000E9402A180914708882329F020E732E4ED
:103D500041E25DE304C020E030E040E85FE3C701FA
:103D6000B6010F94800BAB01BC0122E081E893E225
:103D70000E9402A180914708882329F020E732E4BD
:103D800041E25DE304C020E030E040E85FE3C501CC
:103D9000B4010F94800BAB01BC0123E08DE793E2EB
:103DA0000E9402A16091FF077091000880910108B4
:103DB000909102080F94AB09209143083091440878
:103DC00040914508509146080F94800B2091470878
:103DD000222329F020E732E441E25DE304C020E041
:103DE00030E040E85FE30F94800BAB01BC0124E0BE
:103DF00089E793E20F900F900F900F90DF91CF9192
:103E00001F910F91FF90EF90DF90CF90BF90AF90F8
:103E10009F908F907F906F905F904F900C94C5A073
:103E2000C8010E94E79E4ACFCF92DF92EF92FF92A5
:103E3000CF93DF93EC01893191053CF0C53F81E0E0
:103E4000D8072CF0C4EFD1E002C0C9E1D0E0BE0138
:103E5000882777FD8095982F0F94AB096B017C0123
:103E60006091F7067091F806882777FD8095982F66
:103E70000F94AB099B01AC01C701B6010F94DF0899
:103E80009B01AC016091F9067091FA068091FB06E6
:103E90009091FC060F94800B6093F9067093FA06DC
:103EA0008093FB069093FC06D093F806C093F70628
:103EB000BE018EE493E2DF91CF91FF90EF90DF900F
:103EC000CF900C94AB9FCF92DF92EF92FF926B0159
:103ED0007C0120E030E040E752E40F94D80887FDF1
:103EE00011C020E030E046E153E4C701B6010F9471
:103EF0000C0B18166CF4C12CD12C86E1E82E83E44F
:103F0000F82E06C0C12CD12C90E7E92E92E4F92EB0
:103F1000C0926D07D0926E07E0926F07F092700723
:103F200022E0B701A60185E393E2FF90EF90DF90D6
:103F3000CF900C94C5A08F929F92AF92BF92CF92D8
:103F4000DF92EF92FF92CF93DF93EC0189319105DD
:103F500034F0893C91052CF0C8ECD0E002C0C9E1F6
:103F6000D0E0D093F606C093F506E0918603F09179
:103F70008703E258FF4FC080D180E280F38020E0C9
:103F800030E0A901C701B6010F94D808AE01662739
:103F900057FD6095762F18165CF0CB01BA010F948F
:103FA000AB092AE037ED43E25CE30F94800B24C0B9
:103FB000CB01BA010F94AB092AE037ED43E25CE391
:103FC0000F94800B20E030E040E850E40F94800B29
:103FD0004B015C01A7019601C701B6010F94800B4C
:103FE0002BED3FE049E450E40F94800B9B01AC01C2
:103FF000C501B4010F94DF086093E5027093E602F7
:104000008093E7029093E802BE0180E493E2DF919F
:10401000CF91FF90EF90DF90CF90BF90AF909F90A7
:104020008F900C94AB9FCF93DF932091BB0797FDAC
:104030000DC0EC018F3F910519F014F0CFEFD0E0E7
:10404000209721F028602093BB0705C0277F20938D
:10405000BB07C0E0D0E061118DDD80917A1D90E05A
:10406000C817D90729F0BE018BE293E20E94AB9FEB
:10407000C0937A1DDF91CF9108954F925F926F9216
:104080007F928F929F92AF92BF92CF92DF92EF92E8
:10409000FF92CF93DF9300D01F92CDB7DEB72FE60C
:1040A00032E143E85AE36091DF067091E0068091C7
:1040B000E1069091E2060F94800B6B017C0181E890
:1040C00090E06ADC9B01AC01C701B6010F94740853
:1040D000AB01BC0122E089E193E20E9402A187E0EA
:1040E00093E20E94AD9EE0910A02F0910B0220E063
:1040F00030E040E751E463857485858596850F94AB
:104100000C0B18160CF46BC020E030E0A9018DE711
:1041100090E029833A834B835C830F9452114B01C7
:104120005C0129813A814B815C81820E931EA41E21
:10413000B51EC501B40120E831E541E050E00F941F
:10414000AC0C60E87EEA8EEF9FEF0F94470C6B019A
:104150007C01C80CD91CEA1CFB1CBA01A9018AE02D
:1041600093E20E94D19FC701B60120E13EE040E00A
:1041700050E00F94AC0C49015A01BA01A90180E04A
:1041800093E20E94D19FA0EFB1EFA50194010F949B
:10419000F50C6C0D7D1D8E1D9F1D2CE330E040E065
:1041A00050E00F94AC0CBA01A90188EF92E20E9492
:1041B000D19F83EF92E20F900F900F900F90DF91BD
:1041C000CF91FF90EF90DF90CF90BF90AF909F90F6
:1041D0008F907F906F905F904F900C94C69E0F943D
:1041E0000F03C090E306D090E406E090E506F0905F
:1041F000E6066C197D098E099F0928EE33E040E040
:1042000050E00F948A0C83CF811102C08EE207C068
:10421000813011F48DE203C0823019F48CE20D94E8
:1042200001020895EAE0F1E0808188608083808166
:10423000806180838081806280836CE370E08EE2A5
:104240000F9401026CE370E08DE20F94010262E8CA
:1042500070E08CE20F940102E1E2F1E08081887F5E
:1042600081608083089567FD43C08230E9F028F4BF
:10427000882341F0813061F03BC0833009F1843004
:1042800059F136C0662311F0A19A69C0A19867C0A0
:1042900080910801662311F0806801C08F778093B8
:1042A000080147FF3AC05FC080910801662311F002
:1042B000806401C08F7B8093080147FF34C055C0E4
:1042C00080910801662311F0886001C0877F809388
:1042D000080147FF32C046C080910501662311F0F6
:1042E000806401C08F7B8093050147FF2EC03CC0D6
:1042F00047FD3BC08230B9F028F4882341F081307B
:1043000061F008958330C9F08430F9F008954423B2
:1043100011F0A09A0895A0980895442311F0A29A4C
:104320000895A298089580910801442311F08062B5
:1043300001C08F7D80930801089580910801442376
:1043400011F08061F7CF8F7EF5CF80910501442376
:1043500011F0806401C08F7B80930501089547FFB1
:10436000D6CF08950895089508950895643079F09A
:1043700028F4613041F0623041F00895683051F026
:10438000603141F0089540E003C040E004C041E0E6
:1043900060E002C041E061E066CFCF93DF9384ED3F
:1043A00092E20E94C69E62B36695617070E089E8F1
:1043B00093E20E949F9F62B3617070E081EF92E28E
:1043C0000E94AB9FC6E0D1E08881992787FD909538
:1043D000692F661F6627661F70E08CEE92E20E94CE
:1043E0009F9F62B362FB662760F970E081EF92E203
:1043F0000E94AB9F688166FB662760F970E089EEDA
:1044000092E20E949F9F688165FB662760F970E0D9
:1044100081EF92E20E94AB9F688163FB662760F99F
:1044200070E085EE92E20E949F9F688162956170C4
:1044300070E081EF92E20E94AB9FC3E0D1E068811F
:1044400066FB662760F970E081EE92E20E949F9F12
:10445000688166FB662760F970E081EF92E2DF9188
:10446000CF910C94AB9FFF920F931F93CF93DF9349
:1044700000D01F921F92CDB7DEB785E0E7E4F3E0EE
:10448000DE01119601900D928A95E1F7989A9A9A19
:10449000809107018062809307018091070180610C
:1044A00080930701809104018064809304018E0150
:1044B0000F5F1F4FF12CF80161918F018F2D56DF97
:1044C000F394F5E0FF12F7CF0F900F900F900F903D
:1044D0000F90DF91CF911F910F91FF9008950C9451
:1044E00002DA0E94EDD92091080230910902821768
:1044F000930724F490930902809308020895609131
:1045000008027091090280910602909107026817D3
:10451000790744F470930702609306028CE893E2F3
:104520000C94AB9F0895CF93C82F69E170E085E8A4
:104530009DE10E94DFFF6C2F85E89DE10E9480FFD6
:1045400060E085E89DE10E94E0FF882329F081E892
:104550009CE0CF910C94C69ECF910895CF93DF93AA
:10456000D82FC62F69E170E085E89DE10E94DFFF4A
:104570006D2F85E89DE10E9480FF6C2F85E89DE10D
:104580000E9480FF85E89DE10E94F2FF882331F0C0
:1045900082E69CE0DF91CF910C94C69EDF91CF9193
:1045A00008951F93CF93DF93182FBDDF41E050E0B4
:1045B00069E170E085E89DE10E94D3FF85E89DE117
:1045C0000E9429FF892BA1F085E89DE10E9431FF1F
:1045D000EC01612F70E088E59CE00E949F9FBE0186
:1045E00077278FE49CE0DF91CF911F910C94AB9FD4
:1045F00081E39CE0DF91CF911F910C94C69E8CE0EB
:104600009CE00E94C69E85E89DE10E94BEFF8FE06F
:10461000C8DF81E3C6DF80E2C4DF6CE980E29EDFB1
:1046200080E2BFDF82E2BDDF60E482E297DF82E208
:10463000B8DF85E2B6DF60E085E290DF85E2B1DFDA
:1046400083E2AFDF60E383E289DF83E2AADF84E213
:10465000A8DF6AE484E282DF84E2A3DF80E3A1DFF3
:1046600060E280E37BDF80E39CDF81E39ADF82E32B
:1046700098DF64E182E372DF82E393DF83E391DF1B
:1046800060E083E36BDF83E38CDF84E38ADF60E059
:1046900084E364DF84E385DF86E383DF62E386E32C
:1046A0005DDF86E37EDF87E37CDF60E087E356DF64
:1046B00087E377DF88E375DF60E188E34FDF88E336
:1046C00070DF89E36EDF8AE36CDF62E38AE346DF53
:1046D0008AE367CF81E365DF85E363DF89E361DF39
:1046E0008DE25FCF6DE08FE29BE00E94A1D86AE08F
:1046F0008FE29BE00C94A1D8CF93C82FE091860362
:10470000F091870342A953A964A975A922E086E71D
:1047100093E20E9402A1E0918603F091870346A9EB
:1047200057A960AD71AD20E08DE593E20E9402A132
:104730000E94A250AB01BC0122E082E793E20E94FA
:1047400002A14091190250911A0260911B027091CE
:104750001C0220E08DE593E20E9402A1CC2391F09F
:1047600061E070E084E693E20E949F9F6CEF7FE03F
:104770008091110290911202681B790B82E693E2FC
:104780000E949F9FE0910E02F0E0E958F24E608196
:1047900070E089E693E20E949F9FE091DE02EF3F86
:1047A00029F4E0918603F0918703E081F0E0E95875
:1047B000F24E608170E08EE693E20E949F9FCF915F
:1047C00091CF2F923F924F925F926F927F928F92F2
:1047D0009F92AF92BF92CF92DF92EF92FF920F9390
:1047E0001F93CF93DF93CDB7DEB729970FB6F89419
:1047F000DEBF0FBECDBF5C01DC0116968D919C9192
:1048000017978C38910509F48AC608F0E7C08235FD
:10481000910509F42FC408F08AC08A31910509F482
:10482000D1C208F03FC08531910509F449C278F43E
:104830008231910509F423C28431910509F424C21F
:10484000419711F00C94E03417981698D0C5873131
:10485000910509F46DC208F44FC28831910509F43D
:1048600095C2499711F00C94E03460E088E199E03A
:1048700029960FB6F894DEBF0FBECDBFDF91CF9162
:104880001F910F91FF90EF90DF90CF90BF90AF906E
:104890009F908F907F906F905F904F903F902F9060
:1048A0000C947F9A8E31910509F4E9C218F58C3188
:1048B000910509F4BCC210F00C94193588E199E017
:1048C00029960FB6F894DEBF0FBECDBFDF91CF9112
:1048D0001F910F91FF90EF90DF90CF90BF90AF901E
:1048E0009F908F907F906F905F904F903F902F9010
:1048F0000C94C69D8A32910509F41BC328F4809755
:1049000009F4EAC20C94E0348035910509F49DC3A2
:104910008135910511F00C94E0342CD99B9A80914B
:10492000BD078F7B8093BD07A39A0C9419358B36F6
:10493000910511F40C94122E38F58C35910509F47B
:10494000A4C460F48435910509F49DC308F496C3AA
:104950008535910509F475C40C94E03488369105C9
:1049600009F448C530F48336910509F4F2C40C9477
:10497000E0348936910509F425C68A36910511F48B
:104980000C94012E0C94E0348337910511F40C94AF
:10499000632E80F48F36910511F40C94332E8237F8
:1049A000910511F40C94812E8D36910511F00C9423
:1049B000E0342AC68537910511F40C94842E10F446
:1049C0000C948B2D8737910511F40C94AF2E8837FA
:1049D000910511F40C94F22E0C94E0348530B1E082
:1049E0009B0711F40C94003208F0B0C08F3C910585
:1049F00011F40C949A3008F041C08A3C910511F4EE
:104A00000C94C92F70F4883C910511F40C94182F64
:104A100010F00C946B2F8E3B910509F4CBC70C94CE
:104A2000E0348C3C910511F40C94203010F40C947B
:104A30000E308D3C910511F40C9480308E3C910524
:104A400011F00C94E034C50129960FB6F894DEBF3E
:104A50000FBECDBFDF91CF911F910F91FF90EF90CF
:104A6000DF90CF90BF90AF909F908F907F906F908E
:104A70005F904F903F902F900C940AD58F3D9105F9
:104A800011F40C94553188F48C3D910511F40C947B
:104A900002318D3D910511F40C942A31813D91052F
:104AA00011F00C94E0340C94E230893E910511F43D
:104AB0000C946A3140F5883E910511F00C94E03475
:104AC00060917F1D7091801D8DE892E20E949F9FF2
:104AD00040917B1D50917C1D60917D1D70917E1DCC
:104AE00022E084E892E20E94C5A01092801D1092FC
:104AF0007F1D10927B1D10927C1D10927D1D1092C7
:104B00007E1D0C9419358B3F910511F40C94A33143
:104B10008430914011F00C94E03429960FB6F8944B
:104B2000DEBF0FBECDBFDF91CF911F910F91FF90E0
:104B3000EF90DF90CF90BF90AF909F908F907F903D
:104B40006F905F904F903F902F9059CD8E3521E020
:104B5000920711F40C945833C0F58E3241E094075B
:104B600011F40C94A33298F48931A1E09A0711F45E
:104B70000C9458328C32B1E09B0711F40C946832DB
:104B80008630914011F00C94E0340C942232803441
:104B9000F1E09F0711F40C94163338F48F329140F2
:104BA00011F40C94E2320C94E034813441E0940727
:104BB00011F40C941A338234914011F00C94E034C7
:104BC00080E00E9475870C942F338239A1E09A0708
:104BD00011F40C94433498F58836E1E09E0711F403
:104BE0000C940F3438F48336914011F40C94C9338B
:104BF0000C94E034803931E0930711F40C9429349B
:104C00008139914011F00C94E03429960FB6F89454
:104C1000DEBF0FBECDBFDF91CF911F910F91FF90EF
:104C2000EF90DF90CF90BF90AF909F908F907F904C
:104C30006F905F904F903F902F900C949885853F98
:104C400051E0950711F40C94733460F4843F914063
:104C500011F00C94E03480E00E9480CE86EF9DE15C
:104C60000C947E34863FE1E09E0711F40C94983456
:104C70008C38934011F40C94B2340C94E0340E94BC
:104C8000EA1C0E94EC1C8CC288E199E029960FB6C0
:104C9000F894DEBF0FBECDBFDF91CF911F910F9172
:104CA000FF90EF90DF90CF90BF90AF909F908F904C
:104CB0007F906F905F904F903F902F900C940F9D3E
:104CC00088E199E029960FB6F894DEBF0FBECDBFFC
:104CD000DF91CF911F910F91FF90EF90DF90CF90D8
:104CE000BF90AF909F908F907F906F905F904F900C
:104CF0003F902F900C94039A88E199E029960FB683
:104D0000F894DEBF0FBECDBFDF91CF911F910F9101
:104D1000FF90EF90DF90CF90BF90AF909F908F90DB
:104D20007F906F905F904F903F902F900C94089AD7
:104D3000D5018D919C9197FD02C00C94193560E0CE
:104D400088E199E00E943366F501EE5AFF4F6081D9
:104D5000718140E088E199E029960FB6F894DEBFB2
:104D60000FBECDBFDF91CF911F910F91FF90EF90BC
:104D7000DF90CF90BF90AF909F908F907F906F907B
:104D80005F904F903F902F900C94409D88E199E068
:104D900029960FB6F894DEBF0FBECDBFDF91CF913D
:104DA0001F910F91FF90EF90DF90CF90BF90AF9049
:104DB0009F908F907F906F905F904F903F902F903B
:104DC0000C946E9AF5018081918192FD02C00C9441
:104DD0001935468D578D60A171A180918209882374
:104DE00011F40C9419354093790950937A09609322
:104DF0007B0970937C0988E599E029960FB6F894B1
:104E0000DEBF0FBECDBFDF91CF911F910F91FF90FD
:104E1000EF90DF90CF90BF90AF909F908F907F905A
:104E20006F905F904F903F902F900C947964D501D4
:104E30008D919C9197FD02C00C941935F501EE5AA5
:104E4000FF4F6081718188E199E029960FB6F8944F
:104E5000DEBF0FBECDBFDF91CF911F910F91FF90AD
:104E6000EF90DF90CF90BF90AF909F908F907F900A
:104E70006F905F904F903F902F900C94E79DF501BD
:104E80008081918197FD02C00C94193560E088E122
:104E900099E00E943366F501EE5AFF4F60817181FF
:104EA00088E199E029960FB6F894DEBF0FBECDBF1A
:104EB000DF91CF911F910F91FF90EF90DF90CF90F6
:104EC000BF90AF909F908F907F906F905F904F902A
:104ED0003F902F900C94499ED5018D919C9197FD08
:104EE00002C00C94193560E088E199E00E943366B5
:104EF000F501EE5AFF4F6081718188E199E02996B2
:104F00000FB6F894DEBF0FBECDBFDF91CF911F91DA
:104F10000F91FF90EF90DF90CF90BF90AF909F9058
:104F20008F907F906F905F904F903F902F900C9458
:104F3000779EF5012081318133FD02C00C94193533
:104F400012A1E12EF3A0EFE9FCE0449150E04E15F0
:104F50005F0509F45EC032964DE0E331F407A9F72E
:104F6000F7FC57C032FF2CC0D5015E964D915D9184
:104F70006D917C9191974F3F51056105710509F045
:104F8000E0F461E0812F0F942304F501668D812FF9
:104F90000F945C04D5015E966D917C915F97812F93
:104FA0000F940102B70187EC92E20E949F9FF501E6
:104FB000668D778D82EC92E212C083EF94E02BC075
:104FC00062E0812F0F942304B70182EC92E20E94E9
:104FD0009F9F812F0F949104BC018DEB92E2299643
:104FE0000FB6F894DEBF0FBECDBFDF91CF911F91FA
:104FF0000F91FF90EF90DF90CF90BF90AF909F9078
:105000008F907F906F905F904F903F902F900C9477
:10501000AB9F8DEB94E029960FB6F894DEBF0FBEE0
:10502000CDBFDF91CF911F910F91FF90EF90DF9057
:10503000CF90BF90AF909F908F907F906F905F9038
:105040004F903F902F900C94E79E0E94BA1D0F94B2
:105050000F036093811D7093821D8093831D909335
:10506000841D9B9A8091BD0780648093BD07A3989F
:105070000C941935109203080C94193581E0809333
:1050800003080C941935D5018D919C91119792FFCD
:1050900014C05E962D913D914D915C919197A8EE33
:1050A000B3E00F94E90C60933E0370933F03809349
:1050B0004003909341030C94193593FFA5C0F5016B
:1050C00082A193A1A4A1B5A182309105A105B1054A
:1050D00009F466C02CF50097A105B10509F446C096
:1050E0000197A105B10511F00C94193529960FB659
:1050F000F894DEBF0FBECDBFDF91CF911F910F910E
:10510000FF90EF90DF90CF90BF90AF909F908F90E7
:105110007F906F905F904F903F902F900C94EC1C7D
:1051200083309105A105B10509F454C00497A10588
:10513000B10511F00C94193529960FB6F894DEBF1D
:105140000FBECDBFDF91CF911F910F91FF90EF90D8
:10515000DF90CF90BF90AF909F908F907F906F9097
:105160005F904F903F902F900C94B95029960FB6B6
:10517000F894DEBF0FBECDBFDF91CF911F910F918D
:10518000FF90EF90DF90CF90BF90AF909F908F9067
:105190007F906F905F904F903F902F900C94EA1CFF
:1051A00029960FB6F894DEBF0FBECDBFDF91CF9129
:1051B0001F910F91FF90EF90DF90CF90BF90AF9035
:1051C0009F908F907F906F905F904F903F902F9027
:1051D0000C94EE1C29960FB6F894DEBF0FBECDBF1F
:1051E000DF91CF911F910F91FF90EF90DF90CF90C3
:1051F000BF90AF909F908F907F906F905F904F90F7
:105200003F902F900C94AB500E94BA1D81E02996DC
:105210000FB6F894DEBF0FBECDBFDF91CF911F91C7
:105220000F91FF90EF90DF90CF90BF90AF909F9045
:105230008F907F906F905F904F903F902F900C9445
:105240007D73D5018D919C91119792FF14C05E964C
:105250002D913D914D915C919197A8EEB3E00F9403
:10526000E90C60934203709343038093440390934B
:1052700045030C9419351092420310924303109287
:105280004403109245030C941935F501808183FF86
:105290000CC082859385A485B58580932703909360
:1052A0002803A0932903B0932A03D5018C9184FF8E
:1052B0000EC01E968D919D910D90BC91A02D809356
:1052C0002B0390932C03A0932D03B0932E03F50191
:1052D000808185FF0CC082899389A489B5898093D8
:1052E0002F0390933003A0933103B09332030E94B5
:1052F000EC73D5018C9186FD02C00C941935209178
:1053000086033091870356968D919D910D90BC91A7
:10531000A02DF90181879287A387B4878081299680
:105320000FB6F894DEBF0FBECDBFDF91CF911F91B6
:105330000F91FF90EF90DF90CF90BF90AF909F9034
:105340008F907F906F905F904F903F902F900C9434
:10535000E84ED501ED91FC911197F2FF0DC05E96DC
:105360002D913D914D915C919197A8EEB3E00F94F2
:10537000E90C6B017C0106C040E1C42E47E2D42E4B
:10538000E12CF12CE3FD0E94EA1CF501808184FDF3
:105390000E94EC1CD5018C9185FD0E94EE1C0F949F
:1053A0000F032B013C014C0C5D1C6E1C7F1C0F94E9
:1053B0000F03A3019201261B370B480B590BDA018F
:1053C000C901803A9648A140B10518F40E94E278DC
:1053D000EECFD5018C9183FD1798F501808184FD76
:1053E0001698D5018C9185FD02C00C94193515983D
:1053F0000C9419350E94CF5881110C9419350F94D3
:105400000F036093811D7093821D8093831D909381
:10541000841D0E94E41C81110C941935F5018081D2
:10542000918193FF02C00C94033592FF0AC0868DD0
:10543000978DA0A1B1A1892B8A2B8B2B11F40C94F1
:105440000335D5018D919C91119792FD02C00C946A
:1054500019359C012227317091FF23C0232B89F03D
:1054600011E020E030E0A9015A966D917D918D9177
:105470009C915D970F940C0B18160CF010E0212FE7
:1054800001C020E085010C5A1F4FF501668D778D14
:1054900080A191A129870F94AB092985D8014C914E
:1054A00024C0232B81F011E020E030E0A901F501B8
:1054B000628D738D848D958D0F940C0B18160CF0E6
:1054C00010E0212F01C020E0009186031091870396
:1054D000D5015E966D917D918D919C9191972987D3
:1054E0000F94AB092985F801408129960FB6F894ED
:1054F000DEBF0FBECDBFDF91CF911F910F91FF9007
:10550000EF90DF90CF90BF90AF909F908F907F9063
:105510006F905F904F903F902F900C941F540E947B
:10552000CF5881110C9419350F940F036093811D8E
:105530007093821D8093831D9093841D0E94E41CB0
:1055400081110C941935D5018D919C91119792FD83
:1055500002C00C94193590FF11C011E020E030E03A
:10556000A9015A966D917D918D919C915D970F94B3
:105570000C0B18160CF010E0412F01C040E0F501B3
:10558000668D778D80A191A149870F94AB094985DC
:1055900029960FB6F894DEBF0FBECDBFDF91CF9135
:1055A0001F910F91FF90EF90DF90CF90BF90AF9041
:1055B0009F908F907F906F905F904F903F902F9033
:1055C0000C94E854D5018D919C9133E09695879584
:1055D0003A95E1F7817029960FB6F894DEBF0FBEB9
:1055E000CDBFDF91CF911F910F91FF90EF90DF9092
:1055F000CF90BF90AF909F908F907F906F905F9073
:105600004F903F902F9078C80E94CF5881110C94F2
:1056100019350F940F036093811D7093821D809341
:10562000831D9093841D0E94E41C81110C941935F4
:1056300040E06CEA74E08CE69AE00E94BCAA8CE63A
:105640009AE00E9410AE0E94BA1D2090860330900E
:105650008703F5018081918191FF09C0EC5AFF4FCA
:105660002081211104C02BE5222E22E0322E92FF50
:105670001EC090FF0FC011E020E030E0A901D5016D
:105680005A966D917D918D919C915D970F940C0B25
:1056900018160CF010E0F501668D778D80A191A1B0
:1056A0000F94AB09212FD1014C910E941F54F1019D
:1056B00026A937A940AD51AD62A973A984A995A9BE
:1056C0000F9473082B013C0120E030E0A9010F94F6
:1056D0000C0B181664F420E030E040EA50E4C301FB
:1056E000B2010F94D80887FF0EC00C94193520E042
:1056F00030E040EA50ECC301B2010F940C0B1816D5
:1057000014F40C94193599249394D101D0962D91C9
:105710003C91D1979E968D919C919F97821793076C
:105720000CF0912C0F940F036D837E838F839887E9
:1057300010E0412C512C32010F940F0369837A83BE
:105740008B839C836093811D7093821D8093831D46
:105750009093841DDC01CB012D813E814F815885C2
:10576000821B930BA40BB50B893E9340A105B10599
:1057700058F080E00E947C2389819A81AB81BC81B2
:105780008D839E83AF83B88781E00E94981D8091AE
:105790008603909187032816390609F064C0D10169
:1057A0009396ED90FC9094971E141F040CF05BC030
:1057B000111158C0992009F477C091966D917C9190
:1057C0009297882777FD8095982F0F94AB099B01BE
:1057D000AC01F10162A973A984A995A90F940C0BDE
:1057E000181614F00C941035662777276E197F0968
:1057F000882777FD8095982F0F94AB09209133036C
:105800003091340340913503509136030F94800B4F
:105810000F9478091F921F92D10152962C915297A2
:105820002F9351962C9151972F9350962C915097DE
:105830002F931F962C912F935B016C01E12CF12C7F
:10584000870120E030E0A90160E070E0CB010E9418
:1058500030F70F900F900F900F900F900F9011E076
:105860000C94103511E0411451046104710409F0E5
:1058700050C09920F1F020E030E040E85FE3F10112
:1058800066A977A980AD91AD0F9473089B01AC0117
:10589000D101D2966D917D918D919C91D5970F9468
:1058A0000C0B87FF1FC045CF4114510461047104E4
:1058B00081F520E030E040E85FE3F10166A977A9D7
:1058C00080AD91AD0F9474089B01AC01D101D296CB
:1058D0006D917D918D919C91D5970F94D808181654
:1058E0000CF427CFF101A78DB0A128EE33E00F947F
:1058F000E30C2B013C0129813A814B815C81420EF2
:10590000531E641E751E411451046104710409F490
:1059100013CFD301C20129813A814B815C81821B63
:10592000930BA40BB50B81159449A543B74708F415
:1059300003CF112309F4E2C080918603909187037D
:105940002816390609F0DAC0D10193966D917C9141
:105950009497882777FD8095982F0F94AB09209115
:1059600033033091340340913503509136030F9443
:10597000800B0F9478091F921F92F10122892F93B7
:1059800021892F9320892F9327852F935B016C0109
:10599000E12CF12C870120E030E0A90160E070E00B
:1059A000CB010E9430F70F900F900F900F900F9047
:1059B0000F90A4C00E94E41C81110C94193540E0A2
:1059C00060EA74E08CE69AE00E94BCAA8CE69AE059
:1059D0000E9410AE0E94BA1DD5018D919C91119725
:1059E00092FF1FC090FF11C011E020E030E0A9013C
:1059F0005A966D917D918D919C915D970F940C0BB2
:105A000018160CF010E0412F01C040E0F501668D42
:105A1000778D80A191A149870F94AB0949850E9498
:105A2000E8542091190230911A0240911B025091C2
:105A30001C026091150270911602809117029091DC
:105A400018020F9473082B013C0120E030E0A901FB
:105A50000F940C0B18165CF420E030E040EA50E4A0
:105A6000C301B2010F94D80887FF0CC0E2C720E041
:105A700030E040EA50ECC301B2010F940C0B181651
:105A80000CF4D7C70F940F032B013C0120E030E04A
:105A900040E05FE360911502709116028091170259
:105AA000909118020F9474082091190230911A02F3
:105AB00040911B0250911C020F94D80887FF1EC012
:105AC0000F940F036419750986099709693E73409D
:105AD0008105910578F080E00E947C230F940F03EC
