:100000000C94171C0C94481C0C94481C0C94481C11
:100010000C94481C0C94481C0C94481C0C94481CD0
:100020000C94481C0C94481C0C94481C0C94481CC0
:100030000C94481C0D94C2070C94481C0C94481C4A
:100040000C94481C0C948F750C94481C0C94481C00
:100050000C94481C0C9410770C9432760D94B001DB
:100060000C94481C0C9468770C9492770C94481C60
:100070000C94481C0C94481C0C94481C0C94481C70
:100080000C94481C0C94481C0C94481C0C94481C60
:100090000C94481C0C94481C0C94481C0D94820031
:1000A0000C94481C0C94481C0C94481C0C94481C40
:1000B0000C94481C0C94481C0C94481C0C94481C30
:1000C0000C94481C0C94481C0C94481C0C94481C20
:1000D0000C94481C0C94481C0C94481C0C94481C10
:1000E0000C94481CBE6ED66ED66ED66ED66ED66E8C
:1000F000D66ED66ED66ED66ED66ED66ED66ED66EE0
:10010000D66ED66ED66ED66ED66ED66ED66ED66ECF
:10011000D66ED66ED66ED66EAD6E5F6E696EE36DC0
:10012000D66E8F6E996ED66ED66EF46DD16DD66E1C
:10013000856ED66EA36E7B6E736ED66ED66ED66EE1
:10014000416E4B6E556ED66ED66ED66ED66ED66E30
:10015000D66ED66ED66ED66EAD6E5F6E696EE36D80
:10016000D66E8F6E996ED66ED66EF46DD16DD66EDC
:10017000856ED66EA36E7B6E736ED66ED66ED66EA1
:10018000416E4B6E556EBAE54BE6DEE62FE8C9F6DA
:10019000C9F6C9F6C9F6C9F6C9F6C9F6C9F6C9F667
:1001A00077E7B3E7F1E7C9F6C9F6C9F6C9F6C9F6C4
:1001B000C9F6C9F6C9F6C9F6C9F6C9F655EBB7EBE3
:1001C00017EC77ECD7EC37ED97EDC9F613F21BEE91
:1001D00091EE04EF76EFE8EF5AF0CCF039F1A6F1AA
:1001E000C9F6C9F6C9F6C9F6C9F6D8E9A5EAFBE920
:1001F0005BF2C8F234F3A1F3C2F304F436F468F40A
:10020000C1F41CF575F5CEF5EFF5E3F3C9F6C9F6C3
:10021000C9F6C9F6C9F6C9F6C9F6C9F6C9F6C9F6E6
:10022000C9F6C9F679E9A8E9C9F6C9F6C9F6C9F661
:10023000C9F6C9F6C9F6C9F671F6C9F674EAC9F67F
:10024000C9F6C9F619F647F6C9F6C9F6C9F6C9F6E8
:10025000ADE5C9F6C9F672E815E959E9FDEAA60166
:100260009C017C01A8017A01920198019601AA01E2
:1002700090018E01A4018A0188019201A201B001BE
:10028000B8018C017601AC019A01820186019E01C0
:10029000B2017801B4017E01A001B601940186018A
:1002A000BA01AE01840107634236B79BD8A71A3959
:1002B000685618AEBAAB558C1D3CB7CC5763BD6DB4
:1002C000EDFD753EF6177231BF000000803F05A8B6
:1002D0004CCDB2D44EB93836A9020C50B9918688AB
:1002E000083CA6AAAA2ABE000000803F0D949A03EB
:1002F0000D94A8030D94FC020D94E8020D94B00334
:100300000D9476040D9493030D94CC030D94D103B6
:100310000D944D030D9443030D9497030D942A03FC
:100320000D9420030D9475030D94BE030D940E03DC
:100330000D9406030D948D030D94E3020D949E031A
:100340000D94B6030D9457030D9434030D94DE02FF
:100350000D94F2020D9416030D9489030D94C803B5
:100360000D9461030D94A2030D94AC030D94BA0394
:100370000D946B030D94C403436F6C642065787413
:10038000727573696F6E20646973616C6C6F7765E9
:100390006400436F6C6420657874727573696F6E66
:1003A00020616C6C6F776564004175746F72657461
:1003B000726163743A0053657474696E67206D6F7F
:1003C000746F722063757272656E742E2E2E0053D8
:1003D0006574204D6963726F7374657070696E67C0
:1003E0000054726967676572696E6720776174632C
:1003F00068646F672E204966206163746976617452
:1004000065642C20746865207072696E7465722052
:1004100077696C6C2072657365742E005365747413
:10042000696E67205468726573686F6C6420546FDE
:100430003A00494E542050494E3A20004D32353151
:10044000200020746F200053657420766F6C756DEA
:10045000657472696320657874727573696F6E2054
:10046000666F7220657874727564657220004469E5
:100470007361626C656420766F6C756D657472690A
:100480006320657874727573696F6E20666F722071
:10049000657874727564657220004D3131342000C6
:1004A00048656174696E67204265640048656174DF
:1004B000696E672045787472756465720050696E64
:1004C0002063616E206E6F742062652073657420F6
:1004D0006279204D34322C206D617920696E20695B
:1004E0006E76616C6964206F7220696E2075736529
:1004F0002E2000496C6C6567616C20532076616C1E
:10050000756520666F72204D3432005A20284329C9
:1005100020746F77657220666C6F6F7220736574DC
:1005200020746F3A2000592028422920746F776583
:100530007220666C6F6F722073657420746F3A203E
:1005400000582028412920746F77657220666C6FEF
:100550006F722073657420746F3A2000526F6420AC
:100560005261646975732073657420746F3A20005A
:10057000473133342000506F7346726F6D5374658A
:1005800070733A00436F6D7044656C74613A004358
:10059000616C6962726174696F6E206D6F76656DF2
:1005A000656E74206973206C696D6974656420746C
:1005B0006F2031306D6D2E004669727374206D6F3F
:1005C000766520746F20746F75636820617420787D
:1005D0002C793D302C3020746F206175746F2D7331
:1005E0006574207261646975732E0043616C696281
:1005F000726174696F6E206D6F76656D656E7420C3
:100600006973206C696D6974656420746F20313082
:100610006D6D2E0043616E6E6F7420736574207271
:10062000616469757320616E6420666C6F6F7220FF
:1006300061742073616D652074696D652E0043617E
:100640006C6962726174696F6E20636F64652069A2
:1006500073206C696D6974656420746F20626F74B7
:10066000746F6D20313025206F66205A20686569CF
:100670006768740052656C617469766520706F7389
:100680006974696F6E696E67004162736F6C75742F
:100690006520706F736974696F6E696E67004736A5
:1006A0003920005A3A2000593A2000583A20004F89
:1006B000464653455453204F464620425920544FF6
:1006C0004F204D554348205F20545259494E4720F2
:1006D000414741494E3A200053657474696E672062
:1006E00050726F62652053656E73697469766974C0
:1006F0007920546F3A005A2070726F6265206661EB
:10070000696C6564206F6E2073656E7369746976B9
:100710006974793A200053657474696E6720507269
:100720006F62652053656E736974697669747920A8
:10073000546F3A005A2070726F6265206661696C6E
:100740006564206F6E2073656E7369746976697471
:10075000793A200053657474696E672050726F6235
:10076000652053656E736974697669747920546F76
:100770003A005A2070726F6265206661696C656428
:10078000206F6E2073656E73697469766974793A47
:10079000200068656865004E657720526164697560
:1007A000733A20004F6C64205261646975733A207B
:1007B0000043616C63756C617465642052616469A7
:1007C000757320697320626164203A005365747404
:1007D000696E672050726F62652053656E7369742D
:1007E000697669747920546F3A005A2070726F628A
:1007F00065206661696C6564206F6E2073656E7339
:10080000697469766974793A200053657474696E05
:10081000672050726F62652053656E7369746976E4
:1008200069747920546F3A005A2070726F626520A3
:100830006661696C6564206F6E2073656E736974A0
:1008400069766974793A2000473332200050524F5C
:1008500042452D5A4F46465345543A0047333000DF
:1008600053657474696E672050726F6265205365BA
:100870006E736974697669747920546F3A005072A6
:100880006F62657320646F206E6F74206D61746396
:10089000682E204F666620627920004733302000A2
:1008A0004D3131372043414C4942524154494F4E1A
:1008B00020434F4D504C4554450068656865004ED7
:1008C000657720486F72697A6F6E74616C2052612F
:1008D000646975733A20004F6C6420486F72697ABE
:1008E0006F6E74616C205261646975733A200043C5
:1008F000616C63756C6174656420526164697573C1
:10090000206973206261643A200053657474696ED3
:10091000672050726F62652053656E7369746976E3
:1009200069747920546F3A005A2070726F626520A2
:100930002843656E74657220506F696E7429206655
:1009400061696C6564206F6E2073656E736974698C
:10095000766974793A20004E6577205A2048656997
:100960006768743A004F6C64205A2048656967686C
:10097000743A0053657474696E672050726F6265D3
:100980002053656E736974697669747920546F3A7F
:10099000005A2070726F6265202843656E7465721C
:1009A00020506F696E7429206661696C6564206FE0
:1009B0006E2073656E73697469766974793A200084
:1009C00047363920005A3A2000593A2000583A2038
:1009D000004F464653455453204F46462042592027
:1009E000544F4F204D554348202D20545259494EC5
:1009F0004720414741494E3A200053657474696E5F
:100A0000672050726F62652053656E7369746976F2
:100A100069747920546F3A005A2070726F626520B1
:100A2000285A20546F77657229206661696C656465
:100A3000206F6E2073656E73697469766974793A94
:100A4000200053657474696E672050726F62652070
:100A500053656E736974697669747920546F3A00CE
:100A60005A2070726F626520285920546F77657222
:100A700029206661696C6564206F6E2073656E73F2
:100A8000697469766974793A200053657474696E83
:100A9000672050726F62652053656E736974697662
:100AA00069747920546F3A005A2070726F62652021
:100AB000285820546F77657229206661696C6564D7
:100AC000206F6E2073656E73697469766974793A04
:100AD0002000473420533130004D31303420533022
:100AE0000A4D3134302053300A4D313037006578AB
:100AF000656375746547436F6465202F2071756564
:100B0000756544656C74614D6F76652072657475AA
:100B1000726E73206572726F7200696973326468F5
:100B200020616363656C65726F6D657465722069C1
:100B30006E697469616C697A696E672E2E2E006128
:100B40006363656C65726F6D65746572206932638D
:100B50002072656376206572726F722E0020766156
:100B60006C75653A200072656164207265672000CB
:100B7000616363656C65726F6D6574657220777211
:100B800069746520693263206572726F722E00612C
:100B90006363656C65726F6D657465722073656EF5
:100BA0006420693263206572726F722E000000014A
:100BB00000250030001D000C001E00240031001C28
:100BC000000B00180023002F001B000A0017000D67
:100BD0000047000300040022002B001A00410042DD
:100BE00000000002003500457874722E00436F6EDD
:100BF0006669673A004F6E652068656174657220AA
:100C00007365656D73206465636F75706C656420D2
:100C100066726F6D20746865726D6973746F72208F
:100C20002D2064697361626C696E6720616C6C2051
:100C3000666F72207361666574792100486561741E
:100C40006572206465636F75706C656400437265DE
:100C50006174696F6E206661696C656400446972D5
:100C60006563746F727920637265617465640044B2
:100C7000656C6574696F6E206661696C65640046B9
:100C8000696C652064656C6574656400446F6E65AD
:100C900020736176696E672066696C652E005772F5
:100CA0006974696E6720746F2066696C653A20000C
:100CB0006F70656E206661696C65642C2046696C96
:100CC000653A20004E6F74205344207072696E7430
:100CD000696E67005344207072696E74696E672094
:100CE00062797465200066696C652E6F70656E2090
:100CF0006661696C65640046696C652073656C6546
:100D000063746564002053697A653A0046696C65CE
:100D1000206F70656E65643A00456E642066696C8C
:100D200065206C69737400426567696E2066696C42
:100D300065206C697374006572726F7220777269D6
:100D400074696E6720746F2066696C650053442077
:100D5000696E6974206661696C00616476616E63B6
:100D600065204C205B303D6F66665D00657874726F
:100D70007564657220636F6F6C6572207370656552
:100D800064205B302D3235355D0064697374616EAB
:100D9000636520746F207265747261637420776874
:100DA000656E2068656174696E67205B6D6D5D00BE
:100DB00074656D702E20666F722072657472616347
:100DC00074696F6E207768656E2068656174696EFE
:100DD00067205B435D0074656D702E2073746162E3
:100DE000696C697A652074696D65205B735D005973
:100DF0002D6F6666736574205B73746570735D0038
:100E0000582D6F6666736574205B73746570735DCF
:100E100000504944206D61782076616C7565205BD7
:100E2000302D3235355D0050494420442D676169CD
:100E30006E0050494420492D6761696E0050494455
:100E400020502D6761696E2F646561642D74696D32
:100E50006500504944206472697665206D696E00B2
:100E6000504944206472697665206D617800686538
:100E70006174206D616E61676572205B302D335D3A
:100E800000616363656C65726174696F6E205B6D90
:100E90006D2F735E325D00737461727420666565D8
:100EA0006472617465205B6D6D2F735D006D617898
:100EB0002E206665656472617465205B6D6D2F73AD
:100EC0005D00737465707320706572206D6D0042F3
:100ED000656420504944206D61782076616C7565A9
:100EE000205B302D3235355D004265642050494429
:100EF00020442D6761696E0042656420504944209A
:100F0000492D6761696E0042656420504944205054
:100F10002D6761696E004265642050494420647207
:100F2000697665206D696E004265642050494420F1
:100F30006472697665206D61780042656420486559
:100F40006174204D616E61676572205B302D335D89
:100F500000436F72722E20646961676F6E616C204E
:100F600043205B6D6D5D00436F72722E206469617A
:100F7000676F6E616C2042205B6D6D5D00436F7228
:100F8000722E20646961676F6E616C2041205B6D19
:100F90006D5D004D6178207072696E7461626C6580
:100FA00020726164697573205B6D6D5D00546F77AD
:100FB0006572205A20656E6473746F70206F666668
:100FC000736574205B73746570735D00546F77652F
:100FD00072205920656E6473746F70206F6666733B
:100FE0006574205B73746570735D00546F77657210
:100FF000205820656E6473746F70206F6666736529
:1010000074205B73746570735D005365676D656E06
:1010100074732F7320666F722074726176656C0032
:101020005365676D656E74732F7320666F722070E1
:1010300072696E74696E6700486F72697A6F6E7458
:10104000616C20726F6420726164697573206174D1
:1010500020302C30205B6D6D5D00446961676F6EE0
:10106000616C20726F64206C656E677468205B6DC4
:101070006D5D00486F6D696E6720666565647261BD
:101080007465205B6D6D2F735D004D61782E206659
:1010900065656472617465205B6D6D2F735D0053CF
:1010A0007465707320706572206D6D005472617686
:1010B000656C20616363656C65726174696F6E2035
:1010C0005B6D6D2F735E325D00416363656C6572AD
:1010D0006174696F6E205B6D6D2F735E325D004DC4
:1010E00061782E206A65726B205B6D6D2F735D00D9
:1010F0005A206D6178206C656E677468205B6D6D39
:101100005D0059206D6178206C656E677468205BA6
:101110006D6D5D0058206D6178206C656E67746838
:10112000205B6D6D5D005A20686F6D6520706F7378
:10113000205B6D6D5D005920686F6D6520706F7369
:10114000205B6D6D5D005820686F6D6520706F735A
:10115000205B6D6D5D0053746F70207374657070EB
:10116000657220616674657220696E616374697668
:10117000697479205B6D732C303D6F66665D004D40
:1011800061782E20696E6163746976652074696D7B
:1011900065205B6D732C303D6F66665D0050726933
:1011A0006E74657220616374697665205B735D009F
:1011B00046696C616D656E74207072696E746564E9
:1011C000205B6D5D00416476616E636564205573DC
:1011D0006572004261756472617465004550523AEF
:1011E0003320004550523A3220004550523A3120C7
:1011F000004550523A30200050726F746F636F6C2C
:101200002076657273696F6E206368616E676564CE
:101210002C20757067726164696E6700436F6E663B
:10122000696775726174696F6E2072657365742089
:10123000746F2064656661756C74732E00436F6E05
:1012400066696775726174696F6E206C6F61646541
:10125000642066726F6D20454550524F4D2E0043FD
:101260006F6E66696775726174696F6E2073746FF3
:1012700072656420746F20454550524F4D2E0041D9
:1012800075746F6C6576656C206163746976652032
:1012900028312F3029005A2D70726F626520593322
:1012A000005A2D70726F6265205833005A2D70728B
:1012B0006F6265205932005A2D70726F6265205836
:1012C00032005A2D70726F6265205931005A2D70AC
:1012D000726F6265205831005A2D70726F626520FE
:1012E000782D792D7370656564205B6D6D2F735D4E
:1012F000005A2D70726F6265207370656564205BA3
:101300006D6D2F735D005A2D70726F6265206F6670
:10131000667365742079205B6D6D5D005A2D707267
:101320006F6265206F66667365742078205B6D6DF3
:101330005D004D61782E207A2D70726F6265202DD0
:101340002062656420646973742E205B6D6D5D009E
:101350005A2D70726F626520686569676874205BDA
:101360006D6D5D0077616974005072696E746572AD
:10137000206865696768743A005A2D70726F6265FB
:10138000206661696C6564005472616E73666F7289
:101390006D6174696F6E206D61747269783A004195
:1013A00075746F6C6576656C696E672064697361CE
:1013B000626C6564004175746F6C6576656C696E0E
:1013C0006720656E61626C6564004175746F6C6561
:1013D00076656C206D6174726978207265736574CE
:1013E00000004732382F6E47315A32352F6E005A7F
:1013F0002D70726F62652073746174653A00526576
:10140000736574205A20686569676874005A2D7086
:10141000726F6265206176657261676520686569D3
:101420006768743A00205374657020566172696170
:1014300074696F6E2066726F6D2050726F626520E6
:10144000746F206265642044697374616E63653AE9
:10145000005A2D70726F62653A005072696E746541
:10146000722073657420696E746F206472792072C3
:10147000756E206D6F646520756E74696C20726581
:10148000737461727421003A20776F726B696E67B2
:10149000003A2074656D702073656E736F722064FE
:1014A00065666563740065787472756465722000A2
:1014B00068656174656420626564004D54454D50F3
:1014C0003A00504944204175746F74756E6520660A
:1014D000696E6973686564202120506C61636520C2
:1014E000746865204B702C204B6920616E64204B22
:1014F0006420636F6E7374616E747320696E207400
:10150000686520436F6E66696775726174696F6E96
:101510002E68206F7220454550524F4D005049446F
:10152000204175746F74756E65206661696C6564C1
:10153000212074696D656F757400504944204175B0
:10154000746F74756E65206661696C6564212054E2
:10155000656D706572617475726520746F2068695D
:10156000676800204B643A2000204B693A20002035
:101570004B703A200020436C6173736963205049BB
:1015800044002054753A2000204B753A2000206D0D
:1015900061783A2000206D696E3A200020643A207C
:1015A0000020626961733A200050494420417574FB
:1015B0006F74756E65207374617274005461726724
:1015C00065744265643A0054617267657445787465
:1015D00072004E6F206D6F766520696E2064656CB9
:1015E0007461207365676D656E7420776974682017
:1015F0003E2031207365676D656E742E20546869D6
:10160000732073686F756C64206E657665722068F0
:10161000617070656E20616E64206D617920636118
:1016200075736520612070726F626C656D21004476
:10163000656C746120526164697573204328302998
:101640003A0044656C74612052616469757320428C
:101650002830293A0044656C7461205261646975D0
:101660007320412830293A00416C7068612043287A
:101670003930293A00416C70686120422833333098
:10168000293A00416C706861204128323130293A92
:1016900000546F77657220333A00546F776572207B
:1016A000323A00546F77657220313A00496E7661A4
:1016B0006C69642064656C746120636F6F72646927
:1016C0006E617465202D206D6F76652069676E6F81
:1016D000726564006C696E656172204C3A00454524
:1016E00050524F4D2075706461746564002C2073F6
:1016F000706565643D00206C696E6561722073746D
:101700006570733A004A65726B3A007A5F6D617872
:101710003A00795F6D61783A00785F6D61783A00E0
:101720004C2000482000206973200020746F2000A6
:10173000536574206F75747075743A20004D533181
:101740002C4D53322050696E730045313A004530BC
:101750003A005A3A00593A0020002C00206D696E78
:101760000020686F75727320002064617973200017
:101770006D20005072696E74696E672074696D65C2
:101780003A005072696E7465642066696C616D65BB
:101790006E743A0046616E73706565643A00482E57
:1017A000205261646975733A00466C6F774D756CB1
:1017B0007469706C793A0053706565644D756C742A
:1017C00069706C793A00202F002F003A00205241B6
:1017D00057002042403A0020403A0020423A00544C
:1017E0003A0020453A00205A3A0020593A00205841
:1017F0003A00583A00467265652052414D3A00550C
:101800006E6B6E6F776E20636F6D6D616E643A0004
:10181000536F667477617265205265736574005703
:1018200061746368646F6720526573657400427207
:101830006F776E206F7574205265736574004578FC
:101840007465726E616C20526573657400506F77B9
:101850006572557000737461727400424C4B2000C5
:10186000736B6970200020676F7420004572726F7F
:10187000723A6578706563746564206C696E652082
:101880000053442072656164206572726F7200209B
:101890005200204A002049002050002053002046DA
:1018A00000204500205A00205900205800446F6E47
:1018B00065207072696E74696E672066696C650078
:1018C000466F726D6174206572726F720057726F2D
:1018D0006E6720636865636B73756D006F6B2000C6
:1018E0004563686F3A00526573656E643A005761EC
:1018F000726E696E673A00496E666F3A00457272A1
:101900006F723A00494E46004E414E006F6B0046E2
:1019100049524D574152455F4E414D453A526570CF
:1019200065746965725F302E39322E322046495215
:101930004D574152455F444154453A32303136317A
:10194000323039204D414348494E455F5459504546
:101950003A4F52494F4E2044656C74612000206418
:1019600065672E204300206D656173757265642084
:10197000004572726F723A436F756C64206E6F74BB
:1019800020686F6C642074656D7065726174757227
:10199000652000206D73002061667465722000452B
:1019A00072726F723A54656D702E20726169736540
:1019B0006420746F20736C6F772E205269736520DA
:1019C0003D2000004D3131372045787472756465D3
:1019D000722031001C151C140000002243141F1F2C
:1019E000E81D941D241DD41C0000000000004C1CA8
:1019F000401BF01A741AF8190400081D90005809C9
:101A00001C01B007A801C80634023006C002C00598
:101A10004C036805D80318056404D004F004980446
:101A20007C05600408063004940600042007D003F7
:101A3000AC07A80338088003C408580350093003D2
:101A4000DC090803680AD802F40AB002800B880295
:101A50000C0C6002980C3002240DF801B00DC0018E
:101A60003C0E8001C80E3001540FB800B40F28009E
:101A7000E00F00000400401D900060091C01B00749
:101A8000A801D00634023806C002C8054C03680518
:101A9000D80318056404D804F00498047C05600495
:101AA00008063004940600042007D003AC07A803FE
:101AB00038088003C408580350093003DC090803C0
:101AC000680AE002F40AB802800B88020C0C60027B
:101AD000980C3002240DF801B00DC0013C0E8001BD
:101AE000C80E3001540FB800B40F2800E00F0000FA
:101AF00004000016D800C006AC0178058002C004BE
:101B0000540348042804E803FC049803D005500358
:101B1000A40618037807D8024C08A802200970020E
:101B2000F4093802C80A08029C0BD001700C90011D
:101B3000440D5001180EF800EC0E8800C00F000094
:101B40000400681D4C00500B94005809DC0050083C
:101B50002401A8076C012807B401C006FC01700627
:101B6000440228068C02F005D402B8051C0388053F
:101B700064035805AC033005F40310053C04E80485
:101B80008404C804CC04A804140590045C05700403
:101B9000A4055804EC053804340620047C06080427
:101BA000C406F0030C07D8035407C8039C07B0030E
:101BB000E40798032C08800374087003BC085803DA
:101BC000040948034C09300394091803DC0908038D
:101BD000240AF0026C0AE002B40AC802FC0AB0024D
:101BE000440BA0028C0B8802D40B70021C0C580210
:101BF000640C4002AC0C2802F40C10023C0DF00105
:101C0000840DD801CC0DB801140E98015C0E700142
:101C1000A40E4801EC0E1801340FD8007C0F880088
:101C2000C40F0800FC0F00000000000000000000CE
:101C300000000000000000000000000000000000A4
:101C40000000000000000000000000000000401F35
:101C5000450060094F0010095C00C0086B00700867
:101C60007D0020089200D007AC008007CC00300730
:101C7000DE00E006230190065E014006A601F005A5
:101C8000FF01A0056D025005F30200059603B004A4
:101C90005A046004400510044806C0036E07700330
:101CA000A8082003EB09D002230B8002410C30026C
:101CB000390DE001040E9001A20E4001170FF00053
:101CC000690FA000A20F5000C60F0000DD0FB0FF8B
:101CD000EB0F60FF0400700DD8004804AC015803FE
:101CE0008002D8025403800228043802FC04000257
:101CF000D005C801A4069801780770014C08480176
:101D000020091801F409F000C80AC8009C0BA000C3
:101D1000700C7000440D3800180E0000EC0EA8FF87
:101D2000C00FE8FE0400001B5400600964001009A5
:101D30007400C008840070089C002008B800D00718
:101D4000D8008007000130072C01E00668019006EA
:101D5000AC0140060002F0056802A005E002500553
:101D6000740300052404B004F0046004DC051004CE
:101D7000E406C0030408700330092003780B8002D6
:101D8000600DE001A80E4001680FA000C00F000028
:101D9000E80F60FF0400801AD8009808AC01200703
:101DA000800250065403C80528045805FC040005A9
:101DB000D005B004A4066804780728044C08E8039A
:101DC0002009B003F4097003C80A38039C0BF80219
:101DD000700CB002440D6802180E0802EC0E880167
:101DE000C00F8800F00F00000000A00F5C00600929
:101DF000690010097900C0088C007008A200200852
:101E0000BD00D007DE008007050130073401E00681
:101E10006D019006B20140060702F0056D02A005B3
:101E2000E80250057B0300052B04B004F8046004AD
:101E3000EB06C003350920037F0B8002650DE0012E
:101E4000B00E40011D0FF000480FC8006C0FA0003D
:101E5000ED0F60FFFE0F48FE0002534420657272D2
:101E60006F72206669786564005344206572726FF2
:101E70007220646964206E6F74207265636F76658A
:101E800072210053442052656164204572726F7262
:101E90000000000000000000000000000000000042
:101EA0000024F403D950C38EB1C2A23D96828B3573
:101EB00082127AE372816CCB66A861015DC758EB30
:101EC000546151204E1E4B5648C14559431A410199
:101ED0003F093D2F3B7139CD374036C93465331446
:101EE00032D430A32F802E6B2D632C672B752A8E56
:101EF00029B028DC2710274B268F25D9242B2482B4
:101F000023E0224322AC211A218D200420801F00CF
:101F10001F841E0C1E971D261DB81C4E1CE61B821E
:101F20001B201BC11A641A0A1AB2195D190A19B9C1
:101F3000186A181C18D11788174017FA16B51673A7
:101F4000163116F115B31576153A150015C7148F0D
:101F50001458142214EE13BA13881356132513F6CB
:101F600012C71299126C1240121512EB11C111987E
:101F700011701148112111FB10D610B1108D10698C
:101F800010461024100210E10FC00FA00F800F6147
:101F90000F420F230F060FE80ECB0EAF0E930E77F6
:101FA0000E5C0E410E270E0D0EF30DDA0DC10DA8BD
:101FB0000D900D780D600D490D320D1B0D050DEFC7
:101FC0000CD90CC30CAE0C990C850C700C5C0C4835
:101FD0000C350C210C0E0CFB0BE80BD60BC40BB212
:101FE0000BA00B8E0B7D0B6B0B5A0B4A0B390B297D
:101FF0000B180B080BF80AE90AD90ACA0ABB0AAC83
:102000000A9D0A8E0A800A710A630A550A470A392C
:102010000A2C0A1E0A110A040AF709EA09DD09D086
:1020200009C409B709AB099F09920987097B096FA0
:1020300009630958094C09410936092B092009157A
:10204000090A090009F508EB08E008D608CC08C21F
:1020500008B808AE08A4089A08900887087D087494
:10206000086B08610858084F0846083D0834082CDA
:102070000823081A08120809080108F807F007E8F9
:1020800007E007D807D007C807C007B807B007A8F8
:1020900007A1070000420FA1071605D0030D038B0F
:1020A000022E02E801B2018601630145012C0117ED
:1020B000010401F4004F52494F4E2052656164798A
:1020C000004F52494F4E205265616479004F52498A
:1020D0004F4E20526561647900207A3A0020793AA7
:1020E0000020783A00696E20717565756544656CED
:1020F00074614D6F766520746F2063616C63756CDD
:1021000061746544656C74615375625365676D6590
:102110006E74732072657475726E73206572726F5F
:10212000722E00432068697420666C6F6F720043E2
:10213000706F732078207371756172652000437031
:102140006F732078207374657073200043706F7311
:10215000207920737175617265200043706F732060
:10216000792073746570732000422068697420665A
:102170006C6F6F720042706F73207820737175619D
:102180007265200042706F732078207374657073DD
:10219000200042706F732079207371756172652021
:1021A0000042706F73207920737465707320004152
:1021B0002068697420666C6F6F720041706F7320C5
:1021C0007820737175617265200041706F7320789B
:1021D000207374657073200041706F7320792073D1
:1021E0007175617265200041706F7320792073747E
:1021F00065707320006D6F766552656C61746976E9
:102200006544697374616E6365496E537465707378
:10221000202F20717565756544656C74614D6F760E
:10222000652072657475726E73206572726F7200CC
:102230004D617854656D703A004469616D657465EF
:10224000723A00416363656C65726174696F6E3ADE
:10225000004D617853706565643A004A65726B3A67
:10226000004D617842656454656D703A0050726942
:102270006E746572547970653A44656C7461005A85
:1022800054726176656C416363656C3A00595472AF
:102290006176656C416363656C3A0058547261768F
:1022A000656C416363656C3A005A5072696E7441A3
:1022B0006363656C3A00595072696E74416363657B
:1022C0006C3A00585072696E74416363656C3A00F1
:1022D0005A53697A653A005953697A653A005853F6
:1022E000697A653A005A4D61783A00594D61783AF9
:1022F00000584D61783A005A4D696E3A00594D695F
:102300006E3A00584D696E3A004A65726B58593AF8
:10231000005072696E746C696E6543616368653AFA
:1023200000454550524F4D3A004175746F6C6576CB
:10233000656C3A005A50726F62653A00436173658A
:102340004C69676874733A00537570706F72744C9F
:102350006F63616C46696C616D656E746368616E14
:1023600067653A00537570706F727447313047314A
:10237000313A005A486F6D654469723A0059486FA6
:102380006D654469723A0058486F6D654469723AE8
:1023900000536F667477617265506F77657253771B
:1023A000697463683A004C43443A0046616E3A00EF
:1023B0005344436172643A004865617465644265E0
:1023C000643A004D6978696E674578747275646522
:1023D000723A004E756D45787472756465723A0094
:1023E000496E7075744275666665723A0042617531
:1023F00064726174653A004E6F2063617365206C8E
:102400006967687473004D31313420007A70726FDF
:1024100062696E672E2E2E0064656C617920313002
:10242000306D732E00686F6D6541786973200068A8
:102430006F6D6541786973202F20717565756544EE
:10244000656C74614D6F76652072657475726E731C
:10245000206572726F7200486F6D652044656C7400
:1024600061005072696E7465723A3A736574757082
:1024700020006D6F7665546F5265616C202F20715E
:102480007565756544656C74614D6F766520726520
:102490007475726E73206572726F72006D6F7665FF
:1024A000546F202F20717565756544656C74614D9E
:1024B0006F76652072657475726E73206572726FC7
:1024C0007200537465707065722044697361626C48
:1024D0006564004B696C6C6564006973506F736967
:1024E00074696F6E416C6C6F776564200055706C19
:1024F0006F6164696E672E2E2E0000534420707247
:10250000696E742073746F707065642062792075D1
:102510007365722E004739312F6E4731205A2D31A5
:10252000302E302045352E312046313530302F6E5B
:102530004739302F6E004739312F6E4731205A31DD
:10254000302E3020452D352E302046313530302F7D
:102550006E4739302F6E00534420636172642069E6
:102560006E73657274656400534420436172642025
:10257000696E7365727465640053442043617264CC
:102580002072656D6F7665640053442063617264E8
:102590002072656D6F766564000000211042206333
:1025A000308440A550C660E770088129914AA16B2C
:1025B000B18CC1ADD1CEE1EFF131121002733252C4
:1025C00022B5529442F772D662399318837BB35A7C
:1025D000A3BDD39CC3FFF3DEE36224433420040194
:1025E00014E664C774A44485546AA54BB5288509CC
:1025F00095EEE5CFF5ACC58DD55336722611163064
:1026000006D776F6669556B4465BB77AA71997381B
:1026100087DFF7FEE79DD7BCC7C448E5588668A7A3
:10262000784008611802282338CCC9EDD98EE9AF6B
:10263000F9488969990AA92BB9F55AD44AB77A9603
:102640006A711A500A333A122AFDDBDCCBBFFB9EBB
:10265000EB799B588B3BBB1AABA66C877CE44CC5D3
:102660005C222C033C600C411CAEED8FFDECCDCD0B
:10267000DD2AAD0BBD688D499D977EB66ED55EF4A3
:102680004E133E322E511E700E9FFFBEEFDDDFFC5B
:10269000CF1BBF3AAF599F788F8891A981CAB1EB00
:1026A000A10CD12DC14EF16FE18010A100C230E329
:1026B000200450254046706760B9839893FBA3DAE5
:1026C000B33DC31CD37FE35EF3B1029012F322D279
:1026D000323542145277625672EAB5CBA5A8958975
:1026E000856EF54FE52CD50DC5E234C324A01481C9
:1026F000046674476424540544DBA7FAB79987B885
:10270000975FE77EF71DC73CD7D326F2369106B018
:102710001657667676154634564CD96DC90EF92F84
:10272000E9C899E9898AB9ABA94458654806782768
:1027300068C018E1088238A3287DCB5CDB3FEB1E24
:10274000FBF98BD89BBBAB9ABB754A545A376A16B8
:102750007AF10AD01AB32A923A2EFD0FED6CDD4DB4
:10276000CDAABD8BADE89DC98D267C076C645C4508
:102770004CA23C832CE01CC10C1FEF3EFF5DCF7CC4
:10278000DF9BAFBABFD98FF89F176E367E554E7458
:102790005E932EB23ED10EF01E7C3C3E5E2B3D3F42
:1027A0002F5B5D3B2C2A225C00526571756573744A
:1027B00050617573653A004D31313720494E5345AC
:1027C00052542053442043415244004D313137206C
:1027D00053442043415244204552524F52005549E0
:1027E0005F414354494F4E5F5345545F4D454153FC
:1027F000555245445F4F524947494E20004E6F2085
:10280000534420436172640053687574204F6666B8
:1028100020414C4C204865617473005072656865B6
:1028200061742041425300507265686561742050A4
:102830004C410055495F414354494F4E5F484F4D0D
:10284000455F5A200055495F414354494F4E5F4808
:102850004F4D455F59200055495F414354494F4E04
:102860005F484F4D455F58200055495F41435449EB
:102870004F4E5F484F4D45414C4C200055495F41FC
:102880004354494F4E5F5A504F534954494F4E5F3E
:10289000464153545F4E4F54455354200055495FB1
:1028A000414354494F4E5F5A504F534954494F4E3C
:1028B0005F4E4F54455354200055495F414354499E
:1028C0004F4E5F45504F534954494F4E2000554994
:1028D0005F414354494F4E5F5A504F534954494FFB
:1028E0004E5F46415354200055495F414354494F80
:1028F0004E5F59504F534954494F4E5F46415354D0
:10290000200055495F414354494F4E5F58504F5343
:102910004954494F4E5F46415354200055495F4149
:102920004354494F4E5F5A504F534954494F4E20DC
:102930000055495F414354494F4E5F59504F5349E9
:1029400054494F4E200055495F414354494F4E5F13
:1029500058504F534954494F4E200042616E6742D0
:10296000616E6700536C6F7742616E67004465610A
:10297000642054696D650050494400003A002064A9
:10298000617973200050657263656E7420507269BE
:102990006E7465643A0020646566200046572044E2
:1029A000617465203230313631323039004F52494E
:1029B0004F4E2044656C7461005365654D65434E10
:1029C00043004F52494F4E2044656C7461004C36B1
:1029D000023698353B35416374696F6E3A256C61F8
:1029E00000040003004E6F00596573004E2F410034
:1029F0004F6666004F6E000000003FCDCC4C3D0A94
:102A0000D7A33B6F12033A526570657469657220F3
:102A10007620302E39322E320000401454802500AA
:102A20000040380000004B0000807000000096005D
:102A300000C0DA000000E10000002C010008B20133
:102A40000000C2010000F401000084030090D003E4
:102A50000000E803000008070020A1070000100E96
:102A60000040420F0060E3160000000000110A045D
:102A700011040A1111001C1F11111F0000040A0A81
:102A80000A0E1F1F0E001F1111111F0000001F1F33
:102A90001F1F1F0000040A040000000000040E15A0
:102AA000041C0000000200000600AC2AC232122BF7
:102AB000932FE52AE62F542B0200000700BF2AC2FD
:102AC00032CD2A932FE52AE62F1E2FF92AD42A0287
:102AD000943000005072696E74657220536574748E
:102AE000696E677300EC2A026631000041646A7502
:102AF00073742054656D707300002B022A2B000044
:102B0000416476616E6365642053657474696E67B1
:102B10007300192B02AB3000005072696E7465723D
:102B20002053657474696E677300020000090031F8
:102B30002BC2323F2C2B2C1B2C0B2C432BF42BDCCD
:102B40002B542B4A2B02C12E000044656275676727
:102B5000696E67005B2B02A331000043616C696200
:102B6000726174696F6E204D656E750003102702E7
:102B700000732B7E2B772B852B0000000000962BFB
:102B800000000000006C6F6164656420662E2045C3
:102B90004550524F4D00436F6E66696775726174A0
:102BA000696F6E000310270200AB2BB62BAF2BBD55
:102BB0002B0000000000CE2B000000000073746F9B
:102BC00072656420696E20454550524F4D00436F39
:102BD0006E66696775726174696F6E00E32B030737
:102BE0000400004C6F61642066726F6D2045455093
:102BF000524F4D00FB2B030604000053746F7265A7
:102C000020746F20454550524F4D00122C024E2C1F
:102C10000000457874727564657200222C02552E8E
:102C20000000466565647261746500322C02812E75
:102C30000000416363656C65726174696F6E004684
:102C40002C02A12D000047656E6572616C000200C8
:102C5000001000552CC2328D2D792D672D562D4137
:102C60002D122D2A2DFB2CE82CD42CC32CB22C9DFC
:102C70002C882C752C7C2C042F04000050494420F7
:102C80004D61783A255844008F2C042604000044F6
:102C900072697665204D61783A25584D00A42C0460
:102CA000250400004472697665204D696E3A255806
:102CB0006D00B92C042404000050494420443A25F6
:102CC000586400CA2C042304000050494420493AA7
:102CD00025586900DB2C042204000044542F50497D
:102CE0004420503A25587000EF2C042D0400004376
:102CF0006F6E74726F6C3A25586800022D0446049A
:102D00000000416476616E6365206C696E3A2558F7
:102D10006C00192D044D0400005761697420556E34
:102D20006974733A2558556D6D00312D044C0400BB
:102D300000576169742054656D702E255854024304
:102D400000482D042E040000537461622E54696DF6
:102D5000653A255877005D2D042A0400004163631D
:102D6000656C3A255841006E2D042B0400004D611E
:102D7000782046523A25584600802D042C04000045
:102D800053746172742046523A25586600942D049B
:102D90002904000053746570732F4D4D3A25536517
:102DA000000200000400A82DC232DD2DC52DB02D7B
:102DB000B72D02F12D00004D61782E20496E616320
:102DC0007469766500CC2D02232E00005374657063
:102DD00070657220496E61637469766500E42D0444
:102DE0001004000042617564726174653A256F6376
:102DF000000358040200F82D032EFC2D0A2E0000BB
:102E0000000000142E00000000005B735D20303DC8
:102E10004F6666004469732E2041667465723A25D8
:102E200069700003200402002A2E352E2E2E3C2E1F
:102E30000000000000462E00000000005B735D20D3
:102E4000303D4F6666004469732E2041667465729A
:102E50003A2569730002000003005C2EC232722E14
:102E6000622E692E0413040000486F6D653A2566D2
:102E70005A00792E04160400004D61783A25667ACE
:102E8000000200000400882EC232B02EA02E902E28
:102E9000972E040E0400004A65726B3A25616A00A1
:102EA000A72E040D0400004D6F76653A25615A0087
:102EB000B72E040A0400005072696E743A25617AD4
:102EC000000200000500C82EC2320B2FF82EE52E9E
:102ED000D22ED92E03350400004472792072756E0B
:102EE0003A25646400EC2E03340400004572726FCE
:102EF0007273203A25646500FF2E033304000049F5
:102F00006E666F2020203A25646900122F03320478
:102F100000004563686F2020203A25646F00252F4C
:102F200002322F000053442043617264204D656ECD
:102F300075000200000600392FC232932F802F6ADD
:102F40002F582F452F4C2F03F403010244656C6565
:102F500074652066696C65005F2F02B22F02005312
:102F6000746F70205072696E7400712F03F7030440
:102F700000436F6E74696E7565205072696E7400DF
:102F8000872F03F603020450617573652050726940
:102F90006E74009A2F03F503010253656C65637428
:102FA0002053442046696C65000100000100B02FE9
:102FB000C2320200000300B92FD42FCA2FBF2FC680
:102FC0002F035424020059657300D12F03E8030036
:102FD000004E6F00DB2F010000000053746F702063
:102FE0005072696E7400ED2F02FE2F000041646A7A
:102FF0007573742046616E2073706565640002000D
:103000000007000530C2327C30683053303E302932
:103010003013301A30031E040000536574204661DB
:103020006E20313030252525003030031D0400008E
:103030005365742046616E203735252525004530BF
:10304000031C0400005365742046616E2035302552
:103050002525005A30031B04000053657420466187
:103060006E203235252525006F30031A04080054E0
:1030700075726E2046616E204F6666008330045282
:1030800004000046616E2073706565643A254673DE
:103090002525250002000009009B30C232F530DCF6
:1030A00030533140312631AE320E3102000009007A
:1030B000B230C232F530DC30533140312631AE32DD
:1030C000C4300E31CB3003B20F0000556E6C6F630D
:1030D0006B2046756C6C204D656E7500E3300448BE
:1030E000040000466C6F772020526174653A256FAA
:1030F0006625252500FC30041F040000537065651B
:103100006420526174653A256F6D252525001531BF
:10311000034204001044697361626C652053746556
:103120007070657273002D310338040000536875A8
:1031300074204F666620414C4C20486561747300D2
:10314000473103470400005072656865617420418F
:103150004253005A310337040000507265686561BC
:103160007420504C410002000004006D31C2328BCB
:103170003173317A31043C040000424544205465E7
:103180006D703A20202545620243009231043D04CF
:1031900000004E4F5A2054656D703A20202545306E
:1031A0000243000200000600AA31C232E031B6310B
:1031B000AE327832CC31BD310421040000482E20DB
:1031C000526164697573203A256F6800D33103AC8E
:1031D0000F0000536574205A204F726967696E00B2
:1031E000E73102F831000046756C6C2043616C6970
:1031F00062726174696F6E000200000400FF31C2E8
:10320000323532203207320E3203B10F00004265F0
:1032100067696E2043616C6962726174696F6E00E8
:10322000273203B50F000042454420415245204358
:103230004C45414E003C3203B40F00004D414B451C
:103240002053555245204E4F5A5A4C4520260002D5
:10325000000006005632C232AE329C328A327832D8
:103260006232693202DB320000457874722E2070BF
:103270006F736974696F6E007F32023C3400005ACC
:1032800020506F736974696F6E009132029134003F
:10329000005920506F736974696F6E00A33202E6A3
:1032A0003400005820506F736974696F6E00B53236
:1032B00003FD030000486F6D65205072696E7465F0
:1032C0007200C93203E803000050726576696F75B9
:1032D000732053637265656E20010003F0030400E0
:1032E000E232FF32F832F132EA32063300000000F7
:1032F00000143300000000002533000000000034FB
:10330000330000000000255566206D207072696E44
:103310007465640020453A2565632F2545630243A3
:103320007E256F43003120636C69636B203D203143
:10333000206D6D00453A257833206D6D0003FC0348
:103340000400443361335A3353334C336833000041
:103350000000006933000000000079330000000025
:103360000089330000000000004D617820656E6424
:1033700073746F703A25735A004D696E20656E64E0
:1033800073746F703A25737A005A3A257832206D3B
:103390006D0003FB0304009933B633AF33A833A1A8
:1033A00033BD330000000000BE330000000000CE3B
:1033B000330000000000DE330000000000004D611B
:1033C0007820656E6473746F703A257359004D6987
:1033D0006E20656E6473746F703A25737900593A84
:1033E000257831206D6D0003FA030400EE330B34B1
:1033F0000434FD33F63312340000000000133400AF
:1034000000000000233400000000003334000000FE
:103410000000004D617820656E6473746F703A250A
:103420007358004D696E20656E6473746F703A2531
:10343000737800583A257830206D6D0003EF03044F
:103440000043346034593452344B34673400000044
:103450000000683400000000007834000000000024
:1034600088340000000000004D617820656E6473B0
:10347000746F703A25735A004D696E20656E6473DF
:10348000746F703A25737A005A3A257832206D6D40
:103490000003EE0304009834B534AE34A734A034EE
:1034A000BC340000000000BD340000000000CD343A
:1034B0000000000000DD340000000000004D6178D5
:1034C00020656E6473746F703A257359004D696E90
:1034D00020656E6473746F703A25737900593A25CC
:1034E0007831206D6D0003ED030400ED340A3503DF
:1034F00035FC34F5341135000000000012350000B1
:1035000000000022350000000000323500000000FD
:1035100000004D617820656E6473746F703A257396
:1035200058004D696E20656E6473746F703A257330
:103530007800583A257830206D6D000000000400B6
:1035400042355F35583551354A3566350000000043
:10355000006C350000000000803500000000008491
:10356000350000000000255566206D00546F746121
:103570006C2046696C616D656E74205573656400DE
:1035800025557400546F74616C205072696E7469B3
:103590006E672054696D650000000004009F35BC13
:1035A00035B535AE35A735C3350000000000CF3541
:1035B0000000000000DD350000000000EF350000D5
:1035C0000000004F52494F4E2044656C746100501A
:1035D00072696E746572204D6F64656C0046572089
:1035E000446174653A203230313631323039004628
:1035F000572056657273696F6E3A20302E39322E1D
:1036000032000000000400093626361F3618361135
:10361000362D360000000000313600000000003A70
:1036200036000000000043360000000000256F73E4
:10363000005A3A257832206D6D00593A25783120AC
:103640006D6D00583A257830206D6D000000000443
:103650000053367036693662365B367736000000C6
:1036600000007B36000000000094360000000000DF
:10367000A7360000000000256F7300537065656475
:103680003A256F6D25252520466C6F773A256F66A4
:10369000252525004245443A25656220546172671C
:1036A00065743A254562004E4F5A3A2565632054A9
:1036B00061726765743A25456300000000000000F0
:1036C0000000000000FF0000010000000A0B0209DA
:1036D0000C0D0E08070304010000000000000000AC
:1036E00000000000000000000000000000000000DA
:1036F0000000000000001211100000000000000097
:1037000000000000000000000000000000000000B9
:1037100001021020200808102040102040800201E3
:1037200002010804020101020408102040808040C8
:1037300020100804020180040201804020100804C7
:103740000201080402010102040810204080010265
:10375000040810204080050505050705080808082D
:10376000020202020A0A0808040404040101010119
:103770000101010103030303030303030407070714
:103780000C0C0C0C0C0C0C0C0202020206060606B9
:10379000060606060B0B0B0B0B0B0B0B0000200099
:1037A0002300260029002C002F0032000001000019
:1037B00003010601090100002200250028002B005A
:1037C0002E003100340002010000050108010B0148
:1037D00000002100240027002A002D0030003300C3
:1037E00001010000040107010A01024E414E494E49
:1037F000495459494E46CDCCCC3D0AD7233C17B746
:10380000D13877CC2B329595E6241FB14F0A0000B2
:1038100020410000C84200401C4620BCBE4CCA1BD0
:103820000E5AAEC59D74427893B287BEA3FF112491
:103830001FBECFEFD1E2DEBFCDBF00E00CBF13E073
:10384000A0E0B2E0EEE5F2E202E00BBF02C00790BA
:103850000D92A638B107D9F72EE1A6E8B3E001C072
:103860001D92AE37B207E1F718E3CEE2D8E300E0ED
:1038700006C022970109FE010BBF0F94A80CC632A7
:10388000D10780E00807A9F70F9469040D942D1162
:103890000C940000CF93DF9300D01F92CDB7DEB71A
:1038A00044E050E0BC01CE0101960F94E91069811B
:1038B0007A818B819C810F900F900F900F90DF91F8
:1038C000CF9108958091F90283FB882780F90895AC
:1038D00088E493E0DFCFCF92DF92EF92FF92CF9315
:1038E000DF9300D01F921F92CDB7DEB76B017C0132
:1038F000609386187093871880938818909389181E
:103900000E94DE9AC982DA82EB82FC8244E050E0B7
:1039100065E773E0CE0101960F940B1123E0B70128
:10392000A6018CE595E00E94264D0E94C550682FA7
:1039300088E690E06D830F94F9106D81681721F08F
:1039400088E690E00F9414110F900F900F900F9055
:103950000F90DF91CF91FF90EF90DF90CF9008957F
:10396000CF93DF931F92CDB7DEB7BC018DE793E015
:103970000F9427110E94C550682F88E690E0698354
:103980000F94F9106981681739F088E690E00F907C
:10399000DF91CF910D9414110F90DF91CF91089585
:1039A000CF93DF931F92CDB7DEB7BC018FE793E0D3
:1039B0000F9427110E94C550682F88E690E0698314
:1039C0000F94F9106981681739F088E690E00F903C
:1039D000DF91CF910D9414110F90DF91CF91089545
:1039E000CF93DF931F92CDB7DEB7BC0181E893E0A0
:1039F0000F9427110E94C550682F88E690E06983D4
:103A00000F94F9106981681739F088E690E00F90FB
:103A1000DF91CF910D9414110F90DF91CF91089504
:103A2000CF93C82F80919C048823D1F010929C04DE
:103A30000E9456679091DF0291509093DF0291119E
:103A400009C08091E002833010F40E94E36685E0B3
:103A50008093DF026C2F88EC9CE1CF910C942AFDBF
:103A6000CF91089580916306882349F00E944C719C
:103A700080E0D6DF88EC9CE10E9429FDF3CF089519
:103A80004F925F926F927F928F929F92AF92BF926E
:103A9000CF92DF92EF92FF920F931F93CF93DF931A
:103AA00000D01F92CDB7DEB78C01809100199091A4
:103AB0000119A0910219B091031989839A83AB83EC
:103AC000BC83C0900419D0900519E0900619F090BD
:103AD00007198090081990900919A0900A19B090C0
:103AE0000B199C01AD01BC01CD010F94DA0B8111C2
:103AF0000FC149805A806B807C80E89477F82FEF63
:103B00003FEF4FE75FE7C301B2010F94DA0B81117A
:103B10000BC02FEF3FEF4FE75FE7C301B2010F94F8
:103B2000870818160CF4F4C0A7019601C701B60166
:103B30000F94DA0B8111ECC026013701E89477F875
:103B40002FEF3FEF4FE75FE7C301B2010F94DA0BAE
:103B500081110BC02FEF3FEF4FE75FE7C301B201C9
:103B60000F94870818160CF4D3C0A5019401C50161
:103B7000B4010F94DA0B8111CBC024013501E89414
:103B800077F82FEF3FEF4FE75FE7C301B2010F94E4
:103B9000DA0B81110BC02FEF3FEF4FE75FE7C30157
:103BA000B2010F94870818160CF4B2C02091D818EF
:103BB0003091D9184091DA185091DB1869817A81D7
:103BC0008B819C810F9423082B013C012091DC18F0
:103BD0003091DD184091DE185091DF18C701B60111
:103BE0000F9423086B017C012091E0183091E118BB
:103BF0004091E2185091E318C501B4010F942308D5
:103C00004B015C0180916019882329F020E732E4A0
:103C100041E25DE304C020E030E040E85FE3C3013F
:103C2000B2010F942F0BAB01BC0122E082EF97E1B0
:103C30000E94634D80916019882329F020E732E4C7
:103C400041E25DE304C020E030E040E85FE3C7010B
:103C5000B6010F942F0BAB01BC0122E08AEE97E175
:103C60000E94634D80916019882329F020E732E497
:103C700041E25DE304C020E030E040E85FE3C501DD
:103C8000B4010F942F0BAB01BC0123E086EE97E14A
:103C90000E94634D609118197091191980911A1939
:103CA00090911B190F945A0920915C1930915D195C
:103CB00040915E1950915F190F942F0B209160195C
:103CC000222329F020E732E441E25DE304C020E052
:103CD00030E040E85FE30F942F0BAB01BC0124E020
:103CE00082EE97E10F900F900F900F90DF91CF91A0
:103CF0001F910F91FF90EF90DF90CF90BF90AF900A
:103D00009F908F907F906F905F904F900C94264D76
:103D1000C8010E944C4B4ACFCF92DF92EF92FF92A4
:103D2000CF93DF93EC01893191053CF0C53F81E0F1
:103D3000D8072CF0C4EFD1E002C0C9E1D0E0BE0149
:103D4000882777FD8095982F0F945A096B017C0185
:103D50006091101870911118882777FD8095982F21
:103D60000F945A099B01AC01C701B6010F948E084C
:103D70009B01AC0160911218709113188091141876
:103D8000909115180F942F0B6093121870931318BD
:103D90008093141890931518D0931118C09310188D
:103DA000BE0187EB97E1DF91CF91FF90EF90DF901D
:103DB000CF900C940E4CCF92DF92EF92FF926B015A
:103DC0007C0120E030E040E752E40F94870887FD53
:103DD00011C020E030E046E153E4C701B6010F9482
:103DE000BB0A18166CF4C12CD12C86E1E82E83E4B2
:103DF000F82E06C0C12CD12C90E7E92E92E4F92EC2
:103E0000C0928618D0928718E0928818F09289188C
:103E100022E0B701A6018EE997E1FF90EF90DF90D5
:103E2000CF900C94264D8F929F92AF92BF92CF92DB
:103E3000DF92EF92FF92CF93DF93EC0189319105EE
:103E400034F0893C91052CF0C8ECD0E002C0C9E107
:103E5000D0E0D0930F18C0930E18E0918603F09134
:103E60008703E258FF4FC080D180E280F38020E0DA
:103E700030E0A901C701B6010F948708AE0166279B
:103E800057FD6095762F18165CF0CB01BA010F94A0
:103E90005A092AE037ED43E25CE30F942F0B24C06C
:103EA000CB01BA010F945A092AE037ED43E25CE3F3
:103EB0000F942F0B20E030E040E850E40F942F0BDC
:103EC0004B015C01A7019601C701B6010F942F0BAE
:103ED0002BED3FE049E450E40F942F0B9B01AC0124
:103EE000C501B4010F948E086093F4027093F5023B
:103EF0008093F6029093F702BE0189EA97E1DF9181
:103F0000CF91FF90EF90DF90CF90BF90AF909F90B8
:103F10008F900C940E4CCF93DF932091D41897FD83
:103F20000DC0EC018F3F910519F014F0CFEFD0E0F8
:103F3000209721F028602093D41805C0277F209374
:103F4000D418C0E0D0E061118DDD8091BC1790E005
:103F5000C817D90729F0BE0184E997E10E940E4CE9
:103F6000C093BC17DF91CF9108954F925F926F92EB
:103F70007F928F929F92AF92BF92CF92DF92EF92F9
:103F8000FF92CF93DF9300D01F92CDB7DEB72FE61D
:103F900032E143E85AE36091F8177091F917809184
:103FA000FA179091FB170F942F0B6B017C0181E89E
:103FB00090E070DC9B01AC01C701B6010F942308AF
:103FC000AB01BC0122E082E897E10E94634D80E7EB
:103FD00097E10E94134BE0910A02F0910B0220E05E
:103FE00030E040E751E463857485858596850F94BC
:103FF000BB0A18160CF46BC020E030E0A9018DE775
:1040000090E029833A834B835C830F9401114B0129
:104010005C0129813A814B815C81820E931EA41E32
:10402000B51EC501B40120E831E541E050E00F9430
:104030005B0C60E87EEA8EEF9FEF0F94F60B6B014E
:104040007C01C80CD91CEA1CFB1CBA01A90183E73E
:1040500097E10E94344CC701B60120E13EE040E008
:1040600050E00F945B0C49015A01BA01A90189E69D
:1040700097E10E94344CA0EFB1EFA50194010F9499
:10408000A40C6C0D7D1D8E1D9F1D2CE330E040E0C7
:1040900050E00F945B0CBA01A90181E697E10E9400
:1040A000344C8CE597E10F900F900F900F90DF91BB
:1040B000CF91FF90EF90DF90CF90BF90AF909F9007
:1040C0008F907F906F905F904F900C942B4B0F943C
:1040D000FA01C090FC17D090FD17E090FE17F09009
:1040E000FF176C197D098E099F0928EE33E040E027
:1040F00050E00F94390C83CF811102C08EE207C0CB
:10410000813011F48DE203C0823019F48CE20D94F9
:10411000BA020895EAE0F1E08081886080838081BE
:10412000806180838081806280836CE370E08EE2B6
:104130000F94BA026CE370E08DE20F94BA0262E869
:1041400070E08CE20F94BA02E1E2F1E08081887FB6
:1041500081608083089567FD43C08230E9F028F4D0
:10416000882341F0813061F03BC0833009F1843015
:1041700059F136C0662311F0A19A69C0A19867C0B1
:1041800080910801662311F0806801C08F778093C9
:10419000080147FF3AC05FC080910801662311F013
:1041A000806401C08F7B8093080147FF34C055C0F5
:1041B00080910801662311F0886001C0877F809399
:1041C000080147FF32C046C080910501662311F007
:1041D000806401C08F7B8093050147FF2EC03CC0E7
:1041E00047FD3BC08230B9F028F4882341F081308C
:1041F00061F008958330C9F08430F9F008954423C4
:1042000011F0A09A0895A0980895442311F0A29A5D
:104210000895A298089580910801442311F08062C6
:1042200001C08F7D80930801089580910801442387
:1042300011F08061F7CF8F7EF5CF80910501442387
:1042400011F0806401C08F7B80930501089547FFC2
:10425000D6CF08950895089508950895643079F0AB
:1042600028F4613041F0623041F00895683051F037
:10427000603141F0089540E003C040E004C041E0F7
:1042800060E002C041E061E066CFCF93DF938DE351
:1042900097E10E942B4B62B36695617070E082EFEC
:1042A00097E10E94024C62B3617070E08AE597E189
:1042B0000E940E4CC6E0D1E08881992787FD909539
:1042C000692F661F6627661F70E085E597E10E94EB
:1042D000024C62B362FB662760F970E08AE597E101
:1042E0000E940E4C688166FB662760F970E082E5EB
:1042F00097E10E94024C688165FB662760F970E0D7
:104300008AE597E10E940E4C688163FB662760F99D
:1043100070E08EE497E10E94024C688162956170C2
:1043200070E08AE597E10E940E4CC3E0D1E068811D
:1043300066FB662760F970E08AE497E10E94024C10
:10434000688166FB662760F970E08AE597E1DF9196
:10435000CF910C940E4CFF920F931F93CF93DF934A
:1043600000D01F921F92CDB7DEB785E0E7E4F3E0FF
:10437000DE01119601900D928A95E1F7989A9A9A2A
:10438000809107018062809307018091070180611D
:1043900080930701809104018064809304018E0161
:1043A0000F5F1F4FF12CF80161918F018F2D56DFA8
:1043B000F394F5E0FF12F7CF0F900F900F900F904E
:1043C0000F90DF91CF911F910F91FF9008950C9462
:1043D0001D750E940875209108023091090282170C
:1043E000930724F490930902809308020895609142
:1043F00008027091090280910602909107026817E5
:10440000790744F4709307026093060285EF97E101
:104410000C940E4C0895CF93C82F69E170E085E8A5
:104420009DE10E948EFF6C2F85E89DE10E942FFF89
:1044300060E085E89DE10E948FFF882329F08FE8E6
:104440009BE0CF910C942B4BCF910895CF93DF93AA
:10445000D82FC62F69E170E085E89DE10E948EFFAC
:104460006D2F85E89DE10E942FFF6C2F85E89DE16F
:104470000E942FFF85E89DE10E94A1FF882331F073
:1044800080E79BE0DF91CF910C942B4BDF91CF9194
:1044900008951F93CF93DF93182FBDDF41E050E0C5
:1044A00069E170E085E89DE10E9482FF85E89DE179
:1044B0000E94D8FE892BA1F085E89DE10E94E0FED4
:1044C000EC01612F70E086E69BE00E94024CBE0189
:1044D00077278DE59BE0DF91CF911F910C940E4CD7
:1044E0008FE39BE0DF91CF911F910C942B4B8AE1DE
:1044F0009BE00E942B4B85E89DE10E946DFF8FE0C1
:10450000C8DF81E3C6DF80E2C4DF6CE980E29EDFC2
:1045100080E2BFDF82E2BDDF60E482E297DF82E219
:10452000B8DF85E2B6DF60E085E290DF85E2B1DFEB
:1045300083E2AFDF60E383E289DF83E2AADF84E224
:10454000A8DF6AE484E282DF84E2A3DF80E3A1DF04
:1045500060E280E37BDF80E39CDF81E39ADF82E33C
:1045600098DF64E182E372DF82E393DF83E391DF2C
:1045700060E083E36BDF83E38CDF84E38ADF60E06A
:1045800084E364DF84E385DF86E383DF62E386E33D
:104590005DDF86E37EDF87E37CDF60E087E356DF75
:1045A00087E377DF88E375DF60E188E34FDF88E347
:1045B00070DF89E36EDF8AE36CDF62E38AE346DF64
:1045C0008AE367CF81E365DF85E363DF89E361DF4A
:1045D0008DE25FCF6DE081E795E00E94BC736AE0F9
:1045E00081E795E00C94BC73CF93C82FE0918603CC
:1045F000F091870342A953A964A975A922E08FED20
:1046000097E10E94634DE0918603F091870346A9EC
:1046100057A960AD71AD20E086EC97E10E94634D33
:104620000E94F55EAB01BC0122E08BED97E10E9498
:10463000634D4091190250911A0260911B027091D2
:104640001C0220E086EC97E10E94634DCC2391F0A0
:1046500061E070E08DEC97E10E94024C6CEF7FE02E
:104660008091110290911202681B790B8BEC97E1FB
:104670000E94024CE0910E02F0E0E754F84E608197
:1046800070E082ED97E10E94024CE091DE02EF3F84
:1046900029F4E0918603F0918703E081F0E0E7548C
:1046A000F84E608170E087ED97E10E94024CCF9157
:1046B00091CF2F923F924F925F926F927F928F9203
:1046C0009F92AF92BF92CF92DF92EF92FF920F93A1
:1046D0001F93CF93DF93CDB7DEB729970FB6F8942A
:1046E000DEBF0FBECDBF5C01DC0116968D919C91A3
:1046F00017978C38910509F4BBC508F0DAC08235EC
:10470000910509F40DC408F07EC08A31910509F4C1
:10471000C4C208F03FC08531910509F43CC278F469
:104720008231910509F416C28431910509F417C24A
:10473000419711F00C9488331798169801C587316A
:10474000910509F460C208F442C28831910509F468
:1047500088C2499711F00C94883360E085E699E1AE
:1047600029960FB6F894DEBF0FBECDBFDF91CF9173
:104770001F910F91FF90EF90DF90CF90BF90AF907F
:104780009F908F907F906F905F904F903F902F9071
:104790000C9440B98E31910509F4DCC218F58C31C6
:1047A000910509F4AFC210F00C94C13385E699E18C
:1047B00029960FB6F894DEBF0FBECDBFDF91CF9123
:1047C0001F910F91FF90EF90DF90CF90BF90AF902F
:1047D0009F908F907F906F905F904F903F902F9021
:1047E0000C94A1BD8A32910509F40EC328F4809778
:1047F00009F4DDC20C9488338035910510F00C94D7
:10480000C1330C9488338B36910511F40C94BA2C77
:1048100038F58C35910509F4E4C360F484359105CD
:1048200009F487C308F480C38535910509F4B8C33A
:104830000C9488338836910509F485C430F48336A6
:10484000910509F432C40C9488338936910509F432
:1048500062C58A36910511F40C94A92C0C94883306
:104860008337910511F40C940B2D80F48F3691054C
:1048700011F40C94DB2C8237910511F40C94292D42
:104880008D36910511F00C94883367C585379105F5
:1048900011F40C942C2D08F4E6C78737910511F418
:1048A0000C94572D8837910511F40C949A2D0C9483
:1048B00088338530B1E09B0711F40C94A83008F0E0
:1048C000B0C08F3C910511F40C94422F08F041C008
:1048D0008A3C910511F40C94712E70F4883C91057A
:1048E00011F40C94C02D10F00C94132E8E3B9105F6
:1048F00009F408C70C9488338C3C910511F40C948E
:10490000C82E10F40C94B62E8D3C910511F40C9425
:10491000282F8E3C910511F00C948833C5012996FF
:104920000FB6F894DEBF0FBECDBFDF91CF911F91C0
:104930000F91FF90EF90DF90CF90BF90AF909F903E
:104940008F907F906F905F904F903F902F900C943E
:1049500064578F3D910511F40C94FD2F88F48C3D24
:10496000910511F40C94AA2F8D3D910511F40C942E
:10497000D22F813D910511F00C9488330C948A2F2D
:10498000893E910511F40C94123040F5883E910552
:1049900011F00C9488336091C1177091C21786EFA3
:1049A00096E10E94024C4091BD175091BE17609154
:1049B000BF177091C01722E08DEE96E10E94264D40
:1049C0001092C2171092C1171092BD171092BE1705
:1049D0001092BF171092C0170C94C1338B3F9105F2
:1049E00011F40C944B308430914011F00C948833C6
:1049F00029960FB6F894DEBF0FBECDBFDF91CF91E1
:104A00001F910F91FF90EF90DF90CF90BF90AF90EC
:104A10009F908F907F906F905F904F903F902F90DE
:104A200066CD8E3521E0920711F40C940032C0F56A
:104A30008E3241E0940711F40C944B3198F4893193
:104A4000A1E09A0711F40C9400318C32B1E09B077D
:104A500011F40C9410318630914011F00C9488338D
:104A60000C94CA308034F1E09F0711F40C94BE31ED
:104A700038F48F32914011F40C948A310C948833BD
:104A8000813441E0940711F40C94C2318234914096
:104A900011F00C94883380E00E9467AE0C94D731FB
:104AA0008239A1E09A0711F40C94EB3298F588361C
:104AB000E1E09E0711F40C94B73238F4833691404C
:104AC00011F40C9471320C948833803931E09307DF
:104AD00011F40C94D1328139914011F00C94883347
:104AE00029960FB6F894DEBF0FBECDBFDF91CF91F0
:104AF0001F910F91FF90EF90DF90CF90BF90AF90FC
:104B00009F908F907F906F905F904F903F902F90ED
:104B10000C948AAC853F51E0950711F40C941B333B
:104B200060F4843F914011F00C94883380E00E943F
:104B3000DC508FE592E10C942633863FE1E09E073E
:104B400011F40C9440338C38934011F40C945A3384
:104B50000C948833179A169A159A0C94C13385E6EB
:104B600099E129960FB6F894DEBF0FBECDBFDF9155
:104B7000CF911F910F91FF90EF90DF90CF90BF905A
:104B8000AF909F908F907F906F905F904F903F90ED
:104B90002F900C94E5BC85E699E129960FB6F89420
:104BA000DEBF0FBECDBFDF91CF911F910F91FF9060
:104BB000EF90DF90CF90BF90AF909F908F907F90BD
:104BC0006F905F904F903F902F900C94C2B885E605
:104BD00099E129960FB6F894DEBF0FBECDBFDF91E5
:104BE000CF911F910F91FF90EF90DF90CF90BF90EA
:104BF000AF909F908F907F906F905F904F903F907D
:104C00002F900C94C7B8D5018D919C9197FD02C04F
:104C10000C94C13360E085E699E10E94D7C7F501A5
:104C2000EE5AFF4F6081718140E085E699E1299657
:104C30000FB6F894DEBF0FBECDBFDF91CF911F91AD
:104C40000F91FF90EF90DF90CF90BF90AF909F902B
:104C50008F907F906F905F904F903F902F900C942B
:104C600018BD85E699E129960FB6F894DEBF0FBE10
:104C7000CDBFDF91CF911F910F91FF90EF90DF900B
:104C8000CF90BF90AF909F908F907F906F905F90EC
:104C90004F903F902F900C942FB9F5018081918116
:104CA00092FD02C00C94C133468D578D60A171A155
:104CB0008091CF19882311F40C94C1334093C61905
:104CC0005093C7196093C8197093C91985EA99E17F
:104CD00029960FB6F894DEBF0FBECDBFDF91CF91FE
:104CE0001F910F91FF90EF90DF90CF90BF90AF900A
:104CF0009F908F907F906F905F904F903F902F90FC
:104D00000C941DC6D5018D919C9197FD02C00C9409
:104D1000C133F501EE5AFF4F6081718185E699E15B
:104D200029960FB6F894DEBF0FBECDBFDF91CF91AD
:104D30001F910F91FF90EF90DF90CF90BF90AF90B9
:104D40009F908F907F906F905F904F903F902F90AB
:104D50000C94C5BDF5018081918197FD02C00C9432
:104D6000C13360E085E699E10E94D7C7F501EE5AAC
:104D7000FF4F6081718185E699E129960FB6F8941D
:104D8000DEBF0FBECDBFDF91CF911F910F91FF907E
:104D9000EF90DF90CF90BF90AF909F908F907F90DB
:104DA0006F905F904F903F902F900C9426BED5014E
:104DB0008D919C9197FD02C00C94C13360E085E613
:104DC00099E10E94D7C7F501EE5AFF4F60817181CA
:104DD00085E699E129960FB6F894DEBF0FBECDBFE8
:104DE000DF91CF911F910F91FF90EF90DF90CF90C7
:104DF000BF90AF909F908F907F906F905F904F90FB
:104E00003F902F900C9454BEF5012081318133FDE9
:104E100002C00C94C13312A1E12EF3A0EDEAFBE035
:104E2000449150E04E155F0509F45EC032964CE0A7
:104E3000E132F407A9F7F7FC57C032FF2CC0D501C7
:104E40005E964D915D916D917C9191974F3F51058B
:104E50006105710509F0E0F461E0812F0F94D20340
:104E6000F501668D812F0F940B04D5015E966D912F
:104E70007C915F97812F0F94BA02B70180E397E18D
:104E80000E94024CF501668D778D8BE297E112C08E
:104E900083EF94E02BC062E0812F0F94D203B7011F
:104EA0008BE297E10E94024C812F0F944004BC01D9
:104EB00086E297E129960FB6F894DEBF0FBECDBF0C
:104EC000DF91CF911F910F91FF90EF90DF90CF90E6
:104ED000BF90AF909F908F907F906F905F904F901A
:104EE0003F902F900C940E4C8DEB94E029960FB6CA
:104EF000F894DEBF0FBECDBFDF91CF911F910F9110
:104F0000FF90EF90DF90CF90BF90AF909F908F90E9
:104F10007F906F905F904F903F902F900C944C4BF0
:104F200010921C190C94C13381E080931C190C94CD
:104F3000C133D5018D919C91119792FF14C05E965B
:104F40002D913D914D915C919197A8EEB3E00F9416
:104F5000980C6093E8027093E9028093EA029093C0
:104F6000EB020C94C1330E94321D81E029960FB6EA
:104F7000F894DEBF0FBECDBFDF91CF911F910F918F
:104F8000FF90EF90DF90CF90BF90AF909F908F9069
:104F90007F906F905F904F903F902F900C94729AFB
:104FA000F5018081918192FF12C0268D378D40A13D
:104FB00051A1A8EEB3E00F94980C6093EC027093AB
:104FC000ED028093EE029093EF020C94C1331092A5
:104FD000EC021092ED021092EE021092EF020C948D
:104FE000C133D5018C9183FF0EC01A968D919D918E
:104FF0000D90BC91A02D8093360390933703A0931E
:105000003803B0933903F501808184FF0CC0868595
:105010009785A089B18980933A0390933B03A0932D
:105020003C03B0933D03D5018C9185FF0EC0529691
:105030008D919D910D90BC91A02D80933E039093F6
:105040003F03A0934003B09341030E94DE9AF50111
:10505000808186FD02C00C94C1332091860330917B
:10506000870386899789A08DB18DF9018187928701
:10507000A387B487808129960FB6F894DEBF0FBE50
:10508000CDBFDF91CF911F910F91FF90EF90DF90F7
:10509000CF90BF90AF909F908F907F906F905F90D8
:1050A0004F903F902F900C943B5DD501ED91FC917A
:1050B0001197F2FF0DC05E962D913D914D915C913F
:1050C0009197A8EEB3E00F94980C6B017C0106C099
:1050D00040E1C42E47E2D42EE12CF12CE3FD179AD7
:1050E000F501808184FD169AD5018C9185FD159A74
:1050F0000F94FA012B013C014C0C5D1C6E1C7F1CB3
:105100000F94FA01A3019201261B370B480B590B90
:10511000DA01C901803A9648A140B10518F40E940D
:10512000D49FEECFD5018C9183FD1798F501808136
:1051300084FD1698D5018C9185FD02C00C94C13375
:1051400015980C94C1330E94146781110C94C133DB
:105150000F94FA016093C3177093C4178093C51717
:105160009093C6170E94621C81110C94C133F50103
:105170008081918193FF02C00C94AB3392FF0AC0EF
:10518000868D978DA0A1B1A1892B8A2B8B2B11F431
:105190000C94AB33D5018D919C91119792FD02C077
:1051A0000C94C1339C012227317091FF23C0232B23
:1051B00089F011E020E030E0A9015A966D917D91CF
:1051C0008D919C915D970F94BB0A18160CF010E01E
:1051D000212F01C020E085010C5A1F4FF501668D7B
:1051E000778D80A191A129870F945A092985D8012B
:1051F0004C9124C0232B81F011E020E030E0A90184
:10520000F501628D738D848D958D0F94BB0A1816F0
:105210000CF010E0212F01C020E0009186031091D6
:105220008703D5015E966D917D918D919C919197AB
:1052300029870F945A092985F801408129960FB6CC
:10524000F894DEBF0FBECDBFDF91CF911F910F91BC
:10525000FF90EF90DF90CF90BF90AF909F908F9096
:105260007F906F905F904F903F902F900C9464626E
:105270000E94146781110C94C1330F94FA0160935A
:10528000C3177093C4178093C5179093C6170E94D5
:10529000621C81110C94C133D5018D919C911197A1
:1052A00092FD02C00C94C13390FF11C011E020E0C8
:1052B00030E0A9015A966D917D918D919C915D97F9
:1052C0000F94BB0A18160CF010E0412F01C040E00B
:1052D000F501668D778D80A191A149870F945A09B8
:1052E000498529960FB6F894DEBF0FBECDBFDF917A
:1052F000CF911F910F91FF90EF90DF90CF90BF90D3
:10530000AF909F908F907F906F905F904F903F9065
:105310002F900C942D63D5018D919C9133E096953F
:1053200087953A95E1F7817029960FB6F894DEBF1C
:105330000FBECDBFDF91CF911F910F91FF90EF90E6
:10534000DF90CF90BF90AF909F908F907F906F90A5
:105350005F904F903F902F9047C90E941467811132
:105360000C94C1330F94FA016093C3177093C41760
:105370008093C5179093C6170E94621C81110C94EC
:10538000C13340E06CEA74E088EC9CE10E9459DE95
:1053900088EC9CE10E94ADE10E94321D20908603C2
:1053A00030908703F5018081918191FF09C0EC5A0B
:1053B000FF4F2081211104C02BE5222E22E0322E46
:1053C00092FF1EC090FF0FC011E020E030E0A90165
:1053D000D5015A966D917D918D919C915D970F9419
:1053E000BB0A18160CF010E0F501668D778D80A1D0
:1053F00091A10F945A09212FD1014C910E9464620E
:10540000F10126A937A940AD51AD62A973A984A9BC
:1054100095A90F9422082B013C0120E030E0A9015E
:105420000F94BB0A181664F420E030E040E050E42A
:10543000C301B2010F94870887FF0EC00C94C133DB
:1054400020E030E040E050ECC301B2010F94BB0A11
:10545000181614F40C94C13399249394D101D09666
:105460002D913C91D1979E968D919C919F978217FB
:1054700093070CF0912C0F94FA016D837E838F8338
:10548000988710E0412C512C32010F94FA01698366
:105490007A838B839C836093C3177093C417809324
:1054A000C5179093C617DC01CB012D813E814F813A
:1054B0005885821B930BA40BB50B893E9340A10525
:1054C000B10550F080E090D889819A81AB81BC8190
:1054D0008D839E83AF83B88781E00E94101D8091E9
:1054E0008603909187032816390609F064C0D1011C
:1054F0009396ED90FC9094971E141F040CF05BC0E3
:10550000111158C0992009F477C091966D917C9142
:105510009297882777FD8095982F0F945A099B01C1
:10552000AC01F10162A973A984A995A90F94BB0AE2
:10553000181614F00C94B833662777276E197F0974
:10554000882777FD8095982F0F945A092091420360
:105550003091430340914403509145030F942F0B26
:105560000F9427091F921F92D10152962C915297A6
:105570002F9351962C9151972F9350962C91509791
:105580002F931F962C912F935B016C01E12CF12C32
:10559000870120E030E0A90160E070E0CB010E94CB
:1055A00065920F900F900F900F900F900F9011E059
:1055B0000C94B83311E0411451046104710409F0F2
:1055C00050C09920F1F020E030E040E85FE3F101C5
:1055D00066A977A980AD91AD0F9422089B01AC011B
:1055E000D101D2966D917D918D919C91D5970F941B
:1055F000BB0A87FF1FC046CF4114510461047104E8
:1056000081F520E030E040E85FE3F10166A977A989
:1056100080AD91AD0F9423089B01AC01D101D296CE
:105620006D917D918D919C91D5970F948708181657
:105630000CF428CFF101A78DB0A128EE33E00F9430
:10564000920C2B013C0129813A814B815C81420EF5
:10565000531E641E751E411451046104710409F443
:1056600014CFD301C20129813A814B815C81821B15
:10567000930BA40BB50B81159449A543B74708F4C8
:1056800004CF112309F4E2C080918603909187032F
:105690002816390609F0DAC0D10193966D917C91F4
:1056A0009497882777FD8095982F0F945A09209119
:1056B00042033091430340914403509145030F94BA
:1056C0002F0B0F9427091F921F92F10122892F930C
:1056D00021892F9320892F9327852F935B016C01BC
:1056E000E12CF12C870120E030E0A90160E070E0BE
:1056F000CB010E9465920F900F900F900F900F902A
:105700000F90A4C00E94621C81110C94C13340E030
:1057100060EA74E088EC9CE10E9459DE88EC9CE130
:105720000E94ADE10E94321DD5018D919C9111978F
:1057300092FF1FC090FF11C011E020E030E0A901EE
:105740005A966D917D918D919C915D970F94BB0AB6
:1057500018160CF010E0412F01C040E0F501668DF5
:10576000778D80A191A149870F945A0949850E949C
:105770002D632091190230911A0240911B02509121
:105780001C0260911502709116028091170290918F
:1057900018020F9422082B013C0120E030E0A901FF
:1057A0000F94BB0A18165CF420E030E040EA50E4A5
:1057B000C301B2010F94870887FF0CC0E2C720E045
:1057C00030E040EA50ECC301B2010F94BB0A181656
:1057D0000CF4D7C70F94FA012B013C0120E030E014
:1057E00040E05FE36091150270911602809117020C
:1057F000909118020F9423082091190230911A02F7
:1058000040911B0250911C020F94870887FF1EC015
:105810000F94FA016419750986099709693E734066
:105820008105910578F080E00E94F4220F94FA013E
:105830002B013C016093C3177093C4178093C51765
:105840009093C61781E00E94101DC8CF1092311DA1
:105850000F94FA016093C3177093C4178093C51710
:105860009093C6178EC70E94621C81118AC70F943D
:10587000FA012B013C010F94FA016419750986099C
:105880009709693E73408105910538F080E00E94D8
:10589000F4220F94FA012B013C0181E00E94101DBB
:1058A00000910A0210910B02D8011B968D909D90D9
:1058B000AD90BC901E9720E030E040EF51E4C50170
:1058C000B4010F94BB0A1816BCF4F8012781308587
:1058D00041855285C501B4010F9422089F7701E0EC
:1058E00020E030E040E85FE30F94BB0A18160CF0AC
:1058F00000E011E0102701C011E0E0900C02F090F0
:105900000D02D7011B968D909D90AD90BC901E9777
:1059100020E030E040EF51E4C501B4010F94BB0A30
:1059200018169CF4F7012781308541855285C50101
:10593000B4010F9422089F7720E030E040E85FE355
:105940000F94BB0A18160CF496CF112309F493CFC9
:1059500018C7D5018D919C91119793FB662760F92B
:1059600092FF05C05E968D919C915F970AC08FEF64
:1059700090E007C0F501618163FB662760F980E074
:1059800090E029960FB6F894DEBF0FBECDBFDF9131
:10599000CF911F910F91FF90EF90DF90CF90BF902C
:1059A000AF909F908F907F906F905F904F903F90BF
:1059B0002F900C948B1FD5018D919C91119792FF84
:1059C00004C05E962C912093F90293FF12C0F5015A
:1059D00082A193A1A4A1B5A12091F90218161906DC
:1059E0001A061B0614F4822B02C081508223809376
:1059F000F9020E94621C882309F4C3C620E040E03B
:105A000060E070E0CB010E94646220E040E060E072
:105A100070E0CB0113CC8FE099E10E942B4B2996CB
:105A20000FB6F894DEBF0FBECDBFDF91CF911F91AF
:105A30000F91FF90EF90DF90CF90BF90AF909F902D
:105A40008F907F906F905F904F903F902F900C942D
:105A5000B51F8AE994E062C3D5018D919C9197FFAF
:105A600090C6F501EE5AFF4F6081718140E088ECED
:105A70009CE10E94D2DE88EC9CE129960FB6F89456
:105A8000DEBF0FBECDBFDF91CF911F910F91FF9071
:105A9000EF90DF90CF90BF90AF909F908F907F90CE
:105AA0006F905F904F903F902F900C94ADE10E94CB
:105AB000321D89E197E10E94134B379903C080E2C0
:105AC00097E102C083E297E10E94134B82E197E1E4
:105AD0000E94134B029903C080E297E102C083E267
