:100000000C94FA1C0C942B1D0C942B1D0C942B1D82
:100010000C942B1D0C942B1D0C942B1D0C942B1D40
:100020000C942B1D0C942B1D0C942B1D0C942B1D30
:100030000C942B1D0D94FF080C942B1D0C942B1D60
:100040000C942B1D0C944FDB0C942B1D0C942B1D2E
:100050000C942B1D0C94FBDC0C94F2DB0D94BF0371
:100060000C942B1D0C9453DD0C947DDD0C942B1DF6
:100070000C942B1D0C942B1D0C942B1D0C942B1DE0
:100080000C942B1D0C942B1D0C942B1D0C942B1DD0
:100090000C942B1D0C942B1D0C942B1D0D94CD0139
:1000A0000C942B1D0C942B1D0C942B1D0C942B1DB0
:1000B0000C942B1D0C942B1D0C942B1D0C942B1DA0
:1000C0000C942B1D0C942B1D0C942B1D0C942B1D90
:1000D0000C942B1D0C942B1D0C942B1D0C942B1D80
:1000E0000C942B1DDF95F795F795F795F795F795F8
:1000F000F795F795F795F795F795F795F795F795A0
:10010000F795F795F795F795F795F795F795F7958F
:10011000F795F795F795F795CE9580958A9504957F
:10012000F795B095BA95F795F7951595F294F795DB
:10013000A695F795C4959C959495F795F795F795A1
:1001400062956C957695F795F795F795F795F795F0
:10015000F795F795F795F795CE9580958A9504953F
:10016000F795B095BA95F795F7951595F294F7959B
:10017000A695F795C4959C959495F795F795F79561
:1001800062956C95769507B398B32BB47CB517C47C
:1001900017C417C417C417C417C417C417C417C487
:1001A000C4B400B53EB517C417C417C417C417C4E8
:1001B00017C417C417C417C417C417C4A3B805B904
:1001C00065B9C5B925BA85BAE5BA17C461BF69BBB7
:1001D000DFBB52BCC4BC36BDA8BD1ABE87BEF4BED0
:1001E00017C417C417C417C417C426B7F3B749B741
:1001F000A9BF16C082C0EFC010C152C184C1B6C130
:100200000FC26AC2C3C21CC33DC331C117C417C4E5
:1002100017C417C417C417C417C417C417C417C406
:1002200017C417C4C6B6F5B617C417C417C417C485
:1002300017C417C417C417C4BFC317C4C2B717C4A1
:1002400017C417C467C395C317C417C417C417C40A
:10025000FAB217C417C4BFB562B6A6B64BB8BC0194
:100260008401BE019801B201C8017A01A201940182
:1002700092019001B6018601C401C801AA01A6013C
:100280009A019C01C601B401C001880196019E013A
:100290008201AE01A401BA0176017E018E019601B0
:1002A000A001AC01C20107634236B79BD8A71A3937
:1002B000685618AEBAAB558C1D3CB7CC5763BD6DB4
:1002C000EDFD753EF6177231BF000000803F05A8B6
:1002D0004CCDB2D44EB93836A9020C50B9918688AB
:1002E000083CA6AAAA2ABE000000803F0D94010582
:1002F0000D944D000D9447030D942B000D940505AE
:100300000D943E000D94ED040D9424030D9484038C
:100310000D94DE040D944E000D94B3050D94090563
:100320000D946B030D9461030D9457030D941C05FC
:100330000D9433030D94AC030D94E2040D94E90481
:100340000D940F050D944F030D94F7040D94A20323
:100350000D9423000D9498030D9413050D94F3044C
:100360000D947A000D943D030D94D4040D947503FF
:100370000D94EE000D94FB040D941F030D942903BE
:100380000D94D8040D9417050D948E030D94E50477
:100390000D94B603436F6C6420657874727573694D
:1003A0006F6E20646973616C6C6F77656400436F76
:1003B0006C6420657874727573696F6E20616C6C03
:1003C0006F776564004175746F72657472616374F0
:1003D0003A0053657474696E67206D6F746F722094
:1003E00063757272656E742E2E2E00536574204DE7
:1003F0006963726F7374657070696E6700547269B7
:1004000067676572696E67207761746368646F6798
:100410002E204966206163746976617465642C20BE
:10042000746865207072696E7465722077696C6C8F
:100430002072657365742E0053657474696E67204D
:100440005468726573686F6C6420546F3A00494E4B
:10045000542050494E3A20004D323531200020744E
:100460006F200053657420766F6C756D65747269CA
:100470006320657874727573696F6E20666F722081
:100480006578747275646572200044697361626C8A
:10049000656420766F6C756D65747269632065782C
:1004A00074727573696F6E20666F722065787472EE
:1004B0007564657220004D313134200048656174E7
:1004C000696E67204265640048656174696E6720E3
:1004D00045787472756465720050696E2063616E50
:1004E000206E6F7420626520736574206279204DE0
:1004F00034322C206D617920696E20696E76616CD2
:100500006964206F7220696E207573652E20004922
:100510006C6C6567616C20532076616C7565206634
:100520006F72204D3432005A2028432920746F778F
:10053000657220666C6F6F722073657420746F3AF9
:100540002000592028422920746F77657220666C3C
:100550006F6F722073657420746F3A2000582028E2
:10056000412920746F77657220666C6F6F722073FB
:10057000657420746F3A2000526F64205261646980
:1005800075732073657420746F3A200047313334DB
:100590002000506F7346726F6D53746570733A002C
:1005A000436F6D7044656C74613A0043616C6962BD
:1005B000726174696F6E206D6F76656D656E742003
:1005C0006973206C696D6974656420746F203130C3
:1005D0006D6D2E004669727374206D6F76652074A0
:1005E0006F20746F75636820617420782C793D30BA
:1005F0002C3020746F206175746F2D7365742072B8
:1006000061646975732E0043616C6962726174691B
:100610006F6E206D6F76656D656E74206973206CEA
:10062000696D6974656420746F2031306D6D2E00C2
:1006300043616E6E6F7420736574207261646975B6
:100640007320616E6420666C6F6F7220617420731A
:10065000616D652074696D652E0043616C6962721D
:100660006174696F6E20636F6465206973206C69C3
:100670006D6974656420746F20626F74746F6D208F
:10068000313025206F66205A2068656967687400DC
:1006900052656C617469766520706F736974696FF7
:1006A0006E696E67004162736F6C75746520706F60
:1006B000736974696F6E696E670047363920005A36
:1006C0003A2000593A2000583A20004F46465345F8
:1006D0005453204F464620425920544F4F204D55E9
:1006E0004348205F20545259494E472041474149D1
:1006F0004E3A200053657474696E672050726F62C1
:10070000652053656E736974697669747920546FD6
:100710003A005A2070726F6265206661696C656488
:10072000206F6E2073656E73697469766974793AA7
:10073000200053657474696E672050726F62652083
:1007400053656E736974697669747920546F3A00E1
:100750005A2070726F6265206661696C6564206FF3
:100760006E2073656E73697469766974793A2000D6
:1007700053657474696E672050726F6265205365AB
:100780006E736974697669747920546F3A005A20DF
:1007900070726F6265206661696C6564206F6E209F
:1007A00073656E73697469766974793A2000686557
:1007B0006865004E6577205261646975733A200060
:1007C0004F6C64205261646975733A200043616C18
:1007D00063756C6174656420526164697573206926
:1007E0007320626164203A0053657474696E6720F7
:1007F00050726F62652053656E73697469766974AF
:100800007920546F3A005A2070726F6265206661D9
:10081000696C6564206F6E2073656E7369746976A8
:100820006974793A200053657474696E6720507258
:100830006F62652053656E73697469766974792097
:10084000546F3A005A2070726F6265206661696C5D
:100850006564206F6E2073656E7369746976697460
:10086000793A2000473332200050524F42452D5AEA
:100870004F46465345543A0047333000536574742D
:10088000696E672050726F62652053656E7369747C
:10089000697669747920546F3A0050726F6265739B
:1008A00020646F206E6F74206D617463682E204F1A
:1008B0006666206279200047333020004D313137A1
:1008C0002043414C4942524154494F4E20434F4DE1
:1008D000504C4554450068656865004E6577204872
:1008E0006F72697A6F6E74616C205261646975739E
:1008F0003A20004F6C6420486F72697A6F6E7461A1
:100900006C205261646975733A200043616C6375B1
:100910006C61746564205261646975732069732029
:100920006261643A20004D3131372043414C4942E5
:10093000524154494F4E204641494C454400436181
:100940006C6962726174696F6E204661696C65647E
:100950000053657474696E672050726F626520532E
:10096000656E736974697669747920546F3A005AB8
:100970002070726F626520284852202D205A207402
:100980006F77657229206661696C6564206F6E20DF
:1009900073656E73697469766974793A20004E657F
:1009A00077205A204865696768743A004F6C642064
:1009B0005A204865696768743A004D3131372043E1
:1009C000414C4942524154494F4E204641494C45C1
:1009D000440043616C6962726174696F6E204661A4
:1009E000696C65640053657474696E672050726F3A
:1009F00062652053656E73697469766974792054F1
:100A00006F3A005A2070726F626520284852202D7C
:100A10002043656E74657220506F696E742920667C
:100A200061696C6564206F6E2073656E73697469AB
:100A3000766974793A200047363920005A3A200006
:100A4000593A2000583A20004D31313720456E6424
:100A500073746F70204F6666736574204572726F91
:100A600072004F464653455453204F464620425944
:100A700020544F4F204D5543482E2041626F7274D1
:100A8000696E672E2053656E73697469766974792F
:100A90003A20004D3131372043414C4942524154B4
:100AA000494F4E204641494C45440043616C6962C0
:100AB000726174696F6E204661696C65640053658C
:100AC0007474696E672050726F62652053656E732F
:100AD0006974697669747920546F3A005A2070728B
:100AE0006F626520285A20546F77657229206661ED
:100AF000696C6564206F6E2073656E7369746976C6
:100B00006974793A20004D3131372043414C4942D4
:100B1000524154494F4E204641494C45440043619F
:100B20006C6962726174696F6E204661696C65649C
:100B30000053657474696E672050726F626520534C
:100B4000656E736974697669747920546F3A005AD6
:100B50002070726F626520285920546F7765722962
:100B6000206661696C6564206F6E2073656E7369C1
:100B70007469766974793A20004D313137204341E8
:100B80004C4942524154494F4E204641494C4544FC
:100B90000043616C6962726174696F6E20466169BD
:100BA0006C65640053657474696E672050726F627F
:100BB000652053656E736974697669747920546F22
:100BC0003A005A2070726F626520285820546F775F
:100BD000657229206661696C6564206F6E2073659B
:100BE0006E73697469766974793A2000456E64732E
:100BF000746F70287329206E6F7420776F726B6921
:100C00006E672070726F7065726C79005A2000599F
:100C100020005820004572726F723A20004D313129
:100C20003720454E4453544F50204552524F5200A6
:100C30004D3130342053300A4D3134302053300A96
:100C40004D313037004D3131372049324320457224
:100C5000726F722E2041626F7274696E6700493242
:100C600043204572726F72202D2043616C6962725D
:100C70006174696F6E2041626F7274656400456EC5
:100C80006473746F70287329206E6F7420776F728D
:100C90006B696E672070726F7065726C79005A2094
:100CA000005920005820004572726F723A20004DA2
:100CB00031313720454E4453544F50204552524F06
:100CC00052006578656375746547436F6465202FCE
:100CD00020717565756544656C74614D6F7665202E
:100CE00072657475726E73206572726F72006969D5
:100CF0007332646820616363656C65726F6D6574DF
:100D0000657220696E697469616C697A696E672EB3
:100D10002E2E00616363656C65726F6D657465721C
:100D2000206932632072656376206661696C656450
:100D30002E00616363656C65726F6D65746572200A
:100D4000777269746520693263206661696C6564D5
:100D50002E00616363656C65726F6D6574657220EA
:100D600073656E6420693263206661696C65642E08
:100D70000000000100250030001D000C00180024B8
:100D80000031001C000B00170023002F001B000A7D
:100D9000001E000D00FFFF0900030022002B001AB7
:100DA0000041004200000002003500206465672E0B
:100DB000204300206D656173757265642000457283
:100DC000726F723A436F756C64206E6F7420686F37
:100DD0006C642074656D7065726174757265200055
:100DE000206D730020616674657220004572726F19
:100DF000723A54656D702E20726169736564207457
:100E00006F20736C6F772E2052697365203D200030
:100E10004739310A4731452D313830463630303088
:100E20000A473930004D3131372045787472756486
:100E3000657220300A54300A4D38342050340A4745
:100E400039310A47314531373246363030300A477A
:100E5000314535463530300A473930001C151C14F1
:100E60000000002243141F1F70121C12AC115C11F1
:100E7000000000000000D410C80F780FFC0E800E98
:100E80000400081D900058091C01B007A801C806FD
:100E900034023006C002C0054C036805D8031805AB
:100EA0006404D004F00498047C056004080630044F
:100EB000940600042007D003AC07A8033808800379
:100EC000C408580350093003DC090803680AD80233
:100ED000F40AB002800B88020C0C6002980C3002FD
:100EE000240DF801B00DC0013C0E8001C80E300188
:100EF000540FB800B40F2800E00F00000400401D9C
:100F0000900060091C01B007A801D0063402380621
:100F1000C002C8054C036805D80318056404D8044A
:100F2000F00498047C05600408063004940600046C
:100F30002007D003AC07A80338088003C40858036F
:100F400050093003DC090803680AE002F40AB80219
:100F5000800B88020C0C6002980C3002240DF80102
:100F6000B00DC0013C0E8001C80E3001540FB80016
:100F7000B40F2800E00F000004000016D800C006DF
:100F8000AC0178058002C004540348042804E80337
:100F9000FC049803D0055003A40618037807D80270
:100FA0004C08A80220097002F4093802C80A080295
:100FB0009C0BD001700C9001440D5001180EF800EC
:100FC000EC0E8800C00F00000400681D4C00500BA0
:100FD00094005809DC0050082401A8076C01280778
:100FE000B401C006FC017006440228068C02F0051C
:100FF000D402B8051C03880564035805AC0330050A
:10100000F40310053C04E8048404C804CC04A804D8
:10101000140590045C057004A4055804EC0538041C
:10102000340620047C060804C406F0030C07D80329
:101030005407C8039C07B003E40798032C088003F7
:1010400074087003BC085803040948034C093003B2
:1010500094091803DC090803240AF0026C0AE00270
:10106000B40AC802FC0AB002440BA0028C0B88022E
:10107000D40B70021C0C5802640C4002AC0C280209
:10108000F40C10023C0DF001840DD801CC0DB80118
:10109000140E98015C0E7001A40E4801EC0E1801AC
:1010A000340FD8007C0F8800C40F0800FC0F00002C
:1010B0000000000000000000000000000000000030
:1010C0000000000000000000000000000000000020
:1010D000000000000000401F450060094F0010099B
:1010E0005C00C0086B0070087D0020089200D007EB
:1010F000AC008007CC003007DE00E006230190063C
:101100005E014006A601F005FF01A0056D02500535
:10111000F30200059603B0045A046004400510046D
:101120004806C0036E077003A8082003EB09D0022D
:10113000230B8002410C3002390DE001040E9001B6
:10114000A20E4001170FF000690FA000A20F50007F
:10115000C60F0000DD0FB0FFEB0F60FF0400700D45
:10116000D8004804AC0158038002D802540380021E
:1011700028043802FC040002D005C801A406980126
:10118000780770014C08480120091801F409F000A3
:10119000C80AC8009C0BA000700C7000440D3800F9
:1011A000180E0000EC0EA8FFC00FE8FE0400001BA4
:1011B00054006009640010097400C00884007008BD
:1011C0009C002008B800D007D80080070001300735
:1011D0002C01E00668019006AC0140060002F00513
:1011E0006802A005E0025005740300052404B00461
:1011F000F0046004DC051004E406C0030408700376
:1012000030092003780B8002600DE001A80E400138
:10121000680FA000C00F0000E80F60FF0400801AF4
:10122000D8009808AC012007800250065403C80576
:1012300028045805FC040005D005B004A406680481
:10124000780728044C08E8032009B003F409700368
:10125000C80A38039C0BF802700CB002440D6802F7
:10126000180E0802EC0E8801C00F8800F00F000075
:101270000000A00F5C006009690010097900C00837
:101280008C007008A2002008BD00D007DE00800797
:10129000050130073401E0066D019006B2014006F9
:1012A0000702F0056D02A005E80250057B0300056A
:1012B0002B04B004F8046004EB06C00335092003D6
:1012C0007F0B8002650DE001B00E40011D0FF000A4
:1012D000480FC8006C0FA000ED0F60FFFE0F48FE26
:1012E000000200002110422063308440A550C660F7
:1012F000E770088129914AA16BB18CC1ADD1CEE1D3
:10130000EFF13112100273325222B5529442F77249
:10131000D662399318837BB35AA3BDD39CC3FFF322
:10132000DEE36224433420040114E664C774A44459
:1013300085546AA54BB528850995EEE5CFF5ACC572
:101340008DD55336722611163006D776F666955629
:10135000B4465BB77AA719973887DFF7FEE79DD7C2
:10136000BCC7C448E5588668A778400861180228B9
:101370002338CCC9EDD98EE9AFF9488969990AA912
:101380002BB9F55AD44AB77A966A711A500A333A89
:10139000122AFDDBDCCBBFFB9EEB799B588B3BBB62
:1013A0001AABA66C877CE44CC55C222C033C600C19
:1013B000411CAEED8FFDECCDCDDD2AAD0BBD688DB2
:1013C000499D977EB66ED55EF44E133E322E511E69
:1013D000700E9FFFBEEFDDDFFCCF1BBF3AAF599F02
:1013E000788F8891A981CAB1EBA10CD12DC14EF1A2
:1013F0006FE18010A100C230E32004502540467008
:101400006760B9839893FBA3DAB33DC31CD37FE332
:101410005EF3B1029012F322D23235421452776257
:101420005672EAB5CBA5A89589856EF54FE52CD502
:101430000DC5E234C324A0148104667447642454A7
:101440000544DBA7FAB79987B8975FE77EF71DC712
:101450003CD7D326F2369106B016576676761546F7
:1014600034564CD96DC90EF92FE9C899E9898AB962
:10147000ABA94458654806782768C018E108823847
:10148000A3287DCB5CDB3FEB1EFBF98BD89BBBAB72
:101490009ABB754A545A376A167AF10AD01AB32A97
:1014A000923A2EFD0FED6CDD4DCDAABD8BADE89DC2
:1014B000C98D267C076C645C454CA23C832CE01CE7
:1014C000C10C1FEF3EFF5DCF7CDF9BAFBABFD98F52
:1014D000F89F176E367E554E745E932EB23ED10E37
:1014E000F01E7C3C3E5E2B3D3F2F5B5D3B2C2A2259
:1014F0005C004D617854656D703A004469616D65BA
:101500007465723A00416363656C65726174696FFA
:101510006E3A004D617853706565643A004A6572B1
:101520006B3A004D617842656454656D703A0050C5
:1015300072696E746572547970653A44656C746151
:10154000005A54726176656C416363656C3A005968
:1015500054726176656C416363656C3A00585472ED
:101560006176656C416363656C3A005A5072696ECE
:1015700074416363656C3A00595072696E744163DB
:1015800063656C3A00585072696E74416363656CB0
:101590003A005A53697A653A005953697A653A00B4
:1015A0005853697A653A005A4D61783A00594D614D
:1015B000783A00584D61783A005A4D696E3A0059B0
:1015C0004D696E3A00584D696E3A004A65726B5823
:1015D000593A005072696E746C696E654361636854
:1015E000653A00454550524F4D3A004175746F6C55
:1015F0006576656C3A005A50726F62653A004361D5
:1016000073654C69676874733A00537570706F72D4
:10161000744C6F63616C46696C616D656E74636870
:10162000616E67653A00537570706F727447313040
:101630004731313A005A486F6D654469723A005932
:10164000486F6D654469723A0058486F6D6544692A
:10165000723A00536F667477617265506F77657286
:101660005377697463683A004C43443A0046616EAC
:101670003A005344436172643A004865617465649A
:101680004265643A004D6978696E67457874727591
:101690006465723A004E756D457874727564657252
:1016A0003A00496E7075744275666665723A00421A
:1016B000617564726174653A004E6F206361736591
:1016C000206C6967687473004D31313420006465A3
:1016D0006C6179203130306D732E00686F6D65411B
:1016E0007869732000686F6D6541786973202F20D9
:1016F000717565756544656C74614D6F76652072B2
:10170000657475726E73206572726F7200486F6DCA
:10171000652044656C7461005072696E7465723A3C
:101720003A736574757020006D6F7665546F5265FD
:10173000616C202F20717565756544656C74614D11
:101740006F76652072657475726E73206572726F44
:1017500072006D6F7665546F202F20717565756509
:1017600044656C74614D6F76652072657475726E38
:1017700073206572726F72005374657070657220A9
:1017800044697361626C6564004B696C6C656400EC
:101790006973506F736974696F6E416C6C6F7765B4
:1017A0006420005344206572726F72206669786508
:1017B00064005344206572726F7220646964206E05
:1017C0006F74207265636F766572210053442052F6
:1017D000656164204572726F720055706C6F616450
:1017E000696E672E2E2E00005344207072696E744D
:1017F0002073746F707065642062792075736572F0
:101800002E005344206361726420696E73657274A4
:101810006564005344204361726420696E7365728D
:1018200074656400534420436172642072656D6F77
:1018300076656400534420636172642072656D6F45
:1018400076656400457874722E00436F6E66696732
:101850003A004F6E65206865617465722073656536
:101860006D73206465636F75706C65642066726F5C
:101870006D20746865726D6973746F72202D2064B9
:10188000697361626C696E6720616C6C20666F724F
:101890002073616665747921004865617465722002
:1018A0006465636F75706C6564004372656174692B
:1018B0006F6E206661696C6564004469726563746B
:1018C0006F727920637265617465640044656C654C
:1018D00074696F6E206661696C65640046696C6549
:1018E0002064656C6574656400446F6E6520736187
:1018F00076696E672066696C652E00577269746937
:101900006E6720746F2066696C653A20006F7065A1
:101910006E206661696C65642C2046696C653A20AE
:10192000004E6F74205344207072696E74696E6744
:10193000005344207072696E74696E672062797416
:1019400065200066696C652E6F70656E2066616942
:101950006C65640046696C652073656C65637465CD
:1019600064002053697A653A0046696C65206F709F
:10197000656E65643A00456E642066696C65206C2E
:1019800069737400426567696E2066696C65206CD6
:10199000697374006572726F722077726974696E10
:1019A0006720746F2066696C6500534420696E6916
:1019B00074206661696C00616476616E6365204CB9
:1019C000205B303D6F66665D006578747275646596
:1019D0007220636F6F6C6572207370656564205B45
:1019E000302D3235355D0064697374616E63652036
:1019F000746F2072657472616374207768656E20FD
:101A000068656174696E67205B6D6D5D0074656DFE
:101A1000702E20666F722072657472616374696FD4
:101A20006E207768656E2068656174696E67205BFB
:101A3000435D0074656D702E2073746162696C691A
:101A40007A652074696D65205B735D00592D6F6642
:101A500066736574205B73746570735D00582D6FD9
:101A60006666736574205B73746570735D005049BE
:101A700044206D61782076616C7565205B302D3275
:101A800035355D0050494420442D6761696E005032
:101A9000494420492D6761696E0050494420502D0A
:101AA0006761696E2F646561642D74696D650050AE
:101AB0004944206472697665206D696E005049441E
:101AC000206472697665206D6178006865617420B4
:101AD0006D616E61676572205B302D335D006163FF
:101AE00063656C65726174696F6E205B6D6D2F73D9
:101AF0005E325D0073746172742066656564726144
:101B00007465205B6D6D2F735D006D61782E2066AE
:101B100065656472617465205B6D6D2F735D007324
:101B20007465707320706572206D6D00426564206D
:101B3000504944206D61782076616C7565205B307A
:101B40002D3235355D004265642050494420442DD6
:101B50006761696E004265642050494420492D67E1
:101B600061696E004265642050494420502D6761D0
:101B7000696E00426564205049442064726976654C
:101B8000206D696E0042656420504944206472698A
:101B90007665206D61780042656420486561742037
:101BA0004D616E61676572205B302D335D00436F60
:101BB00072722E20646961676F6E616C2043205BD6
:101BC0006D6D5D00436F72722E20646961676F6E88
:101BD000616C2042205B6D6D5D00436F72722E2040
:101BE000646961676F6E616C2041205B6D6D5D00A3
:101BF0004D6178207072696E7461626C65207261EB
:101C000064697573205B6D6D5D00546F776572203C
:101C10005A20656E6473746F70206F6666736574A6
:101C2000205B73746570735D00546F776572205923
:101C300020656E6473746F70206F666673657420C0
:101C40005B73746570735D00546F77657220582004
:101C5000656E6473746F70206F6666736574205B65
:101C600073746570735D005365676D656E74732F73
:101C70007320666F722074726176656C00536567BD
:101C80006D656E74732F7320666F72207072696E4B
:101C900074696E6700486F72697A6F6E74616C2048
:101CA000726F642072616469757320617420302CD6
:101CB00030205B6D6D5D00446961676F6E616C2003
:101CC000726F64206C656E677468205B6D6D5D007B
:101CD000486F6D696E672066656564726174652022
:101CE0005B6D6D2F735D004D61782E2066656564B8
:101CF00072617465205B6D6D2F735D005374657048
:101D00007320706572206D6D0054726176656C2071
:101D1000616363656C65726174696F6E205B6D6D84
:101D20002F735E325D00416363656C657261746937
:101D30006F6E205B6D6D2F735E325D004D61782E8E
:101D4000206A65726B205B6D6D2F735D005A206D8C
:101D50006178206C656E677468205B6D6D5D0059FD
:101D6000206D6178206C656E677468205B6D6D5DB9
:101D70000058206D6178206C656E677468205B6D1B
:101D80006D5D005A20686F6D6520706F73205B6D0C
:101D90006D5D005920686F6D6520706F73205B6DFD
:101DA0006D5D005820686F6D6520706F73205B6DEE
:101DB0006D5D0053746F7020737465707065722070
:101DC000616674657220696E61637469766974799D
:101DD000205B6D732C303D6F66665D004D61782E23
:101DE00020696E6163746976652074696D65205B36
:101DF0006D732C303D6F66665D005072696E746560
:101E00007220616374697665205B735D0046696C5E
:101E1000616D656E74207072696E746564205B6DAF
:101E20005D00416476616E63656420557365720080
:101E30004261756472617465004550523A33200006
:101E40004550523A3220004550523A312000455018
:101E5000523A30200050726F746F636F6C20766559
:101E60007273696F6E206368616E6765642C20759C
:101E70007067726164696E6700436F6E666967754B
:101E8000726174696F6E20726573657420746F205F
:101E900064656661756C74732E00436F6E66696766
:101EA00075726174696F6E206C6F61646564206621
:101EB000726F6D20454550524F4D2E00436F6E6638
:101EC000696775726174696F6E2073746F7265648F
:101ED00020746F20454550524F4D2E004175746F50
:101EE0006C6576656C206163746976652028312F96
:101EF0003029005A2D70726F6265205933005A2DB7
:101F000070726F6265205833005A2D70726F62656F
:101F1000205932005A2D70726F6265205832005A73
:101F20002D70726F6265205931005A2D70726F6288
:101F300065205831005A2D70726F626520782D79B6
:101F40002D7370656564205B6D6D2F735D005A2D78
:101F500070726F6265207370656564205B6D6D2FB4
:101F6000735D005A2D70726F6265206F66667365CF
:101F7000742079205B6D6D5D005A2D70726F626503
:101F8000206F66667365742078205B6D6D5D004D13
:101F900061782E207A2D70726F6265202D20626527
:101FA0006420646973742E205B6D6D5D005A2D7022
:101FB000726F626520686569676874205B6D6D5D2E
:101FC0000077616974005072696E7465722068658B
:101FD000696768743A005A2D70726F626520666195
:101FE000696C6564005472616E73666F726D6174C2
:101FF000696F6E206D61747269783A004175746F13
:102000006C6576656C696E672064697361626C6586
:1020100064004175746F6C6576656C696E672065E8
:102020006E61626C6564004175746F6C6576656C99
:10203000206D617472697820726573657400004761
:1020400032382F6E47315A32352F6E005A2D70724A
:102050006F62652073746174653A005265736574CC
:10206000205A20686569676874005A2D70726F6223
:102070006520617665726167652068656967687467
:102080003A00205374657020566172696174696FFB
:102090006E2066726F6D2050726F626520746F20C3
:1020A0006265642044697374616E63653A005A2DF9
:1020B00070726F62653A005072696E746572207357
:1020C000657420696E746F206472792072756E2059
:1020D0006D6F646520756E74696C207265737461D0
:1020E000727421003A20776F726B696E67003A2034
:1020F00074656D702073656E736F722064656665BC
:102100006374006578747275646572200068656137
:1021100074656420626564004D54454D503A00502A
:102120004944204175746F74756E652066696E69E7
:1021300073686564202120506C6163652074686554
:10214000204B702C204B6920616E64204B6420630F
:102150006F6E7374616E747320696E20746865208D
:10216000436F6E66696775726174696F6E2E682061
:102170006F7220454550524F4D00504944204175E3
:10218000746F74756E65206661696C656421207476
:10219000696D656F757400504944204175746F74A2
:1021A000756E65206661696C6564212054656D708B
:1021B0006572617475726520746F20686967680064
:1021C000204B643A2000204B693A2000204B703AA3
:1021D000200020436C6173736963205049440020E0
:1021E00054753A2000204B753A2000206D61783AF2
:1021F0002000206D696E3A200020643A20002062A1
:102200006961733A2000504944204175746F7475B8
:102210006E652073746172740054617267657442F4
:1022200065643A0054617267657445787472004E53
:102230006F206D6F766520696E2064656C74612017
:102240007365676D656E742077697468203E203110
:10225000207365676D656E742E20546869732073F2
:10226000686F756C64206E65766572206861707049
:10227000656E20616E64206D6179206361757365A0
:1022800020612070726F626C656D210044656C7412
:10229000612052616469757320432830293A0044F3
:1022A000656C74612052616469757320422830291D
:1022B0003A0044656C746120526164697573204111
:1022C0002830293A00416C70686120432839302950
:1022D0003A00416C706861204228333330293A005B
:1022E000416C706861204128323130293A00546FC6
:1022F00077657220333A00546F77657220323A0066
:10230000546F77657220313A00496E76616C69646A
:102310002064656C746120636F6F7264696E6174B0
:1023200065202D206D6F76652069676E6F7265641C
:10233000006C696E656172204C3A00454550524F01
:102340004D2075706461746564002C207370656540
:10235000643D00206C696E656172207374657073F2
:102360003A004A65726B3A007A5F6D61783A00799B
:102370005F6D61783A00785F6D61783A004C2000BB
:10238000482000206973200020746F20005365747A
:10239000206F75747075743A20004D53312C4D5375
:1023A000322050696E730045313A0045303A005A88
:1023B0003A00593A0020002C00206D696E00206818
:1023C0006F7572732000206461797320006D2000A6
:1023D0005072696E74696E672074696D653A005059
:1023E00072696E7465642066696C616D656E743ABD
:1023F0000046616E73706565643A00482E20526134
:10240000646975733A00466C6F774D756C746970CA
:102410006C793A0053706565644D756C7469706CC5
:10242000793A00202F002F003A0020524157002017
:1024300042403A0020403A0020423A00543A0020FC
:10244000453A00205A3A0020593A0020583A00589C
:102450003A00467265652052414D3A00556E6B6EEA
:102460006F776E20636F6D6D616E643A00536F66B7
:102470007477617265205265736574005761746387
:1024800068646F672052657365740042726F776E7F
:10249000206F757420526573657400457874657299
:1024A0006E616C20526573657400506F776572556C
:1024B0007000737461727400424C4B2000736B693E
:1024C00070200020676F7420004572726F723A6549
:1024D00078706563746564206C696E652000534490
:1024E0002072656164206572726F72002052002054
:1024F0004A0020490020500020530020460020457B
:1025000000205A00205900205800446F6E6520704A
:1025100072696E74696E672066696C6500466F72D9
:102520006D6174206572726F720057726F6E6720F2
:10253000636865636B73756D004563686F3A00523D
:102540006573656E643A005761726E696E673A0032
:10255000496E666F3A004572726F723A00494E4694
:10256000004E414E006F6B004649524D5741524557
:102570005F4E414D453A52657065746965725F30D2
:102580002E39322E32204649524D574152455F4432
:102590004154453A3230313731313133204D4143A6
:1025A00048494E455F545950453A526F73746F63B2
:1025B0006B204D415820763320005265717565734C
:1025C0007450617573653A004D31313720494E536F
:1025D0004552542053442043415244004D31313739
:1025E0002053442043415244204552524F520055FB
:1025F000495F414354494F4E5F5345545F4D4541F8
:1026000053555245445F4F524947494E20004E6F43
:1026100020534420436172640053687574204F66F0
:102620006620414C4C2048656174730050726568A7
:102630006561742041425300507265686561742081
:10264000504C410055495F414354494F4E5F484FFC
:102650004D455F5A200055495F414354494F4E5FF5
:10266000484F4D455F59200055495F414354494FFC
:102670004E5F484F4D455F58200055495F414354D8
:10268000494F4E5F484F4D45414C4C200055495FE6
:10269000414354494F4E5F5A504F534954494F4E4E
:1026A0005F464153545F4E4F5445535420005549A3
:1026B0005F414354494F4E5F5A504F534954494F1D
:1026C0004E5F4E4F54455354200055495F4143548B
:1026D000494F4E5F45504F534954494F4E20005586
:1026E000495F414354494F4E5F5A504F53495449F3
:1026F0004F4E5F46415354200055495F4143544972
:102700004F4E5F59504F534954494F4E5F464153C6
:1027100054200055495F414354494F4E5F58504F34
:10272000534954494F4E5F46415354200055495F29
:10273000414354494F4E5F5A504F534954494F4EAD
:10274000200055495F414354494F4E5F59504F5304
:102750004954494F4E200055495F414354494F4E1B
:102760005F58504F534954494F4E200042616E67A5
:1027700042616E6700536C6F7742616E670044651B
:1027800061642054696D650050494400003A00209E
:1027900064617973200050657263656E74205072B5
:1027A000696E7465643A00206465662000465720AF
:1027B0004461746520323031373131313300526F2A
:1027C00073746F636B4D41587633005365654D6587
:1027D000434E4300526F73746F636B204D4158201A
:1027E00076330064341A34AD335033416374696F07
:1027F0006E3A256C6100040003004E6F005965734A
:10280000004E2F41004F6666004F6E000000003FF3
:10281000CDCC4C3D0AD7A33B6F12033A526570658D
:1028200074696572207620302E39322E32000040D5
:1028300014548025000040380000004B00008070D8
:10284000000000960000C0DA000000E10000002C4B
:10285000010008B2010000C2010000F40100008480
:10286000030090D0030000E803000008070020A147
:10287000070000100E0040420F0060E31600000049
:102880000000110A0411040A1111001C1F11111F6C
:102890000000040A0A0A0E1F1F0E001F1111111F4B
:1028A0000000001F1F1F1F1F0000040A040000007B
:1028B0000000040E15041C0000000200000600C108
:1028C00028D7302729A82DFA28FB2D6929020000D6
:1028D0000700D428D730E228A82DFA28FB2D332D65
:1028E0000E29E92802A92E00005072696E746572E3
:1028F0002053657474696E6773000129027B2F0091
:102900000041646A7573742054656D7073001529F5
:10291000023F290000416476616E6365642053655F
:102920007474696E6773002E2902C02E0000507205
:10293000696E7465722053657474696E6773000202
:10294000000009004629D730542A402A302A202A7C
:102950005829092AF12969295F2902D62C00004447
:102960006562756767696E6700702902B82F00009D
:1029700043616C6962726174696F6E204D656E753A
:10298000000310270200882993298C299A29000026
:10299000000000AB2900000000006C6F61646564FA
:1029A00020662E20454550524F4D00436F6E66699C
:1029B0006775726174696F6E000310270200C02989
:1029C000CB29C429D2290000000000E3290000001F
:1029D000000073746F72656420696E204545505223
:1029E0004F4D00436F6E66696775726174696F6EF3
:1029F00000F82903070400004C6F61642066726FC1
:102A00006D20454550524F4D00102A03060400002A
:102A100053746F726520746F20454550524F4D00BE
:102A2000272A02632A000045787472756465720073
:102A3000372A026A2C00004665656472617465007D
:102A4000472A02962C0000416363656C65726174CD
:102A5000696F6E005B2A02B62B000047656E6572D7
:102A6000616C0002000010006A2AD730A22B8E2B66
:102A70007C2B6B2B562B272B3F2B102BFD2AE92A67
:102A8000D82AC72AB22A9D2A8A2A912A042F04000A
:102A900000504944204D61783A25584400A42A0446
:102AA000260400004472697665204D61783A255805
:102AB0004D00B92A04250400004472697665204D52
:102AC000696E3A25586D00CE2A042404000050494E
:102AD0004420443A25586400DF2A042304000050AF
:102AE000494420493A25586900F02A04220400008C
:102AF00044542F50494420503A25587000042B0468
:102B00002D040000436F6E74726F6C3A2558680094
:102B1000172B0446040000416476616E6365206CE7
:102B2000696E3A25586C002E2B044D040000576145
:102B3000697420556E6974733A2558556D6D004659
:102B40002B044C040000576169742054656D702E8D
:102B50002558540243005D2B042E04000053746179
:102B6000622E54696D653A25587700722B042A0449
:102B70000000416363656C3A25584100832B042BA8
:102B80000400004D61782046523A25584600952BA6
:102B9000042C04000053746172742046523A255884
:102BA0006600A92B042904000053746570732F4D2F
:102BB0004D3A255365000200000400BD2BD730F2CA
:102BC0002BDA2BC52BCC2B02062C00004D61782E66
:102BD00020496E61637469766500E12B02382C0030
:102BE000005374657070657220496E616374697614
:102BF0006500F92B04100400004261756472617471
:102C0000653A256F630003580402000D2C182C113F
:102C10002C1F2C0000000000292C00000000005B8D
:102C2000735D20303D4F6666004469732E20416617
:102C30007465723A2569700003200402003F2C4A33
:102C40002C432C512C00000000005B2C00000000E5
:102C5000005B735D20303D4F6666004469732E2033
:102C600041667465723A25697300020000030071C1
:102C70002CD730872C772C7E2C0413040000486F4F
:102C80006D653A25665A008E2C04160400004D61CD
:102C9000783A25667A0002000004009D2CD730C5E2
:102CA0002CB52CA52CAC2C040E0400004A65726BCC
:102CB0003A25616A00BC2C040D0400004D6F766556
:102CC0003A25615A00CC2C040A0400005072696E47
:102CD000743A25617A000200000500DD2CD730200F
:102CE0002D0D2DFA2CE72CEE2C0335040000447238
:102CF000792072756E3A25646400012D0334040056
:102D0000004572726F7273203A25646500142D03BA
:102D100033040000496E666F2020203A2564690064
:102D2000272D03320400004563686F2020203A25D8
:102D3000646F003A2D02472D000053442043617216
:102D400064204D656E750002000006004E2DD730E0
:102D5000A82D952D7F2D6D2D5A2D612D03F4030186
:102D60000244656C6574652066696C6500742D02AB
:102D7000C72D020053746F70205072696E74008604
:102D80002D03F7030400436F6E74696E7565205060
:102D900072696E74009C2D03F60302045061757312
:102DA00065205072696E7400AF2D03F50301025364
:102DB000656C6563742053442046696C65000100AE
:102DC000000100C52DD7300200000300CE2DE92DF3
:102DD000DF2DD42DDB2D035424020059657300E64A
:102DE0002D03E80300004E6F00F02D0100000000ED
:102DF00053746F70205072696E7400022E02132E8D
:102E0000000041646A7573742046616E20737065BA
:102E100065640002000007001A2ED730912E7D2E27
:102E2000682E532E3E2E282E2F2E031E04000053F4
:102E300065742046616E2031303025252500452EF1
:102E4000031D0400005365742046616E203735254C
:102E50002525005A2E031C0400005365742046618A
:102E60006E203530252525006F2E031B04000053EE
:102E700065742046616E20323525252500842E0399
:102E80001A0408005475726E2046616E204F666603
:102E900000982E045204000046616E207370656530
:102EA000643A254673252525000200000900B02E4E
:102EB000D7300A2FF12E682F552F3B2FC330232FE9
:102EC0000200000900C72ED7300A2FF12E682F55B7
:102ED0002F3B2FC330D92E232FE02E03B20F00003B
:102EE000556E6C6F636B2046756C6C204D656E750E
:102EF00000F82E0448040000466C6F7720205261D1
:102F000074653A256F6625252500112F041F0400DE
:102F100000537065656420526174653A256F6D25B4
:102F20002525002A2F034204001044697361626C56
:102F30006520537465707065727300422F03380406
:102F4000000053687574204F666620414C4C204841
:102F500065617473005C2F0347040000507265685C
:102F600065617420414253006F2F03370400005005
:102F700072656865617420504C41000200000400D5
:102F8000822FD730A02F882F8F2F043C04000042BF
:102F900045442054656D703A202025456202430067
:102FA000A72F043D0400004E4F5A2054656D703A1F
:102FB00020202545300243000200000600BF2FD725
:102FC00030F52FCB2FC3308D30E12FD22F042104C9
:102FD0000000482E20526164697573203A256F689D
:102FE00000E82F03AC0F0000536574205A204F7285
:102FF0006967696E00FC2F020D30000046756C6C2D
:103000002043616C6962726174696F6E0002000036
:1030100004001430D7304A3035301C30233003B12F
:103020000F0000426567696E2043616C69627261DE
:1030300074696F6E003C3003B50F000042454420B8
:1030400041524520434C45414E00513003B40F00DE
:10305000004D414B452053555245204E4F5A5A4C36
:103060004520260002000006006B30D730C330B187
:10307000309F308D3077307E3002F0300000457860
:1030800074722E20706F736974696F6E00943002D1
:10309000513200005A20506F736974696F6E00A638
:1030A0003002A63200005920506F736974696F6E48
:1030B00000B83002FB3200005820506F7369746909
:1030C0006F6E00CA3003FD030000486F6D6520502D
:1030D00072696E74657200DE3003E803000050729E
:1030E0006576696F75732053637265656E200100A4
:1030F00003F0030400F73014310D310631FF301BAB
:10310000310000000000293100000000003A3100C9
:103110000000000049310000000000255566206DC8
:10312000207072696E7465640020453A2565632FCE
:1031300025456302437E256F43003120636C69633C
:103140006B203D2031206D6D00453A257833206D90
:103150006D0003FC030400593176316F3168316131
:10316000317D3100000000007E3100000000008E43
:103170003100000000009E310000000000004D61A1
:103180007820656E6473746F703A25735A004D69C8
:103190006E20656E6473746F703A25737A005A3AC4
:1031A000257832206D6D0003FB030400AE31CB3176
:1031B000C431BD31B631D2310000000000D331003E
:1031C00000000000E3310000000000F331000000C7
:1031D0000000004D617820656E6473746F703A254D
:1031E0007359004D696E20656E6473746F703A2573
:1031F000737900593A257831206D6D0003FA030484
:103200000003322032193212320B32273200000012
:1032100000002832000000000038320000000000EA
:1032200048320000000000004D617820656E647334
:10323000746F703A257358004D696E20656E647323
:10324000746F703A25737800583A257830206D6D88
:103250000003EF030400583275326E326732603279
:103260007C3200000000007D3200000000008D3242
:1032700000000000009D320000000000004D617859
:1032800020656E6473746F703A25735A004D696ED1
:1032900020656E6473746F703A25737A005A3A250C
:1032A0007832206D6D0003EE030400AD32CA32C3E4
:1032B00032BC32B532D1320000000000D232000000
:1032C000000000E2320000000000F23200000000C6
:1032D00000004D617820656E6473746F703A2573D9
:1032E00059004D696E20656E6473746F703A257372
:1032F0007900593A257831206D6D0003ED03040003
:1033000002331F33183311330A3326330000000011
:1033100000273300000000003733000000000047A2
:10332000330000000000004D617820656E64737406
:103330006F703A257358004D696E20656E64737422
:103340006F703A25737800583A257830206D6D00FB
:103350000000000400573374336D3366335F337BF2
:1033600033000000000081330000000000953300AE
:103370000000000099330000000000255566206D14
:1033800000546F74616C2046696C616D656E7420C9
:10339000557365640025557400546F74616C20503A
:1033A00072696E74696E672054696D650000000073
:1033B0000400B433D133CA33C333BC33D833000031
:1033C000000000E7330000000000F53300000000BB
:1033D0000007340000000000526F73746F636B20AD
:1033E0004D4158207633005072696E746572204DDD
:1033F0006F64656C00465720446174653A20323032
:103400003137313131330046572056657273696F59
:103410006E3A20302E39322E320000000004002196
:10342000343E343734303429344534000000000051
:1034300049340000000000523400000000005B34FA
:103440000000000000256F73005A3A257832206D85
:103450006D00593A257831206D6D00583A25783045
:10346000206D6D0000000004006B34883481347AD4
:103470003473348F340000000000933400000000E7
:1034800000AC340000000000BF3400000000002544
:103490006F730053706565643A256F6D252525208F
:1034A000466C6F773A256F66252525004245443ADC
:1034B000256562205461726765743A254562004E45
:1034C0004F5A3A256563205461726765743A254501
:1034D00063000000000000000000000000FF00008A
:1034E00001000000000000000000000000000000DB
:1034F000000024F403D950C38EB1C2A23D96828B42
:103500003582127AE372816CCB66A861015DC7587F
:10351000EB546151204E1E4B5648C14559431A4148
:10352000013F093D2F3B7139CD374036C9346533F2
:103530001432D430A32F802E6B2D632C672B752A69
:103540008E29B028DC2710274B268F25D9242B2441
:103550008223E0224322AC211A218D200420801FE7
:10356000001F841E0C1E971D261DB81C4E1CE61B3A
:10357000821B201BC11A641A0A1AB2195D190A1992
:10358000B9186A181C18D11788174017FA16B516FB
:1035900073163116F115B31576153A150015C714C3
:1035A0008F1458142214EE13BA13881356132513CC
:1035B000F612C71299126C1240121512EB11C111BA
:1035C0009811701148112111FB10D610B1108D10F7
:1035D0006910461024100210E10FC00FA00F800FD9
:1035E000610F420F230F060FE80ECB0EAF0E930EA6
:1035F000770E5C0E410E270E0D0EF30DDA0DC10D88
:10360000A80D900D780D600D490D320D1B0D050DA7
:10361000EF0CD90CC30CAE0C990C850C700C5C0C27
:10362000480C350C210C0E0CFB0BE80BD60BC40B15
:10363000B20BA00B8E0B7D0B6B0B5A0B4A0B390B8D
:10364000290B180B080BF80AE90AD90ACA0ABB0A9F
:10365000AC0A9D0A8E0A800A710A630A550A470A53
:10366000390A2C0A1E0A110A040AF709EA09DD09B7
:10367000D009C409B709AB099F09920987097B09D9
:103680006F09630958094C09410936092B092009BA
:1036900015090A090009F508EB08E008D608CC0866
:1036A000C208B808AE08A4089A08900887087D08E0
:1036B00074086B08610858084F0846083D0834082C
:1036C0002C0823081A08120809080108F807F0074F
:1036D000E807E007D807D007C807C007B807B00752
:1036E000A807A1070000420FA1071605D0030D038C
:1036F0008B022E02E801B2018601630145012C0113
:1037000017010401F400526F73746F636B4D4158DD
:1037100020526561647900526F73746F636B4D4121
:103720005820526561647900526F73746F636B4DFA
:10373000415820526561647900207A3A0020793A34
:103740000020783A00696E20717565756544656C76
:1037500074614D6F766520746F2063616C63756C66
:1037600061746544656C74615375625365676D651A
:103770006E74732072657475726E73206572726FE9
:10378000722E00432068697420666C6F6F7200436C
:10379000706F7320782073717561726520004370BB
:1037A0006F732078207374657073200043706F739B
:1037B000207920737175617265200043706F7320EA
:1037C00079207374657073200042206869742066E4
:1037D0006C6F6F720042706F732078207371756127
:1037E0007265200042706F73207820737465707367
:1037F000200042706F7320792073717561726520AB
:103800000042706F732079207374657073200041DB
:103810002068697420666C6F6F720041706F73204E
:103820007820737175617265200041706F73207824
:10383000207374657073200041706F73207920735A
:103840007175617265200041706F73207920737407
:1038500065707320006D6F766552656C6174697672
:103860006544697374616E6365496E537465707302
:10387000202F20717565756544656C74614D6F7698
:10388000652072657475726E73206572726F720056
:1038900000000A0B02090C0D0E08070304010000CA
:1038A0000000000000000000000000000000000018
:1038B00000000000000000000000000012111000D5
:1038C00000000000000000000000000000000000F8
:1038D0000000000000000102102020080810204015
:1038E00010204080020102010804020101020408C4
:1038F0001020408080402010080402018004020152
:10390000804020100804020108040201010204089A
:1039100010204080010204081020408005050505A4
:10392000070508080808020202020A0A0808040437
:103930000404010101010101010103030303030365
:103940000303040707070C0C0C0C0C0C0C0C0202F4
:10395000020206060606060606060B0B0B0B0B0BF1
:103960000B0B000020002300260029002C002F0054
:1039700032000001000003010601090100002200DD
:10398000250028002B002E00310034000201000029
:10399000050108010B0100002100240027002A0076
:1039A0002D003000330001010000040107010A016D
:1039B000024E414E494E495459494E46CDCCCC3D1C
:1039C0000AD7233C17B7D13877CC2B329595E6240C
:1039D0001FB14F0A000020410000C84200401C46B1
:1039E00020BCBE4CCA1B0E5AAEC59D744790809F2A
:1039F0002DDEB80111241FBECFEFD1E2DEBFCDBF57
:103A000000E00CBF13E0A0E0B2E0E4EFF4E202E07B
:103A10000BBF02C007900D92A039B107D9F72EE174
:103A2000A0E9B3E001C01D92A938B207E1F719E39C
:103A3000C4EFD9E300E006C022970109FE010BBFE5
:103A40000F94F30DCC3ED10780E00807A9F70F943F
:103A50005F090D9478120C940000CF93DF9300D08F
:103A60001F92CDB7DEB744E050E0BC01CE01019615
:103A70000F94341269817A818B819C810F900F9011
:103A80000F900F90DF91CF91089522E090E02817DA
:103A900028F4963019F0220F9F5FF9CF209A289AC8
:103AA000219A229A2398809164008B7F80936400EE
:103AB000892F806A86958CBD90FD03C081E0963089
:103AC00009F480E08DBD08958091EA0283FB882788
:103AD00080F90895179A0895169A0895159A0895E9
:103AE00080B182FB882780F9089580B18695817026
:103AF000089588E493E0B1CFCF92DF92EF92FF92E6
:103B0000CF93DF9300D01F921F92CDB7DEB76B012A
:103B10007C0160937707709378078093790790937F
:103B20007A070E94E774C982DA82EB82FC8244E061
:103B300050E065E773E0CE0101960F94561223E042
:103B4000B701A60188E795E00E949BA10E9444CF9F
:103B5000682F88E690E06D830F9444126D8168179A
:103B600021F088E690E00F945F120F900F900F9075
:103B70000F900F90DF91CF91FF90EF90DF90CF905B
:103B80000895CF93DF931F92CDB7DEB7BC018DE7C9
:103B900093E00F9472120E9444CF682F88E690E061
:103BA00069830F9444126981681739F088E690E0C0
:103BB0000F90DF91CF910D945F120F90DF91CF9115
:103BC0000895CF93DF931F92CDB7DEB7BC018FE787
:103BD00093E00F9472120E9444CF682F88E690E021
:103BE00069830F9444126981681739F088E690E080
:103BF0000F90DF91CF910D945F120F90DF91CF91D5
:103C00000895CF93DF931F92CDB7DEB7BC0181E853
:103C100093E00F9472120E9444CF682F88E690E0E0
:103C200069830F9444126981681739F088E690E03F
:103C30000F90DF91CF910D945F120F90DF91CF9194
:103C40000895CF93C82F8091A6048823D1F01092B5
:103C5000A6040E942C5A9091DF0291509093DF02AB
:103C6000911109C08091E002833010F40E94B9598B
:103C700085E08093DF026C2F86E79AE0CF910C9469
:103C800079CACF91089580912C0C882349F00E9425
:103C9000649880E0D6DF86E79AE00E9478CAF3CF86
:103CA00008954F925F926F927F928F929F92AF9200
:103CB000BF92CF92DF92EF92FF920F931F93CF9319
:103CC000DF9300D01F92CDB7DEB78C018091F10752
:103CD0009091F207A091F307B091F40789839A833A
:103CE000AB83BC83C090F507D090F607E090F70750
:103CF000F090F8078090F9079090FA07A090FB07E2
:103D0000B090FC079C01AD01BC01CD010F94250DC5
:103D100081110FC149805A806B807C80E89477F8CC
:103D20002FEF3FEF4FE75FE7C301B2010F94250D7F
:103D300081110BC02FEF3FEF4FE75FE7C301B201E7
:103D40000F94D20918160CF4F4C0A7019601C7010C
:103D5000B6010F94250D8111ECC026013701E894BE
:103D600077F82FEF3FEF4FE75FE7C301B2010F9402
:103D7000250D81110BC02FEF3FEF4FE75FE7C30128
:103D8000B2010F94D20918160CF4D3C0A501940106
:103D9000C501B4010F94250D8111CBC0240135015B
:103DA000E89477F82FEF3FEF4FE75FE7C301B201E9
:103DB0000F94250D81110BC02FEF3FEF4FE75FE709
:103DC000C301B2010F94D20918160CF4B2C02091AD
:103DD000C9073091CA074091CB075091CC07698140
:103DE0007A818B819C810F946E092B013C0120917B
:103DF000CD073091CE074091CF075091D007C70132
:103E0000B6010F946E096B017C012091D1073091AE
:103E1000D2074091D3075091D407C501B4010F9444
:103E20006E094B015C0180915108882329F020E73D
:103E300032E441E25DE304C020E030E040E85FE3CB
:103E4000C301B2010F947A0CAB01BC0122E08FE4F4
:103E500094E20E94D8A180915108882329F020E79C
:103E600032E441E25DE304C020E030E040E85FE39B
:103E7000C701B6010F947A0CAB01BC0122E087E4C4
:103E800094E20E94D8A180915108882329F020E76C
:103E900032E441E25DE304C020E030E040E85FE36B
:103EA000C501B4010F947A0CAB01BC0123E083E49B
:103EB00094E20E94D8A16091090870910A0880914B
:103EC0000B0890910C080F94A50A20914D08309191
:103ED0004E0840914F08509150080F947A0C209151
:103EE0005108222329F020E732E441E25DE304C0D7
:103EF00020E030E040E85FE30F947A0CAB01BC01B6
:103F000024E08FE394E20F900F900F900F90DF91D9
:103F1000CF911F910F91FF90EF90DF90CF90BF90C6
:103F2000AF909F908F907F906F905F904F900C9488
:103F30009BA1C8010E94BD9F4ACFCF92DF92EF9212
:103F4000FF92CF93DF93EC01893191053CF0C53F9F
:103F500081E0D8072CF0C4EFD1E002C0C9E1D0E085
:103F6000BE01882777FD8095982F0F94A50A6B01D5
:103F70007C016091010770910207882777FD809589
:103F8000982F0F94A50A9B01AC01C701B6010F94AD
:103F9000D9099B01AC0160910307709104078091DE
:103FA0000507909106070F947A0C609303077093AE
:103FB00004078093050790930607D0930207C093E8
:103FC0000107BE0184E194E2DF91CF91FF90EF9071
:103FD000DF90CF900C9481A0CF92DF92EF92FF926E
:103FE0006B017C0120E030E040E752E40F94D209FD
:103FF00087FD11C020E030E046E153E4C701B6017F
:104000000F94060C18166CF4C12CD12C86E1E82E06
:1040100083E4F82E06C0C12CD12C90E7E92E92E45F
:10402000F92EC0927707D0927807E0927907F09244
:104030007A0722E0B701A6018BEF93E2FF90EF90A1
:10404000DF90CF900C949BA18F929F92AF92BF92E2
:10405000CF92DF92EF92FF92CF93DF93EC01893101
:10406000910534F0893C91052CF0C8ECD0E002C0F9
:10407000C9E1D0E0D0930007C093FF06E091900320
:10408000F0919103E258FF4FC080D180E280F3802D
:1040900020E030E0A901C701B6010F94D209AE01BA
:1040A000662757FD6095762F18165CF0CB01BA0194
:1040B0000F94A50A2AE037ED43E25CE30F947A0CF3
:1040C00024C0CB01BA010F94A50A2AE037ED43E2E0
:1040D0005CE30F947A0C20E030E040E850E40F9469
:1040E0007A0C4B015C01A7019601C701B6010F9440
:1040F0007A0C2BED3FE049E450E40F947A0C9B01DD
:10410000AC01C501B4010F94D9096093E502709325
:10411000E6028093E7029093E802BE0186E094E213
:10412000DF91CF91FF90EF90DF90CF90BF90AF9055
:104130009F908F900C9481A0CF93DF932091C5071F
:1041400097FD0DC0EC018F3F910519F014F0CFEFF2
:10415000D0E0209721F028602093C50705C0277F75
:104160002093C507C0E0D0E061118DDD8091851DF1
:1041700090E0C817D90729F0BE0181EF93E20E94B1
:1041800081A0C093851DDF91CF9108954F925F92DA
:104190006F927F928F929F92AF92BF92CF92DF9257
:1041A000EF92FF92CF93DF9300D01F92CDB7DEB78F
:1041B0002FE632E143E85AE36091E9067091EA069E
:1041C0008091EB069091EC060F947A0C6B017C01C8
:1041D00081E890E042DC9B01AC01C701B6010F947D
:1041E0006E09AB01BC0122E08FED93E20E94D8A1E1
:1041F0008DEC93E20E94839FE0910A02F0910B0202
:1042000020E030E040E751E463857485858596853C
:104210000F94060C18160CF46BC020E030E0A901D6
:104220008DE790E029833A834B835C830F944C1293
:104230004B015C0129813A814B815C81820E931E86
:10424000A41EB51EC501B40120E831E541E050E0EF
:104250000F94A60D60E87EEA8EEF9FEF0F94410D5C
:104260006B017C01C80CD91CEA1CFB1CBA01A9011A
:1042700080ED93E20E94A7A0C701B60120E13EE0D5
:1042800040E050E00F94A60D49015A01BA01A9017E
:1042900086EC93E20E94A7A0A0EFB1EFA5019401E4
:1042A0000F94EF0D6C0D7D1D8E1D9F1D2CE330E0D6
:1042B00040E050E00F94A60DBA01A9018EEB93E205
:1042C0000E94A7A089EB93E20F900F900F900F90A0
:1042D000DF91CF91FF90EF90DF90CF90BF90AF90A4
:1042E0009F908F907F906F905F904F900C949C9FC9
:1042F0000F940904C090ED06D090EE06E090EF0612
:10430000F090F0066C197D098E099F0928EE33E0C4
:1043100040E050E00F94840D83CF5F988EBD0DB4C4
:1043200007FEFDCF6EBD0DB407FEFDCF5F9A089569
:10433000CF93DF9300D01F921F92CDB7DEB795E0E9
:10434000E7E4F3E0DE01119601900D929A95E1F712
:10435000E1E0F0E0EC0FFD1FE80FF11D808190E03F
:104360000F900F900F900F900F90DF91CF91D5CFBE
:10437000FF920F931F93CF93DF9300D01F921F9252
:10438000CDB7DEB785E0ECE4F3E0DE0111960190F5
:104390000D928A95E1F780E078DB579A8E010F5FE6
:1043A0001F4FF12CF80161918F0170E08F2DC0DF5C
:1043B000F394F5E0FF12F6CF0F900F900F900F904F
:1043C0000F90DF91CF911F910F91FF90089567FD9E
:1043D00043C08230E9F028F4882341F0813061F055
:1043E0003BC0833009F1843059F136C0662311F0A7
:1043F000A19A67C0A19865C080910801662311F059
:10440000806801C08F778093080147FF3AC05DC084
:1044100080910801662311F0806401C08F7B809336
:10442000080147FF34C053C080910801662311F092
:10443000886001C0877F8093080147FF32C044C075
:1044400080910801662311F0826001C08D7F809306
:10445000080147FF2EC03AC047FD39C08230B9F08D
:1044600028F4882341F0813061F008958330C9F049
:104470008430F9F00895442311F0A09A0895A0988B
:104480000895442311F0A29A0895A2980895809166
:104490000801442311F0806201C08F7D80930801E0
:1044A000089580910801442311F08061F7CF8F7E39
:1044B000F5CF80910801442311F08460EFCF8B7F0A
:1044C000EDCF47FFD8CF0895089508950895089532
:1044D000643079F028F4613041F0623041F00895A1
:1044E000683051F0603141F0089540E003C040E091
:1044F00004C041E060E002C041E061E068CFCF93DA
:10450000DF938AE993E20E949C9F62B36695617093
:1045100070E08FE494E20E9475A062B3617070E075
:1045200087EB93E20E9481A0C6E0D1E088819927C1
:1045300087FD9095692F661F6627661F70E082EBE6
:1045400093E20E9475A062B362FB662760F970E097
:1045500087EB93E20E9481A0688166FB662760F981
:1045600070E08FEA93E20E9475A0688165FB662780
:1045700060F970E087EB93E20E9481A0688163FBA1
:10458000662760F970E08BEA93E20E9475A068816B
:104590006295617070E087EB93E20E9481A0688170
:1045A0006695617070E087EA93E20E9475A0688169
:1045B00062FB662760F970E087EB93E2DF91CF91B1
:1045C0000C9481A0FF920F931F93CF93DF9300D0A1
:1045D0001F921F92CDB7DEB785E0E1E5F3E0DE0183
:1045E000119601900D928A95E1F7989A9A9A809186
:1045F00007018062809307018091070180618093A9
:104600000701809107018460809307018E010F5F8D
:104610001F4FF12CF80161918F018F2D59DFF39419
:10462000F5E0FF12F7CF0F900F900F900F900F90C3
:10463000DF91CF911F910F91FF9008950C94DDDAD7
:104640000E94C8DA2091080230910902821793076C
:1046500024F490930902809308020895609108025F
:1046600070910902809106029091070268177907FC
:1046700044F4709307026093060282E594E20C947E
:1046800081A00895CF93C82F69E170E080E99DE192
:104690000F94D9006C2F80E99DE10F947A0060E0BF
:1046A00080E99DE10F94DA00882329F082E59DE0FE
:1046B000CF910C949C9FCF910895CF93DF93D82FE7
:1046C000C62F69E170E080E99DE10F94D9006D2F5C
:1046D00080E99DE10F947A006C2F80E99DE10F94B1
:1046E0007A0080E99DE10F94EC00882331F082E3A9
:1046F0009DE0DF91CF910C949C9FDF91CF91089525
:10470000C1DF41E050E069E170E080E99DE10F9494
:10471000CD0080E99DE10F942300892B31F080E9E1
:104720009DE10F942B0081E0089583E19DE00E94BC
:104730009C9F80E008958EEE9CE00E949C9F80E903
:104740009DE10F94B8008FE0DBDF81E3D9DF80E2E9
:10475000D7DF6CE980E2B1DF80E2D2DF82E2D0DF36
:1047600060E482E2AADF82E2CBDF85E2C9DF60E0BB
:1047700085E2A3DF85E2C4DF83E2C2DF60E383E298
:104780009CDF83E2BDDF84E2BBDF6AE484E295DF85
:1047900084E2B6DF80E3B4DF60E280E38EDF80E3B3
:1047A000AFDF81E3ADDF82E3ABDF64E182E385DF8E
:1047B00082E3A6DF83E3A4DF60E083E37EDF83E3BD
:1047C0009FDF84E39DDF60E084E377DF84E398DFAD
:1047D00086E396DF62E386E370DF86E391DF87E3BB
:1047E0008FDF60E087E369DF87E38ADF88E388DFC4
:1047F00060E188E362DF88E383DF89E381DF8AE3C6
:104800007FDF62E38AE359DF8AE37ACFCF9381E3E4
:1048100077DFC82F85E374DF811101C0C0E089E331
:104820006FDF811101C0C0E08DE26ADF811101C03C
:10483000C0E08C2FCF9108956DE08AE39BE00E9449
:104840007CD96AE08AE39BE00C947CD9CF93C82F93
:10485000E0919003F091910342A953A964A975A92D
:1048600022E08CE394E20E94D8A1E0919003F091C1
:10487000910346A957A960AD71AD20E083E294E2AF
:104880000E94D8A10E94BD51AB01BC0122E088E387
:1048900094E20E94D8A14091190250911A026091AD
:1048A0001B0270911C0220E083E294E20E94D8A1D6
:1048B000CC2391F061E070E08AE294E20E9475A05E
:1048C0006CEF7FE08091110290911202681B790BCE
:1048D00088E294E20E9475A0E0910E02F0E0EE57AB
:1048E000F24E608170E08FE294E20E9475A0E09148
:1048F000DE02EF3F29F4E0919003F0919103E08113
:10490000F0E0EE57F24E608170E084E394E20E94A2
:1049100075A0CF9191CF2F923F924F925F926F925D
:104920007F928F929F92AF92BF92CF92DF92EF923F
:10493000FF920F931F93CF93DF93CDB7DEB72997E5
:104940000FB6F894DEBF0FBECDBF5C01DC0116963A
:104950008D919C9117978C38910509F469C608F0E0
:10496000DBC08235910509F40EC408F07EC08A319F
:10497000910509F4C5C208F03FC08531910509F4DD
:104980003DC278F48231910509F417C28431910552
:1049900009F418C2419711F00C946D3517981698C8
:1049A000AFC58731910509F461C208F443C288316B
:1049B000910509F489C2499711F00C946D3560E0B6
:1049C00082E299E029960FB6F894DEBF0FBECDBF04
:1049D000DF91CF911F910F91FF90EF90DF90CF90DB
:1049E000BF90AF909F908F907F906F905F904F900F
:1049F0003F902F900C94559B8E31910509F4DDC2A8
:104A000018F58C31910509F4B0C210F00C94A6355C
:104A100082E299E029960FB6F894DEBF0FBECDBFB3
:104A2000DF91CF911F910F91FF90EF90DF90CF908A
:104A3000BF90AF909F908F907F906F905F904F90BE
:104A40003F902F900C949C9E8A32910509F40FC3DD
:104A500028F4809709F4DEC20C946D3580359105F9
:104A600010F00C94A6350C946D358B36910511F42D
:104A70000C949B2E38F58C35910509F48FC460F4A5
:104A80008435910509F488C308F481C385359105FF
:104A900009F460C40C946D358836910509F433C56A
:104AA00030F48336910509F4DDC40C946D358936F4
:104AB000910509F410C68A36910511F40C948A2EDA
:104AC0000C946D358337910511F40C94EC2E80F421
:104AD0008F36910511F40C94BC2E8237910511F498
:104AE0000C940A2F8D36910511F00C946D3515C676
:104AF0008537910511F40C940D2F10F40C94142E9D
:104B00008737910511F40C94382F8837910511F4EB
:104B10000C947F2F0C946D358530B1E09B0711F418
:104B20000C948D3208F0B0C08F3C910511F40C94B8
:104B3000273108F041C08A3C910511F40C9456309D
:104B400070F4883C910511F40C94A52F10F00C948E
:104B5000F82F8E3B910509F4B6C70C946D358C3C4B
:104B6000910511F40C94AD3010F40C949B308D3CF5
:104B7000910511F40C940D318E3C910511F00C94BB
:104B80006D35C50129960FB6F894DEBF0FBECDBFB7
:104B9000DF91CF911F910F91FF90EF90DF90CF9019
:104BA000BF90AF909F908F907F906F905F904F904D
:104BB0003F902F900C94E5D58F3D910511F40C9406
:104BC000E23188F48C3D910511F40C948F318D3DC8
:104BD000910511F40C94B731813D910511F00C94BD
:104BE0006D350C946F31893E910511F40C94F731B9
:104BF00040F5883E910511F00C946D3560918A1D49
:104C000070918B1D83E593E20E9475A04091861DF3
:104C10005091871D6091881D7091891D22E08AE462
:104C200093E20E949BA110928B1D10928A1D1092FC
:104C3000861D1092871D1092881D1092891D0C945C
:104C4000A6358B3F910511F40C943032843091409D
:104C500011F00C946D3529960FB6F894DEBF0FBE97
:104C6000CDBFDF91CF911F910F91FF90EF90DF901B
:104C7000CF90BF90AF909F908F907F906F905F90FC
:104C80004F903F902F9057CD8E3521E0920711F431
:104C90000C94E533C0F58E3241E0940711F40C9486
:104CA000303398F48931A1E09A0711F40C94E5327D
:104CB0008C32B1E09B0711F40C94F53286309140B0
:104CC00011F00C946D350C94AF328034F1E09F07F5
:104CD00011F40C94A33338F48F32914011F40C94F6
:104CE0006F330C946D35813441E0940711F40C94CA
:104CF000A7338234914011F00C946D3580E00E940E
:104D0000198C0C94BC338239A1E09A0711F40C94ED
:104D1000D03498F58836E1E09E0711F40C949C3469
:104D200038F48336914011F40C9456340C946D355C
:104D3000803931E0930711F40C94B63481399140F5
:104D400011F00C946D3529960FB6F894DEBF0FBEA6
:104D5000CDBFDF91CF911F910F91FF90EF90DF902A
:104D6000CF90BF90AF909F908F907F906F905F900B
:104D70004F903F902F900C949386853F51E095077C
:104D800011F40C94003560F4843F914011F00C94C0
:104D90006D3580E00E945BCF8CEB9EE10C940B356F
:104DA000863FE1E09E0711F40C9425358C38934042
:104DB00011F40C943F350C946D350E946A1D0E94CD
:104DC0006C1D77C282E299E029960FB6F894DEBF97
:104DD0000FBECDBFDF91CF911F910F91FF90EF904C
:104DE000DF90CF90BF90AF909F908F907F906F900B
:104DF0005F904F903F902F900C94E59D82E299E058
:104E000029960FB6F894DEBF0FBECDBFDF91CF91CC
:104E10001F910F91FF90EF90DF90CF90BF90AF90D8
:104E20009F908F907F906F905F904F903F902F90CA
:104E30000C94DA9A82E299E029960FB6F894DEBFD4
:104E40000FBECDBFDF91CF911F910F91FF90EF90DB
:104E5000DF90CF90BF90AF909F908F907F906F909A
:104E60005F904F903F902F900C94DF9AD5018D91D9
:104E70009C9197FD02C00C94A63560E082E299E017
:104E80000E943167F501EE5AFF4F6081718140E069
:104E900082E299E029960FB6F894DEBF0FBECDBF2F
:104EA000DF91CF911F910F91FF90EF90DF90CF9006
:104EB000BF90AF909F908F907F906F905F904F903A
:104EC0003F902F900C94169E82E299E029960FB69F
:104ED000F894DEBF0FBECDBFDF91CF911F910F9130
:104EE000FF90EF90DF90CF90BF90AF909F908F900A
:104EF0007F906F905F904F903F902F900C94449BC9
:104F0000F5018081918192FD02C00C94A635468DF9
:104F1000578D60A171A180918C09882311F40C94A4
:104F2000A635409383095093840960938509709353
:104F3000860982E699E029960FB6F894DEBF0FBE87
:104F4000CDBFDF91CF911F910F91FF90EF90DF9038
:104F5000CF90BF90AF909F908F907F906F905F9019
:104F60004F903F902F900C947765D5018D919C9137
:104F700097FD02C00C94A635F501EE5AFF4F6081F3
:104F8000718182E299E029960FB6F894DEBF0FBED8
:104F9000CDBFDF91CF911F910F91FF90EF90DF90E8
:104FA000CF90BF90AF909F908F907F906F905F90C9
:104FB0004F903F902F900C94BD9EF5018081918180
:104FC00097FD02C00C94A63560E082E299E00E9451
:104FD0003167F501EE5AFF4F6081718182E299E0FD
:104FE00029960FB6F894DEBF0FBECDBFDF91CF91EB
:104FF0001F910F91FF90EF90DF90CF90BF90AF90F7
:105000009F908F907F906F905F904F903F902F90E8
:105010000C941F9FD5018D919C9197FD02C00C941B
:10502000A63560E082E299E00E943167F501EE5A10
:10503000FF4F6081718182E299E029960FB6F89462
:10504000DEBF0FBECDBFDF91CF911F910F91FF90BB
:10505000EF90DF90CF90BF90AF909F908F907F9018
:105060006F905F904F903F902F900C944D9FF50163
:105070002081318133FD02C00C94A63512A1E12EAE
:10508000F3A0E1E7FDE0449150E04E155F0509F41F
:105090005EC032964DE0E53EF407A9F7F7FC57C035
:1050A00032FF2CC0D5015E964D915D916D917C9142
:1050B00091974F3F51056105710509F0E0F461E0FA
:1050C000812F0F941D05F501668D812F0F945605D4
:1050D000D5015E966D917C915F97812F0F94FB02B5
:1050E000B7018DE893E20E9475A0F501668D778D7A
:1050F00088E893E212C08FE095E02BC062E0812F38
:105100000F941D05B70188E893E20E9475A0812FD6
:105110000F948B05BC0183E893E229960FB6F894AF
:10512000DEBF0FBECDBFDF91CF911F910F91FF90DA
:10513000EF90DF90CF90BF90AF909F908F907F9037
:105140006F905F904F903F902F900C9481A089EDCD
:1051500094E029960FB6F894DEBF0FBECDBFDF9165
:10516000CF911F910F91FF90EF90DF90CF90BF9064
:10517000AF909F908F907F906F905F904F903F90F7
:105180002F900C94BD9F10920D080C94A63581E0D1
:1051900080930D080C94A635D5018D919C911197A3
:1051A00092FF14C05E962D913D914D915C91919727
:1051B000A8EEB3E00F94E30D60933E0370933F03BA
:1051C00080934003909341030C94A63593FFA5C0B0
:1051D000F50182A193A1A4A1B5A182309105A105F9
:1051E000B10509F466C02CF50097A105B10509F4D5
:1051F00046C00197A105B10511F00C94A63529967A
:105200000FB6F894DEBF0FBECDBFDF91CF911F91D7
:105210000F91FF90EF90DF90CF90BF90AF909F9055
:105220008F907F906F905F904F903F902F900C9455
:105230006C1D83309105A105B10509F454C0049794
:10524000A105B10511F00C94A63529960FB6F89476
:10525000DEBF0FBECDBFDF91CF911F910F91FF90A9
:10526000EF90DF90CF90BF90AF909F908F907F9006
:105270006F905F904F903F902F900C94D45129964F
:105280000FB6F894DEBF0FBECDBFDF91CF911F9157
:105290000F91FF90EF90DF90CF90BF90AF909F90D5
:1052A0008F907F906F905F904F903F902F900C94D5
:1052B0006A1D29960FB6F894DEBF0FBECDBFDF91F1
:1052C000CF911F910F91FF90EF90DF90CF90BF9003
:1052D000AF909F908F907F906F905F904F903F9096
:1052E0002F900C946E1D29960FB6F894DEBF0FBE5A
:1052F000CDBFDF91CF911F910F91FF90EF90DF9085
:10530000CF90BF90AF909F908F907F906F905F9065
:105310004F903F902F900C94C6510E94431E81E005
:1053200029960FB6F894DEBF0FBECDBFDF91CF91A7
:105330001F910F91FF90EF90DF90CF90BF90AF90B3
:105340009F908F907F906F905F904F903F902F90A5
:105350000C947B74D5018D919C91119792FF14C090
:105360005E962D913D914D915C919197A8EEB3E0A1
:105370000F94E30D609342037093430380934403BF
:10538000909345030C94A635109242031092430368
:1053900010924403109245030C94A635F5018081C8
:1053A00083FF0CC082859385A485B58580932703F0
:1053B00090932803A0932903B0932A03D5018C91DD
:1053C00084FF0EC01E968D919D910D90BC91A02DD5
:1053D00080932B0390932C03A0932D03B0932E0363
:1053E000F501808185FF0CC082899389A489B589E4
:1053F00080932F0390933003A0933103B093320333
:105400000E94E774D5018C9186FD02C00C94A635EC
:10541000209190033091910356968D919D910D901E
:10542000BC91A02DF90181879287A387B4878081E1
:1054300029960FB6F894DEBF0FBECDBFDF91CF9196
:105440001F910F91FF90EF90DF90CF90BF90AF90A2
:105450009F908F907F906F905F904F903F902F9094
:105460000C940350D501ED91FC911197F2FF0DC002
:105470005E962D913D914D915C919197A8EEB3E090
:105480000F94E30D6B017C0106C040E1C42E47E29E
:10549000D42EE12CF12CE3FD0E946A1DF5018081E0
:1054A00084FD0E946C1DD5018C9185FD0E946E1DAE
:1054B0000F9409042B013C014C0C5D1C6E1C7F1CDD
:1054C0000F940904A3019201261B370B480B590BBB
:1054D000DA01C901803A9648A140B10518F40E944A
:1054E000DD79EECFD5018C9183FD1798F501808190
:1054F00084FD1698D5018C9185FD02C00C94A635CB
:1055000015980C94A6350E94EA5981110C94A63581
:105510000F94090460938C1D70938D1D80938E1DD4
:1055200090938F1D0E94641D81110C94A635F50186
:105530008081918193FF02C00C94903592FF0AC044
:10554000868D978DA0A1B1A1892B8A2B8B2B11F46D
:105550000C949035D5018D919C91119792FD02C0CC
:105560000C94A6359C012227317091FF23C0232B78
:1055700089F011E020E030E0A9015A966D917D910B
:105580008D919C915D970F94060C18160CF010E00D
:10559000212F01C020E085010C5A1F4FF501668DB7
:1055A000778D80A191A129870F94A50A2985D8011B
:1055B0004C9124C0232B81F011E020E030E0A901C0
:1055C000F501628D738D848D958D0F94060C1816E0
:1055D0000CF010E0212F01C020E000919003109109
:1055E0009103D5015E966D917D918D919C919197DE
:1055F00029870F94A50A2985F801408129960FB6BD
:10560000F894DEBF0FBECDBFDF91CF911F910F91F8
:10561000FF90EF90DF90CF90BF90AF909F908F90D2
:105620007F906F905F904F903F902F900C943A55E1
:105630000E94EA5981110C94A6350F9409046093D5
:105640008C1D70938D1D80938E1D90938F1D0E94D5
:10565000641D81110C94A635D5018D919C911197F3
:1056600092FD02C00C94A63590FF11C011E020E01D
:1056700030E0A9015A966D917D918D919C915D9735
:105680000F94060C18160CF010E0412F01C040E0FA
:10569000F501668D778D80A191A149870F94A50AA8
:1056A000498529960FB6F894DEBF0FBECDBFDF91B6
:1056B000CF911F910F91FF90EF90DF90CF90BF900F
:1056C000AF909F908F907F906F905F904F903F90A2
:1056D0002F900C940356D5018D919C9133E09695B3
:1056E00087953A95E1F7817029960FB6F894DEBF59
:1056F0000FBECDBFDF91CF911F910F91FF90EF9023
:10570000DF90CF90BF90AF909F908F907F906F90E1
:105710005F904F903F902F9099C80E94EA59811155
:105720000C94A6350F94090460938C1D70938D1D05
:1057300080938E1D90938F1D0E94641D81110C9487
:10574000A63540E068EC74E086E79AE00E94A6ABDC
:1057500086E79AE00E94FAAE0E94431E20909003D2
:1057600030909103F5018081918191FF09C0EC5A3D
:10577000FF4F2081211104C02BE5222E22E0322E82
:1057800092FF1EC090FF0FC011E020E030E0A901A1
:10579000D5015A966D917D918D919C915D970F9455
:1057A000060C18160CF010E0F501668D778D80A1BF
:1057B00091A10F94A50A212FD1014C910E943A5535
:1057C000F10126A937A940AD51AD62A973A984A9F9
:1057D00095A90F946D092B013C0120E030E0A9014F
:1057E0000F94060C181664F420E030E040EA50E410
:1057F000C301B2010F94D20987FF0EC00C94A635E5
:1058000020E030E040EA50ECC301B2010F94060CF6
:10581000181614F40C94A63599249394D101D096BB
:105820002D913C91D1979E968D919C919F97821737
:1058300093070CF0912C0F9409046D837E838F8362
:10584000988710E0412C512C32010F940904698390
:105850007A838B839C8360938C1D70938D1D8093C2
:105860008E1D90938F1DDC01CB012D813E814F81D8
:105870005885821B930BA40BB50B893E9340A10561
:10588000B10558F080E00E94262489819A81AB817D
:10589000BC818D839E83AF83B88781E00E94211EE7
:1058A00080919003909191032816390609F064C005
:1058B000D1019396ED90FC9094971E141F040CF068
:1058C0005BC0111158C0992009F477C091966D9171
:1058D0007C919297882777FD8095982F0F94A50A41
:1058E0009B01AC01F10162A973A984A995A90F9448
:1058F000060C181614F00C949D35662777276E1940
:105900007F09882777FD8095982F0F94A50A20910D
:1059100033033091340340913503509136030F9493
:105920007A0C0F94720A1F921F92D10152962C91F9
:1059300052972F9351962C9151972F9350962C91CB
:1059400050972F931F962C912F935B016C01E12CA4
:10595000F12C870120E030E0A90160E070E0CB018C
:105960000E942CF80F900F900F900F900F900F90B7
:1059700011E00C949D3511E041145104610471044F
:1059800009F050C09920F1F020E030E040E85FE3FA
:10599000F10166A977A980AD91AD0F946D099B01C6
:1059A000AC01D101D2966D917D918D919C91D5974D
:1059B0000F94060C87FF1FC045CF411451046104AA
:1059C000710481F520E030E040E85FE3F10166A971
:1059D00077A980AD91AD0F946E099B01AC01D10107
:1059E000D2966D917D918D919C91D5970F94D2090E
:1059F00018160CF427CFF101A78DB0A128EE33E0E3
:105A00000F94DD0D2B013C0129813A814B815C8192
:105A1000420E531E641E751E41145104610471042C
:105A200009F413CFD301C20129813A814B815C81F2
:105A3000821B930BA40BB50B81159449A543B74763
:105A400008F403CF112309F4E2C0809190039091F0
:105A500091032816390609F0DAC0D10193966D91A9
:105A60007C919497882777FD8095982F0F94A50AAD
:105A70002091330330913403409135035091360324
:105A80000F947A0C0F94720A1F921F92F1012289CF
:105A90002F9321892F9320892F9327852F935B01A3
:105AA0006C01E12CF12C870120E030E0A90160E0DD
:105AB00070E0CB010E942CF80F900F900F900F9088
:105AC0000F900F90A4C00E94641D81110C94A63504
:105AD00040E06CEB74E086E79AE00E94A6AB86E7B4
