:100000000C94A61C0C94D71C0C94D71C0C94D71CD5
:100010000C94D71C0C94D71C0C94D71C0C94D71C94
:100020000C94D71C0C94D71C0C94D71C0C94D71C84
:100030000C94D71C0D942F090C94D71C0C94D71C2E
:100040000C94D71C0C94C4760C94D71C0C94D71C1D
:100050000C94D71C0C947B780C9467770D941D033B
:100060000C94D71C0C94D3780C94FD780C94D71C6A
:100070000C94D71C0C94D71C0C94D71C0C94D71C34
:100080000C94D71C0C94D71C0C94D71C0C94D71C24
:100090000C94D71C0C94D71C0C94D71C0D94EF0116
:1000A0000C94D71C0C94D71C0C94D71C0C94D71C04
:1000B0000C94D71C0C94D71C0C94D71C0C94D71CF4
:1000C0000C94D71C0C94D71C0C94D71C0C94D71CE4
:1000D0000C94D71C0C94D71C0C94D71C0C94D71CD4
:1000E0000C94D71CF36F0B700B700B700B700B70B4
:1000F0000B700B700B700B700B700B700B700B7028
:100100000B700B700B700B700B700B700B700B7017
:100110000B700B700B700B70E26F946F9E6F186F0B
:100120000B70C46FCE6F0B700B70296F066F0B7066
:10013000BA6F0B70D86FB06FA86F0B700B700B702D
:10014000766F806F8A6F0B700B700B700B700B707B
:100150000B700B700B700B70E26F946F9E6F186FCB
:100160000B70C46FCE6F0B700B70296F066F0B7026
:10017000BA6F0B70D86FB06FA86F0B700B700B70ED
:10018000766F806F8A6F27E7B8E74BE89CE936F80F
:1001900036F836F836F836F836F836F836F836F8EF
:1001A000E4E820E95EE936F836F836F836F836F84D
:1001B00036F836F836F836F836F836F8C2EC24ED6C
:1001C00084EDE4ED44EEA4EE04EF36F880F388EF1E
:1001D000FEEF71F0E3F055F1C7F139F2A6F213F337
:1001E00036F836F836F836F836F845EB12EC68EBA8
:1001F000C8F335F4A1F40EF52FF571F5A3F5D5F597
:100200002EF689F6E2F63BF75CF750F536F836F84D
:1002100036F836F836F836F836F836F836F836F86E
:1002200036F836F8E6EA15EB36F836F836F836F8EA
:1002300036F836F836F836F8DEF736F8E1EB36F809
:1002400036F836F886F7B4F736F836F836F836F872
:100250001AE736F836F8DFE982EAC6EA6AECB8014E
:100260007C01B401BE01C80182018801A401AA0178
:1002700094017E01C001B0018E0182017A01A801C2
:100280007801B6019A018A018001BA01BC017601A8
:100290009001A0019C01B2018401A601C601BC012C
:1002A00096018601AC0107634236B79BD8A71A397D
:1002B000685618AEBAAB558C1D3CB7CC5763BD6DB4
:1002C000EDFD753EF6177231BF000000803F05A8B6
:1002D0004CCDB2D44EB93836A9020C50B9918688AB
:1002E000083CA6AAAA2ABE000000803F0D940B0578
:1002F0000D94D8040D94C4040D9450040D949704E7
:100300000D94FA040D94E2040D9423050D94350523
:100310000D9473040D94F6040D9460000D94BA04CA
:100320000D940F050D944D000D948D040D94310521
:100330000D9410010D9407050D9419050D946F008F
:100340000D9415050D9445000D947B040D9427051F
:100350000D94CE040D9483040D9439050D94E3059A
:100360000D94B0040D941D050D9455040D940405D1
:100370000D944B040D9400050D943E050D945F04FF
:100380000D94A1040D949C000D9470000D942B0508
:100390000D946904436F6C64206578747275736999
:1003A0006F6E20646973616C6C6F77656400436F76
:1003B0006C6420657874727573696F6E20616C6C03
:1003C0006F776564004175746F72657472616374F0
:1003D0003A0053657474696E67206D6F746F722094
:1003E00063757272656E742E2E2E00536574204DE7
:1003F0006963726F7374657070696E6700547269B7
:1004000067676572696E67207761746368646F6798
:100410002E204966206163746976617465642C20BE
:10042000746865207072696E7465722077696C6C8F
:100430002072657365742E0053657474696E67204D
:100440005468726573686F6C6420546F3A00494E4B
:10045000542050494E3A20004D323531200020744E
:100460006F200053657420766F6C756D65747269CA
:100470006320657874727573696F6E20666F722081
:100480006578747275646572200044697361626C8A
:10049000656420766F6C756D65747269632065782C
:1004A00074727573696F6E20666F722065787472EE
:1004B0007564657220004D313134200048656174E7
:1004C000696E67204265640048656174696E6720E3
:1004D00045787472756465720050696E2063616E50
:1004E000206E6F7420626520736574206279204DE0
:1004F00034322C206D617920696E20696E76616CD2
:100500006964206F7220696E207573652E20004922
:100510006C6C6567616C20532076616C7565206634
:100520006F72204D3432005A2028432920746F778F
:10053000657220666C6F6F722073657420746F3AF9
:100540002000592028422920746F77657220666C3C
:100550006F6F722073657420746F3A2000582028E2
:10056000412920746F77657220666C6F6F722073FB
:10057000657420746F3A2000526F64205261646980
:1005800075732073657420746F3A200047313334DB
:100590002000506F7346726F6D53746570733A002C
:1005A000436F6D7044656C74613A0043616C6962BD
:1005B000726174696F6E206D6F76656D656E742003
:1005C0006973206C696D6974656420746F203130C3
:1005D0006D6D2E004669727374206D6F76652074A0
:1005E0006F20746F75636820617420782C793D30BA
:1005F0002C3020746F206175746F2D7365742072B8
:1006000061646975732E0043616C6962726174691B
:100610006F6E206D6F76656D656E74206973206CEA
:10062000696D6974656420746F2031306D6D2E00C2
:1006300043616E6E6F7420736574207261646975B6
:100640007320616E6420666C6F6F7220617420731A
:10065000616D652074696D652E0043616C6962721D
:100660006174696F6E20636F6465206973206C69C3
:100670006D6974656420746F20626F74746F6D208F
:10068000313025206F66205A2068656967687400DC
:1006900052656C617469766520706F736974696FF7
:1006A0006E696E67004162736F6C75746520706F60
:1006B000736974696F6E696E670047363920005A36
:1006C0003A2000593A2000583A20004F46465345F8
:1006D0005453204F464620425920544F4F204D55E9
:1006E0004348205F20545259494E472041474149D1
:1006F0004E3A200053657474696E672050726F62C1
:10070000652053656E736974697669747920546FD6
:100710003A005A2070726F6265206661696C656488
:10072000206F6E2073656E73697469766974793AA7
:10073000200053657474696E672050726F62652083
:1007400053656E736974697669747920546F3A00E1
:100750005A2070726F6265206661696C6564206FF3
:100760006E2073656E73697469766974793A2000D6
:1007700053657474696E672050726F6265205365AB
:100780006E736974697669747920546F3A005A20DF
:1007900070726F6265206661696C6564206F6E209F
:1007A00073656E73697469766974793A2000686557
:1007B0006865004E6577205261646975733A200060
:1007C0004F6C64205261646975733A200043616C18
:1007D00063756C6174656420526164697573206926
:1007E0007320626164203A0053657474696E6720F7
:1007F00050726F62652053656E73697469766974AF
:100800007920546F3A005A2070726F6265206661D9
:10081000696C6564206F6E2073656E7369746976A8
:100820006974793A200053657474696E6720507258
:100830006F62652053656E73697469766974792097
:10084000546F3A005A2070726F6265206661696C5D
:100850006564206F6E2073656E7369746976697460
:10086000793A2000473332200050524F42452D5AEA
:100870004F46465345543A0047333000536574742D
:10088000696E672050726F62652053656E7369747C
:10089000697669747920546F3A0050726F6265739B
:1008A00020646F206E6F74206D617463682E204F1A
:1008B00066662062792000202D2050524F4245204C
:1008C0004F46465345543A00506F696E74200047B6
:1008D000333020004D3131372043414C49425241A1
:1008E00054494F4E20434F4D504C45544500686588
:1008F0006865004E657720486F72697A6F6E746123
:100900006C205261646975733A20004F6C64204812
:100910006F72697A6F6E74616C205261646975736D
:100920003A200043616C63756C61746564205261A8
:1009300064697573206973206261643A20004D31E7
:1009400031372043414C4942524154494F4E204691
:1009500041494C45440043616C6962726174696F3E
:100960006E204661696C65640053657474696E67D6
:100970002050726F62652053656E73697469766981
:10098000747920546F3A005A2070726F6265202883
:1009900043656E74657220506F696E7429206661BC
:1009A000696C6564206F6E2073656E736974697617
:1009B0006974793A20004E6577205A204865696746
:1009C00068743A004F6C64205A20486569676874FF
:1009D0003A004D3131372043414C4942524154494C
:1009E0004F4E204641494C45440043616C69627258
:1009F0006174696F6E204661696C6564005365744B
:100A000074696E672050726F62652053656E7369FA
:100A100074697669747920546F3A005A2070726F45
:100A20006265202843656E74657220506F696E742C
:100A300029206661696C6564206F6E2073656E7332
:100A4000697469766974793A200047363920005A0A
:100A50003A2000593A2000583A20004F4646534564
:100A60005453204F464620425920544F4F204D5555
:100A700043482E2041626F7274696E67004D3131B8
:100A8000372043414C4942524154494F4E20464140
:100A9000494C45440043616C6962726174696F6ED0
:100AA000204661696C65640053657474696E6720E3
:100AB00050726F62652053656E73697469766974EC
:100AC0007920546F3A005A2070726F626520285A5C
:100AD00020546F77657229206661696C6564206FA8
:100AE0006E2073656E73697469766974793A200053
:100AF0004D3131372043414C4942524154494F4EC8
:100B0000204641494C45440043616C6962726174FE
:100B1000696F6E204661696C656400536574746921
:100B20006E672050726F62652053656E73697469D9
:100B30007669747920546F3A005A2070726F62653A
:100B400020285920546F77657229206661696C6589
:100B500064206F6E2073656E736974697669747949
:100B60003A20004D3131372043414C4942524154E3
:100B7000494F4E204641494C45440043616C6962EF
:100B8000726174696F6E204661696C6564005365BB
:100B90007474696E672050726F62652053656E735E
:100BA0006974697669747920546F3A005A207072BA
:100BB0006F626520285820546F776572292066611E
:100BC000696C6564206F6E2073656E7369746976F5
:100BD0006974793A2000473420533130004D313068
:100BE000342053300A4D3134302053300A4D3130E7
:100BF00037006578656375746547436F6465202FBA
:100C000020717565756544656C74614D6F766520FE
:100C100072657475726E73206572726F72006969A5
:100C20007332646820616363656C65726F6D6574AF
:100C3000657220696E697469616C697A696E672E84
:100C40002E2E00616363656C65726F6D65746572ED
:100C5000206932632072656376206572726F722E2E
:100C6000002076616C75653A2000726561642072BF
:100C700065672000616363656C65726F6D6574659F
:100C80007220777269746520693263206572726FB1
:100C9000722E00616363656C65726F6D6574657259
:100CA0002073656E6420693263206572726F722EE4
:100CB0000000000100250030001D000C0018002479
:100CC0000031001C000B00170023002F001B000A3E
:100CD000001E000D00FFFF0900030022002B001A78
:100CE0000041004200000002003500457874722E79
:100CF00000436F6E6669673A004F6E6520686561F4
:100D0000746572207365656D73206465636F7570BB
:100D10006C65642066726F6D20746865726D6973AE
:100D2000746F72202D2064697361626C696E672034
:100D3000616C6C20666F7220736166657479210046
:100D4000486561746572206465636F75706C656475
:100D5000004372656174696F6E206661696C6564D9
:100D6000004469726563746F72792063726561749F
:100D700065640044656C6574696F6E206661696CBA
:100D800065640046696C652064656C657465640023
:100D9000446F6E6520736176696E672066696C6565
:100DA0002E0057726974696E6720746F2066696CD3
:100DB000653A20006F70656E206661696C65642C11
:100DC0002046696C653A20004E6F742053442070B1
:100DD00072696E74696E67005344207072696E7434
:100DE000696E672062797465200066696C652E6F94
:100DF00070656E206661696C65640046696C65208B
:100E000073656C6563746564002053697A653A00A4
:100E100046696C65206F70656E65643A00456E6466
:100E20002066696C65206C69737400426567696E41
:100E30002066696C65206C697374006572726F72EC
:100E40002077726974696E6720746F2066696C65BB
:100E500000534420696E6974206661696C006164A6
:100E600076616E6365204C205B303D6F66665D0089
:100E7000657874727564657220636F6F6C6572203B
:100E80007370656564205B302D3235355D006469B3
:100E90007374616E636520746F2072657472616330
:100EA00074207768656E2068656174696E67205B81
:100EB0006D6D5D0074656D702E20666F72207265B9
:100EC0007472616374696F6E207768656E206865FF
:100ED0006174696E67205B435D0074656D702E20E0
:100EE00073746162696C697A652074696D65205BF1
:100EF000735D00592D6F6666736574205B7374654E
:100F000070735D00582D6F6666736574205B737433
:100F10006570735D00504944206D61782076616C86
:100F20007565205B302D3235355D005049442044D5
:100F30002D6761696E0050494420492D6761696ED3
:100F40000050494420502D6761696E2F64656164CB
:100F50002D74696D6500504944206472697665207E
:100F60006D696E00504944206472697665206D6138
:100F7000780068656174206D616E61676572205BE1
:100F8000302D335D00616363656C65726174696FF8
:100F90006E205B6D6D2F735E325D007374617274D1
:100FA000206665656472617465205B6D6D2F735D8D
:100FB000006D61782E206665656472617465205BE2
:100FC0006D6D2F735D007374657073207065722092
:100FD0006D6D0042656420504944206D6178207633
:100FE000616C7565205B302D3235355D004265647E
:100FF0002050494420442D6761696E004265642099
:1010000050494420492D6761696E00426564205053
:10101000494420502D6761696E0042656420504943
:1010200044206472697665206D696E0042656420B3
:10103000504944206472697665206D61780042658C
:10104000642048656174204D616E61676572205B44
:10105000302D335D00436F72722E20646961676FBB
:101060006E616C2043205B6D6D5D00436F72722E6C
:1010700020646961676F6E616C2042205B6D6D5DFD
:1010800000436F72722E20646961676F6E616C201D
:1010900041205B6D6D5D004D6178207072696E74EA
:1010A00061626C6520726164697573205B6D6D5D52
:1010B00000546F776572205A20656E6473746F7088
:1010C000206F6666736574205B73746570735D0072
:1010D000546F776572205920656E6473746F702049
:1010E0006F6666736574205B73746570735D00541E
:1010F0006F776572205820656E6473746F70206F0F
:101100006666736574205B73746570735D00536508
:10111000676D656E74732F7320666F7220747261D1
:1011200076656C005365676D656E74732F7320660A
:101130006F72207072696E74696E6700486F7269B1
:101140007A6F6E74616C20726F642072616469756D
:101150007320617420302C30205B6D6D5D0044691C
:1011600061676F6E616C20726F64206C656E67746E
:1011700068205B6D6D5D00486F6D696E6720666508
:10118000656472617465205B6D6D2F735D004D61E8
:10119000782E206665656472617465205B6D6D2FC5
:1011A000735D00537465707320706572206D6D00FF
:1011B00054726176656C20616363656C65726174FD
:1011C000696F6E205B6D6D2F735E325D00416363EE
:1011D000656C65726174696F6E205B6D6D2F735EF7
:1011E000325D004D61782E206A65726B205B6D6DFB
:1011F0002F735D005A206D6178206C656E6774688E
:10120000205B6D6D5D0059206D6178206C656E67A7
:101210007468205B6D6D5D0058206D6178206C6591
:101220006E677468205B6D6D5D005A20686F6D6538
:1012300020706F73205B6D6D5D005920686F6D6568
:1012400020706F73205B6D6D5D005820686F6D6559
:1012500020706F73205B6D6D5D0053746F70207331
:1012600074657070657220616674657220696E6164
:1012700063746976697479205B6D732C303D6F6699
:10128000665D004D61782E20696E616374697665D4
:101290002074696D65205B6D732C303D6F66665DF3
:1012A000005072696E74657220616374697665209E
:1012B0005B735D0046696C616D656E742070726968
:1012C0006E746564205B6D5D00416476616E63657C
:1012D00064205573657200426175647261746500C3
:1012E0004550523A3320004550523A322000455082
:1012F000523A3120004550523A30200050726F74FB
:101300006F636F6C2076657273696F6E20636861BE
:101310006E6765642C20757067726164696E670022
:10132000436F6E66696775726174696F6E2072656E
:1013300073657420746F2064656661756C74732EB8
:1013400000436F6E66696775726174696F6E206CB9
:101350006F616465642066726F6D20454550524F21
:101360004D2E00436F6E66696775726174696F6EAA
:101370002073746F72656420746F20454550524F1E
:101380004D2E004175746F6C6576656C20616374D9
:101390006976652028312F3029005A2D70726F62CE
:1013A00065205933005A2D70726F626520583300E2
:1013B0005A2D70726F6265205932005A2D70726F0B
:1013C0006265205832005A2D70726F626520593163
:1013D000005A2D70726F6265205831005A2D70725C
:1013E0006F626520782D792D7370656564205B6D63
:1013F0006D2F735D005A2D70726F6265207370657A
:101400006564205B6D6D2F735D005A2D70726F6285
:1014100065206F66667365742079205B6D6D5D0075
:101420005A2D70726F6265206F66667365742078DE
:10143000205B6D6D5D004D61782E207A2D70726F8E
:101440006265202D2062656420646973742E205BC0
:101450006D6D5D005A2D70726F62652068656967F9
:101460006874205B6D6D5D0077616974005072690E
:101470006E746572206865696768743A005A2D70E9
:10148000726F6265206661696C6564005472616E9A
:1014900073666F726D6174696F6E206D61747269CD
:1014A000783A004175746F6C6576656C696E67207B
:1014B00064697361626C6564004175746F6C657614
:1014C000656C696E6720656E61626C65640041756C
:1014D000746F6C6576656C206D61747269782072CA
:1014E0006573657400004732382F6E47315A3235C4
:1014F0002F6E005A2D70726F62652073746174656F
:101500003A005265736574205A206865696768748B
:10151000005A2D70726F6265206176657261676531
:10152000206865696768743A0020537465702056B6
:101530006172696174696F6E2066726F6D2050729E
:101540006F626520746F2062656420446973746102
:101550006E63653A005A2D70726F62653A00507280
:10156000696E7465722073657420696E746F20648F
:1015700072792072756E206D6F646520756E746966
:101580006C207265737461727421003A20776F72F7
:101590006B696E67003A2074656D702073656E73B9
:1015A0006F72206465666563740065787472756433
:1015B0006572200068656174656420626564004D31
:1015C00054454D503A00504944204175746F74752C
:1015D0006E652066696E6973686564202120506CB1
:1015E00061636520746865204B702C204B69206115
:1015F0006E64204B6420636F6E7374616E7473202D
:10160000696E2074686520436F6E666967757261E4
:1016100074696F6E2E68206F7220454550524F4D91
:1016200000504944204175746F74756E6520666181
:10163000696C6564212074696D656F75740050492B
:1016400044204175746F74756E65206661696C65C0
:1016500064212054656D70657261747572652074C3
:101660006F206869676800204B643A2000204B694E
:101670003A2000204B703A200020436C617373695C
:101680006320504944002054753A2000204B753A9D
:101690002000206D61783A2000206D696E3A2000AC
:1016A00020643A200020626961733A200050494466
:1016B000204175746F74756E652073746172740067
:1016C0005461726765744265643A0054617267657B
:1016D0007445787472004E6F206D6F766520696E68
:1016E0002064656C7461207365676D656E74207726
:1016F000697468203E2031207365676D656E742EB5
:1017000020546869732073686F756C64206E657609
:1017100065722068617070656E20616E64206D6115
:101720007920636175736520612070726F626C65EA
:101730006D210044656C7461205261646975732089
:10174000432830293A0044656C7461205261646911
:10175000757320422830293A0044656C7461205228
:10176000616469757320412830293A00416C7068C2
:10177000612043283930293A00416C706861204269
:1017800028333330293A00416C7068612041283297
:101790003130293A00546F77657220333A00546F24
:1017A00077657220323A00546F77657220313A00C3
:1017B000496E76616C69642064656C746120636F46
:1017C0006F7264696E617465202D206D6F7665207F
:1017D00069676E6F726564006C696E656172204C3A
:1017E0003A00454550524F4D2075706461746564F0
:1017F000002C2073706565643D00206C696E656126
:10180000722073746570733A004A65726B3A007A9D
:101810005F6D61783A00795F6D61783A00785F6D4D
:1018200061783A004C200048200020697320002095
:10183000746F2000536574206F75747075743A204E
:10184000004D53312C4D53322050696E7300453199
:101850003A0045303A005A3A00593A0020002C002C
:10186000206D696E0020686F7572732000206461BE
:10187000797320006D20005072696E74696E672064
:1018800074696D653A005072696E746564206669AA
:101890006C616D656E743A0046616E737065656467
:1018A0003A00482E205261646975733A00466C6FA5
:1018B000774D756C7469706C793A00537065656426
:1018C0004D756C7469706C793A00202F002F003AC6
:1018D0000020524157002042403A0020403A002068
:1018E000423A00543A0020453A00205A3A00205922
:1018F0003A0020583A00583A004672656520524135
:101900004D3A00556E6B6E6F776E20636F6D6D6133
:101910006E643A00536F6674776172652052657326
:101920006574005761746368646F672052657365FE
:10193000740042726F776E206F7574205265736504
:10194000740045787465726E616C205265736574BD
:1019500000506F7765725570007374617274004245
:101960004C4B2000736B6970200020676F7420005F
:101970004572726F723A6578706563746564206C45
:10198000696E65200053442072656164206572723F
:101990006F7200205200204A002049002050002091
:1019A0005300204600204500205A002059002058AE
:1019B00000446F6E65207072696E74696E67206690
:1019C000696C6500466F726D6174206572726F722A
:1019D0000057726F6E6720636865636B73756D0087
:1019E0006F6B20004563686F3A00526573656E64E3
:1019F0003A005761726E696E673A00496E666F3AD7
:101A0000004572726F723A00494E46004E414E00D8
:101A10006F6B004649524D574152455F4E414D450F
:101A20003A52657065746965725F302E39322E32B4
:101A3000204649524D574152455F444154453A3240
:101A400030313631323237204D414348494E455FBF
:101A5000545950453A526F73746F636B204D41581F
:101A60002076332000206465672E204300206D65BA
:101A700061737572656420004572726F723A436FCC
:101A8000756C64206E6F7420686F6C642074656D73
:101A900070657261747572652000206D730020613D
:101AA0006674657220004572726F723A54656D708B
:101AB0002E2072616973656420746F20736C6F7778
:101AC0002E2052697365203D2000004D31313720B2
:101AD00045787472756465722031001C151C140001
:101AE00000002243141F1FEF1E9B1E2B1EDB1D0038
:101AF0000000000000531D471CF71B7B1BFF1A044E
:101B000000081D900058091C01B007A801C8063440
:101B1000023006C002C0054C036805D803180564EE
:101B200004D004F00498047C056004080630049492
:101B30000600042007D003AC07A80338088003C4BC
:101B400008580350093003DC090803680AD802F476
:101B50000AB002800B88020C0C6002980C30022440
:101B60000DF801B00DC0013C0E8001C80E300154CB
:101B70000FB800B40F2800E00F00000400401D90D3
:101B80000060091C01B007A801D00634023806C065
:101B900002C8054C036805D80318056404D804F08E
:101BA0000498047C056004080630049406000420B0
:101BB00007D003AC07A80338088003C408580350B3
:101BC000093003DC090803680AE002F40AB802805D
:101BD0000B88020C0C6002980C3002240DF801B046
:101BE0000DC0013C0E8001C80E3001540FB800B486
:101BF0000F2800E00F000004000016D800C006AC5B
:101C00000178058002C004540348042804E803FC5A
:101C1000049803D0055003A40618037807D8024C93
:101C200008A80220097002F4093802C80A08029CB8
:101C30000BD001700C9001440D5001180EF800EC0F
:101C40000E8800C00F00000400681D4C00500B946B
:101C5000005809DC0050082401A8076C012807B4CB
:101C600001C006FC017006440228068C02F005D46F
:101C700002B8051C03880564035805AC033005F45D
:101C80000310053C04E8048404C804CC04A804142C
:101C90000590045C057004A4055804EC0538043470
:101CA0000620047C060804C406F0030C07D803547D
:101CB00007C8039C07B003E40798032C088003744B
:101CC000087003BC085803040948034C0930039406
:101CD000091803DC090803240AF0026C0AE002B4C4
:101CE0000AC802FC0AB002440BA0028C0B8802D482
:101CF0000B70021C0C5802640C4002AC0C2802F45D
:101D00000C10023C0DF001840DD801CC0DB801146B
:101D10000E98015C0E7001A40E4801EC0E180134FF
:101D20000FD8007C0F8800C40F0800FC0F000000D3
:101D300000000000000000000000000000000000A3
:101D40000000000000000000000000000000000093
:101D50000000000000401F450060094F0010095CB2
:101D600000C0086B0070087D0020089200D007AC0E
:101D7000008007CC003007DE00E006230190065EFD
:101D8000014006A601F005FF01A0056D025005F314
:101D90000200059603B0045A04600440051004488C
:101DA00006C0036E077003A8082003EB09D00223C6
:101DB0000B8002410C3002390DE001040E9001A2AB
:101DC0000E4001170FF000690FA000A20F5000C6CF
:101DD0000F0000DD0FB0FFEB0F60FF0400700DD8A7
:101DE000004804AC0158038002D802540380022842
:101DF000043802FC040002D005C801A4069801784A
:101E00000770014C08480120091801F409F000C8C6
:101E10000AC8009C0BA000700C7000440D3800181C
:101E20000E0000EC0EA8FFC00FE8FE0400001B54DB
:101E3000006009640010097400C008840070089CE8
:101E4000002008B800D007D8008007000130072C18
:101E500001E00668019006AC0140060002F005684A
:101E600002A005E0025005740300052404B004F04C
:101E7000046004DC051004E406C0030408700330A9
:101E8000092003780B8002600DE001A80E40016874
:101E90000FA000C00F0000E80F60FF0400801AD8F8
:101EA000009808AC012007800250065403C805289A
:101EB000045805FC040005D005B004A406680478A5
:101EC0000728044C08E8032009B003F4097003C88C
:101ED0000A38039C0BF802700CB002440D6802181B
:101EE0000E0802EC0E8801C00F8800F00F00000001
:101EF00000A00F5C006009690010097900C0088C1F
:101F0000007008A2002008BD00D007DE0080070591
:101F10000130073401E0066D019006B2014006076A
:101F200002F0056D02A005E80250057B0300052BB9
:101F300004B004F8046004EB06C003350920037FF5
:101F40000B8002650DE001B00E40011D0FF000484E
:101F50000FC8006C0FA000ED0F60FFFE0F48FE00E1
:101F6000025344206572726F72206669786564005E
:101F70005344206572726F7220646964206E6F74BE
:101F8000207265636F76657221005344205265614B
:101F900064204572726F72000000000000000000B3
:101FA000000000000000000024F403D950C38EB1EB
:101FB000C2A23D96828B3582127AE372816CCB6627
:101FC000A861015DC758EB546151204E1E4B564825
:101FD000C14559431A41013F093D2F3B7139CD3766
:101FE0004036C93465331432D430A32F802E6B2D84
:101FF000632C672B752A8E29B028DC2710274B26E7
:102000008F25D9242B248223E0224322AC211A21BC
:102010008D200420801F001F841E0C1E971D261D6E
:10202000B81C4E1CE61B821B201BC11A641A0A1A1C
:10203000B2195D190A19B9186A181C18D11788172E
:102040004017FA16B51673163116F115B315761535
:102050003A150015C7148F1458142214EE13BA132E
:10206000881356132513F612C71299126C124012D8
:102070001512EB11C1119811701148112111FB10AB
:10208000D610B1108D106910461024100210E10F07
:10209000C00FA00F800F610F420F230F060FE80E35
:1020A000CB0EAF0E930E770E5C0E410E270E0D0E6B
:1020B000F30DDA0DC10DA80D900D780D600D490DD1
:1020C000320D1B0D050DEF0CD90CC30CAE0C990C89
:1020D000850C700C5C0C480C350C210C0E0CFB0BA9
:1020E000E80BD60BC40BB20BA00B8E0B7D0B6B0B4E
:1020F0005A0B4A0B390B290B180B080BF80AE90A83
:10210000D90ACA0ABB0AAC0A9D0A8E0A800A710A59
:10211000630A550A470A390A2C0A1E0A110A040AD8
:10212000F709EA09DD09D009C409B709AB099F0914
:10213000920987097B096F09630958094C0941090C
:1021400036092B09200915090A090009F508EB08C9
:10215000E008D608CC08C208B808AE08A4089A0857
:10216000900887087D0874086B08610858084F08B4
:1021700046083D0834082C0823081A0812080908E4
:102180000108F807F007E807E007D807D007C807F5
:10219000C007B807B007A807A1070000420FA107B2
:1021A0001605D0030D038B022E02E801B201860151
:1021B000630145012C0117010401F400526F73748F
:1021C0006F636B4D415820526561647900526F73A3
:1021D000746F636B4D415820526561647900526F92
:1021E00073746F636B4D41582052656164790020B0
:1021F0007A3A0020793A0020783A00696E207175A9
:1022000065756544656C74614D6F766520746F20EB
:1022100063616C63756C61746544656C746153755E
:10222000625365676D656E74732072657475726E46
:1022300073206572726F722E004320686974206685
:102240006C6F6F720043706F7320782073717561CB
:102250007265200043706F7320782073746570730B
:10226000200043706F73207920737175617265204F
:102270000043706F7320792073746570732000427F
:102280002068697420666C6F6F720042706F7320F3
:102290007820737175617265200042706F732078C9
:1022A000207374657073200042706F7320792073FF
:1022B0007175617265200042706F732079207374AC
:1022C0006570732000412068697420666C6F6F72BE
:1022D0000041706F73207820737175617265200002
:1022E00041706F73207820737465707320004170A3
:1022F0006F73207920737175617265200041706F72
:1023000073207920737465707320006D6F76655249
:10231000656C617469766544697374616E6365495F
:102320006E5374657073202F2071756575654465F3
:102330006C74614D6F76652072657475726E732072
:102340006572726F72004D617854656D703A004429
:1023500069616D657465723A00416363656C6572AD
:102360006174696F6E3A004D617853706565643AC7
:10237000004A65726B3A004D617842656454656D40
:10238000703A005072696E746572547970653A449F
:10239000656C7461005A54726176656C4163636563
:1023A0006C3A005954726176656C416363656C3AAE
:1023B000005854726176656C416363656C3A005AEB
:1023C0005072696E74416363656C3A00595072696A
:1023D0006E74416363656C3A00585072696E744163
:1023E0006363656C3A005A53697A653A00595369D8
:1023F0007A653A005853697A653A005A4D61783ADD
:1024000000594D61783A00584D61783A005A4D694B
:102410006E3A00594D696E3A00584D696E3A004A5D
:1024200065726B58593A005072696E746C696E65CA
:1024300043616368653A00454550524F4D3A00414B
:1024400075746F6C6576656C3A005A50726F626590
:102450003A00436173654C69676874733A00537559
:1024600070706F72744C6F63616C46696C616D65FE
:102470006E746368616E67653A00537570706F7251
:10248000744731304731313A005A486F6D654469BD
:10249000723A0059486F6D654469723A0058486F46
:1024A0006D654469723A00536F6674776172655066
:1024B0006F7765725377697463683A004C43443AA6
:1024C0000046616E3A005344436172643A004865C5
:1024D000617465644265643A004D6978696E674568
:1024E000787472756465723A004E756D45787472D1
:1024F000756465723A00496E7075744275666665FA
:10250000723A0042617564726174653A004E6F20E0
:1025100063617365206C6967687473004D31313491
:1025200020007A70726F62696E672E2E2E006465CD
:102530006C6179203130306D732E00686F6D6541AC
:102540007869732000686F6D6541786973202F206A
:10255000717565756544656C74614D6F7665207243
:10256000657475726E73206572726F7200486F6D5C
:10257000652044656C7461005072696E7465723ACE
:102580003A736574757020006D6F7665546F52658F
:10259000616C202F20717565756544656C74614DA3
:1025A0006F76652072657475726E73206572726FD6
:1025B00072006D6F7665546F202F2071756575659B
:1025C00044656C74614D6F76652072657475726ECA
:1025D00073206572726F720053746570706572203B
:1025E00044697361626C6564004B696C6C6564007E
:1025F0006973506F736974696F6E416C6C6F776546
:1026000064200055706C6F6164696E672E2E2E0019
:10261000005344207072696E742073746F7070651B
:102620006420627920757365722E004739312F6EF0
:102630004731205A2D31302E302045352E3120465D
:10264000313530302F6E4739302F6E004739312FFA
:102650006E4731205A31302E3020452D352E302016
:1026600046313530302F6E4739302F6E00534420BD
:102670006361726420696E736572746564005344AB
:10268000204361726420696E7365727465640053DF
:102690004420436172642072656D6F7665640053F7
:1026A0004420636172642072656D6F76656400001A
:1026B000002110422063308440A550C660E77008B6
:1026C0008129914AA16BB18CC1ADD1CEE1EFF1313D
:1026D00012100273325222B5529442F772D6623906
:1026E0009318837BB35AA3BDD39CC3FFF3DEE3628D
:1026F00024433420040114E664C774A44485546A56
:10270000A54BB528850995EEE5CFF5ACC58DD5531C
:1027100036722611163006D776F6669556B4465BA5
:10272000B77AA719973887DFF7FEE79DD7BCC7C4EC
:1027300048E5588668A7784008611802282338CCF5
:10274000C9EDD98EE9AFF9488969990AA92BB9F57C
:102750005AD44AB77A966A711A500A333A122AFD45
:10276000DBDCCBBFFB9EEB799B588B3BBB1AABA64C
:102770006C877CE44CC55C222C033C600C411CAE95
:10278000ED8FFDECCDCDDD2AAD0BBD688D499D975C
:102790007EB66ED55EF44E133E322E511E700E9FE5
:1027A000FFBEEFDDDFFCCF1BBF3AAF599F788F88AC
:1027B00091A981CAB1EBA10CD12DC14EF16FE1807D
:1027C00010A100C230E3200450254046706760B974
:1027D000839893FBA3DAB33DC31CD37FE35EF3B1CD
:1027E000029012F322D2323542145277625672EAC4
:1027F000B5CBA5A89589856EF54FE52CD50DC5E21D
:1028000034C324A01481046674476424540544DB53
:10281000A7FAB79987B8975FE77EF71DC73CD7D36C
:1028200026F2369106B01657667676154634564C23
:10283000D96DC90EF92FE9C899E9898AB9ABA944BC
:1028400058654806782768C018E1088238A3287DB3
:10285000CB5CDB3FEB1EFBF98BD89BBBAB9ABB750C
:102860004A545A376A167AF10AD01AB32A923A2E83
:10287000FD0FED6CDD4DCDAABD8BADE89DC98D265C
:102880007C076C645C454CA23C832CE01CC10C1F93
:10289000EF3EFF5DCF7CDF9BAFBABFD98FF89F17AC
:1028A0006E367E554E745E932EB23ED10EF01E7C77
:1028B0003C3E5E2B3D3F2F5B5D3B2C2A225C005251
:1028C00065717565737450617573653A004D31318A
:1028D0003720494E534552542053442043415244DB
:1028E000004D31313720534420434152442045525A
:1028F000524F520055495F414354494F4E5F534533
:10290000545F4D454153555245445F4F52494749E5
:102910004E20004E6F205344204361726400536880
:102920007574204F666620414C4C20486561747375
:1029300000507265686561742041425300507265B1
:102940006865617420504C410055495F41435449CA
:102950004F4E5F484F4D455F5A200055495F4143F8
:1029600054494F4E5F484F4D455F59200055495FD0
:10297000414354494F4E5F484F4D455F58200055E5
:10298000495F414354494F4E5F484F4D45414C4C80
:10299000200055495F414354494F4E5F5A504F53B1
:1029A0004954494F4E5F464153545F4E4F5445532F
:1029B00054200055495F414354494F4E5F5A504F90
:1029C000534954494F4E5F4E4F5445535420005580
:1029D000495F414354494F4E5F45504F5349544915
:1029E0004F4E200055495F414354494F4E5F5A5066
:1029F0004F534954494F4E5F464153542000554967
:102A00005F414354494F4E5F59504F534954494FCA
:102A10004E5F46415354200055495F414354494F4E
:102A20004E5F58504F534954494F4E5F464153549F
:102A3000200055495F414354494F4E5F5A504F5310
:102A40004954494F4E200055495F414354494F4E28
:102A50005F59504F534954494F4E200055495F41EB
:102A60004354494F4E5F58504F534954494F4E209D
:102A70000042616E6742616E6700536C6F7742611E
:102A80006E6700446561642054696D650050494477
:102A900000003A002064617973200050657263651C
:102AA0006E74205072696E7465643A0020646566C5
:102AB000200046572044617465203230313631326F
:102AC000323700526F73746F636B4D415876330029
:102AD0005365654D65434E4300526F73746F636B6E
:102AE000204D41582076330069371F37B2365536AE
:102AF000416374696F6E3A256C6100040003004EF7
:102B00006F00596573004E2F41004F6666004F6E8F
:102B1000000000003FCDCC4C3D0AD7A33B6F120311
:102B20003A5265706574696572207620302E3932AC
:102B30002E32000040145480250000403800000070
:102B40004B00008070000000960000C0DA0000001A
:102B5000E10000002C010008B2010000C2010000E9
:102B6000F401000084030090D0030000E80300009B
:102B700008070020A1070000100E0040420F00606F
:102B8000E3160000000000110A0411040A111100EC
:102B90001C1F11111F0000040A0A0A0E1F1F0E003D
:102BA0001F1111111F0000001F1F1F1F1F00000415
:102BB0000A040000000000040E15041C00000002BE
:102BC00000000600C62BDC332C2CAD30FF2B00316F
:102BD0006E2C0200000700D92BDC33E72BAD30FF51
:102BE0002B00313830132CEE2B02AE310000507226
:102BF000696E7465722053657474696E677300063C
:102C00002C028032000041646A7573742054656D33
:102C10007073001A2C02442C0000416476616E63CC
:102C200065642053657474696E677300332C02C544
:102C30003100005072696E74657220536574746956
:102C40006E67730002000009004B2CDC33592D45E0
:102C50002D352D252D5D2C0E2DF62C6E2C642C0281
:102C6000DB2F0000446562756767696E6700752C2D
:102C700002BD32000043616C6962726174696F6EFB
:102C8000204D656E750003102702008D2C982C9145
:102C90002C9F2C0000000000B02C00000000006CF5
:102CA0006F6164656420662E20454550524F4D008B
:102CB000436F6E66696775726174696F6E000310A9
:102CC000270200C52CD02CC92CD72C0000000000F6
:102CD000E82C000000000073746F72656420696E58
:102CE00020454550524F4D00436F6E6669677572BF
:102CF0006174696F6E00FD2C03070400004C6F6166
:102D0000642066726F6D20454550524F4D00152D61
:102D1000030604000053746F726520746F204545EC
:102D200050524F4D002C2D02682D000045787472D2
:102D300075646572003C2D026F2F00004665656466
:102D400072617465004C2D029B2F00004163636526
:102D50006C65726174696F6E00602D02BB2E00009D
:102D600047656E6572616C0002000010006F2DDC1B
:102D700033A72E932E812E702E5B2E2C2E442E15D3
:102D80002E022EEE2DDD2DCC2DB72DA22D8F2D96C2
:102D90002D042F040000504944204D61783A2558F5
:102DA0004400A92D04260400004472697665204D74
:102DB00061783A25584D00BE2D0425040000447268
:102DC000697665204D696E3A25586D00D32D04242F
:102DD00004000050494420443A25586400E42D047E
:102DE0002304000050494420493A25586900F52D34
:102DF000042204000044542F50494420503A2558DE
:102E00007000092E042D040000436F6E74726F6C05
:102E10003A255868001C2E0446040000416476617F
:102E20006E6365206C696E3A25586C00332E044D34
:102E30000400005761697420556E6974733A25580F
:102E4000556D6D004B2E044C0400005761697420D1
:102E500054656D702E255854024300622E042E04D2
:102E60000000537461622E54696D653A25587700ED
:102E7000772E042A040000416363656C3A255841AB
:102E800000882E042B0400004D61782046523A251C
:102E90005846009A2E042C0400005374617274206A
:102EA00046523A25586600AE2E0429040000537499
:102EB0006570732F4D4D3A255365000200000400E4
:102EC000C22EDC33F72EDF2ECA2ED12E020B2F009E
:102ED000004D61782E20496E61637469766500E665
:102EE0002E023D2F00005374657070657220496E8C
:102EF00061637469766500FE2E041004000042616F
:102F00007564726174653A256F63000358040200AA
:102F1000122F1D2F162F242F00000000002E2F002F
:102F2000000000005B735D20303D4F666600446921
:102F3000732E2041667465723A256970000320047F
:102F40000200442F4F2F482F562F00000000006032
:102F50002F00000000005B735D20303D4F6666006F
:102F60004469732E2041667465723A2569730002C4
:102F700000000300762FDC338C2F7C2F832F04136B
:102F8000040000486F6D653A25665A00932F0416B9
:102F90000400004D61783A25667A000200000400C2
:102FA000A22FDC33CA2FBA2FAA2FB12F040E040090
:102FB000004A65726B3A25616A00C12F040D040056
:102FC000004D6F76653A25615A00D12F040A04003E
:102FD000005072696E743A25617A000200000500A3
:102FE000E22FDC3325301230FF2FEC2FF32F033587
:102FF0000400004472792072756E3A2564640006FC
:103000003003340400004572726F7273203A2564F5
:10301000650019300333040000496E666F202020DC
:103020003A256469002C3003320400004563686F60
:103030002020203A25646F003F30024C30000053BE
:10304000442043617264204D656E750002000006E5
:10305000005330DC33AD309A30843072305F3066EC
:103060003003F403010244656C6574652066696C85
:103070006500793002CC30020053746F70205072BA
:10308000696E74008B3003F7030400436F6E74693C
:103090006E7565205072696E7400A13003F60302EC
:1030A000045061757365205072696E7400B430030A
:1030B000F503010253656C6563742053442046692F
:1030C0006C65000100000100CA30DC33020000031F
:1030D00000D330EE30E430D930E030035424020025
:1030E00059657300EB3003E80300004E6F00F530C4
:1030F000010000000053746F70205072696E7400FC
:103100000731021831000041646A7573742046610A
:103110006E2073706565640002000007001F31DCDB
:1031200033963182316D31583143312D3134310391
:103130001E0400005365742046616E203130302536
:103140002525004A31031D040000536574204661A3
:103150006E203735252525005F31031C0400005300
:1031600065742046616E20353025252500743103B5
:103170001B0400005365742046616E2032352525FE
:1031800025008931031A0408005475726E204661C7
:103190006E204F6666009D31045204000046616E49
:1031A0002073706565643A25467325252500020065
:1031B000000900B531DC330F32F6316D325A32403E
:1031C00032C83328320200000900CC31DC330F3220
:1031D000F6316D325A324032C833DE312832E531B1
:1031E00003B20F0000556E6C6F636B2046756C6CFC
:1031F000204D656E7500FD310448040000466C6F7B
:10320000772020526174653A256F662525250016C2
:1032100032041F04000053706565642052617465B8
:103220003A256F6D252525002F32034204001044F6
:10323000697361626C6520537465707065727300A8
:103240004732033804000053687574204F666620C7
:10325000414C4C204865617473006132034704009F
:1032600000507265686561742041425300743203F6
:10327000370400005072656865617420504C41004D
:1032800002000004008732DC33A5328D3294320410
:103290003C0400004245442054656D703A202025CE
:1032A0004562024300AC32043D0400004E4F5A20F8
:1032B00054656D703A20202545300243000200001D
:1032C0000600C432DC33FA32D032C8339233E632ED
:1032D000D7320421040000482E20526164697573BE
:1032E000203A256F6800ED3203AC0F00005365747F
:1032F000205A204F726967696E0001330212330051
:103300000046756C6C2043616C6962726174696F10
:103310006E0002000004001933DC334F333A3321CE
:1033200033283303B10F0000426567696E204361A3
:103330006C6962726174696F6E00413303B50F008E
:10334000004245442041524520434C45414E0056E1
:103350003303B40F00004D414B45205355524520D7
:103360004E4F5A5A4C45202600020000060070338A
:10337000DC33C833B633A43392337C33833302F562
:10338000330000457874722E20706F736974696F12
:103390006E00993302563500005A20506F736974DD
:1033A000696F6E00AB3302AB3500005920506F736C
:1033B0006974696F6E00BD330200360000582050FA
:1033C0006F736974696F6E00CF3303FD03000048AB
:1033D0006F6D65205072696E74657200E33303E8A7
:1033E00003000050726576696F75732053637265D0
:1033F000656E20010003F0030400FC33193412341D
:103400000B340434203400000000002E340000008F
:1034100000003F3400000000004E340000000000B7
:10342000255566206D207072696E746564002045B4
:103430003A2565632F25456302437E256F4300319E
:1034400020636C69636B203D2031206D6D00453A2F
:10345000257833206D6D0003FC0304005E347B345B
:1034600074346D346634823400000000008334000C
:103470000000000093340000000000A334000000AE
:103480000000004D617820656E6473746F703A259A
:10349000735A004D696E20656E6473746F703A25BF
:1034A000737A005A3A257832206D6D0003FB0304CD
:1034B00000B334D034C934C234BB34D73400000034
:1034C0000000D8340000000000E8340000000000D4
:1034D000F8340000000000004D617820656E6473D0
:1034E000746F703A257359004D696E20656E647370
:1034F000746F703A25737900593A257831206D6DD3
:103500000003FA030400083525351E35173510353C
:103510002C3500000000002D3500000000003D3576
:1035200000000000004D350000000000004D6178F3
:1035300020656E6473746F703A257358004D696E20
:1035400020656E6473746F703A25737800583A255D
:103550007830206D6D0003EF0304005D357A35731C
:10356000356C35653581350000000000823500007E
:1035700000000092350000000000A23500000000AD
:1035800000004D617820656E6473746F703A257326
:103590005A004D696E20656E6473746F703A2573BE
:1035A0007A005A3A257832206D6D0003EE0304004C
:1035B000B235CF35C835C135BA35D6350000000033
:1035C00000D7350000000000E7350000000000F7DC
:1035D000350000000000004D617820656E64737452
:1035E0006F703A257359004D696E20656E6473746F
:1035F0006F703A25737900593A257831206D6D0046
:1036000003ED030400073624361D3616360F362B1D
:103610003600000000002C3600000000003C3600A0
:10362000000000004C360000000000004D617820D2
:10363000656E6473746F703A257358004D696E201F
:10364000656E6473746F703A25737800583A257804
:1036500030206D6D0000000004005C367936723653
:103660006B366436803600000000008636000000AD
:1036700000009A3600000000009E360000000000A6
:10368000255566206D00546F74616C2046696C612D
:103690006D656E7420557365640025557400546F14
:1036A00074616C205072696E74696E672054696D24
:1036B00065000000000400B936D636CF36C836C1E2
:1036C00036DD360000000000EC360000000000FA95
:1036D0003600000000000C370000000000526F733D
:1036E000746F636B204D4158207633005072696EC1
:1036F000746572204D6F64656C0046572044617498
:10370000653A203230313631323237004657205652
:10371000657273696F6E3A20302E39322E32000096
:1037200000000400263743373C3735372E374A37F9
:1037300000000000004E3700000000005737000076
:1037400000000060370000000000256F73005A3A47
:10375000257832206D6D00593A257831206D6D0045
:10376000583A257830206D6D000000000400703755
:103770008D3786377F377837943700000000009800
:10378000370000000000B1370000000000C437001F
:1037900000000000256F730053706565643A256F63
:1037A0006D25252520466C6F773A256F66252525E2
:1037B000004245443A256562205461726765743A57
:1037C000254562004E4F5A3A256563205461726761
:1037D00065743A2545630000000000000000000009
:1037E0000000FF0000010000000A0B02090C0D0E92
:1037F00008070304010000000000000000000000B2
:1038000000000000000000000000000000000000B8
:103810000000001211100000000000000000000075
:103820000000000000000000000000000001021085
:1038300020200808102040102040800201020108CA
:10384000040201010204081020408080402010087A
:1038500004020180040201804020100804020108D3
:103860000402010102040810204080010204081033
:103870002040800505050507050808080802020222
:10388000020A0A08080404040401010101010101FB
:10389000010303030303030303040707070C0C0CD2
:1038A0000C0C0C0C0C0202020206060606060606AA
:1038B000060B0B0B0B0B0B0B0B0000200023002641
:1038C0000029002C002F0032000001000003010637
:1038D00001090100002200250028002B002E0031E4
:1038E00000340002010000050108010B0100002165
:1038F00000240027002A002D0030003300010100C1
:1039000000040107010A01024E414E494E49545933
:10391000494E46CDCCCC3D0AD7233C17B7D138779A
:10392000CC2B329595E6241FB14F0A0000204100B0
:1039300000C84200401C4620BCBE4CCA1B0E5AAEFA
:10394000C59D7400AD7913B4FDBF980111241FBE4D
:10395000CFEFD1E2DEBFCDBF00E00CBF13E0A0E0AF
:10396000B2E0E8E3F5E202E00BBF02C007900D927F
:10397000A039B107D9F72EE1A0E9B3E001C01D924B
:10398000AD3AB207E1F719E3CCE4D9E300E006C0B1
:1039900022970109FE010BBF0F94150EC434D10705
:1039A00080E00807A9F70F94D6050D949A120C949D
:1039B0000000CF93DF9300D01F92CDB7DEB744E075
:1039C00050E0BC01CE0101960F94561269817A81B4
:1039D0008B819C810F900F900F900F90DF91CF9172
:1039E000089522E090E0281728F4963019F0220F6D
:1039F0009F5FF9CF209A289A219A229A2398809142
:103A000064008B7F80936400892F806A86958CBDCB
:103A100090FD03C081E0963009F480E08DBD0895EB
:103A20008091F90283FB882780F9089588E493E068
:103A3000C0CFCF92DF92EF92FF92CF93DF9300D06F
:103A40001F921F92CDB7DEB76B017C016093B51852
:103A50007093B6188093B7189093B8180E944F9C33
:103A6000C982DA82EB82FC8244E050E065E773E0D1
:103A7000CE0101960F94781223E0B701A60188E7E2
:103A800095E00E945C4E0E94FA51682F88E690E013
:103A90006D830F9466126D81681721F088E690E0BF
:103AA0000F9481120F900F900F900F900F90DF9155
:103AB000CF91FF90EF90DF90CF900895CF93DF9359
:103AC0001F92CDB7DEB7BC018DE793E00F9494123F
:103AD0000E94FA51682F88E690E069830F9466127D
:103AE0006981681739F088E690E00F90DF91CF91F7
:103AF0000D9481120F90DF91CF910895CF93DF93B2
:103B00001F92CDB7DEB7BC018FE793E00F949412FC
:103B10000E94FA51682F88E690E069830F9466123C
:103B20006981681739F088E690E00F90DF91CF91B6
:103B30000D9481120F90DF91CF910895CF93DF9371
:103B40001F92CDB7DEB7BC0181E893E00F949412C9
:103B50000E94FA51682F88E690E069830F946612FC
:103B60006981681739F088E690E00F90DF91CF9176
:103B70000D9481120F90DF91CF910895CF93C82FAC
:103B80008091CA048823D1F01092CA040E948B68E5
:103B90009091DF0291509093DF02911109C08091C2
:103BA000E002833010F40E94186885E08093DF0201
:103BB0006C2F87EF9CE1CF910C9497FECF910895E5
:103BC00080919206882349F00E94817280E0D6DFBE
:103BD00087EF9CE10E9496FEF3CF08954F925F928B
:103BE0006F927F928F929F92AF92BF92CF92DF920D
:103BF000EF92FF920F931F93CF93DF9300D01F920A
:103C0000CDB7DEB78C0180912F1990913019A0911A
:103C10003119B091321989839A83AB83BC83C090E8
:103C20003319D0903419E0903519F09036198090FE
:103C3000371990903819A0903919B0903A199C0111
:103C4000AD01BC01CD010F94470D81110FC1498019
:103C50005A806B807C80E89477F82FEF3FEF4FE736
:103C60005FE7C301B2010F94470D81110BC02FEF25
:103C70003FEF4FE75FE7C301B2010F94F409181655
:103C80000CF4F4C0A7019601C701B6010F94470DCB
:103C90008111ECC026013701E89477F82FEF3FEF50
:103CA0004FE75FE7C301B2010F94470D81110BC0CD
:103CB0002FEF3FEF4FE75FE7C301B2010F94F40925
:103CC00018160CF4D3C0A5019401C501B4010F94DA
:103CD000470D8111CBC024013501E89477F82FEF0F
:103CE0003FEF4FE75FE7C301B2010F94470D81112A
:103CF0000BC02FEF3FEF4FE75FE7C301B2010F9417
:103D0000F40918160CF4B2C0209107193091081963
:103D10004091091950910A1969817A818B819C819E
:103D20000F9490092B013C0120910B1930910C1933
:103D300040910D1950910E19C701B6010F949009C9
:103D40006B017C0120910F193091101940911119CC
:103D500050911219C501B4010F9490094B015C01F7
:103D600080918F19882329F020E732E441E25DE356
:103D700004C020E030E040E85FE3C301B2010F94EB
:103D80009C0CAB01BC0122E086EF98E10E94994EA9
:103D900080918F19882329F020E732E441E25DE326
:103DA00004C020E030E040E85FE3C701B6010F94B3
:103DB0009C0CAB01BC0122E08EEE98E10E94994E72
:103DC00080918F19882329F020E732E441E25DE3F6
:103DD00004C020E030E040E85FE3C501B4010F9487
:103DE0009C0CAB01BC0123E08AEE98E10E94994E45
:103DF00060914719709148198091491990914A1919
:103E00000F94C70A20918B1930918C1940918D190C
:103E100050918E190F949C0C20918F19222329F018
:103E200020E732E441E25DE304C020E030E040E816
:103E30005FE30F949C0CAB01BC0124E086EE98E19B
:103E40000F900F900F900F90DF91CF911F910F91D6
:103E5000FF90EF90DF90CF90BF90AF909F908F90AA
:103E60007F906F905F904F900C945C4EC8010E94C1
:103E7000824C4ACFCF92DF92EF92FF92CF93DF93A3
:103E8000EC01893191053CF0C53F81E0D8072CF069
:103E9000C4EFD1E002C0C9E1D0E0BE01882777FDC0
:103EA0008095982F0F94C70A6B017C0160913F1891
:103EB00070914018882777FD8095982F0F94C70A36
:103EC0009B01AC01C701B6010F94FB099B01AC013A
:103ED0006091411870914218809143189091441854
:103EE0000F949C0C60934118709342188093431870
:103EF00090934418D0934018C0933F18BE018BEBA9
:103F000098E1DF91CF91FF90EF90DF90CF900C94EC
:103F1000444DCF92DF92EF92FF926B017C0120E043
:103F200030E040E752E40F94F40987FD11C020E02F
:103F300030E046E153E4C701B6010F94280C18168F
:103F40006CF4C12CD12C86E1E82E83E4F82E06C057
:103F5000C12CD12C90E7E92E92E4F92EC092B5182D
:103F6000D092B618E092B718F092B81822E0B701D4
:103F7000A60182EA98E1FF90EF90DF90CF900C9439
:103F80005C4E8F929F92AF92BF92CF92DF92EF9250
:103F9000FF92CF93DF93EC018931910534F0893C96
:103FA00091052CF0C8ECD0E002C0C9E1D0E0D0937C
:103FB0003E18C0933D18E091B403F091B503E25868
:103FC000FF4FC080D180E280F38020E030E0A90183
:103FD000C701B6010F94F409AE01662757FD60953D
:103FE000762F18165CF0CB01BA010F94C70A2AE0AD
:103FF00037ED43E25CE30F949C0C24C0CB01BA0183
:104000000F94C70A2AE037ED43E25CE30F949C0C5F
:1040100020E030E040E850E40F949C0C4B015C0140
:10402000A7019601C701B6010F949C0C2BED3FE050
:1040300049E450E40F949C0C9B01AC01C501B40110
:104040000F94FB096093F4027093F5028093F602DB
:104050009093F702BE018DEA98E1DF91CF91FF9036
:10406000EF90DF90CF90BF90AF909F908F900C9487
:10407000444DCF93DF932091031997FD0DC0EC01C0
:104080008F3F910519F014F0CFEFD0E0209721F089
:1040900028602093031905C0277F20930319C0E0EF
:1040A000D0E061118DDD8091EB1790E0C817D90742
:1040B00029F0BE0188E998E10E94444DC093EB17B6
:1040C000DF91CF9108954F925F926F927F928F927E
:1040D0009F92AF92BF92CF92DF92EF92FF92CF93D7
:1040E000DF9300D01F92CDB7DEB72FE632E143E871
:1040F0005AE360912718709128188091291890919F
:104100002A180F949C0C6B017C0181E890E051DC33
:104110009B01AC01C701B6010F949009AB01BC0132
:1041200022E086E898E10E94994E84E798E10E9497
:10413000494CE0910A02F0910B0220E030E040E7A8
:1041400051E463857485858596850F94280C18162F
:104150000CF46BC020E030E0A9018DE790E02983EA
:104160003A834B835C830F946E124B015C0129816F
:104170003A814B815C81820E931EA41EB51EC5013F
:10418000B40120E831E541E050E00F94C80D60E84B
:104190007EEA8EEF9FEF0F94630D6B017C01C80CDC
:1041A000D91CEA1CFB1CBA01A90187E798E10E940F
:1041B0006A4DC701B60120E13EE040E050E00F94B7
:1041C000C80D49015A01BA01A9018DE698E10E9482
:1041D0006A4DA0EFB1EFA50194010F94110E6C0D83
:1041E0007D1D8E1D9F1D2CE330E040E050E00F94BC
:1041F000C80DBA01A90185E698E10E946A4D80E6E2
:1042000098E10F900F900F900F90DF91CF91FF905A
:10421000EF90DF90CF90BF90AF909F908F907F9066
:104220006F905F904F900C94614C0F946703C09017
:104230002B18D0902C18E0902D18F0902E186C1997
:104240007D098E099F0928EE33E040E050E00F948D
:10425000A60D83CF5F988EBD0DB407FEFDCF6EBD5A
:104260000DB407FEFDCF5F9A0895CF93DF9300D082
:104270001F921F92CDB7DEB795E0E7E4F3E0DE01D1
:10428000119601900D929A95E1F7E1E0F0E0EC0FC4
:10429000FD1FE80FF11D808190E00F900F900F90AF
:1042A0000F900F90DF91CF91D5CFFF920F931F9377
:1042B000CF93DF9300D01F921F92CDB7DEB785E07A
:1042C000ECE4F3E0DE01119601900D928A95E1F79E
:1042D00080E087DB579A8E010F5F1F4FF12CF801AA
:1042E00061918F0170E08F2DC0DFF394F5E0FF1234
:1042F000F6CF0F900F900F900F900F90DF91CF910E
:104300001F910F91FF90089567FD43C08230E9F03F
:1043100028F4882341F0813061F03BC0833009F1FB
:10432000843059F136C0662311F0A19A67C0A19874
:1043300065C080910801662311F0806801C08F7705
:104340008093080147FF3AC05DC080910801662351
:1043500011F0806401C08F7B8093080147FF34C057
:1043600053C080910801662311F0886001C0877FE7
:104370008093080147FF32C044C080910801662342
:1043800011F0826001C08D7F8093080147FF2EC02D
:104390003AC047FD39C08230B9F028F4882341F093
:1043A000813061F008958330C9F08430F9F00895C8
:1043B000442311F0A09A0895A0980895442311F081
:1043C000A29A0895A298089580910801442311F0BB
:1043D000806201C08F7D809308010895809108015B
:1043E000442311F08061F7CF8F7EF5CF80910801D3
:1043F000442311F08460EFCF8B7FEDCF47FFD8CF00
:1044000008950895089508950895643079F028F482
:10441000613041F0623041F00895683051F0603110
:1044200041F0089540E003C040E004C041E060E096
:1044300002C041E061E068CFCF93DF9381E498E16F
:104440000E94614C62B36695617070E086EF98E1FE
:104450000E94384D62B3617070E08EE598E10E9471
:10446000444DC6E0D1E08881992787FD9095692F5A
:10447000661F6627661F70E089E598E10E94384D47
:1044800062B362FB662760F970E08EE598E10E94F6
:10449000444D688166FB662760F970E086E598E127
:1044A0000E94384D688165FB662760F970E08EE5F3
:1044B00098E10E94444D688163FB662760F970E0D3
:1044C00082E598E10E94384D68816295617070E0E4
:1044D0008EE598E10E94444D68816695617070E0B8
:1044E0008EE498E10E94384D688162FB662760F98E
:1044F00070E08EE598E1DF91CF910C94444DFF92EE
:104500000F931F93CF93DF9300D01F921F92CDB7CD
:10451000DEB785E0E1E5F3E0DE01119601900D9252
:104520008A95E1F7989A9A9A809107018062809320
:104530000701809107018061809307018091070145
:104540008460809307018E010F5F1F4FF12CF801EB
:1045500061918F018F2D59DFF394F5E0FF12F7CFB2
:104560000F900F900F900F900F90DF91CF911F91B0
:104570000F91FF9008950C9452760E943D76209101
:104580000802309109028217930724F490930902DC
:104590008093080208956091080270910902809149
:1045A0000602909107026817790744F47093070296
:1045B0006093060289EF98E10C94444D0895CF93DF
:1045C000C82F69E170E084EB9DE10F94FB006C2F34
:1045D00084EB9DE10F949C0060E084EB9DE10F94DF
:1045E000FC00882329F083E99CE0CF910C94614C76
:1045F000CF910895CF93DF93D82FC62F69E170E054
:1046000084EB9DE10F94FB006D2F84EB9DE10F94F3
:104610009C006C2F84EB9DE10F949C0084EB9DE14A
:104620000F940E01882331F084E79CE0DF91CF9155
:104630000C94614CDF91CF9108951F93CF93DF933A
:10464000182FBDDF41E050E069E170E084EB9DE1AF
:104650000F94EF0084EB9DE10F944500892BA1F0AE
:1046600084EB9DE10F944D00EC01612F70E08AE630
:104670009CE00E94384DBE01772781E69CE0DF91E7
:10468000CF911F910C94444D83E49CE0DF91CF9136
:104690001F910C94614C8EE19CE00E94614C84EB74
:1046A0009DE10F94DA008FE0C8DF81E3C6DF80E28E
:1046B000C4DF6CE980E29EDF80E2BFDF82E2BDDF23
:1046C00060E482E297DF82E2B8DF85E2B6DF60E095
:1046D00085E290DF85E2B1DF83E2AFDF60E383E272
:1046E00089DF83E2AADF84E2A8DF6AE484E282DF72
:1046F00084E2A3DF80E3A1DF60E280E37BDF80E38D
:104700009CDF81E39ADF82E398DF64E182E372DF7A
:1047100082E393DF83E391DF60E083E36BDF83E396
:104720008CDF84E38ADF60E084E364DF84E385DF99
:1047300086E383DF62E386E35DDF86E37EDF87E394
:104740007CDF60E087E356DF87E377DF88E375DFB0
:1047500060E188E34FDF88E370DF89E36EDF8AE39F
:104760006CDF62E38AE346DF8AE367CF81E365DFDC
:1047700085E363DF89E361DF8DE25FCF6DE080EA8F
:1047800095E00E94F1746AE080EA95E00C94F1747F
:10479000CF93C82FE091B403F091B50342A953A978
:1047A00064A975A922E083EE98E10E94994EE091F8
:1047B000B403F091B50346A957A960AD71AD20E0EF
:1047C0008AEC98E10E94994E0E942A60AB01BC01DC
:1047D00022E08FED98E10E94994E4091190250918C
:1047E0001A0260911B0270911C0220E08AEC98E191
:1047F0000E94994ECC2391F061E070E081ED98E148
:104800000E94384D6CEF7FE080911102909112026E
:10481000681B790B8FEC98E10E94384DE0910E02F5
:10482000F0E0E851F84E608170E086ED98E10E947A
:10483000384DE091DE02EF3F29F4E091B403F091AE
:10484000B503E081F0E0E851F84E608170E08BED57
:1048500098E10E94384DCF9191CF2F923F924F9285
:104860005F926F927F928F929F92AF92BF92CF9200
:10487000DF92EF92FF920F931F93CF93DF93CDB709
:10488000DEB729970FB6F894DEBF0FBECDBF5C012F
:10489000DC0116968D919C9117978C38910509F43F
:1048A000BBC508F0DAC08235910509F40DC408F0E3
:1048B0007EC08A31910509F4C4C208F03FC0853139
:1048C000910509F43CC278F48231910509F416C2CD
:1048D0008431910509F417C2419711F00C945C34AE
:1048E0001798169801C58731910509F460C208F43C
:1048F00042C28831910509F488C2499711F00C949D
:104900005C3460E084E999E129960FB6F894DEBF43
:104910000FBECDBFDF91CF911F910F91FF90EF9010
:10492000DF90CF90BF90AF909F908F907F906F90CF
:104930005F904F903F902F900C94B6BA8E319105B6
:1049400009F4DCC218F58C31910509F4AFC210F0FE
:104950000C94953484E999E129960FB6F894DEBF5A
:104960000FBECDBFDF91CF911F910F91FF90EF90C0
:10497000DF90CF90BF90AF909F908F907F906F907F
:104980005F904F903F902F900C9417BF8A32910503
:1049900009F40EC328F4809709F4DDC20C945C344A
:1049A0008035910510F00C9495340C945C348B3662
:1049B000910511F40C948E2D38F58C35910509F480
:1049C000E4C360F48435910509F487C308F480C317
:1049D0008535910509F4B8C30C945C34883691058B
:1049E00009F485C430F48336910509F432C40C947B
:1049F0005C348936910509F462C58A36910511F453
:104A00000C947D2D0C945C348337910511F40C9437
:104A1000DF2D80F48F36910511F40C94AF2D823781
:104A2000910511F40C94FD2D8D36910511F00C9427
:104A30005C3467C58537910511F40C94002E08F499
:104A4000E6C78737910511F40C942B2E8837910512
:104A500011F40C946E2E0C945C348530B1E09B07FD
:104A600011F40C947C3108F0B0C08F3C910511F426
:104A70000C94163008F041C08A3C910511F40C9456
:104A8000452F70F4883C910511F40C94942E10F08D
:104A90000C94E72E8E3B910509F408C70C945C3406
:104AA0008C3C910511F40C949C2F10F40C948A2FDB
:104AB0008D3C910511F40C94FC2F8E3C910511F066
:104AC0000C945C34C50129960FB6F894DEBF0FBE76
:104AD000CDBFDF91CF911F910F91FF90EF90DF90AD
:104AE000CF90BF90AF909F908F907F906F905F908E
:104AF0004F903F902F900C9499588F3D910511F451
:104B00000C94D13088F48C3D910511F40C947E30D6
:104B10008D3D910511F40C94A630813D910511F065
:104B20000C945C340C945E30893E910511F40C9425
:104B3000E63040F5883E910511F00C945C346091AC
:104B4000F0177091F1178AEF97E10E94384D40916C
:104B5000EC175091ED176091EE177091EF1722E06E
:104B600081EF97E10E945C4E1092F1171092F017BE
:104B70001092EC171092ED171092EE171092EF179B
:104B80000C9495348B3F910511F40C941F318430B3
:104B9000914011F00C945C3429960FB6F894DEBF66
:104BA0000FBECDBFDF91CF911F910F91FF90EF907E
:104BB000DF90CF90BF90AF909F908F907F906F903D
:104BC0005F904F903F902F9066CD8E3521E09207F9
:104BD00011F40C94D432C0F58E3241E0940711F4F4
:104BE0000C941F3298F48931A1E09A0711F40C94C7
:104BF000D4318C32B1E09B0711F40C94E43186304F
:104C0000914011F00C945C340C949E318034F1E0AE
:104C10009F0711F40C94923238F48F32914011F4C2
:104C20000C945E320C945C34813441E0940711F4AE
:104C30000C9496328234914011F00C945C3480E0F4
:104C40000E94DBAF0C94AB328239A1E09A0711F4D9
:104C50000C94BF3398F58836E1E09E0711F40C946C
:104C60008B3338F48336914011F40C9445330C9413
:104C70005C34803931E0930711F40C94A533813909
:104C8000914011F00C945C3429960FB6F894DEBF75
:104C90000FBECDBFDF91CF911F910F91FF90EF908D
:104CA000DF90CF90BF90AF909F908F907F906F904C
:104CB0005F904F903F902F900C94FEAD853F51E058
:104CC000950711F40C94EF3360F4843F914011F098
:104CD0000C945C3480E00E94115283E693E10C94C2
:104CE000FA33863FE1E09E0711F40C9414348C38BB
:104CF000934011F40C942E340C945C34179A169A49
:104D0000159A0C94953484E999E129960FB6F89494
:104D1000DEBF0FBECDBFDF91CF911F910F91FF90EE
:104D2000EF90DF90CF90BF90AF909F908F907F904B
:104D30006F905F904F903F902F900C945BBE84E9F2
:104D400099E129960FB6F894DEBF0FBECDBFDF9173
:104D5000CF911F910F91FF90EF90DF90CF90BF9078
:104D6000AF909F908F907F906F905F904F903F900B
:104D70002F900C9439BA84E999E129960FB6F894EA
:104D8000DEBF0FBECDBFDF91CF911F910F91FF907E
:104D9000EF90DF90CF90BF90AF909F908F907F90DB
:104DA0006F905F904F903F902F900C943EBAD5013A
:104DB0008D919C9197FD02C00C94953460E084E93C
:104DC00099E10E9430C9F501EE5AFF4F608171816F
:104DD00040E084E999E129960FB6F894DEBF0FBE52
:104DE000CDBFDF91CF911F910F91FF90EF90DF909A
:104DF000CF90BF90AF909F908F907F906F905F907B
:104E00004F903F902F900C948EBE84E999E12996A3
:104E10000FB6F894DEBF0FBECDBFDF91CF911F91CB
:104E20000F91FF90EF90DF90CF90BF90AF909F9049
:104E30008F907F906F905F904F903F902F900C9449
:104E4000A5BAF5018081918192FD02C00C94953440
:104E5000468D578D60A171A18091FE19882311F4B0
:104E60000C9495344093F5195093F6196093F71903
:104E70007093F81984ED99E129960FB6F894DEBF86
:104E80000FBECDBFDF91CF911F910F91FF90EF909B
:104E9000DF90CF90BF90AF909F908F907F906F905A
:104EA0005F904F903F902F900C9476C7D5018D91D5
:104EB0009C9197FD02C00C949534F501EE5AFF4F7A
:104EC0006081718184E999E129960FB6F894DEBF7B
:104ED0000FBECDBFDF91CF911F910F91FF90EF904B
:104EE000DF90CF90BF90AF909F908F907F906F900A
:104EF0005F904F903F902F900C943BBFF5018081C5
:104F0000918197FD02C00C94953460E084E999E1A9
:104F10000E9430C9F501EE5AFF4F6081718184E92A
:104F200099E129960FB6F894DEBF0FBECDBFDF9191
:104F3000CF911F910F91FF90EF90DF90CF90BF9096
:104F4000AF909F908F907F906F905F904F903F9029
:104F50002F900C949CBFD5018D919C9197FD02C020
:104F60000C94953460E084E999E10E9430C9F50120
:104F7000EE5AFF4F6081718184E999E129960FB65D
:104F8000F894DEBF0FBECDBFDF91CF911F910F917F
:104F9000FF90EF90DF90CF90BF90AF909F908F9059
:104FA0007F906F905F904F903F902F900C94CABF6E
:104FB000F5012081318133FD02C00C94953412A19A
:104FC000E12EF3A0E1EBFCE0449150E04E155F05CB
:104FD00009F45EC032964DE0E532F407A9F7F7FC1C
:104FE00057C032FF2CC0D5015E964D915D916D91F9
:104FF0007C9191974F3F51056105710509F0E0F4EF
:1050000061E0812F0F943F05F501668D812F0F948C
:105010007805D5015E966D917C915F97812F0F94F5
:105020002704B70184E398E10E94384DF501668DAD
:10503000778D8FE298E112C08FE095E02BC062E09F
:10504000812F0F943F05B7018FE298E10E94384D00
:10505000812F0F94AD05BC018AE298E129960FB625
:10506000F894DEBF0FBECDBFDF91CF911F910F919E
:10507000FF90EF90DF90CF90BF90AF909F908F9078
:105080007F906F905F904F903F902F900C94444D85
:1050900089ED94E029960FB6F894DEBF0FBECDBF20
:1050A000DF91CF911F910F91FF90EF90DF90CF9004
:1050B000BF90AF909F908F907F906F905F904F9038
:1050C0003F902F900C94824C10924B190C94953475
:1050D00081E080934B190C949534D5018D919C916E
:1050E000119792FF14C05E962D913D914D915C9168
:1050F0009197A8EEB3E00F94050E6093E8027093C9
:10510000E9028093EA029093EB020C9495340E949A
:10511000E01D81E029960FB6F894DEBF0FBECDBF2B
:10512000DF91CF911F910F91FF90EF90DF90CF9083
:10513000BF90AF909F908F907F906F905F904F90B7
:105140003F902F900C94E19BF5018081918192FF1B
:1051500012C0268D378D40A151A1A8EEB3E00F9467
:10516000050E6093EC027093ED028093EE02909333
:10517000EF020C9495341092EC021092ED02109212
:10518000EE021092EF020C949534D5018C9183FFBE
:105190000EC01A968D919D910D90BC91A02D80937B
:1051A000360390933703A0933803B0933903F50186
:1051B000808184FF0CC086859785A089B189809302
:1051C0003A0390933B03A0933C03B0933D03D50176
:1051D0008C9185FF0EC052968D919D910D90BC9142
:1051E000A02D80933E0390933F03A0934003B09380
:1051F00041030E944F9CF501808186FD02C00C9402
:1052000095342091B4033091B50386899789A08D98
:10521000B18DF90181879287A387B4878081299610
:105220000FB6F894DEBF0FBECDBFDF91CF911F91B7
:105230000F91FF90EF90DF90CF90BF90AF909F9035
:105240008F907F906F905F904F903F902F900C9435
:10525000705ED501ED91FC911197F2FF0DC05E9645
:105260002D913D914D915C919197A8EEB3E00F94F3
:10527000050E6B017C0106C040E1C42E47E2D42E2E
:10528000E12CF12CE3FD179AF501808184FD169A3B
:10529000D5018C9185FD159A0F9467032B013C0174
:1052A0004C0C5D1C6E1C7F1C0F946703A3019201C4
:1052B000261B370B480B590BDA01C901803A964877
:1052C000A140B10518F40E9445A1EECFD5018C9103
:1052D00083FD1798F501808184FD1698D5018C9186
:1052E00085FD02C00C94953415980C9495340E9459
:1052F000496881110C9495340F9467036093F217F9
:105300007093F3178093F4179093F5170E94101D74
:1053100081110C949534F5018081918193FF02C035
:105320000C947F3492FF0AC0868D978DA0A1B1A105
:10533000892B8A2B8B2B11F40C947F34D5018D9102
:105340009C91119792FD02C00C9495349C012227E8
:10535000317091FF23C0232B89F011E020E030E071
:10536000A9015A966D917D918D919C915D970F94B5
:10537000280C18160CF010E0212F01C020E0850148
:105380000C5A1F4FF501668D778D80A191A1298759
:105390000F94C70A2985D8014C9124C0232B81F092
:1053A00011E020E030E0A901F501628D738D848D5C
:1053B000958D0F94280C18160CF010E0212F01C0C9
:1053C00020E00091B4031091B503D5015E966D9174
:1053D0007D918D919C91919729870F94C70A29857A
:1053E000F801408129960FB6F894DEBF0FBECDBFFD
:1053F000DF91CF911F910F91FF90EF90DF90CF90B1
:10540000BF90AF909F908F907F906F905F904F90E4
:105410003F902F900C9499630E94496881110C94DD
:1054200095340F9467036093F2177093F31780938A
:10543000F4179093F5170E94101D81110C94953468
:10544000D5018D919C91119792FD02C00C949534D9
:1054500090FF11C011E020E030E0A9015A966D9153
:105460007D918D919C915D970F94280C18160CF0EE
:1054700010E0412F01C040E0F501668D778D80A1DD
:1054800091A149870F94C70A498529960FB6F894C8
:10549000DEBF0FBECDBFDF91CF911F910F91FF9067
:1054A000EF90DF90CF90BF90AF909F908F907F90C4
:1054B0006F905F904F903F902F900C946264D50155
:1054C0008D919C9133E0969587953A95E1F781709F
:1054D00029960FB6F894DEBF0FBECDBFDF91CF91F6
:1054E0001F910F91FF90EF90DF90CF90BF90AF9002
:1054F0009F908F907F906F905F904F903F902F90F4
:1055000047C90E94496881110C9495340F94670330
:105510006093F2177093F3178093F4179093F51735
:105520000E94101D81110C94953440E068EC74E0E9
:1055300087EF9CE10E94C6DF87EF9CE10E941AE39F
:105540000E94E01D2090B4033090B503F5018081E6
:10555000918191FF09C0EC5AFF4F2081211104C0B5
:105560002BE5222E22E0322E92FF1EC090FF0FC0AC
:1055700011E020E030E0A901D5015A966D917D91AE
:105580008D919C915D970F94280C18160CF010E0EB
:10559000F501668D778D80A191A10F94C70A212F07
:1055A000D1014C910E949963F10126A937A940AD20
:1055B00051AD62A973A984A995A90F948F092B01F4
:1055C0003C0120E030E0A9010F94280C181664F487
:1055D00020E030E040E050E4C301B2010F94F40950
:1055E00087FF0EC00C94953420E030E040E050EC92
:1055F000C301B2010F94280C181614F40C949534BE
:1056000099249394D101D0962D913C91D1979E9657
:105610008D919C919F97821793070CF0912C0F947A
:1056200067036D837E838F83988710E0412C512C14
:1056300032010F94670369837A838B839C83609321
:10564000F2177093F3178093F4179093F517DC011A
:10565000CB012D813E814F815885821B930BA40B7A
:10566000B50B893E9340A105B10550F080E090D87C
:1056700089819A81AB81BC818D839E83AF83B887FA
:1056800081E00E94BE1D8091B4039091B50328165D
:10569000390609F064C0D1019396ED90FC9094977F
:1056A0001E141F040CF05BC0111158C0992009F49E
:1056B00077C091966D917C919297882777FD809520
:1056C000982F0F94C70A9B01AC01F10162A973A93D
:1056D00084A995A90F94280C181614F00C948C34F6
:1056E000662777276E197F09882777FD8095982F81
:1056F0000F94C70A20914203309143034091440321
:10570000509145030F949C0C0F94940A1F921F9282
:10571000D10152962C9152972F9351962C915197DB
:105720002F9350962C9150972F931F962C912F9337
:105730005B016C01E12CF12C870120E030E0A90134
:1057400060E070E0CB010E94D6930F900F900F9015
:105750000F900F900F9011E00C948C3411E04114D5
:1057600051046104710409F050C09920F1F020E067
:1057700030E040E85FE3F10166A977A980AD91AD23
:105780000F948F099B01AC01D101D2966D917D914F
:105790008D919C91D5970F94280C87FF1FC046CF01
:1057A000411451046104710481F520E030E040E8C7
:1057B0005FE3F10166A977A980AD91AD0F949009DF
:1057C0009B01AC01D101D2966D917D918D919C91FF
:1057D000D5970F94F40918160CF428CFF101A78D72
:1057E000B0A128EE33E00F94FF0D2B013C0129817D
:1057F0003A814B815C81420E531E641E751E41141A
:1058000051046104710409F414CFD301C201298148
:105810003A814B815C81821B930BA40BB50B8115E4
:105820009449A543B74708F404CF112309F4E2C013
:105830008091B4039091B5032816390609F0DAC0B7
:10584000D10193966D917C919497882777FD8095EF
:10585000982F0F94C70A209142033091430340913F
:105860004403509145030F949C0C0F94940A1F928B
:105870001F92F10122892F9321892F9320892F9341
:1058800027852F935B016C01E12CF12C870120E02F
:1058900030E0A90160E070E0CB010E94D6930F9048
:1058A0000F900F900F900F900F90A4C00E94101DAA
:1058B00081110C94953440E06CEB74E087EF9CE12F
:1058C0000E94C6DF87EF9CE10E941AE30E94E01D60
:1058D000D5018D919C91119792FF1FC090FF11C02F
:1058E00011E020E030E0A9015A966D917D918D91F3
:1058F0009C915D970F94280C18160CF010E0412F26
:1059000001C040E0F501668D778D80A191A14987A6
:105910000F94C70A49850E94626420911902309150
:105920001A0240911B0250911C0260911502709165
:10593000160280911702909118020F948F092B0183
:105940003C0120E030E0A9010F94280C18165CF40B
:1059500020E030E040EA50E4C301B2010F94F409C2
:1059600087FF0CC0E2C720E030E040EA50ECC30102
:10597000B2010F94280C18160CF4D7C70F946703C4
:105980002B013C0120E030E040E05FE36091150234
:105990007091160280911702909118020F9490094D
:1059A0002091190230911A0240911B0250911C0261
:1059B0000F94F40987FF1EC00F94670364197509DB
:1059C00086099709693E73408105910578F080E06A
:1059D0000E94C8230F9467032B013C016093F217C8
:1059E0007093F3178093F4179093F51781E00E945A
:1059F000BE1DC8CF1092601D0F9467036093F2170D
:105A00007093F3178093F4179093F5178EC70E9445
:105A1000101D81118AC70F9467032B013C010F945D
:105A200067036419750986099709693E7340810502
:105A3000910538F080E00E94C8230F9467032B0182
:105A40003C0181E00E94BE1D00910A0210910B02F0
:105A5000D8011B968D909D90AD90BC901E9720E034
:105A600030E040EF51E4C501B4010F94280C181642
:105A7000BCF4F8012781308541855285C501B40108
:105A80000F948F099F7701E020E030E040E85FE36A
:105A90000F94280C18160CF000E011E0102701C03C
:105AA00011E0E0900C02F0900D02D7011B968D9052
:105AB0009D90AD90BC901E9720E030E040EF51E407
:105AC000C501B4010F94280C18169CF4F701278126
:105AD000308541855285C501B4010F948F099F77A8
