:100000000C94CA1C0C94FB1C0C94FB1C0C94FB1C45
:100010000C94FB1C0C94FB1C0C94FB1C0C94FB1C04
:100020000C94FB1C0C94FB1C0C94FB1C0C94FB1CF4
:100030000C94FB1C0D94E5090C94FB1C0C94FB1C0C
:100040000C94FB1C0C946B770C94FB1C0C94FB1C09
:100050000C94FB1C0C942F790C940E780D94D30304
:100060000C94FB1C0C9487790C94B1790C94FB1CB8
:100070000C94FB1C0C94FB1C0C94FB1C0C94FB1CA4
:100080000C94FB1C0C94FB1C0C94FB1C0C94FB1C94
:100090000C94FB1C0C94FB1C0C94FB1C0D94A502F3
:1000A0000C94FB1C0C94FB1C0C94FB1C0C94FB1C74
:1000B0000C94FB1C0C94FB1C0C94FB1C0C94FB1C64
:1000C0000C94FB1C0C94FB1C0C94FB1C0C94FB1C54
:1000D0000C94FB1C0C94FB1C0C94FB1C0C94FB1C44
:1000E0000C94FB1CA270BA70BA70BA70BA70BA7075
:1000F000BA70BA70BA70BA70BA70BA70BA70BA70B0
:10010000BA70BA70BA70BA70BA70BA70BA70BA709F
:10011000BA70BA70BA70BA70917043704D70C76F90
:10012000BA7073707D70BA70BA70D86FB56FBA70EC
:100130006970BA7087705F705770BA70BA70BA70B1
:1001400025702F703970BA70BA70BA70BA70BA7000
:10015000BA70BA70BA70BA70917043704D70C76F50
:10016000BA7073707D70BA70BA70D86FB56FBA70AC
:100170006970BA7087705F705770BA70BA70BA7071
:1001800025702F703970DBE76CE8FFE850EAEBF878
:10019000EBF8EBF8EBF8EBF8EBF8EBF8EBF8EBF847
:1001A00098E9D4E912EAEBF8EBF8EBF8EBF8EBF8A6
:1001B000EBF8EBF8EBF8EBF8EBF8EBF877EDD9EDC3
:1001C00039EE99EEF9EE59EFB9EFEBF835F43DF071
:1001D000B3F026F198F10AF27CF2EEF25BF3C8F389
:1001E000EBF8EBF8EBF8EBF8EBF8FAEBC7EC1DECFF
:1001F0007DF4EAF456F5C3F5E4F526F658F68AF6EA
:10020000E3F63EF797F7F0F711F805F6EBF8EBF8A1
:10021000EBF8EBF8EBF8EBF8EBF8EBF8EBF8EBF8C6
:10022000EBF8EBF89AEBC9EBEBF8EBF8EBF8EBF843
:10023000EBF8EBF8EBF8EBF893F8EBF896ECEBF85F
:10024000EBF8EBF83BF869F8EBF8EBF8EBF8EBF8C8
:10025000CEE7EBF8EBF893EA36EB7AEB1FEDBA0159
:100260008E018C01C00194019C01C401AA01960178
:1002700098019A01880178018A019C018201B201EA
:10028000B801AE01BE01B40184017E01A601900156
:10029000A801A001A201C6017A018001C801A6013E
:1002A0009201B0017C0107634236B79BD8A71A3987
:1002B000685618AEBAAB558C1D3CB7CC5763BD6DB4
:1002C000EDFD753EF6177231BF000000803F05A8B6
:1002D0004CCDB2D44EB93836A9020C50B9918688AB
:1002E000083CA6AAAA2ABE000000803F0D94520135
:1002F0000D9466050D94D9050D94EF050D94B60582
:100300000D94DD050D947A050D94B0050D94C6018C
:100310000D9457050D9470050D940B050D9406056D
:100320000D94C1050D94E7050D941F050D94390535
:100330000D9443050D944D050D9498050D940301FE
:100340000D94CB050D94CF050D9499060D94F405ED
:100350000D94C5050D9431050D9426010D94BA0533
:100360000D94EB050D9484050D94AC050D94FB00E4
:100370000D948E050D9401050D9425010D94BD0578
:100380000D9415050D9416010D9429050D94D305B2
:100390000D94E105436F6C64206578747275736920
:1003A0006F6E20646973616C6C6F77656400436F76
:1003B0006C6420657874727573696F6E20616C6C03
:1003C0006F776564004175746F72657472616374F0
:1003D0003A0053657474696E67206D6F746F722094
:1003E00063757272656E742E2E2E00536574204DE7
:1003F0006963726F7374657070696E6700547269B7
:1004000067676572696E67207761746368646F6798
:100410002E204966206163746976617465642C20BE
:10042000746865207072696E7465722077696C6C8F
:100430002072657365742E0053657474696E67204D
:100440005468726573686F6C6420546F3A00494E4B
:10045000542050494E3A20004D323531200020744E
:100460006F200053657420766F6C756D65747269CA
:100470006320657874727573696F6E20666F722081
:100480006578747275646572200044697361626C8A
:10049000656420766F6C756D65747269632065782C
:1004A00074727573696F6E20666F722065787472EE
:1004B0007564657220004D313134200048656174E7
:1004C000696E67204265640048656174696E6720E3
:1004D00045787472756465720050696E2063616E50
:1004E000206E6F7420626520736574206279204DE0
:1004F00034322C206D617920696E20696E76616CD2
:100500006964206F7220696E207573652E20004922
:100510006C6C6567616C20532076616C7565206634
:100520006F72204D3432005A2028432920746F778F
:10053000657220666C6F6F722073657420746F3AF9
:100540002000592028422920746F77657220666C3C
:100550006F6F722073657420746F3A2000582028E2
:10056000412920746F77657220666C6F6F722073FB
:10057000657420746F3A2000526F64205261646980
:1005800075732073657420746F3A200047313334DB
:100590002000506F7346726F6D53746570733A002C
:1005A000436F6D7044656C74613A0043616C6962BD
:1005B000726174696F6E206D6F76656D656E742003
:1005C0006973206C696D6974656420746F203130C3
:1005D0006D6D2E004669727374206D6F76652074A0
:1005E0006F20746F75636820617420782C793D30BA
:1005F0002C3020746F206175746F2D7365742072B8
:1006000061646975732E0043616C6962726174691B
:100610006F6E206D6F76656D656E74206973206CEA
:10062000696D6974656420746F2031306D6D2E00C2
:1006300043616E6E6F7420736574207261646975B6
:100640007320616E6420666C6F6F7220617420731A
:10065000616D652074696D652E0043616C6962721D
:100660006174696F6E20636F6465206973206C69C3
:100670006D6974656420746F20626F74746F6D208F
:10068000313025206F66205A2068656967687400DC
:1006900052656C617469766520706F736974696FF7
:1006A0006E696E67004162736F6C75746520706F60
:1006B000736974696F6E696E670047363920005A36
:1006C0003A2000593A2000583A20004F46465345F8
:1006D0005453204F464620425920544F4F204D55E9
:1006E0004348205F20545259494E472041474149D1
:1006F0004E3A200053657474696E672050726F62C1
:10070000652053656E736974697669747920546FD6
:100710003A005A2070726F6265206661696C656488
:10072000206F6E2073656E73697469766974793AA7
:10073000200053657474696E672050726F62652083
:1007400053656E736974697669747920546F3A00E1
:100750005A2070726F6265206661696C6564206FF3
:100760006E2073656E73697469766974793A2000D6
:1007700053657474696E672050726F6265205365AB
:100780006E736974697669747920546F3A005A20DF
:1007900070726F6265206661696C6564206F6E209F
:1007A00073656E73697469766974793A2000686557
:1007B0006865004E6577205261646975733A200060
:1007C0004F6C64205261646975733A200043616C18
:1007D00063756C6174656420526164697573206926
:1007E0007320626164203A0053657474696E6720F7
:1007F00050726F62652053656E73697469766974AF
:100800007920546F3A005A2070726F6265206661D9
:10081000696C6564206F6E2073656E7369746976A8
:100820006974793A200053657474696E6720507258
:100830006F62652053656E73697469766974792097
:10084000546F3A005A2070726F6265206661696C5D
:100850006564206F6E2073656E7369746976697460
:10086000793A2000473332200050524F42452D5AEA
:100870004F46465345543A0047333000536574742D
:10088000696E672050726F62652053656E7369747C
:10089000697669747920546F3A0050726F6265739B
:1008A00020646F206E6F74206D617463682E204F1A
:1008B0006666206279200047333020004D313137A1
:1008C0002043414C4942524154494F4E20434F4DE1
:1008D000504C4554450068656865004E6577204872
:1008E0006F72697A6F6E74616C205261646975739E
:1008F0003A20004F6C6420486F72697A6F6E7461A1
:100900006C205261646975733A200043616C6375B1
:100910006C61746564205261646975732069732029
:100920006261643A20004D3131372043414C4942E5
:10093000524154494F4E204641494C454400436181
:100940006C6962726174696F6E204661696C65647E
:100950000053657474696E672050726F626520532E
:10096000656E736974697669747920546F3A005AB8
:100970002070726F6265202843656E746572205026
:100980006F696E7429206661696C6564206F6E20E2
:1009900073656E73697469766974793A20004E657F
:1009A00077205A204865696768743A004F6C642064
:1009B0005A204865696768743A004D3131372043E1
:1009C000414C4942524154494F4E204641494C45C1
:1009D000440043616C6962726174696F6E204661A4
:1009E000696C65640053657474696E672050726F3A
:1009F00062652053656E73697469766974792054F1
:100A00006F3A005A2070726F6265202843656E74D9
:100A1000657220506F696E7429206661696C656427
:100A2000206F6E2073656E73697469766974793AA4
:100A3000200047363920005A3A2000593A20005801
:100A40003A20004D31313720456E6473746F702049
:100A50004F6666736574204572726F72004F46462A
:100A600053455453204F464620425920544F4F205F
:100A70004D5543482E2041626F7274696E672E2077
:100A800053656E73697469766974793A20004D31E3
:100A900031372043414C4942524154494F4E204640
:100AA00041494C45440043616C6962726174696FED
:100AB0006E204661696C65640053657474696E6785
:100AC0002050726F62652053656E73697469766930
:100AD000747920546F3A005A2070726F6265202832
:100AE0005A20546F77657229206661696C656420AD
:100AF0006F6E2073656E73697469766974793A20D4
:100B0000004D3131372043414C4942524154494F05
:100B10004E204641494C45440043616C6962726114
:100B200074696F6E204661696C6564005365747406
:100B3000696E672050726F62652053656E736974C9
:100B4000697669747920546F3A005A2070726F6226
:100B50006520285920546F77657229206661696C79
:100B60006564206F6E2073656E736974697669744D
:100B7000793A20004D3131372043414C49425241AE
:100B800054494F4E204641494C45440043616C69ED
:100B900062726174696F6E204661696C65640053AE
:100BA000657474696E672050726F62652053656E5C
:100BB000736974697669747920546F3A005A2070A9
:100BC000726F626520285820546F776572292066FD
:100BD00061696C6564206F6E2073656E73697469FA
:100BE000766974793A2000473420533130004D3112
:100BF00030342053300A4D3134302053300A4D31D7
:100C00003037006578656375746547436F646520A8
:100C10002F20717565756544656C74614D6F7665DF
:100C20002072657475726E73206572726F720069DE
:100C3000697332646820616363656C65726F6D65AA
:100C400074657220696E697469616C697A696E672E
:100C50002E2E2E00616363656C65726F6D65746521
:100C600072206932632072656376206572726F72DA
:100C70002E002076616C75653A20007265616420F3
:100C80007265672000616363656C65726F6D657482
:100C900065722077726974652069326320657272AB
:100CA0006F722E00616363656C65726F6D6574654C
:100CB000722073656E6420693263206572726F7290
:100CC0002E0000000100250030001D000C0018005F
:100CD000240031001C000B00170023002F001B0014
:100CE0000A001E000D00FFFF0900030022002B0078
:100CF0001A0041004200000002003500457874727D
:100D00002E00436F6E6669673A004F6E6520686516
:100D100061746572207365656D73206465636F75BA
:100D2000706C65642066726F6D20746865726D69A1
:100D300073746F72202D2064697361626C696E67D1
:100D400020616C6C20666F72207361666574792116
:100D500000486561746572206465636F75706C65C9
:100D600064004372656174696F6E206661696C65C9
:100D700064004469726563746F727920637265619F
:100D80007465640044656C6574696F6E20666169A2
:100D90006C65640046696C652064656C65746564A7
:100DA00000446F6E6520736176696E672066696CBA
:100DB000652E0057726974696E6720746F206669CA
:100DC0006C653A20006F70656E206661696C6564C1
:100DD0002C2046696C653A20004E6F7420534420E5
:100DE0007072696E74696E67005344207072696E28
:100DF00074696E672062797465200066696C652E7F
:100E00006F70656E206661696C65640046696C652B
:100E10002073656C6563746564002053697A653A74
:100E20000046696C65206F70656E65643A00456EBA
:100E3000642066696C65206C69737400426567693B
:100E40006E2066696C65206C697374006572726FE0
:100E5000722077726974696E6720746F2066696C9E
:100E60006500534420696E6974206661696C006195
:100E70006476616E6365204C205B303D6F66665D15
:100E800000657874727564657220636F6F6C65724B
:100E9000207370656564205B302D3235355D0064EC
:100EA000697374616E636520746F2072657472611A
:100EB0006374207768656E2068656174696E672069
:100EC0005B6D6D5D0074656D702E20666F722072B3
:100ED000657472616374696F6E207768656E2068EF
:100EE000656174696E67205B435D0074656D702E8B
:100EF0002073746162696C697A652074696D65201C
:100F00005B735D00592D6F6666736574205B737447
:100F10006570735D00582D6F6666736574205B7332
:100F2000746570735D00504944206D61782076616E
:100F30006C7565205B302D3235355D00504944209D
:100F4000442D6761696E0050494420492D676169ED
:100F50006E0050494420502D6761696E2F646561B1
:100F6000642D74696D65005049442064726976652A
:100F7000206D696E00504944206472697665206D69
:100F800061780068656174206D616E6167657220CB
:100F90005B302D335D00616363656C6572617469FC
:100FA0006F6E205B6D6D2F735E325D0073746172C6
:100FB00074206665656472617465205B6D6D2F7366
:100FC0005D006D61782E20666565647261746520D0
:100FD0005B6D6D2F735D0073746570732070657247
:100FE000206D6D0042656420504944206D61782079
:100FF00076616C7565205B302D3235355D0042655C
:10100000642050494420442D6761696E0042656444
:101010002050494420492D6761696E004265642073
:1010200050494420502D6761696E0042656420502C
:101030004944206472697665206D696E004265647A
:1010400020504944206472697665206D61780042C1
:1010500065642048656174204D616E61676572202A
:101060005B302D335D00436F72722E2064696167BF
:101070006F6E616C2043205B6D6D5D00436F72721B
:101080002E20646961676F6E616C2042205B6D6D1C
:101090005D00436F72722E20646961676F6E616CD0
:1010A0002041205B6D6D5D004D6178207072696E2E
:1010B0007461626C6520726164697573205B6D6D2B
:1010C0005D00546F776572205A20656E6473746F8B
:1010D00070206F6666736574205B73746570735DF2
:1010E00000546F776572205920656E6473746F7059
:1010F000206F6666736574205B73746570735D0042
:10110000546F776572205820656E6473746F702019
:101110006F6666736574205B73746570735D0053EE
:1011200065676D656E74732F7320666F72207472BD
:101130006176656C005365676D656E74732F7320FF
:10114000666F72207072696E74696E6700486F72A4
:10115000697A6F6E74616C20726F64207261646969
:10116000757320617420302C30205B6D6D5D004400
:101170006961676F6E616C20726F64206C656E6769
:101180007468205B6D6D5D00486F6D696E672066E9
:1011900065656472617465205B6D6D2F735D004DD4
:1011A00061782E206665656472617465205B6D6D83
:1011B0002F735D00537465707320706572206D6DC0
:1011C0000054726176656C20616363656C65726161
:1011D00074696F6E205B6D6D2F735E325D004163CD
:1011E00063656C65726174696F6E205B6D6D2F73E2
:1011F0005E325D004D61782E206A65726B205B6DFA
:101200006D2F735D005A206D6178206C656E677478
:1012100068205B6D6D5D0059206D6178206C656E96
:10122000677468205B6D6D5D0058206D6178206C7F
:10123000656E677468205B6D6D5D005A20686F6D28
:101240006520706F73205B6D6D5D005920686F6D58
:101250006520706F73205B6D6D5D005820686F6D49
:101260006520706F73205B6D6D5D0053746F70202F
:101270007374657070657220616674657220696E42
:101280006163746976697479205B6D732C303D6F8E
:1012900066665D004D61782E20696E6163746976C3
:1012A000652074696D65205B6D732C303D6F6666DB
:1012B0005D005072696E7465722061637469766551
:1012C000205B735D0046696C616D656E74207072A1
:1012D000696E746564205B6D5D00416476616E6368
:1012E000656420557365720042617564726174654E
:1012F000004550523A3320004550523A32200045C2
:1013000050523A3120004550523A30200050726F0E
:10131000746F636F6C2076657273696F6E2063689B
:10132000616E6765642C20757067726164696E67B1
:1013300000436F6E66696775726174696F6E2072C3
:101340006573657420746F2064656661756C747371
:101350002E00436F6E66696775726174696F6E20E7
:101360006C6F616465642066726F6D2045455052F4
:101370004F4D2E00436F6E66696775726174696FB9
:101380006E2073746F72656420746F2045455052EF
:101390004F4D2E004175746F6C6576656C206163EE
:1013A000746976652028312F3029005A2D70726FAC
:1013B0006265205933005A2D70726F626520583370
:1013C000005A2D70726F6265205932005A2D70726A
:1013D0006F6265205832005A2D70726F6265205915
:1013E00031005A2D70726F6265205831005A2D708D
:1013F000726F626520782D792D7370656564205B4E
:101400006D6D2F735D005A2D70726F626520737061
:10141000656564205B6D6D2F735D005A2D70726F72
:101420006265206F66667365742079205B6D6D5D03
:10143000005A2D70726F6265206F66667365742046
:1014400078205B6D6D5D004D61782E207A2D707275
:101450006F6265202D2062656420646973742E209C
:101460005B6D6D5D005A2D70726F626520686569F5
:10147000676874205B6D6D5D007761697400507200
:10148000696E746572206865696768743A005A2DE0
:1014900070726F6265206661696C65640054726188
:1014A0006E73666F726D6174696F6E206D617472B8
:1014B00069783A004175746F6C6576656C696E6722
:1014C0002064697361626C6564004175746F6C655A
:1014D00076656C696E6720656E61626C656400415B
:1014E00075746F6C6576656C206D617472697820B7
:1014F000726573657400004732382F6E47315A3277
:10150000352F6E005A2D70726F626520737461748E
:10151000653A005265736574205A2068656967688A
:1015200074005A2D70726F62652061766572616712
:1015300065206865696768743A0020537465702097
:10154000566172696174696F6E2066726F6D2050AA
:10155000726F626520746F206265642044697374E1
:10156000616E63653A005A2D70726F62653A005081
:1015700072696E7465722073657420696E746F2071
:101580006472792072756E206D6F646520756E745B
:10159000696C207265737461727421003A20776FF0
:1015A000726B696E67003A2074656D702073656EAA
:1015B000736F722064656665637400657874727514
:1015C000646572200068656174656420626564000A
:1015D0004D54454D503A00504944204175746F7444
:1015E000756E652066696E69736865642021205098
:1015F0006C61636520746865204B702C204B6920FA
:10160000616E64204B6420636F6E7374616E7473DB
:1016100020696E2074686520436F6E666967757215
:101620006174696F6E2E68206F7220454550524F6D
:101630004D00504944204175746F74756E65206685
:1016400061696C6564212074696D656F7574005003
:101650004944204175746F74756E65206661696CCC
:101660006564212054656D706572617475726520C2
:10167000746F206869676800204B643A2000204B33
:10168000693A2000204B703A200020436C6173734C
:10169000696320504944002054753A2000204B755E
:1016A0003A2000206D61783A2000206D696E3A2062
:1016B0000020643A200020626961733A200050499A
:1016C00044204175746F74756E6520737461727413
:1016D000005461726765744265643A0054617267D0
:1016E000657445787472004E6F206D6F7665206961
:1016F0006E2064656C7461207365676D656E74201F
:1017000077697468203E2031207365676D656E745B
:101710002E20546869732073686F756C64206E6541
:101720007665722068617070656E20616E64206DF0
:10173000617920636175736520612070726F626CDE
:10174000656D210044656C74612052616469757334
:1017500020432830293A0044656C7461205261644A
:1017600069757320422830293A0044656C74612001
:1017700052616469757320412830293A00416C70C8
:1017800068612043283930293A00416C7068612033
:101790004228333330293A00416C70686120412877
:1017A000323130293A00546F77657220333A005451
:1017B0006F77657220323A00546F77657220313A44
:1017C00000496E76616C69642064656C74612063A5
:1017D0006F6F7264696E617465202D206D6F766520
:1017E0002069676E6F726564006C696E6561722056
:1017F0004C3A00454550524F4D20757064617465F8
:1018000064002C2073706565643D00206C696E6512
:1018100061722073746570733A004A65726B3A00A6
:101820007A5F6D61783A00795F6D61783A00785F30
:101830006D61783A004C2000482000206973200038
:1018400020746F2000536574206F75747075743A3E
:1018500020004D53312C4D53322050696E7300459A
:10186000313A0045303A005A3A00593A0020002CEB
:1018700000206D696E0020686F757273200020640F
:1018800061797320006D20005072696E74696E6713
:101890002074696D653A005072696E7465642066E3
:1018A000696C616D656E743A0046616E7370656552
:1018B000643A00482E205261646975733A00466CA0
:1018C0006F774D756C7469706C793A00537065650B
:1018D000644D756C7469706C793A00202F002F008C
:1018E0003A0020524157002042403A0020403A003E
:1018F00020423A00543A0020453A00205A3A00204B
:10190000593A0020583A00583A004672656520520C
:10191000414D3A00556E6B6E6F776E20636F6D6D43
:10192000616E643A00536F66747761726520526528
:10193000736574005761746368646F6720526573E0
:1019400065740042726F776E206F757420526573F4
:1019500065740045787465726E616C2052657365BC
:101960007400506F77657255700073746172740003
:10197000424C4B2000736B6970200020676F74200D
:10198000004572726F723A657870656374656420A1
:101990006C696E6520005344207265616420657235
:1019A000726F7200205200204A002049002050002F
:1019B000205300204600204500205A0020590020D6
:1019C0005800446F6E65207072696E74696E67208E
:1019D00066696C6500466F726D6174206572726F26
:1019E000720057726F6E6720636865636B73756D05
:1019F000004563686F3A00526573656E643A00573C
:101A000061726E696E673A00496E666F3A004572A0
:101A1000726F723A00494E46004E414E006F6B00A5
:101A20004649524D574152455F4E414D453A5265E8
:101A30007065746965725F302E39322E32204649E6
:101A4000524D574152455F444154453A3230313747
:101A500030333230204D414348494E455F54595050
:101A6000453A526F73746F636B204D415820763343
:101A70002000206465672E204300206D656173752A
:101A800072656420004572726F723A436F756C64C0
:101A9000206E6F7420686F6C642074656D70657261
:101AA00061747572652000206D7300206166746535
:101AB0007220004572726F723A54656D702E2072FA
:101AC000616973656420746F20736C6F772E205288
:101AD000697365203D20004739310A4731452D3172
:101AE000383046363030300A473930004D313137E2
:101AF00020457874727564657220300A54300A4D3E
:101B000038342050340A4739310A473145313732A9
:101B100046363030300A47314535463530300A4791
:101B20003930001C151C140000002243141F1F37FD
:101B30001FE31E731E231E0000000000009B1D8F6C
:101B40001C3F1CC31B471B0400081D900058091CA8
:101B500001B007A801C80634023006C002C0054C17
:101B6000036805D80318056404D004F00498047CC5
:101B700005600408063004940600042007D003AC76
:101B800007A80338088003C408580350093003DC51
:101B9000090803680AD802F40AB002800B88020C14
:101BA0000C6002980C3002240DF801B00DC0013C0D
:101BB0000E8001C80E3001540FB800B40F2800E0A9
:101BC0000F00000400401D900060091C01B007A830
:101BD00001D00634023806C002C8054C036805D897
:101BE0000318056404D804F00498047C0560040814
:101BF000063004940600042007D003AC07A803387D
:101C0000088003C408580350093003DC090803683E
:101C10000AE002F40AB802800B88020C0C600298F9
:101C20000C3002240DF801B00DC0013C0E8001C83B
:101C30000E3001540FB800B40F2800E00F0000046C
:101C4000000016D800C006AC0178058002C004541C
:101C50000348042804E803FC049803D0055003A4B7
:101C60000618037807D8024C08A80220097002F46D
:101C7000093802C80A08029C0BD001700C9001447C
:101C80000D5001180EF800EC0E8800C00F00000483
:101C900000681D4C00500B94005809DC00500824CB
:101CA00001A8076C012807B401C006FC01700644B6
:101CB0000228068C02F005D402B8051C03880564CE
:101CC000035805AC033005F40310053C04E8048414
:101CD00004C804CC04A804140590045C057004A492
:101CE000055804EC053804340620047C060804C4B6
:101CF00006F0030C07D8035407C8039C07B003E49D
:101D00000798032C08800374087003BC0858030468
:101D10000948034C09300394091803DC090803241B
:101D20000AF0026C0AE002B40AC802FC0AB00244DB
:101D30000BA0028C0B8802D40B70021C0C5802649E
:101D40000C4002AC0C2802F40C10023C0DF0018493
:101D50000DD801CC0DB801140E98015C0E7001A4D1
:101D60000E4801EC0E1801340FD8007C0F8800C417
:101D70000F0800FC0F000000000000000000000041
:101D80000000000000000000000000000000000053
:101D900000000000000000000000000000401F459F
:101DA0000060094F0010095C00C0086B0070087DDE
:101DB0000020089200D007AC008007CC003007DE7E
:101DC00000E006230190065E014006A601F005FF33
:101DD00001A0056D025005F30200059603B0045AF8
:101DE000046004400510044806C0036E077003A891
:101DF000082003EB09D002230B8002410C3002398A
:101E00000DE001040E9001A20E4001170FF00069D1
:101E10000FA000A20F5000C60F0000DD0FB0FFEBB7
:101E20000F60FF0400700DD8004804AC0158038017
:101E300002D8025403800228043802FC040002D0B5
:101E400005C801A4069801780770014C08480120D4
:101E5000091801F409F000C80AC8009C0BA0007022
:101E60000C7000440D3800180E0000EC0EA8FFC0E6
:101E70000FE8FE0400001B540060096400100974A0
:101E800000C008840070089C002008B800D007D863
:101E9000008007000130072C01E00668019006ACC5
:101EA0000140060002F0056802A005E0025005743A
:101EB0000300052404B004F0046004DC051004E40D
:101EC00006C0030408700330092003780B80026009
:101ED0000DE001A80E4001680FA000C00F0000E84F
:101EE0000F60FF0400801AD8009808AC012007801A
:101EF0000250065403C80528045805FC040005D008
:101F000005B004A4066804780728044C08E80320F8
:101F100009B003F4097003C80A38039C0BF8027077
:101F20000CB002440D6802180E0802EC0E8801C0C5
:101F30000F8800F00F00000000A00F5C006009692E
:101F40000010097900C0088C007008A2002008BDAC
:101F500000D007DE008007050130073401E0066D80
:101F6000019006B20140060702F0056D02A005E8E7
:101F70000250057B0300052B04B004F8046004EB59
:101F800006C003350920037F0B8002650DE001B018
:101F90000E40011D0FF000480FC8006C0FA000EDAF
:101FA0000F60FFFE0F48FE00025344206572726FFF
:101FB00072206669786564005344206572726F729E
:101FC00020646964206E6F74207265636F76657239
:101FD000210053442052656164204572726F720083
:101FE00000000000000000000000000000000000F1
:101FF00024F403D950C38EB1C2A23D96828B3582A0
:10200000127AE372816CCB66A861015DC758EB540C
:102010006151204E1E4B5648C14559431A41013F5C
:10202000093D2F3B7139CD374036C9346533143201
:10203000D430A32F802E6B2D632C672B752A8E290D
:10204000B028DC2710274B268F25D9242B24822368
:10205000E0224322AC211A218D200420801F001F82
:10206000841E0C1E971D261DB81C4E1CE61B821BD1
:10207000201BC11A641A0A1AB2195D190A19B91873
:102080006A181C18D11788174017FA16B516731658
:102090003116F115B31576153A150015C7148F14BE
:1020A00058142214EE13BA13881356132513F6127C
:1020B000C71299126C1240121512EB11C11198112E
:1020C000701148112111FB10D610B1108D1069103C
:1020D000461024100210E10FC00FA00F800F610FF7
:1020E000420F230F060FE80ECB0EAF0E930E770EA6
:1020F0005C0E410E270E0D0EF30DDA0DC10DA80D6D
:10210000900D780D600D490D320D1B0D050DEF0C76
:10211000D90CC30CAE0C990C850C700C5C0C480CE3
:10212000350C210C0E0CFB0BE80BD60BC40BB20BC1
:10213000A00B8E0B7D0B6B0B5A0B4A0B390B290B2B
:10214000180B080BF80AE90AD90ACA0ABB0AAC0A32
:102150009D0A8E0A800A710A630A550A470A390ADB
:102160002C0A1E0A110A040AF709EA09DD09D00936
:10217000C409B709AB099F09920987097B096F094F
:10218000630958094C09410936092B092009150929
:102190000A090009F508EB08E008D608CC08C208CF
:1021A000B808AE08A4089A08900887087D08740843
:1021B0006B08610858084F0846083D0834082C0889
:1021C00023081A08120809080108F807F007E807A9
:1021D000E007D807D007C807C007B807B007A807A7
:1021E000A1070000420FA1071605D0030D038B02C3
:1021F0002E02E801B2018601630145012C0117019D
:102200000401F400526F73746F636B4D4158205298
:102210006561647900526F73746F636B4D41582030
:10222000526561647900526F73746F636B4D4158EE
:1022300020526561647900207A3A0020793A0020C2
:10224000783A00696E20717565756544656C7461D6
:102250004D6F766520746F2063616C63756C61747B
:102260006544656C74615375625365676D656E7422
:10227000732072657475726E73206572726F722E40
:1022800000432068697420666C6F6F720043706F42
:1022900073207820737175617265200043706F73CD
:1022A0002078207374657073200043706F732079F9
:1022B00020737175617265200043706F73207920FF
:1022C00073746570732000422068697420666C6FB7
:1022D0006F720042706F7320782073717561726540
:1022E000200042706F732078207374657073200033
:1022F00042706F732079207371756172652000429E
:10230000706F7320792073746570732000412068AA
:10231000697420666C6F6F720041706F7320782053
:10232000737175617265200041706F73207820733E
:1023300074657073200041706F732079207371751C
:10234000617265200041706F73207920737465702D
:102350007320006D6F766552656C617469766544B3
:10236000697374616E6365496E5374657073202F71
:1023700020717565756544656C74614D6F76652077
:1023800072657475726E73206572726F72004D6142
:102390007854656D703A004469616D657465723A90
:1023A00000416363656C65726174696F6E3A004DDC
:1023B000617853706565643A004A65726B3A004D06
:1023C000617842656454656D703A005072696E744C
:1023D0006572547970653A44656C7461005A547240
:1023E0006176656C416363656C3A0059547261763D
:1023F000656C416363656C3A005854726176656C34
:10240000416363656C3A005A5072696E744163634C
:10241000656C3A00595072696E74416363656C3A39
:1024200000585072696E74416363656C3A005A5388
:10243000697A653A005953697A653A005853697A5E
:10244000653A005A4D61783A00594D61783A005822
:102450004D61783A005A4D696E3A00594D696E3AAD
:1024600000584D696E3A004A65726B58593A0050EF
:1024700072696E746C696E6543616368653A0045A4
:102480004550524F4D3A004175746F6C6576656CDE
:102490003A005A50726F62653A00436173654C6945
:1024A000676874733A00537570706F72744C6F6321
:1024B000616C46696C616D656E746368616E6765B9
:1024C0003A00537570706F72744731304731313A4A
:1024D000005A486F6D654469723A0059486F6D65DE
:1024E0004469723A0058486F6D654469723A005306
:1024F0006F667477617265506F7765725377697430
:1025000063683A004C43443A0046616E3A005344D3
:10251000436172643A004865617465644265643A77
:10252000004D6978696E6745787472756465723AB2
:10253000004E756D45787472756465723A00496E27
:102540007075744275666665723A004261756472B0
:102550006174653A004E6F2063617365206C696732
:10256000687473004D31313420007A70726F626983
:102570006E672E2E2E0064656C6179203130306DCF
:10258000732E00686F6D65417869732000686F6D08
:102590006541786973202F20717565756544656C98
:1025A00074614D6F76652072657475726E73206507
:1025B00072726F7200486F6D652044656C746100C3
:1025C0005072696E7465723A3A7365747570200062
:1025D0006D6F7665546F5265616C202F2071756543
:1025E000756544656C74614D6F76652072657475B0
:1025F000726E73206572726F72006D6F7665546FC4
:10260000202F20717565756544656C74614D6F761A
:10261000652072657475726E73206572726F7200D8
:10262000537465707065722044697361626C65648F
:10263000004B696C6C6564006973506F73697469F1
:102640006F6E416C6C6F776564200055706C6F61C4
:1026500064696E672E2E2E00005344207072696EDE
:10266000742073746F70706564206279207573656F
:10267000722E004739312F6E4731205A2D31302EBE
:10268000302045352E312046313530302F6E4739D8
:10269000302F6E004739312F6E4731205A31302E9E
:1026A0003020452D352E302046313530302F6E47C5
:1026B00039302F6E005344206361726420696E7359
:1026C0006572746564005344204361726420696ECE
:1026D00073657274656400534420436172642072B0
:1026E000656D6F7665640053442063617264207287
:1026F000656D6F76656400000021104220633084B0
:1027000040A550C660E770088129914AA16BB18C41
:10271000C1ADD1CEE1EFF13112100273325222B5C8
:10272000529442F772D662399318837BB35AA3BD91
:10273000D39CC3FFF3DEE36224433420040114E698
:1027400064C774A44485546AA54BB528850995EEE1
:10275000E5CFF5ACC58DD55336722611163006D7A8
:1027600076F6669556B4465BB77AA719973887DF31
:10277000F7FEE79DD7BCC7C448E5588668A77840F0
:1027800008611802282338CCC9EDD98EE9AFF94881
:102790008969990AA92BB9F55AD44AB77A966A7108
:1027A0001A500A333A122AFDDBDCCBBFFB9EEB79D1
:1027B0009B588B3BBB1AABA66C877CE44CC55C2258
:1027C0002C033C600C411CAEED8FFDECCDCDDD2A21
:1027D000AD0BBD688D499D977EB66ED55EF44E13E8
:1027E0003E322E511E700E9FFFBEEFDDDFFCCF1B71
:1027F000BF3AAF599F788F8891A981CAB1EBA10CDC
:10280000D12DC14EF16FE18010A100C230E3200450
:1028100050254046706760B9839893FBA3DAB33DB7
:10282000C31CD37FE35EF3B1029012F322D23235A0
:1028300042145277625672EAB5CBA5A89589856E87
:10284000F54FE52CD50DC5E234C324A014810466F0
:1028500074476424540544DBA7FAB79987B8975F97
:10286000E77EF71DC73CD7D326F2369106B0165740
:10287000667676154634564CD96DC90EF92FE9C8DF
:1028800099E9898AB9ABA94458654806782768C090
:1028900018E1088238A3287DCB5CDB3FEB1EFBF9F7
:1028A0008BD89BBBAB9ABB754A545A376A167AF1E0
:1028B0000AD01AB32A923A2EFD0FED6CDD4DCDAA47
:1028C000BD8BADE89DC98D267C076C645C454CA230
:1028D0003C832CE01CC10C1FEF3EFF5DCF7CDF9BD7
:1028E000AFBABFD98FF89F176E367E554E745E9380
:1028F0002EB23ED10EF01E7C3C3E5E2B3D3F2F5B48
:102900005D3B2C2A225C00526571756573745061C1
:102910007573653A004D31313720494E5345525455
:102920002053442043415244004D31313720534419
:102930002043415244204552524F520055495F4175
:102940004354494F4E5F5345545F4D454153555293
:1029500045445F4F524947494E20004E6F20534433
:1029600020436172640053687574204F666620418D
:102970004C4C2048656174730050726568656174E1
:1029800020414253005072656865617420504C418B
:102990000055495F414354494F4E5F484F4D455F95
:1029A0005A200055495F414354494F4E5F484F4DAF
:1029B000455F59200055495F414354494F4E5F4898
:1029C0004F4D455F58200055495F414354494F4E94
:1029D0005F484F4D45414C4C200055495F414354A1
:1029E000494F4E5F5A504F534954494F4E5F4641ED
:1029F00053545F4E4F54455354200055495F414353
:102A000054494F4E5F5A504F534954494F4E5F4EB1
:102A10004F54455354200055495F414354494F4E4C
:102A20005F45504F534954494F4E200055495F412F
:102A30004354494F4E5F5A504F534954494F4E5F8C
:102A400046415354200055495F414354494F4E5F1E
:102A500059504F534954494F4E5F464153542000FB
:102A600055495F414354494F4E5F58504F53495465
:102A7000494F4E5F46415354200055495F414354EE
:102A8000494F4E5F5A504F534954494F4E200055BD
:102A9000495F414354494F4E5F59504F5349544940
:102AA0004F4E200055495F414354494F4E5F5850A7
:102AB0004F534954494F4E200042616E6742616E48
:102AC0006700536C6F7742616E67004465616420F4
:102AD00054696D650050494400003A0020646179F2
:102AE00073200050657263656E74205072696E7455
:102AF00065643A002064656620004657204461748E
:102B00006520323031373033323000526F73746F9A
:102B1000636B4D41587633005365654D65434E43B5
:102B200000526F73746F636B204D415820763300F1
:102B3000B1376737FA369D36416374696F6E3A254F
:102B40006C6100040003004E6F00596573004E2F46
:102B500041004F6666004F6E000000003FCDCC4C38
:102B60003D0AD7A33B6F12033A52657065746965DD
:102B700072207620302E39322E32000040145480DC
:102B800025000040380000004B000080700000006D
:102B9000960000C0DA000000E10000002C010008EF
:102BA000B2010000C2010000F401000084030090A3
:102BB000D0030000E803000008070020A107000080
:102BC000100E0040420F0060E316000000000011EC
:102BD0000A0411040A1111001C1F11111F00000426
:102BE0000A0A0A0E1F1F0E001F1111111F000000FC
:102BF0001F1F1F1F1F0000040A0400000000000424
:102C00000E15041C00000002000006000E2C2434E7
:102C1000742CF530472C4831B62C020000070021F7
:102C20002C24342F2CF530472C483180305B2C3647
:102C30002C02F63100005072696E74657220536583
:102C40007474696E6773004E2C02C83200004164D0
:102C50006A7573742054656D707300622C028C2C3D
:102C60000000416476616E63656420536574746925
:102C70006E6773007B2C020D3200005072696E7417
:102C800065722053657474696E67730002000009F1
:102C900000932C2434A12D8D2D7D2D6D2DA52C562A
:102CA0002D3E2DB62CAC2C022330000044656275FD
:102CB0006767696E6700BD2C020533000043616CD5
:102CC0006962726174696F6E204D656E75000310E4
:102CD000270200D52CE02CD92CE72C0000000000A6
:102CE000F82C00000000006C6F6164656420662EA3
:102CF00020454550524F4D00436F6E6669677572AF
:102D00006174696F6E0003102702000D2D182D11DC
:102D10002D1F2D0000000000302D0000000000736A
:102D2000746F72656420696E20454550524F4D00A6
:102D3000436F6E66696775726174696F6E00452DC9
:102D400003070400004C6F61642066726F6D2045BC
:102D50004550524F4D005D2D030604000053746F23
:102D6000726520746F20454550524F4D00742D02FE
:102D7000B02D0000457874727564657200842D0270
:102D8000B72F0000466565647261746500942D027A
:102D9000E32F0000416363656C65726174696F6E57
:102DA00000A82D02032F000047656E6572616C005C
:102DB0000200001000B72D2434EF2EDB2EC92EB8F0
:102DC0002EA32E742E8C2E5D2E4A2E362E252E14DA
:102DD0002EFF2DEA2DD72DDE2D042F0400005049A3
:102DE00044204D61783A25584400F12D0426040012
:102DF000004472697665204D61783A25584D000689
:102E00002E04250400004472697665204D696E3AEF
:102E100025586D001B2E0424040000504944204412
:102E20003A255864002C2E04230400005049442005
:102E3000493A255869003D2E042204000044542FCD
:102E400050494420503A25587000512E042D04005A
:102E500000436F6E74726F6C3A25586800642E04DC
:102E600046040000416476616E6365206C696E3AC9
:102E700025586C007B2E044D0400005761697420B6
:102E8000556E6974733A2558556D6D00932E044C38
:102E9000040000576169742054656D702E255854E4
:102EA000024300AA2E042E040000537461622E54C3
:102EB000696D653A25587700BF2E042A0400004149
:102EC0006363656C3A25584100D02E042B04000042
:102ED0004D61782046523A25584600E22E042C04D3
:102EE000000053746172742046523A25586600F609
:102EF0002E042904000053746570732F4D4D3A253C
:102F000053650002000004000A2F24343F2F272FAE
:102F1000122F192F02532F00004D61782E20496E79
:102F2000616374697665002E2F02852F000053744B
:102F3000657070657220496E6163746976650046DC
:102F40002F041004000042617564726174653A25B3
:102F50006F630003580402005A2F652F5E2F6C2FF9
:102F60000000000000762F00000000005B735D2071
:102F7000303D4F6666004469732E20416674657269
:102F80003A2569700003200402008C2F972F902FA0
:102F90009E2F0000000000A82F00000000005B73BF
:102FA0005D20303D4F6666004469732E2041667493
:102FB00065723A256973000200000300BE2F2434B5
:102FC000D42FC42FCB2F0413040000486F6D653A33
:102FD00025665A00DB2F04160400004D61783A255F
:102FE000667A000200000400EA2F24341230023016
:102FF000F22FF92F040E0400004A65726B3A256126
:103000006A000930040D0400004D6F76653A2561B1
:103010005A001930040A0400005072696E743A258F
:10302000617A0002000005002A3024346D305A30E5
:10303000473034303B30033504000044727920724D
:10304000756E3A256464004E300334040000457206
:10305000726F7273203A2564650061300333040097
:1030600000496E666F2020203A25646900743003A1
:10307000320400004563686F2020203A25646F0009
:103080008730029430000053442043617264204D25
:10309000656E750002000006009B302434F530E2B6
:1030A00030CC30BA30A730AE3003F40301024465AF
:1030B0006C6574652066696C6500C130021431026C
:1030C0000053746F70205072696E7400D33003F730
:1030D000030400436F6E74696E7565205072696EEB
:1030E0007400E93003F603020450617573652050E3
:1030F00072696E7400FC3003F503010253656C6560
:1031000063742053442046696C650001000001008F
:103110001231243402000003001B3136312C3121DE
:10312000312831035424020059657300333103E818
:103130000300004E6F003D31010000000053746F2A
:1031400070205072696E74004F310260310000418E
:10315000646A7573742046616E20737065656400DF
:10316000020000070067312434DE31CA31B531A0D6
:10317000318B3175317C31031E040000536574209E
:1031800046616E20313030252525009231031D0423
:1031900000005365742046616E20373525252500D3
:1031A000A731031C0400005365742046616E20356E
:1031B0003025252500BC31031B0400005365742015
:1031C00046616E20323525252500D131031A0408C9
:1031D000005475726E2046616E204F666600E531C0
:1031E000045204000046616E2073706565643A25E0
:1031F0004673252525000200000900FD31243457BF
:10320000323E32B532A232883210347032020000BF
:1032100009001432243457323E32B532A232883299
:103220001034263270322D3203B20F0000556E6C0E
:103230006F636B2046756C6C204D656E7500453272
:103240000448040000466C6F772020526174653A90
:10325000256F66252525005E32041F04000053708B
:1032600065656420526174653A256F6D25252500DA
:103270007732034204001044697361626C65205325
:1032800074657070657273008F32033804000053E8
:10329000687574204F666620414C4C204865617407
:1032A0007300A932034704000050726568656174B9
:1032B0002041425300BC320337040000507265685D
:1032C00065617420504C41000200000400CF32249C
:1032D00034ED32D532DC32043C0400004245442057
:1032E00054656D703A2020254562024300F4320493
:1032F0003D0400004E4F5A2054656D703A20202541
:10330000453002430002000006000C3324344233EF
:1033100018331034DA332E331F33042104000048ED
:103320002E20526164697573203A256F6800353329
:1033300003AC0F0000536574205A204F726967690F
:103340006E004933025A33000046756C6C204361AD
:103350006C6962726174696F6E0002000004006142
:10336000332434973382336933703303B10F000051
:10337000426567696E2043616C6962726174696F4E
:103380006E00893303B50F00004245442041524589
:1033900020434C45414E009E3303B40F00004D4185
:1033A0004B452053555245204E4F5A5A4C452026E6
:1033B000000200000600B83324341034FE33EC332E
:1033C000DA33C433CB33023D340000457874722EB7
:1033D00020706F736974696F6E00E133029E35006F
:1033E000005A20506F736974696F6E00F33302F3F3
:1033F0003500005920506F736974696F6E00053491
:1034000002483600005820506F736974696F6E006F
:10341000173403FD030000486F6D65205072696E1C
:10342000746572002B3403E80300005072657669FE
:103430006F75732053637265656E20010003F0039E
:103440000400443461345A3453344C34683400003A
:103450000000007634000000000087340000000007
:103460000096340000000000255566206D20707223
:10347000696E7465640020453A2565632F254563B0
:1034800002437E256F43003120636C69636B203DEE
:103490002031206D6D00453A257833206D6D000395
:1034A000FC030400A634C334BC34B534AE34CA348F
:1034B0000000000000CB340000000000DB340000FE
:1034C000000000EB340000000000004D6178206532
:1034D0006E6473746F703A25735A004D696E20657F
:1034E0006E6473746F703A25737A005A3A25783295
:1034F000206D6D0003FB030400FB34183511350A01
:103500003503351F350000000000203500000000A5
:1035100000303500000000004035000000000000D1
:103520004D617820656E6473746F703A257359002D
:103530004D696E20656E6473746F703A25737900FF
:10354000593A257831206D6D0003FA030400503597
:103550006D3566355F3558357435000000000075EF
:1035600035000000000085350000000000953500A2
:1035700000000000004D617820656E6473746F7008
:103580003A257358004D696E20656E6473746F70D0
:103590003A25737800583A257830206D6D0003EF96
:1035A000030400A535C235BB35B435AD35C935008A
:1035B00000000000CA350000000000DA35000000FD
:1035C0000000EA350000000000004D617820656EC3
:1035D0006473746F703A25735A004D696E20656E7E
:1035E0006473746F703A25737A005A3A25783220E2
:1035F0006D6D0003EE030400FA35173610360936F8
:1036000002361E3600000000001F360000000000D9
:103610002F3600000000003F360000000000004D83
:10362000617820656E6473746F703A257359004D2C
:10363000696E20656E6473746F703A2573790059F2
:103640003A257831206D6D0003ED0304004F366C90
:103650003665365E36573673360000000000743625
:1036600000000000008436000000000094360000D6
:10367000000000004D617820656E6473746F703ACD
:10368000257358004D696E20656E6473746F703ACF
:1036900025737800583A257830206D6D00000000C1
:1036A0000400A436C136BA36B336AC36C83600008C
:1036B000000000CE360000000000E23600000000EE
:1036C00000E6360000000000255566206D00546FAE
:1036D00074616C2046696C616D656E74205573650C
:1036E000640025557400546F74616C205072696ECB
:1036F00074696E672054696D650000000004000164
:10370000371E3717371037093725370000000000FC
:10371000343700000000004237000000000054373A
:103720000000000000526F73746F636B204D4158AE
:10373000207633005072696E746572204D6F646537
:103740006C00465720446174653A2032303137307E
:103750003332300046572056657273696F6E3A20D7
:10376000302E39322E320000000004006E378B37C5
:1037700084377D3776379237000000000096370097
:10378000000000009F370000000000A83700000084
:103790000000256F73005A3A257832206D6D00596C
:1037A0003A257831206D6D00583A257830206D6DBE
:1037B000000000000400B837D537CE37C737C03710
:1037C000DC370000000000E0370000000000F9379F
:1037D00000000000000C380000000000256F73009E
:1037E00053706565643A256F6D25252520466C6FFD
:1037F000773A256F66252525004245443A256562BE
:10380000205461726765743A254562004E4F5A3AFA
:10381000256563205461726765743A25456300002D
:1038200000000000000000000000FF000001000098
:10383000000A0B02090C0D0E08070304010000002A
:103840000000000000000000000000000000000078
:103850000000000000000000000000121110000035
:103860000000000000000000000000000000000058
:103870000000000000010210202008081020401065
:103880002040800201020108040201010204081024
:103890002040808040201008040201800402018042
:1038A000402010080402010804020101020408106B
:1038B000204080010204081020408005050505070E
:1038C0000508080808020202020A0A08080404049B
:1038D00004010101010101010103030303030303C7
:1038E00003040707070C0C0C0C0C0C0C0C02020256
:1038F0000206060606060606060B0B0B0B0B0B0B49
:103900000B000020002300260029002C002F00328D
:10391000000001000003010601090100002200254A
:103920000028002B002E00310034000201000005A9
:103930000108010B0100002100240027002A002DAE
:10394000003000330001010000040107010A0102F8
:103950004E414E494E495459494E46CDCCCC3D0A74
:10396000D7233C17B7D13877CC2B329595E6241F57
:10397000B14F0A000020410000C84200401C462010
:10398000BCBE4CCA1B0E5AAEC59D7400617AC7B44A
:10399000B1C0860111241FBECFEFD1E2DEBFCDBF83
:1039A00000E00CBF13E0A0E0B2E0E4EAF6E202E0DF
:1039B0000BBF02C007900D92A039B107D9F72EE1D5
:1039C000A0E9B3E001C01D92A938B207E1F719E3FD
:1039D000C4E9D9E300E006C022970109FE010BBF4C
:1039E0000F94CB0ECC38D10780E00807A9F70F94CD
:1039F0008C060D9450130C940000CF93DF9300D0ED
:103A00001F92CDB7DEB744E050E0BC01CE01019675
:103A10000F940C1369817A818B819C810F900F9098
:103A20000F900F90DF91CF91089522E090E028173A
:103A300028F4963019F0220F9F5FF9CF209A289A28
:103A4000219A229A2398809164008B7F809364004E
:103A5000892F806A86958CBD90FD03C081E09630E9
:103A600009F480E08DBD08958091F90283FB8827D9
:103A700080F90895179A0895169A0895159A089549
:103A800088E493E0BACFCF92DF92EF92FF92CF9388
:103A9000DF9300D01F921F92CDB7DEB76B017C0180
:103AA0006093911870939218809393189093941840
:103AB0000E94039DC982DA82EB82FC8244E050E0DE
:103AC00065E773E0CE0101960F942E1323E0B70152
:103AD000A60188E795E00E94FD4E0E949B52682F48
:103AE00088E690E06D830F941C136D81681721F0B8
:103AF00088E690E00F9437130F900F900F900F907F
:103B00000F90DF91CF91FF90EF90DF90CF900895CD
:103B1000CF93DF931F92CDB7DEB7BC018DE793E063
:103B20000F944A130E949B52682F88E690E06983A5
:103B30000F941C136981681739F088E690E00F90A4
:103B4000DF91CF910D9437130F90DF91CF910895AE
:103B5000CF93DF931F92CDB7DEB7BC018FE793E021
:103B60000F944A130E949B52682F88E690E0698365
:103B70000F941C136981681739F088E690E00F9064
:103B8000DF91CF910D9437130F90DF91CF9108956E
:103B9000CF93DF931F92CDB7DEB7BC0181E893E0EE
:103BA0000F944A130E949B52682F88E690E0698325
:103BB0000F941C136981681739F088E690E00F9024
:103BC000DF91CF910D9437130F90DF91CF9108952E
:103BD000CF93C82F8091A6048823D1F01092A60419
:103BE0000E943A699091DF0291509093DF02911107
:103BF00009C08091E002833010F40E94C76885E01C
:103C00008093DF026C2F83ED9CE1CF910C944DFFEC
:103C1000CF91089580916E06882349F00E94287301
:103C200080E0D6DF83ED9CE10E944CFFF3CF089546
:103C30004F925F926F927F928F929F92AF92BF92BC
:103C4000CF92DF92EF92FF920F931F93CF93DF9368
:103C500000D01F92CDB7DEB78C0180910B199091E7
:103C60000C19A0910D19B0910E1989839A83AB8319
:103C7000BC83C0900F19D0901019E0901119F090EA
:103C800012198090131990901419A0901519B090E2
:103C900016199C01AD01BC01CD010F94FD0D8111E0
:103CA0000FC149805A806B807C80E89477F82FEFB1
:103CB0003FEF4FE75FE7C301B2010F94FD0D8111A4
:103CC0000BC02FEF3FEF4FE75FE7C301B2010F9447
:103CD000AA0A18160CF4F4C0A7019601C701B60190
:103CE0000F94FD0D8111ECC026013701E89477F89F
:103CF0002FEF3FEF4FE75FE7C301B2010F94FD0DD8
:103D000081110BC02FEF3FEF4FE75FE7C301B20117
:103D10000F94AA0A18160CF4D3C0A5019401C5018A
:103D2000B4010F94FD0D8111CBC024013501E8943D
:103D300077F82FEF3FEF4FE75FE7C301B2010F9432
:103D4000FD0D81110BC02FEF3FEF4FE75FE7C30180
:103D5000B2010F94AA0A18160CF4B2C02091E3180D
:103D60003091E4184091E5185091E61869817A8104
:103D70008B819C810F94460A2B013C012091E7180E
:103D80003091E8184091E9185091EA18C701B6013E
:103D90000F94460A6B017C012091EB183091EC18CE
:103DA0004091ED185091EE18C501B4010F94460AE8
:103DB0004B015C0180916B19882329F020E732E4E4
:103DC00041E25DE304C020E030E040E85FE3C3018E
:103DD000B2010F94520DAB01BC0122E087E099E1E2
:103DE0000E943A4F80916B19882329F020E732E432
:103DF00041E25DE304C020E030E040E85FE3C7015A
:103E0000B6010F94520DAB01BC0122E08FEF98E197
:103E10000E943A4F80916B19882329F020E732E401
:103E200041E25DE304C020E030E040E85FE3C5012B
:103E3000B4010F94520DAB01BC0123E08BEF98E16C
:103E40000E943A4F6091231970912419809125198D
:103E5000909126190F947D0B209167193091681964
:103E60004091691950916A190F94520D20916B1964
:103E7000222329F020E732E441E25DE304C020E0A0
:103E800030E040E85FE30F94520DAB01BC0124E049
:103E900087EF98E10F900F900F900F90DF91CF91E7
:103EA0001F910F91FF90EF90DF90CF90BF90AF9058
:103EB0009F908F907F906F905F904F900C94FD4EED
:103EC000C8010E94234D4ACFCF92DF92EF92FF921A
:103ED000CF93DF93EC01893191053CF0C53F81E040
:103EE000D8072CF0C4EFD1E002C0C9E1D0E0BE0198
:103EF000882777FD8095982F0F947D0B6B017C01AF
:103F000060911B1870911C18882777FD8095982F59
:103F10000F947D0B9B01AC01C701B6010F94B10A50
:103F20009B01AC0160911D1870911E1880911F18A3
:103F3000909120180F94520D60931D1870931E18C5
:103F400080931F1890932018D0931C18C0931B18AF
:103F5000BE018CEC98E1DF91CF91FF90EF90DF9064
:103F6000CF900C94E54DCF92DF92EF92FF926B01D0
:103F70007C0120E030E040E752E40F94AA0A87FD7C
:103F800011C020E030E046E153E4C701B6010F94D0
:103F9000DE0C18166CF4C12CD12C86E1E82E83E4DB
:103FA000F82E06C0C12CD12C90E7E92E92E4F92E10
:103FB000C0929118D0929218E0929318F0929418AF
:103FC00022E0B701A60183EB98E1FF90EF90DF902C
:103FD000CF900C94FD4E8F929F92AF92BF92CF9252
:103FE000DF92EF92FF92CF93DF93EC01893191053D
:103FF00034F0893C91052CF0C8ECD0E002C0C9E156
:10400000D0E0D0931A18C0931918E0919003F09162
:104010009103E258FF4FC080D180E280F38020E01E
:1040200030E0A901C701B6010F94AA0AAE016627C4
:1040300057FD6095762F18165CF0CB01BA010F94EE
:104040007D0B2AE037ED43E25CE30F94520D24C070
:10405000CB01BA010F947D0B2AE037ED43E25CE31C
:104060000F94520D20E030E040E850E40F94520DE0
:104070004B015C01A7019601C701B6010F94520DD7
:104080002BED3FE049E450E40F94520D9B01AC014D
:10409000C501B4010F94B10A6093F4027093F50264
:1040A0008093F6029093F702BE018EEB98E1DF91C8
:1040B000CF91FF90EF90DF90CF90BF90AF909F9007
:1040C0008F900C94E54DCF93DF932091DF1897FDEF
:1040D0000DC0EC018F3F910519F014F0CFEFD0E047
:1040E000209721F028602093DF1805C0277F2093B8
:1040F000DF18C0E0D0E061118DDD8091C71790E03E
:10410000C817D90729F0BE0189EA98E10E94E54D58
:10411000C093C717DF91CF9108954F925F926F922E
:104120007F928F929F92AF92BF92CF92DF92EF9247
:10413000FF92CF93DF9300D01F92CDB7DEB72FE66B
:1041400032E143E85AE360910318709104188091BA
:104150000518909106180F94520D6B017C0181E8AF
:1041600090E04BDC9B01AC01C701B6010F94460AFD
:10417000AB01BC0122E087E998E10E943A4F85E853
:1041800098E10E94EA4CE0910A02F0910B0220E0D3
:1041900030E040E751E463857485858596850F940A
:1041A000DE0C18160CF46BC020E030E0A9018DE79E
:1041B00090E029833A834B835C830F9424134B0153
:1041C0005C0129813A814B815C81820E931EA41E81
:1041D000B51EC501B40120E831E541E050E00F947F
:1041E0007E0E60E87EEA8EEF9FEF0F94190E6B0152
:1041F0007C01C80CD91CEA1CFB1CBA01A90188E887
:1042000098E10E940B4EC701B60120E13EE040E07C
:1042100050E00F947E0E49015A01BA01A9018EE7C0
:1042200098E10E940B4EA0EFB1EFA50194010F940D
:10423000C70E6C0D7D1D8E1D9F1D2CE330E040E0F0
:1042400050E00F947E0EBA01A90186E798E10E9422
:104250000B4E81E798E10F900F900F900F90DF9138
:10426000CF91FF90EF90DF90CF90BF90AF909F9055
:104270008F907F906F905F904F900C94024D0F94B1
:104280001D04C0900718D0900818E0900918F0900D
:104290000A186C197D098E099F0928EE33E040E069
:1042A00050E00F945C0E83CF5F988EBD0DB407FE77
:1042B000FDCF6EBD0DB407FEFDCF5F9A0895CF937D
:1042C000DF9300D01F921F92CDB7DEB795E0E7E4F1
:1042D000F3E0DE01119601900D929A95E1F7E1E08D
:1042E000F0E0EC0FFD1FE80FF11D808190E00F90D2
:1042F0000F900F900F900F90DF91CF91D5CFFF923D
:104300000F931F93CF93DF9300D01F921F92CDB7CF
:10431000DEB785E0ECE4F3E0DE01119601900D924A
:104320008A95E1F780E081DB579A8E010F5F1F4F7E
:10433000F12CF80161918F0170E08F2DC0DFF394B3
:10434000F5E0FF12F6CF0F900F900F900F900F90A7
:10435000DF91CF911F910F91FF90089567FD43C0AA
:104360008230E9F028F4882341F0813061F03BC0CD
:10437000833009F1843059F136C0662311F0A19AD7
:1043800067C0A19865C080910801662311F080681C
:1043900001C08F778093080147FF3AC05DC08091CC
:1043A0000801662311F0806401C08F7B80930801AF
:1043B00047FF34C053C080910801662311F0886024
:1043C00001C0877F8093080147FF32C044C08091BD
:1043D0000801662311F0826001C08D7F809308017F
:1043E00047FF2EC03AC047FD39C08230B9F028F4EB
:1043F000882341F0813061F008958330C9F0843022
:10440000F9F00895442311F0A09A0895A098089512
:10441000442311F0A29A0895A2980895809108016A
:10442000442311F0806201C08F7D809308010895BC
:1044300080910801442311F08061F7CF8F7EF5CF82
:1044400080910801442311F08460EFCF8B7FEDCF82
:1044500047FFD8CF089508950895089508956430CA
:1044600079F028F4613041F0623041F0089568300D
:1044700051F0603141F0089540E003C040E004C0D5
:1044800041E060E002C041E061E068CFCF93DF939C
:1044900082E598E10E94024D62B36695617070E01A
:1044A00087E099E10E94D94D62B3617070E08FE6B8
:1044B00098E10E94E54DC6E0D1E08881992787FD0B
:1044C0009095692F661F6627661F70E08AE698E15F
:1044D0000E94D94D62B362FB662760F970E08FE6F7
:1044E00098E10E94E54D688166FB662760F970E0FF
:1044F00087E698E10E94D94D688165FB662760F9DF
:1045000070E08FE698E10E94E54D688163FB6627C5
:1045100060F970E083E698E10E94D94D6881629568
:10452000617070E08FE698E10E94E54D68816695C4
:10453000617070E08FE598E10E94D94D688162FB5F
:10454000662760F970E08FE698E1DF91CF910C94D7
:10455000E54DFF920F931F93CF93DF9300D01F92EF
:104560001F92CDB7DEB785E0E1E5F3E0DE011196FD
:1045700001900D928A95E1F7989A9A9A8091070195
:104580008062809307018091070180618093070119
:10459000809107018460809307018E010F5F1F4F98
:1045A000F12CF80161918F018F2D59DFF394F5E023
:1045B000FF12F7CF0F900F900F900F900F90DF9199
:1045C000CF911F910F91FF9008950C94F9760E945E
:1045D000E47620910802309109028217930724F4AF
:1045E00090930902809308020895609108027091E7
:1045F000090280910602909107026817790744F436
:1046000070930702609306028AE099E10C94E54DED
:104610000895CF93C82F69E170E080E99DE10F9480
:10462000B1016C2F80E99DE10F94520160E080E9B7
:104630009DE10F94B201882329F084EA9CE0CF9198
:104640000C94024DCF910895CF93DF93D82FC62FAE
:1046500069E170E080E99DE10F94B1016D2F80E97F
:104660009DE10F9452016C2F80E99DE10F9452015E
:1046700080E99DE10F94C401882331F085E89CE036
:10468000DF91CF910C94024DDF91CF9108951F934C
:10469000CF93DF93182FBDDF41E050E069E170E078
:1046A00080E99DE10F94A50180E99DE10F94FB0055
:1046B000892BA1F080E99DE10F940301EC01612FAA
:1046C00070E08BE79CE00E94D94DBE01772782E71E
:1046D0009CE0DF91CF911F910C94E54D84E59CE027
:1046E000DF91CF911F910C94024D8FE29CE00E94CC
:1046F000024D80E99DE10F9490018FE0C8DF81E3D6
:10470000C6DF80E2C4DF6CE980E29EDF80E2BFDFCB
:1047100082E2BDDF60E482E297DF82E2B8DF85E219
:10472000B6DF60E085E290DF85E2B1DF83E2AFDFF4
:1047300060E383E289DF83E2AADF84E2A8DF6AE440
:1047400084E282DF84E2A3DF80E3A1DF60E280E332
:104750007BDF80E39CDF81E39ADF82E398DF64E123
:1047600082E372DF82E393DF83E391DF60E083E340
:104770006BDF83E38CDF84E38ADF60E084E364DF64
:1047800084E385DF86E383DF62E386E35DDF86E340
:104790007EDF87E37CDF60E087E356DF87E377DF58
:1047A00088E375DF60E188E34FDF88E370DF89E34A
:1047B0006EDF8AE36CDF62E38AE346DF8AE367CF7A
:1047C00081E365DF85E363DF89E361DF8DE25FCF4E
:1047D0006DE08CE795E00E9498756AE08CE795E0C3
:1047E0000C949875CF93C82FE0919003F0919103AA
:1047F00042A953A964A975A922E084EF98E10E9417
:104800003A4FE0919003F091910346A957A960AD0A
:1048100071AD20E08BED98E10E943A4F0E94CB6091
:10482000AB01BC0122E080EF98E10E943A4F409139
:10483000190250911A0260911B0270911C0220E033
:104840008BED98E10E943A4FCC2391F061E070E04B
:1048500082EE98E10E94D94D6CEF7FE080911102C9
:1048600090911202681B790B80EE98E10E94D94D5D
:10487000E0910E02F0E0EC53F84E608170E087EEBC
:1048800098E10E94D94DE091DE02EF3F29F4E091DA
:104890009003F0919103E081F0E0EC53F84E6081D9
:1048A00070E08CEE98E10E94D94DCF9191CF2F927C
:1048B0003F924F925F926F927F928F929F92AF92B0
:1048C000BF92CF92DF92EF92FF920F931F93CF93FD
:1048D000DF93CDB7DEB729970FB6F894DEBF0FBED2
:1048E000CDBF5C01DC0116968D919C9117978C3899
:1048F000910509F469C608F0DBC08235910509F419
:104900000EC408F07EC08A31910509F4C5C208F0D2
:104910003FC08531910509F43DC278F4823191059B
:1049200009F417C28431910509F418C2419711F0B6
:104930000C94353517981698AFC58731910509F451
:1049400061C208F443C28831910509F489C24997CC
:1049500011F00C94353560E080E799E129960FB6A7
:10496000F894DEBF0FBECDBFDF91CF911F910F91A5
:10497000FF90EF90DF90CF90BF90AF909F908F907F
:104980007F906F905F904F903F902F900C946ABBF8
:104990008E31910509F4DDC218F58C31910509F4C9
:1049A000B0C210F00C946E3580E799E129960FB6ED
:1049B000F894DEBF0FBECDBFDF91CF911F910F9155
:1049C000FF90EF90DF90CF90BF90AF909F908F902F
:1049D0007F906F905F904F903F902F900C94CBBF43
:1049E0008A32910509F40FC328F4809709F4DEC2D6
:1049F0000C9435358035910510F00C946E350C947F
:104A000035358B36910511F40C94672E38F58C35BD
:104A1000910509F48FC460F48435910509F488C3C5
:104A200008F481C38535910509F460C40C943535CB
:104A30008836910509F433C530F48336910509F4BD
:104A4000DDC40C9435358936910509F410C68A36D3
:104A5000910511F40C94562E0C943535833791053D
:104A600011F40C94B82E80F48F36910511F40C9447
:104A7000882E8237910511F40C94D62E8D3691052F
:104A800011F00C94353515C68537910511F40C9449
:104A9000D92E10F40C94E02D8737910511F40C9465
:104AA000042F8837910511F40C94472F0C94353559
:104AB0008530B1E09B0711F40C94553208F0B0C07A
:104AC0008F3C910511F40C94EF3008F041C08A3C02
:104AD000910511F40C941E3070F4883C910511F48A
:104AE0000C946D2F10F00C94C02F8E3B910509F49F
:104AF000B6C70C9435358C3C910511F40C94753087
:104B000010F40C9463308D3C910511F40C94D53065
:104B10008E3C910511F00C943535C50129960FB6E0
:104B2000F894DEBF0FBECDBFDF91CF911F910F91E3
:104B3000FF90EF90DF90CF90BF90AF909F908F90BD
:104B40007F906F905F904F903F902F900C943A59C8
:104B50008F3D910511F40C94AA3188F48C3D910598
:104B600011F40C9457318D3D910511F40C947F3163
:104B7000813D910511F00C9435350C943731893E07
:104B8000910511F40C94BF3140F5883E910511F068
:104B90000C9435356091CC177091CD178BE098E16E
:104BA0000E94D94D4091C8175091C9176091CA17FA
:104BB0007091CB1722E082E098E10E94FD4E1092A6
:104BC000CD171092CC171092C8171092C9171092D7
:104BD000CA171092CB170C946E358B3F910511F4C8
:104BE0000C94F8318430914011F00C9435352996AD
:104BF0000FB6F894DEBF0FBECDBFDF91CF911F91EE
:104C00000F91FF90EF90DF90CF90BF90AF909F906B
:104C10008F907F906F905F904F903F902F9065CDD9
:104C20008E3521E0920711F40C94AD33C0F58E322D
:104C300041E0940711F40C94F83298F48931A1E022
:104C40009A0711F40C94AD328C32B1E09B0711F449
:104C50000C94BD328630914011F00C9435350C9493
:104C600077328034F1E09F0711F40C946B3338F401
:104C70008F32914011F40C9437330C9435358134D4
:104C800041E0940711F40C946F338234914011F099
:104C90000C94353580E00E948FB00C9484338239B7
:104CA000A1E09A0711F40C94983498F58836E1E065
:104CB0009E0711F40C94643438F48336914011F457
:104CC0000C941E340C943535803931E0930711F47F
:104CD0000C947E348139914011F00C94353529962D
:104CE0000FB6F894DEBF0FBECDBFDF91CF911F91FD
:104CF0000F91FF90EF90DF90CF90BF90AF909F907B
:104D00008F907F906F905F904F903F902F900C947A
:104D1000B2AE853F51E0950711F40C94C83460F4AD
:104D2000843F914011F00C94353580E00E94B252DE
:104D300084E793E10C94D334863FE1E09E0711F4BD
:104D40000C94ED348C38934011F40C9407350C948A
:104D500035350E943A1D0E943C1D77C280E799E1DB
:104D600029960FB6F894DEBF0FBECDBFDF91CF916D
:104D70001F910F91FF90EF90DF90CF90BF90AF9079
:104D80009F908F907F906F905F904F903F902F906B
:104D90000C940FBF80E799E129960FB6F894DEBF17
:104DA0000FBECDBFDF91CF911F910F91FF90EF907C
:104DB000DF90CF90BF90AF909F908F907F906F903B
:104DC0005F904F903F902F900C94EDBA80E799E15F
:104DD00029960FB6F894DEBF0FBECDBFDF91CF91FD
:104DE0001F910F91FF90EF90DF90CF90BF90AF9009
:104DF0009F908F907F906F905F904F903F902F90FB
:104E00000C94F2BAD5018D919C9197FD02C00C943F
:104E10006E3560E080E799E10E94E4C9F501EE5A41
:104E2000FF4F6081718140E080E799E129960FB6DC
:104E3000F894DEBF0FBECDBFDF91CF911F910F91D0
:104E4000FF90EF90DF90CF90BF90AF909F908F90AA
:104E50007F906F905F904F903F902F900C9442BF47
:104E600080E799E129960FB6F894DEBF0FBECDBF5B
:104E7000DF91CF911F910F91FF90EF90DF90CF9036
:104E8000BF90AF909F908F907F906F905F904F906A
:104E90003F902F900C9459BBF5018081918192FD38
:104EA00002C00C946E35468D578D60A171A1809122
:104EB000DA19882311F40C946E354093D11950936C
:104EC000D2196093D3197093D41980EB99E1299684
:104ED0000FB6F894DEBF0FBECDBFDF91CF911F910B
:104EE0000F91FF90EF90DF90CF90BF90AF909F9089
:104EF0008F907F906F905F904F903F902F900C9489
:104F00002AC8D5018D919C9197FD02C00C946E35F5
:104F1000F501EE5AFF4F6081718180E799E1299692
:104F20000FB6F894DEBF0FBECDBFDF91CF911F91BA
:104F30000F91FF90EF90DF90CF90BF90AF909F9038
:104F40008F907F906F905F904F903F902F900C9438
:104F5000EFBFF5018081918197FD02C00C946E3501
:104F600060E080E799E10E94E4C9F501EE5AFF4F45
:104F70006081718180E799E129960FB6F894DEBFD0
:104F80000FBECDBFDF91CF911F910F91FF90EF909A
:104F9000DF90CF90BF90AF909F908F907F906F9059
:104FA0005F904F903F902F900C9450C0D5018D9101
:104FB0009C9197FD02C00C946E3560E080E799E10A
:104FC0000E94E4C9F501EE5AFF4F6081718180E7CC
:104FD00099E129960FB6F894DEBF0FBECDBFDF91E1
:104FE000CF911F910F91FF90EF90DF90CF90BF90E6
:104FF000AF909F908F907F906F905F904F903F9079
:105000002F900C947EC0F5012081318133FD02C0C8
:105010000C946E3512A1E12EF3A0E2ECFCE0449179
:1050200050E04E155F0509F45EC032964DE0E63360
:10503000F407A9F7F7FC57C032FF2CC0D5015E96E4
:105040004D915D916D917C9191974F3F5105610517
:10505000710509F0E0F461E0812F0F94F505F50189
:10506000668D812F0F942E06D5015E966D917C91F1
:105070005F97812F0F94DD04B70185E498E10E94CA
:10508000D94DF501668D778D80E498E112C08FE0EF
:1050900095E02BC062E0812F0F94F505B70180E405
:1050A00098E10E94D94D812F0F946306BC018BE3D8
:1050B00098E129960FB6F894DEBF0FBECDBFDF9101
:1050C000CF911F910F91FF90EF90DF90CF90BF9005
:1050D000AF909F908F907F906F905F904F903F9098
:1050E0002F900C94E54D89ED94E029960FB6F89435
:1050F000DEBF0FBECDBFDF91CF911F910F91FF900B
:10510000EF90DF90CF90BF90AF909F908F907F9067
:105110006F905F904F903F902F900C94234D109282
:1051200027190C946E3581E0809327190C946E3505
:10513000D5018D919C91119792FF14C05E962D918F
:105140003D914D915C919197A8EEB3E00F94BB0E09
:105150006093E8027093E9028093EA029093EB0275
:105160000C946E3593FFA5C0F50182A193A1A4A173
:10517000B5A182309105A105B10509F466C02CF5F1
:105180000097A105B10509F446C00197A105B10535
:1051900011F00C946E3529960FB6F894DEBF0FBE51
:1051A000CDBFDF91CF911F910F91FF90EF90DF90D6
:1051B000CF90BF90AF909F908F907F906F905F90B7
:1051C0004F903F902F900C943C1D83309105A1058A
:1051D000B10509F454C00497A105B10511F00C9470
:1051E0006E3529960FB6F894DEBF0FBECDBFDF91A6
:1051F000CF911F910F91FF90EF90DF90CF90BF90D4
:10520000AF909F908F907F906F905F904F903F9066
:105210002F900C94E26029960FB6F894DEBF0FBE73
:10522000CDBFDF91CF911F910F91FF90EF90DF9055
:10523000CF90BF90AF909F908F907F906F905F9036
:105240004F903F902F900C943A1D29960FB6F894EA
:10525000DEBF0FBECDBFDF91CF911F910F91FF90A9
:10526000EF90DF90CF90BF90AF909F908F907F9006
:105270006F905F904F903F902F900C943E1D299619
:105280000FB6F894DEBF0FBECDBFDF91CF911F9157
:105290000F91FF90EF90DF90CF90BF90AF909F90D5
:1052A0008F907F906F905F904F903F902F900C94D5
:1052B000D4600E940A1E81E029960FB6F894DEBFE2
:1052C0000FBECDBFDF91CF911F910F91FF90EF9057
:1052D000DF90CF90BF90AF909F908F907F906F9016
:1052E0005F904F903F902F900C94959CD5018D919D
:1052F0009C91119792FF14C05E962D913D914D9116
:105300005C919197A8EEB3E00F94BB0E6093EC0212
:105310007093ED028093EE029093EF020C946E3541
:105320001092EC021092ED021092EE021092EF0237
:105330000C946E35F501808183FF0CC082859385C6
:10534000A485B5858093360390933703A0933803E3
:10535000B0933903D5018C9184FF0EC01E968D91B8
:105360009D910D90BC91A02D80933A0390933B03A7
:10537000A0933C03B0933D03F501808185FF0CC0F1
:1053800082899389A489B58980933E0390933F03D2
:10539000A0934003B09341030E94039DD5018C91DB
:1053A00086FD02C00C946E352091900330919103DC
:1053B00056968D919D910D90BC91A02DF9018187FC
:1053C0009287A387B487808129960FB6F894DEBFB1
:1053D0000FBECDBFDF91CF911F910F91FF90EF9046
:1053E000DF90CF90BF90AF909F908F907F906F9005
:1053F0005F904F903F902F900C94115FD501ED91ED
:10540000FC911197F2FF0DC05E962D913D914D914B
:105410005C919197A8EEB3E00F94BB0E6B017C01F9
:1054200006C040E1C42E47E2D42EE12CF12CE3FD6E
:105430000E943A1DF501808184FD0E943C1DD5012A
:105440008C9185FD0E943E1D0F941D042B013C0193
:105450004C0C5D1C6E1C7F1C0F941D04A30192015B
:10546000261B370B480B590BDA01C901803A9648C5
:10547000A140B10518F40E94F9A1EECFD5018C919D
:1054800083FD1798F501808184FD1698D5018C91D4
:1054900085FD02C00C946E3515980C946E350E94F3
:1054A000F86881110C946E350F941D046093CE172B
:1054B0007093CF178093D0179093D1170E94341D0B
:1054C00081110C946E35F5018081918193FF02C0AA
:1054D0000C94583592FF0AC0868D978DA0A1B1A17A
:1054E000892B8A2B8B2B11F40C945835D5018D9177
:1054F0009C91119792FD02C00C946E359C0122275D
:10550000317091FF23C0232B89F011E020E030E0BF
:10551000A9015A966D917D918D919C915D970F9403
:10552000DE0C18160CF010E0212F01C020E08501E0
:105530000C5A1F4FF501668D778D80A191A12987A7
:105540000F947D0B2985D8014C9124C0232B81F029
:1055500011E020E030E0A901F501628D738D848DAA
:10556000958D0F94DE0C18160CF010E0212F01C061
:1055700020E00091900310919103D5015E966D910A
:105580007D918D919C91919729870F947D0B298511
:10559000F801408129960FB6F894DEBF0FBECDBF4B
:1055A000DF91CF911F910F91FF90EF90DF90CF90FF
:1055B000BF90AF909F908F907F906F905F904F9033
:1055C0003F902F900C9448640E94F86881110C94CD
:1055D0006E350F941D046093CE177093CF17809390
:1055E000D0179093D1170E94341D81110C946E3501
:1055F000D5018D919C91119792FD02C00C946E354E
:1056000090FF11C011E020E030E0A9015A966D91A1
:105610007D918D919C915D970F94DE0C18160CF086
:1056200010E0412F01C040E0F501668D778D80A12B
:1056300091A149870F947D0B498529960FB6F8945F
:10564000DEBF0FBECDBFDF91CF911F910F91FF90B5
:10565000EF90DF90CF90BF90AF909F908F907F9012
:105660006F905F904F903F902F900C941165D501F3
:105670008D919C9133E0969587953A95E1F78170ED
:1056800029960FB6F894DEBF0FBECDBFDF91CF9144
:105690001F910F91FF90EF90DF90CF90BF90AF9050
:1056A0009F908F907F906F905F904F903F902F9042
:1056B00099C80E94F86881110C946E350F941D04EE
:1056C0006093CE177093CF178093D0179093D11714
:1056D0000E94341D81110C946E3540E068EC74E03A
:1056E00083ED9CE10E947AE083ED9CE10E94CEE391
:1056F0000E940A1E2090900330909103F501808152
:10570000918191FF09C0EC5AFF4F2081211104C003
:105710002BE5222E22E0322E92FF1EC090FF0FC0FA
:1057200011E020E030E0A901D5015A966D917D91FC
:105730008D919C915D970F94DE0C18160CF010E083
:10574000F501668D778D80A191A10F947D0B212F9E
:10575000D1014C910E944864F10126A937A940ADBE
:1057600051AD62A973A984A995A90F94450A2B018B
:105770003C0120E030E0A9010F94DE0C181664F41F
:1057800020E030E040EA50E4C301B2010F94AA0ADD
:1057900087FF0EC00C946E3520E030E040EA50ECFC
:1057A000C301B2010F94DE0C181614F40C946E357C
:1057B00099249394D101D0962D913C91D1979E96A6
:1057C0008D919C919F97821793070CF0912C0F94C9
:1057D0001D046D837E838F83988710E0412C512CAC
:1057E00032010F941D0469837A838B839C836093B9
:1057F000CE177093CF178093D0179093D117DC01F9
:10580000CB012D813E814F815885821B930BA40BC8
:10581000B50B893E9340A105B10558F080E00E9488
:10582000F22389819A81AB81BC818D839E83AF8372
:10583000B88781E00E94E81D8091900390919103C8
:105840002816390609F064C0D1019396ED90FC90BA
:1058500094971E141F040CF05BC0111158C09920BE
:1058600009F477C091966D917C919297882777FD86
:105870008095982F0F947D0B9B01AC01F10162A9DB
:1058800073A984A995A90F94DE0C181614F00C9432
:105890006535662777276E197F09882777FD8095FC
:1058A000982F0F947D0B2091420330914303409138
:1058B0004403509145030F94520D0F944A0B1F92CD
:1058C0001F92D10152962C9152972F9351962C9161
:1058D00051972F9350962C9150972F931F962C9160
:1058E0002F935B016C01E12CF12C870120E030E06B
:1058F000A90160E070E0CB010E948A940F900F90A4
:105900000F900F900F900F9011E00C94653511E0FF
:10591000411451046104710409F050C09920F1F060
:1059200020E030E040E85FE3F10166A977A980ADAF
:1059300091AD0F94450A9B01AC01D101D2966D91B6
:105940007D918D919C91D5970F94DE0C87FF1FC0A0
:1059500045CF411451046104710481F520E030E029
:1059600040E85FE3F10166A977A980AD91AD0F949E
:10597000460A9B01AC01D101D2966D917D918D912A
:105980009C91D5970F94AA0A18160CF427CFF10111
:10599000A78DB0A128EE33E00F94B50E2B013C018A
:1059A00029813A814B815C81420E531E641E751E13
:1059B000411451046104710409F413CFD301C201ED
:1059C00029813A814B815C81821B930BA40BB50B1F
:1059D00081159449A543B74708F403CF112309F46F
:1059E000E2C080919003909191032816390609F046
:1059F000DAC0D10193966D917C919497882777FDB9
:105A00008095982F0F947D0B209142033091430392
:105A100040914403509145030F94520D0F944A0B4B
:105A20001F921F92F10122892F9321892F932089A0
:105A30002F9327852F935B016C01E12CF12C8701BB
:105A400020E030E0A90160E070E0CB010E948A9480
:105A50000F900F900F900F900F900F90A4C00E9486
:105A6000341D81110C946E3540E06CEB74E083EDD5
:105A70009CE10E947AE083ED9CE10E94CEE30E94CB
:105A80000A1ED5018D919C91119792FF1FC090FF26
:105A900011C011E020E030E0A9015A966D917D918E
:105AA0008D919C915D970F94DE0C18160CF010E010
:105AB000412F01C040E0F501668D778D80A191A155
:105AC00049870F947D0B49850E9411652091190229
:105AD00030911A0240911B0250911C0260911502F4
