:100000000C94B61C0C94E71C0C94E71C0C94E71C95
:100010000C94E71C0C94E71C0C94E71C0C94E71C54
:100020000C94E71C0C94E71C0C94E71C0C94E71C44
:100030000C94E71C0D9459080C94E71C0C94E71CD5
:100040000C94E71C0C94A9DA0C94E71C0C94E71CA4
:100050000C94E71C0C9455DC0C944CDB0D941903A8
:100060000C94E71C0C94ADDC0C94D7DC0C94E71CCE
:100070000C94E71C0C94E71C0C94E71C0C94E71CF4
:100080000C94E71C0C94E71C0C94E71C0C94E71CE4
:100090000C94E71C0C94E71C0C94E71C0D942701AE
:1000A0000C94E71C0C94E71C0C94E71C0C94E71CC4
:1000B0000C94E71C0C94E71C0C94E71C0C94E71CB4
:1000C0000C94E71C0C94E71C0C94E71C0C94E71CA4
:1000D0000C94E71C0C94E71C0C94E71C0C94E71C94
:1000E0000C94E71C38955095509550955095509527
:1000F00050955095509550955095509550955095D8
:1001000050955095509550955095509550955095C7
:1001100050955095509550952795D994E3945D94BA
:10012000509509951395509550956E944B94509514
:10013000FF9450951D95F594ED94509550955095DC
:10014000BB94C594CF94509550955095509550952B
:1001500050955095509550952795D994E3945D947A
:10016000509509951395509550956E944B945095D4
:10017000FF9450951D95F594ED945095509550959C
:10018000BB94C594CF9460B2F1B284B3D5B470C3BC
:1001900070C370C370C370C370C370C370C370C3C7
:1001A0001DB459B497B470C370C370C370C370C327
:1001B00070C370C370C370C370C370C3FCB75EB844
:1001C000BEB81EB97EB9DEB93EBA70C3BABEC2BAF5
:1001D00038BBABBB1DBC8FBC01BD73BDE0BD4DBE0C
:1001E00070C370C370C370C370C37FB64CB7A2B680
:1001F00002BF6FBFDBBF48C069C0ABC0DDC00FC16D
:1002000068C1C3C11CC275C296C28AC070C370C324
:1002100070C370C370C370C370C370C370C370C346
:1002200070C370C31FB64EB670C370C370C370C3C3
:1002300070C370C370C370C318C370C31BB770C3DF
:1002400070C370C3C0C2EEC270C370C370C370C34A
:1002500053B270C370C318B5BBB5FFB5A4B7A20144
:1002600078019601A401BC01B0018C0194018601C2
:1002700080017A01B801B601BA01B00182017601AC
:100280009801B4019A01AA018801A0017C019201A0
:100290009001B2019C01AC018E01A80184017C0196
:1002A0008A01AE019E0107634236B79BD8A71A396F
:1002B000685618AEBAAB558C1D3CB7CC5763BD6DB4
:1002C000EDFD753EF6177231BF000000803F05A8B6
:1002D0004CCDB2D44EB93836A9020C50B9918688AB
:1002E000083CA6AAAA2ABE000000803F0D94FC028A
:1002F0000D947E020D94C5020D9476040D94480071
:100300000D94BB020D94F2020D9463040D94B1029E
:100310000D9432040D9469040D94A1020D945B04B4
:100320000D9447040D9443040D94A9020D94830287
:100330000D9406030D943F040D9451040D94710423
:100340000D9438040D9479020D948D020D940D05D1
:100350000D945F040D942E040D9455040D946D04BA
:100360000D9410030D944D040D943C040D94DE0285
:100370000D94CF020D94E8020D949702436F6C64C4
:1003800020657874727573696F6E20646973616C2F
:100390006C6F77656400436F6C6420657874727568
:1003A00073696F6E20616C6C6F7765640041757462
:1003B0006F726574726163743A0053657474696E28
:1003C00067206D6F746F722063757272656E742E24
:1003D0002E2E00536574204D6963726F73746570BF
:1003E00070696E670054726967676572696E67202D
:1003F0007761746368646F672E2049662061637457
:100400006976617465642C20746865207072696E09
:100410007465722077696C6C2072657365742E0048
:1004200053657474696E67205468726573686F6C85
:100430006420546F3A00494E542050494E3A2000EF
:100440004D323531200020746F20005365742076C2
:100450006F6C756D657472696320657874727573FD
:10046000696F6E20666F722065787472756465724C
:10047000200044697361626C656420766F6C756DF1
:10048000657472696320657874727573696F6E2024
:10049000666F7220657874727564657220004D31E4
:1004A0003134200048656174696E672042656400DC
:1004B00048656174696E6720457874727564657209
:1004C0000050696E2063616E206E6F74206265203B
:1004D000736574206279204D34322C206D6179204F
:1004E000696E20696E76616C6964206F7220696E36
:1004F000207573652E2000496C6C6567616C205314
:100500002076616C756520666F72204D3432005A1A
:100510002028432920746F77657220666C6F6F7294
:100520002073657420746F3A2000592028422920D6
:10053000746F77657220666C6F6F722073657420BC
:10054000746F3A2000582028412920746F77657213
:1005500020666C6F6F722073657420746F3A200090
:10056000526F6420526164697573207365742074DE
:100570006F3A2000473133342000506F7346726F5A
:100580006D53746570733A00436F6D7044656C749D
:10059000613A0043616C6962726174696F6E206DCB
:1005A0006F76656D656E74206973206C696D697412
:1005B000656420746F2031306D6D2E004669727352
:1005C00074206D6F766520746F20746F756368207A
:1005D000617420782C793D302C3020746F20617547
:1005E000746F2D736574207261646975732E004396
:1005F000616C6962726174696F6E206D6F76656D92
:10060000656E74206973206C696D6974656420740B
:100610006F2031306D6D2E0043616E6E6F742073EC
:1006200065742072616469757320616E6420666C04
:100630006F6F722061742073616D652074696D65E0
:100640002E0043616C6962726174696F6E20636F22
:100650006465206973206C696D6974656420746FCA
:1006600020626F74746F6D20313025206F66205AC0
:10067000206865696768740052656C6174697665A5
:1006800020706F736974696F6E696E670041627381
:100690006F6C75746520706F736974696F6E696EC5
:1006A000670047363920005A3A2000593A2000584E
:1006B0003A20004F464653455453204F4646204269
:1006C0005920544F4F204D554348205F20545259D4
:1006D000494E4720414741494E3A200053657474C2
:1006E000696E672050726F62652053656E7369741E
:1006F000697669747920546F3A005A2070726F627B
:1007000065206661696C6564206F6E2073656E7329
:10071000697469766974793A200053657474696EF6
:10072000672050726F62652053656E7369746976D5
:1007300069747920546F3A005A2070726F62652094
:100740006661696C6564206F6E2073656E73697491
:1007500069766974793A200053657474696E67200C
:1007600050726F62652053656E736974697669743F
:100770007920546F3A005A2070726F62652066616A
:10078000696C6564206F6E2073656E736974697639
:100790006974793A200068656865004E6577205273
:1007A00061646975733A20004F6C6420526164691A
:1007B00075733A200043616C63756C6174656420E5
:1007C00052616469757320697320626164203A0024
:1007D00053657474696E672050726F62652053654B
:1007E0006E736974697669747920546F3A005A207F
:1007F00070726F6265206661696C6564206F6E203F
:1008000073656E73697469766974793A200053650B
:100810007474696E672050726F62652053656E73E1
:100820006974697669747920546F3A005A2070723D
:100830006F6265206661696C6564206F6E20736508
:100840006E73697469766974793A2000473332208F
:100850000050524F42452D5A4F46465345543A0098
:100860004733300053657474696E672050726F624D
:10087000652053656E736974697669747920546F65
:100880003A0050726F62657320646F206E6F74203F
:100890006D617463682E204F666620627920004780
:1008A000333020004D3131372043414C49425241D1
:1008B00054494F4E20434F4D504C455445006865B8
:1008C0006865004E657720486F72697A6F6E746153
:1008D0006C205261646975733A20004F6C64204843
:1008E0006F72697A6F6E74616C205261646975739E
:1008F0003A200043616C63756C61746564205261D9
:1009000064697573206973206261643A20004D3117
:1009100031372043414C4942524154494F4E2046C1
:1009200041494C45440043616C6962726174696F6E
:100930006E204661696C65640053657474696E6706
:100940002050726F62652053656E736974697669B1
:10095000747920546F3A005A2070726F62652028B3
:1009600043656E74657220506F696E7429206661EC
:10097000696C6564206F6E2073656E736974697647
:100980006974793A20004E6577205A204865696776
:1009900068743A004F6C64205A204865696768742F
:1009A0003A004D3131372043414C4942524154497C
:1009B0004F4E204641494C45440043616C69627288
:1009C0006174696F6E204661696C6564005365747B
:1009D00074696E672050726F62652053656E73692B
:1009E00074697669747920546F3A005A2070726F76
:1009F0006265202843656E74657220506F696E745D
:100A000029206661696C6564206F6E2073656E7362
:100A1000697469766974793A200047363920005A3A
:100A20003A2000593A2000583A20004D3131372001
:100A3000456E6473746F70204F66667365742045ED
:100A400072726F72004F464653455453204F4646CC
:100A500020425920544F4F204D5543482E2041628B
:100A60006F7274696E672E2053656E736974697650
:100A70006974793A20004D3131372043414C494265
:100A8000524154494F4E204641494C454400436130
:100A90006C6962726174696F6E204661696C65642D
:100AA0000053657474696E672050726F62652053DD
:100AB000656E736974697669747920546F3A005A67
:100AC0002070726F626520285A20546F77657229F2
:100AD000206661696C6564206F6E2073656E736952
:100AE0007469766974793A20004D31313720434179
:100AF0004C4942524154494F4E204641494C45448D
:100B00000043616C6962726174696F6E204661694D
:100B10006C65640053657474696E672050726F620F
:100B2000652053656E736974697669747920546FB2
:100B30003A005A2070726F626520285920546F77EE
:100B4000657229206661696C6564206F6E2073652B
:100B50006E73697469766974793A20004D31313762
:100B60002043414C4942524154494F4E204641494D
:100B70004C45440043616C6962726174696F6E2018
:100B80004661696C65640053657474696E672050D2
:100B9000726F62652053656E7369746976697479E2
:100BA00020546F3A005A2070726F626520285820D6
:100BB000546F77657229206661696C6564206F6E79
:100BC0002073656E73697469766974793A20004D93
:100BD0003130342053300A4D3134302053300A4DF7
:100BE000313037004D313137204932432045727260
:100BF0006F722E2041626F7274696E6700493243D2
:100C0000204572726F72202D2043616C696272619F
:100C100074696F6E2041626F7274656400657865F7
:100C20006375746547436F6465202F207175657522
:100C30006544656C74614D6F76652072657475727C
:100C40006E73206572726F72006969733264682016
:100C5000616363656C65726F6D6574657220696E42
:100C6000697469616C697A696E672E2E2E00616302
:100C700063656C65726F6D6574657220693263209F
:100C800072656376206572726F722E002076616CD9
:100C900075653A20007265616420726567200061A5
:100CA0006363656C65726F6D6574657220777269D8
:100CB000746520693263206572726F722E00616301
:100CC00063656C65726F6D657465722073656E64C3
:100CD00020693263206572726F722E00000001007D
:100CE000250030001D000C001800240031001C00FD
:100CF0000B00170023002F001B000A001E000D0030
:100D0000FFFF0900030022002B001A0041004200EF
:100D1000000002003500206465672E204300206D2E
:100D20006561737572656420004572726F723A4333
:100D30006F756C64206E6F7420686F6C64207465CE
:100D40006D70657261747572652000206D7300208E
:100D5000616674657220004572726F723A54656DF7
:100D6000702E2072616973656420746F20736C6FDC
:100D7000772E2052697365203D20004739310A479C
:100D800031452D31383046363030300A4739300061
:100D90004D31313720457874727564657220300AA0
:100DA00054300A4D38342050340A4739310A47311B
:100DB0004531373246363030300A473145354635D1
:100DC00030300A473930001C151C14000000224343
:100DD000141F1FDB1187111711C71000000000003E
:100DE000003F10330FE30E670EEB0D0400081D905B
:100DF0000058091C01B007A801C80634023006C01B
:100E000002C0054C036805D80318056404D004F03B
:100E10000498047C0560040806300494060004204D
:100E200007D003AC07A80338088003C40858035050
:100E3000093003DC090803680AD802F40AB002800A
:100E40000B88020C0C6002980C3002240DF801B0E3
:100E50000DC0013C0E8001C80E3001540FB800B423
:100E60000F2800E00F00000400401D900060091CE6
:100E700001B007A801D00634023806C002C8054CEC
:100E8000036805D80318056404D804F00498047CAA
:100E900005600408063004940600042007D003AC63
:100EA00007A80338088003C408580350093003DC3E
:100EB000090803680AE002F40AB802800B88020CF1
:100EC0000C6002980C3002240DF801B00DC0013CFA
:100ED0000E8001C80E3001540FB800B40F2800E096
:100EE0000F000004000016D800C006AC0178058091
:100EF00002C004540348042804E803FC049803D007
:100F0000055003A40618037807D8024C08A802204D
:100F1000097002F4093802C80A08029C0BD001705B
:100F20000C9001440D5001180EF800EC0E8800C022
:100F30000F00000400681D4C00500B94005809DCA1
:100F40000050082401A8076C012807B401C006FC62
:100F5000017006440228068C02F005D402B8051C74
:100F600003880564035805AC033005F40310053C01
:100F700004E8048404C804CC04A804140590045CA8
:100F8000057004A4055804EC053804340620047CDC
:100F9000060804C406F0030C07D8035407C8039CD2
:100FA00007B003E40798032C08800374087003BC9F
:100FB000085803040948034C09300394091803DC5A
:100FC000090803240AF0026C0AE002B40AC802FC11
:100FD0000AB002440BA0028C0B8802D40B70021CD6
:100FE0000C5802640C4002AC0C2802F40C10023CB9
:100FF0000DF001840DD801CC0DB801140E98015CE0
:101000000E7001A40E4801EC0E1801340FD8007CBC
:101010000F8800C40F0800FC0F0000000000000053
:1010200000000000000000000000000000000000C0
:1010300000000000000000000000000000000000B0
:1010400000401F450060094F0010095C00C0086B9C
:101050000070087D0020089200D007AC008007CC0B
:10106000003007DE00E006230190065E014006A680
:1010700001F005FF01A0056D025005F30200059681
:1010800003B0045A046004400510044806C0036E0F
:10109000077003A8082003EB09D002230B8002414C
:1010A0000C3002390DE001040E9001A20E40011730
:1010B0000FF000690FA000A20F5000C60F0000DD66
:1010C0000FB0FFEB0F60FF0400700DD8004804ACB8
:1010D0000158038002D8025403800228043802FC1D
:1010E000040002D005C801A4069801780770014CDD
:1010F00008480120091801F409F000C80AC8009C3A
:101100000BA000700C7000440D3800180E0000ECAD
:101110000EA8FFC00FE8FE0400001B540060096425
:101120000010097400C008840070089C002008B8F2
:1011300000D007D8008007000130072C01E00668C6
:10114000019006AC0140060002F0056802A005E02F
:10115000025005740300052404B004F0046004DCAC
:10116000051004E406C00304087003300920037866
:101170000B8002600DE001A80E4001680FA000C0C6
:101180000F0000E80F60FF0400801AD8009808AC38
:10119000012007800250065403C80528045805FCA6
:1011A000040005D005B004A4066804780728044CA0
:1011B00008E8032009B003F4097003C80A38039C47
:1011C0000BF802700CB002440D6802180E0802EC15
:1011D0000E8801C00F8800F00F00000000A00F5C17
:1011E000006009690010097900C0088C007008A22D
:1011F000002008BD00D007DE00800705013007345D
:1012000001E0066D019006B20140060702F0056D8F
:1012100002A005E80250057B0300052B04B004F88A
:10122000046004EB06C003350920037F0B800265D0
:101230000DE001B00E40011D0FF000480FC8006C1A
:101240000FA000ED0F60FFFE0F48FE00020000211E
:1012500010422063308440A550C660E770088129A1
:10126000914AA16BB18CC1ADD1CEE1EFF131121039
:101270000273325222B5529442F772D662399318F1
:10128000837BB35AA3BDD39CC3FFF3DEE362244345
:101290003420040114E664C774A44485546AA54B41
:1012A000B528850995EEE5CFF5ACC58DD5533672D9
:1012B0002611163006D776F6669556B4465BB77A91
:1012C000A719973887DFF7FEE79DD7BCC7C448E565
:1012D000588668A7784008611802282338CCC9EDE1
:1012E000D98EE9AFF9488969990AA92BB9F55AD479
:1012F0004AB77A966A711A500A333A122AFDDBDC31
:10130000CBBFFB9EEB799B588B3BBB1AABA66C8784
:101310007CE44CC55C222C033C600C411CAEED8F80
:10132000FDECCDCDDD2AAD0BBD688D499D977EB618
:101330006ED55EF44E133E322E511E700E9FFFBED0
:10134000EFDDDFFCCF1BBF3AAF599F788F8891A9A3
:1013500081CAB1EBA10CD12DC14EF16FE18010A17A
:1013600000C230E3200450254046706760B983987E
:1013700093FBA3DAB33DC31CD37FE35EF3B10290CA
:1013800012F322D2323542145277625672EAB5CB4A
:10139000A5A89589856EF54FE52CD50DC5E234C31A
:1013A00024A01481046674476424540544DBA7FA1E
:1013B000B79987B8975FE77EF71DC73CD7D326F26A
:1013C000369106B01657667676154634564CD96D6A
:1013D000C90EF92FE9C899E9898AB9ABA9445865BA
:1013E0004806782768C018E1088238A3287DCB5CBE
:1013F000DB3FEB1EFBF98BD89BBBAB9ABB754A540A
:101400005A376A167AF10AD01AB32A923A2EFD0F89
:10141000ED6CDD4DCDAABD8BADE89DC98D267C0759
:101420006C645C454CA23C832CE01CC10C1FEF3E5D
:10143000FF5DCF7CDF9BAFBABFD98FF89F176E36A9
:101440007E554E745E932EB23ED10EF01E7C3C3E15
:101450005E2B3D3F2F5B5D3B2C2A225C004D61786B
:1014600054656D703A004469616D657465723A0047
:10147000416363656C65726174696F6E3A004D61BA
:101480007853706565643A004A65726B3A004D6145
:101490007842656454656D703A005072696E746587
:1014A00072547970653A44656C7461005A54726183
:1014B00076656C416363656C3A0059547261766578
:1014C0006C416363656C3A005854726176656C4197
:1014D0006363656C3A005A5072696E744163636568
:1014E0006C3A00595072696E74416363656C3A00DE
:1014F000585072696E74416363656C3A005A53695F
:101500007A653A005953697A653A005853697A65A1
:101510003A005A4D61783A00594D61783A00584D79
:1015200061783A005A4D696E3A00594D696E3A0039
:10153000584D696E3A004A65726B58593A005072BC
:10154000696E746C696E6543616368653A00454510
:1015500050524F4D3A004175746F6C6576656C3A28
:10156000005A50726F62653A00436173654C696757
:101570006874733A00537570706F72744C6F636166
:101580006C46696C616D656E746368616E67653A1F
:1015900000537570706F72744731304731313A00C3
:1015A0005A486F6D654469723A0059486F6D6544D9
:1015B00069723A0058486F6D654469723A00536F1A
:1015C000667477617265506F77657253776974637B
:1015D000683A004C43443A0046616E3A0053444333
:1015E0006172643A004865617465644265643A00FA
:1015F0004D6978696E6745787472756465723A00F2
:101600004E756D45787472756465723A00496E70F6
:1016100075744275666665723A00426175647261FE
:1016200074653A004E6F2063617365206C6967686A
:101630007473004D31313420007A70726F62696EBC
:10164000672E2E2E0064656C6179203130306D7309
:101650002E00686F6D65417869732000686F6D6555
:1016600041786973202F20717565756544656C74C8
:10167000614D6F76652072657475726E7320657248
:10168000726F7200486F6D652044656C7461005024
:1016900072696E7465723A3A736574757020006D84
:1016A0006F7665546F5265616C202F20717565757A
:1016B0006544656C74614D6F7665207265747572F2
:1016C0006E73206572726F72006D6F7665546F2055
:1016D0002F20717565756544656C74614D6F766515
:1016E0002072657475726E73206572726F7200532A
:1016F0007465707065722044697361626C65640022
:101700004B696C6C6564006973506F736974696FC1
:101710006E416C6C6F776564200053442065727273
:101720006F72206669786564005344206572726F39
:101730007220646964206E6F74207265636F7665D1
:1017400072210053442052656164204572726F72A9
:101750000055706C6F6164696E672E2E2E00005309
:1017600044207072696E742073746F7070656420A9
:10177000627920757365722E005344206361726430
:1017800020696E736572746564005344204361720E
:101790006420696E7365727465640053442043610C
:1017A00072642072656D6F766564005344206361D6
:1017B00072642072656D6F76656400457874722E70
:1017C00000436F6E6669673A004F6E652068656119
:1017D000746572207365656D73206465636F7570E1
:1017E0006C65642066726F6D20746865726D6973D4
:1017F000746F72202D2064697361626C696E67205A
:10180000616C6C20666F722073616665747921006B
:10181000486561746572206465636F75706C65649A
:10182000004372656174696F6E206661696C6564FE
:10183000004469726563746F7279206372656174C4
:1018400065640044656C6574696F6E206661696CDF
:1018500065640046696C652064656C657465640048
:10186000446F6E6520736176696E672066696C658A
:101870002E0057726974696E6720746F2066696CF8
:10188000653A20006F70656E206661696C65642C36
:101890002046696C653A20004E6F742053442070D6
:1018A00072696E74696E67005344207072696E7459
:1018B000696E672062797465200066696C652E6FB9
:1018C00070656E206661696C65640046696C6520B0
:1018D00073656C6563746564002053697A653A00CA
:1018E00046696C65206F70656E65643A00456E648C
:1018F0002066696C65206C69737400426567696E67
:101900002066696C65206C697374006572726F7211
:101910002077726974696E6720746F2066696C65E0
:1019200000534420696E6974206661696C006164CB
:1019300076616E6365204C205B303D6F66665D00AE
:10194000657874727564657220636F6F6C65722060
:101950007370656564205B302D3235355D006469D8
:101960007374616E636520746F2072657472616355
:1019700074207768656E2068656174696E67205BA6
:101980006D6D5D0074656D702E20666F72207265DE
:101990007472616374696F6E207768656E20686524
:1019A0006174696E67205B435D0074656D702E2005
:1019B00073746162696C697A652074696D65205B16
:1019C000735D00592D6F6666736574205B73746573
:1019D00070735D00582D6F6666736574205B737459
:1019E0006570735D00504944206D61782076616CAC
:1019F0007565205B302D3235355D005049442044FB
:101A00002D6761696E0050494420492D6761696EF8
:101A10000050494420502D6761696E2F64656164F0
:101A20002D74696D650050494420647269766520A3
:101A30006D696E00504944206472697665206D615D
:101A4000780068656174206D616E61676572205B06
:101A5000302D335D00616363656C65726174696F1D
:101A60006E205B6D6D2F735E325D007374617274F6
:101A7000206665656472617465205B6D6D2F735DB2
:101A8000006D61782E206665656472617465205B07
:101A90006D6D2F735D0073746570732070657220B7
:101AA0006D6D0042656420504944206D6178207658
:101AB000616C7565205B302D3235355D00426564A3
:101AC0002050494420442D6761696E0042656420BE
:101AD00050494420492D6761696E00426564205079
:101AE000494420502D6761696E0042656420504969
:101AF00044206472697665206D696E0042656420D9
:101B0000504944206472697665206D6178004265B1
:101B1000642048656174204D616E61676572205B69
:101B2000302D335D00436F72722E20646961676FE0
:101B30006E616C2043205B6D6D5D00436F72722E91
:101B400020646961676F6E616C2042205B6D6D5D22
:101B500000436F72722E20646961676F6E616C2042
:101B600041205B6D6D5D004D6178207072696E740F
:101B700061626C6520726164697573205B6D6D5D77
:101B800000546F776572205A20656E6473746F70AD
:101B9000206F6666736574205B73746570735D0097
:101BA000546F776572205920656E6473746F70206E
:101BB0006F6666736574205B73746570735D005443
:101BC0006F776572205820656E6473746F70206F34
:101BD0006666736574205B73746570735D0053652E
:101BE000676D656E74732F7320666F7220747261F7
:101BF00076656C005365676D656E74732F73206630
:101C00006F72207072696E74696E6700486F7269D6
:101C10007A6F6E74616C20726F6420726164697592
:101C20007320617420302C30205B6D6D5D00446941
:101C300061676F6E616C20726F64206C656E677493
:101C400068205B6D6D5D00486F6D696E672066652D
:101C5000656472617465205B6D6D2F735D004D610D
:101C6000782E206665656472617465205B6D6D2FEA
:101C7000735D00537465707320706572206D6D0024
:101C800054726176656C20616363656C6572617422
:101C9000696F6E205B6D6D2F735E325D0041636313
:101CA000656C65726174696F6E205B6D6D2F735E1C
:101CB000325D004D61782E206A65726B205B6D6D20
:101CC0002F735D005A206D6178206C656E677468B3
:101CD000205B6D6D5D0059206D6178206C656E67CD
:101CE0007468205B6D6D5D0058206D6178206C65B7
:101CF0006E677468205B6D6D5D005A20686F6D655E
:101D000020706F73205B6D6D5D005920686F6D658D
:101D100020706F73205B6D6D5D005820686F6D657E
:101D200020706F73205B6D6D5D0053746F70207356
:101D300074657070657220616674657220696E6189
:101D400063746976697479205B6D732C303D6F66BE
:101D5000665D004D61782E20696E616374697665F9
:101D60002074696D65205B6D732C303D6F66665D18
:101D7000005072696E7465722061637469766520C3
:101D80005B735D0046696C616D656E74207072698D
:101D90006E746564205B6D5D00416476616E6365A1
:101DA00064205573657200426175647261746500E8
:101DB0004550523A3320004550523A3220004550A7
:101DC000523A3120004550523A30200050726F7420
:101DD0006F636F6C2076657273696F6E20636861E4
:101DE0006E6765642C20757067726164696E670048
:101DF000436F6E66696775726174696F6E20726594
:101E000073657420746F2064656661756C74732EDD
:101E100000436F6E66696775726174696F6E206CDE
:101E20006F616465642066726F6D20454550524F46
:101E30004D2E00436F6E66696775726174696F6ECF
:101E40002073746F72656420746F20454550524F43
:101E50004D2E004175746F6C6576656C20616374FE
:101E60006976652028312F3029005A2D70726F62F3
:101E700065205933005A2D70726F62652058330007
:101E80005A2D70726F6265205932005A2D70726F30
:101E90006265205832005A2D70726F626520593188
:101EA000005A2D70726F6265205831005A2D707281
:101EB0006F626520782D792D7370656564205B6D88
:101EC0006D2F735D005A2D70726F6265207370659F
:101ED0006564205B6D6D2F735D005A2D70726F62AB
:101EE00065206F66667365742079205B6D6D5D009B
:101EF0005A2D70726F6265206F6666736574207804
:101F0000205B6D6D5D004D61782E207A2D70726FB3
:101F10006265202D2062656420646973742E205BE5
:101F20006D6D5D005A2D70726F626520686569671E
:101F30006874205B6D6D5D00776169740050726933
:101F40006E746572206865696768743A005A2D700E
:101F5000726F6265206661696C6564005472616EBF
:101F600073666F726D6174696F6E206D61747269F2
:101F7000783A004175746F6C6576656C696E6720A0
:101F800064697361626C6564004175746F6C657639
:101F9000656C696E6720656E61626C656400417591
:101FA000746F6C6576656C206D61747269782072EF
:101FB0006573657400004732382F6E47315A3235E9
:101FC0002F6E005A2D70726F626520737461746594
:101FD0003A005265736574205A20686569676874B1
:101FE000005A2D70726F6265206176657261676557
:101FF000206865696768743A0020537465702056DC
:102000006172696174696F6E2066726F6D205072C3
:102010006F626520746F2062656420446973746127
:102020006E63653A005A2D70726F62653A005072A5
:10203000696E7465722073657420696E746F2064B4
:1020400072792072756E206D6F646520756E74698B
:102050006C207265737461727421003A20776F721C
:102060006B696E67003A2074656D702073656E73DE
:102070006F72206465666563740065787472756458
:102080006572200068656174656420626564004D56
:1020900054454D503A00504944204175746F747551
:1020A0006E652066696E6973686564202120506CD6
:1020B00061636520746865204B702C204B6920613A
:1020C0006E64204B6420636F6E7374616E74732052
:1020D000696E2074686520436F6E6669677572610A
:1020E00074696F6E2E68206F7220454550524F4DB7
:1020F00000504944204175746F74756E65206661A7
:10210000696C6564212074696D656F757400504950
:1021100044204175746F74756E65206661696C65E5
:1021200064212054656D70657261747572652074E8
:102130006F206869676800204B643A2000204B6973
:102140003A2000204B703A200020436C6173736981
:102150006320504944002054753A2000204B753AC2
:102160002000206D61783A2000206D696E3A2000D1
:1021700020643A200020626961733A20005049448B
:10218000204175746F74756E65207374617274008C
:102190005461726765744265643A005461726765A0
:1021A0007445787472004E6F206D6F766520696E8D
:1021B0002064656C7461207365676D656E7420774B
:1021C000697468203E2031207365676D656E742EDA
:1021D00020546869732073686F756C64206E65762F
:1021E00065722068617070656E20616E64206D613B
:1021F0007920636175736520612070726F626C6510
:102200006D210044656C74612052616469757320AE
:10221000432830293A0044656C7461205261646936
:10222000757320422830293A0044656C746120524D
:10223000616469757320412830293A00416C7068E7
:10224000612043283930293A00416C70686120428E
:1022500028333330293A00416C70686120412832BC
:102260003130293A00546F77657220333A00546F49
:1022700077657220323A00546F77657220313A00E8
:10228000496E76616C69642064656C746120636F6B
:102290006F7264696E617465202D206D6F766520A4
:1022A00069676E6F726564006C696E656172204C5F
:1022B0003A00454550524F4D207570646174656415
:1022C000002C2073706565643D00206C696E65614B
:1022D000722073746570733A004A65726B3A007AC3
:1022E0005F6D61783A00795F6D61783A00785F6D73
:1022F00061783A004C2000482000206973200020BB
:10230000746F2000536574206F75747075743A2073
:10231000004D53312C4D53322050696E73004531BE
:102320003A0045303A005A3A00593A0020002C0051
:10233000206D696E0020686F7572732000206461E3
:10234000797320006D20005072696E74696E672089
:1023500074696D653A005072696E746564206669CF
:102360006C616D656E743A0046616E73706565648C
:102370003A00482E205261646975733A00466C6FCA
:10238000774D756C7469706C793A0053706565644B
:102390004D756C7469706C793A00202F002F003AEB
:1023A0000020524157002042403A0020403A00208D
:1023B000423A00543A0020453A00205A3A00205947
:1023C0003A0020583A00583A00467265652052415A
:1023D0004D3A00556E6B6E6F776E20636F6D6D6159
:1023E0006E643A00536F667477617265205265734C
:1023F0006574005761746368646F67205265736524
:10240000740042726F776E206F7574205265736529
:10241000740045787465726E616C205265736574E2
:1024200000506F776572557000737461727400426A
:102430004C4B2000736B6970200020676F74200084
:102440004572726F723A6578706563746564206C6A
:10245000696E652000534420726561642065727264
:102460006F7200205200204A0020490020500020B6
:102470005300204600204500205A002059002058D3
:1024800000446F6E65207072696E74696E672066B5
:10249000696C6500466F726D6174206572726F724F
:1024A0000057726F6E6720636865636B73756D00AC
:1024B0004563686F3A00526573656E643A00576110
:1024C000726E696E673A00496E666F3A00457272C5
:1024D0006F723A00494E46004E414E006F6B004607
:1024E00049524D574152455F4E414D453A526570F4
:1024F00065746965725F302E39322E32204649523A
:102500004D574152455F444154453A32303137319D
:10251000303330204D414348494E455F5459504572
:102520003A526F73746F636B204D6178207632205E
:10253000005265717565737450617573653A004D2D
:1025400031313720494E53455254205344204341A2
:102550005244004D313137205344204341524420EE
:102560004552524F520055495F414354494F4E5FC7
:102570005345545F4D454153555245445F4F524971
:1025800047494E20004E6F2053442043617264003F
:1025900053687574204F666620414C4C2048656135
:1025A0007473005072656865617420414253005035
:1025B00072656865617420504C410055495F414324
:1025C00054494F4E5F484F4D455F5A200055495F73
:1025D000414354494F4E5F484F4D455F5920005588
:1025E000495F414354494F4E5F484F4D455F582026
:1025F0000055495F414354494F4E5F484F4D454157
:102600004C4C200055495F414354494F4E5F5A504E
:102610004F534954494F4E5F464153545F4E4F54B8
:10262000455354200055495F414354494F4E5F5A2A
:10263000504F534954494F4E5F4E4F5445535420C9
:102640000055495F414354494F4E5F45504F5349F0
:1026500054494F4E200055495F414354494F4E5F06
:102660005A504F534954494F4E5F464153542000EE
:1026700055495F414354494F4E5F59504F53495458
:10268000494F4E5F46415354200055495F414354E2
:10269000494F4E5F58504F534954494F4E5F464142
:1026A0005354200055495F414354494F4E5F5A509F
:1026B0004F534954494F4E200055495F41435449B7
:1026C0004F4E5F59504F534954494F4E2000554982
:1026D0005F414354494F4E5F58504F534954494FFF
:1026E0004E200042616E6742616E6700536C6F77E7
:1026F00042616E6700446561642054696D650050F5
:10270000494400003A0020646179732000506572EA
:1027100063656E74205072696E7465643A0020645B
:102720006566200046572044617465203230313799
:102730003130333000526F73746F636B4D41587694
:1027400032005365654D65434E4300526F73746F9D
:10275000636B204D617820763200DB339133243374
:10276000C732416374696F6E3A256C6100040003DF
:10277000004E6F00596573004E2F41004F66660092
:102780004F6E000000003FCDCC4C3D0AD7A33B6FFD
:1027900012033A5265706574696572207620302E96
:1027A00039322E3200004014548025000040380099
:1027B00000004B00008070000000960000C0DA00AE
:1027C0000000E10000002C010008B2010000C2017D
:1027D0000000F401000084030090D0030000E8032F
:1027E000000008070020A1070000100E0040420F63
:1027F0000060E3160000000000110A0411040A1131
:1028000011001C1F11111F0000040A0A0A0E1F1FCD
:102810000E001F1111111F0000001F1F1F1F1F009E
:1028200000040A040000000000040E15041C00004F
:1028300000020000060038284E309E281F2D712807
:10284000722DE02802000007004B284E3059281F47
:102850002D7128722DAA2C8528602802202E0000B8
:102860005072696E7465722053657474696E677313
:1028700000782802F22E000041646A7573742054B7
:10288000656D7073008C2802B62800004164766183
:102890006E6365642053657474696E677300A52860
:1028A00002372E00005072696E7465722053657491
:1028B00074696E6773000200000900BD284E30CBBA
:1028C00029B729A7299729CF2880296829E028D660
:1028D00028024D2C0000446562756767696E6700C9
:1028E000E728022F2F000043616C696272617469EE
:1028F0006F6E204D656E75000310270200FF280AD9
:1029000029032911290000000000222900000000ED
:10291000006C6F6164656420662E20454550524FFF
:102920004D00436F6E66696775726174696F6E0002
:102930000310270200372942293B294929000000BA
:1029400000005A29000000000073746F7265642053
:10295000696E20454550524F4D00436F6E66696762
:1029600075726174696F6E006F2903070400004C73
:102970006F61642066726F6D20454550524F4D0067
:102980008729030604000053746F726520746F205A
:10299000454550524F4D009E2902DA2900004578E6
:1029A00074727564657200AE2902E12B0000466501
:1029B00065647261746500BE29020D2C00004163DC
:1029C00063656C65726174696F6E00D229022D2B8C
:1029D000000047656E6572616C000200001000E146
:1029E000294E30192B052BF32AE22ACD2A9E2AB62E
:1029F0002A872A742A602A4F2A3E2A292A142A0161
:102A00002A082A042F040000504944204D61783AD6
:102A1000255844001B2A0426040000447269766588
:102A2000204D61783A25584D00302A0425040000D5
:102A30004472697665204D696E3A25586D00452AC5
:102A4000042404000050494420443A2558640056A8
:102A50002A042304000050494420493A25586900BB
:102A6000672A042204000044542F50494420503A5D
:102A7000255870007B2A042D040000436F6E747289
:102A80006F6C3A255868008E2A04460400004164A1
:102A900076616E6365206C696E3A25586C00A52AD4
:102AA000044D0400005761697420556E6974733ACF
:102AB0002558556D6D00BD2A044C0400005761690E
:102AC000742054656D702E255854024300D42A0496
:102AD0002E040000537461622E54696D653A2558C6
:102AE0007700E92A042A040000416363656C3A25F3
:102AF000584100FA2A042B0400004D617820465208
:102B00003A255846000C2B042C04000053746172C3
:102B1000742046523A25586600202B0429040000F0
:102B200053746570732F4D4D3A25536500020000B4
:102B30000400342B4E30692B512B3C2B432B027D50
:102B40002B00004D61782E20496E616374697665B3
:102B500000582B02AF2B0000537465707065722013
:102B6000496E61637469766500702B04100400007F
:102B700042617564726174653A256F63000358049D
:102B80000200842B8F2B882B962B0000000000A0C6
:102B90002B00000000005B735D20303D4F66660037
:102BA0004469732E2041667465723A25697000038A
:102BB00020040200B62BC12BBA2BC82B000000004A
:102BC00000D22B00000000005B735D20303D4F669B
:102BD00066004469732E2041667465723A256973F4
:102BE000000200000300E82B4E30FE2BEE2BF52BED
:102BF0000413040000486F6D653A25665A00052CE1
:102C000004160400004D61783A25667A000200003F
:102C10000400142C4E303C2C2C2C1C2C232C040E89
:102C20000400004A65726B3A25616A00332C040D7A
:102C30000400004D6F76653A25615A00432C040A62
:102C40000400005072696E743A25617A0002000037
:102C50000500542C4E30972C842C712C5E2C652C46
:102C600003350400004472792072756E3A2564645D
:102C700000782C03340400004572726F7273203A9E
:102C8000256465008B2C0333040000496E666F20B9
:102C900020203A256469009E2C033204000045631D
:102CA000686F2020203A25646F00B12C02BE2C00F2
:102CB0000053442043617264204D656E750002002C
:102CC000000600C52C4E301F2D0C2DF62CE42CD107
:102CD0002CD82C03F403010244656C6574652066EE
:102CE000696C6500EB2C023E2D020053746F70205E
:102CF0005072696E7400FD2C03F7030400436F6E7D
:102D000074696E7565205072696E7400132D03F638
:102D10000302045061757365205072696E74002659
:102D20002D03F503010253656C6563742053442041
:102D300046696C650001000001003C2D4E30020028
:102D4000000300452D602D562D4B2D522D0354248C
:102D50000200596573005D2D03E80300004E6F000B
:102D6000672D010000000053746F70205072696E6F
:102D70007400792D028A2D000041646A75737420F5
:102D800046616E2073706565640002000007009163
:102D90002D4E30082EF42DDF2DCA2DB52D9F2DA6DA
:102DA0002D031E0400005365742046616E203130EF
:102DB0003025252500BC2D031D040000536574201B
:102DC00046616E20373525252500D12D031C0400D2
:102DD000005365742046616E20353025252500E6B8
:102DE0002D031B0400005365742046616E203235AC
:102DF00025252500FB2D031A0408005475726E204A
:102E000046616E204F6666000F2E04520400004695
:102E1000616E2073706565643A254673252525002B
:102E20000200000900272E4E30812E682EDF2ECCA6
:102E30002EB22E3A309A2E02000009003E2E4E305D
:102E4000812E682EDF2ECC2EB22E3A30502E9A2EA6
:102E5000572E03B20F0000556E6C6F636B204675E2
:102E60006C6C204D656E75006F2E044804000046A2
:102E70006C6F772020526174653A256F6625252591
:102E800000882E041F0400005370656564205261A1
:102E900074653A256F6D25252500A12E0342040097
:102EA0001044697361626C6520537465707065725B
:102EB0007300B92E033804000053687574204F6600
:102EC0006620414C4C20486561747300D32E034743
:102ED000040000507265686561742041425300E649
:102EE0002E03370400005072656865617420504CF1
:102EF00041000200000400F92E4E30172FFF2E066D
:102F00002F043C0400004245442054656D703A2073
:102F1000202545620243001E2F043D0400004E4F51
:102F20005A2054656D703A20202545300243000236
:102F300000000600362F4E306C2F422F3A300430FE
:102F4000582F492F0421040000482E205261646943
:102F50007573203A256F68005F2F03AC0F00005394
:102F60006574205A204F726967696E00732F02845E
:102F70002F000046756C6C2043616C69627261744D
:102F8000696F6E0002000004008B2F4E30C12FAC21
:102F90002F932F9A2F03B10F0000426567696E20AF
:102FA00043616C6962726174696F6E00B32F03B51F
:102FB0000F00004245442041524520434C45414EBC
:102FC00000C82F03B40F00004D414B45205355520C
:102FD00045204E4F5A5A4C4520260002000006005C
:102FE000E22F4E303A30283016300430EE2FF52FD5
:102FF0000267300000457874722E20706F73697418
:10300000696F6E000B3002C83100005A20506F7398
:103010006974696F6E001D30021D32000059205026
:103020006F736974696F6E002F300272320000583E
:1030300020506F736974696F6E00413003FD0300A7
:1030400000486F6D65205072696E7465720055306E
:1030500003E803000050726576696F75732053634F
:103060007265656E20010003F00304006E308B3042
:1030700084307D30763092300000000000A03000B7
:1030800000000000B1300000000000C0300000006F
:103090000000255566206D207072696E74656400AD
:1030A00020453A2565632F25456302437E256F43FE
:1030B000003120636C69636B203D2031206D6D0011
:1030C000453A257833206D6D0003FC030400D030B1
:1030D000ED30E630DF30D830F4300000000000F58D
:1030E0003000000000000531000000000015310034
:1030F00000000000004D617820656E6473746F708D
:103100003A25735A004D696E20656E6473746F7052
:103110003A25737A005A3A257832206D6D0003FB08
:10312000030400253142313B3134312D3149310026
:10313000000000004A3100000000005A3100000089
:1031400000006A310000000000004D617820656ECB
:103150006473746F703A257359004D696E20656E03
:103160006473746F703A25737900593A2578312069
:103170006D6D0003FA0304007A3197319031893183
:1031800082319E3100000000009F310000000000ED
:10319000AF310000000000BF310000000000004D12
:1031A000617820656E6473746F703A257358004DB2
:1031B000696E20656E6473746F703A257378005879
:1031C0003A257830206D6D0003EF030400CF31EC19
:1031D00031E531DE31D731F3310000000000F43148
:1031E0000000000000043200000000001432000063
:1031F000000000004D617820656E6473746F703A52
:1032000025735A004D696E20656E6473746F703A51
:1032100025737A005A3A257832206D6D0003EE034B
:103220000400243241323A3233322C324832000028
:103230000000004932000000000059320000000088
:103240000069320000000000004D617820656E6466
:1032500073746F703A257359004D696E20656E6402
:1032600073746F703A25737900593A257831206D5F
:103270006D0003ED030400793296328F328832817B
:10328000329D3200000000009E320000000000AEBF
:10329000320000000000BE320000000000004D615E
:1032A0007820656E6473746F703A257358004D69A9
:1032B0006E20656E6473746F703A25737800583AA7
:1032C000257830206D6D000000000400CE32EB3216
:1032D000E432DD32D632F2320000000000F8320073
:1032E000000000000C33000000000010330000005C
:1032F0000000255566206D00546F74616C2046698E
:103300006C616D656E74205573656400255574009D
:10331000546F74616C205072696E74696E672054CA
:10332000696D650000000004002B33483341333AD7
:103330003333334F3300000000005E3300000000E1
:10334000006C3300000000007E33000000000052DB
:103350006F73746F636B204D61782076320050720A
:10336000696E746572204D6F64656C004657204429
:103370006174653A2032303137313033300046578E
:103380002056657273696F6E3A20302E39322E32B4
:103390000000000004009833B533AE33A733A033E8
:1033A000BC330000000000C0330000000000C9333F
:1033B0000000000000D2330000000000256F730001
:1033C0005A3A257832206D6D00593A257831206DB2
:1033D0006D00583A257830206D6D00000000040023
:1033E000E233FF33F833F133EA33063400000000F0
:1033F000000A340000000000233400000000003602
:10340000340000000000256F730053706565643A56
:10341000256F6D25252520466C6F773A256F66252B
:103420002525004245443A2565622054617267654E
:10343000743A254562004E4F5A3A2565632054611F
:10344000726765743A2545630000000000000000C3
:1034500000000000FF00000100000000000000006C
:1034600000000000000000000024F403D950C38EC7
:10347000B1C2A23D96828B3582127AE372816CCB07
:1034800066A861015DC758EB546151204E1E4B5632
:1034900048C14559431A41013F093D2F3B7139CD80
:1034A000374036C93465331432D430A32F802E6BA5
:1034B0002D632C672B752A8E29B028DC2710274B0B
:1034C000268F25D9242B248223E0224322AC211AE3
:1034D000218D200420801F001F841E0C1E971D2696
:1034E0001DB81C4E1CE61B821B201BC11A641A0A45
:1034F0001AB2195D190A19B9186A181C18D1178857
:10350000174017FA16B51673163116F115B315765E
:10351000153A150015C7148F1458142214EE13BA57
:1035200013881356132513F612C71299126C124002
:10353000121512EB11C1119811701148112111FBD4
:1035400010D610B1108D106910461024100210E131
:103550000FC00FA00F800F610F420F230F060FE85F
:103560000ECB0EAF0E930E770E5C0E410E270E0D96
:103570000EF30DDA0DC10DA80D900D780D600D49FB
:103580000D320D1B0D050DEF0CD90CC30CAE0C99B3
:103590000C850C700C5C0C480C350C210C0E0CFBD3
:1035A0000BE80BD60BC40BB20BA00B8E0B7D0B6B79
:1035B0000B5A0B4A0B390B290B180B080BF80AE9AD
:1035C0000AD90ACA0ABB0AAC0A9D0A8E0A800A7185
:1035D0000A630A550A470A390A2C0A1E0A110A0404
:1035E0000AF709EA09DD09D009C409B709AB099F3F
:1035F00009920987097B096F09630958094C094138
:103600000936092B09200915090A090009F508EBF3
:1036100008E008D608CC08C208B808AE08A4089A82
:1036200008900887087D0874086B08610858084FDF
:103630000846083D0834082C0823081A081208090F
:10364000080108F807F007E807E007D807D007C81F
:1036500007C007B807B007A807A1070000420FA1DD
:10366000071605D0030D038B022E02E801B2018676
:1036700001630145012C0117010401F400526F732D
:10368000746F636B4D415820526561647900526FCD
:1036900073746F636B4D41582052656164790052B9
:1036A0006F73746F636B4D4158205265616479008C
:1036B000207A3A0020793A0020783A00696E207129
:1036C0007565756544656C74614D6F766520746FC2
:1036D0002063616C63756C61746544656C746153DF
:1036E00075625365676D656E74732072657475726B
:1036F0006E73206572726F722E00432068697420A9
:10370000666C6F6F720043706F73207820737175F1
:10371000617265200043706F732078207374657048
:1037200073200043706F7320792073717561726527
:10373000200043706F7320792073746570732000CC
:10374000422068697420666C6F6F720042706F73FC
:10375000207820737175617265200042706F73204C
:1037600078207374657073200042706F7320792025
:10377000737175617265200042706F7320792073D8
:10378000746570732000412068697420666C6F6FE7
:10379000720041706F7320782073717561726520BB
:1037A0000041706F7320782073746570732000413E
:1037B000706F73207920737175617265200041709C
:1037C0006F73207920737465707320006D6F766558
:1037D00052656C617469766544697374616E636582
:1037E000496E5374657073202F207175657565443B
:1037F000656C74614D6F76652072657475726E7359
:10380000206572726F720000000A0B02090C0D0E27
:103810000807030401000000000000000000000091
:103820000000000000000000000000000000000098
:103830000000001211100000000000000000000055
:103840000000000000000000000000000001021065
:1038500020200808102040102040800201020108AA
:10386000040201010204081020408080402010085A
:1038700004020180040201804020100804020108B3
:103880000402010102040810204080010204081013
:103890002040800505050507050808080802020202
:1038A000020A0A08080404040401010101010101DB
:1038B000010303030303030303040707070C0C0CB2
:1038C0000C0C0C0C0C02020202060606060606068A
:1038D000060B0B0B0B0B0B0B0B0000200023002621
:1038E0000029002C002F0032000001000003010617
:1038F00001090100002200250028002B002E0031C4
:1039000000340002010000050108010B0100002144
:1039100000240027002A002D0030003300010100A0
:1039200000040107010A01024E414E494E49545913
:10393000494E46CDCCCC3D0AD7233C17B7D138777A
:10394000CC2B329595E6241FB14F0A000020410090
:1039500000C84200401C4620BCBE4CCA1B0E5AAEDA
:10396000C59D7400DC8BD99E87DD7E0111241FBEAE
:10397000CFEFD1E2DEBFCDBF00E00CBF13E0A0E08F
:10398000B2E0E8EAF3E202E00BBF02C007900D925A
:10399000A039B107D9F72EE1A0E9B3E001C01D922B
:1039A000A938B207E1F719E3CCE6D9E300E006C095
:1039B00022970109FE010BBF0F944D0DC436D107AC
:1039C00080E00807A9F70F94B9080D94D2110C9460
:1039D0000000CF93DF9300D01F92CDB7DEB744E055
:1039E00050E0BC01CE0101960F948E1169817A815D
:1039F0008B819C810F900F900F900F90DF91CF9152
:103A0000089522E090E0281728F4963019F0220F4C
:103A10009F5FF9CF209A289A219A229A2398809121
:103A200064008B7F80936400892F806A86958CBDAB
:103A300090FD03C081E0963009F480E08DBD0895CB
:103A40008091EA0283FB882780F90895179A0895E8
:103A5000169A0895159A089588E493E0BACFCF9204
:103A6000DF92EF92FF92CF93DF9300D01F921F92CD
:103A7000CDB7DEB76B017C01609377077093780751
:103A80008093790790937A070E942674C982DA821C
:103A9000EB82FC8244E050E065E773E0CE010196E2
:103AA0000F94B01123E0B701A60180E695E00E94D3
:103AB000F4A00E949ECE682F88E690E06D830F945C
:103AC0009E116D81681721F088E690E00F94B9117E
:103AD0000F900F900F900F900F90DF91CF91FF906C
:103AE000EF90DF90CF900895CF93DF931F92CDB7E3
:103AF000DEB7BC018DE793E00F94CC110E949ECEFF
:103B0000682F88E690E069830F949E116981681799
:103B100039F088E690E00F90DF91CF910D94B911C4
:103B20000F90DF91CF910895CF93DF931F92CDB780
:103B3000DEB7BC018FE793E00F94CC110E949ECEBC
:103B4000682F88E690E069830F949E116981681759
:103B500039F088E690E00F90DF91CF910D94B91184
:103B60000F90DF91CF910895CF93DF931F92CDB740
:103B7000DEB7BC0181E893E00F94CC110E949ECE89
:103B8000682F88E690E069830F949E116981681719
:103B900039F088E690E00F90DF91CF910D94B91144
:103BA0000F90DF91CF910895CF93C82F8091A604F5
:103BB0008823D1F01092A6040E946B599091DF02E5
:103BC00091509093DF02911109C08091E0028330FF
:103BD00010F40E94F85885E08093DF026C2F86E78E
:103BE0009AE0CF910C94D2C9CF91089580912C0C7A
:103BF000882349F00E94BD9780E0D6DF86E79AE0EF
:103C00000E94D1C9F3CF08954F925F926F927F9235
:103C10008F929F92AF92BF92CF92DF92EF92FF92DC
:103C20000F931F93CF93DF9300D01F92CDB7DEB7D2
:103C30008C018091F1079091F207A091F307B09168
:103C4000F40789839A83AB83BC83C090F507D09037
:103C5000F607E090F707F090F8078090F90790904A
:103C6000FA07A090FB07B090FC079C01AD01BC01D6
:103C7000CD010F947F0C81110FC149805A806B8058
:103C80007C80E89477F82FEF3FEF4FE75FE7C301C1
:103C9000B2010F947F0C81110BC02FEF3FEF4FE764
:103CA0005FE7C301B2010F942C0918160CF4F4C09D
:103CB000A7019601C701B6010F947F0C8111ECC0DA
:103CC00026013701E89477F82FEF3FEF4FE75FE7E2
:103CD000C301B2010F947F0C81110BC02FEF3FEF96
:103CE0004FE75FE7C301B2010F942C0918160CF4DB
:103CF000D3C0A5019401C501B4010F947F0C8111BB
:103D0000CBC024013501E89477F82FEF3FEF4FE760
:103D10005FE7C301B2010F947F0C81110BC02FEF3D
:103D20003FEF4FE75FE7C301B2010F942C0918166C
:103D30000CF4B2C02091C9073091CA074091CB075B
:103D40005091CC0769817A818B819C810F94C8083E
:103D50002B013C012091CD073091CE074091CF0738
:103D60005091D007C701B6010F94C8086B017C01C0
:103D70002091D1073091D2074091D3075091D407B9
:103D8000C501B4010F94C8084B015C018091510832
:103D9000882329F020E732E441E25DE304C020E01B
:103DA00030E040E85FE3C301B2010F94D40BAB01F4
:103DB000BC0122E086EC93E20E9431A1809151087F
:103DC000882329F020E732E441E25DE304C020E0EB
:103DD00030E040E85FE3C701B6010F94D40BAB01BC
:103DE000BC0122E08EEB93E20E9431A18091510848
:103DF000882329F020E732E441E25DE304C020E0BB
:103E000030E040E85FE3C501B4010F94D40BAB018F
:103E1000BC0123E08AEB93E20E9431A16091090882
:103E200070910A0880910B0890910C080F94FF097B
:103E300020914D0830914E0840914F085091500804
:103E40000F94D40B20915108222329F020E732E46B
:103E500041E25DE304C020E030E040E85FE30F941E
:103E6000D40BAB01BC0124E086EB93E20F900F90E2
:103E70000F900F90DF91CF911F910F91FF90EF90D6
:103E8000DF90CF90BF90AF909F908F907F906F907A
:103E90005F904F900C94F4A0C8010E94169F4ACFE7
:103EA000CF92DF92EF92FF92CF93DF93EC018931B3
:103EB00091053CF0C53F81E0D8072CF0C4EFD1E07C
:103EC00002C0C9E1D0E0BE01882777FD8095982F18
:103ED0000F94FF096B017C0160910107709102074B
:103EE000882777FD8095982F0F94FF099B01AC01DF
:103EF000C701B6010F9433099B01AC016091030720
:103F00007091040780910507909106070F94D40BD8
:103F10006093030770930407809305079093060747
:103F2000D0930207C0930107BE018BE893E2DF91B3
:103F3000CF91FF90EF90DF90CF900C94DA9FCF92CB
:103F4000DF92EF92FF926B017C0120E030E040E7CE
:103F500052E40F942C0987FD11C020E030E046E1C7
:103F600053E4C701B6010F94600B18166CF4C12C12
:103F7000D12C86E1E82E83E4F82E06C0C12CD12C8A
:103F800090E7E92E92E4F92EC0927707D092780755
:103F9000E0927907F0927A0722E0B701A60182E762
:103FA00093E2FF90EF90DF90CF900C94F4A08F926B
:103FB0009F92AF92BF92CF92DF92EF92FF92CF93F8
:103FC000DF93EC018931910534F0893C91052CF0A7
:103FD000C8ECD0E002C0C9E1D0E0D0930007C093A4
:103FE000FF06E0919003F0919103E258FF4FC080EB
:103FF000D180E280F38020E030E0A901C701B60162
:104000000F942C09AE01662757FD6095762F181680
:104010005CF0CB01BA010F94FF092AE037ED43E2CF
:104020005CE30F94D40B24C0CB01BA010F94FF09B9
:104030002AE037ED43E25CE30F94D40B20E030E05C
:1040400040E850E40F94D40B4B015C01A7019601AA
:10405000C701B6010F94D40B2BED3FE049E450E4C7
:104060000F94D40B9B01AC01C501B4010F9433092B
:104070006093E5027093E6028093E7029093E80272
:10408000BE018DE793E2DF91CF91FF90EF90DF903B
:10409000CF90BF90AF909F908F900C94DA9FCF936A
:1040A000DF932091C50797FD0DC0EC018F3F91056F
:1040B00019F014F0CFEFD0E0209721F02860209382
:1040C000C50705C0277F2093C507C0E0D0E0611178
:1040D0008DDD8091851D90E0C817D90729F0BE01BC
:1040E00088E693E20E94DA9FC093851DDF91CF910D
:1040F00008954F925F926F927F928F929F92AF92AC
:10410000BF92CF92DF92EF92FF92CF93DF9300D0D6
:104110001F92CDB7DEB72FE632E143E85AE3609154
:10412000E9067091EA068091EB069091EC060F94F7
:10413000D40B6B017C0181E890E04BDC9B01AC016E
:10414000C701B6010F94C808AB01BC0122E086E5A7
:1041500093E20E9431A184E493E20E94DC9EE0910C
:104160000A02F0910B0220E030E040E751E4638561
:104170007485858596850F94600B18160CF46BC0BA
:1041800020E030E0A9018DE790E029833A834B835A
:104190005C830F94A6114B015C0129813A814B810C
:1041A0005C81820E931EA41EB51EC501B40120E8D9
:1041B00031E541E050E00F94000D60E87EEA8EEFBB
:1041C0009FEF0F949B0C6B017C01C80CD91CEA1C5F
:1041D000FB1CBA01A90187E493E20E9400A0C70179
:1041E000B60120E13EE040E050E00F94000D4901AF
:1041F0005A01BA01A9018DE393E20E9400A0A0EF49
:10420000B1EFA50194010F94490D6C0D7D1D8E1D1C
:104210009F1D2CE330E040E050E00F94000DBA0108
:10422000A90185E393E20E9400A080E393E20F904E
:104230000F900F900F90DF91CF91FF90EF90DF9054
:10424000CF90BF90AF909F908F907F906F905F9036
:104250004F900C94F59E0F946303C090ED06D090A0
:10426000EE06E090EF06F090F0066C197D098E09DD
:104270009F0928EE33E040E050E00F94DE0C83CF3E
:104280005F988EBD0DB407FEFDCF6EBD0DB407FE69
:10429000FDCF5F9A0895CF93DF9300D01F921F92B6
:1042A000CDB7DEB795E0E7E4F3E0DE0111960190CB
:1042B0000D929A95E1F7E1E0F0E0EC0FFD1FE80FB9
:1042C000F11D808190E00F900F900F900F900F9054
:1042D000DF91CF91D5CFFF920F931F93CF93DF93B1
:1042E00000D01F921F92CDB7DEB785E0ECE4F3E07B
:1042F000DE01119601900D928A95E1F780E081DB55
:10430000579A8E010F5F1F4FF12CF80161918F01B9
:1043100070E08F2DC0DFF394F5E0FF12F6CF0F9021
:104320000F900F900F900F90DF91CF911F910F91F1
:10433000FF90089567FD43C08230E9F028F4882398
:1043400041F0813061F03BC0833009F1843059F194
:1043500036C0662311F0A19A67C0A19865C080910C
:104360000801662311F0806801C08F7780930801EF
:1043700047FF3AC05DC080910801662311F0806458
:1043800001C08F7B8093080147FF34C053C08091E8
:104390000801662311F0886001C0877F80930801BF
:1043A00047FF32C044C080910801662311F082604B
:1043B00001C08D7F8093080147FF2EC03AC047FDA2
:1043C00039C08230B9F028F4882341F0813061F09F
:1043D00008958330C9F08430F9F00895442311F032
:1043E000A09A0895A0980895442311F0A29A0895E0
:1043F000A298089580910801442311F0806201C0C1
:104400008F7D80930801089580910801442311F065
:104410008061F7CF8F7EF5CF80910801442311F0A2
:104420008460EFCF8B7FEDCF47FFD8CF08950895FD
:10443000089508950895643079F028F4613041F0CA
:10444000623041F00895683051F0603141F00895D4
:1044500040E003C040E004C041E060E002C041E051
:1044600061E068CFCF93DF9381E193E20E94F59EF4
:1044700062B36695617070E086EC93E20E94CE9F15
:1044800062B3617070E08EE293E20E94DA9FC6E050
:10449000D1E08881992787FD9095692F661F66274F
:1044A000661F70E089E293E20E94CE9F62B362FBD6
:1044B000662760F970E08EE293E20E94DA9F6881DD
:1044C00066FB662760F970E086E293E20E94CE9F69
:1044D000688165FB662760F970E08EE293E20E94D6
:1044E000DA9F688163FB662760F970E082E293E2FD
:1044F0000E94CE9F68816295617070E08EE293E2C7
:104500000E94DA9F68816695617070E08EE193E2A7
:104510000E94CE9F688162FB662760F970E08EE2A0
:1045200093E2DF91CF910C94DA9FFF920F931F9348
:10453000CF93DF9300D01F921F92CDB7DEB785E0F7
:10454000E1E5F3E0DE01119601900D928A95E1F725
:10455000989A9A9A809107018062809307018091CE
:104560000701806180930701809107018460809337
:1045700007018E010F5F1F4FF12CF80161918F0130
:104580008F2D59DFF394F5E0FF12F7CF0F900F90C6
:104590000F900F900F90DF91CF911F910F91FF908F
:1045A00008950C9437DA0E9422DA209108023091A3
:1045B00009028217930724F490930902809308025A
:1045C000089560910802709109028091060290910D
:1045D00007026817790744F4709307026093060294
:1045E00089EC93E20C94DA9F0895CF93C82F69E188
:1045F00070E080E99DE10F9433006C2F80E99DE12C
:104600000E94D4FF60E080E99DE10F94340088238C
:1046100029F08EEB9CE0CF910C94F59ECF910895FC
:10462000CF93DF93D82FC62F69E170E080E99DE139
:104630000F9433006D2F80E99DE10E94D4FF6C2F11
:1046400080E99DE10E94D4FF80E99DE10F9446003E
:10465000882331F08FE99CE0DF91CF910C94F59E97
:10466000DF91CF9108951F93CF93DF93182FBDDF74
:1046700041E050E069E170E080E99DE10F9427009E
:1046800080E99DE10E947DFF892B99F080E99DE101
:104690000E9485FFEC01612F70E085E99CE00E949B
:1046A000CE9FBE0177278CE89CE00E94DA9F81E0D4
:1046B00005C08EE69CE00E94F59E80E0DF91CF91E0
:1046C0001F91089589E49CE00E94F59E80E99DE198
:1046D0000F9412008FE0C7DF81E3C5DF80E2C3DF04
:1046E0006CE980E29DDF80E2BEDF82E2BCDF60E455
:1046F00082E296DF82E2B7DF85E2B5DF60E085E245
:104700008FDF85E2B0DF83E2AEDF60E383E288DF44
:1047100083E2A9DF84E2A7DF6AE484E281DF84E246
:10472000A2DF80E3A0DF60E280E37ADF80E39BDF4B
:1047300081E399DF82E397DF64E182E371DF82E363
:1047400092DF83E390DF60E083E36ADF83E38BDF64
:1047500084E389DF60E084E363DF84E384DF86E36E
:1047600082DF62E386E35CDF86E37DDF87E37BDF76
:1047700060E087E355DF87E376DF88E374DF60E19D
:1047800088E34EDF88E36FDF89E36DDF8AE36BDF69
:1047900062E38AE345DF8AE366CFCF9381E363DF99
:1047A000C82F85E360DF811101C0C0E089E35BDFD2
:1047B000811101C0C0E08DE256DF811101C0C0E06F
:1047C0008C2FCF9108956DE08AE39BE00E94D6D8AC
:1047D0006AE08AE39BE00C94D6D8CF93C82FE0918F
:1047E0009003F091910342A953A964A975A922E00D
:1047F00083EB93E20E9431A1E0919003F091910349
:1048000046A957A960AD71AD20E08AE993E20E9404
:1048100031A10E94FC50AB01BC0122E08FEA93E27F
:104820000E9431A14091190250911A0260911B021D
:1048300070911C0220E08AE993E20E9431A1CC230E
:1048400091F061E070E081EA93E20E94CE9F6CEF0C
:104850007FE08091110290911202681B790B8FE921
:1048600093E20E94CE9FE0910E02F0E0EE57F24EEE
:10487000608170E086EA93E20E94CE9FE091DE02C2
:10488000EF3F29F4E0919003F0919103E081F0E093
:10489000EE57F24E608170E08BEA93E20E94CE9F69
:1048A000CF9191CF2F923F924F925F926F927F92D2
:1048B0008F929F92AF92BF92CF92DF92EF92FF9230
:1048C0000F931F93CF93DF93CDB7DEB729970FB622
:1048D000F894DEBF0FBECDBF5C01DC0116968D9152
:1048E0009C9117978C38910509F469C608F0DBC0D4
:1048F0008235910509F40EC408F07EC08A31910515
:1049000009F4C5C208F03FC08531910509F43DC2E4
:1049100078F48231910509F417C28431910509F4C4
:1049200018C2419711F00C94303517981698AFC5FE
:104930008731910509F461C208F443C288319105B9
:1049400009F489C2499711F00C94303560E082E295
:1049500099E029960FB6F894DEBF0FBECDBFDF9168
:10496000CF911F910F91FF90EF90DF90CF90BF906C
:10497000AF909F908F907F906F905F904F903F90FF
:104980002F900C94AE9A8E31910509F4DDC218F582
:104990008C31910509F4B0C210F00C94693582E2B3
:1049A00099E029960FB6F894DEBF0FBECDBFDF9118
:1049B000CF911F910F91FF90EF90DF90CF90BF901C
:1049C000AF909F908F907F906F905F904F903F90AF
:1049D0002F900C94F59D8A32910509F40FC328F4A9
:1049E000809709F4DEC20C9430358035910510F0C3
:1049F0000C9469350C9430358B36910511F40C9478
:104A0000622E38F58C35910509F48FC460F4843535
:104A1000910509F488C308F481C38535910509F42B
:104A200060C40C9430358836910509F433C530F4F0
:104A30008336910509F4DDC40C943035893691052F
:104A400009F410C68A36910511F40C94512E0C9479
:104A500030358337910511F40C94B32E80F48F36E2
:104A6000910511F40C94832E8237910511F40C9466
:104A7000D12E8D36910511F00C94303515C6853741
:104A8000910511F40C94D42E10F40C94DB2D87377F
:104A9000910511F40C94FF2E8837910511F40C94B4
:104AA000422F0C9430358530B1E09B0711F40C9403
:104AB000503208F0B0C08F3C910511F40C94EA30EC
:104AC00008F041C08A3C910511F40C94193070F43F
:104AD000883C910511F40C94682F10F00C94BB2FB6
:104AE0008E3B910509F4B6C70C9430358C3C91058A
:104AF00011F40C94703010F40C945E308D3C9105E0
:104B000011F40C94D0308E3C910511F00C9430359A
:104B1000C50129960FB6F894DEBF0FBECDBFDF9159
:104B2000CF911F910F91FF90EF90DF90CF90BF90AA
:104B3000AF909F908F907F906F905F904F903F903D
:104B40002F900C943FD58F3D910511F40C94A53115
:104B500088F48C3D910511F40C9452318D3D9105F2
:104B600011F40C947A31813D910511F00C9430359B
:104B70000C943231893E910511F40C94BA3140F510
:104B8000883E910511F00C94303560918A1D70912A
:104B90008B1D8AEC92E20E94CE9F4091861D50911F
:104BA000871D6091881D7091891D22E081EC92E241
:104BB0000E94F4A010928B1D10928A1D1092861DE7
:104BC0001092871D1092881D1092891D0C946935D2
:104BD0008B3F910511F40C94F3318430914011F026
:104BE0000C94303529960FB6F894DEBF0FBECDBFBA
:104BF000DF91CF911F910F91FF90EF90DF90CF90B9
:104C0000BF90AF909F908F907F906F905F904F90EC
:104C10003F902F9057CD8E3521E0920711F40C94E0
:104C2000A833C0F58E3241E0940711F40C94F332AE
:104C300098F48931A1E09A0711F40C94A8328C32CF
:104C4000B1E09B0711F40C94B8328630914011F01A
:104C50000C9430350C9472328034F1E09F0711F4DB
:104C60000C94663338F48F32914011F40C94323343
:104C70000C943035813441E0940711F40C946A337C
:104C80008234914011F00C94303580E00E94AE8760
:104C90000C947F338239A1E09A0711F40C94933479
:104CA00098F58836E1E09E0711F40C945F3438F4EF
:104CB0008336914011F40C9419340C9430358039BA
:104CC00031E0930711F40C9479348139914011F05B
:104CD0000C94303529960FB6F894DEBF0FBECDBFC9
:104CE000DF91CF911F910F91FF90EF90DF90CF90C8
:104CF000BF90AF909F908F907F906F905F904F90FC
:104D00003F902F900C94D185853F51E0950711F489
:104D10000C94C33460F4843F914011F00C9430350E
:104D200080E00E94B5CE83E39EE10C94CE34863FB2
:104D3000E1E09E0711F40C94E8348C38934011F4B0
:104D40000C9402350C9430350E94261D0E94281DBB
:104D500077C282E299E029960FB6F894DEBF0FBEC3
:104D6000CDBFDF91CF911F910F91FF90EF90DF901A
:104D7000CF90BF90AF909F908F907F906F905F90FB
:104D80004F903F902F900C943E9D82E299E029969F
:104D90000FB6F894DEBF0FBECDBFDF91CF911F914C
:104DA0000F91FF90EF90DF90CF90BF90AF909F90CA
:104DB0008F907F906F905F904F903F902F900C94CA
:104DC000339A82E299E029960FB6F894DEBF0FBEBF
:104DD000CDBFDF91CF911F910F91FF90EF90DF90AA
:104DE000CF90BF90AF909F908F907F906F905F908B
:104DF0004F903F902F900C94389AD5018D919C91B3
:104E000097FD02C00C94693560E082E299E00E944F
:104E10007066F501EE5AFF4F6081718140E082E2D9
:104E200099E029960FB6F894DEBF0FBECDBFDF9193
:104E3000CF911F910F91FF90EF90DF90CF90BF9097
:104E4000AF909F908F907F906F905F904F903F902A
:104E50002F900C946F9D82E299E029960FB6F894FA
:104E6000DEBF0FBECDBFDF91CF911F910F91FF909D
:104E7000EF90DF90CF90BF90AF909F908F907F90FA
:104E80006F905F904F903F902F900C949D9AF501FA
:104E90008081918192FD02C00C946935468D578DB9
:104EA00060A171A180918C09882311F40C9469355B
:104EB0004093830950938409609385097093860910
:104EC00082E699E029960FB6F894DEBF0FBECDBFFB
:104ED000DF91CF911F910F91FF90EF90DF90CF90D6
:104EE000BF90AF909F908F907F906F905F904F900A
:104EF0003F902F900C94B664D5018D919C9197FDB5
:104F000002C00C946935F501EE5AFF4F6081718142
:104F100082E299E029960FB6F894DEBF0FBECDBFAE
:104F2000DF91CF911F910F91FF90EF90DF90CF9085
:104F3000BF90AF909F908F907F906F905F904F90B9
:104F40003F902F900C94169EF5018081918197FDE2
:104F500002C00C94693560E082E299E00E947066BC
:104F6000F501EE5AFF4F6081718182E299E0299646
:104F70000FB6F894DEBF0FBECDBFDF91CF911F916A
:104F80000F91FF90EF90DF90CF90BF90AF909F90E8
:104F90008F907F906F905F904F903F902F900C94E8
:104FA000789ED5018D919C9197FD02C00C94693536
:104FB00060E082E299E00E947066F501EE5AFF4FD0
:104FC0006081718182E299E029960FB6F894DEBF84
:104FD0000FBECDBFDF91CF911F910F91FF90EF904A
:104FE000DF90CF90BF90AF909F908F907F906F9009
:104FF0005F904F903F902F900C94A69EF5012081DA
:10500000318133FD02C00C94693512A1E12EF3A069
:10501000ECEDFCE0449150E04E155F0509F45EC0F4
:1050200032964DE0E035F407A9F7F7FC57C032FFA0
:105030002CC0D5015E964D915D916D917C919197BB
:105040004F3F51056105710509F0E0F461E0812FE2
:105050000F947704F501668D812F0F94B004D5016C
:105060005E966D917C915F97812F0F945502B701E9
:1050700084E093E20E94CE9FF501668D778D8FEFDD
:1050800092E212C087EF94E02BC062E0812F0F9470
:105090007704B7018FEF92E20E94CE9F812F0F9489
:1050A000E504BC018AEF92E229960FB6F894DEBFC0
:1050B0000FBECDBFDF91CF911F910F91FF90EF9069
:1050C000DF90CF90BF90AF909F908F907F906F9028
:1050D0005F904F903F902F900C94DA9F81EC94E07A
:1050E00029960FB6F894DEBF0FBECDBFDF91CF91EA
:1050F0001F910F91FF90EF90DF90CF90BF90AF90F6
:105100009F908F907F906F905F904F903F902F90E7
:105110000C94169F10920D080C94693581E08093D1
:105120000D080C946935D5018D919C91119792FFD2
:1051300014C05E962D913D914D915C919197A8EE92
:10514000B3E00F943D0D60933E0370933F03809353
:105150004003909341030C94693593FFA5C0F5017A
:1051600082A193A1A4A1B5A182309105A105B105A9
:1051700009F466C02CF50097A105B10509F446C0F5
:105180000197A105B10511F00C94693529960FB668
:10519000F894DEBF0FBECDBFDF91CF911F910F916D
:1051A000FF90EF90DF90CF90BF90AF909F908F9047
:1051B0007F906F905F904F903F902F900C94281DA0
:1051C00083309105A105B10509F454C00497A105E8
:1051D000B10511F00C94693529960FB6F894DEBF2D
:1051E0000FBECDBFDF91CF911F910F91FF90EF9038
:1051F000DF90CF90BF90AF909F908F907F906F90F7
:105200005F904F903F902F900C94135129960FB6BA
:10521000F894DEBF0FBECDBFDF91CF911F910F91EC
:10522000FF90EF90DF90CF90BF90AF909F908F90C6
:105230007F906F905F904F903F902F900C94261D21
:1052400029960FB6F894DEBF0FBECDBFDF91CF9188
:105250001F910F91FF90EF90DF90CF90BF90AF9094
:105260009F908F907F906F905F904F903F902F9086
:105270000C942A1D29960FB6F894DEBF0FBECDBF41
:10528000DF91CF911F910F91FF90EF90DF90CF9022
:10529000BF90AF909F908F907F906F905F904F9056
:1052A0003F902F900C9405510E94F61D81E02996A5
:1052B0000FB6F894DEBF0FBECDBFDF91CF911F9127
:1052C0000F91FF90EF90DF90CF90BF90AF909F90A5
:1052D0008F907F906F905F904F903F902F900C94A5
:1052E000BA73D5018D919C91119792FF14C05E966F
:1052F0002D913D914D915C919197A8EEB3E00F9463
:105300003D0D609342037093430380934403909355
:1053100045030C9469351092420310924303109296
:105320004403109245030C946935F501808183FF95
:105330000CC082859385A485B585809327039093BF
:105340002803A0932903B0932A03D5018C9184FFED
:105350000EC01E968D919D910D90BC91A02D8093B5
:105360002B0390932C03A0932D03B0932E03F501F0
:10537000808185FF0CC082899389A489B589809337
:105380002F0390933003A0933103B09332030E9414
:105390002674D5018C9186FD02C00C94693520914C
:1053A00090033091910356968D919D910D90BC91F3
:1053B000A02DF90181879287A387B48780812996E0
:1053C0000FB6F894DEBF0FBECDBFDF91CF911F9116
:1053D0000F91FF90EF90DF90CF90BF90AF909F9094
:1053E0008F907F906F905F904F903F902F900C9494
:1053F000424FD501ED91FC911197F2FF0DC05E96E1
:105400002D913D914D915C919197A8EEB3E00F9451
:105410003D0D6B017C0106C040E1C42E47E2D42E55
:10542000E12CF12CE3FD0E94261DF501808184FD15
:105430000E94281DD5018C9185FD0E942A1D0F9484
:1054400063032B013C014C0C5D1C6E1C7F1C0F94F4
:105450006303A3019201261B370B480B590BDA019A
:10546000C901803A9648A140B10518F40E941C7900
:10547000EECFD5018C9183FD1798F501808184FDD5
:105480001698D5018C9185FD02C00C94693515984C
:105490000C9469350E94295981110C9469350F9437
:1054A000630360938C1D70938D1D80938E1D90936C
:1054B0008F1D0E94201D81110C946935F50180819A
:1054C000918193FF02C00C94533592FF0AC0868DE0
:1054D000978DA0A1B1A1892B8A2B8B2B11F40C9451
:1054E0005335D5018D919C91119792FD02C00C947A
:1054F00069359C012227317091FF23C0232B89F04D
:1055000011E020E030E0A9015A966D917D918D91D6
:105510009C915D970F94600B18160CF010E0212FF2
:1055200001C020E085010C5A1F4FF501668D778D73
:1055300080A191A129870F94FF092985D8014C9159
:1055400024C0232B81F011E020E030E0A901F50117
:10555000628D738D848D958D0F94600B18160CF0F1
:1055600010E0212F01C020E00091900310919103E1
:10557000D5015E966D917D918D919C919197298732
:105580000F94FF092985F801408129960FB6F894F8
:10559000DEBF0FBECDBFDF91CF911F910F91FF9066
:1055A000EF90DF90CF90BF90AF909F908F907F90C3
:1055B0006F905F904F903F902F900C9479540E9481
:1055C000295981110C9469350F94630360938C1DE4
:1055D00070938D1D80938E1D90938F1D0E94201DB2
:1055E00081110C946935D5018D919C91119792FD93
:1055F00002C00C94693590FF11C011E020E030E04A
:10560000A9015A966D917D918D919C915D970F9412
:10561000600B18160CF010E0412F01C040E0F501BE
:10562000668D778D80A191A149870F94FF094985E7
:1056300029960FB6F894DEBF0FBECDBFDF91CF9194
:105640001F910F91FF90EF90DF90CF90BF90AF90A0
:105650009F908F907F906F905F904F903F902F9092
:105660000C944255D5018D919C9133E09695879588
:105670003A95E1F7817029960FB6F894DEBF0FBE18
:10568000CDBFDF91CF911F910F91FF90EF90DF90F1
:10569000CF90BF90AF909F908F907F906F905F90D2
:1056A0004F903F902F9099C80E94295981110C94D6
:1056B00069350F94630360938C1D70938D1D8093E7
:1056C0008E1D90938F1D0E94201D81110C946935B1
:1056D00040E060EB74E086E79AE00E94FFAA86E76C
:1056E0009AE00E9453AE0E94F61D209090033090E5
:1056F0009103F5018081918191FF09C0EC5AFF4F20
:105700002081211104C02BE5222E22E0322E92FFAF
:105710001EC090FF0FC011E020E030E0A901D501CC
:105720005A966D917D918D919C915D970F94600B30
:1057300018160CF010E0F501668D778D80A191A10F
:105740000F94FF09212FD1014C910E947954F1014E
:1057500026A937A940AD51AD62A973A984A995A91D
:105760000F94C7082B013C0120E030E0A9010F9401
:10577000600B181664F420E030E040EA50E4C30106
:10578000B2010F942C0987FF0EC00C94693520E0FC
:1057900030E040EA50ECC301B2010F94600B1816E0
:1057A00014F40C94693599249394D101D0962D91D9
:1057B0003C91D1979E968D919C919F9782179307CC
:1057C0000CF0912C0F9463036D837E838F839887F5
:1057D00010E0412C512C32010F94630369837A83CA
:1057E0008B839C8360938C1D70938D1D80938E1D85
:1057F00090938F1DDC01CB012D813E814F81588517
:10580000821B930BA40BB50B893E9340A105B105F8
:1058100058F080E00E94ED2389819A81AB81BC81A0
:105820008D839E83AF83B88781E00E94D41D8091D1
:105830009003909191032816390609F064C0D101B4
:105840009396ED90FC9094971E141F040CF05BC08F
:10585000111158C0992009F477C091966D917C91EF
:105860009297882777FD8095982F0F94FF099B01C9
:10587000AC01F10162A973A984A995A90F94600BE9
:10588000181614F00C946035662777276E197F0977
:10589000882777FD8095982F0F94FF092091330377
:1058A0003091340340913503509136030F94D40B5B
:1058B0000F94CC091F921F92D10152962C915297AE
:1058C0002F9351962C9151972F9350962C9150973E
:1058D0002F931F962C912F935B016C01E12CF12CDF
:1058E000870120E030E0A90160E070E0CB010E9478
:1058F00086F70F900F900F900F900F900F9011E080
:105900000C94603511E0411451046104710409F0F4
:1059100050C09920F1F020E030E040E85FE3F10171
:1059200066A977A980AD91AD0F94C7089B01AC0122
:10593000D101D2966D917D918D919C91D5970F94C7
:10594000600B87FF1FC045CF4114510461047104EF
:1059500081F520E030E040E85FE3F10166A977A936
:1059600080AD91AD0F94C8089B01AC01D101D296D6
:105970006D917D918D919C91D5970F942C0918165E
:105980000CF427CFF101A78DB0A128EE33E00F94DE
:10599000370D2B013C0129813A814B815C81420EFC
:1059A000531E641E751E411451046104710409F4F0
:1059B00013CFD301C20129813A814B815C81821BC3
:1059C000930BA40BB50B81159449A543B74708F475
:1059D00003CF112309F4E2C08091900390919103C9
:1059E0002816390609F0DAC0D10193966D917C91A1
:1059F0009497882777FD8095982F0F94FF09209121
:105A000033033091340340913503509136030F94A2
:105A1000D40B0F94CC091F921F92F10122892F936E
:105A200021892F9320892F9327852F935B016C0168
:105A3000E12CF12C870120E030E0A90160E070E06A
:105A4000CB010E9486F70F900F900F900F900F9050
:105A50000F90A4C00E94201D81110C94693540E074
:105A600064EA74E086E79AE00E94FFAA86E79AE07B
:105A70000E9453AE0E94F61DD5018D919C91119705
:105A800092FF1FC090FF11C011E020E030E0A9019B
:105A90005A966D917D918D919C915D970F94600BBD
:105AA00018160CF010E0412F01C040E0F501668DA2
:105AB000778D80A191A149870F94FF0949850E94A4
:105AC00042552091190230911A0240911B025091C7
:105AD0001C0260911502709116028091170290913C
